:020000041000EA
:1000000000B5324B212058609868022188439860DF
:10001000D860186158612E4B002199600221596106
:100020000121F02299502B49196001219960352056
:1000300000F044F80222904214D00621196600F024
:1000400034F8196E01211966002018661A6600F04E
:100050002CF8196E196E196E052000F02FF8012189
:100060000842F9D1002199601B49196000215960AB
:100070001A491B48016001219960EB211966A021F2
:10008000196600F012F800219960164914480160C1
:100090000121996001BC002800D000471248134993
:1000A000086003C880F30888084703B5996A0420EC
:1000B0000142FBD001200142F8D103BD02B5186610
:1000C0001866FFF7F2FF186E186E02BD00000240BE
:1000D000000000180000070000035F00212200005C
:1000E000F4000018222000A00001001008ED00E03C
:1000F00000000000000000000000000074B24E7A12
:1001000000200420F7010010C3010010C5010010F9
:10011000C1010010C1010010C1010010C101001097
:10012000C1010010C1010010C1010010C701001081
:10013000C1010010C1010010C9010010CB01001065
:10014000CD010010CD010010CD010010CD01001037
:10015000CD010010CD010010CD010010CD01001027
:10016000CD010010CD010010CD010010CD01001017
:10017000CD010010CD010010CD010010CD01001007
:10018000CD010010CD010010CD010010CD010010F7
:10019000CD010010CD010010CD010010CD010010E7
:1001A000CD010010CD010010CD010010CD010010D7
:1001B000CD010010CD010010CD010010CD010010C7
:1001C00000BE00BE00BE00BE00BE00BEEFF3058054
:1001D000103800BEF2EB887184430510A44305106B
:1001E0003402001090A31AE700201F49086006C8D7
:1001F00081F3088810471D48006800282FD10DA4FE
:100200000ECC002902D000F012F8F9E71849194A7B
:10021000002000E001C19142FCD1174988471749ED
:1002200088471749884700BEFDE701C901C29A42C5
:10023000FBD37047A4430510C0000020902C002081
:10024000746F05100000042000000420746F051076
:10025000001004200010042000000000704709482E
:100260000DF044FA0047000008ED00E0000000D067
:10027000902C0020A0580320E1BE00105503001070
:1002800015C000105756000006005250ABB3605323
:10029000589F041006005250861C0302689F0410E9
:1002A000060052505422A29D749F04100500525023
:1002B000DE65F468746F0510F8B5C0460448054B58
:1002C00010B5834203D0044B002B00D0984710BDDB
:1002D000902C0020902C00200000000006480749C8
:1002E000091A8B10C90FC91810B5491003D0044B57
:1002F000002B00D0984710BD902C0020902C00209F
:100300000000000010B5074C2378002B09D1FFF73F
:10031000D5FF054B002B02D0044800E000BF0123AD
:10032000237010BDD830002000000000889A04100F
:10033000054B10B5002B03D00449054800E000BF71
:10034000FFF7CCFF10BDC04600000000DC300020ED
:10035000889A041070B519200AF08EF8D0238022F4
:100360001B0692045A620FF031F900F047F806F0CC
:1003700013FD08F083F806F0B5FF09F0D7FB002263
:100380000524144B1A7006F0B5F9134D013C2100F9
:1003900028000FF00FF9FA2080000AF07DFE002CF3
:1003A000F4D10A200EF066FF012200210B480AF06A
:1003B0003BFB0B4811F0BAFA01220A4B0A4C1A70A7
:1003C0002378012BFCD108F015FA2378012BFAD001
:1003D000F6E7C04684580320889A0410B8570320D3
:1003E000398A0010835803208858032010B502482A
:1003F00011F0C4FD10BDC04690380320092370B52C
:1004000086B0059304330493023B0393013B0293AC
:10041000023B324D324C0193324B22003249334879
:1004200000932B0005F024FE142005F01DFEFA2099
:1004300080000AF031FE2E4E21003200280006F026
:100440002FF83378682B08D02A4C20000EF05EFF7E
:10045000FA2080000AF020FEF7E773783D2BF3D1F5
:1004600001222100280006F03FF8234E320021002F
:10047000280006F073F83378002BF7D10122210011
:10048000280005F0EFFE0121200005F0CDFE03213C
:10049000200005F05FFE0321280005F089FF1321ED
:1004A000200006F0C9F81221200006F003F900210F
:1004B000200006F0E1F80321200006F06BF802218D
:1004C000200006F083F85521200005F061FE182178
:1004D000280005F007FF06B070BDC0467820032055
:1004E0005C32002040420F009C200020942000201D
:1004F000485803209C9A04109C580320F0B5C64627
:10050000334C344D344E22002900300000B505F044
:10051000D9FF6378DB439B0720D023781B0702D4E5
:1005200080BCB846F0BD2D4C0622002120000EF004
:100530006FFD2100300005F095FF0023E05E05F01F
:10054000FFFD274D28600223E05E05F0F9FD68609D
:100550000423E05E05F0F4FDA860E1E7214B0622EC
:100560009846180000210EF053FD1F4F062200216F
:1005700038000EF04DFD4146280005F055FF3900CA
:10058000280005F033FF43460020185E05F0C4FD47
:100590004346164D28600220185E05F0BDFD434617
:1005A00068600420185E05F0B7FDA8600023F85EBF
:1005B00005F0BCFD0E4D28600223F85E05F0B6FD87
:1005C00068600423F85E05F0B1FDA860A5E7C046A9
:1005D000CC4D03205C32002078200320783E03209D
:1005E00018430320683E0320703E03200C3D032087
:1005F000283D0320F0B55746DE464E464546E0B559
:100600008BB008919246190005900993DA170323DD
:100610008C46134063449B109B009846002B00DCE3
:1006200090E05246159B00249B000193149B9B1A5B
:10063000159A9B1A089A9B00029353681268190135
:1006400094460491069251469A00039252468D00B8
:100650000021013A92000792002289465900DE00EB
:10066000CB189B009B461300424665440092019ABA
:1006700094469C44039B1A199F195346002B1EDD78
:10068000069B059819196346804600989B004344D1
:1006900080460094086818600098081A845804314D
:1006A0005C6084599C60C059D86010338D42F1D190
:1006B00043460799009363468C4604339C440421C7
:1006C000029B5A4463448C461400049A3E00E14461
:1006D0009446009A5E4465444A45C8DC1A00009B73
:1006E0009846099B434526DD1499159C089B0D1BD4
:1006F000514609CB6D1A00291DDD41469E004B4332
:100700009B00C01853469C00059B47469C46099B8E
:10071000AB469846159B994600234A449100614494
:10072000C558CD5004339C42FAD1524401375A4443
:100730008019B845F0D10BB0F0BCBB46B246A94613
:10074000A046F0BD0022CCE7F0B54746CE4680B5C6
:100750001F00002B1DDD002A1BDD9300C0180B6855
:10076000002498464B689100D200494252428C4680
:1007700091469B00614645182900A2004244166834
:10078000D21840C18142FAD14A460134A81AA74280
:10079000F0D1C0BCB946B046F0BDC046F0B5DE46AB
:1007A00057464E4645460023E0B51360836887B040
:1007B0009A46059200230268052693460093013B62
:1007C000039002910493052355469B1B98465D4375
:1007D0005B46002B00D18DE14544AD005D442B68A4
:1007E0005C006B6864085F007F08391C381C0EF0E1
:1007F000D8FA002800D0DFE0211C381C0EF0CCFA1B
:10080000002800D0DFE00027731C9A46022B53D942
:10081000AB685B005B08191C181C99460EF0C1FA06
:10082000002800D046E14846211C0EF0B5FA002809
:1008300001D04C4602275346032B3DD0EB685B00AA
:100840005B08191C181C99460EF0ABFA002800D062
:1008500038E14846211C0EF09FFA002801D04C4692
:1008600003275346042B27D02B695B005B08191C18
:10087000181C99460EF095FA002800D02AE1494646
:10088000201C0EF07BFA002801D04C46042753466A
:10089000052B11D06D696D006D08291C281C0EF008
:1008A00080FA002800D01DE1291C201C0EF066FAF9
:1008B000002801D005272C1C029B009A47440021E8
:1008C0009F50201C0EF052FA002800D17EE0049BBD
:1008D000013300D1E3E006239B1B45460193039BB4
:1008E0009B689A465D4306239F1B53469B0099468F
:1008F000019B52461C005443009A7F199446A50060
:1009000065449C460023BF005F44B8461F00644412
:10091000A4005D445C444346286819680EF0F7F96A
:10092000011C20680EF0D9F92060012E2DD9434614
:10093000286859680EF0EBF9011C60680EF0CDF9DB
:100940006060022E21D04346296898680EF0DFF9D6
:10095000011CA0680EF0C1F9A060032E15D043461B
:100960002968D8680EF0D3F9011CE0680EF0B5F9DB
:10097000E060052E09D14346296818690EF0C7F9D1
:10098000011C20690EF0A9F9206101374D444C4447
:10099000BE42C0D1009B013E04330093019B052B56
:1009A00000D010E71A00029B5A6107B0F0BCBB46AA
:1009B000B246A946A046F0BD211C201C0EF0F1F95C
:1009C000002800D018E73C1C01271DE7474530D020
:1009D00059465C460098BB005B4409581D68039A61
:1009E00092682550196001009200594489189B189B
:1009F00008681C680C60186089189B1808681C68D7
:100A00000C60186089189B1808681C680C601860D6
:100A100089189B1808681C680C60186089189B1856
:100A200018680A6808601A60059A13680193013310
:100A300013604546039B5A469B685D439A460623CE
:100A40009B1B0193EC1843465B199B009F58A40025
:100A50005C442068391C0EF046F92060012E00D855
:100A600041E76068391C0EF03EF96060022E00D14B
:100A700039E7A068391C0EF036F9A060032E00D1CA
:100A800031E7E068391C0EF02EF9E060042E00D149
:100A900029E72069391C0EF026F9206123E7062397
:100AA00045469B1B0193039B9B689A465D434346C7
:100AB000049318E7211C201C0EF073F9002800D1C4
:100AC000B7E6B0E6211C201C0EF06BF9002800D11F
:100AD000C5E6BEE6211C201C0EF063F9002800D1FB
:100AE000D3E6CCE6211C201C0EF05BF9002800D1D7
:100AF000E0E6D9E61B68FFDEF0B55746DE464E4617
:100B00004546E0B599B01493249B8246259C2698CF
:100B10005D1C00D1229B651C00D1229C239DEE17F9
:100B200003253540239EB4466544AD10AF0007252C
:100B3000229E0E97AE4335000096149E002E00DCD8
:100B400088E29B001693230110930301D318179397
:100B50006B1EDB0801330391D9015B010F93A300E6
:100B60007C43201880001193131815930023D3465B
:100B7000139108930E9B002B00DCC2E10F9A039B9C
:100B8000944663441293179BD84601930023029323
:100B90000298434601000CCB089C5943A44661448B
:100BA000890051180991411C594361448900511829
:100BB0000A91811C59436144890051180B91C11C51
:100BC0004B4363449B00D318019E0C93009B34005D
:100BD000002B00DC45E2039B0025994600234C4690
:100BE000AA46AB46A946069504952F1C0595079580
:100BF0000D9325683168281C0EF089F859460EF0CF
:100C00006FF871688346281C0EF081F851460EF08B
:100C100067F8B1688246281C0EF079F807990EF043
:100C20005FF8F1680790281C0EF071F805990EF036
:100C300057F8059065683169281C0EF068F8391C72
:100C40000EF04EF87169071C281C0EF060F804992C
:100C50000EF046F8B1690490281C0EF058F8069979
:100C60000EF03EF8F1690690281C0EF050F8494647
:100C70000EF036F88146A568316A281C0EF047F858
:100C800059460EF02DF8716A8346281C0EF03FF885
:100C900051460EF025F8B16A8246281C0EF037F84E
:100CA00007990EF01DF8F16A0790281C0EF02FF836
:100CB00005990EF015F80590E568316B281C0EF0CB
:100CC00026F8391C0EF00CF8716B071C281C0EF06E
:100CD0001EF804990EF004F8B16B0490281C0EF075
:100CE00016F806990DF0FCFFF16B0690281C0EF02B
:100CF0000EF849460DF0F4FF81462569316C281C39
:100D00000EF005F859460DF0EBFF716C8346281C78
:100D10000DF0FDFF51460DF0E3FFB16C8246281C3B
:100D20000DF0F5FF07990DF0DBFFF16C0790281C23
:100D30000DF0EDFF05990DF0D3FF05906569316D5C
:100D4000281C0DF0E4FF391C0DF0CAFF716D071C63
:100D5000281C0DF0DCFF04990DF0C2FFB16D04906A
:100D6000281C0DF0D4FF06990DF0BAFFF16D069026
:100D7000281C0DF0CCFF49460DF0B2FF8146A56955
:100D8000316E281C0DF0C3FF59460DF0A9FF716E9E
:100D90008346281C0DF0BBFF51460DF0A1FFB16E3C
:100DA0008246281C0DF0B3FF07990DF099FFF16EF4
:100DB0000790281C0DF0ABFF05990DF091FF0590F1
:100DC000E569316F281C0DF0A2FF391C0DF088FF7A
:100DD000716F071C281C0DF09AFF04990DF080FF1D
:100DE000B16F0490281C0DF092FF06990DF078FF6A
:100DF000F16F0690281C0DF08AFF49460DF070FF38
:100E00008146803620340D9B009A08330D939A4218
:100E100000DDEEE6139B019C9C46051C5946381CE0
:100E200064440DF05DFF5146071C04980DF058FF17
:100E30000799061C06980DF053FF05998146281C5A
:100E40000DF04EFF129B051C9A46229A009B9A4277
:100E500030DDAB460493534620CB2168281C9A46CC
:100E60000DF055FF011C381C0DF03AFF6168071C9E
:100E7000281C0DF04CFF011C301C0DF031FFA16847
:100E8000061C281C0DF043FF011C48460DF028FFEE
:100E9000E1688146281C0DF03AFF011C58460DF010
:100EA0001FFF8346049B229A0133103404939A4215
:100EB000D1D1051C311C0A9E30680DF00EFF391C83
:100EC000099F041C38680DF008FF291C0C9D386030
:100ED000346028680DF001FF0B9E4946041C306801
:100EE0000DF0FBFE1099019A8C46029B6244019220
:100EF0000E9A0433306002932C609A4200DD47E67C
:100F0000C3460F9A039B944663440E9A0293239B15
:100F10009246159D934200DC90E05B465C68534628
:100F20005C43089B2F009C465B461B6864449C46C0
:100F3000009BA4006444002B00DC99E00023039F85
:100F400099463B00A04600262F001C003968206807
:100F50000DF0DDFE311C0DF0C3FE061C79686068E3
:100F60000DF0D5FE311C0DF0BBFE061CB968A06863
:100F70000DF0CDFE311C0DF0B3FE061CF968E068E3
:100F80000DF0C5FE311C0DF0ABFE061C3969206961
:100F90000DF0BDFE311C0DF0A3FE061C79696069E1
:100FA0000DF0B5FE311C0DF09BFE061CB969A06961
:100FB0000DF0ADFE311C0DF093FE061CF969E069E1
:100FC0000DF0A5FE311C0DF08BFE061C20372034E1
:100FD00008239C46009BE1444B45B7DC44460F9BED
:100FE000EF18029B0193229A009B9A4217DD9946C3
:100FF0000023984643464246F958019B98580DF005
:1010000086FE011C301C0DF06BFE061C01239C4665
:101010000333E1449C46229BE0444B45EAD12068DF
:10102000311C0DF05AFE01239C46119BE2449C4664
:10103000239B20606544534500D06EE71699039AC0
:101040008C46089B62440392149A013308939A4297
:1010500000D08FE519B0F0BCBB46B246A946A04609
:10106000F0BD0025039BA9469A462E1C2F1CECE6DA
:10107000039B00260193B6E7F0B557464E46DE4681
:1010800045468024E0B5B5B006AF3C1920609420F9
:101090007B63E823AE4E38180160BA63FB181C6806
:1010A0003378BFF35B8FDB0700D477E2A94D902242
:1010B0002369BA1813608422A368BA1813608022C7
:1010C000BA1812686D68934202DD8423FB181A6017
:1010D00094218423902279180E688C21FB18BA1869
:1010E00012681B6856435343226879180A60002A25
:1010F00000D180E29B003B660023BB6763687B678F
:10110000002B00D163E2B300FB6500233B6798220C
:101110000423BA1813609033FB181B68002B19DDE9
:101120008023E422FB18BA181B6812681900934246
:1011300000DA4AE2280009010CF032FB0323C2174F
:10114000134098221B189B109B00BA181360042BA5
:1011500000DA35E28023FB181968002900DCA9E1D8
:1011600090207B6B38181A000068796484464243EB
:10117000091A3A616244B9647A609821E4227918C4
:10118000BA18126809684A43BA619A007A6104324F
:10119000FA61A02201339B00BA181360E423FB1804
:1011A0001B689B009B460023FB63FB643B64BB66A0
:1011B0009C227B6CBA1813609022BA181268934272
:1011C00002DD9C23FB181A609423FB181B68002B7C
:1011D00000DC47E19C23FB181A68002A00DC41E18F
:1011E0009423E021FB181B687918BB6598230968D4
:1011F000FB188C461B68B86E53439B00BB607B6F2B
:101200001100FB6783006344FB6000238C46FB6690
:10121000FB620B00B021791839630321013B043ACA
:101220008B436044D31A38603B629822BA18BB6D76
:1012300012689A46934200DD9246FA68FB6E944625
:101240009B0063447B66FB6B88227B65FB6CBA1852
:101250003B659C23FB181B6813609C23FB181A68D2
:101260008823FB181B68D21ABA62A422BA1813602A
:10127000042B03DDA4220423BA1813608823FB186F
:101280003A681B68D21A7A62002B65DDA423BA6B18
:10129000FB189146A8221B68BA18013B98467B6D43
:1012A0009B0099447B6E1360AC220023BA18136034
:1012B000AC23AC22FB181B68BA18013313604346F9
:1012C000002B2CDDA8230025FB181C684B46266844
:1012D0005968301C0DF01BFD011C60680DF0FDFC11
:1012E00043466060012B16D04B46301C99680DF0C8
:1012F0000EFD011CA0680DF0F0FC4346A060022B1F
:1013000009D04B46301CD9680DF001FD011CE06886
:101310000DF0E3FCE06001355C445545D6D1012376
:101320005B429C46A133FB181B68E0449C46A82303
:10133000A822FB181B68BA1804331360AC23A4223C
:10134000FB18BA181B681268E1449342B0DB03E053
:10135000E0220320A43803208823A422FB18BA1813
:101360001B681268396B9D1A7B6EBE6A0B60E423A2
:10137000FB181B6891464B609C230196FB181B6869
:1013800088460093F86F5346FFF734F9002D37DD98
:1013900041467C6A386D4C440319B86B4A46844612
:1013A000786B9B004860A420381802608C203818A5
:1013B000006863440B602B0081463963FFF7C4F972
:1013C000E022FB6EBA181B1914689B00A0463C6B08
:1013D00043442360E423FB1819689C236160FB18D5
:1013E00004961B6849460393A423FB181A685346C6
:1013F0000292019300922B002000FA6FFFF77CFB12
:10140000882388227969FB188C461B68BA18043B2C
:10141000F96913603A6D62448C463A657A6E10320F
:101420007A667A6D62447A653A6A9A4200D014E725
:101430009822BA181268B96D9446FB6A8A1AB9697B
:1014400063448C46BA65B968FA6EFB6262448C46A6
:10145000FA66FA6F6244FA679422BA1812689A42DE
:1014600000DDE2E69022BA181268BB6E9446802234
:10147000BA1812686344BB6693421BDA8423FB18D4
:101480001B68002B38DC90233969FB188C467A6C7A
:101490001B68D21A7A643A6C62443A64BA6CD31A02
:1014A000BB647A68FB6C63449446FB64FB6B6344E7
:1014B000FB637DE68023FA6D9B029A4207D93A6F5F
:1014C000002A04D0531E1878101A0DF089FD8023CD
:1014D0003A6E9B029A4207D9BA6F002A04D0531E73
:1014E0001878101A0DF07CFDBD462FB0F0BCBB463D
:1014F000B246A946A046F0BDBA6B3B6C92469B0033
:101500009A44B023FE18B13B9946BD6CBC6E84234F
:10151000FB181B68A8469D4200DD9846AC22A3003C
:10152000BA1813607A6B8C2072609C225344BA18EC
:10153000381831001268006833604346FFF704F939
:10154000E022AC23BA181268FB1894461B688C2161
:1015500063443360E423FB181B687918736000232D
:1015600004934B46039302939423FB181B683000AB
:1015700001939C23FB181B6800937A6F434609680C
:10158000FFF7BAFA8423FB181B689C46ED1A8023E8
:10159000FB181B686444A342B9DC74E7300010F008
:1015A000EBF9364D002800D181E58023DB012B606B
:1015B00080231B0330006B60AB6010F0F9F976E517
:1015C00098220423BA181360C4E51100B2E5802301
:1015D000B200FA659B029A423AD813006A46163363
:1015E000DB08DB00D31A9D4627200F23684498436D
:1015F000386778678BE59A0080233A669B029A42A7
:101600000FD813006A461633DB08DB00D31A9D4659
:1016100027200F23684498437D33FB18B867186070
:101620006CE5100010300DF0BDFCB867002800D14B
:1016300064E50F221023844602409B1ADBB29C44CF
:1016400061464A1E13708C23FB18B967196055E573
:10165000100010300DF0A6FC3867002800D156E5C8
:101660000F221023844602409B1ADBB29C44614641
:101670004A1E39671370796749E5C046A4380320CC
:10168000F0B557464E46DE464546E0B5B7B006AF24
:10169000824684207B65F023CB4E38180160BA6304
:1016A000FB181C683378BFF35B8FDB0700D49DE227
:1016B000C64D23696D683B67A368BB67534501DD71
:1016C0005346BB67842179180E6880213A6FBB6F3F
:1016D00056435343226879180A60002A00D1B4E2C5
:1016E0009B003B650023FB666368BB66002B00D153
:1016F00097E2B300FB6400237B6688220423BA18B8
:1017000013608033FB181B68002B16DDEC23FB18DD
:101710001B6851469A4500DA7FE2280009010CF067
:101720003FF80323C217134088221B189B109B000D
:10173000BA181360042B00DA6AE25346002B00DC6F
:1017400032E27A6D386F1100434259430B00B9629F
:1017500051460C1A110062431B1A9B00BA647B604D
:101760000A000B0051464B43B96B53448C46E821A9
:101770009B006344FB637918830009685B423B600C
:1017800053468C469B006344EC21BB658823791843
:10179000FB1809681B687C674B4390213B619300F1
:1017A0005B4279180B60043BBB609B00FB60D3433A
:1017B00094229B00BA181360EC23A822FB181B6824
:1017C000BA189B001360544603008C22BA181360A9
:1017D000A34200DD14608423FB181B68002B00DC8F
:1017E00076E18C23FB181A68002A00DC70E1842360
:1017F000FB181B68B96D7B648823FB181B68534377
:101800009B00FB61BB6EFB659300CB1A3B62002320
:10181000B8213B667B63A31A7918FB621300396316
:101820000321013B043A8B43D31A7B61AC227B6CCE
:10183000BA1813608822BA181268934202DDAC23EA
:10184000FB181A603A6A3B6E94469B009C446246C1
:101850007A62BA6D944698226344BA181360FB6B9F
:101860003B648C23FB181B68FB679C22FB6FBA1838
:101870001360042B03DD9C220423BA181360FA6F53
:10188000FB6A94466344BB61002A00DCA0E09C2311
:10189000396CA0208A46FB181B6838185A1E9346DC
:1018A000BA685B42524402607A6D9B1A9B009A446C
:1018B0000423A4225B4299460023BA181360A02394
:1018C000FE20FB181B68800519680DF00CFAB42384
:1018D000FB181860A423FB181B685A46DB439B1AAD
:1018E0009822BA18126800269446B0229C009B00E9
:1018F0005B42BA1864441360B023FB181B684A4665
:101900009846A04443469958B423FB1818680DF034
:10191000FEF943464A4698505B46051C002B22DDE3
:10192000534619680DF0F3F9011C20680DF0D5F944
:101930005B462060012B16D05346281C59680DF0D9
:10194000E6F9011C60680DF0C8F95B466060022B87
:1019500009D05346281C99680DF0D9F9011CA068DC
:101960000DF0BBF9A060A823FB181B6801369C464C
:10197000AC23FB181B6864449E42BDD1A423A4225F
:10198000FB181B68BA1801331360012294215242DC
:10199000944679180968E3448C46A021A132BA180C
:1019A0001268791862440A600422524294469432C2
:1019B000BA181268E14494469C22BA181268E244AC
:1019C000934200DA7BE703E0E0220320A4380320FF
:1019D000E8219C2279180968BA188C46FB6F1268B6
:1019E000396B9C1ABB699D1A3B6E5B199B00634463
:1019F0000B60EC23FB181B684B608C230194FB18D5
:101A00001B680093AC23FB181B68F86DFEF7F2FD12
:101A1000002C30DD7A6DF96A13008C466B433D6B08
:101A2000B96B80206A609C2263448C463818066833
:101A30009B00BA181268634429002B603000230011
:101A40009046FEF781FEEC2228008C237D6ABA18AE
:101A500005601568FB18456004941D68AC22434678
:101A600003950293BA181268009301922300310083
:101A7000FA6DFFF741F898229821BA181268791880
:101A8000103A0A60F9683A6C8C46FB6F62443A641B
:101A90007A69043BFB679A4200D0E6E68822BA18CE
:101AA0001268796C94467B6B8A1AF96963448C4698
:101AB0007A643969FA6D7B6362448C46FA653A6EE2
:101AC00062443A668422BA1812689A4200DDADE692
:101AD0007B6F1C1E68DDBB6F002B00DCFEE7BA6B62
:101AE000BB6C93469B009B4400239946B833FE1879
:101AF000B93B9A4623004C4699467D6FBB6FA8467A
:101B00009D4200DD9846B422A300BA1813607A6D96
:101B1000802072608C225B44BA1838183100126839
:101B2000006833604346FEF70FFEE822B423BA187C
:101B30001268FB1894461B68802163443360EC23D1
:101B4000FB181B68791873600023049353460393B2
:101B500002938423FB181B68300001938C23FB182D
:101B60001B680093BA6E43460968FEF7C5FFBB6F5A
:101B70009C46ED1A7B6F6444A342BFDCBA6ABB6C1F
:101B800094467A6863449446BB643A68FB6B4C465F
:101B900063449446FB63BB6D3A6F6344BB657B6FE4
:101BA0009B1A7B67130010E68023FA6C9B029A4213
:101BB00007D97A6E002A04D0531E1878101A0DF037
:101BC0000FFA80233A6D9B029A4207D9FA6E002AD7
:101BD00004D0531E1878101A0DF002FABD4631B029
:101BE000F0BCBB46B246A946A046F0BD30000FF09F
:101BF000C3FE374D002800D15BE58023DB012B605D
:101C000080231B0330006B60AB600FF0D1FE50E50A
:101C100088220423BA1813608FE5EC23FB18196897
:101C20007BE58023B200FA649B029A423AD8130003
:101C30006A461633DB08DB00D31A9D4627200F23A4
:101C4000684498437866B86657E59A0080233A65F9
:101C50009B029A420FD813006A461633DB08DB005A
:101C6000D31A9D4627200F23684498437133FB18ED
:101C7000F866186038E5100010300DF093F9F8663A
:101C8000002800D130E50F221023844602409B1A21
:101C9000DBB29C4461464A1E13708023FB18F96630
:101CA000196021E5100010300DF07CF978660028ED
:101CB00000D122E50F221023844602409B1ADBB29A
:101CC0009C4461464A1E79661370B96615E5C046A4
:101CD000A438032030B587B00D4B02AD00951A68CB
:101CE000694602929A880400AA809B796A46AB7181
:101CF000072301930023D3732CF0D0FD0098A84252
:101D000003D0029901310DF09FF9200007B030BDDA
:101D1000B09A0410F0B5DE4657464E464546E0B54B
:101D20000E000168C7688946416805698A4681686E
:101D30008DB08B464169806907930690506813689F
:101D4000926805910A90291C30680B9209930895B6
:101D50000CF0C3FF0599039070680CF0BEFF069964
:101D6000051CB0680CF0B9FF80268046360607983F
:101D70000DF050F8B446039B0090019163441800A5
:101D800051460CF0C4FF5946061C281C0CF0BFFF3E
:101D9000011C301C0CF0A1FF391C061C40460497A6
:101DA0000CF0B5FF011C301C0CF097FF0DF032F861
:101DB0000022684B0BF06BFF009A019B0BF067FF52
:101DC000060048460F000DF025F802000B00300019
:101DD0003900169C0BF034FF0CF05EF84946206089
:101DE00003980CF094FF5946061C40460CF08FFFF8
:101DF000011C301C0CF074FF0499061C281C0CF00C
:101E000086FF011C301C0CF068FF0DF003F8002267
:101E1000504B0BF03CFF009A019B0BF038FF060083
:101E200050460F000CF0F6FF02000B0030003900A6
:101E30000BF006FF0CF030F849466060281C0CF0EF
:101E400066FF5146061C40460CF061FF011C301C29
:101E50000CF043FF0499061C03980CF058FF011C7A
:101E6000301C0CF03DFF0CF0D5FF0022394B0BF07D
:101E70000EFF009A019B0BF00AFF060058460F0068
:101E80000CF0C8FF02000B00300039000BF0D8FE48
:101E90000CF002F84946A06040460CF038FF51466D
:101EA000061C281C0CF033FF011C301C0CF018FF22
:101EB0005946051C03980CF02AFF011C281C0CF045
:101EC0000CFF0CF0A7FF0022224B0BF0E0FE009A63
:101ED000019B0BF0DCFE060004980F000CF09AFF4B
:101EE00002000B00300039000BF0AAFE0BF0D4FF0B
:101EF000089B0999E060181C98460CF008FF079DA4
:101F0000291C0CF004FF011C40460CF0E6FE059F66
:101F10000A992061381C0CF0FAFE291C0CF0F7FE1F
:101F2000011C381C0CF0D9FE069E0B996061301C18
:101F30000CF0EDFE291C0CF0EAFE011C301C0CF02C
:101F4000CCFEA06100200DB0F0BCBB46B246A94655
:101F5000A046F0BD0000E03FF0B5DE4657464E46D5
:101F600045468A464168E0B58846C768816891B0B1
:101F7000066889464046391C141C04930CF0C7FEC1
:101F80004946051C301C0CF0C2FE0A90011C281C9E
:101F900009950CF0A2FE0CF03DFF02000B000BF0C7
:101FA0004FFE06900791201C02940CF033FF0B00AB
:101FB000020004000D00069807990BF068FE0BF074
:101FC0006BFF5246391C106048460CF0A0FE834659
:101FD0004146301C0CF09BFE5A460E90011C5846A0
:101FE0000B920CF07DFE0CF015FF02000B000BF0C5
:101FF00027FE02000B00200029000C920D930BF02D
:1020000046FE0BF049FF5446311C6060301C0CF05A
:102010007EFE4146041C40460CF079FE051C011C66
:10202000201C0CF05AFE4946089048460CF06FFE02
:10203000391C8346381C0CF06AFE594601900898FA
:102040000CF04BFE01990CF04BFE02990F900CF036
:102050005EFE53464946986040460CF058FE391CD7
:102060008046301C0CF053FE81461A980CF0D2FECC
:1020700006001B980F000CF0CDFE02900391291C66
:10208000201C0CF02DFE59460CF027FE01990CF097
:1020900024FE04990CF03BFE0CF0BCFE04000D0085
:1020A000404649460CF01CFE0CF0B4FE02000B004A
:1020B0000BF0C6FD32003B000BF0E9FD02000B0007
:1020C000200029000BF0BCFD029A039B04000D00C8
:1020D000069807990BF0DBFD02000B002000290099
:1020E0000BF0AEFD0BF0D8FE5346D86004980CF010
:1020F00091FE04000D00404649460CF0EEFD0CF048
:1021000089FE02000B000BF09BFD22002B000494C3
:1021100005950BF0BCFD04000D00089859460CF025
:10212000DFFD01990CF0D9FD1A990CF0F0FD0CF0CF
:1021300071FE02000B00200029000BF081FD029AC5
:10214000039B04000D000C980D990BF0A0FD0200FC
:102150000B00200029000BF073FD0BF09DFE534691
:102160000A99186109980CF0BBFD0CF053FE0200AF
:102170000B000BF065FD049A059B0BF088FD040035
:102180000D000B980E990CF0A8FD0CF043FE020018
:102190000B000BF055FD32003B000BF078FD020008
:1021A0000B00200029000BF04BFD04000D000F98E0
:1021B0001B990CF0ACFD0CF02DFE02000B00200072
:1021C00029000BF03DFD0BF067FE534658610020DF
:1021D00011B0F0BCBB46B246A946A046F0BDC04611
:1021E000F0B50400DE4657464E4645460800E0B5C9
:1021F00045680968AA46856895B0AB46C5684669D2
:10220000876910910E950169556810689268049667
:1022100090461A68069711925A689B681292139317
:10222000FE239B05236099460CF057FD0CF0F2FD50
:10223000009001911E980CF0EDFD06000F00009833
:1022400001990022924B0BF022FD32003B000BF073
:102250001EFD0BF021FE04990390E061281C0CF098
:102260003CFD0CF0D7FD0022894B049005910BF04A
:102270000EFD32003B000BF00AFD0BF00DFE06993F
:10228000051CA06340460CF028FD0CF0C3FD0022A5
:102290007F4B069007910BF0FAFC32003B000BF0ED
:1022A000F6FC0BF0F9FD0A90606550460CF0B2FDAB
:1022B0000022784B089009910BF0E9FC32003B00BA
:1022C0000BF0E5FC0BF0E8FD0B90206758460CF096
:1022D000A1FD00226F4B0C900D910BF0D8FC320049
:1022E0003B000BF0D4FC0BF0D7FD8C238246E05072
:1022F0000E980CF08FFD0022664B0E900F910BF0A4
:10230000C6FC32003B000BF0C2FC0BF0C5FDA8235D
:102310008346E0500022009801995E4B0BF0B7FC19
:1023200032003B000BF0B3FC0BF0B6FD49460090C9
:1023300060602162002206980799564B0BF0A7FCBB
:1023400032003B000BF0A3FC0BF0A6FDA565804618
:10235000E06310980CF05EFD00224D4B0BF097FCF3
:1023600032003B000BF093FC0BF096FD5946902396
:10237000051C60670022E1500C980D99444B0BF04E
:1023800086FC32003B000BF082FC0BF085FDAC2399
:102390000022E050049805993E4B0BF078FC320087
:1023A0003B000BF074FC0BF077FD49460A9A83461C
:1023B0006262009AA0602164E2650E980F99002283
:1023C000334B0BF064FC32003B000BF060FC0BF075
:1023D00063FD94230B99A067E5501C33E1504146FF
:1023E000E1605946A162494621665146039BE16777
:1023F0006364089809990022254B0BF048FC3200D1
:102400003B000BF044FC0BF047FD9823E0501C33DD
:10241000E55000251E9911982561E562A564656661
:102420000CF075FC011C48460CF057FC8023E05072
:102430001C33E5501C33E550343B1E9912986561FE
:102440002563E564A566E5500CF061FC011C484677
:102450000CF043FCA023E0501C33E550343BA56155
:1024600065632565E566E5501C33E5501E991398B4
:102470000CF04DFC011C48460CF02FFCC023E05032
:10248000002015B0F0BCBB46B246A946A046F0BD40
:102490000000E0BF0000E03FF0B5DE4657464E4684
:1024A0004546E0B59A460B68141C8A689B464B6803
:1024B000C9688BB00500101C8846009301920CF08F
:1024C000A9FC02900391201C0CF0A4FCC023060080
:1024D0000F000298039900221B060BF0D8FB320074
:1024E0003B000BF0D4FB0BF0D7FC08902860404673
:1024F0000CF090FC02000B000BF0A2FB32003B0042
:102500000BF0C5FB0BF0C8FC041CA86158460CF08E
:1025100081FCC02300221B06049005910BF0B7FB41
:1025200032003B000BF0B3FB0BF0B6FC28630098C5
:102530000CF070FC02000B00069007910BF080FB82
:1025400032003B000BF0A3FB0BF0A6FC0021902314
:102550008946A8642966A967E950686004980599C6
:1025600002000B000BF06CFB32003B000BF08FFB0A
:102570000BF092FC6C630490E861029803990200EE
:102580000B000BF05DFB32003B000BF080FB0BF00F
:1025900083FC49469423E8646966E967E950C023EF
:1025A00006980799049A1B06AA6000220BF06FFB9D
:1025B00032003B000BF06BFB0BF06EFC089B4946B6
:1025C000AB63802328622C65A966E9501833E95073
:1025D000404614990CF09BFB019F1599061C381C72
:1025E0000CF095FB5146041C58460CF090FB311C36
:1025F0000CF076FB211C06940CF06FFB011C0CF018
:102600006FFB51460990E86000980CF080FB14992C
:10261000041C381C0CF07BFB011C201C0CF060FB24
:102620001599041C40460CF072FB011C201C0CF098
:1026300057FB011C0CF054FB14990290686200983F
:102640000CF065FB1599089058460CF060FB019A58
:102650008024944624066444071C514620000CF054
:1026600056FB08990CF03CFB391C0CF036FB011CA6
:102670000CF036FB1499E86358460CF048FB1599AA
:10268000049000980CF043FB802212064244041C84
:10269000514610000CF03BFB04990CF021FB211C6F
:1026A0000CF01EFB011C0CF01BFB4A468423EA665F
:1026B0006865EA501833EA505146286101980CF0D9
:1026C00026FB08990CF009FB391C0CF009FB011CD6
:1026D0000CF006FB071CA8628020029B00062B64FE
:1026E000514658440CF013FB311C0CF0F6FA0699D5
:1026F0000CF0F6FA011C0CF0F3FA8823A8654846A2
:102700002867E8501833E850514640466F610CF096
:10271000FEFA04990CF0E1FA211C0CF0DEFA011C1F
:102720000CF0DEFA099AE8626A64029B4A46EB659D
:102730004B466B678C230020EA501833EA500BB0ED
:10274000F0BCBB46B246A946A046F0BD0123F0B599
:10275000E3214746CE469C46294B804605009946D4
:10276000284E80B58900076846444144FA0F6F68D7
:10277000D2077B005B08346813435A086240644602
:102780001C4201D04B465A4004C50436A942EDD143
:10279000E32342469B00C626D458194B01259C468C
:1027A000F6004644E20F4C68D20763005B080768F6
:1027B00013435A087A401D4201D063465A40043000
:1027C00004C1B042EED14246C62140460E4BC9007C
:1027D000D3581268DB0F52005208DB0741581343ED
:1027E0005A084A40DB0701D5054B5A404146064B83
:1027F000CA5000220433CA50C0BCB946B046F0BD2E
:10280000DFB0089934060000BC090000F0B5454669
:10281000DE4657464E46E0B53C4CD723A54434AA85
:10282000944663441B091B018A6805930B68019257
:1028300037921A6804902D929A6933912E921A6BEE
:1028400038AC2F929A6C30921A6E06929A6F089258
:1028500090229A5807925A680A92DA690B925A6B38
:102860000C92DA6C0D925A6E0E92DA6F0F929422DD
:102870009A5810929A6811921A6A12929A6B13924D
:102880001A6D14929A6E159280229A581692982276
:102890009A581792DA6818925A6A1992DA6B1A9251
:1028A0005A6D1B92DA6E1C9284229A581D929C22B9
:1028B0009A581E921A691F929A6A20921A6C219253
:1028C0009A6D22921A6F239288229A582492A022FB
:1028D0009A5825925A692692DA6A27925A6C289257
:1028E000DA6D29925A6F2A928C229A582B92A4223E
:1028F0009B582C934B68984638AB3293C42343447F
:1029000009934346A0461C0002E0C0469CFDFFFF21
:10291000E168A26889462169236848460391309995
:10292000029201930CF0F3F90399824606980CF099
:10293000EEF9011C50460CF0D3F967698246391C48
:1029400008980CF0E4F9A6698346311C07980CF04E
:10295000DEF9011C58460CF0C3F9011C50460CF07E
:10296000BFF9656882462E99281C0CF0D0F92F9982
:10297000834602980CF0CBF9011C58460CF0B0F9D4
:102980002D99834601980CF0C2F9011C58460CF0B1
:10299000A7F9011C50460CF0A3F9434649461860BC
:1029A0000D980CF0B4F9039982460E980CF0AFF92B
:1029B000011C50460CF094F9391C82460F980CF01B
:1029C000A6F9311C834610980CF0A1F9011C584659
:1029D0000CF086F9011C50460CF082F9291C824645
:1029E0000B980CF094F9029983460C980CF08FF92F
:1029F000011C58460CF074F9019983460A980CF0B2
:102A000086F9011C58460CF06BF9011C50460CF07D
:102A100067F943464946586014980CF078F90399D1
:102A2000824615980CF073F9011C50460CF058F9C9
:102A3000391C824616980CF06AF9311C83461798A7
:102A40000CF065F9011C58460CF04AF9011C50467F
:102A50000CF046F9291C824612980CF058F902999C
:102A6000834613980CF053F9011C58460CF038F9C2
:102A70000199834611980CF04AF9011C58460CF054
:102A80002FF9011C50460CF02BF94346494698603B
:102A90001B980CF03CF9039982461C980CF037F90E
:102AA000011C50460CF01CF9391C82461D980CF094
:102AB0002EF9311C83461E980CF029F9011C58464A
:102AC0000CF00EF9011C50460CF00AF9291C824644
:102AD00019980CF01CF9029983461A980CF017F912
:102AE000011C58460CF0FCF80199834618980CF02C
:102AF0000EF9011C58460CF0F3F8011C50460CF07E
:102B0000EFF843464946D86022980CF000F9039943
:102B1000824623980CF0FBF8011C50460CF0E0F8BC
:102B2000391C824624980CF0F2F8311C8346259813
:102B30000CF0EDF8011C58460CF0D2F8011C504680
:102B40000CF0CEF8291C824620980CF0E0F802998F
:102B5000834621980CF0DBF8011C58460CF0C0F8B5
:102B6000019983461F980CF0D2F8011C58460CF0CE
:102B7000B7F8011C50460CF0B3F8434649461861BB
:102B800029980CF0C4F8039981462A980CF0BFF8F4
:102B9000011C48460CF0A4F8391C81462B980CF017
:102BA000B6F8311C071C2C980CF0B1F8011C381C2D
:102BB0000CF096F8011C48460CF092F8291C061CF3
:102BC00027980CF0A4F80299051C28980CF09FF89F
:102BD000011C281C0CF084F80199051C26980CF0A7
:102BE00096F8011C281C0CF07BF8011C301C0CF022
:102BF00077F84346586118239C46099B1C34E044EF
:102C0000A34200D084E6379B1A68629308929A69BF
:102C100009921A6B0A929A6C0B921A6E0C929A6F26
:102C20000D9290229A580E925A680F92DA69109279
:102C30005A6B1192DA6C12925A6E1392DA6F1492E6
:102C400094229A5815929A6816921A6A17929A6B59
:102C500018921A6D19929A6E1A9280229A581B92A3
:102C600098229A581C92DA681D925A6A1E92DA6B60
:102C70001F925A6D2092DA6E219284229A582292E3
:102C80009C229A5823921A6924929A6A25921A6C65
:102C900026929A6D059C27921A6F203428928822DA
:102CA0009A58A1462992A0229A582A925A692B92A0
:102CB000DA6A2C925A6C2D92DA6D2E925A6F2F92FC
:102CC0008C229A583092A4229B5831935CAB069385
:102CD0003EAB0793329B98464346424641464046A8
:102CE0001B6895690193069B146B096E926C40CB2F
:102CF000876F0291101C0B99039206930CF007F852
:102D00000C99824602980CF002F8011C50460BF018
:102D1000E7FF0D998246381C0BF0F9FF0E998346A8
:102D2000301C0BF0F4FF011C58460BF0D9FF011CBE
:102D300050460BF0D5FF09998246281C0BF0E7FF9F
:102D40000A998346201C0BF0E2FF011C58460BF049
:102D5000C7FF0899834601980BF0D9FF011C58461C
:102D60000BF0BEFF011C50460BF0BAFF4B46129908
:102D7000186003980BF0CBFF1399824602980BF072
:102D8000C6FF011C50460BF0ABFF14998246381C5D
:102D90000BF0BDFF15998346301C0BF0B8FF011CEA
:102DA00058460BF09DFF011C50460BF099FF1099FF
:102DB0008246281C0BF0ABFF11998346201C0BF0B8
:102DC000A6FF011C58460BF08BFF0F998346019814
:102DD0000BF09DFF011C58460BF082FF011C504672
:102DE0000BF07EFF4B461999586003980BF08FFF4C
:102DF0001A99824602980BF08AFF011C50460BF08C
:102E00006FFF1B998246381C0BF081FF1C9983468B
:102E1000301C0BF07CFF011C58460BF061FF011CBD
:102E200050460BF05DFF17998246281C0BF06FFF90
:102E300018998346201C0BF06AFF011C58460BF0C2
:102E40004FFF1699834601980BF061FF011C58460D
:102E50000BF046FF011C50460BF042FF4B462099F9
:102E6000986003980BF053FF2199824602980BF06B
:102E70004EFF011C50460BF033FF22998246381C4E
:102E80000BF045FF23998346301C0BF040FF011CDB
:102E900058460BF025FF011C50460BF021FF1E99F0
:102EA0008246281C0BF033FF1F998346201C0BF031
:102EB0002EFF011C58460BF013FF1D998346019805
:102EC0000BF025FF011C58460BF00AFF011C504671
:102ED0000BF006FF4B462799D86003980BF017FFBD
:102EE0002899824602980BF012FF011C50460BF005
:102EF000F7FE29998246381C0BF009FF2A99834670
:102F0000301C0BF004FF011C58460BF0E9FE011CBD
:102F100050460BF0E5FE25998246281C0BF0F7FE83
:102F200026998346201C0BF0F2FE011C58460BF03C
:102F3000D7FE2499834601980BF0E9FE011C584600
:102F40000BF0CEFE011C50460BF0CAFE4B462E99EC
:102F5000186103980BF0DBFE2F99824602980BF064
:102F6000D6FE011C50460BF0BBFE30998246381C41
:102F70000BF0CDFE3199071C301C0BF0C8FE011C74
:102F8000381C0BF0ADFE011C50460BF0A9FE2C992D
:102F9000061C281C0BF0BBFE2D99051C201C0BF0F9
:102FA000B6FE011C281C0BF09BFE2B99041C0198FB
:102FB0000BF0ADFE011C201C0BF092FE011C301C1E
:102FC0000BF08EFE4B46586104239C461433E044BC
:102FD0009C46079BE144434500D07DE6339B059D1D
:102FE000DC68296A20680BF07BFE049EA96B3060C8
:102FF00060680BF075FE7060A068296D0BF070FEC4
:10300000B060E068A96E0BF06BFE8023F060206971
:10301000E95898460BF064FE98233061E9586069DE
:103020000BF05EFE7061A069696A0BF059FEB06139
:10303000E069E96B0BF054FEF061206A696D0BF0FA
:103040004FFE3062E96E606A0BF04AFE84277062C0
:10305000A06AE9590BF044FE9C23B062E958E06A8B
:103060000BF03EFEF062206BA96A0BF039FE306374
:10307000606B296C0BF034FE7063A06BA96D0BF0D4
:103080002FFEB063E06B296F0BF02AFEF0638826F9
:10309000206CA9590BF024FE049B1864A023606CDB
:1030A000E9580BF01DFE049BE96A5864A06C0BF014
:1030B00017FE049B696C9864E06C0BF011FE049B96
:1030C000E96DD864206D0BF00BFE049B696F1865E9
:1030D000606D0BF005FE8C25049A059B5065A06D74
:1030E00059590BF0FDFDA423049A9065059AE06DF3
:1030F000D1580BF0F5FD049B059AD865116B206E35
:103100000BF0EEFD049B059A1866916C606E0BF057
:10311000E7FD049B059A5866A06E116E0BF0E0FD6A
:10312000049B059A9866E06E916F0BF0D9FD049BA5
:10313000059AD8669023206FD1580BF0D1FD049BDF
:10314000059A1867A823606FD1580BF0C9FD049B3E
:10315000059A5867A16F506B0BF0C2FD049B059A4E
:103160009867E16FD06C0BF0BBFD4146049B059A5C
:10317000D8676158506E0BF0B3FD4146049B059A29
:103180005850E159D06F0BF0ABFD049BD8519423FC
:10319000059FA159F8580BF0A3FD049B9851AC234F
:1031A0006159F8580BF09CFD049B585199239B00E2
:1031B0009D44F0BCBB46B246A946A046F0BDC04601
:1031C000F0B5DE4657464E4645460400E0B5436836
:1031D00087B05800A3684008590049080BF080FDEB
:1031E0002368590049080BF07BFD2369051C580032
:1031F00063694008590049080BF072FDE368590003
:1032000049080BF06DFD011C281C0BF069FDE369FA
:10321000051C5800236A4008590049080BF060FD5E
:10322000A369590049080BF05BFDA36A061C58000E
:10323000E36A4008590049080BF052FD636A5900DF
:1032400049080BF04DFD011C301C0BF049FD636B70
:10325000071C5800A36B4008590049080BF040FDBB
:10326000236B590049080BF03BFD236C061C5800EA
:10327000636C4008590049080BF032FDE36B5900BC
:1032800049080BF02DFD011C301C0BF029FD061C1C
:10329000011C381C0BF072FD002800D13E1C311CB3
:1032A000281C0BF06BFD002800D12E1CE36C58008D
:1032B000236D4008590049080BF012FDA36C59001A
:1032C00049080BF00DFDA36D051C5800E36D400887
:1032D000590049080BF004FD636D590049080BF0D3
:1032E000FFFC011C281C0BF0FBFC636E071C580044
:1032F000A36E4008590049080BF0F2FC236E5900F8
:1033000049080BF0EDFC236F051C5800636F400863
:10331000590049080BF0E4FCE36E590049080BF032
:10332000DFFC011C281C0BF0DBFCE36F804658001F
:103330008023E1584008490049080BF0D1FCA36FF5
:10334000590049080BF0CCFC8823051CE0580433D5
:10335000E15840004900490840080BF0C1FC8423B3
:10336000E158490049080BF0BBFC011C281C0BF07C
:10337000B7FC051C011C40460BF000FD002800D1E5
:103380004546291C381C0BF0F9FC002800D13D1CD7
:10339000291C301C0BF0F2FC002800D1351CC02386
:1033A0002100E55001AABA3B02A8A8310493029477
:1033B000FDF7F4F90121C422019B98260B405B42E2
:1033C0008B430133A354343A9246002250469C2743
:1033D00022509432A1509346923AA2510132E251C6
:1033E0009D32944660469C3A2250A03291469F3AC4
:1033F00090464A4640462300A05048461832A258FC
:10340000903392009A181568255040461060604627
:10341000B8222058A2588046604692009A18156833
:10342000255040461060B422E059A25884469200CC
:103430009A1810685D46E05160461060B022A258AC
:10344000A75992009A181068A0511760AC225846EC
:10345000A258265892009A18106860511660A82247
:10346000A258554692009B1852461868A2586051BF
:103470001A60C523E15407B0F0BCBB46B246A9466A
:10348000A046F0BDC023002210B5C2500022043374
:10349000C2520B68040003604B6843608B68836012
:1034A000CB68C3600B6903614B6943618B698361BE
:1034B000CB69C3610B6A03624B6A43628B6A8362A6
:1034C000CB6AC3620B6B03634B6B43638B6B83638E
:1034D000CB6BC3630B6C03644B6C43648B6C836476
:1034E000CB6CC3640B6D03654B6D43658B6D83655E
:1034F000CB6DC3650B6E03664B6E43668B6E836646
:10350000CB6EC3660B6F03674B6F43678B6F83672D
:10351000CB6FC3678023CA58C2500433CA58C25005
:103520000433CA58C2500433CA58C250FFF748FE89
:10353000200010BDF0B5DE464E4645465746E0B584
:10354000214C9146A5443AAA94460A0031931F4B58
:103550003B9063441B091B013A919846D3AB13CAB5
:1035600013C313CA13C31268D3A91A60184B194A9C
:103570001B6847A80493184B47AC1B680193174B73
:103580001B6805930093049BFEF786FF47ABD3931C
:103590004B46D49347ABD5933AAA832394468620CF
:1035A0001B0163441B68C0004044A2AAD3A9D69360
:1035B0000990FFF72BF96BAB089343460A934B46F0
:1035C0003094A1461C000BE014F7FFFF47030000F6
:1035D000742003200AE81C416C2003207020032083
:1035E0004B464E461B68B76F0793089B494640CB36
:1035F00048464A460893A823896C006E9569126B69
:1036000005910690E158301C04920BF080FB8C234E
:103610008246E158381C0BF07AFB011C50460BF037
:103620005FFB216F824606980BF071FB616D83464C
:1036300005980BF06CFB011C58460BF051FB011C6C
:1036400050460BF04DFBA16B824604980BF05FFBDC
:10365000E1698346281C0BF05AFB011C58460BF00D
:103660003FFB2168834607980BF051FB011C58462D
:103670000BF036FB011C50460BF032FB4346186042
:10368000AC23301CE1580BF042FB90238246E158FA
:10369000381C0BF03CFB011C50460BF021FB616F0A
:1036A000824606980BF033FBA16D834605980BF01C
:1036B0002EFB011C58460BF013FB011C50460BF06F
:1036C0000FFBE16B824604980BF021FB216A8346D5
:1036D000281C0BF01CFB011C58460BF001FB616819
:1036E000834607980BF013FB011C58460BF0F8FAC1
:1036F000011C50460BF0F4FA43465860B023301CCE
:10370000E1580BF004FB94238246E158381C0BF07F
:10371000FEFA011C50460BF0E3FAA16F82460698B0
:103720000BF0F5FAE16D834605980BF0F0FA011CF9
:1037300058460BF0D5FA011C50460BF0D1FA216C1B
:10374000824604980BF0E3FA616A8346281C0BF06A
:10375000DEFA011C58460BF0C3FAA16883460798AD
:103760000BF0D5FA011C58460BF0BAFA011C504672
:103770000BF0B6FA43469860B423301CE1580BF0C6
:10378000C6FA98238246E158381C0BF0C0FA011C97
:1037900050460BF0A5FAE16F824606980BF0B7FA97
:1037A000216E834605980BF0B2FA011C58460BF0C7
:1037B00097FA011C50460BF093FA616C824604980C
:1037C0000BF0A5FAA16A8346281C0BF0A0FA011C95
:1037D00058460BF085FAE168834607980BF097FA94
:1037E000011C58460BF07CFA011C50460BF078FA8D
:1037F0004346D860B823301CE1580BF088FA9C236C
:103800008246E158381C0BF082FA011C50460BF03E
:1038100067FA80238246E15806980BF078FA616EC9
:10382000834605980BF073FA011C58460BF058FAC2
:10383000011C50460BF054FAA16C824604980BF020
:1038400066FAE16A8346281C0BF061FA011C5846AF
:103850000BF046FA2169834607980BF058FA011CD1
:1038600058460BF03DFA011C50460BF039FA43461E
:103870001861BC23301CE1580BF049FAA0238246A2
:10388000E158381C0BF043FA011C50460BF028FAA3
:1038900084238246E15806980BF039FAA16E8346DC
:1038A00005980BF034FA011C58460BF019FA011C6C
:1038B00050460BF015FAE16C824604980BF027FA9B
:1038C000216B8346281C0BF022FA011C58460BF092
:1038D00007FA6169834607980BF019FA011C5846EC
:1038E0000BF0FEF9011C50460BF0FAF94346E16E6D
:1038F000586105980BF00BFA88238246E158069828
:103900000BF005FA011C50460BF0EAF9A42382469D
:10391000E158381C0BF0FBF9C023071CE158301CA0
:103920000BF0F5F9011C381C0BF0DAF9011C5046BC
:103930000BF0D6F9616B061C281C0BF0E8F9216D21
:10394000051C04980BF0E3F9011C281C0BF0C8F9C6
:10395000A169051C07980BF0DAF9011C281C0BF073
:10396000BFF9011C301C0BF0BBF9434698610423DE
:103970009C461833E1449C464DABE044994500D049
:103980002EE60A9BA146D8249846A427A4004444C6
:10399000BF00474420000999FFF774FD21009022E1
:1039A0003800C8240BF03AFBFC21A40044448900F1
:1039B0004144182220000BF031FBCE2081218000F1
:1039C000C9004144182240440BF028FB8422D42330
:1039D000D200424412689B0043441A60D523874AB0
:1039E0004546424412889B004344FE211A8000232E
:1039F0002268B0359200AA1889051160936113639B
:103A0000936413669367C922920042441268444645
:103A10009200AA181360916113639364136693670D
:103A2000CA2292004244126806269200AA18136025
:103A300093611163936413669367CB2292004244AF
:103A4000126806209200AA181360936113639164B0
:103A500013669367CC229200424412689200AA181F
:103A6000136093611363936411669367CD22920090
:103A7000424412689200AA1813609361136393641E
:103A80001366A8235B009B46916742465946E4189B
:103A900020334344A660E6602661535080229200A2
:103AA00042444B396260924604933A0006230294E2
:103AB000FF3901960095FDF7DFFA42465946049B0F
:103AC000A660E6602661535053464B3963603A0066
:103AD00006230294062001960095FF39FDF7D0FDDC
:103AE00043461B688C2206934346DB69D3AC07939D
:103AF00043469B6B089343465B6D099343461B6F9C
:103B00000A9343469B5804320B9343465B680C93DD
:103B100043461B6A0D934346DB6B0E9343469B6DF6
:103B20000F9343465B6F109343469B5804321193A7
:103B300043469B68129343465B6A139343461B6C50
:103B400014934346DB6D159343469B6F1693434690
:103B50009B58043217934346DB68189343469B6A8D
:103B6000199343465B6C1A9343461B6E1B93434663
:103B7000DB6F1C9343469B58183A1D9343461B69C1
:103B80001E934346DB6A1F9343469B6C2093434638
:103B90005B6E219343469B581C32229343469B58AD
:103BA000183A239343465B69249343461B6B259342
:103BB0004346DB6C269343469B6E279343469B58B4
:103BC0001C32289343469B58183A299343469B69D5
:103BD0002A9343465B6B2B9343461B6D2C934346C2
:103BE000DB6E2D9343469B581C322E9343469B58C5
:103BF000A8462F934B46329302E0C04624040000AF
:103C000043461F685B6842469946434641469B6867
:103C1000D2680E694D6907984946049305920BF0E6
:103C200076F80499824608980BF071F8011C50460A
:103C30000BF056F8391C824606980BF068F8011C08
:103C400050460BF04DF8311C82460A980BF05FF895
:103C5000291C83460B980BF05AF8011C58460BF0B0
:103C60003FF80599834609980BF051F8011C584616
:103C70000BF036F8011C50460BF032F84946206034
:103C80000D980BF044F8049982460E980BF03FF81B
:103C9000011C50460BF024F8391C82460C980BF09E
:103CA00036F8011C50460BF01BF8311C8246109868
:103CB0000BF02DF8291C834611980BF028F8011CF5
:103CC00058460BF00DF8059983460F980BF01FF836
:103CD000011C58460BF004F8011C50460BF000F88C
:103CE0004946606013980BF012F8049982461498C4
:103CF0000BF00DF8011C50460AF0F2FF391C824609
:103D000012980BF004F8011C50460AF0E9FF311C30
:103D1000824616980AF0FBFF291C834617980AF082
:103D2000F6FF011C58460AF0DBFF059983461598FB
:103D30000AF0EDFF011C58460AF0D2FF011C504664
:103D40000AF0CEFF4946A06019980AF0E0FF0499F6
:103D500082461A980AF0DBFF011C50460AF0C0FFA9
:103D6000391C824618980AF0D2FF011C50460AF00E
:103D7000B7FF311C82461C980AF0C9FF291C8346F4
:103D80001D980AF0C4FF011C58460AF0A9FF0599C6
:103D900083461B980AF0BBFF011C58460AF0A0FF9F
:103DA000011C50460AF09CFF4946E0601F980AF04B
:103DB000AEFF0499824620980AF0A9FF011C5046E4
:103DC0000AF08EFF391C82461E980AF0A0FF011CE3
:103DD00050460AF085FF311C824622980AF097FF70
:103DE000291C834623980AF092FF011C58460AF0CA
:103DF00077FF0599834621980AF089FF011C5846F0
:103E00000AF06EFF011C50460AF06AFF4946206125
:103E100025980AF07CFF0499824626980AF077FFDD
:103E2000011C50460AF05CFF391C824624980AF0B7
:103E30006EFF011C50460AF053FF311C8246289841
:103E40000AF065FF291C834629980AF060FF011CCF
:103E500058460AF045FF0599834627980AF057FF10
:103E6000011C58460AF03CFF011C50460AF038FF7E
:103E7000494660612B980AF04AFF049981462C98C4
:103E80000AF045FF011C48460AF02AFF391C81460A
:103E90002A980AF03CFF011C48460AF021FF311C19
:103EA000071C2E980AF033FF291C061C2F980AF0D5
:103EB0002EFF011C301C0AF013FF0599051C2D98DC
:103EC0000AF025FF011C281C0AF00AFF011C381CFF
:103ED0000AF006FF18239C46A061FDAB1C34E044A9
:103EE000A34200D08CE6329BD49A9946D39BD599B5
:103EF000D69CD79DD89ED99F06930792DA9BDB9AD2
:103F000008910994DC99DD9C0A950B96DE9DDF9E55
:103F10000C970D93E09FE19B0E92E29A0F91109403
:103F200011951296139714931592E399E49CE59DCD
:103F3000E69EE79FE89BE99A16911794EA99EB9C15
:103F400018951996EC9DED9E1A971B93EE9FEF9B8B
:103F50001C921D91F09AF1991E94F29C2096219743
:103F600022932392249125941F95F39DF49EF59F0F
:103F7000F79AF69BF899F99C26952796FA9DFB9E51
:103F80002897FC9F2A923A9A29932B912C942D954D
:103F90002E962F97D3AB32CA32C332CA32C31168BE
:103FA000D3AC1960FD49FE4B09681B680191FD49BE
:103FB000FD4A09682000009141A9FDF7CDFF319F1E
:103FC000419938680AF089FE4299834678680AF078
:103FD00084FE43998246B8680AF07FFE4499041C27
:103FE000F8680AF07AFE4599051C38690AF075FEF2
:103FF0004699061C78690AF070FE071C011C2A9875
:104000000AF085FE311C804623980AF080FE011CD0
:1040100040460AF065FE291C80461C980AF077FE8F
:10402000011C40460AF05CFE211C804615980AF0EF
:104030006EFE514604900E980AF069FE011C049829
:104040000AF04EFE5946049007980AF060FE011CE3
:1040500004980AF045FE011C40460AF041FE3A9AD7
:1040600051680AF03DFE391C04902B980AF04FFE6F
:10407000311C804624980AF04AFE011C40460AF092
:104080002FFE291C80461D980AF041FE011C404667
:104090000AF026FE211C804616980AF038FE51468A
:1040A00005900F980AF033FE011C05980AF018FEDF
:1040B0005946059008980AF02AFE011C05980AF056
:1040C0000FFE011C40460AF00BFE3A9A91680AF076
:1040D00007FE391C05902C980AF019FE311C804609
:1040E00025980AF014FE011C40460AF0F9FD291C2F
:1040F00080461E980AF00BFE011C40460AF0F0FDB7
:10410000211C804617980AF002FE51463190109803
:104110000AF0FDFD011C31980AF0E2FD594631908C
:1041200009980AF0F4FD011C31980AF0D9FD011C30
:1041300040460AF0D5FD3A9AD1680AF0D1FD391C03
:1041400031902D980AF0E3FD311C804626980AF044
:10415000DEFD011C40460AF0C3FD291C80461F9865
:104160000AF0D5FD011C40460AF0BAFD211C80462C
:1041700018980AF0CCFD5146329011980AF0C7FD0C
:10418000011C32980AF0ACFD594632900A980AF0A8
:10419000BEFD011C32980AF0A3FD011C40460AF046
:1041A0009FFD3A9A11690AF09BFD391C32902E98B6
:1041B0000AF0ADFD311C804627980AF0A8FD011CCD
:1041C00040460AF08DFD291C804620980AF09FFD8C
:1041D000011C40460AF084FD211C804619980AF013
:1041E00096FD5146339012980AF091FD011C3398C8
:1041F0000AF076FD594633900B980AF088FD011CB1
:1042000033980AF06DFD011C40460AF069FD3A9AA8
:1042100051690AF065FD5146339013980AF077FD15
:10422000211C80461A980AF072FD011C40460AF0D3
:1042300057FD594680460C980AF069FD011C40461E
:104240000AF04EFD311C804628980AF060FD391CAA
:1042500034902F980AF05BFD011C34980AF040FD61
:10426000291C349021980AF052FD011C34980AF060
:1042700037FD011C40460AF033FD3A9A91690AF075
:104280002FFD391C804629980AF041FD311C071C7E
:1042900022980AF03CFD011C381C0AF021FD291C63
:1042A000061C1B980AF033FD011C301C0AF018FD97
:1042B000211C051C14980AF02AFD5146041C0D9877
:1042C0000AF025FD011C201C0AF00AFD5946041CB9
:1042D00006980AF01CFD011C201C0AF001FD011CBF
:1042E000281C0AF0FDFC3A9AD3AC11680AF0F8FCDD
:1042F0003B9B049A18605A60059A9A60319ADA607A
:10430000329A1A61339A5A6142469A614B461B6847
:104310004A46A2934B465B68A3934B469B68A49383
:104320004B46DB68A5934B461B69A6934B465B69DE
:10433000A7934B469B69A8934B46DB69A9934B46D1
:104340001B6AAA934B465B6AAB934B469B6AAC9342
:104350004B46DB6AAD934B461B6BAE934B465B6B98
:10436000AF934B469B6BB0934B46DB6BB1934B4685
:104370001B6CB2934B465B6CB3934B469B6CB493F4
:104380004B46DB6CB5934B461B6DB6934B465B6D52
:10439000B7934B469B6DB8934B4607E06C200320C8
:1043A00074200320702003200AE81C41DB6DB993C0
:1043B0004B461B6EBA934B465B6EBB934B469B6E54
:1043C000BC934B46DB6EBD934B461B6FBE934B4677
:1043D0005B6FBF934B469B6FC0934B46DB6FC193A4
:1043E0008023D358C2938423D358C3938823D358AC
:1043F000C4938C23D358C5939023D358C693942346
:10440000D358C7939823D358C8939C23D358C993A0
:10441000A023D358CA93A423D358CB93A823D3580B
:10442000CC93AC23D358CD93B023D358CE93B4239D
:10443000D358CF93B823D358D093BC23D358D19318
:10444000C023D358D293309B3092984643461F687E
:104450005B6842469946434641469B68D2680E696E
:104460004D690D984946049305920AF050FC049951
:10447000824614980AF04BFC011C50460AF030FCAE
:10448000391C824606980AF042FC011C50460AF08C
:1044900027FC311C824622980AF039FC291C8346ED
:1044A00029980AF034FC011C58460AF019FC0599B9
:1044B00083461B980AF02BFC011C58460AF010FC9E
:1044C000011C50460AF00CFC494620600E980AF088
:1044D0001EFC0499824615980AF019FC011C5046EE
:1044E0000AF0FEFB391C824607980AF010FC011CFA
:1044F00050460AF0F5FB311C824623980AF007FC6F
:10450000291C83462A980AF002FC011C58460AF02E
:10451000E7FB059983461C980AF0F9FB011C5846F5
:104520000AF0DEFB011C50460AF0DAFB49466060E7
:104530000F980AF0ECFB0499824616980AF0E7FB04
:10454000011C50460AF0CCFB391C824608980AF040
:10455000DEFB011C50460AF0C3FB311C8246249846
:104560000AF0D5FB291C83462B980AF0D0FB011CCE
:1045700058460AF0B5FB059983461D980AF0C7FB1B
:10458000011C58460AF0ACFB011C50460AF0A8FB7F
:104590004946A06010980AF0BAFB04998246179821
:1045A0000AF0B5FB011C50460AF09AFB391C824602
:1045B00009980AF0ACFB011C50460AF091FB311C33
:1045C000824625980AF0A3FB291C83462C980AF002
:1045D0009EFB011C58460AF083FB059983461E98F2
:1045E0000AF095FB011C58460AF07AFB011C504664
:1045F0000AF076FB4946E06011980AF088FB0499BE
:10460000824618980AF083FB011C50460AF068FBAA
:10461000391C82460A980AF07AFB011C50460AF0BF
:104620005FFB311C824626980AF071FB291C8346E9
:104630002D980AF06CFB011C58460AF051FB0599B5
:1046400083461F980AF063FB011C58460AF048FB9A
:10465000011C50460AF044FB4946206112980AF0BA
:1046600056FB0499824619980AF051FB011C5046EA
:104670000AF036FB391C82460B980AF048FB011CF5
:1046800050460AF02DFB311C824627980AF03FFB6A
:10469000291C83462E980AF03AFB011C58460AF062
:1046A0001FFB0599834620980AF031FB011C5846F0
:1046B0000AF016FB011C50460AF012FB49466061E5
:1046C00013980AF024FB049981461A980AF01FFBFC
:1046D000011C48460AF004FB391C81460C980AF07C
:1046E00016FB011C48460AF0FBFA311C071C2898EF
:1046F0000AF00DFB291C061C2F980AF008FB011C70
:10470000301C0AF0EDFA0599051C21980AF0FFFA11
:10471000011C281C0AF0E4FA011C381C0AF0E0FA1B
:1047200018239C46FFABA06114331C34E044A34221
:1047300000D08BE6309BA2AD99463C93C4234C46F7
:10474000C8464B44089307944246D26843464146C4
:10475000914642469E694C68096892685F691B6988
:104760000491301CFD99069305920AF0D0FAF6994F
:104770008246381C0AF0CBFA011C50460AF0B0FA07
:10478000EF99824606980AF0C2FAE89983464846AD
:104790000AF0BDFA011C58460AF0A2FA011C504664
:1047A0000AF09EFAE199824605980AF0B0FADA9981
:1047B0008346201C0AF0ABFA011C58460AF090FA16
:1047C000D399834604980AF0A2FA011C58460AF0CD
:1047D00087FA011C50460AF083FA011C28680AF087
:1047E0007CFA2860FE99301C0AF091FAF79982460B
:1047F000381C0AF08CFA011C50460AF071FAF09944
:10480000824606980AF083FAE999834648460AF0F8
:104810007EFA011C58460AF063FA011C50460AF061
:104820005FFAE299824605980AF071FADB998346AD
:10483000201C0AF06CFA011C58460AF051FAD4996F
:10484000834604980AF063FA011C58460AF048FAB5
:10485000011C50460AF044FA011C68680AF03DFA4F
:10486000FF996860301C0AF052FAF8998246381CA9
:104870000AF04DFA011C50460AF032FAF1998246CC
:1048800006980AF044FAEA99834648460AF03FFA45
:10489000011C58460AF024FA011C50460AF020FA7E
:1048A000E399824605980AF032FADC998346201C87
:1048B0000AF02DFA011C58460AF012FAD5998346DF
:1048C00004980AF024FA011C58460AF009FA011C5F
:1048D00050460AF005FA011CA8680AF0FEF9FFAB81
:1048E0005968A860301C04330AF011FAF99982461D
:1048F000381C0AF00CFA011C50460AF0F1F9F29942
:10490000824606980AF003FAEB99834648460AF075
:10491000FEF9011C58460AF0E3F9011C50460AF062
:10492000DFF9E499824605980AF0F1F9DD998346AA
:10493000201C0AF0ECF9011C58460AF0D1F9D6996E
:10494000834604980AF0E3F9011C58460AF0C8F9B6
:10495000011C50460AF0C4F9011CE8680AF0BDF9D0
:10496000FFAB9968E860301C08330AF0D0F9FA9977
:104970008246381C0AF0CBF9011C50460AF0B0F907
:10498000F399824606980AF0C2F9EC9983464846A4
:104990000AF0BDF9011C58460AF0A2F9011C504664
:1049A0000AF09EF9E599824605980AF0B0F9DE9979
:1049B0008346201C0AF0ABF9011C58460AF090F916
:1049C000D799834604980AF0A2F9011C58460AF0C8
:1049D00087F9011C50460AF083F9011C28690AF086
:1049E0007CF9FFABD9682861301C0C330AF08FF9D1
:1049F000FB998246381C0AF08AF9011C50460AF0DD
:104A00006FF9F499824606980AF081F9ED99834688
:104A100048460AF07CF9011C58460AF061F9011C6D
:104A200050460AF05DF9E699824605980AF06FF95A
:104A3000DF998346201C0AF06AF9011C58460AF0E7
:104A40004FF9D899834604980AF061F9011C584639
:104A50000AF046F9011C50460AF042F9011C686947
:104A60000AF03BF9EE99686148460AF050F9F59969
:104A7000814606980AF04BF9011C48460AF030F9C5
:104A8000FC998146381C0AF042F9FFAB1969071CF2
:104A9000301C10330AF03BF9011C381C0AF020F9D5
:104AA000011C48460AF01CF9E099061C201C0AF07B
:104AB0002EF9E799041C05980AF029F9011C201C1D
:104AC0000AF00EF9D999041C04980AF020F9011C87
:104AD000201C0AF005F9011C301C0AF001F9011C28
:104AE000A8690AF0FAF81C239C46089BE044A861D8
:104AF0001C35984500D027E6079BA29A99461A6074
:104B0000A39A5A60A49A9A60A59ADA60A69A1A6142
:104B1000A79A5A61A89A9A61A99ADA61AA9A1A621E
:104B2000AB9A5A62AC9A9A62AD9ADA62AE9A1A63FA
:104B3000AF9A5A63B09A9A63B19ADA63B29A1A64D6
:104B4000B39A5A64B49A9A64B59ADA64B69A1A65B2
:104B5000B79A5A65B89A9A65B99ADA65BA9A1A668E
:104B6000BB9A5A66BC9A9A66BD9ADA66BE9A1A676A
:104B7000BF9A5A67C09A9A67C19ADA674A468023F1
:104B8000C299D150C3990433D150C4990433D15040
:104B9000C5990433D150C6990433D150C799043311
:104BA000D150C8990433D150C9990433D150CA990E
:104BB0000433D150CB990433D150CC990433D15024
:104BC000CD990433D150CE990433D150CF990433C9
:104BD000D150D0990433D150D1990433D150D299C6
:104BE0000433D1503AAA9446504BA2AA63441B689E
:104BF00013CB13C24E4BD3AC63441B6807CB07C423
:104C00003A9B3B9D00934B4B28006344A2A91B6831
:104C1000D3AAFDF77FF82B00D3AA23CB23C213CB53
:104C200013C23AA91B688C4613603EAA11003F4B81
:104C300063441B6831CB31C13D4BA2A963441B685F
:104C400031CB31C13B4BD3A963441B6871A800939E
:104C5000A2ABFDF7C5FAD3AB1C000793719BA0462E
:104C60000993789B10937F9B1793869B1E938D9B34
:104C70002593949B2C939B9B3393729B0A93799BD4
:104C80001193809B1893879B1F938E9B2693959BD4
:104C90002D939C9B3493739B0B937A9B1293819BD4
:104CA0001993889B20938F9B2793969B2E939D9B74
:104CB0003593749B0C937B9B1393829B1A93899BD4
:104CC0002193909B2893979B2F939E9B3693759B44
:104CD0000D937C9B1493839B1B938A9B2293919BA4
:104CE0002993989B30939F9B3793769B0E937D9B44
:104CF0001593849B1C938B9B2393929B2A93999B44
:104D00003193A09B3893779B0F937E9B1693859B43
:104D10001D938C9B2493939B2B939A9B3293A19BE3
:104D200039934B463D933C9B994605E0280800008B
:104D3000380800003C080000484649464A464B46B1
:104D4000866909691B6855689468D2684769069145
:104D50003398311C0592049309F0D9FF391C82461F
:104D60002C9809F0D4FF011C504609F0B9FF0699B0
:104D70008246259809F0CBFF059983461E9809F0D5
:104D8000C6FF011C584609F0ABFF011C504609F054
:104D9000A7FF211C8246179809F0B9FF291C8346FA
:104DA000109809F0B4FF011C584609F099FF0499C6
:104DB0008346099809F0ABFF011C584609F090FFA3
:104DC000011C504609F08CFF4346311C1860349892
:104DD00009F09DFF391C82462D9809F098FF011CAF
:104DE000504609F07DFF06998246269809F08FFF0C
:104DF000059983461F9809F08AFF011C584609F05F
:104E00006FFF011C504609F06BFF211C8246189869
:104E100009F07DFF291C8346119809F078FF011CD9
:104E2000584609F05DFF049983460A9809F06FFF20
:104E3000011C584609F054FF011C504609F050FF70
:104E40004346311C5860359809F061FF391C824691
:104E50002E9809F05CFF011C504609F041FF0699AD
:104E60008246279809F053FF05998346209809F058
:104E70004EFF011C584609F033FF011C504609F053
:104E80002FFF211C8246199809F041FF291C8346F7
:104E9000129809F03CFF011C584609F021FF0499C3
:104EA00083460B9809F033FF011C584609F018FFA0
:104EB000011C504609F014FF4346311C9860369897
:104EC00009F025FF391C82462F9809F020FF011CAC
:104ED000504609F005FF06998246289809F017FF09
:104EE00005998346219809F012FF011C584609F0E4
:104EF000F7FE011C504609F0F3FE211C82461A9869
:104F000009F005FF291C8346139809F000FF011CD6
:104F1000584609F0E5FE049983460C9809F0F7FE1F
:104F2000011C584609F0DCFE011C504609F0D8FE71
:104F30004346311CD860379809F0E9FE391C824697
:104F4000309809F0E4FE011C504609F0C9FE0699AC
:104F50008246299809F0DBFE05998346229809F0DC
:104F6000D6FE011C584609F0BBFE011C504609F054
:104F7000B7FE211C82461B9809F0C9FE291C8346F6
:104F8000149809F0C4FE011C584609F0A9FE0499C2
:104F900083460D9809F0BBFE011C584609F0A0FE9F
:104FA000011C504609F09CFE4346311C186138989C
:104FB00009F0ADFE391C8246319809F0A8FE011CAB
:104FC000504609F08DFE069982462A9809F09FFE08
:104FD00005998346239809F09AFE011C584609F06A
:104FE0007FFE011C504609F07BFE211C82461C9866
:104FF00009F08DFE291C8346159809F088FE011CD6
:10500000584609F06DFE049983460E9809F07FFE1C
:10501000011C584609F064FE011C504609F060FE70
:10502000434605995861249809F071FE0699824615
:105030002B9809F06CFE011C504609F051FE391CFA
:105040008246329809F063FE311C071C399809F03A
:105050005EFE011C381C09F043FE011C504609F09D
:105060003FFE291C061C169809F051FE211C051C48
:105070001D9809F04CFE011C281C09F031FE049912
:10508000041C0F9809F043FE011C201C09F028FEA7
:10509000011C301C09F024FE434698611C239C46E9
:1050A000089BE144E044994500D045E6A2ACA04607
:1050B000F6AB0693DAAB3C940893079B33981A68D7
:1050C000596D0492069A8946D669196FDD69059172
:1050D000311C9C6B176809F01AFE391C82462C980B
:1050E00009F015FE011C504609F0FAFD05998246AB
:1050F000259809F00CFE494683461E9809F007FEE4
:10510000011C584609F0ECFD011C504609F0E8FD71
:10511000211C8246179809F0FAFD291C8346109835
:1051200009F0F5FD011C584609F0DAFD04998346A3
:10513000099809F0ECFD011C584609F0D1FD011C4D
:10514000504609F0CDFD41460860311C349809F005
:10515000DEFD391C82462D9809F0D9FD011C504610
:1051600009F0BEFD05998246269809F0D0FD494612
:1051700083461F9809F0CBFD011C584609F0B0FD8D
:10518000011C504609F0ACFD211C8246189809F01C
:10519000BEFD291C8346119809F0B9FD011C584633
:1051A00009F09EFD049983460A9809F0B0FD011CA0
:1051B000584609F095FD011C504609F091FD414605
:1051C0004860311C359809F0A2FD391C82462E98A2
:1051D00009F09DFD011C504609F082FD05998246AB
:1051E000279809F094FD49468346209809F08FFDE1
:1051F000011C584609F074FD011C504609F070FD71
:10520000211C8246199809F082FD291C83461298B8
:1052100009F07DFD011C584609F062FD04998346A2
:105220000B9809F074FD011C584609F059FD011C4A
:10523000504609F055FD41468860311C369809F00A
:1052400066FD391C82462F9809F061FD011C50460D
:1052500009F046FD05998246289809F058FD49460F
:105260008346219809F053FD011C584609F038FD8A
:10527000011C504609F034FD211C82461A9809F0A1
:1052800046FD291C8346139809F041FD011C584630
:1052900009F026FD049983460C9809F038FD011C9D
:1052A000584609F01DFD011C504609F019FD414604
:1052B000C860311C379809F02AFD391C82463098A5
:1052C00009F025FD011C504609F00AFD05998246AA
:1052D000299809F01CFD49468346229809F017FDDC
:1052E000011C584609F0FCFC011C504609F0F8FC72
:1052F000211C82461B9809F00AFD291C834614983C
:1053000009F005FD011C584609F0EAFC04998346A2
:105310000D9809F0FCFC011C584609F0E1FC011C49
:10532000504609F0DDFC41460861311C389809F00F
:10533000EEFC391C8246319809F0E9FC011C50460C
:1053400009F0CEFC059982462A9809F0E0FC49460E
:105350008346239809F0DBFC011C584609F0C0FC89
:10536000011C504609F0BCFC211C82461C9809F027
:10537000CEFC291C8346159809F0C9FC011C58462F
:1053800009F0AEFC049983460E9809F0C0FC011C9C
:10539000584609F0A5FC011C504609F0A1FC434603
:1053A00049465861249809F0B2FC059981462B982A
:1053B00009F0ADFC011C484609F092FC391C8146FD
:1053C000329809F0A4FC311C071C399809F09FFCA5
:1053D000011C381C09F084FC011C484609F080FCC3
:1053E000291C061C169809F092FC211C051C1D980E
:1053F00009F08DFC011C281C09F072FC0499041CA6
:105400000F9809F084FC011C201C09F069FC011CA8
:10541000301C09F065FC414688611C218C46069AC7
:10542000079B04320692089A04330793E0449A4299
:1054300000D042E63AAA94463D9B764A9946754B7F
:10544000624463441B6812681B68D3AC0793714BBA
:1054500063441B68DB6908936E4B63441B689B6B5A
:1054600009936C4B63441B685B6D0A93694B6344FF
:105470001B681B6F0B938C23D358664A0C93654BA8
:10548000624463441B685B680D93624B63441B6812
:105490001B6A0E935F4B63441B68DB6B0F935D4B82
:1054A00063441B689B6D10935A4B63441B685B6F8E
:1054B000126811939023D358564A1293554B624465
:1054C00063441B6812689B681393524B63441B68C8
:1054D0005B6A14934F4B63441B681B6C15934D4BD5
:1054E00063441B68DB6D16934A4B63441B689B6FD8
:1054F00017939423D358474A1893464B6244634406
:105500001B68DB681993434B63441B689B6A1A93BF
:10551000404B63441B685B6C1B933E4B63441B68AE
:1055200012681B6E1C933B4B63441B68DB6F1D931F
:105530009823D358374A1E93364B624463441B6802
:1055400012681B691F93334B63441B68DB6A20930B
:10555000304B63441B689B6C21932E4B63441B6848
:105560005B6E22938023D3582A4A23939C23624460
:105570001268D358274A2493264B624463441B681D
:105580005B692593234B63441B681B6B2693214B5C
:10559000126863441B68DB6C27931E4B63441B68D3
:1055A0009B6E28938423D3581A4A2993A0236244DC
:1055B0001268D358174A2A93164B624463441B68F7
:1055C00012689B692B93134B63441B685B6B2C9392
:1055D000104B63441B681B6D2D930E4B63441B687B
:1055E000DB6E2E938823D3580A4A2F93A423624458
:1055F0001268D35822003093074B63441B689846C7
:10560000D3AB06939023434431934B464446904694
:10561000329303E0340800002C0800006368E2685D
:105620009946A368089948460493059209F06FFBD0
:1056300009998246049809F06AFB011C504609F05A
:105640004FFB276882460799381C09F060FB011C54
:10565000504609F045FB266982460B99301C09F03B
:1056600056FB656983460C99281C09F050FB011C08
:10567000584609F035FB0A998346059809F047FB1F
:10568000011C584609F02CFB011C504609F028FB70
:10569000414608600E99484609F039FB0F99824649
:1056A000049809F034FB011C504609F019FB0D99D0
:1056B0008246381C09F02BFB011C504609F010FBF8
:1056C00011998246301C09F022FB12998346281C4E
:1056D00009F01DFB011C584609F002FB1099834696
:1056E000059809F014FB011C584609F0F9FA011C51
:1056F000504609F0F5FA414648601499484609F0C9
:1057000006FB15998246049809F001FB011C5046DE
:1057100009F0E6FA13998246381C09F0F8FA011CE0
:10572000504609F0DDFA17998246301C09F0EFFA6D
:1057300018998346281C09F0EAFA011C584609F01A
:10574000CFFA16998346059809F0E1FA011C5846EC
:1057500009F0C6FA011C504609F0C2FA41468860B9
:105760001A99484609F0D3FA1B998246049809F021
:10577000CEFA011C504609F0B3FA19998246381C3A
:1057800009F0C5FA011C504609F0AAFA1D99824693
:10579000301C09F0BCFA1E998346281C09F0B7FAA0
:1057A000011C584609F09CFA1C998346059809F09B
:1057B000AEFA011C584609F093FA011C504609F054
:1057C0008FFA4146C8602099484609F0A0FA21990D
:1057D0008246049809F09BFA011C504609F080FAB1
:1057E0001F998246381C09F092FA011C504609F0B4
:1057F00077FA23998246301C09F089FA2499834666
:10580000281C09F084FA011C584609F069FA22990B
:105810008346059809F07BFA011C584609F060FAA6
:10582000011C504609F05CFA414608612699484639
:1058300009F06DFA27998246049809F068FA011C6C
:10584000504609F04DFA25998246381C09F05FFA56
:10585000011C504609F044FA29998246301C09F08F
:1058600056FA2A998346281C09F051FA011C584619
:1058700009F036FA28998346059809F048FA011C80
:10588000584609F02DFA011C504609F029FA434602
:105890002C995861484609F03AFA2D9981460498A6
:1058A00009F035FA011C484609F01AFA2B9981468D
:1058B000381C09F02CFA011C484609F011FA2F99FE
:1058C000071C301C09F023FA3099061C281C09F02B
:1058D0001EFA011C301C09F003FA2E99051C0598CC
:1058E00009F015FA011C281C09F0FAF9011C381CF2
:1058F00009F0F6F9434698611C239C46319B183405
:10590000E044A34200D089E6F6AB05933C9CDAABB9
:105910003193069B0899DA691F6891469A6B48464D
:1059200090465A6D1E6F0492059A20CA059209F09E
:10593000EEF909998246404609F0E9F9011C504602
:1059400009F0CEF907998246381C09F0E0F9011CEC
:10595000504609F0C5F90B998246301C09F0D7F979
:105960000C998346281C09F0D2F9011C584609F00D
:10597000B7F90A998346049809F0C9F9011C5846F9
:1059800009F0AEF9011C504609F0AAF9011C206883
:1059900009F0A6F90E992060484609F0B8F90F9968
:1059A0008246404609F0B3F9011C504609F098F9C7
:1059B0000D998246381C09F0AAF9011C504609F0DD
:1059C0008FF911998246301C09F0A1F9129983468A
:1059D000281C09F09CF9011C584609F081F910991E
:1059E0008346049809F093F9011C584609F078F9A8
:1059F000011C504609F074F9011C606809F070F947
:105A000018996060281C09F082F917998246301CA9
:105A100009F07DF9011C504609F062F91699824699
:105A2000049809F074F9011C504609F059F91499C9
:105A30008246484609F06BF915998346404609F0BD
:105A400066F9011C584609F04BF913998346381C36
:105A500009F05DF9011C584609F042F9011C504655
:105A600009F03EF9011CA06809F03AF91E99A060FE
:105A7000281C09F04CF91D998246301C09F047F9A1
:105A8000011C504609F02CF91C998246049809F033
:105A90003EF9011C504609F023F91B998246404605
:105AA00009F035F91A998346484609F030F9011C86
:105AB000584609F015F919998346381C09F027F959
:105AC000011C584609F00CF9011C504609F008F970
:105AD000011CE06809F004F92099E060484609F0EB
