:020000041000EA
:1000000000B5324B212058609868022188439860DF
:10001000D860186158612E4B002199600221596106
:100020000121F02299502B49196001219960352056
:1000300000F044F80222904214D00621196600F024
:1000400034F8196E01211966002018661A6600F04E
:100050002CF8196E196E196E052000F02FF8012189
:100060000842F9D1002199601B49196000215960AB
:100070001A491B48016001219960EB211966A021F2
:10008000196600F012F800219960164914480160C1
:100090000121996001BC002800D000471248134993
:1000A000086003C880F30888084703B5996A0420EC
:1000B0000142FBD001200142F8D103BD02B5186610
:1000C0001866FFF7F2FF186E186E02BD00000240BE
:1000D000000000180000070000035F00212200005C
:1000E000F4000018222000A00001001008ED00E03C
:1000F00000000000000000000000000074B24E7A12
:1001000000200420F7010010C3010010C5010010F9
:10011000C1010010C1010010C1010010C101001097
:10012000C1010010C1010010C1010010C701001081
:10013000C1010010C1010010C9010010CB01001065
:10014000CD010010CD010010CD010010CD01001037
:10015000CD010010CD010010CD010010CD01001027
:10016000CD010010CD010010CD010010CD01001017
:10017000CD010010CD010010CD010010CD01001007
:10018000CD010010CD010010CD010010CD010010F7
:10019000CD010010CD010010CD010010CD010010E7
:1001A000CD010010CD010010CD010010CD010010D7
:1001B000CD010010CD010010CD010010CD010010C7
:1001C00000BE00BE00BE00BE00BE00BEEFF3058054
:1001D000103800BEF2EB88717C4305109C4305107B
:1001E0003402001090A31AE700201F49086006C8D7
:1001F00081F3088810471D48006800282FD10DA4FE
:100200000ECC002902D000F012F8F9E71849194A7B
:10021000002000E001C19142FCD1174988471749ED
:1002200088471749884700BEFDE701C901C29A42C5
:10023000FBD370479C430510C0000020902C002089
:100240006C6F051000000420000004206C6F051086
:10025000001004200010042000000000704709482E
:100260000DF03EFA0047000008ED00E0000000D06D
:10027000902C0020A0580320D5BE0010550300107C
:1002800009C000105756000006005250ABB360532F
:10029000509F041006005250861C0302609F0410F9
:1002A000060052505422A29D6C9F0410050052502B
:1002B000DE65F4686C6F0510F8B5C0460448054B60
:1002C00010B5834203D0044B002B00D0984710BDDB
:1002D000902C0020902C00200000000006480749C8
:1002E000091A8B10C90FC91810B5491003D0044B57
:1002F000002B00D0984710BD902C0020902C00209F
:100300000000000010B5074C2378002B09D1FFF73F
:10031000D5FF054B002B02D0044800E000BF0123AD
:10032000237010BDD830002000000000809A041017
:10033000054B10B5002B03D00449054800E000BF71
:10034000FFF7CCFF10BDC04600000000DC300020ED
:10035000809A041070B519200AF088F8D023802202
:100360001B0692045A620FF02BF900F047F806F0D2
:1003700013FD08F083F806F0B5FF09F0D1FB002269
:100380000524144B1A7006F0B5F9134D013C2100F9
:1003900028000FF009F9FA2080000AF077FE002CFF
:1003A000F4D10A200EF060FF012200210B480AF070
:1003B00035FB0B4811F0B4FA01220A4B0A4C1A70B3
:1003C0002378012BFCD108F015FA2378012BFAD001
:1003D000F6E7C04684580320809A0410B8570320DB
:1003E000398A0010835803208858032010B502482A
:1003F00011F0BEFD10BDC04690380320092370B532
:1004000086B0059304330493023B0393013B0293AC
:10041000023B324D324C0193324B22003249334879
:1004200000932B0005F024FE142005F01DFEFA2099
:1004300080000AF02BFE2E4E21003200280006F02C
:100440002FF83378682B08D02A4C20000EF058FF84
:10045000FA2080000AF01AFEF7E773783D2BF3D1FB
:1004600001222100280006F03FF8234E320021002F
:10047000280006F073F83378002BF7D10122210011
:10048000280005F0EFFE0121200005F0CDFE03213C
:10049000200005F05FFE0321280005F089FF1321ED
:1004A000200006F0C9F81221200006F003F900210F
:1004B000200006F0E1F80321200006F06BF802218D
:1004C000200006F083F85521200005F061FE182178
:1004D000280005F007FF06B070BDC0467820032055
:1004E0005C32002040420F009C200020942000201D
:1004F00048580320949A04109C580320F0B5C6462F
:10050000334C344D344E22002900300000B505F044
:10051000D9FF6378DB439B0720D023781B0702D4E5
:1005200080BCB846F0BD2D4C0622002120000EF004
:1005300069FD2100300005F095FF0023E05E05F025
:10054000FFFD274D28600223E05E05F0F9FD68609D
:100550000423E05E05F0F4FDA860E1E7214B0622EC
:100560009846180000210EF04DFD1F4F0622002175
:1005700038000EF047FD4146280005F055FF3900D0
:10058000280005F033FF43460020185E05F0C4FD47
:100590004346164D28600220185E05F0BDFD434617
:1005A00068600420185E05F0B7FDA8600023F85EBF
:1005B00005F0BCFD0E4D28600223F85E05F0B6FD87
:1005C00068600423F85E05F0B1FDA860A5E7C046A9
:1005D000CC4D03205C32002078200320783E03209D
:1005E00018430320683E0320703E03200C3D032087
:1005F000283D0320F0B55746DE464E464546E0B559
:100600008BB008919246190005900993DA170323DD
:100610008C46134063449B109B009846002B00DCE3
:1006200090E05246159B00249B000193149B9B1A5B
:10063000159A9B1A089A9B00029353681268190135
:1006400094460491069251469A00039252468D00B8
:100650000021013A92000792002289465900DE00EB
:10066000CB189B009B461300424665440092019ABA
:1006700094469C44039B1A199F195346002B1EDD78
:10068000069B059819196346804600989B004344D1
:1006900080460094086818600098081A845804314D
:1006A0005C6084599C60C059D86010338D42F1D190
:1006B00043460799009363468C4604339C440421C7
:1006C000029B5A4463448C461400049A3E00E14461
:1006D0009446009A5E4465444A45C8DC1A00009B73
:1006E0009846099B434526DD1499159C089B0D1BD4
:1006F000514609CB6D1A00291DDD41469E004B4332
:100700009B00C01853469C00059B47469C46099B8E
:10071000AB469846159B994600234A449100614494
:10072000C558CD5004339C42FAD1524401375A4443
:100730008019B845F0D10BB0F0BCBB46B246A94613
:10074000A046F0BD0022CCE7F0B54746CE4680B5C6
:100750001F00002B1DDD002A1BDD9300C0180B6855
:10076000002498464B689100D200494252428C4680
:1007700091469B00614645182900A2004244166834
:10078000D21840C18142FAD14A460134A81AA74280
:10079000F0D1C0BCB946B046F0BDC046F0B5DE46AB
:1007A00057464E4645460023E0B51360836887B040
:1007B0009A46059200230268052693460093013B62
:1007C000039002910493052355469B1B98465D4375
:1007D0005B46002B00D18DE14544AD005D442B68A4
:1007E0005C006B6864085F007F08391C381C0EF0E1
:1007F000D2FA002800D0DFE0211C381C0EF0C6FA27
:10080000002800D0DFE00027731C9A46022B53D942
:10081000AB685B005B08191C181C99460EF0BBFA0C
:10082000002800D046E14846211C0EF0AFFA00280F
:1008300001D04C4602275346032B3DD0EB685B00AA
:100840005B08191C181C99460EF0A5FA002800D068
:1008500038E14846211C0EF099FA002801D04C4698
:1008600003275346042B27D02B695B005B08191C18
:10087000181C99460EF08FFA002800D02AE149464C
:10088000201C0EF075FA002801D04C460427534670
:10089000052B11D06D696D006D08291C281C0EF008
:1008A0007AFA002800D01DE1291C201C0EF060FA05
:1008B000002801D005272C1C029B009A47440021E8
:1008C0009F50201C0EF04CFA002800D17EE0049BC3
:1008D000013300D1E3E006239B1B45460193039BB4
:1008E0009B689A465D4306239F1B53469B0099468F
:1008F000019B52461C005443009A7F199446A50060
:1009000065449C460023BF005F44B8461F00644412
:10091000A4005D445C444346286819680EF0F1F970
:10092000011C20680EF0D3F92060012E2DD943461A
:10093000286859680EF0E5F9011C60680EF0C7F9E7
:100940006060022E21D04346296898680EF0D9F9DC
:10095000011CA0680EF0BBF9A060032E15D0434621
:100960002968D8680EF0CDF9011CE0680EF0AFF9E7
:10097000E060052E09D14346296818690EF0C1F9D7
:10098000011C20690EF0A3F9206101374D444C444D
:10099000BE42C0D1009B013E04330093019B052B56
:1009A00000D010E71A00029B5A6107B0F0BCBB46AA
:1009B000B246A946A046F0BD211C201C0EF0EBF962
:1009C000002800D018E73C1C01271DE7474530D020
:1009D00059465C460098BB005B4409581D68039A61
:1009E00092682550196001009200594489189B189B
:1009F00008681C680C60186089189B1808681C68D7
:100A00000C60186089189B1808681C680C601860D6
:100A100089189B1808681C680C60186089189B1856
:100A200018680A6808601A60059A13680193013310
:100A300013604546039B5A469B685D439A460623CE
:100A40009B1B0193EC1843465B199B009F58A40025
:100A50005C442068391C0EF040F92060012E00D85B
:100A600041E76068391C0EF038F96060022E00D151
:100A700039E7A068391C0EF030F9A060032E00D1D0
:100A800031E7E068391C0EF028F9E060042E00D14F
:100A900029E72069391C0EF020F9206123E706239D
:100AA00045469B1B0193039B9B689A465D434346C7
:100AB000049318E7211C201C0EF06DF9002800D1CA
:100AC000B7E6B0E6211C201C0EF065F9002800D125
:100AD000C5E6BEE6211C201C0EF05DF9002800D101
:100AE000D3E6CCE6211C201C0EF055F9002800D1DD
:100AF000E0E6D9E61B68FFDEF0B55746DE464E4617
:100B00004546E0B599B01493249B8246259C2698CF
:100B10005D1C00D1229B651C00D1229C239DEE17F9
:100B200003253540239EB4466544AD10AF0007252C
:100B3000229E0E97AE4335000096149E002E00DCD8
:100B400088E29B001693230110930301D318179397
:100B50006B1EDB0801330391D9015B010F93A300E6
:100B60007C43201880001193131815930023D3465B
:100B7000139108930E9B002B00DCC2E10F9A039B9C
:100B8000944663441293179BD84601930023029323
:100B90000298434601000CCB089C5943A44661448B
:100BA000890051180991411C594361448900511829
:100BB0000A91811C59436144890051180B91C11C51
:100BC0004B4363449B00D318019E0C93009B34005D
:100BD000002B00DC45E2039B0025994600234C4690
:100BE000AA46AB46A946069504952F1C0595079580
:100BF0000D9325683168281C0EF083F859460EF0D5
:100C000069F871688346281C0EF07BF851460EF097
:100C100061F8B1688246281C0EF073F807990EF04F
:100C200059F8F1680790281C0EF06BF805990EF042
:100C300051F8059065683169281C0EF062F8391C7E
:100C40000EF048F87169071C281C0EF05AF8049938
:100C50000EF040F8B1690490281C0EF052F8069985
:100C60000EF038F8F1690690281C0EF04AF8494653
:100C70000EF030F88146A568316A281C0EF041F864
:100C800059460EF027F8716A8346281C0EF039F891
:100C900051460EF01FF8B16A8246281C0EF031F85A
:100CA00007990EF017F8F16A0790281C0EF029F842
:100CB00005990EF00FF80590E568316B281C0EF0D1
:100CC00020F8391C0EF006F8716B071C281C0EF07A
:100CD00018F804990DF0FEFFB16B0490281C0EF07B
:100CE00010F806990DF0F6FFF16B0690281C0EF037
:100CF00008F849460DF0EEFF81462569316C281C45
:100D00000DF0FFFF59460DF0E5FF716C8346281C7E
:100D10000DF0F7FF51460DF0DDFFB16C8246281C47
:100D20000DF0EFFF07990DF0D5FFF16C0790281C2F
:100D30000DF0E7FF05990DF0CDFF05906569316D68
:100D4000281C0DF0DEFF391C0DF0C4FF716D071C6F
:100D5000281C0DF0D6FF04990DF0BCFFB16D049076
:100D6000281C0DF0CEFF06990DF0B4FFF16D069032
:100D7000281C0DF0C6FF49460DF0ACFF8146A56961
:100D8000316E281C0DF0BDFF59460DF0A3FF716EAA
:100D90008346281C0DF0B5FF51460DF09BFFB16E48
:100DA0008246281C0DF0ADFF07990DF093FFF16E00
:100DB0000790281C0DF0A5FF05990DF08BFF0590FD
:100DC000E569316F281C0DF09CFF391C0DF082FF86
:100DD000716F071C281C0DF094FF04990DF07AFF29
:100DE000B16F0490281C0DF08CFF06990DF072FF76
:100DF000F16F0690281C0DF084FF49460DF06AFF44
:100E00008146803620340D9B009A08330D939A4218
:100E100000DDEEE6139B019C9C46051C5946381CE0
:100E200064440DF057FF5146071C04980DF052FF23
:100E30000799061C06980DF04DFF05998146281C60
:100E40000DF048FF129B051C9A46229A009B9A427D
:100E500030DDAB460493534620CB2168281C9A46CC
:100E60000DF04FFF011C381C0DF034FF6168071CAA
:100E7000281C0DF046FF011C301C0DF02BFFA16853
:100E8000061C281C0DF03DFF011C48460DF022FFFA
:100E9000E1688146281C0DF034FF011C58460DF016
:100EA00019FF8346049B229A0133103404939A421B
:100EB000D1D1051C311C0A9E30680DF008FF391C89
:100EC000099F041C38680DF002FF291C0C9D386036
:100ED000346028680DF0FBFE0B9E4946041C306808
:100EE0000DF0F5FE1099019A8C46029B6244019226
:100EF0000E9A0433306002932C609A4200DD47E67C
:100F0000C3460F9A039B944663440E9A0293239B15
:100F10009246159D934200DC90E05B465C68534628
:100F20005C43089B2F009C465B461B6864449C46C0
:100F3000009BA4006444002B00DC99E00023039F85
:100F400099463B00A04600262F001C003968206807
:100F50000DF0D7FE311C0DF0BDFE061C79686068EF
:100F60000DF0CFFE311C0DF0B5FE061CB968A0686F
:100F70000DF0C7FE311C0DF0ADFE061CF968E068EF
:100F80000DF0BFFE311C0DF0A5FE061C396920696D
:100F90000DF0B7FE311C0DF09DFE061C79696069ED
:100FA0000DF0AFFE311C0DF095FE061CB969A0696D
:100FB0000DF0A7FE311C0DF08DFE061CF969E069ED
:100FC0000DF09FFE311C0DF085FE061C20372034ED
:100FD00008239C46009BE1444B45B7DC44460F9BED
:100FE000EF18029B0193229A009B9A4217DD9946C3
:100FF0000023984643464246F958019B98580DF005
:1010000080FE011C301C0DF065FE061C01239C4671
:101010000333E1449C46229BE0444B45EAD12068DF
:10102000311C0DF054FE01239C46119BE2449C466A
:10103000239B20606544534500D06EE71699039AC0
:101040008C46089B62440392149A013308939A4297
:1010500000D08FE519B0F0BCBB46B246A946A04609
:10106000F0BD0025039BA9469A462E1C2F1CECE6DA
:10107000039B00260193B6E7F0B557464E46DE4681
:1010800045468024E0B5B5B006AF3C1920609420F9
:101090007B63E823AE4E38180160BA63FB181C6806
:1010A0003378BFF35B8FDB0700D477E2A94D902242
:1010B0002369BA1813608422A368BA1813608022C7
:1010C000BA1812686D68934202DD8423FB181A6017
:1010D00094218423902279180E688C21FB18BA1869
:1010E00012681B6856435343226879180A60002A25
:1010F00000D180E29B003B660023BB6763687B678F
:10110000002B00D163E2B300FB6500233B6798220C
:101110000423BA1813609033FB181B68002B19DDE9
:101120008023E422FB18BA181B6812681900934246
:1011300000DA4AE2280009010CF02CFB0323C21755
:10114000134098221B189B109B00BA181360042BA5
:1011500000DA35E28023FB181968002900DCA9E1D8
:1011600090207B6B38181A000068796484464243EB
:10117000091A3A616244B9647A609821E4227918C4
:10118000BA18126809684A43BA619A007A6104324F
:10119000FA61A02201339B00BA181360E423FB1804
:1011A0001B689B009B460023FB63FB643B64BB66A0
:1011B0009C227B6CBA1813609022BA181268934272
:1011C00002DD9C23FB181A609423FB181B68002B7C
:1011D00000DC47E19C23FB181A68002A00DC41E18F
:1011E0009423E021FB181B687918BB6598230968D4
:1011F000FB188C461B68B86E53439B00BB607B6F2B
:101200001100FB6783006344FB6000238C46FB6690
:10121000FB620B00B021791839630321013B043ACA
:101220008B436044D31A38603B629822BA18BB6D76
:1012300012689A46934200DD9246FA68FB6E944625
:101240009B0063447B66FB6B88227B65FB6CBA1852
:101250003B659C23FB181B6813609C23FB181A68D2
:101260008823FB181B68D21ABA62A422BA1813602A
:10127000042B03DDA4220423BA1813608823FB186F
:101280003A681B68D21A7A62002B65DDA423BA6B18
:10129000FB189146A8221B68BA18013B98467B6D43
:1012A0009B0099447B6E1360AC220023BA18136034
:1012B000AC23AC22FB181B68BA18013313604346F9
:1012C000002B2CDDA8230025FB181C684B46266844
:1012D0005968301C0DF015FD011C60680DF0F7FC1D
:1012E00043466060012B16D04B46301C99680DF0C8
:1012F00008FD011CA0680DF0EAFC4346A060022B2B
:1013000009D04B46301CD9680DF0FBFC011CE0688D
:101310000DF0DDFCE06001355C445545D6D101237C
:101320005B429C46A133FB181B68E0449C46A82303
:10133000A822FB181B68BA1804331360AC23A4223C
:10134000FB18BA181B681268E1449342B0DB03E053
:10135000E0220320A43803208823A422FB18BA1813
:101360001B681268396B9D1A7B6EBE6A0B60E423A2
:10137000FB181B6891464B609C230196FB181B6869
:1013800088460093F86F5346FFF734F9002D37DD98
:1013900041467C6A386D4C440319B86B4A46844612
:1013A000786B9B004860A420381802608C203818A5
:1013B000006863440B602B0081463963FFF7C4F972
:1013C000E022FB6EBA181B1914689B00A0463C6B08
:1013D00043442360E423FB1819689C236160FB18D5
:1013E00004961B6849460393A423FB181A685346C6
:1013F0000292019300922B002000FA6FFFF77CFB12
:10140000882388227969FB188C461B68BA18043B2C
:10141000F96913603A6D62448C463A657A6E10320F
:101420007A667A6D62447A653A6A9A4200D014E725
:101430009822BA181268B96D9446FB6A8A1AB9697B
:1014400063448C46BA65B968FA6EFB6262448C46A6
:10145000FA66FA6F6244FA679422BA1812689A42DE
:1014600000DDE2E69022BA181268BB6E9446802234
:10147000BA1812686344BB6693421BDA8423FB18D4
:101480001B68002B38DC90233969FB188C467A6C7A
:101490001B68D21A7A643A6C62443A64BA6CD31A02
:1014A000BB647A68FB6C63449446FB64FB6B6344E7
:1014B000FB637DE68023FA6D9B029A4207D93A6F5F
:1014C000002A04D0531E1878101A0DF083FD8023D3
:1014D0003A6E9B029A4207D9BA6F002A04D0531E73
:1014E0001878101A0DF076FDBD462FB0F0BCBB4643
:1014F000B246A946A046F0BDBA6B3B6C92469B0033
:101500009A44B023FE18B13B9946BD6CBC6E84234F
:10151000FB181B68A8469D4200DD9846AC22A3003C
:10152000BA1813607A6B8C2072609C225344BA18EC
:10153000381831001268006833604346FFF704F939
:10154000E022AC23BA181268FB1894461B688C2161
:1015500063443360E423FB181B687918736000232D
:1015600004934B46039302939423FB181B683000AB
:1015700001939C23FB181B6800937A6F434609680C
:10158000FFF7BAFA8423FB181B689C46ED1A8023E8
:10159000FB181B686444A342B9DC74E7300010F008
:1015A000E5F9364D002800D181E58023DB012B6071
:1015B00080231B0330006B60AB6010F0F3F976E51D
:1015C00098220423BA181360C4E51100B2E5802301
:1015D000B200FA659B029A423AD813006A46163363
:1015E000DB08DB00D31A9D4627200F23684498436D
:1015F000386778678BE59A0080233A669B029A42A7
:101600000FD813006A461633DB08DB00D31A9D4659
:1016100027200F23684498437D33FB18B867186070
:101620006CE5100010300DF0B7FCB867002800D151
:1016300064E50F221023844602409B1ADBB29C44CF
:1016400061464A1E13708C23FB18B967196055E573
:10165000100010300DF0A0FC3867002800D156E5CE
:101660000F221023844602409B1ADBB29C44614641
:101670004A1E39671370796749E5C046A4380320CC
:10168000F0B557464E46DE464546E0B5B7B006AF24
:10169000824684207B65F023CB4E38180160BA6304
:1016A000FB181C683378BFF35B8FDB0700D49DE227
:1016B000C64D23696D683B67A368BB67534501DD71
:1016C0005346BB67842179180E6880213A6FBB6F3F
:1016D00056435343226879180A60002A00D1B4E2C5
:1016E0009B003B650023FB666368BB66002B00D153
:1016F00097E2B300FB6400237B6688220423BA18B8
:1017000013608033FB181B68002B16DDEC23FB18DD
:101710001B6851469A4500DA7FE2280009010CF067
:1017200039F80323C217134088221B189B109B0013
:10173000BA181360042B00DA6AE25346002B00DC6F
:1017400032E27A6D386F1100434259430B00B9629F
:1017500051460C1A110062431B1A9B00BA647B604D
:101760000A000B0051464B43B96B53448C46E821A9
:101770009B006344FB637918830009685B423B600C
:1017800053468C469B006344EC21BB658823791843
:10179000FB1809681B687C674B4390213B619300F1
:1017A0005B4279180B60043BBB609B00FB60D3433A
:1017B00094229B00BA181360EC23A822FB181B6824
:1017C000BA189B001360544603008C22BA181360A9
:1017D000A34200DD14608423FB181B68002B00DC8F
:1017E00076E18C23FB181A68002A00DC70E1842360
:1017F000FB181B68B96D7B648823FB181B68534377
:101800009B00FB61BB6EFB659300CB1A3B62002320
:10181000B8213B667B63A31A7918FB621300396316
:101820000321013B043A8B43D31A7B61AC227B6CCE
:10183000BA1813608822BA181268934202DDAC23EA
:10184000FB181A603A6A3B6E94469B009C446246C1
:101850007A62BA6D944698226344BA181360FB6B9F
:101860003B648C23FB181B68FB679C22FB6FBA1838
:101870001360042B03DD9C220423BA181360FA6F53
:10188000FB6A94466344BB61002A00DCA0E09C2311
:10189000396CA0208A46FB181B6838185A1E9346DC
:1018A000BA685B42524402607A6D9B1A9B009A446C
:1018B0000423A4225B4299460023BA181360A02394
:1018C000FE20FB181B68800519680DF006FAB4238A
:1018D000FB181860A423FB181B685A46DB439B1AAD
:1018E0009822BA18126800269446B0229C009B00E9
:1018F0005B42BA1864441360B023FB181B684A4665
:101900009846A04443469958B423FB1818680DF034
:10191000F8F943464A4698505B46051C002B22DDE9
:10192000534619680DF0EDF9011C20680DF0CFF950
:101930005B462060012B16D05346281C59680DF0D9
:10194000E0F9011C60680DF0C2F95B466060022B93
:1019500009D05346281C99680DF0D3F9011CA068E2
:101960000DF0B5F9A060A823FB181B6801369C4652
:10197000AC23FB181B6864449E42BDD1A423A4225F
:10198000FB181B68BA1801331360012294215242DC
:10199000944679180968E3448C46A021A132BA180C
:1019A0001268791862440A600422524294469432C2
:1019B000BA181268E14494469C22BA181268E244AC
:1019C000934200DA7BE703E0E0220320A4380320FF
:1019D000E8219C2279180968BA188C46FB6F1268B6
:1019E000396B9C1ABB699D1A3B6E5B199B00634463
:1019F0000B60EC23FB181B684B608C230194FB18D5
:101A00001B680093AC23FB181B68F86DFEF7F2FD12
:101A1000002C30DD7A6DF96A13008C466B433D6B08
:101A2000B96B80206A609C2263448C463818066833
:101A30009B00BA181268634429002B603000230011
:101A40009046FEF781FEEC2228008C237D6ABA18AE
:101A500005601568FB18456004941D68AC22434678
:101A600003950293BA181268009301922300310083
:101A7000FA6DFFF741F898229821BA181268791880
:101A8000103A0A60F9683A6C8C46FB6F62443A641B
:101A90007A69043BFB679A4200D0E6E68822BA18CE
:101AA0001268796C94467B6B8A1AF96963448C4698
:101AB0007A643969FA6D7B6362448C46FA653A6EE2
:101AC00062443A668422BA1812689A4200DDADE692
:101AD0007B6F1C1E68DDBB6F002B00DCFEE7BA6B62
:101AE000BB6C93469B009B4400239946B833FE1879
:101AF000B93B9A4623004C4699467D6FBB6FA8467A
:101B00009D4200DD9846B422A300BA1813607A6D96
:101B1000802072608C225B44BA1838183100126839
:101B2000006833604346FEF70FFEE822B423BA187C
:101B30001268FB1894461B68802163443360EC23D1
:101B4000FB181B68791873600023049353460393B2
:101B500002938423FB181B68300001938C23FB182D
:101B60001B680093BA6E43460968FEF7C5FFBB6F5A
:101B70009C46ED1A7B6F6444A342BFDCBA6ABB6C1F
:101B800094467A6863449446BB643A68FB6B4C465F
:101B900063449446FB63BB6D3A6F6344BB657B6FE4
:101BA0009B1A7B67130010E68023FA6C9B029A4213
:101BB00007D97A6E002A04D0531E1878101A0DF037
:101BC00009FA80233A6D9B029A4207D9FA6E002ADD
:101BD00004D0531E1878101A0DF0FCF9BD4631B030
:101BE000F0BCBB46B246A946A046F0BD30000FF09F
:101BF000BDFE374D002800D15BE58023DB012B6063
:101C000080231B0330006B60AB600FF0CBFE50E510
:101C100088220423BA1813608FE5EC23FB18196897
:101C20007BE58023B200FA649B029A423AD8130003
:101C30006A461633DB08DB00D31A9D4627200F23A4
:101C4000684498437866B86657E59A0080233A65F9
:101C50009B029A420FD813006A461633DB08DB005A
:101C6000D31A9D4627200F23684498437133FB18ED
:101C7000F866186038E5100010300DF08DF9F86640
:101C8000002800D130E50F221023844602409B1A21
:101C9000DBB29C4461464A1E13708023FB18F96630
:101CA000196021E5100010300DF076F978660028F3
:101CB00000D122E50F221023844602409B1ADBB29A
:101CC0009C4461464A1E79661370B96615E5C046A4
:101CD000A438032030B587B00D4B02AD00951A68CB
:101CE000694602929A880400AA809B796A46AB7181
:101CF000072301930023D3732CF0CAFD0098A84258
:101D000003D0029901310DF099F9200007B030BDE0
:101D1000A89A0410F0B5DE4657464E464546E0B553
:101D20000E000168C7688946416805698A4681686E
:101D30008DB08B464169806907930690506813689F
:101D4000926805910A90291C30680B9209930895B6
:101D50000CF0BDFF0599039070680CF0B8FF069970
:101D6000051CB0680CF0B3FF802680463606079845
:101D70000DF04AF8B446039B0090019163441800AB
:101D800051460CF0BEFF5946061C281C0CF0B9FF4A
:101D9000011C301C0CF09BFF391C061C40460497AC
:101DA0000CF0AFFF011C301C0CF091FF0DF02CF873
:101DB0000022684B0BF065FF009A019B0BF061FF5E
:101DC000060048460F000DF01FF802000B0030001F
:101DD0003900169C0BF02EFF0CF058F84946206095
:101DE00003980CF08EFF5946061C40460CF089FF04
:101DF000011C301C0CF06EFF0499061C281C0CF012
:101E000080FF011C301C0CF062FF0CF0FDFF002273
:101E1000504B0BF036FF009A019B0BF032FF06008F
:101E200050460F000CF0F0FF02000B0030003900AC
:101E30000BF000FF0CF02AF849466060281C0CF0FB
:101E400060FF5146061C40460CF05BFF011C301C35
:101E50000CF03DFF0499061C03980CF052FF011C86
:101E6000301C0CF037FF0CF0CFFF0022394B0BF089
:101E700008FF009A019B0BF004FF060058460F0074
:101E80000CF0C2FF02000B00300039000BF0D2FE54
:101E90000BF0FCFF4946A06040460CF032FF514673
:101EA000061C281C0CF02DFF011C301C0CF012FF2E
:101EB0005946051C03980CF024FF011C281C0CF04B
:101EC00006FF0CF0A1FF0022224B0BF0DAFE009A75
:101ED000019B0BF0D6FE060004980F000CF094FF57
:101EE00002000B00300039000BF0A4FE0BF0CEFF17
:101EF000089B0999E060181C98460CF002FF079DAA
:101F0000291C0CF0FEFE011C40460CF0E0FE059F73
:101F10000A992061381C0CF0F4FE291C0CF0F1FE2B
:101F2000011C381C0CF0D3FE069E0B996061301C1E
:101F30000CF0E7FE291C0CF0E4FE011C301C0CF038
:101F4000C6FEA06100200DB0F0BCBB46B246A9465B
:101F5000A046F0BD0000E03FF0B5DE4657464E46D5
:101F600045468A464168E0B58846C768816891B0B1
:101F7000066889464046391C141C04930CF0C1FEC7
:101F80004946051C301C0CF0BCFE0A90011C281CA4
:101F900009950CF09CFE0CF037FF02000B000BF0D3
:101FA00049FE06900791201C02940CF02DFF0B00B7
:101FB000020004000D00069807990BF062FE0BF07A
:101FC00065FF5246391C106048460CF09AFE834665
:101FD0004146301C0CF095FE5A460E90011C5846A6
:101FE0000B920CF077FE0CF00FFF02000B000BF0D1
:101FF00021FE02000B00200029000C920D930BF033
:1020000040FE0BF043FF5446311C6060301C0CF066
:1020100078FE4146041C40460CF073FE051C011C72
:10202000201C0CF054FE4946089048460CF069FE0E
:10203000391C8346381C0CF064FE59460190089800
:102040000CF045FE01990CF045FE02990F900CF042
:1020500058FE53464946986040460CF052FE391CE3
:102060008046301C0CF04DFE81461A980CF0CCFED8
:1020700006001B980F000CF0C7FE02900391291C6C
:10208000201C0CF027FE59460CF021FE01990CF0A3
:102090001EFE04990CF035FE0CF0B6FE04000D0097
:1020A000404649460CF016FE0CF0AEFE02000B0056
:1020B0000BF0C0FD32003B000BF0E3FD02000B0013
:1020C000200029000BF0B6FD029A039B04000D00CE
:1020D000069807990BF0D5FD02000B00200029009F
:1020E0000BF0A8FD0BF0D2FE5346D86004980CF01C
:1020F0008BFE04000D00404649460CF0E8FD0CF054
:1021000083FE02000B000BF095FD22002B000494CF
:1021100005950BF0B6FD04000D00089859460CF02B
:10212000D9FD01990CF0D3FD1A990CF0EAFD0CF0E1
:102130006BFE02000B00200029000BF07BFD029AD1
:10214000039B04000D000C980D990BF09AFD020002
:102150000B00200029000BF06DFD0BF097FE53469D
:102160000A99186109980CF0B5FD0CF04DFE0200BB
:102170000B000BF05FFD049A059B0BF082FD040041
:102180000D000B980E990CF0A2FD0CF03DFE020024
:102190000B000BF04FFD32003B000BF072FD020014
:1021A0000B00200029000BF045FD04000D000F98E6
:1021B0001B990CF0A6FD0CF027FE02000B0020007E
:1021C00029000BF037FD0BF061FE534658610020EB
:1021D00011B0F0BCBB46B246A946A046F0BDC04611
:1021E000F0B50400DE4657464E4645460800E0B5C9
:1021F00045680968AA46856895B0AB46C5684669D2
:10220000876910910E950169556810689268049667
:1022100090461A68069711925A689B681292139317
:10222000FE239B05236099460CF051FD0CF0ECFD5C
:10223000009001911E980CF0E7FD06000F00009839
:1022400001990022924B0BF01CFD32003B000BF079
:1022500018FD0BF01BFE04990390E061281C0CF0A4
:1022600036FD0CF0D1FD0022894B049005910BF056
:1022700008FD32003B000BF004FD0BF007FE069951
:10228000051CA06340460CF022FD0CF0BDFD0022B1
:102290007F4B069007910BF0F4FC32003B000BF0F3
:1022A000F0FC0BF0F3FD0A90606550460CF0ACFDBD
:1022B0000022784B089009910BF0E3FC32003B00C0
:1022C0000BF0DFFC0BF0E2FD0B90206758460CF0A2
:1022D0009BFD00226F4B0C900D910BF0D2FC320055
:1022E0003B000BF0CEFC0BF0D1FD8C238246E0507E
:1022F0000E980CF089FD0022664B0E900F910BF0AA
:10230000C0FC32003B000BF0BCFC0BF0BFFDA8236F
:102310008346E0500022009801995E4B0BF0B1FC1F
:1023200032003B000BF0ADFC0BF0B0FD49460090D5
:1023300060602162002206980799564B0BF0A1FCC1
:1023400032003B000BF09DFC0BF0A0FDA565804624
:10235000E06310980CF058FD00224D4B0BF091FCFF
:1023600032003B000BF08DFC0BF090FD59469023A2
:10237000051C60670022E1500C980D99444B0BF04E
:1023800080FC32003B000BF07CFC0BF07FFDAC23AB
:102390000022E050049805993E4B0BF072FC32008D
:1023A0003B000BF06EFC0BF071FD49460A9A834628
:1023B0006262009AA0602164E2650E980F99002283
:1023C000334B0BF05EFC32003B000BF05AFC0BF081
:1023D0005DFD94230B99A067E5501C33E150414605
:1023E000E1605946A162494621665146039BE16777
:1023F0006364089809990022254B0BF042FC3200D7
:102400003B000BF03EFC0BF041FD9823E0501C33E9
:10241000E55000251E9911982561E562A564656661
:102420000CF06FFC011C48460CF051FC8023E0507E
:102430001C33E5501C33E550343B1E9912986561FE
:102440002563E564A566E5500CF05BFC011C48467D
:102450000CF03DFCA023E0501C33E550343BA5615B
:1024600065632565E566E5501C33E5501E991398B4
:102470000CF047FC011C48460CF029FCC023E0503E
:10248000002015B0F0BCBB46B246A946A046F0BD40
:102490000000E0BF0000E03FF0B5DE4657464E4684
:1024A0004546E0B59A460B68141C8A689B464B6803
:1024B000C9688BB00500101C8846009301920CF08F
:1024C000A3FC02900391201C0CF09EFCC02306008C
:1024D0000F000298039900221B060BF0D2FB32007A
:1024E0003B000BF0CEFB0BF0D1FC0890286040467F
:1024F0000CF08AFC02000B000BF09CFB32003B004E
:102500000BF0BFFB0BF0C2FC041CA86158460CF09A
:102510007BFCC02300221B06049005910BF0B1FB4D
:1025200032003B000BF0ADFB0BF0B0FC28630098D1
:102530000CF06AFC02000B00069007910BF07AFB8E
:1025400032003B000BF09DFB0BF0A0FC0021902320
:102550008946A8642966A967E950686004980599C6
:1025600002000B000BF066FB32003B000BF089FB16
:102570000BF08CFC6C630490E861029803990200F4
:102580000B000BF057FB32003B000BF07AFB0BF01B
:102590007DFC49469423E8646966E967E950C023F5
:1025A00006980799049A1B06AA6000220BF069FBA3
:1025B00032003B000BF065FB0BF068FC089B4946C2
:1025C000AB63802328622C65A966E9501833E95073
:1025D000404614990CF095FB019F1599061C381C78
:1025E0000CF08FFB5146041C58460CF08AFB311C42
:1025F0000CF070FB211C06940CF069FB011C0CF024
:1026000069FB51460990E86000980CF07AFB149938
:10261000041C381C0CF075FB011C201C0CF05AFB30
:102620001599041C40460CF06CFB011C201C0CF09E
:1026300051FB011C0CF04EFB14990290686200984B
:102640000CF05FFB1599089058460CF05AFB019A64
:102650008024944624066444071C514620000CF054
:1026600050FB08990CF036FB391C0CF030FB011CB8
:102670000CF030FB1499E86358460CF042FB1599B6
:10268000049000980CF03DFB802212064244041C8A
:10269000514610000CF035FB04990CF01BFB211C7B
:1026A0000CF018FB011C0CF015FB4A468423EA666B
:1026B0006865EA501833EA505146286101980CF0D9
:1026C00020FB08990CF003FB391C0CF003FB011CE8
:1026D0000CF000FB071CA8628020029B00062B6404
:1026E000514658440CF00DFB311C0CF0F0FA0699E1
:1026F0000CF0F0FA011C0CF0EDFA8823A8654846AE
:102700002867E8501833E850514640466F610CF096
:10271000F8FA04990CF0DBFA211C0CF0D8FA011C31
:102720000CF0D8FA099AE8626A64029B4A46EB65A3
:102730004B466B678C230020EA501833EA500BB0ED
:10274000F0BCBB46B246A946A046F0BD0123F0B599
:10275000E3214746CE469C46294B804605009946D4
:10276000284E80B58900076846444144FA0F6F68D7
:10277000D2077B005B08346813435A086240644602
:102780001C4201D04B465A4004C50436A942EDD143
:10279000E32342469B00C626D458194B01259C468C
:1027A000F6004644E20F4C68D20763005B080768F6
:1027B00013435A087A401D4201D063465A40043000
:1027C00004C1B042EED14246C62140460E4BC9007C
:1027D000D3581268DB0F52005208DB0741581343ED
:1027E0005A084A40DB0701D5054B5A404146064B83
:1027F000CA5000220433CA50C0BCB946B046F0BD2E
:10280000DFB0089934060000BC090000F0B5454669
:10281000DE4657464E46E0B53C4CD723A54434AA85
:10282000944663441B091B018A6805930B68019257
:1028300037921A6804902D929A6933912E921A6BEE
:1028400038AC2F929A6C30921A6E06929A6F089258
:1028500090229A5807925A680A92DA690B925A6B38
:102860000C92DA6C0D925A6E0E92DA6F0F929422DD
:102870009A5810929A6811921A6A12929A6B13924D
:102880001A6D14929A6E159280229A581692982276
:102890009A581792DA6818925A6A1992DA6B1A9251
:1028A0005A6D1B92DA6E1C9284229A581D929C22B9
:1028B0009A581E921A691F929A6A20921A6C219253
:1028C0009A6D22921A6F239288229A582492A022FB
:1028D0009A5825925A692692DA6A27925A6C289257
:1028E000DA6D29925A6F2A928C229A582B92A4223E
:1028F0009B582C934B68984638AB3293C42343447F
:1029000009934346A0461C0002E0C0469CFDFFFF21
:10291000E168A26889462169236848460391309995
:10292000029201930CF0EDF90399824606980CF09F
:10293000E8F9011C50460CF0CDF967698246391C54
:1029400008980CF0DEF9A6698346311C07980CF054
:10295000D8F9011C58460CF0BDF9011C50460CF08A
:10296000B9F9656882462E99281C0CF0CAF92F998E
:10297000834602980CF0C5F9011C58460CF0AAF9E0
:102980002D99834601980CF0BCF9011C58460CF0B7
:10299000A1F9011C50460CF09DF9434649461860C8
:1029A0000D980CF0AEF9039982460E980CF0A9F937
:1029B000011C50460CF08EF9391C82460F980CF021
:1029C000A0F9311C834610980CF09BF9011C584665
:1029D0000CF080F9011C50460CF07CF9291C824651
:1029E0000B980CF08EF9029983460C980CF089F93B
:1029F000011C58460CF06EF9019983460A980CF0B8
:102A000080F9011C58460CF065F9011C50460CF089
:102A100061F943464946586014980CF072F90399DD
:102A2000824615980CF06DF9011C50460CF052F9D5
:102A3000391C824616980CF064F9311C83461798AD
:102A40000CF05FF9011C58460CF044F9011C50468B
:102A50000CF040F9291C824612980CF052F90299A8
:102A6000834613980CF04DF9011C58460CF032F9CE
:102A70000199834611980CF044F9011C58460CF05A
:102A800029F9011C50460CF025F943464946986047
:102A90001B980CF036F9039982461C980CF031F91A
:102AA000011C50460CF016F9391C82461D980CF09A
:102AB00028F9311C83461E980CF023F9011C584656
:102AC0000CF008F9011C50460CF004F9291C824650
:102AD00019980CF016F9029983461A980CF011F91E
:102AE000011C58460CF0F6F80199834618980CF032
:102AF00008F9011C58460CF0EDF8011C50460CF08A
:102B0000E9F843464946D86022980CF0FAF8039950
:102B1000824623980CF0F5F8011C50460CF0DAF8C8
:102B2000391C824624980CF0ECF8311C8346259819
:102B30000CF0E7F8011C58460CF0CCF8011C50468C
:102B40000CF0C8F8291C824620980CF0DAF802999B
:102B5000834621980CF0D5F8011C58460CF0BAF8C1
:102B6000019983461F980CF0CCF8011C58460CF0D4
:102B7000B1F8011C50460CF0ADF8434649461861C7
:102B800029980CF0BEF8039981462A980CF0B9F800
:102B9000011C48460CF09EF8391C81462B980CF01D
:102BA000B0F8311C071C2C980CF0ABF8011C381C39
:102BB0000CF090F8011C48460CF08CF8291C061CFF
:102BC00027980CF09EF80299051C28980CF099F8AB
:102BD000011C281C0CF07EF80199051C26980CF0AD
:102BE00090F8011C281C0CF075F8011C301C0CF02E
:102BF00071F84346586118239C46099B1C34E044F5
:102C0000A34200D084E6379B1A68629308929A69BF
:102C100009921A6B0A929A6C0B921A6E0C929A6F26
:102C20000D9290229A580E925A680F92DA69109279
:102C30005A6B1192DA6C12925A6E1392DA6F1492E6
:102C400094229A5815929A6816921A6A17929A6B59
:102C500018921A6D19929A6E1A9280229A581B92A3
:102C600098229A581C92DA681D925A6A1E92DA6B60
:102C70001F925A6D2092DA6E219284229A582292E3
:102C80009C229A5823921A6924929A6A25921A6C65
:102C900026929A6D059C27921A6F203428928822DA
:102CA0009A58A1462992A0229A582A925A692B92A0
:102CB000DA6A2C925A6C2D92DA6D2E925A6F2F92FC
:102CC0008C229A583092A4229B5831935CAB069385
:102CD0003EAB0793329B98464346424641464046A8
:102CE0001B6895690193069B146B096E926C40CB2F
:102CF000876F0291101C0B99039206930CF001F858
:102D00000C99824602980BF0FCFF011C50460BF018
:102D1000E1FF0D998246381C0BF0F3FF0E998346B4
:102D2000301C0BF0EEFF011C58460BF0D3FF011CCA
:102D300050460BF0CFFF09998246281C0BF0E1FFAB
:102D40000A998346201C0BF0DCFF011C58460BF04F
:102D5000C1FF0899834601980BF0D3FF011C584628
:102D60000BF0B8FF011C50460BF0B4FF4B46129914
:102D7000186003980BF0C5FF1399824602980BF078
:102D8000C0FF011C50460BF0A5FF14998246381C69
:102D90000BF0B7FF15998346301C0BF0B2FF011CF6
:102DA00058460BF097FF011C50460BF093FF10990B
:102DB0008246281C0BF0A5FF11998346201C0BF0BE
:102DC000A0FF011C58460BF085FF0F998346019820
:102DD0000BF097FF011C58460BF07CFF011C50467E
:102DE0000BF078FF4B461999586003980BF089FF58
:102DF0001A99824602980BF084FF011C50460BF092
:102E000069FF1B998246381C0BF07BFF1C99834697
:102E1000301C0BF076FF011C58460BF05BFF011CC9
:102E200050460BF057FF17998246281C0BF069FF9C
:102E300018998346201C0BF064FF011C58460BF0C8
:102E400049FF1699834601980BF05BFF011C584619
:102E50000BF040FF011C50460BF03CFF4B46209905
:102E6000986003980BF04DFF2199824602980BF071
:102E700048FF011C50460BF02DFF22998246381C5A
:102E80000BF03FFF23998346301C0BF03AFF011CE7
:102E900058460BF01FFF011C50460BF01BFF1E99FC
:102EA0008246281C0BF02DFF1F998346201C0BF037
:102EB00028FF011C58460BF00DFF1D998346019811
:102EC0000BF01FFF011C58460BF004FF011C50467D
:102ED0000BF000FF4B462799D86003980BF011FFC9
:102EE0002899824602980BF00CFF011C50460BF00B
:102EF000F1FE29998246381C0BF003FF2A9983467C
:102F0000301C0BF0FEFE011C58460BF0E3FE011CCA
:102F100050460BF0DFFE25998246281C0BF0F1FE8F
:102F200026998346201C0BF0ECFE011C58460BF042
:102F3000D1FE2499834601980BF0E3FE011C58460C
:102F40000BF0C8FE011C50460BF0C4FE4B462E99F8
:102F5000186103980BF0D5FE2F99824602980BF06A
:102F6000D0FE011C50460BF0B5FE30998246381C4D
:102F70000BF0C7FE3199071C301C0BF0C2FE011C80
:102F8000381C0BF0A7FE011C50460BF0A3FE2C9939
:102F9000061C281C0BF0B5FE2D99051C201C0BF0FF
:102FA000B0FE011C281C0BF095FE2B99041C019807
:102FB0000BF0A7FE011C201C0BF08CFE011C301C2A
:102FC0000BF088FE4B46586104239C461433E044C2
:102FD0009C46079BE144434500D07DE6339B059D1D
:102FE000DC68296A20680BF075FE049EA96B3060CE
:102FF00060680BF06FFE7060A068296D0BF06AFED0
:10300000B060E068A96E0BF065FE8023F060206977
:10301000E95898460BF05EFE98233061E9586069E4
:103020000BF058FE7061A069696A0BF053FEB06145
:10303000E069E96B0BF04EFEF061206A696D0BF000
:1030400049FE3062E96E606A0BF044FE84277062CC
:10305000A06AE9590BF03EFE9C23B062E958E06A91
:103060000BF038FEF062206BA96A0BF033FE306380
:10307000606B296C0BF02EFE7063A06BA96D0BF0DA
:1030800029FEB063E06B296F0BF024FEF063882605
:10309000206CA9590BF01EFE049B1864A023606CE1
:1030A000E9580BF017FE049BE96A5864A06C0BF01A
:1030B00011FE049B696C9864E06C0BF00BFE049BA2
:1030C000E96DD864206D0BF005FE049B696F1865EF
:1030D000606D0BF0FFFD8C25049A059B5065A06D7B
:1030E00059590BF0F7FDA423049A9065059AE06DF9
:1030F000D1580BF0EFFD049B059AD865116B206E3B
:103100000BF0E8FD049B059A1866916C606E0BF05D
:10311000E1FD049B059A5866A06E116E0BF0DAFD76
:10312000049B059A9866E06E916F0BF0D3FD049BAB
:10313000059AD8669023206FD1580BF0CBFD049BE5
:10314000059A1867A823606FD1580BF0C3FD049B44
:10315000059A5867A16F506B0BF0BCFD049B059A54
:103160009867E16FD06C0BF0B5FD4146049B059A62
:10317000D8676158506E0BF0ADFD4146049B059A2F
:103180005850E159D06F0BF0A5FD049BD851942302
:10319000059FA159F8580BF09DFD049B9851AC2355
:1031A0006159F8580BF096FD049B585199239B00E8
:1031B0009D44F0BCBB46B246A946A046F0BDC04601
:1031C000F0B5DE4657464E4645460400E0B5436836
:1031D00087B05800A3684008590049080BF07AFDF1
:1031E0002368590049080BF075FD2369051C580038
:1031F00063694008590049080BF06CFDE368590009
:1032000049080BF067FD011C281C0BF063FDE36906
:10321000051C5800236A4008590049080BF05AFD64
:10322000A369590049080BF055FDA36A061C580014
:10323000E36A4008590049080BF04CFD636A5900E5
:1032400049080BF047FD011C301C0BF043FD636B7C
:10325000071C5800A36B4008590049080BF03AFDC1
:10326000236B590049080BF035FD236C061C5800F0
:10327000636C4008590049080BF02CFDE36B5900C2
:1032800049080BF027FD011C301C0BF023FD061C28
:10329000011C381C0BF06CFD002800D13E1C311CB9
:1032A000281C0BF065FD002800D12E1CE36C580093
:1032B000236D4008590049080BF00CFDA36C590020
:1032C00049080BF007FDA36D051C5800E36D40088D
:1032D000590049080BF0FEFC636D590049080BF0DA
:1032E000F9FC011C281C0BF0F5FC636E071C580050
:1032F000A36E4008590049080BF0ECFC236E5900FE
:1033000049080BF0E7FC236F051C5800636F400869
:10331000590049080BF0DEFCE36E590049080BF038
:10332000D9FC011C281C0BF0D5FCE36F804658002B
:103330008023E1584008490049080BF0CBFCA36FFB
:10334000590049080BF0C6FC8823051CE0580433DB
:10335000E15840004900490840080BF0BBFC8423B9
:10336000E158490049080BF0B5FC011C281C0BF082
:10337000B1FC051C011C40460BF0FAFC002800D1F2
:103380004546291C381C0BF0F3FC002800D13D1CDD
:10339000291C301C0BF0ECFC002800D1351CC0238C
:1033A0002100E55001AABA3B02A8A8310493029477
:1033B000FDF7F4F90121C422019B98260B405B42E2
:1033C0008B430133A354343A9246002250469C2743
:1033D00022509432A1509346923AA2510132E251C6
:1033E0009D32944660469C3A2250A03291469F3AC4
:1033F00090464A4640462300A05048461832A258FC
:10340000903392009A181568255040461060604627
:10341000B8222058A2588046604692009A18156833
:10342000255040461060B422E059A25884469200CC
:103430009A1810685D46E05160461060B022A258AC
:10344000A75992009A181068A0511760AC225846EC
:10345000A258265892009A18106860511660A82247
:10346000A258554692009B1852461868A2586051BF
:103470001A60C523E15407B0F0BCBB46B246A9466A
:10348000A046F0BDC023002210B5C2500022043374
:10349000C2520B68040003604B6843608B68836012
:1034A000CB68C3600B6903614B6943618B698361BE
:1034B000CB69C3610B6A03624B6A43628B6A8362A6
:1034C000CB6AC3620B6B03634B6B43638B6B83638E
:1034D000CB6BC3630B6C03644B6C43648B6C836476
:1034E000CB6CC3640B6D03654B6D43658B6D83655E
:1034F000CB6DC3650B6E03664B6E43668B6E836646
:10350000CB6EC3660B6F03674B6F43678B6F83672D
:10351000CB6FC3678023CA58C2500433CA58C25005
:103520000433CA58C2500433CA58C250FFF748FE89
:10353000200010BDF0B5DE464E4645465746E0B584
:10354000214C9146A5443AAA94460A0031931F4B58
:103550003B9063441B091B013A919846D3AB13CAB5
:1035600013C313CA13C31268D3A91A60184B194A9C
:103570001B6847A80493184B47AC1B680193174B73
:103580001B6805930093049BFEF786FF47ABD3931C
:103590004B46D49347ABD5933AAA832394468620CF
:1035A0001B0163441B68C0004044A2AAD3A9D69360
:1035B0000990FFF72BF96BAB089343460A934B46F0
:1035C0003094A1461C000BE014F7FFFF47030000F6
:1035D000742003200AE81C416C2003207020032083
:1035E0004B464E461B68B76F0793089B494640CB36
:1035F00048464A460893A823896C006E9569126B69
:1036000005910690E158301C04920BF07AFB8C2354
:103610008246E158381C0BF074FB011C50460BF03D
:1036200059FB216F824606980BF06BFB616D834658
:1036300005980BF066FB011C58460BF04BFB011C78
:1036400050460BF047FBA16B824604980BF059FBE8
:10365000E1698346281C0BF054FB011C58460BF013
:1036600039FB2168834607980BF04BFB011C584639
:103670000BF030FB011C50460BF02CFB434618604E
:10368000AC23301CE1580BF03CFB90238246E15800
:10369000381C0BF036FB011C50460BF01BFB616F16
:1036A000824606980BF02DFBA16D834605980BF022
:1036B00028FB011C58460BF00DFB011C50460BF07B
:1036C00009FBE16B824604980BF01BFB216A8346E1
:1036D000281C0BF016FB011C58460BF0FBFA616826
:1036E000834607980BF00DFB011C58460BF0F2FACD
:1036F000011C50460BF0EEFA43465860B023301CD4
:10370000E1580BF0FEFA94238246E158381C0BF086
:10371000F8FA011C50460BF0DDFAA16F82460698BC
:103720000BF0EFFAE16D834605980BF0EAFA011C05
:1037300058460BF0CFFA011C50460BF0CBFA216C27
:10374000824604980BF0DDFA616A8346281C0BF070
:10375000D8FA011C58460BF0BDFAA16883460798B9
:103760000BF0CFFA011C58460BF0B4FA011C50467E
:103770000BF0B0FA43469860B423301CE1580BF0CC
:10378000C0FA98238246E158381C0BF0BAFA011CA3
:1037900050460BF09FFAE16F824606980BF0B1FAA3
:1037A000216E834605980BF0ACFA011C58460BF0CD
:1037B00091FA011C50460BF08DFA616C8246049818
:1037C0000BF09FFAA16A8346281C0BF09AFA011CA1
:1037D00058460BF07FFAE168834607980BF091FAA0
:1037E000011C58460BF076FA011C50460BF072FA99
:1037F0004346D860B823301CE1580BF082FA9C2372
:103800008246E158381C0BF07CFA011C50460BF044
:1038100061FA80238246E15806980BF072FA616ED5
:10382000834605980BF06DFA011C58460BF052FACE
:10383000011C50460BF04EFAA16C824604980BF026
:1038400060FAE16A8346281C0BF05BFA011C5846BB
:103850000BF040FA2169834607980BF052FA011CDD
:1038600058460BF037FA011C50460BF033FA43462A
:103870001861BC23301CE1580BF043FAA0238246A8
:10388000E158381C0BF03DFA011C50460BF022FAAF
:1038900084238246E15806980BF033FAA16E8346E2
:1038A00005980BF02EFA011C58460BF013FA011C78
:1038B00050460BF00FFAE16C824604980BF021FAA7
:1038C000216B8346281C0BF01CFA011C58460BF098
:1038D00001FA6169834607980BF013FA011C5846F8
:1038E0000BF0F8F9011C50460BF0F4F94346E16E79
:1038F000586105980BF005FA88238246E15806982E
:103900000BF0FFF9011C50460BF0E4F9A4238246AA
:10391000E158381C0BF0F5F9C023071CE158301CA6
:103920000BF0EFF9011C381C0BF0D4F9011C5046C8
:103930000BF0D0F9616B061C281C0BF0E2F9216D2D
:10394000051C04980BF0DDF9011C281C0BF0C2F9D2
:10395000A169051C07980BF0D4F9011C281C0BF079
:10396000B9F9011C301C0BF0B5F9434698610423EA
:103970009C461833E1449C464DABE044994500D049
:103980002EE60A9BA146D8249846A427A4004444C6
:10399000BF00474420000999FFF774FD21009022E1
:1039A0003800C8240BF034FBFC21A40044448900F7
:1039B0004144182220000BF02BFBCE2081218000F7
:1039C000C9004144182240440BF022FB8422D42336
:1039D000D200424412689B0043441A60D523874AB0
:1039E0004546424412889B004344FE211A8000232E
:1039F0002268B0359200AA1889051160936113639B
:103A0000936413669367C922920042441268444645
:103A10009200AA181360916113639364136693670D
:103A2000CA2292004244126806269200AA18136025
:103A300093611163936413669367CB2292004244AF
:103A4000126806209200AA181360936113639164B0
:103A500013669367CC229200424412689200AA181F
:103A6000136093611363936411669367CD22920090
:103A7000424412689200AA1813609361136393641E
:103A80001366A8235B009B46916742465946E4189B
:103A900020334344A660E6602661535080229200A2
:103AA00042444B396260924604933A0006230294E2
:103AB000FF3901960095FDF7DFFA42465946049B0F
:103AC000A660E6602661535053464B3963603A0066
:103AD00006230294062001960095FF39FDF7D0FDDC
:103AE00043461B688C2206934346DB69D3AC07939D
:103AF00043469B6B089343465B6D099343461B6F9C
:103B00000A9343469B5804320B9343465B680C93DD
:103B100043461B6A0D934346DB6B0E9343469B6DF6
:103B20000F9343465B6F109343469B5804321193A7
:103B300043469B68129343465B6A139343461B6C50
:103B400014934346DB6D159343469B6F1693434690
:103B50009B58043217934346DB68189343469B6A8D
:103B6000199343465B6C1A9343461B6E1B93434663
:103B7000DB6F1C9343469B58183A1D9343461B69C1
:103B80001E934346DB6A1F9343469B6C2093434638
:103B90005B6E219343469B581C32229343469B58AD
:103BA000183A239343465B69249343461B6B259342
:103BB0004346DB6C269343469B6E279343469B58B4
:103BC0001C32289343469B58183A299343469B69D5
:103BD0002A9343465B6B2B9343461B6D2C934346C2
:103BE000DB6E2D9343469B581C322E9343469B58C5
:103BF000A8462F934B46329302E0C04624040000AF
:103C000043461F685B6842469946434641469B6867
:103C1000D2680E694D6907984946049305920BF0E6
:103C200070F80499824608980BF06BF8011C504616
:103C30000BF050F8391C824606980BF062F8011C14
:103C400050460BF047F8311C82460A980BF059F8A1
:103C5000291C83460B980BF054F8011C58460BF0B6
:103C600039F80599834609980BF04BF8011C584622
:103C70000BF030F8011C50460BF02CF84946206040
:103C80000D980BF03EF8049982460E980BF039F827
:103C9000011C50460BF01EF8391C82460C980BF0A4
:103CA00030F8011C50460BF015F8311C8246109874
:103CB0000BF027F8291C834611980BF022F8011C01
:103CC00058460BF007F8059983460F980BF019F842
:103CD000011C58460AF0FEFF011C50460AF0FAFF8C
:103CE0004946606013980BF00CF8049982461498CA
:103CF0000BF007F8011C50460AF0ECFF391C824615
:103D000012980AF0FEFF011C50460AF0E3FF311C36
:103D1000824616980AF0F5FF291C834617980AF088
:103D2000F0FF011C58460AF0D5FF05998346159807
:103D30000AF0E7FF011C58460AF0CCFF011C504670
:103D40000AF0C8FF4946A06019980AF0DAFF049902
:103D500082461A980AF0D5FF011C50460AF0BAFFB5
:103D6000391C824618980AF0CCFF011C50460AF014
:103D7000B1FF311C82461C980AF0C3FF291C834600
:103D80001D980AF0BEFF011C58460AF0A3FF0599D2
:103D900083461B980AF0B5FF011C58460AF09AFFAB
:103DA000011C50460AF096FF4946E0601F980AF051
:103DB000A8FF0499824620980AF0A3FF011C5046F0
:103DC0000AF088FF391C82461E980AF09AFF011CEF
:103DD00050460AF07FFF311C824622980AF091FF7C
:103DE000291C834623980AF08CFF011C58460AF0D0
:103DF00071FF0599834621980AF083FF011C5846FC
:103E00000AF068FF011C50460AF064FF4946206131
:103E100025980AF076FF0499824626980AF071FFE9
:103E2000011C50460AF056FF391C824624980AF0BD
:103E300068FF011C50460AF04DFF311C824628984D
:103E40000AF05FFF291C834629980AF05AFF011CDB
:103E500058460AF03FFF0599834627980AF051FF1C
:103E6000011C58460AF036FF011C50460AF032FF8A
:103E7000494660612B980AF044FF049981462C98CA
:103E80000AF03FFF011C48460AF024FF391C814616
:103E90002A980AF036FF011C48460AF01BFF311C25
:103EA000071C2E980AF02DFF291C061C2F980AF0DB
:103EB00028FF011C301C0AF00DFF0599051C2D98E8
:103EC0000AF01FFF011C281C0AF004FF011C381C0B
:103ED0000AF000FF18239C46A061FDAB1C34E044AF
:103EE000A34200D08CE6329BD49A9946D39BD599B5
:103EF000D69CD79DD89ED99F06930792DA9BDB9AD2
:103F000008910994DC99DD9C0A950B96DE9DDF9E55
:103F10000C970D93E09FE19B0E92E29A0F91109403
:103F200011951296139714931592E399E49CE59DCD
:103F3000E69EE79FE89BE99A16911794EA99EB9C15
:103F400018951996EC9DED9E1A971B93EE9FEF9B8B
:103F50001C921D91F09AF1991E94F29C2096219743
:103F600022932392249125941F95F39DF49EF59F0F
:103F7000F79AF69BF899F99C26952796FA9DFB9E51
:103F80002897FC9F2A923A9A29932B912C942D954D
:103F90002E962F97D3AB32CA32C332CA32C31168BE
:103FA000D3AC1960FD49FE4B09681B680191FD49BE
:103FB000FD4A09682000009141A9FDF7CDFF319F1E
:103FC000419938680AF083FE4299834678680AF07E
:103FD0007EFE43998246B8680AF079FE4499041C33
:103FE000F8680AF074FE4599051C38690AF06FFEFE
:103FF0004699061C78690AF06AFE071C011C2A987B
:104000000AF07FFE311C804623980AF07AFE011CDC
:1040100040460AF05FFE291C80461C980AF071FE9B
:10402000011C40460AF056FE211C804615980AF0F5
:1040300068FE514604900E980AF063FE011C049835
:104040000AF048FE5946049007980AF05AFE011CEF
:1040500004980AF03FFE011C40460AF03BFE3A9AE3
:1040600051680AF037FE391C04902B980AF049FE7B
:10407000311C804624980AF044FE011C40460AF098
:1040800029FE291C80461D980AF03BFE011C404673
:104090000AF020FE211C804616980AF032FE514696
:1040A00005900F980AF02DFE011C05980AF012FEEB
:1040B0005946059008980AF024FE011C05980AF05C
:1040C00009FE011C40460AF005FE3A9A91680AF082
:1040D00001FE391C05902C980AF013FE311C804615
:1040E00025980AF00EFE011C40460AF0F3FD291C3B
:1040F00080461E980AF005FE011C40460AF0EAFDC3
:10410000211C804617980AF0FCFD5146319010980A
:104110000AF0F7FD011C31980AF0DCFD5946319098
:1041200009980AF0EEFD011C31980AF0D3FD011C3C
:1041300040460AF0CFFD3A9AD1680AF0CBFD391C0F
:1041400031902D980AF0DDFD311C804626980AF04A
:10415000D8FD011C40460AF0BDFD291C80461F9871
:104160000AF0CFFD011C40460AF0B4FD211C804638
:1041700018980AF0C6FD5146329011980AF0C1FD18
:10418000011C32980AF0A6FD594632900A980AF0AE
:10419000B8FD011C32980AF09DFD011C40460AF052
:1041A00099FD3A9A11690AF095FD391C32902E98C2
:1041B0000AF0A7FD311C804627980AF0A2FD011CD9
:1041C00040460AF087FD291C804620980AF099FD98
:1041D000011C40460AF07EFD211C804619980AF019
:1041E00090FD5146339012980AF08BFD011C3398D4
:1041F0000AF070FD594633900B980AF082FD011CBD
:1042000033980AF067FD011C40460AF063FD3A9AB4
:1042100051690AF05FFD5146339013980AF071FD21
:10422000211C80461A980AF06CFD011C40460AF0D9
:1042300051FD594680460C980AF063FD011C40462A
:104240000AF048FD311C804628980AF05AFD391CB6
:1042500034902F980AF055FD011C34980AF03AFD6D
:10426000291C349021980AF04CFD011C34980AF066
:1042700031FD011C40460AF02DFD3A9A91690AF081
:1042800029FD391C804629980AF03BFD311C071C8A
:1042900022980AF036FD011C381C0AF01BFD291C6F
:1042A000061C1B980AF02DFD011C301C0AF012FDA3
:1042B000211C051C14980AF024FD5146041C0D987D
:1042C0000AF01FFD011C201C0AF004FD5946041CC5
:1042D00006980AF016FD011C201C0AF0FBFC011CCC
:1042E000281C0AF0F7FC3A9AD3AC11680AF0F2FCE9
:1042F0003B9B049A18605A60059A9A60319ADA607A
:10430000329A1A61339A5A6142469A614B461B6847
:104310004A46A2934B465B68A3934B469B68A49383
:104320004B46DB68A5934B461B69A6934B465B69DE
:10433000A7934B469B69A8934B46DB69A9934B46D1
:104340001B6AAA934B465B6AAB934B469B6AAC9342
:104350004B46DB6AAD934B461B6BAE934B465B6B98
:10436000AF934B469B6BB0934B46DB6BB1934B4685
:104370001B6CB2934B465B6CB3934B469B6CB493F4
:104380004B46DB6CB5934B461B6DB6934B465B6D52
:10439000B7934B469B6DB8934B4607E06C200320C8
:1043A00074200320702003200AE81C41DB6DB993C0
:1043B0004B461B6EBA934B465B6EBB934B469B6E54
:1043C000BC934B46DB6EBD934B461B6FBE934B4677
:1043D0005B6FBF934B469B6FC0934B46DB6FC193A4
:1043E0008023D358C2938423D358C3938823D358AC
:1043F000C4938C23D358C5939023D358C693942346
:10440000D358C7939823D358C8939C23D358C993A0
:10441000A023D358CA93A423D358CB93A823D3580B
:10442000CC93AC23D358CD93B023D358CE93B4239D
:10443000D358CF93B823D358D093BC23D358D19318
:10444000C023D358D293309B3092984643461F687E
:104450005B6842469946434641469B68D2680E696E
:104460004D690D984946049305920AF04AFC049957
:10447000824614980AF045FC011C50460AF02AFCBA
:10448000391C824606980AF03CFC011C50460AF092
:1044900021FC311C824622980AF033FC291C8346F9
:1044A00029980AF02EFC011C58460AF013FC0599C5
:1044B00083461B980AF025FC011C58460AF00AFCAA
:1044C000011C50460AF006FC494620600E980AF08E
:1044D00018FC0499824615980AF013FC011C5046FA
:1044E0000AF0F8FB391C824607980AF00AFC011C06
:1044F00050460AF0EFFB311C824623980AF001FC7B
:10450000291C83462A980AF0FCFB011C58460AF035
:10451000E1FB059983461C980AF0F3FB011C584601
:104520000AF0D8FB011C50460AF0D4FB49466060F3
:104530000F980AF0E6FB0499824616980AF0E1FB10
:10454000011C50460AF0C6FB391C824608980AF046
:10455000D8FB011C50460AF0BDFB311C8246249852
:104560000AF0CFFB291C83462B980AF0CAFB011CDA
:1045700058460AF0AFFB059983461D980AF0C1FB27
:10458000011C58460AF0A6FB011C50460AF0A2FB8B
:104590004946A06010980AF0B4FB04998246179827
:1045A0000AF0AFFB011C50460AF094FB391C82460E
:1045B00009980AF0A6FB011C50460AF08BFB311C3F
:1045C000824625980AF09DFB291C83462C980AF008
:1045D00098FB011C58460AF07DFB059983461E98FE
:1045E0000AF08FFB011C58460AF074FB011C504670
:1045F0000AF070FB4946E06011980AF082FB0499CA
:10460000824618980AF07DFB011C50460AF062FBB6
:10461000391C82460A980AF074FB011C50460AF0C5
:1046200059FB311C824626980AF06BFB291C8346F5
:104630002D980AF066FB011C58460AF04BFB0599C1
:1046400083461F980AF05DFB011C58460AF042FBA6
:10465000011C50460AF03EFB4946206112980AF0C0
:1046600050FB0499824619980AF04BFB011C5046F6
:104670000AF030FB391C82460B980AF042FB011C01
:1046800050460AF027FB311C824627980AF039FB76
:10469000291C83462E980AF034FB011C58460AF068
:1046A00019FB0599834620980AF02BFB011C5846FC
:1046B0000AF010FB011C50460AF00CFB49466061F1
:1046C00013980AF01EFB049981461A980AF019FB08
:1046D000011C48460AF0FEFA391C81460C980AF083
:1046E00010FB011C48460AF0F5FA311C071C2898FB
:1046F0000AF007FB291C061C2F980AF002FB011C7C
:10470000301C0AF0E7FA0599051C21980AF0F9FA1D
:10471000011C281C0AF0DEFA011C381C0AF0DAFA27
:1047200018239C46FFABA06114331C34E044A34221
:1047300000D08BE6309BA2AD99463C93C4234C46F7
:10474000C8464B44089307944246D26843464146C4
:10475000914642469E694C68096892685F691B6988
:104760000491301CFD99069305920AF0CAFAF69955
:104770008246381C0AF0C5FA011C50460AF0AAFA13
:10478000EF99824606980AF0BCFAE89983464846B3
:104790000AF0B7FA011C58460AF09CFA011C504670
:1047A0000AF098FAE199824605980AF0AAFADA998D
:1047B0008346201C0AF0A5FA011C58460AF08AFA22
:1047C000D399834604980AF09CFA011C58460AF0D3
:1047D00081FA011C50460AF07DFA011C28680AF093
:1047E00076FA2860FE99301C0AF08BFAF799824617
:1047F000381C0AF086FA011C50460AF06BFAF09950
:10480000824606980AF07DFAE999834648460AF0FE
:1048100078FA011C58460AF05DFA011C50460AF06D
:1048200059FAE299824605980AF06BFADB998346B9
:10483000201C0AF066FA011C58460AF04BFAD4997B
:10484000834604980AF05DFA011C58460AF042FAC1
:10485000011C50460AF03EFA011C68680AF037FA5B
:10486000FF996860301C0AF04CFAF8998246381CAF
:104870000AF047FA011C50460AF02CFAF1998246D8
:1048800006980AF03EFAEA99834648460AF039FA51
:10489000011C58460AF01EFA011C50460AF01AFA8A
:1048A000E399824605980AF02CFADC998346201C8D
:1048B0000AF027FA011C58460AF00CFAD5998346EB
:1048C00004980AF01EFA011C58460AF003FA011C6B
:1048D00050460AF0FFF9011CA8680AF0F8F9FFAB8E
:1048E0005968A860301C04330AF00BFAF999824623
:1048F000381C0AF006FA011C50460AF0EBF9F2994E
:10490000824606980AF0FDF9EB99834648460AF07C
:10491000F8F9011C58460AF0DDF9011C50460AF06E
:10492000D9F9E499824605980AF0EBF9DD998346B6
:10493000201C0AF0E6F9011C58460AF0CBF9D6997A
:10494000834604980AF0DDF9011C58460AF0C2F9C2
:10495000011C50460AF0BEF9011CE8680AF0B7F9DC
:10496000FFAB9968E860301C08330AF0CAF9FA997D
:104970008246381C0AF0C5F9011C50460AF0AAF913
:10498000F399824606980AF0BCF9EC9983464846AA
:104990000AF0B7F9011C58460AF09CF9011C504670
:1049A0000AF098F9E599824605980AF0AAF9DE9985
:1049B0008346201C0AF0A5F9011C58460AF08AF922
:1049C000D799834604980AF09CF9011C58460AF0CE
:1049D00081F9011C50460AF07DF9011C28690AF092
:1049E00076F9FFABD9682861301C0C330AF089F9DD
:1049F000FB998246381C0AF084F9011C50460AF0E3
:104A000069F9F499824606980AF07BF9ED99834694
:104A100048460AF076F9011C58460AF05BF9011C79
:104A200050460AF057F9E699824605980AF069F966
:104A3000DF998346201C0AF064F9011C58460AF0ED
:104A400049F9D899834604980AF05BF9011C584645
:104A50000AF040F9011C50460AF03CF9011C686953
:104A60000AF035F9EE99686148460AF04AF9F59975
:104A7000814606980AF045F9011C48460AF02AF9D1
:104A8000FC998146381C0AF03CF9FFAB1969071CF8
:104A9000301C10330AF035F9011C381C0AF01AF9E1
:104AA000011C48460AF016F9E099061C201C0AF081
:104AB00028F9E799041C05980AF023F9011C201C29
:104AC0000AF008F9D999041C04980AF01AF9011C93
:104AD000201C0AF0FFF8011C301C0AF0FBF8011C36
:104AE000A8690AF0F4F81C239C46089BE044A861DE
:104AF0001C35984500D027E6079BA29A99461A6074
:104B0000A39A5A60A49A9A60A59ADA60A69A1A6142
:104B1000A79A5A61A89A9A61A99ADA61AA9A1A621E
:104B2000AB9A5A62AC9A9A62AD9ADA62AE9A1A63FA
:104B3000AF9A5A63B09A9A63B19ADA63B29A1A64D6
:104B4000B39A5A64B49A9A64B59ADA64B69A1A65B2
:104B5000B79A5A65B89A9A65B99ADA65BA9A1A668E
:104B6000BB9A5A66BC9A9A66BD9ADA66BE9A1A676A
:104B7000BF9A5A67C09A9A67C19ADA674A468023F1
:104B8000C299D150C3990433D150C4990433D15040
:104B9000C5990433D150C6990433D150C799043311
:104BA000D150C8990433D150C9990433D150CA990E
:104BB0000433D150CB990433D150CC990433D15024
:104BC000CD990433D150CE990433D150CF990433C9
:104BD000D150D0990433D150D1990433D150D299C6
:104BE0000433D1503AAA9446504BA2AA63441B689E
:104BF00013CB13C24E4BD3AC63441B6807CB07C423
:104C00003A9B3B9D00934B4B28006344A2A91B6831
:104C1000D3AAFDF77FF82B00D3AA23CB23C213CB53
:104C200013C23AA91B688C4613603EAA11003F4B81
:104C300063441B6831CB31C13D4BA2A963441B685F
:104C400031CB31C13B4BD3A963441B6871A800939E
:104C5000A2ABFDF7C5FAD3AB1C000793719BA0462E
:104C60000993789B10937F9B1793869B1E938D9B34
:104C70002593949B2C939B9B3393729B0A93799BD4
:104C80001193809B1893879B1F938E9B2693959BD4
:104C90002D939C9B3493739B0B937A9B1293819BD4
:104CA0001993889B20938F9B2793969B2E939D9B74
:104CB0003593749B0C937B9B1393829B1A93899BD4
:104CC0002193909B2893979B2F939E9B3693759B44
:104CD0000D937C9B1493839B1B938A9B2293919BA4
:104CE0002993989B30939F9B3793769B0E937D9B44
:104CF0001593849B1C938B9B2393929B2A93999B44
:104D00003193A09B3893779B0F937E9B1693859B43
:104D10001D938C9B2493939B2B939A9B3293A19BE3
:104D200039934B463D933C9B994605E0280800008B
:104D3000380800003C080000484649464A464B46B1
:104D4000866909691B6855689468D2684769069145
:104D50003398311C0592049309F0D3FF391C824625
:104D60002C9809F0CEFF011C504609F0B3FF0699BC
:104D70008246259809F0C5FF059983461E9809F0DB
:104D8000C0FF011C584609F0A5FF011C504609F060
:104D9000A1FF211C8246179809F0B3FF291C834606
:104DA000109809F0AEFF011C584609F093FF0499D2
:104DB0008346099809F0A5FF011C584609F08AFFAF
:104DC000011C504609F086FF4346311C1860349898
:104DD00009F097FF391C82462D9809F092FF011CBB
:104DE000504609F077FF06998246269809F089FF18
:104DF000059983461F9809F084FF011C584609F065
:104E000069FF011C504609F065FF211C8246189875
:104E100009F077FF291C8346119809F072FF011CE5
:104E2000584609F057FF049983460A9809F069FF2C
:104E3000011C584609F04EFF011C504609F04AFF7C
:104E40004346311C5860359809F05BFF391C824697
:104E50002E9809F056FF011C504609F03BFF0699B9
:104E60008246279809F04DFF05998346209809F05E
:104E700048FF011C584609F02DFF011C504609F05F
:104E800029FF211C8246199809F03BFF291C834603
:104E9000129809F036FF011C584609F01BFF0499CF
:104EA00083460B9809F02DFF011C584609F012FFAC
:104EB000011C504609F00EFF4346311C986036989D
:104EC00009F01FFF391C82462F9809F01AFF011CB8
:104ED000504609F0FFFE06998246289809F011FF16
:104EE00005998346219809F00CFF011C584609F0EA
:104EF000F1FE011C504609F0EDFE211C82461A9875
:104F000009F0FFFE291C8346139809F0FAFE011CE4
:104F1000584609F0DFFE049983460C9809F0F1FE2B
:104F2000011C584609F0D6FE011C504609F0D2FE7D
:104F30004346311CD860379809F0E3FE391C82469D
:104F4000309809F0DEFE011C504609F0C3FE0699B8
:104F50008246299809F0D5FE05998346229809F0E2
:104F6000D0FE011C584609F0B5FE011C504609F060
:104F7000B1FE211C82461B9809F0C3FE291C834602
:104F8000149809F0BEFE011C584609F0A3FE0499CE
:104F900083460D9809F0B5FE011C584609F09AFEAB
:104FA000011C504609F096FE4346311C18613898A2
:104FB00009F0A7FE391C8246319809F0A2FE011CB7
:104FC000504609F087FE069982462A9809F099FE14
:104FD00005998346239809F094FE011C584609F070
:104FE00079FE011C504609F075FE211C82461C9872
:104FF00009F087FE291C8346159809F082FE011CE2
:10500000584609F067FE049983460E9809F079FE28
:10501000011C584609F05EFE011C504609F05AFE7C
:10502000434605995861249809F06BFE069982461B
:105030002B9809F066FE011C504609F04BFE391C06
:105040008246329809F05DFE311C071C399809F040
:1050500058FE011C381C09F03DFE011C504609F0A9
:1050600039FE291C061C169809F04BFE211C051C54
:105070001D9809F046FE011C281C09F02BFE04991E
:10508000041C0F9809F03DFE011C201C09F022FEB3
:10509000011C301C09F01EFE434698611C239C46EF
:1050A000089BE144E044994500D045E6A2ACA04607
:1050B000F6AB0693DAAB3C940893079B33981A68D7
:1050C000596D0492069A8946D669196FDD69059172
:1050D000311C9C6B176809F014FE391C82462C9811
:1050E00009F00FFE011C504609F0F4FD05998246B7
:1050F000259809F006FE494683461E9809F001FEF0
:10510000011C584609F0E6FD011C504609F0E2FD7D
:10511000211C8246179809F0F4FD291C834610983B
:1051200009F0EFFD011C584609F0D4FD04998346AF
:10513000099809F0E6FD011C584609F0CBFD011C59
:10514000504609F0C7FD41460860311C349809F00B
:10515000D8FD391C82462D9809F0D3FD011C50461C
:1051600009F0B8FD05998246269809F0CAFD49461E
:1051700083461F9809F0C5FD011C584609F0AAFD99
:10518000011C504609F0A6FD211C8246189809F022
:10519000B8FD291C8346119809F0B3FD011C58463F
:1051A00009F098FD049983460A9809F0AAFD011CAC
:1051B000584609F08FFD011C504609F08BFD414611
:1051C0004860311C359809F09CFD391C82462E98A8
:1051D00009F097FD011C504609F07CFD05998246B7
:1051E000279809F08EFD49468346209809F089FDED
:1051F000011C584609F06EFD011C504609F06AFD7D
:10520000211C8246199809F07CFD291C83461298BE
:1052100009F077FD011C584609F05CFD04998346AE
:105220000B9809F06EFD011C584609F053FD011C56
:10523000504609F04FFD41468860311C369809F010
:1052400060FD391C82462F9809F05BFD011C504619
:1052500009F040FD05998246289809F052FD49461B
:105260008346219809F04DFD011C584609F032FD96
:10527000011C504609F02EFD211C82461A9809F0A7
:1052800040FD291C8346139809F03BFD011C58463C
:1052900009F020FD049983460C9809F032FD011CA9
:1052A000584609F017FD011C504609F013FD414610
:1052B000C860311C379809F024FD391C82463098AB
:1052C00009F01FFD011C504609F004FD05998246B6
:1052D000299809F016FD49468346229809F011FDE8
:1052E000011C584609F0F6FC011C504609F0F2FC7E
:1052F000211C82461B9809F004FD291C8346149842
:1053000009F0FFFC011C584609F0E4FC04998346AF
:105310000D9809F0F6FC011C584609F0DBFC011C55
:10532000504609F0D7FC41460861311C389809F015
:10533000E8FC391C8246319809F0E3FC011C504618
:1053400009F0C8FC059982462A9809F0DAFC49461A
:105350008346239809F0D5FC011C584609F0BAFC95
:10536000011C504609F0B6FC211C82461C9809F02D
:10537000C8FC291C8346159809F0C3FC011C58463B
:1053800009F0A8FC049983460E9809F0BAFC011CA8
:10539000584609F09FFC011C504609F09BFC43460F
:1053A00049465861249809F0ACFC059981462B9830
:1053B00009F0A7FC011C484609F08CFC391C814609
:1053C000329809F09EFC311C071C399809F099FCB1
:1053D000011C381C09F07EFC011C484609F07AFCCF
:1053E000291C061C169809F08CFC211C051C1D9814
:1053F00009F087FC011C281C09F06CFC0499041CB2
:105400000F9809F07EFC011C201C09F063FC011CB4
:10541000301C09F05FFC414688611C218C46069ACD
:10542000079B04320692089A04330793E0449A4299
:1054300000D042E63AAA94463D9B764A9946754B7F
:10544000624463441B6812681B68D3AC0793714BBA
:1054500063441B68DB6908936E4B63441B689B6B5A
:1054600009936C4B63441B685B6D0A93694B6344FF
:105470001B681B6F0B938C23D358664A0C93654BA8
:10548000624463441B685B680D93624B63441B6812
:105490001B6A0E935F4B63441B68DB6B0F935D4B82
:1054A00063441B689B6D10935A4B63441B685B6F8E
:1054B000126811939023D358564A1293554B624465
:1054C00063441B6812689B681393524B63441B68C8
:1054D0005B6A14934F4B63441B681B6C15934D4BD5
:1054E00063441B68DB6D16934A4B63441B689B6FD8
:1054F00017939423D358474A1893464B6244634406
:105500001B68DB681993434B63441B689B6A1A93BF
:10551000404B63441B685B6C1B933E4B63441B68AE
:1055200012681B6E1C933B4B63441B68DB6F1D931F
:105530009823D358374A1E93364B624463441B6802
:1055400012681B691F93334B63441B68DB6A20930B
:10555000304B63441B689B6C21932E4B63441B6848
:105560005B6E22938023D3582A4A23939C23624460
:105570001268D358274A2493264B624463441B681D
:105580005B692593234B63441B681B6B2693214B5C
:10559000126863441B68DB6C27931E4B63441B68D3
:1055A0009B6E28938423D3581A4A2993A0236244DC
:1055B0001268D358174A2A93164B624463441B68F7
:1055C00012689B692B93134B63441B685B6B2C9392
:1055D000104B63441B681B6D2D930E4B63441B687B
:1055E000DB6E2E938823D3580A4A2F93A423624458
:1055F0001268D35822003093074B63441B689846C7
:10560000D3AB06939023434431934B464446904694
:10561000329303E0340800002C0800006368E2685D
:105620009946A368089948460493059209F069FBD6
:1056300009998246049809F064FB011C504609F060
:1056400049FB276882460799381C09F05AFB011C60
:10565000504609F03FFB266982460B99301C09F041
:1056600050FB656983460C99281C09F04AFB011C14
:10567000584609F02FFB0A998346059809F041FB2B
:10568000011C584609F026FB011C504609F022FB7C
:10569000414608600E99484609F033FB0F9982464F
:1056A000049809F02EFB011C504609F013FB0D99DC
:1056B0008246381C09F025FB011C504609F00AFB04
:1056C00011998246301C09F01CFB12998346281C54
:1056D00009F017FB011C584609F0FCFA10998346A3
:1056E000059809F00EFB011C584609F0F3FA011C5D
:1056F000504609F0EFFA414648601499484609F0CF
:1057000000FB15998246049809F0FBFA011C5046EB
:1057100009F0E0FA13998246381C09F0F2FA011CEC
:10572000504609F0D7FA17998246301C09F0E9FA79
:1057300018998346281C09F0E4FA011C584609F020
:10574000C9FA16998346059809F0DBFA011C5846F8
:1057500009F0C0FA011C504609F0BCFA41468860C5
:105760001A99484609F0CDFA1B998246049809F027
:10577000C8FA011C504609F0ADFA19998246381C46
:1057800009F0BFFA011C504609F0A4FA1D9982469F
:10579000301C09F0B6FA1E998346281C09F0B1FAAC
:1057A000011C584609F096FA1C998346059809F0A1
:1057B000A8FA011C584609F08DFA011C504609F060
:1057C00089FA4146C8602099484609F09AFA219919
:1057D0008246049809F095FA011C504609F07AFABD
:1057E0001F998246381C09F08CFA011C504609F0BA
:1057F00071FA23998246301C09F083FA2499834672
:10580000281C09F07EFA011C584609F063FA229917
:105810008346059809F075FA011C584609F05AFAB2
:10582000011C504609F056FA41460861269948463F
:1058300009F067FA27998246049809F062FA011C78
:10584000504609F047FA25998246381C09F059FA62
:10585000011C504609F03EFA29998246301C09F095
:1058600050FA2A998346281C09F04BFA011C584625
:1058700009F030FA28998346059809F042FA011C8C
:10588000584609F027FA011C504609F023FA43460E
:105890002C995861484609F034FA2D9981460498AC
:1058A00009F02FFA011C484609F014FA2B99814699
:1058B000381C09F026FA011C484609F00BFA2F990A
:1058C000071C301C09F01DFA3099061C281C09F031
:1058D00018FA011C301C09F0FDF92E99051C0598D9
:1058E00009F00FFA011C281C09F0F4F9011C381CFE
:1058F00009F0F0F9434698611C239C46319B18340B
:10590000E044A34200D089E6F6AB05933C9CDAABB9
:105910003193069B0899DA691F6891469A6B48464D
:1059200090465A6D1E6F0492059A20CA059209F09E
:10593000E8F909998246404609F0E3F9011C50460E
:1059400009F0C8F907998246381C09F0DAF9011CF8
:10595000504609F0BFF90B998246301C09F0D1F985
:105960000C998346281C09F0CCF9011C584609F013
:10597000B1F90A998346049809F0C3F9011C584605
:1059800009F0A8F9011C504609F0A4F9011C20688F
:1059900009F0A0F90E992060484609F0B2F90F9974
:1059A0008246404609F0ADF9011C504609F092F9D3
:1059B0000D998246381C09F0A4F9011C504609F0E3
:1059C00089F911998246301C09F09BF91299834696
:1059D000281C09F096F9011C584609F07BF910992A
:1059E0008346049809F08DF9011C584609F072F9B4
:1059F000011C504609F06EF9011C606809F06AF953
:105A000018996060281C09F07CF917998246301CAF
:105A100009F077F9011C504609F05CF916998246A5
:105A2000049809F06EF9011C504609F053F91499D5
:105A30008246484609F065F915998346404609F0C3
:105A400060F9011C584609F045F913998346381C42
:105A500009F057F9011C584609F03CF9011C504661
:105A600009F038F9011CA06809F034F91E99A0600A
:105A7000281C09F046F91D998246301C09F041F9AD
:105A8000011C504609F026F91C998246049809F039
:105A900038F9011C504609F01DF91B998246404611
:105AA00009F02FF91A998346484609F02AF9011C92
:105AB000584609F00FF919998346381C09F021F965
:105AC000011C584609F006F9011C504609F002F97C
:105AD000011CE06809F0FEF82099E060484609F0F2
