:020000041000EA
:1000000000B5324B212058609868022188439860DF
:10001000D860186158612E4B002199600221596106
:100020000121F02299502B49196001219960352056
:1000300000F044F80222904214D00621196600F024
:1000400034F8196E01211966002018661A6600F04E
:100050002CF8196E196E196E052000F02FF8012189
:100060000842F9D1002199601B49196000215960AB
:100070001A491B48016001219960EB211966A021F2
:10008000196600F012F800219960164914480160C1
:100090000121996001BC002800D000471248134993
:1000A000086003C880F30888084703B5996A0420EC
:1000B0000142FBD001200142F8D103BD02B5186610
:1000C0001866FFF7F2FF186E186E02BD00000240BE
:1000D000000000180000070000035F00212200005C
:1000E000F4000018222000A00001001008ED00E03C
:1000F00000000000000000000000000074B24E7A12
:1001000000200420F7010010C3010010C5010010F9
:10011000C1010010C1010010C1010010C101001097
:10012000C1010010C1010010C1010010C701001081
:10013000C1010010C1010010C9010010CB01001065
:10014000CD010010CD010010CD010010CD01001037
:10015000CD010010CD010010CD010010CD01001027
:10016000CD010010CD010010CD010010CD01001017
:10017000CD010010CD010010CD010010CD01001007
:10018000CD010010CD010010CD010010CD010010F7
:10019000CD010010CD010010CD010010CD010010E7
:1001A000CD010010CD010010CD010010CD010010D7
:1001B000CD010010CD010010CD010010CD010010C7
:1001C00000BE00BE00BE00BE00BE00BE00F04BF888
:1001D000103800BEF2EB887134FD051054FD051097
:1001E0003402001090A31AE700202149086006C8D5
:1001F00081F3088810471F48006800282FD10DA4FC
:100200000ECC002902D000F012F8F9E71A491B4A77
:10021000002000E001C19142FCD1194988471949E9
:1002200088471949884700BEFDE701C901C29A42C3
:10023000FBD3704754FD0510C0000020242200208D
:10024000B81E06100000042000000420B81E06108E
:1002500000100420001004200000000070470B482C
:100260000EF0BAFF0047EFF30580C0B27047000000
:1002700008ED00E0000000D0302200209051032063
:1002800095D500100D030010BDD600105756000084
:1002900006005250ABB36053003E051006005250AA
:1002A000861C0302103E0510060052505422A29DE7
:1002B0001C3E051005005250DE65F468B81E06109D
:1002C000F8B5C04610B5064C2378002B07D1054B76
:1002D000002B02D0044800E000BF0123237010BDB2
:1002E0003827002000000000E8380510044B10B546
:1002F000002B03D00349044800E000BF10BDC046F6
:10030000000000003C270020E838051070B51920D7
:100310000BF08CFCD02380221B0692045A6210F052
:10032000F7FF00F04BF807F0FBFA09F017F907F0B8
:100330009FFD02F063F800F03DF90AF01DFC002279
:100340000524144B1A7006F0E9FE134D013C210000
:10035000280010F0D1FFFA2080000CF0D5FA002C14
:10036000F4D10A2010F034FE012200210B480BF0DA
:1003700039FF0B4813F0E4FC01220A4B0A4C1A70B7
:100380002378012BFCD109F0A5FA2378012BFAD0B0
:10039000F6E7C04672510320E83805107450032078
:1003A000199B0010715103207651032010B50248AB
:1003B00013F0EEFF10BDC046D42F0320092370B503
:1003C00086B0059304330493023B0393013B0293ED
:1003D000023B324D324C0193324B220032493348BA
:1003E00000932B0006F058FB142006F051FBFA2076
:1003F00080000CF089FA2E4E21003200280006F011
:1004000063FD3378682B08D02A4C200010F030FEB2
:10041000FA2080000CF078FAF7E773783D2BF3D1DF
:1004200001222100280006F073FD234E3200210036
:10043000280006F0A7FD3378002BF7D10122210018
:10044000280006F023FC0121200006F001FC032116
:10045000200006F093FB0321280006F0BDFC1321C9
:10046000200006F0FDFD1221200006F037FE0021DD
:10047000200006F015FE0321200006F09FFD02215A
:10048000200006F0B7FD5521200006F095FB18214D
:10049000280006F03BFC06B070BDC046A416032041
:1004A0005C28002040420F00D4150020CC1500200D
:1004B0002C510320FC3805108B510320F0B5C646A3
:1004C000334C344D344E22002900300000B506F084
:1004D0000DFD6378DB439B0720D023781B0702D4F4
:1004E00080BCB846F0BD2D4C06220021200010F043
:1004F0003DFC2100300006F0C9FC0023E05E06F060
:1005000033FB274D28600223E05E06F02DFB686078
:100510000423E05E06F028FBA860E1E7214B0622F9
:1005200098461800002110F021FC1F4F06220021E0
:10053000380010F01BFC4146280006F089FC390009
:10054000280006F067FC43460020185E06F0F8FA23
:100550004346164D28600220185E06F0F1FA434625
:1005600068600420185E06F0EBFAA8600023F85ECD
:1005700006F0F0FA0E4D28600223F85E06F0EAFA63
:1005800068600423F85E06F0E5FAA860A5E7C046B7
:10059000884603205C280020A41603204836032048
:1005A000983B03203836032040360320CC34032008
:1005B000E8340320F0B5C64600B510F0A9FE244982
:1005C00024480CF075FF03211A200BF0FFFA0321D9
:1005D0001B200BF0FBFA002201211A200BF00EFB6E
:1005E000002201211B200BF009FB1B480CF08CF9A9
:1005F0001A4C1B4E23781B4DDB070ED41A4B0127D8
:100600009846210030880AF0E5FF434628701868B4
:100610000CF07AF923781F42F3D030880AF0B8FD45
:100620000221287030880AF009FF142128703088D0
:100630000AF03CFE1421287030880AF0A5FF2870CB
:1006400030880AF009FE287080BCB846F0BDC0466C
:10065000801A0600B8160020B80B00008C51032049
:10066000DC15002079510320E0150020F0B5574635
:10067000DE464E464546E0B58BB0089192461900DD
:1006800005900993DA1703238C46134063449B10AB
:100690009B009846002B00DC90E05246159B0024FE
:1006A0009B000193149B9B1A159A9B1A089A9B0016
:1006B00002935368126819019446049106925146B8
:1006C0009A00039252468D000021013A920007924F
:1006D000002289465900DE00CB189B009B46130080
:1006E000424665440092019A94469C44039B1A1921
:1006F0009F195346002B1EDD069B0598191963466A
:10070000804600989B004344804600940868186027
:100710000098081A845804315C6084599C60C05960
:10072000D86010338D42F1D1434607990093634658
:100730008C4604339C440421029B5A4463448C46F7
:100740001400049A3E00E1449446009A5E446544D5
:100750004A45C8DC1A00009B9846099B434526DDA4
:100760001499159C089B0D1B514609CB6D1A002945
:100770001DDD41469E004B439B00C01853469C0024
:10078000059B47469C46099BAB469846159B994658
:1007900000234A4491006144C558CD5004339C4223
:1007A000FAD1524401375A448019B845F0D10BB000
:1007B000F0BCBB46B246A946A046F0BD0022CCE73D
:1007C000F0B54746CE4680B51F00002B1DDD002A40
:1007D0001BDD9300C0180B68002498464B689100FD
:1007E000D200494252428C4691469B0061464518D0
:1007F0002900A20042441668D21840C18142FAD1B1
:100800004A460134A81AA742F0D1C0BCB946B04646
:10081000F0BDC046F0B5DE464E465746454600237D
:10082000E0B5136083688BB0049305239B460023D7
:100830005E46099202680293013B0790069103927B
:1008400008930523049C9B1B5C439846029BA400D1
:100850009C46039B64449C46644423685D00636833
:100860006D085F007F08291C381C10F01BF8002859
:1008700000D1CCE03D1C0127731C9A46022B37D9CE
:10088000A368291C5B005B08181C994610F00AF845
:10089000002801D04D4602275346032B28D0E36899
:1008A000291C5B005B08181C99460FF0FBFF002811
:1008B00001D04D4603275346042B19D02369281C29
:1008C0005B005B08191C99460FF0D6FF002801D089
:1008D0004D4604275346062B0AD16469281C640040
:1008E0006408211C0FF0C8FF002801D00527251C33
:1008F000069B029A474400219F50281C0FF0B4FF2A
:10090000002800D185E0089B013300D1FEE00623DA
:1009100047469B1B9C46079A05939268574367443A
:100920000492BF000599049B0C009A005C43029B53
:1009300000929C46039BA5001A0065448C46914694
:100940009B46924690463B1D6444A4009944043360
:100950005D445C449A44BB44043310379446984445
:100960003B000027634401935B46296818680FF039
:100970004CFF011C20680FF02EFF2060012E2DD9A6
:100980004B46286819680FF040FF011C60680FF0A3
:1009900022FF6060022E21D05346286819680FF0AC
:1009A00034FF011CA0680FF016FFA060032E15D0C5
:1009B0004346286819680FF028FF011CE0680FF013
:1009C0000AFFE060052E09D1019B296818680FF025
:1009D0001CFF011C20690FF0FEFE2061009B013707
:1009E0009C4665446444BE42BED1029B013E043332
:1009F0000293059B052B00D023E71A00069B5A6142
:100A00000BB0F0BCBB46B246A946A046F0BD0027DD
:100A100032E7474530D0039902988C46BF006744BF
:100A20008446079A3C6892680B5892000C506144C7
:100A30003B608918BB1808681C680C60186089182E
:100A40009B1808681C680C60186089189B18086857
:100A50001C680C60186089189B1808681C680C607A
:100A6000186089189B1818680A6808601A60099A43
:100A700013680093013313604746079B039A9B68F2
:100A80005F4304930623991B43468C46FB189B0047
:100A900067449C58BF00D51928680591211C0FF0A8
:100AA000A0FE2860012E00D83CE7039B3D1D9C461C
:100AB00065442868211C0FF094FE2860022E00D1A6
:100AC00030E7039B3D009C46083565442868211C9F
:100AD0000FF087FE2860032E00D123E7039B3D0023
:100AE0009C460C3565442868211C0FF07AFE28606E
:100AF000042E00D116E7039A3D0094461035654454
:100B00002868211C0FF06DFE28600BE7062347467E
:100B10009B1B9C4605934346079A0893926857434C
:100B200067440492BF00FDE6F0B55746DE464E46E8
:100B30004546E0B599B01493249B8246259C26989F
:100B40005D1C00D1229B651C00D1229C239DEE17C9
:100B500003253540239EB4466544AD10AF000725FC
:100B6000229E0E97AE4335000096149E002E00DCA8
:100B700088E29B001693230110930301D318179367
:100B80006B1EDB0801330391D9015B010F93A300B6
:100B90007C43201880001193131815930023D3462B
:100BA000139108930E9B002B00DCC2E10F9A039B6C
:100BB000944663441293179BD846019300230293F3
:100BC0000298434601000CCB089C5943A44661445B
:100BD000890051180991411C5943614489005118F9
:100BE0000A91811C59436144890051180B91C11C21
:100BF0004B4363449B00D318019E0C93009B34002D
:100C0000002B00DC45E2039B0025994600234C465F
:100C1000AA46AB46A946069504952F1C059507954F
:100C20000D9325683168281C0FF0EFFD59460FF031
:100C3000D5FD71688346281C0FF0E7FD51460FF083
:100C4000CDFDB1688246281C0FF0DFFD07990FF03B
:100C5000C5FDF1680790281C0FF0D7FD05990FF02E
:100C6000BDFD059065683169281C0FF0CEFD391C6B
:100C70000FF0B4FD7169071C281C0FF0C6FD049924
:100C80000FF0ACFDB1690490281C0FF0BEFD069971
:100C90000FF0A4FDF1690690281C0FF0B6FD49463F
:100CA0000FF09CFD8146A568316A281C0FF0ADFD50
:100CB00059460FF093FD716A8346281C0FF0A5FD7D
:100CC00051460FF08BFDB16A8246281C0FF09DFD46
:100CD00007990FF083FDF16A0790281C0FF095FD2E
:100CE00005990FF07BFD0590E568316B281C0FF02E
:100CF0008CFD391C0FF072FD716B071C281C0FF066
:100D000084FD04990FF06AFDB16B0490281C0FF06C
:100D10007CFD06990FF062FDF16B0690281C0FF028
:100D200074FD49460FF05AFD81462569316C281C37
:100D30000FF06BFD59460FF051FD716C8346281C76
:100D40000FF063FD51460FF049FDB16C8246281C3F
:100D50000FF05BFD07990FF041FDF16C0790281C27
:100D60000FF053FD05990FF039FD05906569316D60
:100D7000281C0FF04AFD391C0FF030FD716D071C67
:100D8000281C0FF042FD04990FF028FDB16D04906E
:100D9000281C0FF03AFD06990FF020FDF16D06902A
:100DA000281C0FF032FD49460FF018FD8146A56959
:100DB000316E281C0FF029FD59460FF00FFD716EA2
:100DC0008346281C0FF021FD51460FF007FDB16E40
:100DD0008246281C0FF019FD07990FF0FFFCF16EF9
:100DE0000790281C0FF011FD05990FF0F7FC0590F6
:100DF000E569316F281C0FF008FD391C0FF0EEFC7F
:100E0000716F071C281C0FF000FD04990FF0E6FC21
:100E1000B16F0490281C0FF0F8FC06990FF0DEFC6F
:100E2000F16F0690281C0FF0F0FC49460FF0D6FC3D
:100E30008146803620340D9B009A08330D939A42E8
:100E400000DDEEE6139B019C9C46051C5946381CB0
:100E500064440FF0C3FC5146071C04980FF0BEFC1D
:100E60000799061C06980FF0B9FC05998146281CC5
:100E70000FF0B4FC129B051C9A46229A009B9A42E2
:100E800030DDAB460493534620CB2168281C9A469C
:100E90000FF0BBFC011C381C0FF0A0FC6168071CA4
:100EA000281C0FF0B2FC011C301C0FF097FCA1684D
:100EB000061C281C0FF0A9FC011C48460FF08EFCF4
:100EC000E1688146281C0FF0A0FC011C58460FF079
:100ED00085FC8346049B229A0133103404939A4282
:100EE000D1D1051C311C0A9E30680FF074FC391CEE
:100EF000099F041C38680FF06EFC291C0C9D38609B
:100F0000346028680FF067FC0B9E4946041C30686B
:100F10000FF061FC1099019A8C46029B6244019289
:100F20000E9A0433306002932C609A4200DD47E64B
:100F3000C3460F9A039B944663440E9A0293239BE5
:100F40009246159D934200DC90E05B465C685346F8
:100F50005C43089B2F009C465B461B6864449C4690
:100F6000009BA4006444002B00DC99E00023039F55
:100F700099463B00A04600262F001C0039682068D7
:100F80000FF043FC311C0FF029FC061C79686068E7
:100F90000FF03BFC311C0FF021FC061CB968A06867
:100FA0000FF033FC311C0FF019FC061CF968E068E7
:100FB0000FF02BFC311C0FF011FC061C3969206965
:100FC0000FF023FC311C0FF009FC061C79696069E5
:100FD0000FF01BFC311C0FF001FC061CB969A06965
:100FE0000FF013FC311C0FF0F9FB061CF969E069E6
:100FF0000FF00BFC311C0FF0F1FB061C20372034E6
:1010000008239C46009BE1444B45B7DC44460F9BBC
:10101000EF18029B0193229A009B9A4217DD994692
:101020000023984643464246F958019B98580FF0D2
:10103000ECFB011C301C0FF0D1FB061C01239C466D
:101040000333E1449C46229BE0444B45EAD12068AF
:10105000311C0FF0C0FB01239C46119BE2449C46CF
:10106000239B20606544534500D06EE71699039A90
:101070008C46089B62440392149A013308939A4267
:1010800000D08FE519B0F0BCBB46B246A946A046D9
:10109000F0BD0025039BA9469A462E1C2F1CECE6AA
:1010A000039B00260193B6E7F0B55746DE464E4651
:1010B00045469C24E0B5BDB006AF3C19FB638423D4
:1010C00020609824BA6694225B003C19FB182160CA
:1010D0001C68BA182369FB67A3681360834202DDAA
:1010E0009423FB18186094239821FB187918FA6F41
:1010F0001B680D68534355432268002A00D1DBE288
:101100009B007B668C23FB181A6090220023BA1880
:1011100013606368AA003A66002B00D1ECE28822D3
:10112000BB670023BA181360C84D2B78BFF35B8FE1
:10113000DB0700D4FDE2C64CA4220423BA181360D6
:101140009433FB181B686068002B18DD9C237A1D04
:10115000FB18FF321B6812681900934200DAFFE2A5
:1011600009010EF093F80323C2171340A4221B18A1
:101170009B109B00BA181360042B00DAEBE29C234F
:10118000FB181C68002C00DC72E2FB6BFD6F180082
:101190006A425043F86118008021661B7043F8666C
:1011A000180001335A4392007918BA61621E0E602A
:1011B0001100594389008846B96E1B018C46E044F2
:1011C00041467964A90049423961A1007C1CFF3481
:1011D00024685B42A446A42461443964791DFF312C
:1011E0003C1909682468FB606143B962B02183003F
:1011F0005B4279180B600300921B5043DB43AC2227
:101200009B00BA181360C4227B1DFF331B68BA18F9
:101210009B0078611360A022FB6FBA1813609C22B8
:10122000BA181268934202DDA023FB181A609823B3
:10123000FB181B68002B00DC9FE1A023FB181A6839
:10124000002A00DC99E19823FB181B68396C3B6588
:10125000A423FB181B6853439B00FB62BB6FFB641A
:101260009300CB1A79697B628C46FB6EB82163448C
:101270007B63002379180B60D021BB643B679C33F0
:10128000FB181B6879189B1ABB6013007960032157
:10129000013B043A8B43D31A3B63A422BA183B6D3B
:1012A0001268FB65934200DDFA65B822BA1812682D
:1012B000FB6D9446C8226344BA1813609C237A6A73
:1012C000FB1894461B6884227B673B6FBA189B000F
:1012D00063443B627B6B7B657B6CBB65A023FB1827
:1012E0001B6813608423B422FB181B68BA181360B0
:1012F000042B03DDB4220423BA1813608423FB18E3
:101300001B68002B00DCA5E0B422C820B824BA1862
:101310007B6F116838183C19006824685A1ABA6340
:10132000A04200DC9CE094464E1EB96E9B008A46AB
:10133000043B9B467B6D791C63449B00FF3109682D
:101340009A44BB6C63448C46A8219B006344791883
:101350000B609300C0225B42BA181360BC22BB6DC5
:10136000BA181360BC23FE20FB181B68800519689F
:101370000FF037FACC23FB181860A823FB181C6861
:10138000B823FB181B68B1461E00C023FB181B685E
:101390005A469846A04443469958CC23FB181868EF
:1013A0000FF033FA43465A4698504B46051C002B23
:1013B00022DD534619680FF028FA011C20680FF04F
:1013C0000AFA4B462060012B16D05346281C596858
:1013D0000FF01BFA011C60680FF0FDF94B466060CE
:1013E000022B09D05346281C99680FF00EFA011CF5
:1013F000A0680FF0F0F9A060C423FB181B68013649
:101400009C46C823FB181B6864449E42BDD1AC2295
:10141000BC23BA181268FB189446BC221B68BA1881
:10142000634413600423B0225B429C46BA181268DE
:10143000E3449446B4224E46BA181268731EE2443E
:10144000961BB2420CDD1E008CE7C046241A032016
:10145000E82F0320B422BA187B6F12689B1ABB6373
:101460008423B422BD6BBA18AC46FB1810681B6805
:101470007A1CFF3212681C1A3B6F796863449446E9
:101480009B0063440B607B1DFF331B6880464B60F1
:10149000A0230194FB181E6802000096FB6DF86CF7
:1014A0009B4689468246FFF7E1F8002C2ADD2B0097
:1014B000BA6849469446FD6BBA6E6B438C20634410
:1014C00094464D604D469B003818006863440B609D
:1014D000424623008146FFF773F929007B1DFF3345
:1014E0003D6A1B680D604B600D005B4603964646E7
:1014F0000193524623004946280004940296009620
:10150000FFF712FB84238422F968FB188C46B02174
:101510001B68BA18043B13607A6F7918043A09689B
:101520007A67BA6D62448C46BA657A6D62447A65B0
:101530003A6B934200D0D5E6A422B823BA181268B9
:10154000B8219446FB181B68791863440B60396D09
:101550008A1AF96A3A658C46FA6CB96A62448C4612
:10156000FA643A6F62443A67BA6C6244BA64982289
:10157000BA1812689A4200DD8FE680239C22FB187D
:101580001B68BA181360002B72DD9423FB181B68CC
:10159000002B00DCFEE78023BA6EFB1892461D6824
:1015A000FB6E00249B009A44D023FE1800239B4628
:1015B000013B99469423FB181B68A8469D4200DD19
:1015C0009846CC22A300BA181360FA6B8C20726084
:1015D000A0225344BA1838183100126800683360EA
:1015E0004346FFF7EDF87A1CCC23FF321268FB1854
:1015F00094461B688C21634433607B1DFF331B685A
:10160000791873605B4604934B46039302939823C7
:10161000FB181B6830000193A023FB181B68009384
:10162000BA6F43460968FFF77FFA9423FB181B68DB
:101630009C46ED1A8023FB181B686444A342B9DC66
:10164000FA69FB6E9446BA6963449446FB663A694C
:101650007B6C634494467B643B6CFA6F63443B64ED
:101660008023FB181B689B1A8022BA181360D2E5EE
:1016700080233A6E9B029A4208D98823FB181B6884
:10168000002B03D0043B18680FF058FB80237A6EC0
:101690009B029A4208D99023FB181B68002B03D0A9
:1016A000043B18680FF04AFBBD4637B0F0BCBB46A0
:1016B000B246A946A046F0BD9A0080237A669B02F6
:1016C0009A424FD813006A461633DB08DB00D31A60
:1016D0009D4627200F23684498438133FB181860E8
:1016E00090238C22FB181B68BA1813606368AA0049
:1016F0003A66002B00D012E580239B029A424FD815
:1017000013006A461633DB08DB00D31A9D462720F8
:101710000F23684498437933FB1818608823FB181B
:101720001B682D4DBB672B78BFF35B8FDB0700D5A4
:1017300001E5280012F02AFB284C002800D1FBE428
:101740008023DB01236080231B0328006360A360E8
:1017500012F038FBF0E4A4220423BA1813600EE55B
:101760001100FDE4100010300FF0AAFA9023FB18CE
:10177000021E1860B4D00F23010099430B00102102
:101780008C468C209C446146DA60236838180160DE
:1017900058425841902340420140FB181960B8E478
:1017A000100010300FF08CFA8823FB181860002806
:1017B000B4D00F23010099430B0010218C46D86050
:1017C00060689C4443425841614688234042B9675F
:1017D000FB1801401960A7E4241A0320E82F032016
:1017E000F0B55746DE464E464546E0B5B3B006AFC7
:1017F0008C24BB62E023FA6288223C19FB1821602A
:101800001C68BA182369786513608422A368BA1823
:101810001360834202DD8423FB181860842388222E
:101820008C21FB18BA18791812681B680D6853438D
:1018300055432268002A00D150E29B00FA678022BB
:101840003B650023BA1813606368AA00FA64002B92
:1018500000D161E2FB660023BB67E74D2B78BFF345
:101860005B8FDB0700D470E2E44C90220423BA18AB
:1018700013608833FB181B686068002B16DDDC22C0
:10188000BA187B6D12681900934200DA74E20901FC
:101890000DF0FCFC0323C217134090221B189B1071
:1018A0009B00BA181360042B00DA60E27B6D002BFA
:1018B00000DCF1E18822B96ABA1808001268BB633B
:1018C00050439B1AB86098207B634B1C99001B0106
:1018D000FB61DC234A43381801607A609020DC22E7
:1018E000FB181B68BA189B009B46FB6A38183B63C1
:1018F000002312680068BB6542437A610A1F3A629E
:101900007B679422BB6BBA1813608822BA181268DE
:10191000934202DD9423FB181A608C23FB181B688A
:10192000002B00DC45E19423FB181A68002A00DC38
:101930003FE18C239021FB181B687918BB641300CE
:101940000968DA464B43D821791809689B008C4610
:101950003B61FB6E9C21FB657B6F79189B006344A8
:10196000FB6000230B60A8213B66791813003960E7
:101970000321013B043A8B43D31ABB619022BA186E
:10198000BB6C1268BB66934200DDBA669C22BA1833
:101990001268BB6E9446FA68634494469B463B6E5D
:1019A0009B006344FB633B6B3B647B6F7B66BB6D5F
:1019B0007B649423FB181B683B679423FB181A680D
:1019C0003B6FD21A7A62A022BA181360042B03DD8F
:1019D000A0220423BA1813603B6F002B58DD9C2310
:1019E000FB181B689B4553DDA023A422FB181B6832
:1019F000BA18013B9946FB6B13603B6C98464B460B
:101A0000002B2EDDA423FB181C689C23FB181E68EA
:101A1000434625685968281C0EF0F7FE011C6068D3
:101A20000EF0D9FE4B466060012B16D04346281CB1
:101A300099680EF0EAFE011CA0680EF0CCFE4B4641
:101A4000A060022B09D04346281CD9680EF0DDFEA9
:101A5000011CE0680EF0BFFEE060013654445E45B4
:101A6000D6D14B465A1E9823FB181B68A4219C46CE
:101A7000A423FB181B68791804330B60A023FB1800
:101A800019684B46E044CB1A994201DD9146B6E70E
:101A9000A022BA181468D8223B6F796E3E6E8C462D
:101AA0001D1B3300BA1810686344844639689B00D4
:101AB00063440B60DC23FB181B6822004B607B6ACD
:101AC000884601939423FB1818680090BB6EF86D4C
:101AD000FEF7CCFD002D36DD7B6E41469C46786CD2
:101AE000220064440319F86A9B008446B86A634480
:101AF0004860A02038180260F86F0B602B00C146C8
:101B00008046FEF75DFED822BA18331914689B0090
:101B1000A4464C4663442360DC23FB1819687B6AA7
:101B2000616004939423FB181E68A0230396FB189E
:101B30001A6841460292BB6E0092019348462B0000
:101B4000FA6DFEF7F1FF396A7A6C8C46F9696244E6
:101B50008C467A647A6E3B6F04327A663A6C043B48
:101B600062443A64FA6B3B671032FA63BA69934293
:101B700000D022E790229C23BA1812689C21944638
:101B8000FB181B68791863440B60B96C8A1A796971
:101B9000BA648C463A6E396962448C463A66FA6D8C
:101BA0006244FA658C22BA1812689A4200DDE5E6B2
:101BB000D3468822BA1812687B6F94467A6D6344C4
:101BC0007B67934268DA8423FB181B68002B17DCC1
:101BD0008823B968FB188C46BA6B1B68D21ABA63A3
:101BE000BA6D6244BA657A6BD31A7A687B6394469D
:101BF0003B6B63443B6384E6241A0320E82F0320F5
:101C0000FA6ABB6D92469B009A44A823FE18A93B32
:101C100099467D6B7C6F8423FB181B68A8469D4208
:101C200000DD9846A422A300BA181360BA6A534490
:101C300072609422BA1831001268F86F336043461C
:101C4000FEF7BEFDD822A423BA181268FB189446EA
:101C50001B68300063443360DC23FB181B6873602F
:101C6000002304934B46039302938C23FB181B68B9
:101C700001939423FB181B680093FA6E4346F96F97
:101C8000FEF752FF8423FB181B689C46ED1A7B6D00
:101C90006444A342BFDC9BE78023FA6C9B029A4218
:101CA00006D9BB6F002B03D0043B18680FF046F831
:101CB00080233A6D9B029A4208D98023FB181B6847
:101CC000002B03D0043B18680FF038F8BD462DB048
:101CD000F0BCBB46B246A946A046F0BD9A008023A0
:101CE0003A659B029A4249D813006A461633DB08CC
:101CF000DB00D31A9D4627200F2368449843713395
:101D0000FB1818608023FB181B68AA00FB67636838
:101D1000FA64002B00D09DE580239B029A4249D8AB
:101D200013006A461633DB08DB00D31A9D462720D2
:101D30000F2368449843B867BB6F2A4DFB662B7826
:101D4000BFF35B8FDB0700D58EE5280012F01EF88D
:101D5000254C002800D188E58023DB012360802307
:101D60001B0328006360A36012F02CF87DE590222D
:101D70000423BA18136099E5110088E510001030AB
:101D80000EF09EFF8023FB1818600028BAD00F23A6
:101D9000010099430B0010218C46D8609C442368B5
:101DA00061465842584180234042F967FB18014080
:101DB000196049E5100010300EF082FFB867002866
:101DC000BAD00F23010099430B0010218C46D86034
:101DD00060689C444342584161464042F966014074
:101DE000B9673AE5241A0320E82F032030B587B0FD
:101DF0000D4B02AD00951A68694602929A8804005C
:101E0000AA809B796A46AB71072301930023D373A1
:101E10002EF04EFF0098A84203D0029901310EF037
:101E2000C1FF200007B030BD10390510F0B5DE4607
:101E300057464E464546E24BE0B51860E14B0D1C57
:101E40001B68E14C98464146E04BE4681960DD4967
:101E500089B04968069059608946DB4BDA491F68AA
:101E60004E68DB4B89681F605E609960DC60D94B0F
:101E700005949A6858681C68029204910190DB6886
:101E8000211C404603930EF0C0FC0299824648464E
:101E90000EF0BBFC011C50460EF0A0FCCE4B82465F
:101EA0001968281C9B460EF0B0FC011C50460EF031
:101EB00095FCCA4B01991860079040469A460EF06F
:101EC000A4FC0399804648460EF09FFC011C404646
:101ED0000EF084FC5B4680465968281C0EF095FC89
:101EE000011C40460EF07AFC554683466860211C72
:101EF000381C0EF08AFC029A051C111C301C9046FE
:101F00000EF083FC011C281C0EF068FC0199814630
:101F1000381C0EF07AFC039F051C391C301C0EF097
:101F200074FC011C281C0EF059FC211C82460498EC
:101F30000EF06BFC4146051C05980EF066FC011C7A
:101F4000281C0EF04BFC46460199804604980EF082
:101F50005CFC391C051C05980EF057FC011C281C64
:101F60000EF03CFC4946071C201C0EF04EFC41467E
:101F7000051C301C0EF049FC011C281C0EF02EFC28
:101F8000974E31680EF02AFC964D51460490286019
:101F9000201C0EF03AFC391C041C02980EF035FC93
:101FA000011C201C0EF01AFC71680EF017FC49464B
:101FB0000290686001980EF028FC039A4146041CC8
:101FC000101C91460EF021FC011C201C0EF006FC9A
:101FD000B1680EF003FC5146041CA86001980EF095
:101FE00014FC391C804648460EF00FFC011C40468C
:101FF0000EF0F4FBF1680EF0F1FBE8607A4D071C7F
:102000002E680498311C0EF000FC6D688046291C77
:10201000381C01970EF0F9FB291C824602980EF03D
:10202000F4FB41460EF0DAFB311C0EF0EEFB311CE6
:10203000071C201C0EF0E9FB51460EF0CFFB291CBB
:102040000EF0E3FB011C381C0EF0C8FB674B19684F
:102050000EF0C4FB664B071C1860291C201C0EF0F8
:10206000D4FB41460EF0BAFB391C0EF0BAFB6149B5
:102070008046894608600298311C0EF0C6FB514626
:102080000EF0ACFB391C0EF0ACFB4946079B071C5D
:102090004860181C311C9A460EF0B7FB291C81467B
:1020A00058460EF0B2FB011C48460EF097FB011C8F
:1020B00006980EF090FB414681460EF0A6FB514675
:1020C0000EF08CFB3F4A391C106048460EF09DFB19
:1020D00059460EF083FB3B4A81465060464A311C0C
:1020E000934640460EF091FB5A46011C10680EF0D4
:1020F00072FB311C8246381C0EF087FB5A46011CCD
:1021000050680EF068FB291C061C40460EF07DFB53
:102110005A46011C90680EF05EFB291C8046381C54
:102120000EF073FB5A46011CD0680EF054FB51466A
:10213000051C04980EF069FB029B4146071C181C05
:102140009B460EF062FB011C381C0EF047FB1E4A3A
:10215000311C106004980EF058FB291C071C5846CF
:102160000EF053FB011C381C0EF038FB164B514689
:102170005860201C0EF049FB019B4146071C181CAF
:1021800098460EF042FB011C381C0EF027FB0E4B4C
:10219000311C9860201C0EF038FB291C041C4046A2
:1021A0000EF033FB011C201C0EF018FB064BD86010
:1021B000484609B0F0BCBB46B246A946A046F0BDB1
:1021C0005851032068450320702300203C3B032026
:1021D000B0230020D0230020283603207845032098
:1021E000C0220020902300208C450320E817032004
:1021F0002C3B032068280020F0230020F0B5DE46A9
:1022000057464E464546E0B5674B83B059689A46F7
:102210000EF0E1FA654B051C1860654B1B689B4688
:10222000644B59461C680EF0D9FA211C0EF0EDFAE9
:10223000614B061C1868011C0EF0D0FA011C301C02
:102240000EF0CFFA5D4E31680EF0C8FA5C4B00908C
:1022500030601868011C0EF0C1FA5A4B061C1A684F
:10226000111C91460EF0D1FA8046011C201C0EF084
:10227000B5FA211C071C40460EF0ADFA524A11680F
:1022800090460EF0C2FA391C0EF0ABFA49460190A6
:1022900048460EF0A3FA59468146281C0EF09BFAD8
:1022A000011C48460EF0B1FA391C0EF09AFA011CD6
:1022B00001980EF093FA424600991060071C281C02
:1022C0000EF08CFA391C0EF089FA404B19680EF0AA
:1022D0009CFA3F4B18603F4B1860534619680EF04C
:1022E0007AFA3D4B051C18603C4B1B68191C9A463A
:1022F0000EF074FA211C0EF088FA394B80461868EB
:10230000011C0EF06BFA011C40460EF06AFA354BC8
:10231000994619680EF062FA4B461860324B8046B7
:102320001B68301C191C99460EF06FFA8346011C7D
:10233000201C0EF053FA4946061C48460EF04EFA91
:1023400051468146281C0EF046FA011C48460EF004
:102350005CFA311C0EF045FA211C814658460EF0FD
:102360003AFA391C0EF051FA311C0EF03AFA011CFF
:1023700048460EF033FA1D4B41461860041C281CD9
:102380000EF02CFA211C0EF029FA194B19680EF0E8
:102390003CFA184B1860184B186003B0F0BCBB46F1
:1023A000B246A946A046F0BD68450320E0360320AA
:1023B000343B032004160020E8150020243B0320B2
:1023C000F815002080280020C4360320F0150020D6
:1023D000DC500320CC500320E4360320383B03209C
:1023E000EC150020283B032084280020C836032059
:1023F000F4150020E0500320E4500320F8B5FE253A
:102400000024194BAD051D60DD609C605C60174BBE
:10241000174F1D60DD609C605C60164B1E68164B9C
:10242000301C19680EF0DDF9144B38601D605C60DB
:10243000DD609C60124B7C601D605E60DD609C60B6
:10244000104B1C605D60104B1868011C0EF0DDF92C
:102450000E4B0F4A186012680E4B1A600E4A9C60B1
:1024600012685C60DA60F8BD7023002090230020C1
:10247000283603200416002008160020F023002030
:10248000D02300208C45032014160020E8170320D9
:10249000D0170320C0220020CC170320F0B5DE4661
:1024A00057464E464546E0B50E000168C768894666
:1024B000416805698A4681688DB08B4641698069AB
:1024C0000793069050681368926805910A90291C3A
:1024D00030680B92099308950EF07DF905990390E9
:1024E00070680EF078F90699051CB0680EF073F963
:1024F00080268046360607980EF028FAB446039BDD
:10250000009001916344180051460EF07EF959463F
:10251000061C281C0EF079F9011C301C0EF05BF92A
:10252000391C061C404604970EF06FF9011C301C44
:102530000EF051F90EF00AFA0022684B0DF025F961
:10254000009A019B0DF021F9060048460F000EF09D
:10255000FDF902000B0030003900169C0DF0EEF87A
:102560000DF018FA4946206003980EF04EF95946CE
:10257000061C40460EF049F9011C301C0EF02EF9E5
:102580000499061C281C0EF040F9011C301C0EF0AA
:1025900022F90EF0DBF90022504B0DF0F6F8009A0C
:1025A000019B0DF0F2F8060050460F000EF0CEF938
:1025B00002000B00300039000DF0C0F80DF0EAF910
:1025C00049466060281C0EF020F95146061C404622
:1025D0000EF01BF9011C301C0EF0FDF80499061CCE
:1025E00003980EF012F9011C301C0EF0F7F80EF0F3
:1025F000ADF90022394B0DF0C8F8009A019B0DF09F
:10260000C4F8060058460F000EF0A0F902000B00B7
:10261000300039000DF092F80DF0BCF94946A06089
:1026200040460EF0F2F85146061C281C0EF0EDF85C
:10263000011C301C0EF0D2F85946051C03980EF010
:10264000E4F8011C281C0EF0C6F80EF07FF90022F9
:10265000224B0DF09AF8009A019B0DF096F80600B7
:1026600004980F000EF072F902000B0030003900E0
:102670000DF064F80DF08EF9089B0999E060181CC4
:1026800098460EF0C2F8079D291C0EF0BEF8011CFA
:1026900040460EF0A0F8059F0A992061381C0EF004
:1026A000B4F8291C0EF0B1F8011C381C0EF093F898
:1026B000069E0B996061301C0EF0A7F8291C0EF0E5
:1026C000A4F8011C301C0EF086F8A06100200DB0AB
:1026D000F0BCBB46B246A946A046F0BD0000E03FB4
:1026E000F0B5DE4657464E4645468A464168E0B557
:1026F0008846C768816891B0066889464046391C9B
:10270000141C04930EF081F84946051C301C0EF091
:102710007CF80A90011C281C09950EF05CF80EF05C
:1027200015F902000B000DF009F806900791201C26
:1027300002940EF00BF90B00020004000D00069845
:1027400007990DF022F80DF025F95246391C10605A
:1027500048460EF05AF883464146301C0EF055F8B4
:102760005A460E90011C58460B920EF037F80EF0A8
:10277000EDF802000B000CF0E1FF02000B0020005E
:1027800029000C920D930DF000F80DF003F954465A
:10279000311C6060301C0EF038F84146041C404685
:1027A0000EF033F8051C011C201C0EF014F84946ED
:1027B000089048460EF029F8391C8346381C0EF064
:1027C00024F85946019008980EF005F801990EF08A
:1027D00005F802990F900EF018F853464946986094
:1027E00040460EF012F8391C8046301C0EF00DF8F1
:1027F00081461A980EF0AAF806001B980F000EF0FA
:10280000A5F802900391291C201C0DF0E7FF594602
:102810000DF0E1FF01990DF0DEFF04990DF0F5FFD9
:102820000EF094F804000D00404649460DF0D6FF26
:102830000EF08CF802000B000CF080FF32003B0021
:102840000CF0A3FF02000B00200029000CF076FF23
:10285000029A039B04000D00069807990CF095FF5F
:1028600002000B00200029000CF068FF0DF092F828
:102870005346D86004980EF069F804000D004046F5
:1028800049460DF0A8FF0EF061F802000B000CF0B5
:1028900055FF22002B00049405950CF076FF0400F0
:1028A0000D00089859460DF099FF01990DF093FF1E
:1028B0001A990DF0AAFF0EF049F802000B00200053
:1028C00029000CF03BFF029A039B04000D000C98BA
:1028D0000D990CF05AFF02000B00200029000CF0AB
:1028E0002DFF0DF057F853460A99186109980DF01D
:1028F00075FF0EF02BF802000B000CF01FFF049A7E
:10290000059B0CF042FF04000D000B980E990DF092
:1029100062FF0EF01BF802000B000CF00FFF3200FC
:102920003B000CF032FF02000B00200029000CF0ED
:1029300005FF04000D000F981B990DF066FF0EF0C7
:1029400005F802000B00200029000CF0F7FE0DF046
:1029500021F853465861002011B0F0BCBB46B24686
:10296000A946A046F0BDC046F0B50400DE46574675
:102970004E4645460800E0B545680968AA468568A0
:1029800095B0AB46C5684669876910910E95016997
:10299000556810689268049690461A6806971192D6
:1029A0005A689B6812921393FE239B0523609946F5
:1029B0000DF011FF0DF0CAFF009001911E980DF06F
:1029C000C5FF06000F00009801990022924B0CF001
:1029D000DCFE32003B000CF0D8FE0CF0DBFF04996B
:1029E0000390E061281C0DF0F6FE0DF0AFFF002211
:1029F000894B049005910CF0C8FE32003B000CF0AE
:102A0000C4FE0CF0C7FF0699051CA06340460DF0FC
:102A1000E2FE0DF09BFF00227F4B069007910CF029
:102A2000B4FE32003B000CF0B0FE0CF0B3FF0A9095
:102A3000606550460DF08AFF0022784B089009919E
:102A40000CF0A3FE32003B000CF09FFE0CF0A2FF46
:102A50000B90206758460DF079FF00226F4B0C90C9
:102A60000D910CF092FE32003B000CF08EFE0CF04B
:102A700091FF8C238246E0500E980DF067FF0022F4
:102A8000664B0E900F910CF080FE32003B000CF074
:102A90007CFE0CF07FFFA8238346E05000220098C4
:102AA00001995E4B0CF071FE32003B000CF06DFEA4
:102AB0000CF070FF49460090606021620022069889
:102AC0000799564B0CF061FE32003B000CF05DFEA6
:102AD0000CF060FFA5658046E06310980DF036FFAE
:102AE00000224D4B0CF051FE32003B000CF04DFE2D
:102AF0000CF050FF59469023051C60670022E150FE
:102B00000C980D99444B0CF040FE32003B000CF049
:102B10003CFE0CF03FFFAC230022E05004980599E6
:102B20003E4B0CF032FE32003B000CF02EFE0CF05F
:102B300031FF49460A9A83466262009AA060216486
:102B4000E2650E980F990022334B0CF01EFE320006
:102B50003B000CF01AFE0CF01DFF94230B99A067AC
:102B6000E5501C33E1504146E1605946A1624946B7
:102B700021665146039BE167636408980999002226
:102B8000254B0CF002FE32003B000CF0FEFD0CF079
:102B900001FF9823E0501C33E55000251E99119841
:102BA0002561E562A56465660DF02FFE011C4846AF
:102BB0000DF011FE8023E0501C33E5501C33E5502E
:102BC000343B1E99129865612563E564A566E5505E
:102BD0000DF01BFE011C48460DF0FDFDA023E0504A
:102BE0001C33E550343BA56165632565E566E5501A
:102BF0001C33E5501E9913980DF007FE011C484642
:102C00000DF0E9FDC023E050002015B0F0BCBB463C
:102C1000B246A946A046F0BD0000E0BF0000E03F7C
:102C2000F0B5DE4657464E464546E0B59A460B6837
:102C3000141C8A689B464B68C9688BB00500101C41
:102C40008846009301920DF081FE02900391201CB2
:102C50000DF07CFEC02306000F00029803990022AD
:102C60001B060CF092FD32003B000CF08EFD0CF0C8
:102C700091FE0890286040460DF068FE02000B00AF
:102C80000CF05CFD32003B000CF07FFD0CF082FE8E
:102C9000041CA86158460DF059FEC02300221B06F3
:102CA000049005910CF071FD32003B000CF06DFDBD
:102CB0000CF070FE286300980DF048FE02000B0037
:102CC000069007910CF03AFD32003B000CF05DFDE0
:102CD0000CF060FE002190238946A8642966A9674C
:102CE000E95068600498059902000B000CF026FD7D
:102CF00032003B000CF049FD0CF04CFE6C6304907C
:102D0000E8610298039902000B000CF017FD3200F5
:102D10003B000CF03AFD0CF03DFE49469423E8647C
:102D20006966E967E950C02306980799049A1B066B
:102D3000AA6000220CF029FD32003B000CF025FDBA
:102D40000CF028FE089B4946AB63802328622C6563
:102D5000A966E9501833E950404614990DF055FD25
:102D6000019F1599061C381C0DF04FFD5146041C9F
:102D700058460DF04AFD311C0DF030FD211C069423
:102D80000DF029FD011C0DF029FD51460990E86068
:102D900000980DF03AFD1499041C381C0DF035FD17
:102DA000011C201C0DF01AFD1599041C40460DF065
:102DB0002CFD011C201C0DF011FD011C0DF00EFD61
:102DC00014990290686200980DF01FFD1599089003
:102DD00058460DF01AFD019A802494462406644456
:102DE000071C514620000DF010FD08990DF0F6FC6F
:102DF000391C0DF0F0FC011C0DF0F0FC1499E86397
:102E000058460DF002FD1599049000980DF0FDFC58
:102E1000802212064244041C514610000DF0F5FCBD
:102E200004990DF0DBFC211C0DF0D8FC011C0DF009
:102E3000D5FC4A468423EA666865EA501833EA50AE
:102E40005146286101980DF0E0FC08990DF0C3FC93
:102E5000391C0DF0C3FC011C0DF0C0FC071CA8625E
:102E60008020029B00062B64514658440DF0CDFC97
:102E7000311C0DF0B0FC06990DF0B0FC011C0DF0FA
:102E8000ADFC8823A86548462867E8501833E85009
:102E9000514640466F610DF0B8FC04990DF09BFC63
:102EA000211C0DF098FC011C0DF098FC099AE862B9
:102EB0006A64029B4A46EB654B466B678C23002095
:102EC000EA501833EA500BB0F0BCBB46B246A946F4
:102ED000A046F0BD0123F0B5E3214746CE469C460F
:102EE000294B804605009946284E80B58900076821
:102EF00046444144FA0F6F68D2077B005B08346890
:102F000013435A08624064461C4201D04B465A4063
:102F100004C50436A942EDD1E32342469B00C626F0
:102F2000D458194B01259C46F6004644E20F4C68E4
:102F3000D20763005B08076813435A087A401D42B2
:102F400001D063465A40043004C1B042EED142463B
:102F5000C62140460E4BC900D3581268DB0F520001
:102F60005208DB07415813435A084A40DB0701D592
:102F7000054B5A404146064BCA5000220433CA5002
:102F8000C0BCB946B046F0BDDFB0089934060000B9
:102F9000BC090000F0B54546DE4657464E46E0B552
:102FA0003B4CD723A54434AA944663441B091B0118
:102FB0008A6805930B68019237921A68049006920A
:102FC0009A69339107921A6B38AC08929A6C0992FD
:102FD0001A6E0B929A6F0C9290229A580D925A6820
:102FE0000E92DA690F925A6B1092DA6C11925A6E45
:102FF0001292DA6F139294229A5814929A68159248
:103000001A6A16929A6B17921A6D18929A6E199202
:1030100080229A581A9298229A581B92DA681C9227
:103020005A6A1D92DA6B1E925A6D1F92DA6E2092C6
:1030300084229A5821929C229A5822921A692392A9
:103040009A6A24921A6C25929A6D26921A6F279288
:1030500088229A582892A0229A5829925A692A922C
:10306000DA6A2B925A6C2C92DA6D2D925A6F2E924C
:103070008C229A582F92A4229B5830934B689846E2
:1030800038AB3293C423454643440A9302E0C0461A
:103090009CFDFFFFEA68A96991462A69AB689046E2
:1030A0006A69099803914946019302920DF0ADFBBC
:1030B000414682460B980DF0A8FB011C50460DF0CE
:1030C0008DFB029982460C980DF09FFB0399834675
:1030D0000D980DF09AFB011C58460DF07FFB011C6A
:1030E00050460DF07BFB6F688246391C07980DF047
:1030F0008CFB0199834608980DF087FB011C58460C
:103100000DF06CFB2E688346311C06980DF07DFB9C
:10311000011C58460DF062FB011C50460DF05EFB91
:103120004946206011980DF070FB41468246129886
:103130000DF06BFB011C50460DF050FB02998246CE
:1031400013980DF062FB0399834614980DF05DFB14
:10315000011C58460DF042FB011C50460DF03EFB91
:10316000391C82460F980DF050FB01998346109848
:103170000DF04BFB011C58460DF030FB311C834613
:103180000E980DF042FB011C58460DF027FB011C68
:1031900050460DF023FB4946606018980DF035FB52
:1031A0004146824619980DF030FB011C50460DF047
:1031B00015FB029982461A980DF027FB0399834666
:1031C0001B980DF022FB011C58460DF007FB011C5B
:1031D00050460DF003FB391C824616980DF015FB86
:1031E0000199834617980DF010FB011C58460DF00D
:1031F000F5FA311C834615980DF007FB011C584663
:103200000DF0ECFA011C50460DF0E8FA4946A060BA
:103210001F980DF0FAFA4146824620980DF0F5FA13
:10322000011C50460DF0DAFA0299824621980DF001
:10323000ECFA0399834622980DF0E7FA011C5846F0
:103240000DF0CCFA011C50460DF0C8FA391C82462C
:103250001D980DF0DAFA019983461E980DF0D5FA03
:10326000011C58460DF0BAFA311C83461C980DF02B
:10327000CCFA011C58460DF0B1FA011C50460DF075
:10328000ADFA4946E06026980DF0BFFA4146824605
:1032900027980DF0BAFA011C50460DF09FFA0299DA
:1032A000824628980DF0B1FA0399834629980DF0CB
:1032B000ACFA011C58460DF091FA011C50460DF075
:1032C0008DFA391C824624980DF09FFA01998346A5
:1032D00025980DF09AFA011C58460DF07FFA311C22
:1032E000834623980DF091FA011C58460DF076FAAA
:1032F000011C50460DF072FA2D99206148460DF0E0
:1033000084FA2E99814640460DF07FFA011C48460A
:103310000DF064FA2F99804602980DF076FA3099F4
:10332000814603980DF071FA011C48460DF056FADB
:10333000011C40460DF052FA391C80462B980DF0C6
:1033400064FA2C99071C01980DF05FFA011C381CD7
:103350000DF044FA311C071C2A980DF056FA011C96
:10336000381C0DF03BFA011C40460DF037FA0A9B61
:103370001C3560611834AB4200D08BE6379B1A686D
:10338000629308929A6909921A6B0A929A6C0B924C
:103390001A6E0C929A6F0D9290229A580E925A6859
:1033A0000F92DA6910925A6B1192DA6C12925A6E7D
:1033B0001392DA6F149294229A5815929A68169280
:1033C0001A6A17929A6B18921A6D19929A6E1A923B
:1033D00080229A581B9298229A581C92DA681D9261
:1033E0005A6A1E92DA6B1F925A6D2092DA6E2192FF
:1033F00084229A5822929C229A5823921A692492E3
:103400009A6A25921A6C26929A6D059C27921A6FD9
:103410002034289288229A58A1462992A0229A58AC
:103420002A925A692B92DA6A2C925A6C2D92DA6D92
:103430002E925A6F2F928C229A583092A4229B5827
:1034400031935CAB06933EAB0793329B9846434661
:103450004246414640461B6895690193069B146BA2
:10346000096E926C40CB876F0291101C0B990392EE
:1034700006930DF0CAF90C99824602980DF0C5F931
:10348000011C50460DF0AAF90D998246381C0DF02A
:10349000BCF90E998346301C0DF0B7F9011C584653
:1034A0000DF09CF9011C50460DF098F909998246DF
:1034B000281C0DF0AAF90A998346201C0DF0A5F9E5
:1034C000011C58460DF08AF90899834601980DF0C1
:1034D0009CF9011C58460DF081F9011C50460DF075
:1034E0007DF94B461299186003980DF08EF91399E7
:1034F000824602980DF089F9011C50460DF06EF9D4
:1035000014998246381C0DF080F915998346301CB9
:103510000DF07BF9011C58460DF060F9011C504676
:103520000DF05CF910998246281C0DF06EF9119986
:103530008346201C0DF069F9011C58460DF04EF928
:103540000F99834601980DF060F9011C58460DF063
:1035500045F9011C50460DF041F94B461999586048
:1035600003980DF052F91A99824602980DF04DF920
:10357000011C50460DF032F91B998246381C0DF0A3
:1035800044F91C998346301C0DF03FF9011C584644
:103590000DF024F9011C50460DF020F917998246D0
:1035A000281C0DF032F918998346201C0DF02DF9D6
:1035B000011C58460DF012F91699834601980DF03A
:1035C00024F9011C58460DF009F9011C50460DF074
:1035D00005F94B462099986003980DF016F921994A
:1035E000824602980DF011F9011C50460DF0F6F8D4
:1035F00022998246381C0DF008F923998346301C25
:103600000DF003F9011C58460DF0E8F8011C504676
:103610000DF0E4F81E998246281C0DF0F6F81F996B
:103620008346201C0DF0F1F8011C58460DF0D6F829
:103630001D99834601980DF0E8F8011C58460DF0DD
:10364000CDF8011C50460DF0C9F84B462799D860BB
:1036500003980DF0DAF82899824602980DF0D5F813
:10366000011C50460DF0BAF829998246381C0DF01D
:10367000CCF82A998346301C0DF0C7F8011C584637
:103680000DF0ACF8011C50460DF0A8F825998246C3
:10369000281C0DF0BAF826998346201C0DF0B5F8C9
:1036A000011C58460DF09AF82499834601980DF0B4
:1036B000ACF8011C58460DF091F8011C50460DF075
:1036C0008DF84B462E99186103980DF09EF82F99AE
:1036D000824602980DF099F8011C50460DF07EF8D4
:1036E00030998246381C0DF090F83199071C301C37
:1036F0000DF08BF8011C381C0DF070F8011C5046C1
:103700000DF06CF82C99061C281C0DF07EF82D99F4
:10371000051C201C0DF079F8011C281C0DF05EF82A
:103720002B99041C01980DF070F8011C201C0DF061
:1037300055F8011C301C0DF051F84B46586104231C
:103740009C461433E0449C46079BE144984500D0D6
:103750007DE6339B059DDC68296A20680DF03EF804
:10376000049EA96B306060680DF038F87060A06846
:10377000296D0DF033F8B060E068A96E0DF02EF8F9
:103780008023F0602069E95898460DF027F89823C7
:103790003061E95860690DF021F87061A069696ACB
:1037A0000DF01CF8B061E069E96B0DF017F8F061FD
:1037B000206A696D0DF012F83062E96E606A0DF0F2
:1037C0000DF884277062A06AE9590DF007F89C2370
:1037D000B062E958E06A0DF001F8F062206BA96A66
:1037E0000CF0FCFF3063606B296C0CF0F7FF70632A
:1037F000A06BA96D0CF0F2FFB063E06B296F0CF0C9
:10380000EDFFF0638826206CA9590CF0E7FF049BBC
:103810001864A023606CE9580CF0E0FF049BE96A8F
:103820005864A06C0CF0DAFF049B696C9864E06C3F
:103830000CF0D4FF049BE96DD864206D0CF0CEFF32
:10384000049B696F1865606D0CF0C8FF8C25049AA5
:10385000059B5065A06D59590CF0C0FFA423049A34
:103860009065059AE06DD1580CF0B8FF049B059A5D
:10387000D865116B206E0CF0B1FF049B059A186699
:10388000916C606E0CF0AAFF049B059A5866A06EBE
:10389000116E0CF0A3FF049B059A9866E06E916F81
:1038A0000CF09CFF049B059AD8669023206FD1589A
:1038B0000CF094FF049B059A1867A823606FD158F9
:1038C0000CF08CFF049B059A5867A16F506B0CF0AD
:1038D00085FF049B059A9867E16FD06C0CF07EFF22
:1038E0004146049B059AD8676158506E0CF076FFEC
:1038F0004146049B059A5850E159D06F0CF06EFF79
:10390000049BD8519423059FA159F8580CF066FFE9
:10391000049B9851AC236159F8580CF05FFF049B4D
:10392000585199239B009D44F0BCBB46B246A94622
:10393000A046F0BDF0B5DE4657464E46454604006B
:10394000E0B5036987B05800636940085900490829
:103950000CF044FFE368590049080CF03FFF63682E
:10396000051C5800A3684008590049080CF036FFB0
:103970002368590049080CF031FF011C281C0CF089
:103980002DFFA36A051C5800E36A40085900490846
:103990000CF024FF636A590049080CF01FFFE3692B
:1039A000061C5800236A4008590049080CF016FF0D
:1039B000A369590049080CF011FF011C301C0CF0E0
:1039C0000DFF236C071C5800636C40085900490820
:1039D0000CF004FFE36B590049080CF0FFFE636B29
:1039E000061C5800A36B4008590049080CF0F6FE6D
:1039F000236B590049080CF0F1FE011C301C0CF03F
:103A0000EDFE061C011C381C0CF036FF002800D10E
:103A10003E1C311C281C0CF02FFF002800D12E1C4E
:103A2000A36D5800E36D4008590049080CF0D6FE1C
:103A3000636D590049080CF0D1FEE36C051C580079
:103A4000236D4008590049080CF0C8FEA36C5900CA
:103A500049080CF0C3FE011C281C0CF0BFFE236FAC
:103A6000071C5800636F4008590049080CF0B6FE67
:103A7000E36E590049080CF0B1FE636E051C580056
:103A8000A36E4008590049080CF0A8FE236E5900A7
:103A900049080CF0A3FE011C281C0CF09FFE882393
:103AA0008046E0580433E158400049004908400886
:103AB0000CF094FE8423E158490049080CF08EFE76
:103AC000E36F051C58008023E1584008490049086D
:103AD0000CF084FEA36F590049080CF07FFE011C16
:103AE000281C0CF07BFE051C011C40460CF0C4FE9B
:103AF000002800D14546291C381C0CF0BDFE0028CA
:103B000000D13D1C291C301C0CF0B6FE002800D151
:103B1000351CC0232100E55001AABA3B02A8A831F8
:103B200004930294FCF776FE0121C422019B98269F
:103B30000B405B428B430133A354343A924600223C
:103B400050469C2722509432A1509346923AA2515B
:103B50000132E2519D32944660469C3A2250A03296
:103B600091469F3A90464A4640462300A050484618
:103B70001832A258903392009A1815682550404682
:103B800010606046B8222058A258804660469200D5
:103B90009A181568255040461060B422E059A25882
:103BA000844692009A1810685D46E05160461060A5
:103BB000B022A258A75992009A181068A051176015
:103BC000AC225846A258265892009A1810686051A4
:103BD0001660A822A258554692009B1852461868B3
:103BE000A25860511A60C523E15407B0F0BCBB462F
:103BF000B246A946A046F0BDC023002210B5C2506F
:103C000000220433C2520B68040003604B68436017
:103C10008B688360CB68C3600B6903614B69436148
:103C20008B698361CB69C3610B6A03624B6A436230
:103C30008B6A8362CB6AC3620B6B03634B6B436318
:103C40008B6B8363CB6BC3630B6C03644B6C436400
:103C50008B6C8364CB6CC3640B6D03654B6D4365E8
:103C60008B6D8365CB6DC3650B6E03664B6E4366D0
:103C70008B6E8366CB6EC3660B6F03674B6F4367B8
:103C80008B6F8367CB6FC3678023CA58C2500433DE
:103C9000CA58C2500433CA58C2500433CA58C2501A
:103CA000FFF748FE200010BDF0B5DE464E46454603
:103CB0005746E0B5214C9146A5443AAA94460A00DD
:103CC00031931F4B3B9063441B091B013A9198466B
:103CD000D3AB13CA13C313CA13C31268D3A91A6090
:103CE000184B194A1B6847A80493184B47AC1B682C
:103CF0000193174B1B6805930093049BFEF790FFFD
:103D000047ABD3934B46D49347ABD5933AAA83237F
:103D1000944686201B0163441B68C0004044A2AA4D
:103D2000D3A9D6930990FFF735F96BAB08934346B7
:103D30000A934B463094A1461C000BE014F7FFFF9A
:103D400047030000A01603200AE81C419816032030
:103D50009C1603204B464E461B68B76F0493089B86
:103D6000494640CB48464A460893A823896C006ED2
:103D70009569126B06910790E158301C05920CF082
:103D800044FD8C238246E158381C0CF03EFD011C9A
:103D900050460CF023FD216F824607980CF035FD4C
:103DA000616D834606980CF030FD011C58460CF0FE
:103DB00015FD011C50460CF011FDA16B82460598C3
:103DC0000CF023FDE1698346281C0CF01EFD011C4C
:103DD00058460CF003FD2168834604980CF015FD4D
:103DE000011C58460CF0FAFC011C50460CF0F6FC85
:103DF00043461860AC23301CE1580CF006FD9023BC
:103E00008246E158381C0CF000FD011C50460CF0B5
:103E1000E5FC616F824607980CF0F7FCA16D8346C4
:103E200006980CF0F2FC011C58460CF0D7FC011C63
:103E300050460CF0D3FCE16B824605980CF0E5FC93
:103E4000216A8346281C0CF0E0FC011C58460CF04B
:103E5000C5FC6168834604980CF0D7FC011C5846E9
:103E60000CF0BCFC011C50460CF0B8FC43465860FA
:103E7000B023301CE1580CF0C8FC94238246E15872
:103E8000381C0CF0C2FC011C50460CF0A7FCA16FC2
:103E9000824607980CF0B9FCE16D834606980CF059
:103EA000B4FC011C58460CF099FC011C50460CF067
:103EB00095FC216C824605980CF0A7FC616A83464C
:103EC000281C0CF0A2FC011C58460CF087FCA168D1
:103ED000834604980CF099FC011C58460CF07EFCBB
:103EE000011C50460CF07AFC43469860B423301C09
:103EF000E1580CF08AFC98238246E158381C0CF0FB
:103F000084FC011C50460CF069FCE16F8246079866
:103F10000CF07BFC216E834606980CF076FC011CAD
:103F200058460CF05BFC011C50460CF057FC616CD1
:103F3000824605980CF069FCA16A8346281C0CF0A7
:103F400064FC011C58460CF049FCE1688346049867
:103F50000CF05BFC011C58460CF040FC011C504668
:103F60000CF03CFC4346D860B823301CE1580CF000
:103F70004CFC9C238246E158381C0CF046FC011C8A
:103F800050460CF02BFC80238246E15807980CF039
:103F90003CFC616E834606980CF037FC011C5846C9
:103FA0000CF01CFC011C50460CF018FCA16C824665
:103FB00005980CF02AFCE16A8346281C0CF025FCCD
:103FC000011C58460CF00AFC2169834604980CF049
:103FD0001CFC011C58460CF001FC011C50460CF066
:103FE000FDFB43461861BC23301CE1580CF00DFC6E
:103FF000A0238246E158381C0CF007FC011C5046F7
:104000000CF0ECFB84238246E15807980CF0FDFB92
:10401000A16E834606980CF0F8FB011C58460CF084
:10402000DDFB011C50460CF0D9FBE16C8246059883
:104030000CF0EBFB216B8346281C0CF0E6FB011C0B
:1040400058460CF0CBFB6169834604980CF0DDFB0D
:10405000011C58460CF0C2FB011C50460CF0BEFB84
:104060004346E16E586106980CF0CFFB88238246E8
:10407000E15807980CF0C9FB011C50460CF0AEFB50
:10408000A4238246E158381C0CF0BFFBC023071C58
:10409000E158301C0CF0B9FB011C381C0CF09EFBE5
:1040A000011C50460CF09AFB616B061C281C0CF09E
:1040B000ACFB216D051C05980CF0A7FB011C281C0E
:1040C0000CF08CFBA169051C04980CF09EFB011CF4
:1040D000281C0CF083FB011C301C0CF07FFB4346BA
:1040E000986104239C461833E1449C464DABE04460
:1040F0004B4500D02EE60A9BA146D8249846A4271B
:10410000A4004444BF00474420000999FFF774FD10
:10411000210090223800C8240CF02EFEFC21A400BF
:10412000444489004144182220000CF025FECE2092
:1041300081218000C9004144182240440CF01CFE3B
:104140008422D423D200424412689B0043441A6064
:10415000D523874A4546424412889B004344FE21AA
:104160001A8000232268B0359200AA1889051160D0
:1041700093611363936413669367C9229200424468
:10418000126844469200AA18136091611363936405
:1041900013669367CA229200424412680626920070
:1041A000AA18136093611163936413669367CB221B
:1041B00092004244126806209200AA18136093618C
:1041C0001363916413669367CC2292004244126891
:1041D0009200AA1813609361136393641166936746
:1041E000CD229200424412689200AA181360936193
:1041F000136393641366A8235B009B469167424652
:104200005946E41820334344A660E66026615350C3
:104210008022920042444B396260924604933A00F5
:1042200006230294FF3901960095FDF7D9FA42461C
:104230005946049BA660E6602661535053464B39AD
:1042400063603A0006230294062001960095FF3928
:10425000FCF72AFF43461B688C2207934346DB6921
:10426000D3AC089343469B6B099343465B6D0A931B
:1042700043461B6F0B9343469B5804320C934346B3
:104280005B68179343461B6A18934346DB6B0D9399
:1042900043469B6D0E9343465B6F0F9343469B587B
:1042A0000432109343469B68119343465B6A129312
:1042B00043461B6C13934346DB6D149343469B6F3D
:1042C000159343469B58043216934346DB68199373
:1042D00043469B6A069343465B6C1A9343461B6EA8
:1042E0001B934346DB6F1C9343469B58183A1D9320
:1042F00043461B691E934346DB6A1F9343469B6CF0
:10430000209343465B6E219343469B581C32229375
:1043100043469B58183A239343465B69249343468C
:104320001B6B25934346DB6C269343469B6E27937A
:1043300043469B581C32289343469B58183A29936E
:1043400043469B692A9343465B6B2B9343461B6D05
:104350002C934346DB6E2D9343469B581C322E9381
:1043600043469B58A8462F934B46329302E0C046E3
:104370002404000043461F685B6842469946434652
:1043800041469B68D2680E694D6908984946049376
:1043900005920CF03AFA0499824609980CF035FA25
:1043A000011C50460CF01AFA391C824607980CF092
:1043B0002CFA011C50460CF011FA311C82460B9865
:1043C0000CF023FA291C83460C980CF01EFA011CF1
:1043D00058460CF003FA059983460A980CF015FA32
:1043E000011C58460CF0FAF9011C50460CF0F6F985
:1043F0004946206018980CF008FA049982460D98F6
:104400000CF003FA011C50460CF0E8F9391C824606
:1044100017980CF0FAF9011C50460CF0DFF9311C2A
:1044200082460F980CF0F1F9291C834610980CF085
:10443000ECF9011C58460CF0D1F9059983460E9809
:104440000CF0E3F9011C58460CF0C8F9011C504669
:104450000CF0C4F94946606012980CF0D6F9049942
:10446000824613980CF0D1F9011C50460CF0B6F9B5
:10447000391C824611980CF0C8F9011C50460CF00A
:10448000ADF9311C824615980CF0BFF9291C834602
:1044900016980CF0BAF9011C58460CF09FF90599D2
:1044A000834614980CF0B1F9011C58460CF096F9AB
:1044B000011C50460CF092F94946A06006980CF099
:1044C000A4F9049982461A980CF09FF9011C5046F1
:1044D0000CF084F9391C824619980CF096F9011CED
:1044E00050460CF07BF9311C82461C980CF08DF97B
:1044F000291C83461D980CF088F9011C58460CF0C5
:104500006DF9059983461B980CF07FF9011C5846FC
:104510000CF064F9011C50460CF060F94946E0606B
:104520001F980CF072F90499824620980CF06DF9EE
:10453000011C50460CF052F9391C82461E980CF0B2
:1045400064F9011C50460CF049F9311C824622984E
:104550000CF05BF9291C834623980CF056F9011CDA
:1045600058460CF03BF90599834621980CF04DF91B
:10457000011C58460CF032F9011C50460CF02EF983
:104580004946206125980CF040F904998246269806
:104590000CF03BF9011C50460CF020F9391C824606
:1045A00024980CF032F9011C50460CF017F9311C1C
:1045B000824628980CF029F9291C834629980CF08A
:1045C00024F9011C58460CF009F9059983462798EF
:1045D0000CF01BF9011C58460CF000F9011C504668
:1045E0000CF0FCF8494660612B980CF00EF9049928
:1045F00081462C980CF009F9011C48460CF0EEF8A5
:10460000391C81462A980CF000F9011C48460CF030
:10461000E5F8311C071C2E980CF0F7F8291C061C35
:104620002F980CF0F2F8011C301C0CF0D7F805990B
:10463000051C2D980CF0E9F8011C281C0CF0CEF894
:10464000011C381C0CF0CAF818239C46A061FDAB75
:104650001C34E044A34200D08CE6329BD49A9946A5
:10466000D39BD599D69CD79DD89ED99F0693079268
:10467000DA9BDB9A08910994DC99DD9C0A950B96EC
:10468000DE9DDF9E0C970D93E09FE19B0E92E29AD8
:104690000F91109411951296139714931592E39914
:1046A000E49CE59DE69EE79FE89BE99A16911794A6
:1046B000EA99EB9C18951996EC9DED9E1A971B9321
:1046C000EE9FEF9B1C921D91F09AF1991E94F29C23
:1046D0002096219722932392249125941F95F39D50
:1046E000F49EF59FF79AF69BF899F99C26952796E4
:1046F000FA9DFB9E2897FC9F2A923A9A29932B9128
:104700002C942D952E962F97D3AB32CA32C332CA32
:1047100032C31168D3AC1960FD49FE4B09681B68B0
:104720000191FD49FD4A09682000009141A9FDF76A
:10473000D7FF319F419938680CF04DF84299834674
:1047400078680CF048F843998246B8680CF043F852
:104750004499041CF8680CF03EF84599051C38692A
:104760000CF039F84699061C78690CF034F8071CEF
:10477000011C2A980CF049F8311C804623980CF053
:1047800044F8011C40460CF029F8291C80461C986E
:104790000CF03BF8011C40460CF020F8211C804630
:1047A00015980CF032F8514604900E980CF02DF844
:1047B000011C04980CF012F85946049007980CF06C
:1047C00024F8011C04980CF009F8011C40460CF078
:1047D00005F83A9A51680CF001F8391C04902B98AE
:1047E0000CF013F8311C804624980CF00EF8011CD4
:1047F00040460BF0F3FF291C80461D980CF005F88D
:10480000011C40460BF0EAFF211C804616980BF075
:10481000FCFF514605900F980BF0F7FF011C05981F
:104820000BF0DCFF5946059008980BF0EEFF011CD9
:1048300005980BF0D3FF011C40460BF0CFFF3A9ACE
:1048400091680BF0CBFF391C05902C980BF0DDFF25
:10485000311C804625980BF0D8FF011C40460BF018
:10486000BDFF291C80461E980BF0CFFF011C40465F
:104870000BF0B4FF211C804617980BF0C6FF514681
:10488000319010980BF0C1FF011C31980BF0A6FF7E
:104890005946319009980BF0B8FF011C31980BF084
:1048A0009DFF011C40460BF099FF3A9AD1680BF02E
:1048B00095FF391C31902D980BF0A7FF311C8046D5
:1048C00026980BF0A2FF011C40460BF087FF291C25
:1048D00080461F980BF099FF011C40460BF07EFFAD
:1048E000211C804618980BF090FF51463290119889
:1048F0000BF08BFF011C32980BF070FF5946329081
:104900000A980BF082FF011C32980BF067FF011C24
:1049100040460BF063FF3A9A11690BF05FFF391CB8
:1049200032902E980BF071FF311C804627980BF0C7
:104930006CFF011C40460BF051FF291C804620985B
:104940000BF063FF011C40460BF048FF211C804622
:1049500019980BF05AFF5146339012980BF055FFFF
:10496000011C33980BF03AFF594633900B980BF02B
:104970004CFF011C33980BF031FF011C40460BF03B
:104980002DFF3A9A51690BF029FF51463390139845
:104990000BF03BFF211C80461A980BF036FF011CE0
:1049A00040460BF01BFF594680460C980BF02DFF3C
:1049B000011C40460BF012FF311C804628980BF07A
:1049C00024FF391C34902F980BF01FFF011C3498E2
:1049D0000BF004FF291C349021980BF016FF011CEA
:1049E00034980BF0FBFE011C40460BF0F7FE3A9AA0
:1049F00091690BF0F3FE391C804629980BF005FFF6
:104A0000311C071C22980BF000FF011C381C0BF016
:104A1000E5FE291C061C1B980BF0F7FE011C301C40
:104A20000BF0DCFE211C051C14980BF0EEFE514629
:104A3000041C0D980BF0E9FE011C201C0BF0CEFEAF
:104A40005946041C06980BF0E0FE011C201C0BF0DC
:104A5000C5FE011C281C0BF0C1FE3A9AD3AC1168AC
:104A60000BF0BCFE3B9B049A18605A60059A9A6052
:104A7000319ADA60329A1A61339A5A6142469A61DF
:104A80004B461B684A46A2934B465B68A3934B4632
:104A90009B68A4934B46DB68A5934B461B69A69382
:104AA0004B465B69A7934B469B69A8934B46DB69D2
:104AB000A9934B461B6AAA934B465B6AAB934B4642
:104AC0009B6AAC934B46DB6AAD934B461B6BAE9334
:104AD0004B465B6BAF934B469B6BB0934B46DB6B8C
:104AE000B1934B461B6CB2934B465B6CB3934B46F6
:104AF0009B6CB4934B46DB6CB5934B461B6DB693E6
:104B00004B465B6DB7934B469B6DB8934B4607E0A6
:104B100098160320A01603209C1603200AE81C41C7
:104B2000DB6DB9934B461B6EBA934B465B6EBB93E2
:104B30004B469B6EBC934B46DB6EBD934B461B6F47
:104B4000BE934B465B6FBF934B469B6FC0934B46E8
:104B5000DB6FC1938023D358C2938423D358C3936C
:104B60008823D358C4938C23D358C5939023D35808
:104B7000C6939423D358C7939823D358C8939C23A0
:104B8000D358C993A023D358CA93A423D358CB9303
:104B9000A823D358CC93AC23D358CD93B023D35868
:104BA000CE93B423D358CF93B823D358D093BC23F8
:104BB000D358D193C023D358D293309B3092984688
:104BC00043461F685B6842469946434641469B6898
:104BD000D2680E694D690D984946049305920BF011
:104BE00014FE0499824614980BF00FFE011C5046E7
:104BF0000BF0F4FD391C824606980BF006FE011CF2
:104C000050460BF0EBFD311C824622980BF0FDFD67
:104C1000291C834629980BF0F8FD011C58460BF01F
:104C2000DDFD059983461B980BF0EFFD011C5846EE
:104C30000BF0D4FD011C50460BF0D0FD494620601E
:104C40000E980BF0E2FD0499824615980BF0DDFDFD
:104C5000011C50460BF0C2FD391C824607980BF030
:104C6000D4FD011C50460BF0B9FD311C824623983F
:104C70000BF0CBFD291C83462A980BF0C6FD011CC6
:104C800058460BF0ABFD059983461C980BF0BDFD13
:104C9000011C58460BF0A2FD011C50460BF09EFD76
:104CA000494660600F980BF0B0FD04998246169853
:104CB0000BF0ABFD011C50460BF090FD391C8246F9
:104CC00008980BF0A2FD011C50460BF087FD311C2B
:104CD000824624980BF099FD291C83462B980BF0F3
:104CE00094FD011C58460BF079FD059983461D98EB
:104CF0000BF08BFD011C58460BF070FD011C50465B
:104D00000BF06CFD4946A06010980BF07EFD0499F5
:104D1000824617980BF079FD011C50460BF05EFDA2
:104D2000391C824609980BF070FD011C50460BF0AF
:104D300055FD311C824625980BF067FD291C8346E2
:104D40002C980BF062FD011C58460BF047FD0599AD
:104D500083461E980BF059FD011C58460BF03EFD92
:104D6000011C50460BF03AFD4946E06011980BF0EB
:104D70004CFD0499824618980BF047FD011C5046E3
:104D80000BF02CFD391C82460A980BF03EFD011CED
:104D900050460BF023FD311C824626980BF035FD62
:104DA000291C83462D980BF030FD011C58460BF052
:104DB00015FD059983461F980BF027FD011C5846E9
:104DC0000BF00CFD011C50460BF008FD494620611C
:104DD00012980BF01AFD0499824619980BF015FDF4
:104DE000011C50460BF0FAFC391C82460B980BF064
:104DF0000CFD011C50460BF0F1FC311C824627983B
:104E00000BF003FD291C83462E980BF0FEFC011CC1
:104E100058460BF0E3FC0599834620980BF0F5FC0F
:104E2000011C58460BF0DAFC011C50460BF0D6FC76
:104E30004946606113980BF0E8FC049981461A9882
:104E40000BF0E3FC011C48460BF0C8FC391C814602
:104E50000C980BF0DAFC011C48460BF0BFFC311C2F
:104E6000071C28980BF0D1FC291C061C2F980BF06E
:104E7000CCFC011C301C0BF0B1FC0599051C2198E1
:104E80000BF0C3FC011C281C0BF0A8FC011C381CF7
:104E90000BF0A4FC18239C46FFABA06114331C3418
:104EA000E044A34200D08BE6309BA2AD99463C93F0
:104EB000C4234C46C8464B44089307944246D268E4
:104EC00043464146914642469E694C68096892684D
:104ED0005F691B690491301CFD99069305920BF0E4
:104EE00094FCF6998246381C0BF08FFC011C50464E
:104EF0000BF074FCEF99824606980BF086FCE8995B
:104F0000834648460BF081FC011C58460BF066FCBA
:104F1000011C50460BF062FCE199824605980BF0AB
:104F200074FCDA998346201C0BF06FFC011C584678
:104F30000BF054FCD399834604980BF066FC011CDB
:104F400058460BF04BFC011C50460BF047FC011C73
:104F500028680BF040FC2860FE99301C0BF055FCD3
:104F6000F7998246381C0BF050FC011C50460BF0A0
:104F700035FCF099824606980BF047FCE999834688
:104F800048460BF042FC011C58460BF027FC011C64
:104F900050460BF023FCE299824605980BF035FC55
:104FA000DB998346201C0BF030FC011C58460BF0AB
:104FB00015FCD499834604980BF027FC011C584635
:104FC0000BF00CFC011C50460BF008FC011C68683F
:104FD0000BF001FCFF996860301C0BF016FCF8998F
:104FE0008246381C0BF011FC011C50460BF0F6FBFE
:104FF000F199824606980BF008FCEA9983464846E8
:105000000BF003FC011C58460BF0E8FB011C50465A
:105010000BF0E4FBE399824605980BF0F6FBDC9974
:105020008346201C0BF0F1FB011C58460BF0D6FB0D
:10503000D599834604980BF0E8FB011C58460BF009
:10504000CDFB011C50460BF0C9FB011CA8680BF0FE
:10505000C2FBFFAB5968A860301C04330BF0D5FBD2
:10506000F9998246381C0BF0D0FB011C50460BF01E
:10507000B5FBF299824606980BF0C7FBEB99834685
:1050800048460BF0C2FB011C58460BF0A7FB011C65
:1050900050460BF0A3FBE499824605980BF0B5FB54
:1050A000DD998346201C0BF0B0FB011C58460BF029
:1050B00095FBD699834604980BF0A7FB011C584634
:1050C0000BF08CFB011C50460BF088FB011CE868C0
:1050D0000BF081FBFFAB9968E860301C08330BF0E4
:1050E00094FBFA998246381C0BF08FFB011C50464A
:1050F0000BF074FBF399824606980BF086FBEC9953
:10510000834648460BF081FB011C58460BF066FBBA
:10511000011C50460BF062FBE599824605980BF0A6
:1051200074FBDE998346201C0BF06FFB011C584674
:105130000BF054FBD799834604980BF066FB011CD7
:1051400058460BF04BFB011C50460BF047FB011C73
:1051500028690BF040FBFFABD9682861301C0C3389
:105160000BF053FBFB998246381C0BF04EFB011CE5
:1051700050460BF033FBF499824606980BF045FB42
:10518000ED99834648460BF040FB011C58460BF056
:1051900025FB011C50460BF021FBE6998246059841
:1051A0000BF033FBDF998346201C0BF02EFB011C18
:1051B00058460BF013FBD899834604980BF025FB57
:1051C000011C58460BF00AFB011C50460BF006FB75
:1051D000011C68690BF0FFFAEE99686148460BF014
:1051E00014FBF599814606980BF00FFB011C48460D
:1051F0000BF0F4FAFC998146381C0BF006FBFFAB70
:105200001969071C301C10330BF0FFFA011C381C05
:105210000BF0E4FA011C48460BF0E0FAE099061C9A
:10522000201C0BF0F2FAE799041C05980BF0EDFA3C
:10523000011C201C0BF0D2FAD999041C04980BF025
:10524000E4FA011C201C0BF0C9FA011C301C0BF005
:10525000C5FA011CA8690BF0BEFA1C239C46089BEA
:10526000E044A8611C35984500D027E6079BA29A28
:1052700099461A60A39A5A60A49A9A60A59ADA602D
:10528000A69A1A61A79A5A61A89A9A61A99ADA61AC
:10529000AA9A1A62AB9A5A62AC9A9A62AD9ADA6288
:1052A000AE9A1A63AF9A5A63B09A9A63B19ADA6364
:1052B000B29A1A64B39A5A64B49A9A64B59ADA6440
:1052C000B69A1A65B79A5A65B89A9A65B99ADA651C
:1052D000BA9A1A66BB9A5A66BC9A9A66BD9ADA66F8
:1052E000BE9A1A67BF9A5A67C09A9A67C19ADA67D4
:1052F0004A468023C299D150C3990433D150C499EE
:105300000433D150C5990433D150C6990433D150D8
:10531000C7990433D150C8990433D150C999043383
:10532000D150CA990433D150CB990433D150CC9980
:105330000433D150CD990433D150CE990433D15098
:10534000CF990433D150D0990433D150D19904333B
:10535000D150D2990433D1503AAA94464F4BA2AAC5
:1053600063441B6813CB13C24D4BD3AC63441B681F
:1053700007CB07C43A9B3B9D00934A4B28006344EC
:10538000A2A91B68D3AAFDF789F82B00D3AA23CBC7
:1053900023C213CB13C23AA91B688C4613603EAAE2
:1053A00011003E4B63441B6831CB31C13C4BA2A979
:1053B00063441B6831CB31C13A4BD3A963441B68AA
:1053C00071A80093A2ABFDF7CFFAD3AB07931C00F3
:1053D000719B0993789B10937F9B1793869B1E93D9
:1053E0008D9B2593949B2C939B9B3393729B0A9349
:1053F000799B1193809B1893879B1F938E9B269379
:10540000959B2D939C9B3493739B0B937A9B129348
:10541000819B1993889B20938F9B2793969B2E9318
:105420009D9B3593749B0C937B9B1393829B1A9348
:10543000899B2193909B2893979B2F939E9B3693B8
:10544000759B0D937C9B1493839B1B938A9B229348
:10545000919B2993989B30939F9B3793769B0E93B8
:105460007D9B1593849B1C938B9B2393929B2A93E8
:10547000999B3193A09B3893779B0F937E9B1693B8
:10548000859B1D938C9B2493939B2B939A9B329388
:10549000A19B3C9D39934B463C9305E028080000B6
:1054A000380800003C080000E868AE698146A96839
:1054B00028692B686A6880460691301C33990493EA
:1054C00005920BF0A2F96F6982462C99381C0BF0FB
:1054D0009CF9011C50460BF081F925998246404603
:1054E0000BF093F91E99834648460BF08EF9011C88
:1054F00058460BF073F9011C50460BF06FF91799E1
:10550000824606980BF081F91099834605980BF0B6
:105510007CF9011C58460BF061F9099983460498FF
:105520000BF073F9011C58460BF058F9011C50465A
:105530000BF054F934992060301C0BF066F92D996A
:105540008246381C0BF061F9011C50460BF046F9FD
:105550002699824640460BF058F91F9983464846E3
:105560000BF053F9011C58460BF038F9011C50465A
:105570000BF034F91899824606980BF046F9119908
:10558000834605980BF041F9011C58460BF026F9AB
:105590000A99834604980BF038F9011C58460BF021
:1055A0001DF9011C50460BF019F935996060301C4B
:1055B0000BF02BF92E998246381C0BF026F9011CB2
:1055C00050460BF00BF92799824640460BF01DF927
:1055D0002099834648460BF018F9011C58460BF0F9
:1055E000FDF8011C50460BF0F9F81999824606980F
:1055F0000BF00BF91299834605980BF006F9011C84
:1056000058460BF0EBF80B99834604980BF0FDF825
:10561000011C58460BF0E2F8011C50460BF0DEF876
:105620003699A060301C0BF0F0F82F998246381C98
:105630000BF0EBF8011C50460BF0D0F8289982468D
:1056400040460BF0E2F82199834648460BF0DDF81E
:10565000011C58460BF0C2F8011C50460BF0BEF876
:105660001A99824606980BF0D0F81399834605984C
:105670000BF0CBF8011C58460BF0B0F80C998346A0
:1056800004980BF0C2F8011C58460BF0A7F8011C57
:1056900050460BF0A3F83799E060301C0BF0B5F8DA
:1056A00030998246381C0BF0B0F8011C50460BF0C4
:1056B00095F82999824640460BF0A7F8229983462F
:1056C00048460BF0A2F8011C58460BF087F8011C65
:1056D00050460BF083F81B99824606980BF095F81C
:1056E0001499834605980BF090F8011C58460BF06E
:1056F00075F80D99834604980BF087F8011C5846FD
:105700000BF06CF8011C50460BF068F838992061DA
:10571000301C0BF07AF831998246381C0BF075F882
:10572000011C50460BF05AF82A99824640460BF06D
:105730006CF82399834648460BF067F8011C5846DD
:105740000BF04CF8011C50460BF048F81C998246AF
:1057500006980BF05AF81599834605980BF055F802
:10576000011C58460BF03AF80E99834604980BF04A
:105770004CF8011C58460BF031F8011C50460BF058
:105780002DF84946606124980BF03FF84146814668
:105790002B980BF03AF8011C48460BF01FF8391C07
:1057A000804632980BF031F8311C071C39980BF009
:1057B0002CF8011C381C0BF011F8011C40460BF0B2
:1057C0000DF80599061C16980BF01FF80699071C92
:1057D0001D980BF01AF8011C381C0AF0FFFF049901
:1057E000071C0F980BF011F8011C381C0AF0F6FF8B
:1057F000011C301C0AF0F2FF089B1C35A0611C3410
:105800009D4200D050E63C9BA2AC9946F6AB069375
:10581000DAAB08934B463C943D93079B586D1A684E
:105820008146996B186F0492069A80460591484606
:105830001E99DD691768D6690AF0E7FF2599824647
:1058400040460AF0E2FF011C50460AF0C7FF2C99BF
:105850008246381C0AF0D9FF33998346301C0AF07F
:10586000D4FF011C58460AF0B9FF011C50460AF04B
:10587000B5FF10998246281C0AF0C7FF1799834686
:1058800005980AF0C2FF011C58460AF0A7FF0999C3
:10589000834604980AF0B9FF011C58460AF09EFF9F
:1058A000011C50460AF09AFF20601F9948460AF0F2
:1058B000ACFF2699824640460AF0A7FF011C5046DD
:1058C0000AF08CFF2D998246381C0AF09EFF34990D
:1058D0008346301C0AF099FF011C58460AF07EFFEF
:1058E000011C50460AF07AFF11998246281C0AF0E2
:1058F0008CFF1899834605980AF087FF011C5846CB
:105900000AF06CFF0A99834604980AF07EFF011C96
:1059100058460AF063FF011C50460AF05FFF2099C9
:10592000606048460AF071FF2799824640460AF0B7
:105930006CFF011C50460AF051FF2E998246381C1C
:105940000AF063FF35998346301C0AF05EFF011CA4
:1059500058460AF043FF011C50460AF03FFF1299D7
:105960008246281C0AF051FF1999834605980AF0CF
:105970004CFF011C58460AF031FF0B9983460498EE
:105980000AF043FF011C58460AF028FF011C50464C
:105990000AF024FF2199A06048460AF036FF2899B2
:1059A000824640460AF031FF011C50460AF016FFBD
:1059B0002F998246381C0AF028FF36998346301CFE
:1059C0000AF023FF011C58460AF008FF011C50464C
:1059D0000AF004FF13998246281C0AF016FF1A9950
:1059E000834605980AF011FF011C58460AF0F6FE9E
:1059F0000C99834604980AF008FF011C58460AF0E7
:105A0000EDFE011C50460AF0E9FE2299E06048468E
:105A10000AF0FBFE2999824640460AF0F6FE011C78
:105A200050460AF0DBFE30998246381C0AF0EDFE43
:105A300037998346301C0AF0E8FE011C58460AF0EC
:105A4000CDFE011C50460AF0C9FE14998246281C5E
:105A50000AF0DBFE1B99834605980AF0D6FE011C6E
:105A600058460AF0BBFE0D99834604980AF0CDFE15
:105A7000011C58460AF0B2FE011C50460AF0AEFE68
:105A80002399206148460AF0C0FE2A998246404682
:105A90000AF0BBFE011C50460AF0A0FE3199824676
:105AA000381C0AF0B2FE38998346301C0AF0ADFE6D
:105AB000011C58460AF092FE011C50460AF08EFE68
:105AC00015998246281C0AF0A0FE1C998346059869
:105AD0000AF09BFE011C58460AF080FE0E99834690
