:020000041000EA
:1000000000B5324B212058609868022188439860DF
:10001000D860186158612E4B002199600221596106
:100020000121F02299502B49196001219960352056
:1000300000F044F80222904214D00621196600F024
:1000400034F8196E01211966002018661A6600F04E
:100050002CF8196E196E196E052000F02FF8012189
:100060000842F9D1002199601B49196000215960AB
:100070001A491B48016001219960EB211966A021F2
:10008000196600F012F800219960164914480160C1
:100090000121996001BC002800D000471248134993
:1000A000086003C880F30888084703B5996A0420EC
:1000B0000142FBD001200142F8D103BD02B5186610
:1000C0001866FFF7F2FF186E186E02BD00000240BE
:1000D000000000180000070000035F00212200005C
:1000E000F4000018222000A00001001008ED00E03C
:1000F00000000000000000000000000074B24E7A12
:1001000000200420F7010010C3010010C5010010F9
:10011000C1010010C1010010C1010010C101001097
:10012000C1010010C1010010C1010010C701001081
:10013000C1010010C1010010C9010010CB01001065
:10014000CD010010CD010010CD010010CD01001037
:10015000CD010010CD010010CD010010CD01001027
:10016000CD010010CD010010CD010010CD01001017
:10017000CD010010CD010010CD010010CD01001007
:10018000CD010010CD010010CD010010CD010010F7
:10019000CD010010CD010010CD010010CD010010E7
:1001A000CD010010CD010010CD010010CD010010D7
:1001B000CD010010CD010010CD010010CD010010C7
:1001C00000BE00BE00BE00BE00BE00BEEFF3058054
:1001D000103800BEF2EB8871A8680510C8680510D9
:1001E0003402001090A31AE700201F49086006C8D7
:1001F00081F3088810471D48006800282FD10DA4FE
:100200000ECC002902D000F012F8F9E71849194A7B
:10021000002000E001C19142FCD1174988471749ED
:1002200088471749884700BEFDE701C901C29A42C5
:10023000FBD37047C8680510C0000020602D002067
:100240006895051000000420000004206895051042
:10025000001004200010042000000000704709482E
:100260000EF0A8FF0047000008ED00E0000000D0FD
:10027000602D0020985C0320F9D800105503001071
:100280002DDA00105756000006005250ABB36053F1
:1002900098C6041006005250861C0302A8C604101B
:1002A000060052505422A29DB4C6041005005250BC
:1002B000DE65F46868950510F8B5C0460448054B3E
:1002C00010B5834203D0044B002B00D0984710BDDB
:1002D000602D0020602D0020000000000648074926
:1002E000091A8B10C90FC91810B5491003D0044B57
:1002F000002B00D0984710BD602D0020602D0020FD
:100300000000000010B5074C2378002B09D1FFF73F
:10031000D5FF054B002B02D0044800E000BF0123AD
:10032000237010BD683000200000000058C1041088
:10033000054B10B5002B03D00449054800E000BF71
:10034000FFF7CCFF10BDC046000000006C3000205D
:1003500058C1041070B519200BF02AFBD02380225D
:100360001B0692045A6210F0A1FF00F04BF807F050
:1003700021FA08F03FFF07F02DFC01F041F800F0F2
:100380003DF90AF0B3FA00220524144B1A7006F066
:10039000BBFE134D013C2100280010F07BFFFA202A
:1003A00080000CF011F9002CF4D10A2010F0D0FDDF
:1003B000012200210B480BF0C3FD0B4813F052F94A
:1003C00001220A4B0A4C1A702378012BFCD109F048
:1003D000CDF82378012BFAD0F6E7C046AE580320BB
:1003E00058C10410BC570320B1970010AD5803202A
:1003F000B258032010B5024813F05CFC10BDC04693
:100400005C380320092370B586B005930433049348
:10041000023B0393013B0293023B324D324C01936A
:10042000324B22003249334800932B0006F02AFB5E
:10043000142006F023FBFA2080000CF0C5F82E4EA5
:1004400021003200280006F035FD3378682B08D0F3
:100450002A4C200010F0C8FDFA2080000CF0B4F8FF
:10046000F7E773783D2BF3D101222100280006F035
:1004700045FD234E32002100280006F079FD337837
:10048000002BF7D101222100280006F0F5FB012105
:10049000200006F0D3FB0321200006F065FB0321BA
:1004A000280006F08FFC1321200006F0CFFD12215A
:1004B000200006F009FE0021200006F0E7FD0321E0
:1004C000200006F071FD0221200006F089FD552173
:1004D000200006F067FB1821280006F00DFC06B08E
:1004E00070BDC04630200320E831002040420F009C
:1004F0001C21002014210020685803206CC1041026
:10050000C9580320F0B5C646334C344D344E220052
:100510002900300000B506F0DFFC6378DB439B0761
:1005200020D023781B0702D404BC9046F0BD2D4C8C
:1005300006220021200010F0E5FB2100300006F02B
:100540009BFC0023E05E06F005FB274D286002239C
:10055000E05E06F0FFFA68600423E05E06F0FAFA57
:10056000A860E1E7214B062298461800002110F010
:10057000C9FB1F4F06220021380010F0C3FB414683
:10058000280006F05BFC3900280006F039FC4346E1
:100590000020185E06F0CAFA4346164D2860022075
:1005A000185E06F0C3FA434668600420185E06F041
:1005B000BDFAA8600023F85E06F0C2FA0E4D28606E
:1005C0000223F85E06F0BCFA68600423F85E06F0C9
:1005D000B7FAA860A5E7C046D04D0320E831002057
:1005E00030200320983D0320DC420320883D032077
:1005F000903D03201C3C0320383C0320F0B5C64648
:1006000000B510F053FE244924480DF003F90321EE
:100610001A200BF09DF903211B200BF099F9002201
:1006200001211A200BF0ACF9002201211B200BF054
:10063000A7F91B480BF0C8FF1A4C1B4E23781B4D23
:10064000DB070ED41A4B01279846210030880AF0A8
:1006500089FE4346287018680BF0B6FF23781F42C6
:10066000F3D030880AF05CFC0221287030880AF050
:10067000ADFD1421287030880AF0E0FC14212870A8
:1006800030880AF049FE287030880AF0ADFC2870E6
:1006900004BC9046F0BDC046801A0600F821002038
:1006A000B80B0000CA58032024210020B5580320AD
:1006B00028210020F0B55746DE464E464546E0B5B7
:1006C0008BB008919246190005900993DA1703231D
:1006D0008C46134063449B109B009846002B00DC23
:1006E0008FE05246159B00249B000193149B00252C
:1006F0009B1A159A9B1A089A9B00029353681268DA
:100700001901944606929A0003925246013A9200C9
:100710000792002291465A000491DF005146D318F7
:100720009B0042469B4623008E0066440092019A3D
:1007300094469C44039B5C19D8195346002B1EDD3C
:10074000069B05995A196346884600999B004344C5
:1007500088460095116819600099511A0D590432A4
:100760005D60CD599D600958D96010339642F1D132
:100770004346079A00936346944604339C440422FC
:10078000029B5C4463449446049AE1449446009A74
:1007900058442500070066444A45C8DC1C009046C2
:1007A000099B434526DD149A1598089B151A524655
:1007B0000ACBAD1A002A1DDD42469E0053439B0022
:1007C000C91853469800059B47469C46099BAB4673
:1007D0009846159B994600234C44A2006244CD588C
:1007E000D55004339842FAD1544401375C448919F6
:1007F000B845F0D10BB03CBC90469946A246AB46FA
:10080000F0BD0024CCE7C046F0B5CE46474680B5E3
:10081000002B1DDD002A1BDD940000190C6800254B
:10082000A0464C689100D200494252428C46914603
:10083000A400614646183100AA0042441768121904
:1008400080C18142FAD14A460135B01AAB42F0D19B
:100850000CBC90469946F0BDF0B5DE4657464E4674
:100860004546E0B599B00B9024980C93259B013038
:1008700001D122982490581C00D1229B2398C417A0
:1008800003202040239CA44660448010850007205C
:10089000229C02958443200001940C9C002C00DCD7
:1008A00085E20091190113912699249C09015118A0
:1008B0001691411EC9080131C801490109919900E9
:1008C000179126996B438C4663449B00D31812936F
:1008D0000023A400149415900493029B002B00DCC9
:1008E000C1E1099A009B944663441193169B0393BC
:1008F000002305930598049C0100A4460B9B039ECE
:100900000CCB59436144890051180D91411C594346
:100910006144890051180E91811C5943614489003A
:1009200051180F91C11C4B4363449B00D318109383
:10093000019B3400002B00DC44E2009B002598461C
:1009400000234446A946AA46AB46A8460795069505
:100950002F1C08950A9325683168281C0FF043FF67
:1009600059460FF029FF71688346281C0FF03BFFA2
:1009700051460FF021FFB1688246281C0FF033FF6B
:1009800049460FF019FFF1688146281C0FF02BFF34
:1009900008990FF011FF089065683169281C0FF065
:1009A00022FF391C0FF008FF7169071C281C0FF08B
:1009B0001AFF06990FF000FFB1690690281C0FF08E
:1009C00012FF07990FF0F8FEF1690790281C0FF04D
:1009D0000AFF41460FF0F0FE8046A568316A281CE8
:1009E0000FF001FF59460FF0E7FE716A8346281C9D
:1009F0000FF0F9FE51460FF0DFFEB16A8246281C67
:100A00000FF0F1FE49460FF0D7FEF16A8146281C2F
:100A10000FF0E9FE08990FF0CFFE0890E568316B02
:100A2000281C0FF0E0FE391C0FF0C6FE716B071C8E
:100A3000281C0FF0D8FE06990FF0BEFEB16B069091
:100A4000281C0FF0D0FE07990FF0B6FEF16B07904F
:100A5000281C0FF0C8FE41460FF0AEFE8046256907
:100A6000316C281C0FF0BFFE59460FF0A5FE716CCB
:100A70008346281C0FF0B7FE51460FF09DFEB16C67
:100A80008246281C0FF0AFFE49460FF095FEF16C30
:100A90008146281C0FF0A7FE08990FF08DFE0890E4
:100AA0006569316D281C0FF09EFE391C0FF084FE25
:100AB000716D071C281C0FF096FE06990FF07CFE46
:100AC000B16D0690281C0FF08EFE07990FF074FE92
:100AD000F16D0790281C0FF086FE41460FF06CFE6A
:100AE0008046A569316E281C0FF07DFE59460FF037
:100AF00063FE716E8346281C0FF075FE51460FF0A1
:100B00005BFEB16E8246281C0FF06DFE49460FF069
:100B100053FEF16E8146281C0FF065FE08990FF018
:100B20004BFE0890E569316F281C0FF05CFE391C04
:100B30000FF042FE716F071C281C0FF054FE06993F
:100B40000FF03AFEB16F0690281C0FF04CFE07998B
:100B50000FF032FEF16F0790281C0FF044FE414663
:100B60000FF02AFE8046803620340A9B019A083313
:100B70000A939A4200DDEEE6159A039B9446594685
:100B80006344381C1C000FF017FE5146071C0698E2
:100B90000FF012FE4946061C07980FF00DFE08994B
:100BA000814640460FF008FE119B051C9B46229B88
:100BB0001900019B994230DD9A46A8465B4620CB3E
:100BC0002168281C9B460FF00EFE011C381C0FF0FC
:100BD000F3FD6168071C281C0FF005FE011C301C8A
:100BE0000FF0EAFDA168061C281C0FF0FCFD011C9B
:100BF00048460FF0E1FDE1688146281C0FF0F3FD47
:100C0000011C40460FF0D8FD804601239C46229BE4
:100C1000E24410345345D1D1051C311C0E9E30687E
:100C20000FF0C7FD391C0D9F041C38680FF0C1FD83
:100C3000291C109D3860346028680FF0BAFD0F9EA3
:100C40004946041C30680FF0B4FD1399039A8C4692
:100C5000059B62440392029A0433306005932C6032
:100C60009A4200DD46E6239B029A934200DC92E022
:100C7000099A009B944663440593029B129D9846F3
:100C80000B9B9B465B465E6843465E43049BA946BE
:100C90009C465B461A6866449446B600019B6644CF
:100CA0000396002B00DC89E000232E0000249A46E6
:100CB000009F316838680FF096FD211C0FF07CFD15
:100CC000041C716878680FF08EFD211C0FF074FD14
:100CD000041CB168B8680FF086FD211C0FF06CFD94
:100CE000041CF168F8680FF07EFD211C0FF064FD14
:100CF000041C316938690FF076FD211C0FF05CFD92
:100D0000041C716978690FF06EFD211C0FF054FD11
:100D1000041CB169B8690FF066FD211C0FF04CFD91
:100D2000041CF169F8690FF05EFD211C0FF044FD11
:100D3000041C2036203708239C46019BE24453457F
:100D4000B7DC099B9946059BA9449A46229B019EC4
:100D5000B34210DD00274B46D9595346D8590FF0FE
:100D600042FD011C201C0FF027FD041C229B0136B4
:100D70000437B342EFD1211C039C20680FF019FD0A
:100D800001239C46179BE0449C46239B20606544BE
:100D9000434500D076E71499009A8C46049B624440
:100DA00000920C9A013304939A4200D095E519B051
:100DB0003CBC90469946A246AB46F0BD009B002441
:100DC0009A46C3E70025009BA9469B462E1C2F1C74
:100DD000EDE6C04630B587B00C4B02AD00951A6801
:100DE000694602929A880400AA809B796A46AB7190
:100DF000072301930023D3732FF010FF0098A8421C
:100E000001D00FF093FF200007B030BD80C1041067
:100E1000F0B5DE4657464E464546EA4BE0B518600B
:100E2000E94B0D1C1B68E94C98464146E84BE468C9
:100E30001960E54989B04968069059608946E34BD5
:100E4000E2491F684E68E34B89681F605E609960E5
:100E5000DC60E14B05949A6858681C680192049123
:100E60000290DB68211C404603930FF0BCFC019903
:100E7000824648460FF0B7FC011C50460FF09CFC20
:100E8000D64B82461968281C9B460FF0ACFC011C0F
:100E900050460FF091FCD24B0299186007904046E3
:100EA0009A460FF0A0FC0399804648460FF09BFC41
:100EB000011C40460FF080FC5B4680465968281CA8
:100EC0000FF091FC011C40460FF076FC554683461E
:100ED0006860211C381C0FF086FC019A051C111C4F
:100EE000301C90460FF07FFC011C281C0FF064FCA6
:100EF00002998146381C0FF076FC039F051C391CB3
:100F0000301C0FF070FC011C281C0FF055FC211C3C
:100F1000824604980FF067FC4146051C05980FF0C7
:100F200062FC011C281C0FF047FC464602998046D3
:100F300004980FF058FC391C051C059803970FF016
:100F400052FC011C281C0FF037FC4946071C201CD2
:100F50000FF049FC4146051C301C01960FF043FC84
:100F6000011C281C0FF028FC9E4D29680FF024FC62
:100F70009D4E514604903060201C0FF034FC391C0B
:100F8000041C01980FF02FFC011C201C0FF014FC16
:100F900069680FF011FC029C494601907060201CAA
:100FA0000FF021FC039AA1464146041C101C9046F8
:100FB0000FF019FC011C201C0FF0FEFBA9680FF0BC
:100FC000FBFB51460290B06048460FF00CFC391C08
:100FD000041C40460FF007FC011C201C0FF0ECFB2A
:100FE000E9680FF0E9FBF060804B051C1E6804986F
:100FF000311C5C680FF0F7FB211C804601980FF054
:10100000F2FB011C40460FF0D7FB311C0FF0EBFB4D
:10101000029A071C311C101C92460FF0E4FB211CA5
:101020008146281C0FF0DFFB011C48460FF0C4FB73
:10103000211C0FF0D8FB011C381C0FF0BDFB6C4BC2
:1010400019680FF0B9FB52466A4B071C1860211C47
:10105000504602920FF0C7FB011C40460FF0ACFB5C
:10106000391C0FF0ACFB6449804689460860019842
:10107000311C0FF0B8FB211C8246281C0FF0B3FB7B
:10108000011C50460FF098FB391C0FF098FB4946A5
:10109000079B071C4860181C311C9A460FF0A3FBE5
:1010A000211C814658460FF09EFB011C48460FF05C
:1010B00083FB011C06980FF07CFB414681460FF034
:1010C00092FB51460FF078FB3F4A391C10604846AE
:1010D0000FF089FB59460FF06FFB3B4A8146506089
:1010E000464A311C934640460FF07DFB5A46011C90
:1010F00010680FF05EFB311C8246381C0FF073FB4A
:101100005A46011C50680FF054FB211C061C404637
:101110000FF069FB5A46011C90680FF04AFB211C36
:101120008046381C0FF05FFB5A46011CD0680FF058
:1011300040FB5146041C04980FF055FB019B4146AF
:10114000071C181C9B460FF04EFB011C381C0FF0AF
:1011500033FB1E4A311C106004980FF044FB211C25
:10116000071C58460FF03FFB011C381C0FF024FBF6
:10117000164B51465860029A101C92460FF033FBF2
:101180004146071C281C0FF02EFB011C381C0FF0D9
:1011900013FB0E4B311C986050460FF024FB211CB2
:1011A000061C281C0FF01FFB011C301C0FF004FB59
:1011B000064BD860484609B03CBC90469946A246CA
:1011C000AB46F0BD94580320AC4C0320A02E002069
:1011D00084420320E02E0020002F0020783D0320D1
:1011E000BC4C0320F02D0020C02E0020D04C03204A
:1011F0007421032078420320F4310020202F0020A6
:10120000F0B5DE4657464E464546E0B5674B83B0DF
:1012100059689A460FF0CDFA654B051C1860654B6E
:101220001B689B46644B59461C680FF0C5FA211C8D
:101230000FF0D9FA614B061C1868011C0FF0BCFABC
:10124000011C301C0FF0BBFA5D4E31680FF0B4FA90
:101250005C4B009030601868011C0FF0ADFA5A4BDF
:10126000061C1A68111C91460FF0BDFA8046011C3D
:10127000201C0FF0A1FA211C071C40460FF099FA20
:10128000524A116890460FF0AEFA391C0FF097FAE7
:101290004946019048460FF08FFA59468146281C6E
:1012A0000FF087FA011C48460FF09DFA391C0FF029
:1012B00086FA011C01980FF07FFA424600991060EF
:1012C000071C281C0FF078FA391C0FF075FA404BF8
:1012D00019680FF088FA3F4B18603F4B186053466F
:1012E00019680FF066FA3D4B051C18603C4B1B68F3
:1012F000191C9A460FF060FA211C0FF074FA394B52
:1013000080461868011C0FF057FA011C40460FF088
:1013100056FA354B994619680FF04EFA4B4618604D
:10132000324B80461B68301C191C99460FF05BFA43
:101330008346011C201C0FF03FFA4946061C484614
:101340000FF03AFA51468146281C0FF032FA011C80
:1013500048460FF048FA311C0FF031FA211C814643
:1013600058460FF026FA391C0FF03DFA311C0FF0E9
:1013700026FA011C48460FF01FFA1D4B4146186023
:10138000041C281C0FF018FA211C0FF015FA194B39
:1013900019680FF028FA184B1860184B186003B042
:1013A0003CBC90469946A246AB46F0BDAC4C0320EF
:1013B000303E03207C4203204C21002030210020BD
:1013C00070420320402100200C320020143E0320F4
:1013D000382100202058032010580320343E0320D9
:1013E0008042032034210020744203201032002068
:1013F000183E03203C2100202458032028580320B5
:10140000F8B5FE2500241C4BAD051D60DD609C6019
:101410005C601A4B1A4F1D60DD609C605C60194B6C
:101420001E68194B301C19680FF0C9F9174B38604A
:101430001D605C60DD609C60154B7C601D605E60C3
:10144000DD609C60134B1C605D60134B18680FF0EF
:101450006BFA02000B000EF07AF90EF07DFA0F4BDA
:101460000F4A186012680F4B1A600F4A9C6012688E
:101470005C60DA60F8BDC046A02E0020C02E0020BF
:10148000783D03204C21002050210020202F0020F7
:10149000002F0020D04C03205C2100207421032069
:1014A0005C210320F02D002058210320F0B5DE46FA
:1014B00057464E464546E0B50E000168C768894666
:1014C000416805698A4681688DB08B4641698069AB
:1014D0000793069050681368926805910A90291C3A
:1014E00030680B92099308950FF063F90599039002
:1014F00070680FF05EF90699051CB0680FF059F995
:10150000804607980FF010FA80231B069C46039E26
:10151000009001916644514630000FF064F959463D
:10152000061C281C0FF05FF9011C301C0FF041F95C
:10153000391C061C404604970FF055F9011C301C5D
:101540000FF037F90FF0F0F90022684B0EF0FFF8BA
:10155000009A019B0EF0FBF8060048460F000FF0C2
:10156000E3F902000B0030003900169C0EF0C8F8B9
:101570000EF0F2F94946206003980FF034F959460D
:10158000061C40460FF02FF9011C301C0FF014F917
:101590000499061C281C0FF026F9011C301C0FF0C2
:1015A00008F90FF0C1F90022504B0EF0D0F8009A64
:1015B000019B0EF0CCF8060050460F000FF0B4F976
:1015C00002000B00300039000EF09AF80EF0C4F95A
:1015D00049466060281C0FF006F95146061C40463B
:1015E0000FF001F9011C301C0FF0E3F80499061C00
:1015F00003980FF0F8F8011C301C0FF0DDF80FF025
:1016000093F90022394B0EF0A2F8009A019B0EF0DC
:101610009EF8060058460F000FF086F902000B00F6
:10162000300039000EF06CF80EF096F94946A060D3
:1016300040460FF0D8F85146061C281C0FF0D3F88E
:10164000011C301C0FF0B8F85946051C03980FF028
:10165000CAF8011C281C0FF0ACF80FF065F9002245
:10166000224B0EF074F8009A019B0EF070F8060001
:1016700004980F000FF058F902000B0030003900F9
:101680000EF03EF80EF068F9089B0999E060181C0E
:1016900098460FF0A8F8079D291C0FF0A4F8011C2C
:1016A00040460FF086F8059F0A992061381C0FF01C
:1016B0009AF8291C0FF097F8011C381C0FF079F8E4
:1016C000069E0B996061301C0FF08DF8291C0FF0FD
:1016D0008AF8011C301C0FF06CF8A06100200DB0DE
:1016E0003CBC90469946A246AB46F0BD0000E03FA8
:1016F000F0B5DE4657464E4645468A464168E0B557
:101700008846C768816891B0066889464046391C9A
:10171000141C04930FF067F84946051C301C0FF0A9
:1017200062F80A90011C281C09950FF042F80FF08E
:10173000FBF802000B000DF0E3FF06900791201C60
:1017400002940FF0F1F80B00020004000D0006985F
:1017500007990DF0FCFF0EF0FFF85246391C10609F
:1017600048460FF040F883464146301C0FF03BF8E6
:101770005A460E90011C58460B920FF01DF80FF0C0
:10178000D3F802000B000DF0BBFF02000B0020009D
:1017900029000C920D930DF0DAFF0EF0DDF854469F
:1017A000311C6060301C0FF01EF84146041C40469E
:1017B0000FF019F8051C011C201C0EF0FAFF494619
:1017C000089048460FF00FF8391C8346381C0FF07C
:1017D0000AF85946019008980EF0EBFF01990EF0B7
:1017E000EBFF02990F900EF0FEFF534649469860BA
:1017F00040460EF0F8FF391C8046301C0EF0F3FF17
:1018000081461A980FF090F806001B980F000FF011
:101810008BF802900391291C201C0EF0CDFF594635
:101820000EF0C7FF01990EF0C4FF04990EF0DBFF24
:101830000FF07AF804000D00404649460EF0BCFF58
:101840000FF072F802000B000DF05AFF32003B005F
:101850000DF07DFF02000B00200029000DF050FF6D
:10186000029A039B04000D00069807990DF06FFF84
:1018700002000B00200029000DF042FF0EF06CF872
:101880005346D86004980FF04FF804000D0040460E
:1018900049460EF08EFF0FF047F802000B000DF0E6
:1018A0002FFF22002B00049405950DF050FF04003B
:1018B0000D00089859460EF07FFF01990EF079FF50
:1018C0001A990EF090FF0FF02FF802000B00200085
:1018D00029000DF015FF029A039B04000D000C98DF
:1018E0000D990DF034FF02000B00200029000DF0CF
:1018F00007FF0EF031F853460A99186109980EF067
:101900005BFF0FF011F802000B000DF0F9FE049AD6
:10191000059B0DF01CFF04000D000B980E990EF0B6
:1019200048FF0FF001F802000B000DF0E9FE320055
:101930003B000DF00CFF02000B00200029000DF011
:10194000DFFE04000D000F981B990EF04CFF0EF007
:10195000EBFF02000B00200029000DF0D1FE0DF07E
:10196000FBFF53465861002011B03CBC904699469D
:10197000A246AB46F0BDC046F0B50400DE46574671
:101980004E4645460800E0B545680968AA468568A0
:1019900095B0AB46C5684669876910910E95016997
:1019A000556810689268049690461A6806971192D6
:1019B0005A689B6812921393FE239B0523609946F5
:1019C0000EF0F7FE0EF0B0FF009001911E980EF0A1
:1019D000ABFF06000F00009801990022924B0DF01A
:1019E000B6FE32003B000DF0B2FE0DF0B5FF0499DB
:1019F0000390E061281C0EF0DCFE0EF095FF002243
:101A0000894B049005910DF0A2FE32003B000DF0D1
:101A10009EFE0DF0A1FF0699051CA06340460EF046
:101A2000C8FE0EF081FF00227F4B069007910DF05B
:101A30008EFE32003B000DF08AFE0DF08DFF0A9005
:101A4000606550460EF070FF0022784B08900991B7
:101A50000DF07DFE32003B000DF079FE0DF07CFFB5
:101A60000B90206758460EF05FFF00226F4B0C90E2
:101A70000D910DF06CFE32003B000DF068FE0DF094
:101A80006BFF8C238246E0500E980EF04DFF002233
:101A9000664B0E900F910DF05AFE32003B000DF098
:101AA00056FE0DF059FFA8238346E050002200980F
:101AB00001995E4B0DF04BFE32003B000DF047FEEE
:101AC0000DF04AFF494600906060216200220698AE
:101AD0000799564B0DF03BFE32003B000DF037FEF0
:101AE0000DF03AFFA5658046E06310980EF01CFFEC
:101AF00000224D4B0DF02BFE32003B000DF027FE77
:101B00000DF02AFF59469023051C60670022E15022
:101B10000C980D99444B0DF01AFE32003B000DF06D
:101B200016FE0DF019FFAC230022E0500498059931
:101B30003E4B0DF00CFE32003B000DF008FE0DF0A8
:101B40000BFF49460A9A83466262009AA0602164AC
:101B5000E2650E980F990022334B0DF0F8FD32002C
:101B60003B000DF0F4FD0DF0F7FE94230B99A067F8
:101B7000E5501C33E1504146E1605946A1624946B7
:101B800021665146039BE167636408980999002226
:101B9000254B0DF0DCFD32003B000DF0D8FD0DF0C3
:101BA000DBFE9823E0501C33E55000251E99119868
:101BB0002561E562A56465660EF015FE011C4846C8
:101BC0000EF0F7FD8023E0501C33E5501C33E55048
:101BD000343B1E99129865612563E564A566E5505E
:101BE0000EF001FE011C48460EF0E3FDA023E0507C
:101BF0001C33E550343BA56165632565E566E5501A
:101C00001C33E5501E9913980EF0EDFD011C48465B
:101C10000EF0CFFDC023E050002015B03CBC904634
:101C20009946A246AB46F0BD0000E0BF0000E03F91
:101C3000F0B5DE4657464E464546E0B59A460B6837
:101C4000141C8A689B464B68C9688BB00500101C41
:101C50008846009301920EF067FE02900391201CCB
:101C60000EF062FEC02306000F00029803990022C6
:101C70001B060DF06CFD32003B000DF068FD0DF011
:101C80006BFE0890286040460EF04EFE02000B00EE
:101C90000DF036FD32003B000DF059FD0DF05CFEFD
:101CA000041CA86158460EF03FFEC02300221B060C
:101CB000049005910DF04BFD32003B000DF047FD07
:101CC0000DF04AFE286300980EF02EFE02000B0075
:101CD000069007910DF014FD32003B000DF037FD2A
:101CE0000DF03AFE002190238946A8642966A96771
:101CF000E95068600498059902000B000DF000FDA2
:101D000032003B000DF023FD0DF026FE6C630490C5
:101D1000E8610298039902000B000DF0F1FC32001B
:101D20003B000DF014FD0DF017FE49469423E864C6
:101D30006966E967E950C02306980799049A1B066B
:101D4000AA6000220DF003FD32003B000DF0FFFC05
:101D50000DF002FE089B4946AB63802328622C6588
:101D6000A966E9501833E950404614990EF03BFD3E
:101D7000019F1599061C381C0EF035FD5146041CB8
:101D800058460EF030FD311C0EF016FD211C069455
:101D90000EF00FFD011C0EF00FFD51460990E8609A
:101DA00000980EF020FD1499041C381C01970EF0C9
:101DB0001AFD011C201C0EF0FFFC1599041C404666
:101DC0000EF011FD011C201C0EF0F6FC011C0EF0A3
:101DD000F3FC14990290686200980EF004FD1599C6
:101DE000089058460EF0FFFC019A80249446240681
:101DF0006444071C514620000EF0F5FC08990EF0D3
:101E0000DBFC391C0EF0D5FC011C0EF0D5FC14993E
:101E1000E86358460EF0E7FC1599049000980EF020
:101E2000E2FC802212064244041C514610000EF0CF
:101E3000DAFC04990EF0C0FC211C0EF0BDFC011C64
:101E40000EF0BAFC4A468423EA666865EA50183305
:101E5000EA505146286101980EF0C5FC08990EF031
:101E6000A8FC391C0EF0A8FC011C0EF0A5FC071CF8
:101E7000A8628020029B00062B64514658440EF055
:101E8000B2FC311C0EF095FC06990EF095FC011C7D
:101E90000EF092FC8823A86548462867E85018335E
:101EA000E850514640466F610EF09DFC04990EF0DB
:101EB00080FC211C0EF07DFC011C0EF07DFC099ABB
:101EC000E8626A64029B4A46EB654B466B678C236B
:101ED0000020EA501833EA500BB03CBC90469946BB
:101EE000A246AB46F0BDC046F0B54546DE46574675
:101EF0004E46E0B53B4CC723A54434AA9446634400
:101F00001B091B0105938B68049031930B68339177
:101F10001A6864462A929A692B921A6B2C929A6CD0
:101F20002D921A6E2E929A6F2F9290229A5830927A
:101F30005A680692DA6908925A6B0992DA6C0A9228
:101F40005A6E0B92DA6F0C9294229A580D929A68FC
:101F50000E921A6A0F929A6B10921A6D11929A6EE3
:101F6000129280229A58139298229A581492DA6800
:101F700015925A6A1692DA6B17925A6D1892DA6EA7
:101F8000199284229A581A929C229A581B921A6982
:101F900032941C929A6A1D921A6C1E929A6D1F922C
:101FA0001A6F209288229A582192A0229A5822923F
:101FB0005A692392DA6A24925A6C2592DA6D269233
:101FC0005A6F27928C229A582892A4229B582993C0
:101FD0004B689846C423434407934346E0461C009D
:101FE00002E0C046ACFDFFFFE168A26889462169B6
:101FF0002368484603912D99029201930EF0F3FB5A
:102000002E99824603980EF0EEFB011C50460EF00E
:10201000D3FB676982462F99381C0EF0E4FBA66952
:1020200083463099301C0EF0DEFB011C58460EF042
:10203000C3FB011C50460EF0BFFB656882462B991E
:10204000281C0EF0D0FB2C99834602980EF0CBFB97
:10205000011C58460EF0B0FB2A99834601980EF0F9
:10206000C2FB011C58460EF0A7FB011C50460EF0A7
:10207000A3FB4346494618600A980EF0B4FB039947
:1020800082460B980EF0AFFB011C50460EF094FBFD
:10209000391C82460C980EF0A6FB311C83460D9825
:1020A0000EF0A1FB011C58460EF086FB011C5046A9
:1020B0000EF082FB291C824608980EF094FB0299D0
:1020C000834609980EF08FFB011C58460EF074FBF6
:1020D0000199834606980EF086FB011C58460EF0C7
:1020E0006BFB011C50460EF067FB434649465860A7
:1020F00011980EF078FB0399824612980EF073FB4C
:10210000011C50460EF058FB391C824613980EF005
:102110006AFB311C834614980EF065FB011C58467F
:102120000EF04AFB011C50460EF046FB291C82466D
:102130000F980EF058FB0299834610980EF053FB4F
:10214000011C58460EF038FB019983460E980EF09C
:102150004AFB011C58460EF02FFB011C50460EF0A6
:102160002BFB43464946986018980EF03CFB0399B8
:10217000824619980EF037FB011C50460EF01CFBEE
:10218000391C82461A980EF02EFB311C83461B9890
:102190000EF029FB011C58460EF00EFB011C5046A8
:1021A0000EF00AFB291C824616980EF01CFB0299C1
:1021B000834617980EF017FB011C58460EF0FCFAE8
:1021C0000199834615980EF00EFB011C58460EF03F
:1021D000F3FA011C50460EF0EFFA43464946D86028
:1021E0001F980EF000FB0399824620980EF0FBFA30
:1021F000011C50460EF0E0FA391C824621980EF080
:10220000F2FA311C834622980EF0EDFA011C584672
:102210000EF0D2FA011C50460EF0CEFA291C82466E
:102220001D980EF0E0FA029983461E980EF0DBFA34
:10223000011C58460EF0C0FA019983461C980EF016
:10224000D2FA011C58460EF0B7FA011C50460EF0A7
:10225000B3FA43464946186126980EF0C4FA03992A
:10226000814627980EF0BFFA011C48460EF0A4FAEA
:10227000391C814628980EF0B6FA311C071C2998A3
:102280000EF0B1FA011C381C0EF096FA011C4846FB
:102290000EF092FA291C061C24980EF0A4FA02995A
:1022A000051C25980EF09FFA011C281C0EF084FADC
:1022B0000199051C23980EF096FA011C281C0EF0BB
:1022C0007BFA011C301C0EF077FA43465861182344
:1022D0009C46079B1C34E044A34200D084E6319A1C
:1022E0001368089393690993136B0A93936C0B9388
:1022F000136E0C93936F0D939023D3580E935368E2
:102300000F93D3691093536B1193D36C1293536E45
:102310001393D36F14939423D35815939368169300
:10232000136A1793936B1893136D1993936E1A9303
:102330008023D3581B939823D3581C93D3681D93A1
:10234000536A1E93D36B1F93536D2093D36E2193C7
:102350008423D35822939C23D35823931369249323
:10236000936A2593136C2693936D2793136F059CA3
:1023700028938823D35820342993A023D358A146E7
:102380002A9353692B93D36A2C93536C2D93D36D5B
:102390002E93536F2F938C23D3583093A423D35869
:1023A000319358AB0693329B1A0098461832079225
:1023B00043464246414640461B6895690193069B49
:1023C000146B096E926C40CB876F0291101C0B99B5
:1023D000039206930EF007FA0C99824602980EF0CB
:1023E00002FA011C50460EF0E7F90D998246381C9E
:1023F0000EF0F9F90E998346301C0EF0F4F9011C29
:1024000058460EF0D9F9011C50460EF0D5F909993D
:102410008246281C0EF0E7F90A998346201C0EF02C
:10242000E2F9011C58460EF0C7F908998346019855
:102430000EF0D9F9011C58460EF0BEF9011C5046A9
:102440000EF0BAF94B461299186003980EF0CBF9CA
:102450001399824602980EF0C6F9011C50460EF000
:10246000ABF914998246381C0EF0BDF915998346D4
:10247000301C0EF0B8F9011C58460EF09DF9011CF5
:1024800050460EF099F910998246281C0EF0ABF9CF
:1024900011998346201C0EF0A6F9011C58460EF037
:1024A0008BF90F99834601980EF09DF9011C58464F
:1024B0000EF082F9011C50460EF07EF94B46199938
:1024C000586003980EF08FF91A99824602980EF020
:1024D0008AF9011C50460EF06FF91B998246381C90
:1024E0000EF081F91C998346301C0EF07CF9011C1A
:1024F00058460EF061F9011C50460EF05DF917992F
:102500008246281C0EF06FF918998346201C0EF0A5
:102510006AF9011C58460EF04FF916998346019846
:102520000EF061F9011C58460EF046F9011C5046A8
:102530000EF042F94B462099986003980EF053F93B
:102540002199824602980EF04EF9011C50460EF079
:1025500033F922998246381C0EF045F923998346B7
:10256000301C0EF040F9011C58460EF025F9011CF4
:1025700050460EF021F91E998246281C0EF033F9C0
:102580001F998346201C0EF02EF9011C58460EF0B0
:1025900013F91D99834601980EF025F9011C584640
:1025A0000EF00AF9011C50460EF006F94B46279929
:1025B000D86003980EF017F92899824602980EF019
:1025C00012F9011C50460EF0F7F829998246381C82
:1025D0000EF009F92A998346301C0EF004F9011C0B
:1025E00058460EF0E9F8011C50460EF0E5F8259922
:1025F0008246281C0EF0F7F826998346201C0EF020
:10260000F2F8011C58460EF0D7F824998346019839
:102610000EF0E9F8011C58460EF0CEF8011C5046A9
:102620000EF0CAF84B462E99186103980EF0DBF8AD
:102630002F99824602980EF0D6F8011C50460EF0F3
:10264000BBF830998246381C0EF0CDF83199071C42
:10265000301C0EF0C8F8011C381C0EF0ADF8011C3F
:1026600050460EF0A9F82C99061C281C0EF0BBF859
:102670002D99051C201C0EF0B6F8011C281C0EF02C
:102680009BF82B99041C01980EF0ADF8011C201C3E
:102690000EF092F8011C301C0EF08EF84B4658617B
:1026A00004239C461433E0449C46079BE144984530
:1026B00000D07DE6339B059DDC68296A20680EF01A
:1026C0007BF8049EA96B306060680EF075F870604E
:1026D000A068296D0EF070F8B060E068A96E0EF089
:1026E0006BF88023F0602069E95898460EF064F892
:1026F00098233061E95860690EF05EF87061A06956
:10270000696A0EF059F8B061E069E96B0EF054F8AF
:10271000F061206A696D0EF04FF83062E96E606A10
:102720000EF04AF884277062A06AE9590EF044F866
:102730009C23B062E958E06A0EF03EF8F062206B2C
:10274000A96A0EF039F83063606B296C0EF034F82A
:102750007063A06BA96D0EF02FF8B063E06B296F6A
:102760000EF02AF80496F0638826206CA9590EF022
:1027700023F8049B1864A023606CE9580EF01CF841
:10278000049BE96A5864A06C0EF016F8049B696C0F
:102790009864E06C0EF010F8049BE96DD864206D2D
:1027A0000EF00AF8049B696F1865606D05950EF0D0
:1027B00003F88C25049A059B5065A06D59590DF0BE
:1027C000FBFFA423049A9065059AE06DD1580DF0A3
:1027D000F3FF0499059AC865206E116B0DF0ECFFAC
:1027E0000499059A0866916C606E0DF0E5FF0499F6
:1027F000059A4866A06E116E0DF0DEFF0499059AE9
:102800008866E06E916F0DF0D7FF90230499059ACA
:10281000C866206FD1580DF0CFFFA8230499059A00
:102820000867606FD1580DF0C7FF0499059A486793
:10283000A16F506B0DF0C0FF0499059A8867E16F96
:10284000D06C0DF0B9FF0499059AC867404621582D
:10285000506E0DF0B1FF4146049B059A5850E15966
:10286000D06F0DF0A9FF049BD8519423059FA15967
:10287000F8580DF0A1FF049B9851AC236159F8580A
:102880000DF09AFF049B585195239B009D443CBC3E
:1028900090469946A246AB46F0BDC046F0B54E46BE
:1028A0004546DE4657460023E0B51360836887B08F
:1028B0009846049200230268052691460093013B46
:1028C000019003910293052345469B1B9A465D4365
:1028D0004B46002B00D197E15544AD004D442B6889
:1028E0005C006B6864085F007F08391C381C0DF0C1
:1028F000CCFF002800D0E8E0211C381C0DF0C0FF00
:10290000002800D0E8E00027731C9B46012E53D01E
:10291000AB685B005B08191C181C98460DF0B5FFEE
:10292000002800D04DE14046211C0DF0A9FF0028F1
:1029300001D0444602275B46032B3DD0EB685B0089
:102940005B08191C181C98460DF09FFF002800D04A
:102950003FE14146201C0DF07DFF002801D0444698
:1029600003275B46042B27D02B695B005B08191CEF
:10297000181C98460DF089FF002800D031E141462F
:10298000201C0DF067FF002801D0444604275B4659
:10299000052B11D06D696D006D08291C281C0DF0E8
:1029A00074FF002800D024E1291C201C0DF052FFE8
:1029B000002801D005272C1C039B009A57440021B6
:1029C0009F50201C0DF03EFF002800D187E0029BA5
:1029D000013300D1EBE05746019B9B6898465F436B
:1029E00006239C1B06239B1BDF1943464246634379
:1029F0009D001C19002392009346009A9A46944623
:102A0000BF006544A4004F444D444C4439682868D5
:102A10000DF0E9FE011C20680DF0CBFE2060012EB8
:102A200029D0796828680DF0DEFE011C60680DF081
:102A3000C0FE6060022E1ED02968B8680DF0D3FE7B
:102A4000011CA0680DF0B5FEA060032E13D029680C
:102A5000F8680DF0C8FE011CE0680DF0AAFEE06009
:102A6000052E08D1296838690DF0BDFE011C2069CA
:102A70000DF09FFE206101239C46E2445D445C44CE
:102A80005645C3D1009B013E04330093002E00D075
:102A900019E70523039A00215361019B9A680132CB
:102AA00093009B184A469B0098580DF0CBFE0028D7
:102AB00003D0029B013300D1A3E0029807B03CBCD5
:102AC00090469946A246AB46F0BD211C201C0DF055
:102AD000DCFE002800D00FE73C1C012714E7574517
:102AE0002FD049464C46019ABB0000984B441D68C4
:102AF00092680958920025504844196081189B1823
:102B000008681C680C60186089189B1808681C68A5
:102B10000C60186089189B1808681C680C601860A5
:102B200089189B1808681C680C60186089189B1825
:102B300018680A6808601A60049A136805930133DC
:102B400013605746019B4A469B685F43984606239D
:102B50009C1B5346FB183D199B009B58AD004D44F0
:102B60002868191C9A460DF02AFE2860012E00D113
:102B700038E7686851460DF022FE6860022E00D1E9
:102B800030E7A86851460DF01AFEA860032E00D168
:102B900028E7E86851460DF012FEE860042E00D1E7
:102BA00020E7286951460DF00AFE28611AE75746CA
:102BB000019B9B6898465F4306239C1B53460293E8
:102BC00010E7211C201C0DF060FE002800D1B0E6AB
:102BD000A9E6211C201C0DF058FE002800D1BEE6FD
:102BE000B7E6211C201C0DF050FE002800D1CCE6D9
:102BF000C5E6211C201C0DF048FE002800D1D9E6B6
:102C0000D2E60523029358E71B68FFDEF0B5DE46E7
:102C10004E4645465746E0B589B001AF3A0005003B
:102C2000059005AB03CB03C26B682C005800AB6862
:102C30004008590049080DF0BFFD2B6859004908AC
:102C40000DF0BAFD2B69061C58006B69400859004D
:102C500049080DF0B1FDEB68590049080DF0ACFDD5
:102C6000011C301C0DF0A8FDEB69804658002B6A52
:102C70004008590049080DF09FFDAB69590049080B
:102C80000DF09AFDAB6A061C5800EB6A400859002B
:102C900049080DF091FD6B6A590049080DF08CFD53
:102CA000011C301C0DF088FD6B6B81465800AB6B2E
:102CB0004008590049080DF07FFD2B6B5900490869
:102CC0000DF07AFD2B6C061C58006B6C4008590007
:102CD00049080DF071FDEB6B590049080DF06CFDD2
:102CE000011C301C0DF068FD061C011C48460DF04F
:102CF000B1FD002800D14E464046311C0DF0AAFD22
:102D0000002800D14646E36C5800236D4008590066
:102D100049080DF051FDA36C590049080DF04CFD18
:102D2000A36D80465800E36D4008590049080DF036
:102D300043FD636D590049080DF03EFD011C4046FE
:102D40000DF03AFD636E80465800A36E40085900AE
:102D500049080DF031FD236E590049080DF02CFD96
:102D6000236F81465800636F4008590049080DF0F1
:102D700023FDE36E590049080DF01EFD011C484675
:102D80000DF01AFDE36F814658008023E15840089A
:102D9000490049080DF010FDA36F590049080DF0D6
:102DA0000BFD88238246E0580433E1584000490077
:102DB000490840080DF000FD8423E1584900490806
:102DC0000DF0FAFC011C50460DF0F6FC041C011C31
:102DD00048460DF03FFD002800D14C464046211CDE
:102DE0000DF038FD002800D14446211C301C0DF0A8
:102DF00031FD002800D1341CC0232900EC503A00DA
:102E0000BA3BA83104A806930495FFF747FD0121BA
:102E1000C422019B98260B405B428B430133AB5489
:102E2000343A9246002250469C272A509432A950A8
:102E30009346923AAA510132EA519D329446604635
:102E40009C3A2A50A03291469F3A90464A464046C4
:102E50002B00A85048461832AA58903392009A186E
:102E600014682C50404610606046B8222858AA5872
:102E70008046604692009A1814682C5040461060B4
:102E8000B422E859AA58844692009A1810685C4601
:102E9000E85160461060B022AA58AF5992009A18C3
:102EA0001068A8511760AC225846AA582E589200B4
:102EB0009A18106828511660A822AA585446920001
:102EC0009B1852461868AA5828511A60C523E9541D
:102ED00009B03CBC90469946A246AB46F0BDC04600
:102EE000C023002210B5C25000220433C2520B6826
:102EF000040003604B6843608B688360CB68C360E9
:102F00000B6903614B6943618B698361CB69C36161
:102F10000B6A03624B6A43628B6A8362CB6AC36249
:102F20000B6B03634B6B43638B6B8363CB6BC36331
:102F30000B6C03644B6C43648B6C8364CB6CC36419
:102F40000B6D03654B6D43658B6D8365CB6DC36501
:102F50000B6E03664B6E43668B6E8366CB6EC366E9
:102F60000B6F03674B6F43678B6F8367CB6FC367D1
:102F70008023CA58C2500433CA58C2500433CA58B6
:102F8000C2500433CA58C250FFF740FE200010BDA3
:102F900010B5037A0400002B07D00068002804D085
:102FA000431E1B78C01A0DF095FE200010BDC046D0
:102FB000F0B557464E464546DE46E0B5B5B006AFDD
:102FC000FB64EC23E84DF861F9633A67FB181E686F
:102FD0002B78BFF35B8FDB0700D484E2E34C63689C
:102FE000FA699A4633697B62B3683B62934200DDBB
:102FF0003A627A6A3B6A53439946FB6B534398465D
:103000008023DB05994500D351E233683B65002BF3
:1030100000D155E24B4600249D00A023A422FB18BA
:103020001C604B46BA18136080239B02AB42AD4133
:10303000A8236D42FB181D708023DB05984500D343
:1030400019E27368FB60002B00D11DE243460024A7
:103050009D00AC23B022FB181C604346BA181360D5
:1030600080239B02AB42AD41B4236D42FB181D701F
:1030700004237B64FB6B002B15DDE8203A18FB6909
:1030800012681900934200DAF3E1504609010CF08E
:10309000E7F80323C21713401B189B109B007B64A7
:1030A000042B00DAE2E1F969002900DC7BE17B6AAC
:1030B000B9611A00C91A9C463961E821F86C9B0075
:1030C00042433B60BA607B1862441B687A607A6C4A
:1030D0005343BB628300FB650433BB65431C9B0009
:1030E000BB667B181B689B007B66E023FB181B6894
:1030F0003B6300237B63BB637B613B668C20BB69C6
:103100003A1813607A6A934201DD3B181A60FB6B30
:10311000002B00DC18E18C23FB181B68002B00DC63
:1031200012E1FA6BBA647A6C53439B00FB62FB6852
:103130007B6700237B653B6498339A46BA448020C2
:10314000BB6C3A1813607A6C934201DD3B181A602D
:103150003A6B7B6D944690229B006344BA181360CF
:1031600084227B6BBA181360BB6BFB670023994604
:103170008C234A46FB181B689B1A9846BB67042B96
:1031800001DD042398463B6E94224B44FB66434684
:103190005E1E8423FB181B68BA189D003B6F9C467B
:1031A0009023FB181B6865441360002E46D09423BF
:1031B0008822FB181C680023B3462E00BA1813603F
:1031C00025687168281C0DF00EFB011C60680DF06D
:1031D000F0FA5B466060012B14D0B168281C0DF03A
:1031E00002FB011CA0680DF0E4FA5B46A060022B14
:1031F00008D0F168281C0DF0F6FA011CE0680DF00B
:10320000D8FAE0608822BB181B68BA180133136033
:103210007A6E94468022BA18126864449342CFD1E1
:103220009422BB6E35005E469C46BB181B68BA18DC
:103230000433013E65441360002EB8D14246BB6F93
:1032400051469C1A90225346BA1812681A60E82216
:10325000BA1812685A604B4601938C23FB181B68FE
:10326000424600938023FB181B68786FFDF722FA13
:10327000002C37DDFB6E3A6F43441D0094465246E6
:10328000FB6F3E6D5B199B00634413605346FA6C01
:1032900051465A60300023004246FDF7B5FA7B6D77
:1032A000E8229C46E023FB181B6865449C46534675
:1032B000BA181268AD0065441D605A604B4604930D
:1032C0008C23FB181B683100039343460293802331
:1032D000FB181B6850460193434600937A6F230006
:1032E000FDF7BAFA04239C46FA6DE1449446902215
:1032F000FB6F84216344FB67BB181B68BA1810334B
:103300001360BA6D7B1894461B687A186344136087
:103310008C23FB181B684B4500DD29E77A6CB96CE0
:1033200094463B6C8A1AB96A63448C46BA64F96A5B
:103330007A6D3B6462448C467A657A6F62447A6740
:10334000FA6B9A4200DDFAE67A6A3B6E9446FA69B5
:1033500063443B669A4226DD3A6A002A36DCF96904
:103360009B189942FCDC03E0B02203207438032050
:10337000BA697B6A7969D21ABA61BA680800944658
:1033800039697A68CB1A3B61BB6B604463449446ED
:10339000BB633A687B6B7861634494467B633B6BA9
:1033A00063443B63AAE6982414233A19D018FFF724
:1033B000EFFD08233A19D018FFF7EAFDBD462FB0FC
:1033C0003CBC90469946A246AB46F0BD3A6F7B693D
:1033D000944694229B006344BA1813603B6E3E6986
:1033E000984698239A4600239B46013B9946330012
:1033F000BA444646544698463B6AC246984500DD64
:103400009A4694238C22FB181B68B500EB182360A6
:10341000FB6CB9180A68386D210063605346FDF7EC
:10342000F3F9E02179180B68E82179189C460B68BC
:10343000654463605B46256004934B4603930293A7
:10344000FB6B200001938C23FB181B680093FA6828
:103450005346396DFDF700FA42463B6A9C46D31A43
:103460009846FB696644B342C6DC81E704237B646B
:1034700019E6110009E6012040420DF04FFC736887
:10348000FB60002B00D0E1E543469D0080239B02BA
:103490009D424AD82B006A461633DB08DB00D31A5C
:1034A0009D4627240F236C449C43FC60D1E50120FA
:1034B00040420DF033FC33683B65002B00D0A9E59A
:1034C0004B469D0080239B029D421ED82B006A46DE
:1034D0001633DB08DB00D31A9D4627240F236C44E8
:1034E0009C433C6599E5280010F0E2F81D4C00284B
:1034F00000D174E58023DB01236080231B032800B7
:103500006360A36010F0F0F869E5280010300DF05A
:10351000C3FB041E19D00F22102302409B1ADBB2FA
:10352000C418621E13703C6577E5280010300DF05A
:10353000B3FB041E0FD00F22102302409B1ADBB2F4
:10354000C418621E1370FC6083E5012040420DF038
:10355000E5FB3C6561E5012040420DF0DFFBFC60CE
:1035600077E5C04674380320F0B5DE4657464E4630
:103570004546E0B5B9B006AFFB67FC23384DB963EB
:10358000BA64FB181E682B788346BFF35B8FDB079A
:1035900000D4C1E2334C63689A4633697B61B368F7
:1035A0003B615B4501DD5B463B617A693B695343A7
:1035B0009946BB6B534398468023DB05994500D35E
:1035C0008EE233683B65002B00D192E24B4600242B
:1035D0009D00B023B422FB181C604B46BA18136040
:1035E00080239B02AB42AD41B8236D42FB181D7096
:1035F0008023DB05984500D356E27368FB61002BFE
:1036000000D15AE2434600249D00BC23C022FB188F
:103610001C604346BA18136080239B02AB42AD4145
:10362000C4236D42FB181D7004233B64BB6B002B4D
:103630001ADDF823FB181B6859469B4500DA2FE278
:10364000504609010BF00CFE0323C21713401B1850
:103650009B109B003B64042B00DA1EE204E0C04692
:10366000B0220320743803205B46002B00DC00E20C
:10367000FA6F78691100434259430B00F9605946CB
:103680000C1A110062431B1A9B00BA61BB600A004E
:103690000B0059464B43B96C5B448C46F0219B00B0
:1036A0006344FB627918830009685B427B605B4678
:1036B0008C46F8219B006344791809683B633B6C96
:1036C0007C634B433B6293005B423B66043B7B6500
:1036D0009B00BB65D3439B00A422BB668B007B662B
:1036E0005B46BA1813600300A422BA1812683B673D
:1036F000934200DD3A67BB6B002B00DC58E13A6F68
:10370000002A00DC54E17B643B6C396B53439B0023
:103710007B62FB69FB669300CB1ABB6200237B676D
:10372000FB63A433FB181B6803219B1ABB671300C0
:10373000013B043A8B43D31AFB6590227B6CBA1889
:1037400013603A6C934202DD9023FB181A60BA6A48
:103750007B6F94469B009C446246FA643A6B9446A5
:1037600098226344BA1813609422FB6ABA18136053
:103770003B6F9A465346D346042B01DD04239B46F8
:103780008022BB6FBA18534413605B465E1E7B6D8C
:10379000F96F99469423FB181A685B4690465B4282
:1037A0005B1A9B00A422C14498440123BA185B42CF
:1037B00013604B46FE20196880050DF000F88C233D
:1037C0009821FB181860A42379180968FB188C4607
:1037D00084211A687918931B9C009B005B420B6044
:1037E00093009C22BA181360A0220023BA186444E4
:1037F00013608423FB181B6888229C46A4446346FC
:10380000BA1813609C22BA18126899588C23FB18B6
:1038100018680CF0E8FF88239C22FB18BA181B6874
:103820001268051C9850002E20D0434619680CF0F1
:10383000DAFF011C20680CF0BCFF2060012E15D0BF
:103840004346281C59680CF0CEFF011C60680CF040
:10385000B0FF6060022E09D04346281C99680CF026
:10386000C2FF011CA0680CF0A4FFA060A023A0224E
:10387000FB181B68BA18013313607A6E94469022C5
:10388000BA18126864449342B3D1A423A422FB184B
:103890001B68BA18013B1360BB6E9C463B6EE1444B
:1038A0009C46E044013E84D25A4653469C1A8023EB
:1038B000FB181B68A8219D1AF022BA1812687B6FAA
:1038C0009446A8225B199B006344BA181360F8233E
:1038D000AC22FB181B68BA181360902301943E6F4A
:1038E000FB1800961B68F86E5A4679189946804670
:1038F000FCF7E0FE002C2DDDBA6FF96F94464D43C6
:10390000BA6C6544A8239446AD006544FB181D605D
:10391000AC23FB181960A82123005A46386D79188A
:10392000FCF772FFA823FD6CFB181D60F823FB1841
:103930001D68AC23FB181D605D464B46A820019313
:10394000049403960295009523004246396D381879
:10395000FCF782FF04235B429C46BA6DE244944626
:1039600094229833FB181B68BA1863441360982399
:103970009822FB181B68BA18103B1360FB6D534567
:1039800000D0F7E63A6C796C9446FB6B8A1A796A38
:1039900063448C467A64396AFA6EFB6362448C46EF
:1039A000FA667A6F62447A67BA6B9A4200DDC4E6BF
:1039B000A4227B6BBA181360002B5ADDBA6C1C0072
:1039C0009146BB6900259B0099440023CB469A464B
:1039D0003E69A046B44200DDB0464346002B2EDDD2
:1039E000A822AB009946BA185B441360AC22A82108
:1039F000FB6FBA181360386D43463A6F7918FCF7BD
:103A000003FFF023A822FB181B68BA184B4413606D
:103A1000F823AC22FB181B68BA18136053460493B2
:103A20000123A8205B4203930293BB6B38180193D8
:103A30003B6F0093FA694346396DFCF70DFF7B6BD2
:103A4000AD19A41BAB42C4DCFA68BB699446BA68E2
:103A500063449446BB617A68FB6A63449446FB62A4
:103A60003B6B7A6963443B637B6B9B1A7B631300FC
:103A70003AE6A8221423BA18D018FFF789FAA82228
:103A80000823BA18D018FFF783FABD4633B03CBC00
:103A900090469946A246AB46F0BD04233B64E3E55D
:103AA000F823FB181968CBE5012040420DF036F9E8
:103AB0007368FB61002B00D0A4E543469D00802382
:103AC0009B029D424AD82B006A461633DB08DB0076
:103AD000D31A9D4627240F236C449C43FC6194E534
:103AE000012040420DF01AF933683B65002B00D0ED
:103AF0006CE54B469D0080239B029D421ED82B0007
:103B00006A461633DB08DB00D31A9D4627240F23B1
:103B10006C449C433C655CE528000FF0C9FD1D4CDE
:103B2000002800D137E58023DB01236080231B03BD
:103B300028006360A3600FF0D7FD2CE5280010304B
:103B40000DF0AAF8041E19D00F22102302409B1A70
:103B5000DBB2C418621E13703C653AE528001030D1
:103B60000DF09AF8041E0FD00F22102302409B1A6A
:103B7000DBB2C418621E1370FC6146E501204042AE
:103B80000DF0CCF83C6524E5012040420DF0C6F86C
:103B9000FC613AE574380320F0B5DE4645464E46F2
:103BA0005746E0B5214C1600A5443AAA94460A00AF
:103BB0000B931F4B099063441B0904911D01FDAB3E
:103BC00013CA13C313CA13C31268FDA91A60194B91
:103BD000194A1B6847A80593184B47AC1B6801930B
:103BE000174B1B6806930093059BFEF721F83AAA32
:103BF000944647ABFD93FF93124BFFAA63441B68A7
:103C00000432FE9613608623DB009C46AC4460467B
:103C1000CCAAFDA90D90FEF767F96BAB0C932300BE
:103C20000A9498462C000E950EE0C0466CF6FFFFF5
:103C3000EF0300002C2003200AE81C41242003206D
:103C400028200320D80800004346404645461B680C
:103C5000806C05930C9BAF6F814620CB414640465C
:103C600042460C93A823096B006E92690791089055
:103C7000F158281C06920CF0B6FD8C238246F158B0
:103C8000381C0CF0B0FD011C50460CF095FD316F56
:103C9000824608980CF0A7FD716D834648460CF0EB
:103CA000A2FD011C58460CF087FD011C50460CF08B
:103CB00083FDB16B824607980CF095FDF169834650
:103CC00006980CF090FD011C58460CF075FD31680B
:103CD000834605980CF087FD011C58460CF06CFDDE
:103CE000011C50460CF068FDAC232060F158281CE4
:103CF0000CF079FD90238246F158381C0CF073FDCE
:103D0000011C50460CF058FD716F824608980CF06B
:103D10006AFDB16D834648460CF065FD011C5846AE
:103D20000CF04AFD011C50460CF046FDF16B82463A
:103D300007980CF058FD316A834606980CF053FD45
:103D4000011C58460CF038FD7168834605980CF04C
:103D50004AFD011C58460CF02FFD011C50460CF08A
:103D60002BFDB0236060F158281C0CF03CFD94231F
:103D70008246F158381C0CF036FD011C50460CF000
:103D80001BFDB16F824608980CF02DFDF16D834646
:103D900048460CF028FD011C58460CF00DFD011C96
:103DA00050460CF009FD316C824607980CF01BFD63
:103DB000716A834606980CF016FD011C58460CF0FB
:103DC000FBFCB168834605980CF00DFD011C5846BC
:103DD0000CF0F2FC011C50460CF0EEFCB423A06089
:103DE000F158281C0CF0FFFC98238246F158381C2F
:103DF0000CF0F9FC011C50460CF0DEFCF16F824621
:103E000008980CF0F0FC316E834648460CF0EBFC51
:103E1000011C58460CF0D0FC011C50460CF0CCFCA8
:103E2000716C824607980CF0DEFCB16A83460698F6
:103E30000CF0D9FC011C58460CF0BEFCF16883461E
:103E400005980CF0D0FC011C58460CF0B5FC011C88
:103E500050460CF0B1FCB823E060F158281C0CF07F
:103E6000C2FC9C238246F158381C0CF0BCFC011C9F
:103E700050460CF0A1FC80238246F15808980CF0C3
:103E8000B2FC716E834648460CF0ADFC011C5846EE
:103E90000CF092FC011C50460CF08EFCB16C82467A
:103EA00007980CF0A0FCF16A834606980CF09BFC86
:103EB000011C58460CF080FC3169834605980CF0D3
:103EC00092FC011C58460CF077FC011C50460CF08B
:103ED00073FCBC232061F158281C0CF084FCA02347
:103EE0008246F158381C0CF07EFC011C50460CF048
:103EF00063FC84238246F15808980CF074FCB16E80
:103F0000834648460CF06FFC011C58460CF054FCEC
:103F1000011C50460CF050FCF16C824607980CF0E6
:103F200062FC316B834606980CF05DFC011C584620
:103F30000CF042FC7169834605980CF054FC011C9E
:103F400058460CF039FC011C50460CF035FCF16E63
:103F5000606148460CF047FC88238146F158089878
:103F60000CF041FC011C48460CF026FCA4238146C1
:103F7000F158381C9A460CF036FCC023071CF15847
:103F8000281C0CF030FC011C381C0CF015FC011C2A
:103F900048460CF011FC716B051C06980CF023FCD4
:103FA000316D071C07980CF01EFC011C381C0CF02E
:103FB00003FCB169071C05980CF015FC011C381CAA
:103FC0000CF0FAFB011C281C0CF0F6FB04239C46A9
:103FD0004DABE044A0611C34984500D034E6D823B2
:103FE0000E9D9B00EC1820000D99FEF779FFA4238D
:103FF0009B009B46AB442100902258460CF088FE63
:10400000C8239B00EC18D033E918182220000CF0CC
:104010007FFECE239B00E818D033E91818220CF05D
:1040200077FE8422D423D200AA1812689B00EB18D2
:104030001A60D523744A2F00AA1812889B00EB1827
:10404000FE211A8000232268B0379200BA18890531
:10405000116093611363936413669367C92292009E
:10406000AA181268D13C9200BA18136091611363C8
:10407000936413669367CA229200AA181268FF3CE1
:104080009200BA1813609361116393641366936787
:10409000CB229200AA18126806209200BA18136068
:1040A00093611363916413669367CC229200AA18FC
:1040B00012689200BA1813609361136393641166D7
:1040C0009367CD229200AA1812689200BA18136062
:1040D00093611363936413660623A360E360236113
:1040E00098466B33FF339946A94491674A46203B73
:1040F000EA50802292009446AC4462464146626097
:104100004B3B02910539059203945A460191FF3BBE
:1041100005310097FEF74CFF4046A823A060E06001
:10412000206148465B00E85001214346059A06207D
:1041300062600394029301915A4600970531FFF79C
:1041400013FA2B68B8461C93EB69FDAC1D93AB6B5F
:104150001E936B6D1F932B6F20938C23EB58219331
:104160006B682B932B6A2C93EB6B2D93AB6D229387
:104170006B6F23939023EB582493AB6825936B6A62
:1041800026932B6C2793EB6D2893AB6F2993942385
:10419000EB582A93EB682E93AB6A1B936B6C0793D7
:1041A0002B6E0C93EB6F0D939823EB580E932B69AA
:1041B0000F93EB6A1093AB6C11936B6E2F9380236C
:1041C000EB5830939C23EB5831936B6912932B6B14
:1041D0001393EB6C34961493AB6E15938423EB58C6
:1041E0001693A023EB581793AB6918936B6B199335
:1041F0002B6D1A93EB6E32938823EB58089353463A
:10420000EB58339302E0C0462404000043461F6885
:104210005B6842469946434641469B68D2680E69B0
:104220004D691D984946059306920CF0DCFA0599F4
:1042300082461E980CF0D7FA011C50460CF0BCFACE
:10424000391C82461C980CF0CEFA011C50460CF02A
:10425000B3FA311C824620980CF0C5FA291C83461B
:1042600021980CF0C0FA011C58460CF0A5FA0699EA
:1042700083461F980CF0B7FA011C58460CF09CFAC4
:10428000011C50460CF098FA494620602C980CF01E
:10429000AAFA059982462D980CF0A5FA011C504601
:1042A0000CF08AFA391C82462B980CF09CFA011CFF
:1042B00050460CF081FA311C824623980CF093FA98
:1042C000291C834624980CF08EFA011C58460CF0E9
:1042D00073FA0699834622980CF085FA011C584619
:1042E0000CF06AFA011C50460CF066FA4946606010
:1042F00026980CF078FA0599824627980CF073FA04
:10430000011C50460CF058FA391C824625980CF0D6
:104310006AFA011C50460CF04FFA311C824629986B
:104320000CF061FA291C83462A980CF05CFA011CF7
:1043300058460CF041FA0699834628980CF053FA37
:10434000011C58460CF038FA011C50460CF034FAA7
:104350004946A0601B980CF046FA059982460798DA
:104360000CF041FA011C50460CF026FA391C82462A
:104370002E980CF038FA011C50460CF01DFA311C36
:1043800082460D980CF02FFA291C83460E980CF0EB
:104390002AFA011C58460CF00FFA069983460C982D
:1043A0000CF021FA011C58460CF006FA011C50468C
:1043B0000CF002FA4946E06010980CF014FA0599E6
:1043C000824611980CF00FFA011C50460CF0F4F9DB
:1043D000391C82460F980CF006FA011C50460CF06E
:1043E000EBF9311C824630980CF0FDF9291C83460C
:1043F00031980CF0F8F9011C58460CF0DDF90699DB
:1044000083462F980CF0EFF9011C58460CF0D4F9B4
:10441000011C50460CF0D0F94946206113980CF06D
:10442000E2F90599824614980CF0DDF9011C50461A
:104430000CF0C2F9391C824612980CF0D4F9011C18
:1044400050460CF0B9F9311C824616980CF0CBF9A5
:10445000291C834617980CF0C6F9011C58460CF02D
:10446000ABF90699834615980CF0BDF9011C584626
:104470000CF0A2F9011C50460CF09EF9494660610F
:1044800019980CF0B0F9059981461A980CF0ABF91F
:10449000011C48460CF090F9391C814618980CF024
:1044A000A2F9011C48460CF087F9311C071C08983A
:1044B0000CF099F9291C061C33980CF094F9011C96
:1044C000301C0CF079F90699051C32980CF08BF928
:1044D000011C281C0CF070F9011C381C0CF06CF944
:1044E00018239C46FFABA061A0331C34E044A342D8
:1044F00000D08BE6FD9BFE9A06937193FFAB5C6840
:104500000433FFAB9D680833FFABDF680C33FFABB0
:1045100010331B68FF990F937793FFAB1433079207
:1045200072921A68FFAB1833089173911968FFAB48
:104530001C330C9474941C68FFAB20330D95759557
:104540001D68FFAB2433349E0E97769710927892B5
:104550001191799112947A9413951F68FFAB2833C7
:104560001B687B9515937D93FFABDA6A2C33FFAB09
:10457000196B3033FFAB5C6B3433FFAB9D6B38335F
:10458000FFAB3C3314977C971F68FFAB40331B682D
:1045900016921B938393FFAB44337E921A68FFAB52
:1045A000483317917F911968FFAB4C33189480946E
:1045B0001C68FFAB5033199581951A9782971C920E
:1045C00084921D9185911E941D68FFAB5F6D5433DD
:1045D000FFAB58331B68869421938993FFABDA6D48
:1045E0005C33FFAB196E6033FFAB5C6E6433FFABC3
:1045F00068331F9587951D68FFAB6C3320978897AC
:104600001F68FFAB70331B68229227938F93FFAB19
:1046100074338A921A68FFAB783323918B911968AF
:10462000FFAB7C3324948C9425958D9526978E979B
:104630002892909229911C68FFAB80331D68FFABD4
:1046400084331F68FFAB88331B6891912D9395933A
:10465000FFAB8C331A68FFAB90331968FFAB943310
:104660002A9492941C68FFAB98332B9593951D6800
:10467000FFAB9C332C9794971F682E929692049AC6
:104680002F919791309498943195999532979A9764
:10469000FDAB32CA32C332CA32C31168FDAC1960F5
:1046A000FD49FE4B09681B680191FD49FD4A0968F7
:1046B0002000009141A9FDF71BF80B9F4199386834
:1046C0000CF077F84299834678680CF072F84399B9
:1046D000041CB8680CF06DF84499051CF8680CF0DF
:1046E00068F84599824638690B970CF062F80B9B85
:1046F000071C469958690CF05CF88046011C2D98FF
:104700000CF071F8391C814626980CF06CF8011CED
:1047100048460CF051F85346814651461F98059380
:104720000CF061F8011C48460CF046F8291C814643
:1047300018980CF058F8211C824611980CF053F888
:10474000011C50460CF038F85946824607980CF088
:104750004AF8011C50460CF02FF8011C48460CF09A
:104760002BF8049A51680CF027F841460B902E98CC
:104770000CF039F8391C814627980CF034F8011CEC
:1047800048460CF019F80599814620980CF02BF852
:10479000011C48460CF010F8291C814619980CF0B1
:1047A00022F8211C824612980CF01DF8011C50467C
:1047B0000CF002F85946824608980CF014F8011CD7
:1047C00050460BF0F9FF011C48460BF0F5FF049A28
:1047D00091680BF0F1FF414633902F980CF003F8ED
:1047E000391C814628980BF0FEFF011C48460BF04F
:1047F000E3FF0599814621980BF0F5FF011C48461F
:104800000BF0DAFF291C81461A980BF0ECFF211CF3
:10481000824613980BF0E7FF011C50460BF0CCFFCB
:10482000594682460C980BF0DEFF011C50460BF0F7
:10483000C3FF011C48460BF0BFFF049AD1680BF080
:10484000BBFF4146349030980BF0CDFF391C8146B8
:1048500029980BF0C8FF011C48460BF0ADFF0599E5
:10486000814622980BF0BFFF011C48460BF0A4FFC5
:10487000291C81461B980BF0B6FF211C8246149818
:104880000BF0B1FF011C50460BF096FF59468246D3
:104890000D980BF0A8FF011C50460BF08DFF011C7A
:1048A00048460BF089FF049A11690BF085FF4146D9
:1048B000359031980BF097FF391C81462A980BF000
:1048C00092FF011C48460BF077FF0599814623981B
:1048D0000BF089FF011C48460BF06EFF291C814636
:1048E0001C980BF080FF211C824615980BF07BFF73
:1048F000011C50460BF060FF594682460E980BF0A3
:1049000072FF011C50460BF057FF011C48460BF08C
:1049100053FF049A51690BF04FFF211C36901698F3
:104920000BF061FF291C81461D980BF05CFF011CF8
:1049300048460BF041FF594681460F980BF053FF54
:10494000011C48460BF038FF391C81462B980BF0B0
:104950004AFF4146824632980BF045FF011C504603
:104960000BF02AFF0599824624980BF03CFF011CAE
:1049700050460BF021FF011C48460BF01DFF049A26
:1049800091690BF019FF414681462C980BF02BFFE3
:10499000391C804625980BF026FF011C40460BF081
:1049A0000BFF0599071C1E980BF01DFF011C381CFE
:1049B0000BF002FF291C071C17980BF014FF211C99
:1049C000051C10980BF00FFF011C281C0BF0F4FEC7
:1049D0005946041C06980BF006FF011C201C0BF026
:1049E000EBFE011C381C0BF0E7FE049AFDAC1168CD
:1049F0000BF0E2FE099B0B9A18605A60339A9A609A
:104A0000349ADA60359A1A61369A5A614A469A613E
:104A10003368CC937368CD93B368CE93F368CF9328
:104A20003369D0937369D193B369D293F369D39304
:104A3000336AD493736AD593B36AD693F36AD793E0
:104A4000336BD893736BD993B36BDA93F36BDB93BC
:104A5000336CDC93736CDD93B36CDE93F36CDF9398
:104A6000336DE093736DE193B36DE293F36DE39374
:104A7000336EE493736EE593B36EE693F36EE79350
:104A8000336FE893736FE993B36FEA93F36FEB932C
:104A90008023F358EC9307E0242003202C200320EC
:104AA000282003200AE81C418423F358ED9388232F
:104AB000F358EE938C23F358EF939023F358F0932D
:104AC0009423F358F1939823F358F2939C23F358CB
:104AD0000B96F393A023F358F493A423F358F59380
:104AE000A823F358F693AC23F358F793B023F35865
:104AF000F893B423F358F993B823F358FA93BC23EB
:104B0000F358FB93C023F358FC930A9B10985A6800
:104B10001F6891469A6849469046DA681E695D6941
:104B200005920BF060FE4146824617980BF05BFE43
:104B3000011C50460BF040FE391C824606980BF0D3
:104B400052FE011C50460BF037FE311C8246259860
:104B50000BF049FE291C83462C980BF044FE011CE7
:104B600058460BF029FE059983461E980BF03BFE34
:104B7000011C58460BF020FE011C50460BF01CFE99
:104B80004946206011980BF02EFE41468246189847
:104B90000BF029FE011C50460BF00EFE391C82461C
:104BA00007980BF020FE011C50460BF005FE311C4F
:104BB000824626980BF017FE291C83462D980BF091
:104BC00012FE011C58460BF0F7FD059983461F980D
:104BD0000BF009FE011C58460BF0EEFD011C50467F
:104BE0000BF0EAFD4946606012980BF0FCFD41466F
:104BF000824619980BF0F7FD011C50460BF0DCFDC6
:104C0000391C824608980BF0EEFD011C50460BF053
:104C1000D3FD311C824627980BF0E5FD291C834605
:104C20002E980BF0E0FD011C58460BF0C5FD0599D0
:104C3000834620980BF0D7FD011C58460BF0BCFDB5
:104C4000011C50460BF0B8FD4946A06013980BF0CC
:104C5000CAFD414682461A980BF0C5FD011C50461C
:104C60000BF0AAFD391C82460C980BF0BCFD011C10
:104C700050460BF0A1FD311C824628980BF0B3FD85
:104C8000291C83462F980BF0AEFD011C58460BF0F3
:104C900093FD0599834621980BF0A5FD011C58460C
:104CA0000BF08AFD011C50460BF086FD4946E06082
:104CB00014980BF098FD414682461B980BF093FD2B
:104CC000011C50460BF078FD391C82460D980BF004
:104CD0008AFD011C50460BF06FFD311C824629985D
:104CE0000BF081FD291C834630980BF07CFD011CE4
:104CF00058460BF061FD0599834622980BF073FD31
:104D0000011C58460BF058FD011C50460BF054FD99
:104D10004946206115980BF066FD414682461C9875
:104D20000BF061FD011C50460BF046FD391C82461C
:104D30000E980BF058FD011C50460BF03DFD311C48
:104D400082462A980BF04FFD291C834631980BF0C0
:104D50004AFD011C58460BF02FFD05998346239808
:104D60000BF041FD011C58460BF026FD011C50467E
:104D70000BF022FD4946606116980BF034FD414668
:104D800081461D980BF02FFD011C48460BF014FDC9
:104D9000391C80460F980BF026FD011C40460BF095
:104DA0000BFD311C071C2B980BF01DFD291C061C4C
:104DB00032980BF018FD011C301C0BF0FDFC05991E
:104DC000051C24980BF00FFD011C281C0BF0F4FCB3
:104DD000011C381C0BF0F0FC0A9BA06118330A93ED
:104DE000FFAB1C34BC33A34200D08EE6C4239C46E8
:104DF0000B9ECCADB444634634003C960A930896AF
:104E00002369A6699846E36821689946A3686268A1
:104E10000793FFABA0330591301C196806920BF085
:104E2000E2FC6769FFAB843319688246381C0BF0DB
:104E3000DAFC011C50460BF0BFFCFFAB996E8246BA
:104E4000404668330BF0CFFCFFABD96C8346484635
:104E50004C330BF0C8FC011C58460BF0ADFC011C98
:104E600050460BF0A9FCFFAB196B82460798303314
:104E70000BF0B9FCFFAB59698346069814330BF06D
:104E8000B2FC011C58460BF097FCFD99834605982F
:104E90000BF0A9FC011C58460BF08EFC011C50467F
:104EA0000BF08AFC011C28680BF083FCFFABA433D9
:104EB00028601968301C0BF096FCFFAB883319682A
:104EC0008246381C0BF08FFC011C50460BF074FC22
:104ED000FFABD96E824640466C330BF084FCFFABCF
:104EE000196D8346484650330BF07DFC011C584633
:104EF0000BF062FC011C50460BF05EFCFFAB596BE3
:104F00008246079834330BF06EFCFFAB99698346F9
:104F1000069818330BF067FC011C58460BF04CFC4C
:104F2000FE99834605980BF05EFC011C58460BF079
:104F300043FC011C50460BF03FFC011C68680BF061
:104F400038FCFFABA83319686860301C0BF04BFCD1
:104F5000FFAB8C3319688246381C0BF044FC011CF3
:104F600050460BF029FCFFAB8246196F4046703368
:104F70000BF039FCFFAB596D8346484654330BF0B8
:104F800032FC011C58460BF017FC011C50460BF07C
:104F900013FCFFAB996B8246079838330BF023FC68
:104FA000FFABD969834606981C330BF01CFC011C2F
:104FB00058460BF001FCFF99834605980BF013FC53
:104FC000011C58460BF0F8FB011C50460BF0F4FB9B
:104FD000011CA8680BF0EDFBFFABAC331968A860AF
:104FE000301C0BF000FCFFAB903319688246381C74
:104FF0000BF0F9FB011C50460BF0DEFBFFAB596FC9
:105000008246404674330BF0EEFBFFAB996D83464E
:10501000484658330BF0E7FB011C58460BF0CCFB1D
:10502000011C50460BF0C8FBFFAB8246D96B0798BA
:105030003C330BF0D8FBFFAB196A8346069820334C
:105040000BF0D1FB011C58460BF0B6FBFFAB5968C7
:105050008346059804330BF0C6FB011C58460BF041
:10506000ABFB011C50460BF0A7FB011CE8680BF0E2
:10507000A0FBFFABB0331968E860301C0BF0B3FB4A
:10508000FFAB943319688246381C0BF0ACFB011C53
:1050900050460BF091FBFFAB996F82464046783348
:1050A0000BF0A1FBFFABD96D834648465C330BF098
:1050B0009AFB011C58460BF07FFB011C50460BF07D
:1050C0007BFBFFAB196C8246079840330BF08BFBE0
:1050D000FFAB596A8346069824330BF084FB011C0E
:1050E00058460BF069FBFFAB996883460598083377
:1050F0000BF079FB011C58460BF05EFB011C50467F
:105100000BF05AFB011C28690BF053FBFFABB433C7
:1051100019682861301C0BF066FBFFAB98331968E7
:105120008246381C0BF05FFB011C50460BF044FB21
:10513000FFABD96F824640467C330BF054FBFFAB8C
:10514000196E8346484660330BF04DFB011C5846F0
:105150000BF032FB011C50460BF02EFBFFAB596CE1
:105160008246079844330BF03EFBFFAB996A8346B7
:10517000069828330BF037FB011C58460BF01CFB3C
:10518000FFABD968834605980C330BF02CFB011C50
:1051900058460BF011FB011C50460BF00DFB011C97
:1051A00068690BF006FBFFAB596E686148466433D3
:1051B0000BF019FBFFAB80331968814640460BF0BA
:1051C00012FB011C48460BF0F7FAFFAB9C33196841
:1051D0008046381C0BF007FBFFABB8331968071C7F
:1051E000301C0BF000FB011C381C0BF0E5FA011C15
:1051F00040460BF0E1FAFFABD96A061C06982C3347
:105200000BF0F1FAFFAB996C071C079848330BF0D1
:10521000EAFA011C381C0BF0CFFAFFAB1969071C26
:10522000059810330BF0DFFA011C381C0BF0C4FAA0
:10523000011C301C0BF0C0FA011CA8690BF0B9FA74
:105240000A9B1C34A8611C359C4200D0D8E5089EFE
:10525000CC9B3360CD9B7360CE9BB360CF9BF360E0
:10526000D09B3361D19B7361D29BB361D39BF361BC
:10527000D49B3362D59B7362D69BB362D79BF36298
:10528000D89B3363D99B7363DA9BB363DB9BF36374
:10529000DC9B3364DD9B7364DE9BB364DF9BF36450
:1052A000E09B3365E19B7365E29BB365E39BF3652C
:1052B000E49B3366E59B7366E69BB366E79BF36608
:1052C000E89B3367E99B7367EA9BB367EB9BF367E4
:1052D0008023EC9AF250ED9A0433F250EE9A0433A4
:1052E000F250EF9A0433F250F09A0433F250F19AEC
:1052F0000433F250F29A0433F250F39A0433F2502A
:10530000F49A0433F250F59A0433F250F69A0433C7
:10531000F250F79A0433F250F89A0433F250F99AA3
:105320000433F250FA9A0433F250FB9A0433F250E9
:10533000FC9A0433F2503AAA8D2394461B0163442D
:105340001B68CCAA13CB13C28E231B0163441B68BA
:10535000FDAC07CB07C4049B099D0093494B280073
:105360006344CCA91B68FDAAFCF7A0F82B00FDAA9A
:1053700023CB23C2220013CB13C21B683AA91360AC
:105380008D238C463EAA11001B0163441B6831CB60
:1053900031C18E231B0163441B68CCA931CB31C1C1
:1053A000384BFDA963441B689BA80093CCABFCF76A
:1053B000E3FAFDAB08931C009B9B0B93A29B1293FB
:1053C000A99B1993B09B2093B79B2793BE9B2E93C9
:1053D000C59B35939C9B0C93A39B1393AA9B1A93F9
:1053E000B19B2193B89B2893BF9B2F93C69B369369
:1053F0009D9B0D93A49B1493AB9B1B93B29B2293F9
:10540000B99B2993C09B3093C79B37939E9B0E9368
:10541000A59B1593AC9B1C93B39B2393BA9B2A9398
:10542000C19B3193C89B38939F9B0F93A69B169368
:10543000AD9B1D93B49B2493BB9B2B93C29B329338
:10544000C99B3993A09B1093A79B1793AE9B1E9368
:10545000B59B2593BC9B2C93C39B3393CA9B3A93D8
:10546000A19B1193A89B1893AF9B1F93B69B269368
:10547000BD9B2D93C49B3493CB9B3B933C9B3C9611
:10548000984601E0E40800004146C9684046894664
:10549000414642464346866909691B6855689268D9
:1054A00047690791301C3599059306920BF09BF9DB
:1054B0002E998246381C0BF096F9011C50460BF0D1
:1054C0007BF92799824607980BF08DF9209983463E
:1054D00048460BF088F9011C58460BF06DF9011C89
:1054E00050460BF069F91999824606980BF07BF942
:1054F00012998346281C0BF076F9011C58460BF0D4
:105500005BF90B99834605980BF06DF9011C584621
:105510000BF052F9011C50460BF04EF93699206001
:10552000301C0BF060F92F998246381C0BF05BF9A8
:10553000011C50460BF040F92899824607980BF061
:1055400052F92199834648460BF04DF9011C584603
:105550000BF032F9011C50460BF02EF91A998246D5
:1055600006980BF040F913998346281C0BF03BF981
:10557000011C58460BF020F90C99834605980BF056
:1055800032F9011C58460BF017F9011C50460BF07C
:1055900013F9311C606037980BF025F9391C8246ED
:1055A00030980BF020F9011C50460BF005F92999B1
:1055B000824607980BF017F92299834648460BF06C
:1055C00012F9011C58460BF0F7F8011C50460BF07D
:1055D000F3F81B99824606980BF005F91499834657
:1055E000281C0BF000F9011C58460BF0E5F80D994A
:1055F000834605980BF0F7F8011C58460BF0DCF8D1
:10560000011C50460BF0D8F8311CA06038980BF004
:10561000EAF8391C824631980BF0E5F8011C504637
:105620000BF0CAF8079982462A980BF0DCF8494635
:10563000834623980BF0D7F8011C58460BF0BCF8B2
:10564000011C50460BF0B8F8069982461C980BF0E6
:10565000CAF8291C834615980BF0C5F8011C58465A
:105660000BF0AAF8059983460E980BF0BCF8011CC4
:1056700058460BF0A1F8011C50460BF09DF8311C68
:10568000E06039980BF0AFF8391C824632980BF085
:10569000AAF8011C50460BF08FF8079982462B9808
:1056A0000BF0A1F84946834624980BF09CF8011CA6
:1056B00058460BF081F8011C50460BF07DF8069916
:1056C00082461D980BF08FF8291C834616980BF024
:1056D0008AF8011C58460BF06FF8059983460F981D
:1056E0000BF081F8011C58460BF066F8011C50467F
:1056F0000BF062F8311C20613A980BF074F8391CF9
:10570000824633980BF06FF8011C50460BF054F8AA
:10571000079982462C980BF066F8494683462598EF
:105720000BF061F8011C58460BF046F8011C50467E
:105730000BF042F8069982461E980BF054F8291C8B
:10574000834617980BF04FF8011C58460BF034F8BD
:105750000599834610980BF046F8011C58460BF04B
:105760002BF8011C50460BF027F84946606126983B
:105770000BF039F8079981462D980BF034F8011C8D
:1057800048460BF019F8391C814634980BF02BF879
:10579000311C071C3B980BF026F8011C381C0BF041
:1057A0000BF8011C48460BF007F8291C061C18983A
:1057B0000BF019F80699051C1F980BF014F8011C42
:1057C000281C0AF0F9FF0599051C11980BF00BF83D
:1057D000011C281C0AF0F0FF011C301C0AF0ECFF31
:1057E0001C239C460A9BE044A0611C34984500D0D1
:1057F0004AE6FFAB84333C9E0793FFABCCAC14333B
:105800003C940A933D96089B1A68586D0592079A36
:10581000996BD6698146186F06918046311C359880
:10582000DD6917680AF0DFFF391C82462E980AF0FE
:10583000DAFF011C50460AF0BFFF41468246279816
:105840000AF0D1FF2099834648460AF0CCFF011C9C
:1058500058460AF0B1FF011C50460AF0ADFF1999F5
:10586000824606980AF0BFFF12998346281C0AF068
:10587000BAFF011C58460AF09FFF0B998346059812
:105880000AF0B1FF011C58460AF096FF011C504671
:105890000AF092FF311C206036980AF0A4FF391CF0
:1058A00082462F980AF09FFF011C50460AF084FFA1
:1058B0004146824628980AF096FF49468346219839
:1058C0000AF091FF011C58460AF076FF011C504671
:1058D0000AF072FF069982461A980AF084FF291C82
:1058E000834613980AF07FFF011C58460AF064FFB4
:1058F000059983460C980AF076FF011C58460AF079
:105900005BFF011C50460AF057FF311C606037985E
:105910000AF069FF391C824630980AF064FF011CC6
:1059200050460AF049FF4146824629980AF05BFF3B
:105930004946834622980AF056FF011C58460AF051
:105940003BFF011C50460AF037FF069982461B9820
:105950000AF049FF291C834614980AF044FF011CF1
:1059600058460AF029FF059983460D980AF03BFF37
:10597000011C58460AF020FF011C50460AF01CFF8B
:10598000311CA06038980AF02EFF391C82463198ED
:105990000AF029FF011C50460AF00EFF41468246DC
:1059A0002A980AF020FF4946834623980AF01BFFF5
:1059B000011C58460AF000FF011C50460AF0FCFE8C
:1059C000069982461C980AF00EFF291C83461598FA
:1059D0000AF009FF011C58460AF0EEFE05998346BD
:1059E0000E980AF000FF011C58460AF0E5FE011C63
:1059F00050460AF0E1FE311CE06039980AF0F3FEEF
:105A0000391C824632980AF0EEFE011C50460AF01C
:105A1000D3FE414682462B980AF0E5FE494683466E
:105A200024980AF0E0FE011C58460AF0C5FE011C4D
:105A300050460AF0C1FE069982461D980AF0D3FE30
:105A4000291C834616980AF0CEFE011C58460AF01F
:105A5000B3FE059983460F980AF0C5FE011C58460F
:105A60000AF0AAFE011C50460AF0A6FE311C206175
:105A70003A980AF0B8FE391C824633980AF0B3FE11
:105A8000011C50460AF098FE414682462C980AF0C6
:105A9000AAFE4946834625980AF0A5FE011C5846F1
:105AA0000AF08AFE011C50460AF086FE06998246DC
:105AB0001E980AF098FE291C834617980AF093FE58
:105AC000011C58460AF078FE0599834610980AF0A2
:105AD0008AFE011C58460AF06FFE011C50460AF06F
