:020000041000EA
:1000000000B5324B212058609868022188439860DF
:10001000D860186158612E4B002199600221596106
:100020000121F02299502B49196001219960352056
:1000300000F044F80222904214D00621196600F024
:1000400034F8196E01211966002018661A6600F04E
:100050002CF8196E196E196E052000F02FF8012189
:100060000842F9D1002199601B49196000215960AB
:100070001A491B48016001219960EB211966A021F2
:10008000196600F012F800219960164914480160C1
:100090000121996001BC002800D000471248134993
:1000A000086003C880F30888084703B5996A0420EC
:1000B0000142FBD001200142F8D103BD02B5186610
:1000C0001866FFF7F2FF186E186E02BD00000240BE
:1000D000000000180000070000035F00212200005C
:1000E000F4000018222000A00001001008ED00E03C
:1000F00000000000000000000000000074B24E7A12
:1001000000200420F7010010C3010010C5010010F9
:10011000C1010010C1010010C1010010C101001097
:10012000C1010010C1010010C1010010C701001081
:10013000C1010010C1010010C9010010CB01001065
:10014000CD010010CD010010CD010010CD01001037
:10015000CD010010CD010010CD010010CD01001027
:10016000CD010010CD010010CD010010CD01001017
:10017000CD010010CD010010CD010010CD01001007
:10018000CD010010CD010010CD010010CD010010F7
:10019000CD010010CD010010CD010010CD010010E7
:1001A000CD010010CD010010CD010010CD010010D7
:1001B000CD010010CD010010CD010010CD010010C7
:1001C00000BE00BE00BE00BE00BE00BEEFF3058054
:1001D000103800BEF2EB8871D4410510F4410510CF
:1001E0003402001090A31AE700201F49086006C8D7
:1001F00081F3088810471D48006800282FD10DA4FE
:100200000ECC002902D000F012F8F9E71849194A7B
:10021000002000E001C19142FCD1174988471749ED
:1002200088471749884700BEFDE701C901C29A42C5
:10023000FBD37047F4410510C0000020902C002033
:10024000C46D05100000042000000420C46D0510DA
:10025000001004200010042000000000704709482E
:100260000DF006F90047000008ED00E0000000D0A6
:10027000902C0020C058032065BC001055030010CE
:1002800099BD00105756000006005250ABB36053A2
:10029000A89D041006005250861C0302B89D04104D
:1002A000060052505422A29DC49D041005005250D5
:1002B000DE65F468C46D0510F8B5C0460448054B0A
:1002C00010B5834203D0044B002B00D0984710BDDB
:1002D000902C0020902C00200000000006480749C8
:1002E000091A8B10C90FC91810B5491003D0044B57
:1002F000002B00D0984710BD902C0020902C00209F
:100300000000000010B5074C2378002B09D1FFF73F
:10031000D5FF054B002B02D0044800E000BF0123AD
:10032000237010BDD830002000000000A8980410F1
:10033000054B10B5002B03D00449054800E000BF71
:10034000FFF7CCFF10BDC04600000000DC300020ED
:10035000A898041070B5192009F050FFD02380220E
:100360001B0692045A620EF0F3FF00F047F806F005
:1003700013FD08F03FF906F0D5FF09F0CBFA002293
:100380000524144B1A7006F0B5F9134D013C2100F9
:1003900028000EF0D1FFFA2080000AF03FFD002C6B
:1003A000F4D10A200EF028FE012200210B480AF0A9
:1003B000FDF90B4811F07CF901220A4B0A4C1A7026
:1003C0002378012BFCD108F0D1FA2378012BFAD045
:1003D000F6E7C046A4580320A8980410D457032079
:1003E000B18B0010A3580320A858032010B5024871
:1003F00011F086FC10BDC04690380320092370B56B
:1004000086B0059304330493023B0393013B0293AC
:10041000023B324D324C0193324B22003249334879
:1004200000932B0005F024FE142005F01DFEFA2099
:1004300080000AF0F3FC2E4E21003200280006F066
:100440002FF83378682B08D02A4C20000EF020FEBD
:10045000FA2080000AF0E2FCF7E773783D2BF3D135
:1004600001222100280006F03FF8234E320021002F
:10047000280006F073F83378002BF7D10122210011
:10048000280005F0EFFE0121200005F0CDFE03213C
:10049000200005F05FFE0321280005F089FF1321ED
:1004A000200006F0C9F81221200006F003F900210F
:1004B000200006F0E1F80321200006F06BF802218D
:1004C000200006F083F85521200005F061FE182178
:1004D000280005F007FF06B070BDC0467820032055
:1004E0005C32002040420F009C200020942000201D
:1004F00064580320BC980410BC580320F0B5C646CD
:10050000334C344D344E22002900300000B505F044
:10051000D9FF6378DB439B0720D023781B0702D4E5
:1005200080BCB846F0BD2D4C0622002120000EF004
:1005300031FC2100300005F095FF0023E05E05F05E
:10054000FFFD274D28600223E05E05F0F9FD68609D
:100550000423E05E05F0F4FDA860E1E7214B0622EC
:100560009846180000210EF015FC1F4F06220021AE
:1005700038000EF00FFC4146280005F055FF390009
:10058000280005F033FF43460020185E05F0C4FD47
:100590004346164D28600220185E05F0BDFD434617
:1005A00068600420185E05F0B7FDA8600023F85EBF
:1005B00005F0BCFD0E4D28600223F85E05F0B6FD87
:1005C00068600423F85E05F0B1FDA860A5E7C046A9
:1005D000E84D03205C32002078200320903E032069
:1005E00030430320803E0320883E03200C3D03203F
:1005F0002C3D0320F0B55746DE464E464546E0B555
:100600008BB008919246190005900993DA170323DD
:100610008C46134063449B109B009846002B00DCE3
:1006200090E05246159B00249B000193149B9B1A5B
:10063000159A9B1A089A9B00029353681268190135
:1006400094460491069251469A00039252468D00B8
:100650000021013A92000792002289465900DE00EB
:10066000CB189B009B461300424665440092019ABA
:1006700094469C44039B1A199F195346002B1EDD78
:10068000069B059819196346804600989B004344D1
:1006900080460094086818600098081A845804314D
:1006A0005C6084599C60C059D86010338D42F1D190
:1006B00043460799009363468C4604339C440421C7
:1006C000029B5A4463448C461400049A3E00E14461
:1006D0009446009A5E4465444A45C8DC1A00009B73
:1006E0009846099B434526DD1499159C089B0D1BD4
:1006F000514609CB6D1A00291DDD41469E004B4332
:100700009B00C01853469C00059B47469C46099B8E
:10071000AB469846159B994600234A449100614494
:10072000C558CD5004339C42FAD1524401375A4443
:100730008019B845F0D10BB0F0BCBB46B246A94613
:10074000A046F0BD0022CCE7F0B54746CE4680B5C6
:100750001F00002B1DDD002A1BDD9300C0180B6855
:10076000002498464B689100D200494252428C4680
:1007700091469B00614645182900A2004244166834
:10078000D21840C18142FAD14A460134A81AA74280
:10079000F0D1C0BCB946B046F0BDC046F0B5DE46AB
:1007A00057464E4645460023E0B51360836887B040
:1007B0009A46059200230268052693460093013B62
:1007C000039002910493052355469B1B98465D4375
:1007D0005B46002B00D18DE14544AD005D442B68A4
:1007E0005C006B6864085F007F08391C381C0EF0E1
:1007F0009AF9002800D0DFE0211C381C0EF08EF999
:10080000002800D0DFE00027731C9A46022B53D942
:10081000AB685B005B08191C181C99460EF083F945
:10082000002800D046E14846211C0EF077F9002848
:1008300001D04C4602275346032B3DD0EB685B00AA
:100840005B08191C181C99460EF06DF9002800D0A1
:1008500038E14846211C0EF061F9002801D04C46D1
:1008600003275346042B27D02B695B005B08191C18
:10087000181C99460EF057F9002800D02AE1494685
:10088000201C0EF03DF9002801D04C4604275346A9
:10089000052B11D06D696D006D08291C281C0EF008
:1008A00042F9002800D01DE1291C201C0EF028F977
:1008B000002801D005272C1C029B009A47440021E8
:1008C0009F50201C0EF014F9002800D17EE0049BFC
:1008D000013300D1E3E006239B1B45460193039BB4
:1008E0009B689A465D4306239F1B53469B0099468F
:1008F000019B52461C005443009A7F199446A50060
:1009000065449C460023BF005F44B8461F00644412
:10091000A4005D445C444346286819680EF0B9F8A9
:10092000011C20680EF09BF82060012E2DD9434653
:10093000286859680EF0ADF8011C60680EF08FF859
:100940006060022E21D04346296898680EF0A1F815
:10095000011CA0680EF083F8A060032E15D043465A
:100960002968D8680EF095F8011CE0680EF077F859
:10097000E060052E09D14346296818690EF089F810
:10098000011C20690EF06BF8206101374D444C4486
:10099000BE42C0D1009B013E04330093019B052B56
:1009A00000D010E71A00029B5A6107B0F0BCBB46AA
:1009B000B246A946A046F0BD211C201C0EF0B3F89B
:1009C000002800D018E73C1C01271DE7474530D020
:1009D00059465C460098BB005B4409581D68039A61
:1009E00092682550196001009200594489189B189B
:1009F00008681C680C60186089189B1808681C68D7
:100A00000C60186089189B1808681C680C601860D6
:100A100089189B1808681C680C60186089189B1856
:100A200018680A6808601A60059A13680193013310
:100A300013604546039B5A469B685D439A460623CE
:100A40009B1B0193EC1843465B199B009F58A40025
:100A50005C442068391C0EF008F82060012E00D894
:100A600041E76068391C0EF000F86060022E00D18A
:100A700039E7A068391C0DF0F8FFA060032E00D103
:100A800031E7E068391C0DF0F0FFE060042E00D182
:100A900029E72069391C0DF0E8FF206123E70623D0
:100AA00045469B1B0193039B9B689A465D434346C7
:100AB000049318E7211C201C0EF035F8002800D103
:100AC000B7E6B0E6211C201C0EF02DF8002800D15E
:100AD000C5E6BEE6211C201C0EF025F8002800D13A
:100AE000D3E6CCE6211C201C0EF01DF8002800D116
:100AF000E0E6D9E61B68FFDEF0B55746DE464E4617
:100B00004546E0B599B01493249B8246259C2698CF
:100B10005D1C00D1229B651C00D1229C239DEE17F9
:100B200003253540239EB4466544AD10AF0007252C
:100B3000229E0E97AE4335000096149E002E00DCD8
:100B400088E29B001693230110930301D318179397
:100B50006B1EDB0801330391D9015B010F93A300E6
:100B60007C43201880001193131815930023D3465B
:100B7000139108930E9B002B00DCC2E10F9A039B9C
:100B8000944663441293179BD84601930023029323
:100B90000298434601000CCB089C5943A44661448B
:100BA000890051180991411C594361448900511829
:100BB0000A91811C59436144890051180B91C11C51
:100BC0004B4363449B00D318019E0C93009B34005D
:100BD000002B00DC45E2039B0025994600234C4690
:100BE000AA46AB46A946069504952F1C0595079580
:100BF0000D9325683168281C0DF04BFF59460DF008
:100C000031FF71688346281C0DF043FF51460DF0FB
:100C100029FFB1688246281C0DF03BFF07990DF0B3
:100C200021FFF1680790281C0DF033FF05990DF0A6
:100C300019FF059065683169281C0DF02AFF391CE1
:100C40000DF010FF7169071C281C0DF022FF04999C
:100C50000DF008FFB1690490281C0DF01AFF0699E9
:100C60000DF000FFF1690690281C0DF012FF4946B7
:100C70000DF0F8FE8146A568316A281C0DF009FFC9
:100C800059460DF0EFFE716A8346281C0DF001FFF6
:100C900051460DF0E7FEB16A8246281C0DF0F9FEC0
:100CA00007990DF0DFFEF16A0790281C0DF0F1FEA8
:100CB00005990DF0D7FE0590E568316B281C0DF005
:100CC000E8FE391C0DF0CEFE716B071C281C0DF0E0
:100CD000E0FE04990DF0C6FEB16B0490281C0DF0E7
:100CE000D8FE06990DF0BEFEF16B0690281C0DF0A3
:100CF000D0FE49460DF0B6FE81462569316C281CB0
:100D00000DF0C7FE59460DF0ADFE716C8346281CF0
:100D10000DF0BFFE51460DF0A5FEB16C8246281CB9
:100D20000DF0B7FE07990DF09DFEF16C0790281CA1
:100D30000DF0AFFE05990DF095FE05906569316DDA
:100D4000281C0DF0A6FE391C0DF08CFE716D071CE1
:100D5000281C0DF09EFE04990DF084FEB16D0490E8
:100D6000281C0DF096FE06990DF07CFEF16D0690A4
:100D7000281C0DF08EFE49460DF074FE8146A569D3
:100D8000316E281C0DF085FE59460DF06BFE716E1C
:100D90008346281C0DF07DFE51460DF063FEB16EBA
:100DA0008246281C0DF075FE07990DF05BFEF16E72
:100DB0000790281C0DF06DFE05990DF053FE05906F
:100DC000E569316F281C0DF064FE391C0DF04AFEF8
:100DD000716F071C281C0DF05CFE04990DF042FE9B
:100DE000B16F0490281C0DF054FE06990DF03AFEE8
:100DF000F16F0690281C0DF04CFE49460DF032FEB6
:100E00008146803620340D9B009A08330D939A4218
:100E100000DDEEE6139B019C9C46051C5946381CE0
:100E200064440DF01FFE5146071C04980DF01AFE95
:100E30000799061C06980DF015FE05998146281C99
:100E40000DF010FE129B051C9A46229A009B9A42B6
:100E500030DDAB460493534620CB2168281C9A46CC
:100E60000DF017FE011C381C0DF0FCFD6168071C1D
:100E7000281C0DF00EFE011C301C0DF0F3FDA168C6
:100E8000061C281C0DF005FE011C48460DF0EAFD6D
:100E9000E1688146281C0DF0FCFD011C58460DF050
:100EA000E1FD8346049B229A0133103404939A4255
:100EB000D1D1051C311C0A9E30680DF0D0FD391CC3
:100EC000099F041C38680DF0CAFD291C0C9D386070
:100ED000346028680DF0C3FD0B9E4946041C306841
:100EE0000DF0BDFD1099019A8C46029B624401925F
:100EF0000E9A0433306002932C609A4200DD47E67C
:100F0000C3460F9A039B944663440E9A0293239B15
:100F10009246159D934200DC90E05B465C68534628
:100F20005C43089B2F009C465B461B6864449C46C0
:100F3000009BA4006444002B00DC99E00023039F85
:100F400099463B00A04600262F001C003968206807
:100F50000DF09FFD311C0DF085FD061C7968606861
:100F60000DF097FD311C0DF07DFD061CB968A068E1
:100F70000DF08FFD311C0DF075FD061CF968E06861
:100F80000DF087FD311C0DF06DFD061C39692069DF
:100F90000DF07FFD311C0DF065FD061C796960695F
:100FA0000DF077FD311C0DF05DFD061CB969A069DF
:100FB0000DF06FFD311C0DF055FD061CF969E0695F
:100FC0000DF067FD311C0DF04DFD061C203720345F
:100FD00008239C46009BE1444B45B7DC44460F9BED
:100FE000EF18029B0193229A009B9A4217DD9946C3
:100FF0000023984643464246F958019B98580DF005
:1010000048FD011C301C0DF02DFD061C01239C46E3
:101010000333E1449C46229BE0444B45EAD12068DF
:10102000311C0DF01CFD01239C46119BE2449C46A3
:10103000239B20606544534500D06EE71699039AC0
:101040008C46089B62440392149A013308939A4297
:1010500000D08FE519B0F0BCBB46B246A946A04609
:10106000F0BD0025039BA9469A462E1C2F1CECE6DA
:10107000039B00260193B6E7F0B557464E46DE4681
:1010800045468024E0B5B5B006AF3C1920609420F9
:101090007B63E823AE4E38180160BA63FB181C6806
:1010A0003378BFF35B8FDB0700D477E2A94D902242
:1010B0002369BA1813608422A368BA1813608022C7
:1010C000BA1812686D68934202DD8423FB181A6017
:1010D00094218423902279180E688C21FB18BA1869
:1010E00012681B6856435343226879180A60002A25
:1010F00000D180E29B003B660023BB6763687B678F
:10110000002B00D163E2B300FB6500233B6798220C
:101110000423BA1813609033FB181B68002B19DDE9
:101120008023E422FB18BA181B6812681900934246
:1011300000DA4AE2280009010CF0F4F90323C2178F
:10114000134098221B189B109B00BA181360042BA5
:1011500000DA35E28023FB181968002900DCA9E1D8
:1011600090207B6B38181A000068796484464243EB
:10117000091A3A616244B9647A609821E4227918C4
:10118000BA18126809684A43BA619A007A6104324F
:10119000FA61A02201339B00BA181360E423FB1804
:1011A0001B689B009B460023FB63FB643B64BB66A0
:1011B0009C227B6CBA1813609022BA181268934272
:1011C00002DD9C23FB181A609423FB181B68002B7C
:1011D00000DC47E19C23FB181A68002A00DC41E18F
:1011E0009423E021FB181B687918BB6598230968D4
:1011F000FB188C461B68B86E53439B00BB607B6F2B
:101200001100FB6783006344FB6000238C46FB6690
:10121000FB620B00B021791839630321013B043ACA
:101220008B436044D31A38603B629822BA18BB6D76
:1012300012689A46934200DD9246FA68FB6E944625
:101240009B0063447B66FB6B88227B65FB6CBA1852
:101250003B659C23FB181B6813609C23FB181A68D2
:101260008823FB181B68D21ABA62A422BA1813602A
:10127000042B03DDA4220423BA1813608823FB186F
:101280003A681B68D21A7A62002B65DDA423BA6B18
:10129000FB189146A8221B68BA18013B98467B6D43
:1012A0009B0099447B6E1360AC220023BA18136034
:1012B000AC23AC22FB181B68BA18013313604346F9
:1012C000002B2CDDA8230025FB181C684B46266844
:1012D0005968301C0DF0DDFB011C60680DF0BFFB90
:1012E00043466060012B16D04B46301C99680DF0C8
:1012F000D0FB011CA0680DF0B2FB4346A060022B9E
:1013000009D04B46301CD9680DF0C3FB011CE068C6
:101310000DF0A5FBE06001355C445545D6D10123B5
:101320005B429C46A133FB181B68E0449C46A82303
:10133000A822FB181B68BA1804331360AC23A4223C
:10134000FB18BA181B681268E1449342B0DB03E053
:10135000E0220320A43803208823A422FB18BA1813
:101360001B681268396B9D1A7B6EBE6A0B60E423A2
:10137000FB181B6891464B609C230196FB181B6869
:1013800088460093F86F5346FFF734F9002D37DD98
:1013900041467C6A386D4C440319B86B4A46844612
:1013A000786B9B004860A420381802608C203818A5
:1013B000006863440B602B0081463963FFF7C4F972
:1013C000E022FB6EBA181B1914689B00A0463C6B08
:1013D00043442360E423FB1819689C236160FB18D5
:1013E00004961B6849460393A423FB181A685346C6
:1013F0000292019300922B002000FA6FFFF77CFB12
:10140000882388227969FB188C461B68BA18043B2C
:10141000F96913603A6D62448C463A657A6E10320F
:101420007A667A6D62447A653A6A9A4200D014E725
:101430009822BA181268B96D9446FB6A8A1AB9697B
:1014400063448C46BA65B968FA6EFB6262448C46A6
:10145000FA66FA6F6244FA679422BA1812689A42DE
:1014600000DDE2E69022BA181268BB6E9446802234
:10147000BA1812686344BB6693421BDA8423FB18D4
:101480001B68002B38DC90233969FB188C467A6C7A
:101490001B68D21A7A643A6C62443A64BA6CD31A02
:1014A000BB647A68FB6C63449446FB64FB6B6344E7
:1014B000FB637DE68023FA6D9B029A4207D93A6F5F
:1014C000002A04D0531E1878101A0DF04BFC80230C
:1014D0003A6E9B029A4207D9BA6F002A04D0531E73
:1014E0001878101A0DF03EFCBD462FB0F0BCBB467C
:1014F000B246A946A046F0BDBA6B3B6C92469B0033
:101500009A44B023FE18B13B9946BD6CBC6E84234F
:10151000FB181B68A8469D4200DD9846AC22A3003C
:10152000BA1813607A6B8C2072609C225344BA18EC
:10153000381831001268006833604346FFF704F939
:10154000E022AC23BA181268FB1894461B688C2161
:1015500063443360E423FB181B687918736000232D
:1015600004934B46039302939423FB181B683000AB
:1015700001939C23FB181B6800937A6F434609680C
:10158000FFF7BAFA8423FB181B689C46ED1A8023E8
:10159000FB181B686444A342B9DC74E7300010F008
:1015A000ADF8364D002800D181E58023DB012B60AA
:1015B00080231B0330006B60AB6010F0BBF876E556
:1015C00098220423BA181360C4E51100B2E5802301
:1015D000B200FA659B029A423AD813006A46163363
:1015E000DB08DB00D31A9D4627200F23684498436D
:1015F000386778678BE59A0080233A669B029A42A7
:101600000FD813006A461633DB08DB00D31A9D4659
:1016100027200F23684498437D33FB18B867186070
:101620006CE5100010300DF07FFBB867002800D18A
:1016300064E50F221023844602409B1ADBB29C44CF
:1016400061464A1E13708C23FB18B967196055E573
:10165000100010300DF068FB3867002800D156E507
:101660000F221023844602409B1ADBB29C44614641
:101670004A1E39671370796749E5C046A4380320CC
:10168000F0B557464E46DE464546E0B5B7B006AF24
:10169000824684207B65F023CB4E38180160BA6304
:1016A000FB181C683378BFF35B8FDB0700D49DE227
:1016B000C64D23696D683B67A368BB67534501DD71
:1016C0005346BB67842179180E6880213A6FBB6F3F
:1016D00056435343226879180A60002A00D1B4E2C5
:1016E0009B003B650023FB666368BB66002B00D153
:1016F00097E2B300FB6400237B6688220423BA18B8
:1017000013608033FB181B68002B16DDEC23FB18DD
:101710001B6851469A4500DA7FE2280009010BF068
:1017200001FF0323C217134088221B189B109B0044
:10173000BA181360042B00DA6AE25346002B00DC6F
:1017400032E27A6D386F1100434259430B00B9629F
:1017500051460C1A110062431B1A9B00BA647B604D
:101760000A000B0051464B43B96B53448C46E821A9
:101770009B006344FB637918830009685B423B600C
:1017800053468C469B006344EC21BB658823791843
:10179000FB1809681B687C674B4390213B619300F1
:1017A0005B4279180B60043BBB609B00FB60D3433A
:1017B00094229B00BA181360EC23A822FB181B6824
:1017C000BA189B001360544603008C22BA181360A9
:1017D000A34200DD14608423FB181B68002B00DC8F
:1017E00076E18C23FB181A68002A00DC70E1842360
:1017F000FB181B68B96D7B648823FB181B68534377
:101800009B00FB61BB6EFB659300CB1A3B62002320
:10181000B8213B667B63A31A7918FB621300396316
:101820000321013B043A8B43D31A7B61AC227B6CCE
:10183000BA1813608822BA181268934202DDAC23EA
:10184000FB181A603A6A3B6E94469B009C446246C1
:101850007A62BA6D944698226344BA181360FB6B9F
:101860003B648C23FB181B68FB679C22FB6FBA1838
:101870001360042B03DD9C220423BA181360FA6F53
:10188000FB6A94466344BB61002A00DCA0E09C2311
:10189000396CA0208A46FB181B6838185A1E9346DC
:1018A000BA685B42524402607A6D9B1A9B009A446C
:1018B0000423A4225B4299460023BA181360A02394
:1018C000FE20FB181B68800519680DF0CEF8B423C4
:1018D000FB181860A423FB181B685A46DB439B1AAD
:1018E0009822BA18126800269446B0229C009B00E9
:1018F0005B42BA1864441360B023FB181B684A4665
:101900009846A04443469958B423FB1818680DF034
:10191000C0F843464A4698505B46051C002B22DD22
:10192000534619680DF0B5F8011C20680DF097F8C2
:101930005B462060012B16D05346281C59680DF0D9
:10194000A8F8011C60680DF08AF85B466060022B05
:1019500009D05346281C99680DF09BF8011CA0681B
:101960000DF07DF8A060A823FB181B6801369C468B
:10197000AC23FB181B6864449E42BDD1A423A4225F
:10198000FB181B68BA1801331360012294215242DC
:10199000944679180968E3448C46A021A132BA180C
:1019A0001268791862440A600422524294469432C2
:1019B000BA181268E14494469C22BA181268E244AC
:1019C000934200DA7BE703E0E0220320A4380320FF
:1019D000E8219C2279180968BA188C46FB6F1268B6
:1019E000396B9C1ABB699D1A3B6E5B199B00634463
:1019F0000B60EC23FB181B684B608C230194FB18D5
:101A00001B680093AC23FB181B68F86DFEF7F2FD12
:101A1000002C30DD7A6DF96A13008C466B433D6B08
:101A2000B96B80206A609C2263448C463818066833
:101A30009B00BA181268634429002B603000230011
:101A40009046FEF781FEEC2228008C237D6ABA18AE
:101A500005601568FB18456004941D68AC22434678
:101A600003950293BA181268009301922300310083
:101A7000FA6DFFF741F898229821BA181268791880
:101A8000103A0A60F9683A6C8C46FB6F62443A641B
:101A90007A69043BFB679A4200D0E6E68822BA18CE
:101AA0001268796C94467B6B8A1AF96963448C4698
:101AB0007A643969FA6D7B6362448C46FA653A6EE2
:101AC00062443A668422BA1812689A4200DDADE692
:101AD0007B6F1C1E68DDBB6F002B00DCFEE7BA6B62
:101AE000BB6C93469B009B4400239946B833FE1879
:101AF000B93B9A4623004C4699467D6FBB6FA8467A
:101B00009D4200DD9846B422A300BA1813607A6D96
:101B1000802072608C225B44BA1838183100126839
:101B2000006833604346FEF70FFEE822B423BA187C
:101B30001268FB1894461B68802163443360EC23D1
:101B4000FB181B68791873600023049353460393B2
:101B500002938423FB181B68300001938C23FB182D
:101B60001B680093BA6E43460968FEF7C5FFBB6F5A
:101B70009C46ED1A7B6F6444A342BFDCBA6ABB6C1F
:101B800094467A6863449446BB643A68FB6B4C465F
:101B900063449446FB63BB6D3A6F6344BB657B6FE4
:101BA0009B1A7B67130010E68023FA6C9B029A4213
:101BB00007D97A6E002A04D0531E1878101A0DF037
:101BC000D1F880233A6D9B029A4207D9FA6E002A17
:101BD00004D0531E1878101A0DF0C4F8BD4631B069
:101BE000F0BCBB46B246A946A046F0BD30000FF09F
:101BF00085FD374D002800D15BE58023DB012B609C
:101C000080231B0330006B60AB600FF093FD50E549
:101C100088220423BA1813608FE5EC23FB18196897
:101C20007BE58023B200FA649B029A423AD8130003
:101C30006A461633DB08DB00D31A9D4627200F23A4
:101C4000684498437866B86657E59A0080233A65F9
:101C50009B029A420FD813006A461633DB08DB005A
:101C6000D31A9D4627200F23684498437133FB18ED
:101C7000F866186038E5100010300DF055F8F86679
:101C8000002800D130E50F221023844602409B1A21
:101C9000DBB29C4461464A1E13708023FB18F96630
:101CA000196021E5100010300DF03EF8786600282C
:101CB00000D122E50F221023844602409B1ADBB29A
:101CC0009C4461464A1E79661370B96615E5C046A4
:101CD000A438032030B587B00D4B02AD00951A68CB
:101CE000694602929A880400AA809B796A46AB7181
:101CF000072301930023D3732CF092FC0098A84291
:101D000003D0029901310DF061F8200007B030BD19
:101D1000D0980410F0B5DE4657464E464546E0B52D
:101D20000E000168C7688946416805698A4681686E
:101D30008DB08B464169806907930690506813689F
:101D4000926805910A90291C30680B9209930895B6
:101D50000CF085FE0599039070680CF080FE0699E2
:101D6000051CB0680CF07BFE80268046360607987E
:101D70000CF012FFB446039B0090019163441800DD
:101D800051460CF086FE5946061C281C0CF081FEBC
:101D9000011C301C0CF063FE391C061C40460497E5
:101DA0000CF077FE011C301C0CF059FE0CF0F4FE18
:101DB0000022684B0BF02DFE009A019B0BF029FED0
:101DC000060048460F000CF0E7FE02000B00300052
:101DD0003900169C0BF0F6FD0BF020FF4946206001
:101DE00003980CF056FE5946061C40460CF051FE76
:101DF000011C301C0CF036FE0499061C281C0CF04B
:101E000048FE011C301C0CF02AFE0CF0C5FE00221E
:101E1000504B0BF0FEFD009A019B0BF0FAFD060003
:101E200050460F000CF0B8FE02000B0030003900E5
:101E30000BF0C8FD0BF0F2FE49466060281C0CF068
:101E400028FE5146061C40460CF023FE011C301CA7
:101E50000CF005FE0499061C03980CF01AFE011CF8
:101E6000301C0CF0FFFD0CF097FE0022394B0BF0FC
:101E7000D0FD009A019B0BF0CCFD060058460F00E8
:101E80000CF08AFE02000B00300039000BF09AFDC6
:101E90000BF0C4FE4946A06040460CF0FAFD5146E6
:101EA000061C281C0CF0F5FD011C301C0CF0DAFDA2
:101EB0005946051C03980CF0ECFD011C281C0CF085
:101EC000CEFD0CF069FE0022224B0BF0A2FD009A21
:101ED000019B0BF09EFD060004980F000CF05CFEC9
:101EE00002000B00300039000BF06CFD0BF096FE89
:101EF000089B0999E060181C98460CF0CAFD079DE4
:101F0000291C0CF0C6FD011C40460CF0A8FD059FE5
:101F10000A992061381C0CF0BCFD291C0CF0B9FD9D
:101F2000011C381C0CF09BFD069E0B996061301C57
:101F30000CF0AFFD291C0CF0ACFD011C301C0CF0AA
:101F40008EFDA06100200DB0F0BCBB46B246A94694
:101F5000A046F0BD0000E03FF0B5DE4657464E46D5
:101F600045468A464168E0B58846C768816891B0B1
:101F7000066889464046391C141C04930CF089FD00
:101F80004946051C301C0CF084FD0A90011C281CDD
:101F900009950CF064FD0CF0FFFD02000B000BF046
:101FA00011FD06900791201C02940CF0F5FD0B002A
:101FB000020004000D00069807990BF02AFD0BF0B3
:101FC0002DFE5246391C106048460CF062FD8346D7
:101FD0004146301C0CF05DFD5A460E90011C5846DF
:101FE0000B920CF03FFD0CF0D7FD02000B000BF044
:101FF000E9FC02000B00200029000C920D930BF06D
:1020000008FD0BF00BFE5446311C6060301C0CF0D8
:1020100040FD4146041C40460CF03BFD051C011CE4
:10202000201C0CF01CFD4946089048460CF031FD80
:10203000391C8346381C0CF02CFD59460190089839
:102040000CF00DFD01990CF00DFD02990F900CF0B4
:1020500020FD53464946986040460CF01AFD391C55
:102060008046301C0CF015FD81461A980CF094FD4A
:1020700006001B980F000CF08FFD02900391291CA5
:10208000201C0CF0EFFC59460CF0E9FC01990CF017
:10209000E6FC04990CF0FDFC0CF07EFD04000D0044
:1020A000404649460CF0DEFC0CF076FD02000B00C9
:1020B0000BF088FC32003B000BF0ABFC02000B0085
:1020C000200029000BF07EFC029A039B04000D0007
:1020D000069807990BF09DFC02000B0020002900D8
:1020E0000BF070FC0BF09AFD5346D86004980CF08E
:1020F00053FD04000D00404649460CF0B0FC0CF0C6
:102100004BFD02000B000BF05DFC22002B00049441
:1021100005950BF07EFC04000D00089859460CF064
:10212000A1FC01990CF09BFC1A990CF0B2FC0CF08C
:1021300033FD02000B00200029000BF043FC029A43
:10214000039B04000D000C980D990BF062FC02003B
:102150000B00200029000BF035FC0BF05FFD53460F
:102160000A99186109980CF07DFC0CF015FD02002D
:102170000B000BF027FC049A059B0BF04AFC0400B3
:102180000D000B980E990CF06AFC0CF005FD020096
:102190000B000BF017FC32003B000BF03AFC020086
:1021A0000B00200029000BF00DFC04000D000F981F
:1021B0001B990CF06EFC0CF0EFFC02000B002000F1
:1021C00029000BF0FFFB0BF029FD5346586100205E
:1021D00011B0F0BCBB46B246A946A046F0BDC04611
:1021E000F0B50400DE4657464E4645460800E0B5C9
:1021F00045680968AA46856895B0AB46C5684669D2
:10220000876910910E950169556810689268049667
:1022100090461A68069711925A689B681292139317
:10222000FE239B05236099460CF019FC0CF0B4FCCE
:10223000009001911E980CF0AFFC06000F00009872
:1022400001990022924B0BF0E4FB32003B000BF0B3
:10225000E0FB0BF0E3FC04990390E061281C0CF018
:10226000FEFB0CF099FC0022894B049005910BF0C9
:10227000D0FB32003B000BF0CCFB0BF0CFFC0699FF
:10228000051CA06340460CF0EAFB0CF085FC002224
:102290007F4B069007910BF0BCFB32003B000BF02C
:1022A000B8FB0BF0BBFC0A90606550460CF074FC68
:1022B0000022784B089009910BF0ABFB32003B00F9
:1022C0000BF0A7FB0BF0AAFC0B90206758460CF014
:1022D00063FC00226F4B0C900D910BF09AFB3200C7
:1022E0003B000BF096FB0BF099FC8C238246E050F0
:1022F0000E980CF051FC0022664B0E900F910BF0E3
:1023000088FB32003B000BF084FB0BF087FCA8231A
:102310008346E0500022009801995E4B0BF079FB58
:1023200032003B000BF075FB0BF078FC4946009047
:1023300060602162002206980799564B0BF069FBFA
:1023400032003B000BF065FB0BF068FCA565804696
:10235000E06310980CF020FC00224D4B0BF059FB71
:1023600032003B000BF055FB0BF058FC5946902314
:10237000051C60670022E1500C980D99444B0BF04E
:1023800048FB32003B000BF044FB0BF047FCAC2356
:102390000022E050049805993E4B0BF03AFB3200C6
:1023A0003B000BF036FB0BF039FC49460A9A83469A
:1023B0006262009AA0602164E2650E980F99002283
:1023C000334B0BF026FB32003B000BF022FB0BF0F3
:1023D00025FC94230B99A067E5501C33E15041463E
:1023E000E1605946A162494621665146039BE16777
:1023F0006364089809990022254B0BF00AFB320010
:102400003B000BF006FB0BF009FC9823E0501C335B
:10241000E55000251E9911982561E562A564656661
:102420000CF037FB011C48460CF019FB8023E050F0
:102430001C33E5501C33E550343B1E9912986561FE
:102440002563E564A566E5500CF023FB011C4846B6
:102450000CF005FBA023E0501C33E550343BA56194
:1024600065632565E566E5501C33E5501E991398B4
:102470000CF00FFB011C48460CF0F1FAC023E050B1
:10248000002015B0F0BCBB46B246A946A046F0BD40
:102490000000E0BF0000E03FF0B5DE4657464E4684
:1024A0004546E0B59A460B68141C8A689B464B6803
:1024B000C9688BB00500101C8846009301920CF08F
:1024C0006BFB02900391201C0CF066FBC0230600FE
:1024D0000F000298039900221B060BF09AFA3200B3
:1024E0003B000BF096FA0BF099FB089028604046F1
:1024F0000CF052FB02000B000BF064FA32003B00C0
:102500000BF087FA0BF08AFB041CA86158460CF00C
:1025100043FBC02300221B06049005910BF079FABF
:1025200032003B000BF075FA0BF078FB2863009843
:102530000CF032FB02000B00069007910BF042FA00
:1025400032003B000BF065FA0BF068FB0021902392
:102550008946A8642966A967E950686004980599C6
:1025600002000B000BF02EFA32003B000BF051FA88
:102570000BF054FB6C630490E8610298039902002D
:102580000B000BF01FFA32003B000BF042FA0BF08D
:1025900045FB49469423E8646966E967E950C0232E
:1025A00006980799049A1B06AA6000220BF031FADC
:1025B00032003B000BF02DFA0BF030FB089B494634
:1025C000AB63802328622C65A966E9501833E95073
:1025D000404614990CF05DFA019F1599061C381CB1
:1025E0000CF057FA5146041C58460CF052FA311CB4
:1025F0000CF038FA211C06940CF031FA011C0CF096
:1026000031FA51460990E86000980CF042FA1499AA
:10261000041C381C0CF03DFA011C201C0CF022FAA2
:102620001599041C40460CF034FA011C201C0CF0D7
:1026300019FA011C0CF016FA1499029068620098BD
:102640000CF027FA1599089058460CF022FA019AD6
:102650008024944624066444071C514620000CF054
:1026600018FA08990CF0FEF9391C0CF0F8F9011C65
:102670000CF0F8F91499E86358460CF00AFA159929
:10268000049000980CF005FA802212064244041CC3
:10269000514610000CF0FDF904990CF0E3F9211CEF
:1026A0000CF0E0F9011C0CF0DDF94A468423EA66DF
:1026B0006865EA501833EA505146286101980CF0D9
:1026C000E8F908990CF0CBF9391C0CF0CBF9011C96
:1026D0000CF0C8F9071CA8628020029B00062B643E
:1026E000514658440CF0D5F9311C0CF0B8F9069954
:1026F0000CF0B8F9011C0CF0B5F98823A865484620
:102700002867E8501833E850514640466F610CF096
:10271000C0F904990CF0A3F9211C0CF0A0F9011CDC
:102720000CF0A0F9099AE8626A64029B4A46EB65DC
:102730004B466B678C230020EA501833EA500BB0ED
:10274000F0BCBB46B246A946A046F0BD0123F0B599
:10275000E3214746CE469C46294B804605009946D4
:10276000284E80B58900076846444144FA0F6F68D7
:10277000D2077B005B08346813435A086240644602
:102780001C4201D04B465A4004C50436A942EDD143
:10279000E32342469B00C626D458194B01259C468C
:1027A000F6004644E20F4C68D20763005B080768F6
:1027B00013435A087A401D4201D063465A40043000
:1027C00004C1B042EED14246C62140460E4BC9007C
:1027D000D3581268DB0F52005208DB0741581343ED
:1027E0005A084A40DB0701D5054B5A404146064B83
:1027F000CA5000220433CA50C0BCB946B046F0BD2E
:10280000DFB0089934060000BC090000F0B5454669
:10281000DE4657464E46E0B53C4CD723A54434AA85
:10282000944663441B091B018A6805930B68019257
:1028300037921A6804902D929A6933912E921A6BEE
:1028400038AC2F929A6C30921A6E06929A6F089258
:1028500090229A5807925A680A92DA690B925A6B38
:102860000C92DA6C0D925A6E0E92DA6F0F929422DD
:102870009A5810929A6811921A6A12929A6B13924D
:102880001A6D14929A6E159280229A581692982276
:102890009A581792DA6818925A6A1992DA6B1A9251
:1028A0005A6D1B92DA6E1C9284229A581D929C22B9
:1028B0009A581E921A691F929A6A20921A6C219253
:1028C0009A6D22921A6F239288229A582492A022FB
:1028D0009A5825925A692692DA6A27925A6C289257
:1028E000DA6D29925A6F2A928C229A582B92A4223E
:1028F0009B582C934B68984638AB3293C42343447F
:1029000009934346A0461C0002E0C0469CFDFFFF21
:10291000E168A26889462169236848460391309995
:10292000029201930CF0B5F80399824606980CF0D8
:10293000B0F8011C50460CF095F867698246391CC6
:1029400008980CF0A6F8A6698346311C07980CF08D
:10295000A0F8011C58460CF085F8011C50460CF0FC
:1029600081F8656882462E99281C0CF092F82F9900
:10297000834602980CF08DF8011C58460CF072F852
:102980002D99834601980CF084F8011C58460CF0F0
:1029900069F8011C50460CF065F84346494618603A
:1029A0000D980CF076F8039982460E980CF071F8A9
:1029B000011C50460CF056F8391C82460F980CF05A
:1029C00068F8311C834610980CF063F8011C5846D7
:1029D0000CF048F8011C50460CF044F8291C8246C3
:1029E0000B980CF056F8029983460C980CF051F8AD
:1029F000011C58460CF036F8019983460A980CF0F1
:102A000048F8011C58460CF02DF8011C50460CF0FB
:102A100029F843464946586014980CF03AF803994F
:102A2000824615980CF035F8011C50460CF01AF847
:102A3000391C824616980CF02CF8311C83461798E6
:102A40000CF027F8011C58460CF00CF8011C5046FD
:102A50000CF008F8291C824612980CF01AF802991A
:102A6000834613980CF015F8011C58460BF0FAFF3A
:102A70000199834611980CF00CF8011C58460BF094
:102A8000F1FF011C50460BF0EDFF434649469860AC
:102A90001B980BF0FEFF039982461C980BF0F9FF80
:102AA000011C50460BF0DEFF391C82461D980BF0CE
:102AB000F0FF311C83461E980BF0EBFF011C5846BB
:102AC0000BF0D0FF011C50460BF0CCFF291C8246B6
:102AD00019980BF0DEFF029983461A980BF0D9FF84
:102AE000011C58460BF0BEFF0199834618980BF065
:102AF000D0FF011C58460BF0B5FF011C50460BF0EF
:102B0000B1FF43464946D86022980BF0C2FF0399B3
:102B1000824623980BF0BDFF011C50460BF0A2FF2C
:102B2000391C824624980BF0B4FF311C834625984B
:102B30000BF0AFFF011C58460BF094FF011C5046F0
:102B40000BF090FF291C824620980BF0A2FF0299FF
:102B5000834621980BF09DFF011C58460BF082FF25
:102B6000019983461F980BF094FF011C58460BF007
:102B700079FF011C50460BF075FF4346494618612A
:102B800029980BF086FF039981462A980BF081FF64
:102B9000011C48460BF066FF391C81462B980BF050
:102BA00078FF311C071C2C980BF073FF011C381C9C
:102BB0000BF058FF011C48460BF054FF291C061C63
:102BC00027980BF066FF0299051C28980BF061FF0F
:102BD000011C281C0BF046FF0199051C26980BF0E0
:102BE00058FF011C281C0BF03DFF011C301C0BF092
:102BF00039FF4346586118239C46099B1C34E04426
:102C0000A34200D084E6379B1A68629308929A69BF
:102C100009921A6B0A929A6C0B921A6E0C929A6F26
:102C20000D9290229A580E925A680F92DA69109279
:102C30005A6B1192DA6C12925A6E1392DA6F1492E6
:102C400094229A5815929A6816921A6A17929A6B59
:102C500018921A6D19929A6E1A9280229A581B92A3
:102C600098229A581C92DA681D925A6A1E92DA6B60
:102C70001F925A6D2092DA6E219284229A582292E3
:102C80009C229A5823921A6924929A6A25921A6C65
:102C900026929A6D059C27921A6F203428928822DA
:102CA0009A58A1462992A0229A582A925A692B92A0
:102CB000DA6A2C925A6C2D92DA6D2E925A6F2F92FC
:102CC0008C229A583092A4229B5831935CAB069385
:102CD0003EAB0793329B98464346424641464046A8
:102CE0001B6895690193069B146B096E926C40CB2F
:102CF000876F0291101C0B99039206930BF0C9FE8B
:102D00000C99824602980BF0C4FE011C50460BF051
:102D1000A9FE0D998246381C0BF0BBFE0E99834626
:102D2000301C0BF0B6FE011C58460BF09BFE011C3C
:102D300050460BF097FE09998246281C0BF0A9FE1D
:102D40000A998346201C0BF0A4FE011C58460BF088
:102D500089FE0899834601980BF09BFE011C58469A
:102D60000BF080FE011C50460BF07CFE4B46129986
:102D7000186003980BF08DFE1399824602980BF0B1
:102D800088FE011C50460BF06DFE14998246381CDB
:102D90000BF07FFE15998346301C0BF07AFE011C68
:102DA00058460BF05FFE011C50460BF05BFE10997D
:102DB0008246281C0BF06DFE11998346201C0BF0F7
:102DC00068FE011C58460BF04DFE0F998346019892
:102DD0000BF05FFE011C58460BF044FE011C5046F0
:102DE0000BF040FE4B461999586003980BF051FECA
:102DF0001A99824602980BF04CFE011C50460BF0CB
:102E000031FE1B998246381C0BF043FE1C99834609
:102E1000301C0BF03EFE011C58460BF023FE011C3B
:102E200050460BF01FFE17998246281C0BF031FE0E
:102E300018998346201C0BF02CFE011C58460BF001
:102E400011FE1699834601980BF023FE011C58468B
:102E50000BF008FE011C50460BF004FE4B46209977
:102E6000986003980BF015FE2199824602980BF0AA
:102E700010FE011C50460BF0F5FD22998246381CCD
:102E80000BF007FE23998346301C0BF002FE011C59
:102E900058460BF0E7FD011C50460BF0E3FD1E9970
:102EA0008246281C0BF0F5FD1F998346201C0BF071
:102EB000F0FD011C58460BF0D5FD1D998346019885
:102EC0000BF0E7FD011C58460BF0CCFD011C5046F1
:102ED0000BF0C8FD4B462799D86003980BF0D9FD3D
:102EE0002899824602980BF0D4FD011C50460BF045
:102EF000B9FD29998246381C0BF0CBFD2A998346EF
:102F0000301C0BF0C6FD011C58460BF0ABFD011C3C
:102F100050460BF0A7FD25998246281C0BF0B9FD01
:102F200026998346201C0BF0B4FD011C58460BF07B
:102F300099FD2499834601980BF0ABFD011C58467E
:102F40000BF090FD011C50460BF08CFD4B462E996A
:102F5000186103980BF09DFD2F99824602980BF0A3
:102F600098FD011C50460BF07DFD30998246381CBF
:102F70000BF08FFD3199071C301C0BF08AFD011CF2
:102F8000381C0BF06FFD011C50460BF06BFD2C99AB
:102F9000061C281C0BF07DFD2D99051C201C0BF038
:102FA00078FD011C281C0BF05DFD2B99041C019879
:102FB0000BF06FFD011C201C0BF054FD011C301C9C
:102FC0000BF050FD4B46586104239C461433E044FB
:102FD0009C46079BE144434500D07DE6339B059D1D
:102FE000DC68296A20680BF03DFD049EA96B306007
:102FF00060680BF037FD7060A068296D0BF032FD42
:10300000B060E068A96E0BF02DFD8023F0602069B0
:10301000E95898460BF026FD98233061E95860691D
:103020000BF020FD7061A069696A0BF01BFDB061B7
:10303000E069E96B0BF016FDF061206A696D0BF039
:1030400011FD3062E96E606A0BF00CFD842770623E
:10305000A06AE9590BF006FD9C23B062E958E06ACA
:103060000BF000FDF062206BA96A0BF0FBFC3063F3
:10307000606B296C0BF0F6FC7063A06BA96D0BF014
:10308000F1FCB063E06B296F0BF0ECFCF063882679
:10309000206CA9590BF0E6FC049B1864A023606C1B
:1030A000E9580BF0DFFC049BE96A5864A06C0BF054
:1030B000D9FC049B696C9864E06C0BF0D3FC049B16
:1030C000E96DD864206D0BF0CDFC049B696F186529
:1030D000606D0BF0C7FC8C25049A059B5065A06DB4
:1030E00059590BF0BFFCA423049A9065059AE06D32
:1030F000D1580BF0B7FC049B059AD865116B206E74
:103100000BF0B0FC049B059A1866916C606E0BF096
:10311000A9FC049B059A5866A06E116E0BF0A2FCE8
:10312000049B059A9866E06E916F0BF09BFC049BE4
:10313000059AD8669023206FD1580BF093FC049B1E
:10314000059A1867A823606FD1580BF08BFC049B7D
:10315000059A5867A16F506B0BF084FC049B059A8D
:103160009867E16FD06C0BF07DFC4146049B059A9B
:10317000D8676158506E0BF075FC4146049B059A68
:103180005850E159D06F0BF06DFC049BD85194233B
:10319000059FA159F8580BF065FC049B9851AC238E
:1031A0006159F8580BF05EFC049B585199239B0021
:1031B0009D44F0BCBB46B246A946A046F0BDC04601
:1031C000F0B5DE4657464E4645460400E0B5436836
:1031D00087B05800A3684008590049080BF042FC2A
:1031E0002368590049080BF03DFC2369051C580071
:1031F00063694008590049080BF034FCE368590042
:1032000049080BF02FFC011C281C0BF02BFCE36978
:10321000051C5800236A4008590049080BF022FC9D
:10322000A369590049080BF01DFCA36A061C58004D
:10323000E36A4008590049080BF014FC636A59001E
:1032400049080BF00FFC011C301C0BF00BFC636BEE
:10325000071C5800A36B4008590049080BF002FCFA
:10326000236B590049080BF0FDFB236C061C58002A
:10327000636C4008590049080BF0F4FBE36B5900FC
:1032800049080BF0EFFB011C301C0BF0EBFB061C9C
:10329000011C381C0BF034FC002800D13E1C311CF2
:1032A000281C0BF02DFC002800D12E1CE36C5800CC
:1032B000236D4008590049080BF0D4FBA36C59005A
:1032C00049080BF0CFFBA36D051C5800E36D4008C7
:1032D000590049080BF0C6FB636D590049080BF013
:1032E000C1FB011C281C0BF0BDFB636E071C5800C2
:1032F000A36E4008590049080BF0B4FB236E590037
:1033000049080BF0AFFB236F051C5800636F4008A2
:10331000590049080BF0A6FBE36E590049080BF071
:10332000A1FB011C281C0BF09DFBE36F804658009D
:103330008023E1584008490049080BF093FBA36F34
:10334000590049080BF08EFB8823051CE058043314
:10335000E15840004900490840080BF083FB8423F2
:10336000E158490049080BF07DFB011C281C0BF0BB
:1033700079FB051C011C40460BF0C2FB002800D164
:103380004546291C381C0BF0BBFB002800D13D1C16
:10339000291C301C0BF0B4FB002800D1351CC023C5
:1033A0002100E55001AABA3B02A8A8310493029477
:1033B000FDF7F4F90121C422019B98260B405B42E2
:1033C0008B430133A354343A9246002250469C2743
:1033D00022509432A1509346923AA2510132E251C6
:1033E0009D32944660469C3A2250A03291469F3AC4
:1033F00090464A4640462300A05048461832A258FC
:10340000903392009A181568255040461060604627
:10341000B8222058A2588046604692009A18156833
:10342000255040461060B422E059A25884469200CC
:103430009A1810685D46E05160461060B022A258AC
:10344000A75992009A181068A0511760AC225846EC
:10345000A258265892009A18106860511660A82247
:10346000A258554692009B1852461868A2586051BF
:103470001A60C523E15407B0F0BCBB46B246A9466A
:10348000A046F0BDC023002210B5C2500022043374
:10349000C2520B68040003604B6843608B68836012
:1034A000CB68C3600B6903614B6943618B698361BE
:1034B000CB69C3610B6A03624B6A43628B6A8362A6
:1034C000CB6AC3620B6B03634B6B43638B6B83638E
:1034D000CB6BC3630B6C03644B6C43648B6C836476
:1034E000CB6CC3640B6D03654B6D43658B6D83655E
:1034F000CB6DC3650B6E03664B6E43668B6E836646
:10350000CB6EC3660B6F03674B6F43678B6F83672D
:10351000CB6FC3678023CA58C2500433CA58C25005
:103520000433CA58C2500433CA58C250FFF748FE89
:10353000200010BDF0B5DE464E4645465746E0B584
:10354000214C9146A5443AAA94460A0031931F4B58
:103550003B9063441B091B013A919846D3AB13CAB5
:1035600013C313CA13C31268D3A91A60184B194A9C
:103570001B6847A80493184B47AC1B680193174B73
:103580001B6805930093049BFEF786FF47ABD3931C
:103590004B46D49347ABD5933AAA832394468620CF
:1035A0001B0163441B68C0004044A2AAD3A9D69360
:1035B0000990FFF72BF96BAB089343460A934B46F0
:1035C0003094A1461C000BE014F7FFFF47030000F6
:1035D000742003200AE81C416C2003207020032083
:1035E0004B464E461B68B76F0793089B494640CB36
:1035F00048464A460893A823896C006E9569126B69
:1036000005910690E158301C04920BF042FA8C238D
:103610008246E158381C0BF03CFA011C50460BF076
:1036200021FA216F824606980BF033FA616D8346CA
:1036300005980BF02EFA011C58460BF013FA011CEA
:1036400050460BF00FFAA16B824604980BF021FA5A
:10365000E1698346281C0BF01CFA011C58460BF04C
:1036600001FA2168834607980BF013FA011C5846AB
:103670000BF0F8F9011C50460BF0F4F943461860C2
:10368000AC23301CE1580BF004FA90238246E15839
:10369000381C0BF0FEF9011C50460BF0E3F9616F8A
:1036A000824606980BF0F5F9A16D834605980BF05C
:1036B000F0F9011C58460BF0D5F9011C50460BF0EF
:1036C000D1F9E16B824604980BF0E3F9216A834655
:1036D000281C0BF0DEF9011C58460BF0C3F9616899
:1036E000834607980BF0D5F9011C58460BF0BAF940
:1036F000011C50460BF0B6F943465860B023301C0D
:10370000E1580BF0C6F994238246E158381C0BF0BF
:10371000C0F9011C50460BF0A5F9A16F824606982E
:103720000BF0B7F9E16D834605980BF0B2F9011C77
:1037300058460BF097F9011C50460BF093F9216C99
:10374000824604980BF0A5F9616A8346281C0BF0A9
:10375000A0F9011C58460BF085F9A168834607982B
:103760000BF097F9011C58460BF07CF9011C5046F0
:103770000BF078F943469860B423301CE1580BF005
:1037800088F998238246E158381C0BF082F9011C15
:1037900050460BF067F9E16F824606980BF079F915
:1037A000216E834605980BF074F9011C58460BF006
:1037B00059F9011C50460BF055F9616C824604988A
:1037C0000BF067F9A16A8346281C0BF062F9011C13
:1037D00058460BF047F9E168834607980BF059F912
:1037E000011C58460BF03EF9011C50460BF03AF90B
:1037F0004346D860B823301CE1580BF04AF99C23AB
:103800008246E158381C0BF044F9011C50460BF07D
:1038100029F980238246E15806980BF03AF9616E47
:10382000834605980BF035F9011C58460BF01AF940
:10383000011C50460BF016F9A16C824604980BF05F
:1038400028F9E16A8346281C0BF023F9011C58462D
:103850000BF008F92169834607980BF01AF9011C4F
:1038600058460BF0FFF8011C50460BF0FBF843469E
:103870001861BC23301CE1580BF00BF9A0238246E1
:10388000E158381C0BF005F9011C50460BF0EAF822
:1038900084238246E15806980BF0FBF8A16E83461C
:1038A00005980BF0F6F8011C58460BF0DBF8011CEC
:1038B00050460BF0D7F8E16C824604980BF0E9F81B
:1038C000216B8346281C0BF0E4F8011C58460BF0D2
:1038D000C9F86169834607980BF0DBF8011C58466C
:1038E0000BF0C0F8011C50460BF0BCF84346E16EEB
:1038F000586105980BF0CDF888238246E158069868
:103900000BF0C7F8011C50460BF0ACF8A42382461C
:10391000E158381C0BF0BDF8C023071CE158301CDF
:103920000BF0B7F8011C381C0BF09CF8011C50463A
:103930000BF098F8616B061C281C0BF0AAF8216D9F
:10394000051C04980BF0A5F8011C281C0BF08AF844
:10395000A169051C07980BF09CF8011C281C0BF0B2
:1039600081F8011C301C0BF07DF84346986104235C
:103970009C461833E1449C464DABE044994500D049
:103980002EE60A9BA146D8249846A427A4004444C6
:10399000BF00474420000999FFF774FD21009022E1
:1039A0003800C8240BF0FCF9FC21A4004444890031
:1039B0004144182220000BF0F3F9CE208121800031
:1039C000C9004144182240440BF0EAF98422D42370
:1039D000D200424412689B0043441A60D523874AB0
:1039E0004546424412889B004344FE211A8000232E
:1039F0002268B0359200AA1889051160936113639B
:103A0000936413669367C922920042441268444645
:103A10009200AA181360916113639364136693670D
:103A2000CA2292004244126806269200AA18136025
:103A300093611163936413669367CB2292004244AF
:103A4000126806209200AA181360936113639164B0
:103A500013669367CC229200424412689200AA181F
:103A6000136093611363936411669367CD22920090
:103A7000424412689200AA1813609361136393641E
:103A80001366A8235B009B46916742465946E4189B
:103A900020334344A660E6602661535080229200A2
:103AA00042444B396260924604933A0006230294E2
:103AB000FF3901960095FDF7DFFA42465946049B0F
:103AC000A660E6602661535053464B3963603A0066
:103AD00006230294062001960095FF39FDF7D0FDDC
:103AE00043461B688C2206934346DB69D3AC07939D
:103AF00043469B6B089343465B6D099343461B6F9C
:103B00000A9343469B5804320B9343465B680C93DD
:103B100043461B6A0D934346DB6B0E9343469B6DF6
:103B20000F9343465B6F109343469B5804321193A7
:103B300043469B68129343465B6A139343461B6C50
:103B400014934346DB6D159343469B6F1693434690
:103B50009B58043217934346DB68189343469B6A8D
:103B6000199343465B6C1A9343461B6E1B93434663
:103B7000DB6F1C9343469B58183A1D9343461B69C1
:103B80001E934346DB6A1F9343469B6C2093434638
:103B90005B6E219343469B581C32229343469B58AD
:103BA000183A239343465B69249343461B6B259342
:103BB0004346DB6C269343469B6E279343469B58B4
:103BC0001C32289343469B58183A299343469B69D5
:103BD0002A9343465B6B2B9343461B6D2C934346C2
:103BE000DB6E2D9343469B581C322E9343469B58C5
:103BF000A8462F934B46329302E0C04624040000AF
:103C000043461F685B6842469946434641469B6867
:103C1000D2680E694D6907984946049305920AF0E7
:103C200038FF0499824608980AF033FF011C504679
:103C30000AF018FF391C824606980AF02AFF011C78
:103C400050460AF00FFF311C82460A980AF021FF05
:103C5000291C83460B980AF01CFF011C58460AF0E9
:103C600001FF0599834609980AF013FF011C584685
:103C70000AF0F8FE011C50460AF0F4FE49462060A6
:103C80000D980AF006FF049982460E980AF001FF8B
:103C9000011C50460AF0E6FE391C82460C980AF0D8
:103CA000F8FE011C50460AF0DDFE311C82461098D9
:103CB0000AF0EFFE291C834611980AF0EAFE011C67
:103CC00058460AF0CFFE059983460F980AF0E1FEA8
:103CD000011C58460AF0C6FE011C50460AF0C2FEFE
:103CE0004946606013980AF0D4FE049982461498FD
:103CF0000AF0CFFE011C50460AF0B4FE391C824681
:103D000012980AF0C6FE011C50460AF0ABFE311CA8
:103D1000824616980AF0BDFE291C834617980AF0C1
:103D2000B8FE011C58460AF09DFE05998346159879
:103D30000AF0AFFE011C58460AF094FE011C5046E2
:103D40000AF090FE4946A06019980AF0A2FE049974
:103D500082461A980AF09DFE011C50460AF082FE27
:103D6000391C824618980AF094FE011C50460AF04D
:103D700079FE311C82461C980AF08BFE291C834672
:103D80001D980AF086FE011C58460AF06BFE059944
:103D900083461B980AF07DFE011C58460AF062FE1D
:103DA000011C50460AF05EFE4946E0601F980AF08A
:103DB00070FE0499824620980AF06BFE011C504662
:103DC0000AF050FE391C82461E980AF062FE011C61
:103DD00050460AF047FE311C824622980AF059FEEE
:103DE000291C834623980AF054FE011C58460AF009
:103DF00039FE0599834621980AF04BFE011C58466E
:103E00000AF030FE011C50460AF02CFE49462061A3
:103E100025980AF03EFE0499824626980AF039FE5B
:103E2000011C50460AF01EFE391C824624980AF0F6
:103E300030FE011C50460AF015FE311C82462898BF
:103E40000AF027FE291C834629980AF022FE011C4D
:103E500058460AF007FE0599834627980AF019FE8E
:103E6000011C58460AF0FEFD011C50460AF0FAFDFE
:103E7000494660612B980AF00CFE049981462C9803
:103E80000AF007FE011C48460AF0ECFD391C814689
:103E90002A980AF0FEFD011C48460AF0E3FD311C99
:103EA000071C2E980AF0F5FD291C061C2F980AF015
:103EB000F0FD011C301C0AF0D5FD0599051C2D985C
:103EC0000AF0E7FD011C281C0AF0CCFD011C381C7F
:103ED0000AF0C8FD18239C46A061FDAB1C34E044E9
:103EE000A34200D08CE6329BD49A9946D39BD599B5
:103EF000D69CD79DD89ED99F06930792DA9BDB9AD2
:103F000008910994DC99DD9C0A950B96DE9DDF9E55
:103F10000C970D93E09FE19B0E92E29A0F91109403
:103F200011951296139714931592E399E49CE59DCD
:103F3000E69EE79FE89BE99A16911794EA99EB9C15
:103F400018951996EC9DED9E1A971B93EE9FEF9B8B
:103F50001C921D91F09AF1991E94F29C2096219743
:103F600022932392249125941F95F39DF49EF59F0F
:103F7000F79AF69BF899F99C26952796FA9DFB9E51
:103F80002897FC9F2A923A9A29932B912C942D954D
:103F90002E962F97D3AB32CA32C332CA32C31168BE
:103FA000D3AC1960FD49FE4B09681B680191FD49BE
:103FB000FD4A09682000009141A9FDF7CDFF319F1E
:103FC000419938680AF04BFD4299834678680AF0B7
:103FD00046FD43998246B8680AF041FD4499041CA5
:103FE000F8680AF03CFD4599051C38690AF037FD70
:103FF0004699061C78690AF032FD071C011C2A98B4
:104000000AF047FD311C804623980AF042FD011C4E
:1040100040460AF027FD291C80461C980AF039FD0D
:10402000011C40460AF01EFD211C804615980AF02E
:1040300030FD514604900E980AF02BFD011C0498A7
:104040000AF010FD5946049007980AF022FD011C61
:1040500004980AF007FD011C40460AF003FD3A9A55
:1040600051680AF0FFFC391C04902B980AF011FDEE
:10407000311C804624980AF00CFD011C40460AF0D1
:10408000F1FC291C80461D980AF003FD011C4046E6
:104090000AF0E8FC211C804616980AF0FAFC51460A
:1040A00005900F980AF0F5FC011C05980AF0DAFC5F
:1040B0005946059008980AF0ECFC011C05980AF096
:1040C000D1FC011C40460AF0CDFC3A9A91680AF0F6
:1040D000C9FC391C05902C980AF0DBFC311C804689
:1040E00025980AF0D6FC011C40460AF0BBFC291CAE
:1040F00080461E980AF0CDFC011C40460AF0B2FC36
:10410000211C804617980AF0C4FC51463190109843
:104110000AF0BFFC011C31980AF0A4FC594631900A
:1041200009980AF0B6FC011C31980AF09BFC011CAE
:1041300040460AF097FC3A9AD1680AF093FC391C81
:1041400031902D980AF0A5FC311C804626980AF083
:10415000A0FC011C40460AF085FC291C80461F98E3
:104160000AF097FC011C40460AF07CFC211C8046AA
:1041700018980AF08EFC5146329011980AF089FC8A
:10418000011C32980AF06EFC594632900A980AF0E7
:1041900080FC011C32980AF065FC011C40460AF0C4
:1041A00061FC3A9A11690AF05DFC391C32902E9834
:1041B0000AF06FFC311C804627980AF06AFC011C4B
:1041C00040460AF04FFC291C804620980AF061FC0A
:1041D000011C40460AF046FC211C804619980AF052
:1041E00058FC5146339012980AF053FC011C339846
:1041F0000AF038FC594633900B980AF04AFC011C2F
:1042000033980AF02FFC011C40460AF02BFC3A9A26
:1042100051690AF027FC5146339013980AF039FC93
:10422000211C80461A980AF034FC011C40460AF012
:1042300019FC594680460C980AF02BFC011C40469C
:104240000AF010FC311C804628980AF022FC391C28
:1042500034902F980AF01DFC011C34980AF002FCDF
:10426000291C349021980AF014FC011C34980AF09F
:10427000F9FB011C40460AF0F5FB3A9A91690AF0F5
:10428000F1FB391C804629980AF003FC311C071CFD
:1042900022980AF0FEFB011C381C0AF0E3FB291CE3
:1042A000061C1B980AF0F5FB011C301C0AF0DAFB17
:1042B000211C051C14980AF0ECFB5146041C0D98B7
:1042C0000AF0E7FB011C201C0AF0CCFB5946041C39
:1042D00006980AF0DEFB011C201C0AF0C3FB011C3F
:1042E000281C0AF0BFFB3A9AD3AC11680AF0BAFB5B
:1042F0003B9B049A18605A60059A9A60319ADA607A
:10430000329A1A61339A5A6142469A614B461B6847
:104310004A46A2934B465B68A3934B469B68A49383
:104320004B46DB68A5934B461B69A6934B465B69DE
:10433000A7934B469B69A8934B46DB69A9934B46D1
:104340001B6AAA934B465B6AAB934B469B6AAC9342
:104350004B46DB6AAD934B461B6BAE934B465B6B98
:10436000AF934B469B6BB0934B46DB6BB1934B4685
:104370001B6CB2934B465B6CB3934B469B6CB493F4
:104380004B46DB6CB5934B461B6DB6934B465B6D52
:10439000B7934B469B6DB8934B4607E06C200320C8
:1043A00074200320702003200AE81C41DB6DB993C0
:1043B0004B461B6EBA934B465B6EBB934B469B6E54
:1043C000BC934B46DB6EBD934B461B6FBE934B4677
:1043D0005B6FBF934B469B6FC0934B46DB6FC193A4
:1043E0008023D358C2938423D358C3938823D358AC
:1043F000C4938C23D358C5939023D358C693942346
:10440000D358C7939823D358C8939C23D358C993A0
:10441000A023D358CA93A423D358CB93A823D3580B
:10442000CC93AC23D358CD93B023D358CE93B4239D
:10443000D358CF93B823D358D093BC23D358D19318
:10444000C023D358D293309B3092984643461F687E
:104450005B6842469946434641469B68D2680E696E
:104460004D690D984946049305920AF012FB049990
:10447000824614980AF00DFB011C50460AF0F2FA2D
:10448000391C824606980AF004FB011C50460AF0CB
:10449000E9FA311C824622980AF0FBFA291C83466D
:1044A00029980AF0F6FA011C58460AF0DBFA059939
:1044B00083461B980AF0EDFA011C58460AF0D2FA1E
:1044C000011C50460AF0CEFA494620600E980AF0C8
:1044D000E0FA0499824615980AF0DBFA011C50466E
:1044E0000AF0C0FA391C824607980AF0D2FA011C79
:1044F00050460AF0B7FA311C824623980AF0C9FAEE
:10450000291C83462A980AF0C4FA011C58460AF06E
:10451000A9FA059983461C980AF0BBFA011C584673
:104520000AF0A0FA011C50460AF09CFA4946606065
:104530000F980AF0AEFA0499824616980AF0A9FA82
:10454000011C50460AF08EFA391C824608980AF07F
:10455000A0FA011C50460AF085FA311C82462498C4
:104560000AF097FA291C83462B980AF092FA011C4C
:1045700058460AF077FA059983461D980AF089FA99
:10458000011C58460AF06EFA011C50460AF06AFAFD
:104590004946A06010980AF07CFA04998246179860
:1045A0000AF077FA011C50460AF05CFA391C824680
:1045B00009980AF06EFA011C50460AF053FA311CB1
:1045C000824625980AF065FA291C83462C980AF041
:1045D00060FA011C58460AF045FA059983461E9870
:1045E0000AF057FA011C58460AF03CFA011C5046E2
:1045F0000AF038FA4946E06011980AF04AFA04993C
:10460000824618980AF045FA011C50460AF02AFA28
:10461000391C82460A980AF03CFA011C50460AF0FE
:1046200021FA311C824626980AF033FA291C834667
:104630002D980AF02EFA011C58460AF013FA059933
:1046400083461F980AF025FA011C58460AF00AFA18
:10465000011C50460AF006FA4946206112980AF0F9
:1046600018FA0499824619980AF013FA011C504668
:104670000AF0F8F9391C82460B980AF00AFA011C74
:1046800050460AF0EFF9311C824627980AF001FAE9
:10469000291C83462E980AF0FCF9011C58460AF0A2
:1046A000E1F90599834620980AF0F3F9011C584670
:1046B0000AF0D8F9011C50460AF0D4F94946606165
:1046C00013980AF0E6F9049981461A980AF0E1F97C
:1046D000011C48460AF0C6F9391C81460C980AF0BC
:1046E000D8F9011C48460AF0BDF9311C071C28986E
:1046F0000AF0CFF9291C061C2F980AF0CAF9011CF0
:10470000301C0AF0AFF90599051C21980AF0C1F98F
:10471000011C281C0AF0A6F9011C381C0AF0A2F999
:1047200018239C46FFABA06114331C34E044A34221
:1047300000D08BE6309BA2AD99463C93C4234C46F7
:10474000C8464B44089307944246D26843464146C4
:10475000914642469E694C68096892685F691B6988
:104760000491301CFD99069305920AF092F9F6998E
:104770008246381C0AF08DF9011C50460AF072F985
:10478000EF99824606980AF084F9E89983464846EC
:104790000AF07FF9011C58460AF064F9011C5046E2
:1047A0000AF060F9E199824605980AF072F9DA99FF
:1047B0008346201C0AF06DF9011C58460AF052F994
:1047C000D399834604980AF064F9011C58460AF00C
:1047D00049F9011C50460AF045F9011C28680AF005
:1047E0003EF92860FE99301C0AF053F9F799824689
:1047F000381C0AF04EF9011C50460AF033F9F099C2
:10480000824606980AF045F9E999834648460AF037
:1048100040F9011C58460AF025F9011C50460AF0DF
:1048200021F9E299824605980AF033F9DB9983462B
:10483000201C0AF02EF9011C58460AF013F9D499ED
:10484000834604980AF025F9011C58460AF00AF933
:10485000011C50460AF006F9011C68680AF0FFF8CE
:10486000FF996860301C0AF014F9F8998246381CE8
:104870000AF00FF9011C50460AF0F4F8F19982464B
:1048800006980AF006F9EA99834648460AF001F9C3
:10489000011C58460AF0E6F8011C50460AF0E2F8FE
:1048A000E399824605980AF0F4F8DC998346201CC7
:1048B0000AF0EFF8011C58460AF0D4F8D59983465F
:1048C00004980AF0E6F8011C58460AF0CBF8011CDF
:1048D00050460AF0C7F8011CA8680AF0C0F8FFAB00
:1048E0005968A860301C04330AF0D3F8F99982465D
:1048F000381C0AF0CEF8011C50460AF0B3F8F299C1
:10490000824606980AF0C5F8EB99834648460AF0B5
:10491000C0F8011C58460AF0A5F8011C50460AF0E0
:10492000A1F8E499824605980AF0B3F8DD99834628
:10493000201C0AF0AEF8011C58460AF093F8D699EC
:10494000834604980AF0A5F8011C58460AF08AF834
:10495000011C50460AF086F8011CE8680AF07FF84E
:10496000FFAB9968E860301C08330AF092F8FA99B6
:104970008246381C0AF08DF8011C50460AF072F885
:10498000F399824606980AF084F8EC9983464846E3
:104990000AF07FF8011C58460AF064F8011C5046E2
:1049A0000AF060F8E599824605980AF072F8DE99F7
:1049B0008346201C0AF06DF8011C58460AF052F894
:1049C000D799834604980AF064F8011C58460AF007
:1049D00049F8011C50460AF045F8011C28690AF004
:1049E0003EF8FFABD9682861301C0C330AF051F84F
:1049F000FB998246381C0AF04CF8011C50460AF01C
:104A000031F8F499824606980AF043F8ED99834606
:104A100048460AF03EF8011C58460AF023F8011CEB
:104A200050460AF01FF8E699824605980AF031F8D8
:104A3000DF998346201C0AF02CF8011C58460AF026
:104A400011F8D899834604980AF023F8011C5846B7
:104A50000AF008F8011C50460AF004F8011C6869C5
:104A600009F0FDFFEE99686148460AF012F8F599E1
:104A7000814606980AF00DF8011C484609F0F2FF3D
:104A8000FC998146381C0AF004F8FFAB1969071C31
:104A9000301C103309F0FDFF011C381C09F0E2FF47
:104AA000011C484609F0DEFFE099061C201C09F0B5
:104AB000F0FFE799041C059809F0EBFF011C201C8E
:104AC00009F0D0FFD999041C049809F0E2FF011CF9
:104AD000201C09F0C7FF011C301C09F0C3FF011C9A
:104AE000A86909F0BCFF1C239C46089BE044A86110
:104AF0001C35984500D027E6079BA29A99461A6074
:104B0000A39A5A60A49A9A60A59ADA60A69A1A6142
:104B1000A79A5A61A89A9A61A99ADA61AA9A1A621E
:104B2000AB9A5A62AC9A9A62AD9ADA62AE9A1A63FA
:104B3000AF9A5A63B09A9A63B19ADA63B29A1A64D6
:104B4000B39A5A64B49A9A64B59ADA64B69A1A65B2
:104B5000B79A5A65B89A9A65B99ADA65BA9A1A668E
:104B6000BB9A5A66BC9A9A66BD9ADA66BE9A1A676A
:104B7000BF9A5A67C09A9A67C19ADA674A468023F1
:104B8000C299D150C3990433D150C4990433D15040
:104B9000C5990433D150C6990433D150C799043311
:104BA000D150C8990433D150C9990433D150CA990E
:104BB0000433D150CB990433D150CC990433D15024
:104BC000CD990433D150CE990433D150CF990433C9
:104BD000D150D0990433D150D1990433D150D299C6
:104BE0000433D1503AAA9446504BA2AA63441B689E
:104BF00013CB13C24E4BD3AC63441B6807CB07C423
:104C00003A9B3B9D00934B4B28006344A2A91B6831
:104C1000D3AAFDF77FF82B00D3AA23CB23C213CB53
:104C200013C23AA91B688C4613603EAA11003F4B81
:104C300063441B6831CB31C13D4BA2A963441B685F
:104C400031CB31C13B4BD3A963441B6871A800939E
:104C5000A2ABFDF7C5FAD3AB1C000793719BA0462E
:104C60000993789B10937F9B1793869B1E938D9B34
:104C70002593949B2C939B9B3393729B0A93799BD4
:104C80001193809B1893879B1F938E9B2693959BD4
:104C90002D939C9B3493739B0B937A9B1293819BD4
:104CA0001993889B20938F9B2793969B2E939D9B74
:104CB0003593749B0C937B9B1393829B1A93899BD4
:104CC0002193909B2893979B2F939E9B3693759B44
:104CD0000D937C9B1493839B1B938A9B2293919BA4
:104CE0002993989B30939F9B3793769B0E937D9B44
:104CF0001593849B1C938B9B2393929B2A93999B44
:104D00003193A09B3893779B0F937E9B1693859B43
:104D10001D938C9B2493939B2B939A9B3293A19BE3
:104D200039934B463D933C9B994605E0280800008B
:104D3000380800003C080000484649464A464B46B1
:104D4000866909691B6855689468D2684769069145
:104D50003398311C0592049309F09BFE391C82465E
:104D60002C9809F096FE011C504609F07BFE06992E
:104D70008246259809F08DFE059983461E9809F014
:104D800088FE011C584609F06DFE011C504609F0D2
:104D900069FE211C8246179809F07BFE291C834678
:104DA000109809F076FE011C584609F05BFE049944
:104DB0008346099809F06DFE011C584609F052FE21
:104DC000011C504609F04EFE4346311C18603498D1
:104DD00009F05FFE391C82462D9809F05AFE011C2D
:104DE000504609F03FFE06998246269809F051FE8A
:104DF000059983461F9809F04CFE011C584609F09E
:104E000031FE011C504609F02DFE211C82461898E7
:104E100009F03FFE291C8346119809F03AFE011C57
:104E2000584609F01FFE049983460A9809F031FE9E
:104E3000011C584609F016FE011C504609F012FEEE
:104E40004346311C5860359809F023FE391C8246D0
:104E50002E9809F01EFE011C504609F003FE06992B
:104E60008246279809F015FE05998346209809F097
:104E700010FE011C584609F0F5FD011C504609F0D2
:104E8000F1FD211C8246199809F003FE291C834676
:104E9000129809F0FEFD011C584609F0E3FD049943
:104EA00083460B9809F0F5FD011C584609F0DAFD20
:104EB000011C504609F0D6FD4346311C98603698D7
:104EC00009F0E7FD391C82462F9809F0E2FD011C2C
:104ED000504609F0C7FD06998246289809F0D9FD89
:104EE00005998346219809F0D4FD011C584609F024
:104EF000B9FD011C504609F0B5FD211C82461A98E7
:104F000009F0C7FD291C8346139809F0C2FD011C56
:104F1000584609F0A7FD049983460C9809F0B9FD9D
:104F2000011C584609F09EFD011C504609F09AFDEF
:104F30004346311CD860379809F0ABFD391C8246D6
:104F4000309809F0A6FD011C504609F08BFD06992A
:104F50008246299809F09DFD05998346229809F01B
:104F600098FD011C584609F07DFD011C504609F0D2
:104F700079FD211C82461B9809F08BFD291C834674
:104F8000149809F086FD011C584609F06BFD049940
:104F900083460D9809F07DFD011C584609F062FD1D
:104FA000011C504609F05EFD4346311C18613898DB
:104FB00009F06FFD391C8246319809F06AFD011C29
:104FC000504609F04FFD069982462A9809F061FD86
:104FD00005998346239809F05CFD011C584609F0A9
:104FE00041FD011C504609F03DFD211C82461C98E4
:104FF00009F04FFD291C8346159809F04AFD011C54
:10500000584609F02FFD049983460E9809F041FD9A
:10501000011C584609F026FD011C504609F022FDEE
:10502000434605995861249809F033FD0699824654
:105030002B9809F02EFD011C504609F013FD391C78
:105040008246329809F025FD311C071C399809F079
:1050500020FD011C381C09F005FD011C504609F01B
:1050600001FD291C061C169809F013FD211C051CC6
:105070001D9809F00EFD011C281C09F0F3FC049991
:10508000041C0F9809F005FD011C201C09F0EAFC26
:10509000011C301C09F0E6FC434698611C239C4629
:1050A000089BE144E044994500D045E6A2ACA04607
:1050B000F6AB0693DAAB3C940893079B33981A68D7
:1050C000596D0492069A8946D669196FDD69059172
:1050D000311C9C6B176809F0DCFC391C82462C984B
:1050E00009F0D7FC011C504609F0BCFC059982462A
:1050F000259809F0CEFC494683461E9809F0C9FC64
:10510000011C584609F0AEFC011C504609F0AAFCEF
:10511000211C8246179809F0BCFC291C8346109874
:1051200009F0B7FC011C584609F09CFC0499834621
:10513000099809F0AEFC011C584609F093FC011CCB
:10514000504609F08FFC41460860311C349809F044
:10515000A0FC391C82462D9809F09BFC011C50468E
:1051600009F080FC05998246269809F092FC494690
:1051700083461F9809F08DFC011C584609F072FC0B
:10518000011C504609F06EFC211C8246189809F05B
:1051900080FC291C8346119809F07BFC011C5846B1
:1051A00009F060FC049983460A9809F072FC011C1E
:1051B000584609F057FC011C504609F053FC414683
:1051C0004860311C359809F064FC391C82462E98E1
:1051D00009F05FFC011C504609F044FC0599824629
:1051E000279809F056FC49468346209809F051FC5F
:1051F000011C584609F036FC011C504609F032FCEF
:10520000211C8246199809F044FC291C83461298F7
:1052100009F03FFC011C584609F024FC0499834620
:105220000B9809F036FC011C584609F01BFC011CC8
:10523000504609F017FC41468860311C369809F049
:1052400028FC391C82462F9809F023FC011C50468B
:1052500009F008FC05998246289809F01AFC49468D
:105260008346219809F015FC011C584609F0FAFB09
:10527000011C504609F0F6FB211C82461A9809F0E1
:1052800008FC291C8346139809F003FC011C5846AE
:1052900009F0E8FB049983460C9809F0FAFB011C1D
:1052A000584609F0DFFB011C504609F0DBFB414684
:1052B000C860311C379809F0ECFB391C82463098E5
:1052C00009F0E7FB011C504609F0CCFB059982462A
:1052D000299809F0DEFB49468346229809F0D9FB5C
:1052E000011C584609F0BEFB011C504609F0BAFBF0
:1052F000211C82461B9809F0CCFB291C834614987C
:1053000009F0C7FB011C584609F0ACFB0499834621
:105310000D9809F0BEFB011C584609F0A3FB011CC7
:10532000504609F09FFB41460861311C389809F04E
:10533000B0FB391C8246319809F0ABFB011C50468A
:1053400009F090FB059982462A9809F0A2FB49468C
:105350008346239809F09DFB011C584609F082FB07
:10536000011C504609F07EFB211C82461C9809F066
:1053700090FB291C8346159809F08BFB011C5846AD
:1053800009F070FB049983460E9809F082FB011C1A
:10539000584609F067FB011C504609F063FB434681
:1053A00049465861249809F074FB059981462B9869
:1053B00009F06FFB011C484609F054FB391C81467B
:1053C000329809F066FB311C071C399809F061FB23
:1053D000011C381C09F046FB011C484609F042FB41
:1053E000291C061C169809F054FB211C051C1D984D
:1053F00009F04FFB011C281C09F034FB0499041C24
:105400000F9809F046FB011C201C09F02BFB011C26
:10541000301C09F027FB414688611C218C46069A06
:10542000079B04320692089A04330793E0449A4299
:1054300000D042E63AAA94463D9B764A9946754B7F
:10544000624463441B6812681B68D3AC0793714BBA
:1054500063441B68DB6908936E4B63441B689B6B5A
:1054600009936C4B63441B685B6D0A93694B6344FF
:105470001B681B6F0B938C23D358664A0C93654BA8
:10548000624463441B685B680D93624B63441B6812
:105490001B6A0E935F4B63441B68DB6B0F935D4B82
:1054A00063441B689B6D10935A4B63441B685B6F8E
:1054B000126811939023D358564A1293554B624465
:1054C00063441B6812689B681393524B63441B68C8
:1054D0005B6A14934F4B63441B681B6C15934D4BD5
:1054E00063441B68DB6D16934A4B63441B689B6FD8
:1054F00017939423D358474A1893464B6244634406
:105500001B68DB681993434B63441B689B6A1A93BF
:10551000404B63441B685B6C1B933E4B63441B68AE
:1055200012681B6E1C933B4B63441B68DB6F1D931F
:105530009823D358374A1E93364B624463441B6802
:1055400012681B691F93334B63441B68DB6A20930B
:10555000304B63441B689B6C21932E4B63441B6848
:105560005B6E22938023D3582A4A23939C23624460
:105570001268D358274A2493264B624463441B681D
:105580005B692593234B63441B681B6B2693214B5C
:10559000126863441B68DB6C27931E4B63441B68D3
:1055A0009B6E28938423D3581A4A2993A0236244DC
:1055B0001268D358174A2A93164B624463441B68F7
:1055C00012689B692B93134B63441B685B6B2C9392
:1055D000104B63441B681B6D2D930E4B63441B687B
:1055E000DB6E2E938823D3580A4A2F93A423624458
:1055F0001268D35822003093074B63441B689846C7
:10560000D3AB06939023434431934B464446904694
:10561000329303E0340800002C0800006368E2685D
:105620009946A368089948460493059209F031FA0F
:1056300009998246049809F02CFA011C504609F099
:1056400011FA276882460799381C09F022FA011CD2
:10565000504609F007FA266982460B99301C09F07A
:1056600018FA656983460C99281C09F012FA011C86
:10567000584609F0F7F90A998346059809F009FA9E
:10568000011C584609F0EEF9011C504609F0EAF9F0
:10569000414608600E99484609F0FBF90F99824689
:1056A000049809F0F6F9011C504609F0DBF90D9950
:1056B0008246381C09F0EDF9011C504609F0D2F978
:1056C00011998246301C09F0E4F912998346281C8E
:1056D00009F0DFF9011C584609F0C4F91099834616
:1056E000059809F0D6F9011C584609F0BBF9011CD0
:1056F000504609F0B7F9414648601499484609F008
:10570000C8F915998246049809F0C3F9011C50465E
:1057100009F0A8F913998246381C09F0BAF9011C5E
:10572000504609F09FF917998246301C09F0B1F9EB
:1057300018998346281C09F0ACF9011C584609F059
:1057400091F916998346059809F0A3F9011C58466A
:1057500009F088F9011C504609F084F94146886037
:105760001A99484609F095F91B998246049809F060
:1057700090F9011C504609F075F919998246381CB8
:1057800009F087F9011C504609F06CF91D99824611
:10579000301C09F07EF91E998346281C09F079F91E
:1057A000011C584609F05EF91C998346059809F0DA
:1057B00070F9011C584609F055F9011C504609F0D2
:1057C00051F94146C8602099484609F062F921998B
:1057D0008246049809F05DF9011C504609F042F92F
:1057E0001F998246381C09F054F9011C504609F0F3
:1057F00039F923998246301C09F04BF924998346E4
:10580000281C09F046F9011C584609F02BF9229989
:105810008346059809F03DF9011C584609F022F924
:10582000011C504609F01EF9414608612699484678
:1058300009F02FF927998246049809F02AF9011CEA
:10584000504609F00FF925998246381C09F021F9D4
:10585000011C504609F006F929998246301C09F0CE
:1058600018F92A998346281C09F013F9011C584697
:1058700009F0F8F828998346059809F00AF9011CFF
:10588000584609F0EFF8011C504609F0EBF8434682
:105890002C995861484609F0FCF82D9981460498E6
:1058A00009F0F7F8011C484609F0DCF82B9981460D
:1058B000381C09F0EEF8011C484609F0D3F82F997E
:1058C000071C301C09F0E5F83099061C281C09F06B
:1058D000E0F8011C301C09F0C5F82E99051C05984C
:1058E00009F0D7F8011C281C09F0BCF8011C381C71
:1058F00009F0B8F8434698611C239C46319B183444
:10590000E044A34200D089E6F6AB05933C9CDAABB9
:105910003193069B0899DA691F6891469A6B48464D
:1059200090465A6D1E6F0492059A20CA059209F09E
:10593000B0F809998246404609F0ABF8011C504680
:1059400009F090F807998246381C09F0A2F8011C6A
:10595000504609F087F80B998246301C09F099F8F7
:105960000C998346281C09F094F8011C584609F04C
:1059700079F80A998346049809F08BF8011C584677
:1059800009F070F8011C504609F06CF8011C206801
:1059900009F068F80E992060484609F07AF80F99E6
:1059A0008246404609F075F8011C504609F05AF845
:1059B0000D998246381C09F06CF8011C504609F01C
:1059C00051F811998246301C09F063F81299834608
:1059D000281C09F05EF8011C584609F043F810999C
:1059E0008346049809F055F8011C584609F03AF826
:1059F000011C504609F036F8011C606809F032F8C5
:105A000018996060281C09F044F817998246301CE8
:105A100009F03FF8011C504609F024F81699824617
:105A2000049809F036F8011C504609F01BF8149947
:105A30008246484609F02DF815998346404609F0FC
:105A400028F8011C584609F00DF813998346381CB4
:105A500009F01FF8011C584609F004F8011C5046D3
:105A600009F000F8011CA06808F0FCFF1E99A06076
:105A7000281C09F00EF81D998246301C09F009F81F
:105A8000011C504608F0EEFF1C998246049809F06C
:105A900000F8011C504608F0E5FF1B99824640467D
:105AA00008F0F7FF1A998346484608F0F2FF011CF8
:105AB000584608F0D7FF19998346381C08F0E9FFCB
:105AC000011C584608F0CEFF011C504608F0CAFFE2
:105AD000011CE06808F0C6FF2099E060484608F025
