:020000041000EA
:1000000000B5324B212058609868022188439860DF
:10001000D860186158612E4B002199600221596106
:100020000121F02299502B49196001219960352056
:1000300000F044F80222904214D00621196600F024
:1000400034F8196E01211966002018661A6600F04E
:100050002CF8196E196E196E052000F02FF8012189
:100060000842F9D1002199601B49196000215960AB
:100070001A491B48016001219960EB211966A021F2
:10008000196600F012F800219960164914480160C1
:100090000121996001BC002800D000471248134993
:1000A000086003C880F30888084703B5996A0420EC
:1000B0000142FBD001200142F8D103BD02B5186610
:1000C0001866FFF7F2FF186E186E02BD00000240BE
:1000D000000000180000070000035F00212200005C
:1000E000F4000018222000A00001001008ED00E03C
:1000F00000000000000000000000000074B24E7A12
:1001000000200420F7010010C3010010C5010010F9
:10011000C1010010C1010010C1010010C101001097
:10012000C1010010C1010010C1010010C701001081
:10013000C1010010C1010010C9010010CB01001065
:10014000CD010010CD010010CD010010CD01001037
:10015000CD010010CD010010CD010010CD01001027
:10016000CD010010CD010010CD010010CD01001017
:10017000CD010010CD010010CD010010CD01001007
:10018000CD010010CD010010CD010010CD010010F7
:10019000CD010010CD010010CD010010CD010010E7
:1001A000CD010010CD010010CD010010CD010010D7
:1001B000CD010010CD010010CD010010CD010010C7
:1001C00000BE00BE00BE00BE00BE00BEEFF3058054
:1001D000103800BEF2EB8871DC410510FC410510BF
:1001E0003402001090A31AE700201F49086006C8D7
:1001F00081F3088810471D48006800282FD10DA4FE
:100200000ECC002902D000F012F8F9E71849194A7B
:10021000002000E001C19142FCD1174988471749ED
:1002200088471749884700BEFDE701C901C29A42C5
:10023000FBD37047FC410510C0000020902C00202B
:10024000CC6D05100000042000000420CC6D0510CA
:10025000001004200010042000000000704709482E
:100260000DF00AF90047000008ED00E0000000D0A2
:10027000902C0020C05803206DBC001055030010C6
:10028000A1BD00105756000006005250ABB360539A
:10029000B09D041006005250861C0302C09D04103D
:1002A000060052505422A29DCC9D041005005250CD
:1002B000DE65F468CC6D0510F8B5C0460448054B02
:1002C00010B5834203D0044B002B00D0984710BDDB
:1002D000902C0020902C00200000000006480749C8
:1002E000091A8B10C90FC91810B5491003D0044B57
:1002F000002B00D0984710BD902C0020902C00209F
:100300000000000010B5074C2378002B09D1FFF73F
:10031000D5FF054B002B02D0044800E000BF0123AD
:10032000237010BDD830002000000000B0980410E9
:10033000054B10B5002B03D00449054800E000BF71
:10034000FFF7CCFF10BDC04600000000DC300020ED
:10035000B098041070B5192009F054FFD023802202
:100360001B0692045A620EF0F7FF00F047F806F001
:1003700013FD08F043F906F0D5FF09F0CFFA00228B
:100380000524144B1A7006F0B5F9134D013C2100F9
:1003900028000EF0D5FFFA2080000AF043FD002C63
:1003A000F4D10A200EF02CFE012200210B480AF0A5
:1003B00001FA0B4811F080F901220A4B0A4C1A701D
:1003C0002378012BFCD108F0D5FA2378012BFAD041
:1003D000F6E7C046A4580320B0980410D457032071
:1003E000B98B0010A3580320A858032010B5024869
:1003F00011F08AFC10BDC04690380320092370B567
:1004000086B0059304330493023B0393013B0293AC
:10041000023B324D324C0193324B22003249334879
:1004200000932B0005F024FE142005F01DFEFA2099
:1004300080000AF0F7FC2E4E21003200280006F062
:100440002FF83378682B08D02A4C20000EF024FEB9
:10045000FA2080000AF0E6FCF7E773783D2BF3D131
:1004600001222100280006F03FF8234E320021002F
:10047000280006F073F83378002BF7D10122210011
:10048000280005F0EFFE0121200005F0CDFE03213C
:10049000200005F05FFE0321280005F089FF1321ED
:1004A000200006F0C9F81221200006F003F900210F
:1004B000200006F0E1F80321200006F06BF802218D
:1004C000200006F083F85521200005F061FE182178
:1004D000280005F007FF06B070BDC0467820032055
:1004E0005C32002040420F009C200020942000201D
:1004F00064580320C4980410BD580320F0B5C646C4
:10050000334C344D344E22002900300000B505F044
:10051000D9FF6378DB439B0720D023781B0702D4E5
:1005200080BCB846F0BD2D4C0622002120000EF004
:1005300035FC2100300005F095FF0023E05E05F05A
:10054000FFFD274D28600223E05E05F0F9FD68609D
:100550000423E05E05F0F4FDA860E1E7214B0622EC
:100560009846180000210EF019FC1F4F06220021AA
:1005700038000EF013FC4146280005F055FF390005
:10058000280005F033FF43460020185E05F0C4FD47
:100590004346164D28600220185E05F0BDFD434617
:1005A00068600420185E05F0B7FDA8600023F85EBF
:1005B00005F0BCFD0E4D28600223F85E05F0B6FD87
:1005C00068600423F85E05F0B1FDA860A5E7C046A9
:1005D000E84D03205C32002078200320903E032069
:1005E00030430320803E0320883E03200C3D03203F
:1005F0002C3D0320F0B55746DE464E464546E0B555
:100600008BB008919246190005900993DA170323DD
:100610008C46134063449B109B009846002B00DCE3
:1006200090E05246159B00249B000193149B9B1A5B
:10063000159A9B1A089A9B00029353681268190135
:1006400094460491069251469A00039252468D00B8
:100650000021013A92000792002289465900DE00EB
:10066000CB189B009B461300424665440092019ABA
:1006700094469C44039B1A199F195346002B1EDD78
:10068000069B059819196346804600989B004344D1
:1006900080460094086818600098081A845804314D
:1006A0005C6084599C60C059D86010338D42F1D190
:1006B00043460799009363468C4604339C440421C7
:1006C000029B5A4463448C461400049A3E00E14461
:1006D0009446009A5E4465444A45C8DC1A00009B73
:1006E0009846099B434526DD1499159C089B0D1BD4
:1006F000514609CB6D1A00291DDD41469E004B4332
:100700009B00C01853469C00059B47469C46099B8E
:10071000AB469846159B994600234A449100614494
:10072000C558CD5004339C42FAD1524401375A4443
:100730008019B845F0D10BB0F0BCBB46B246A94613
:10074000A046F0BD0022CCE7F0B54746CE4680B5C6
:100750001F00002B1DDD002A1BDD9300C0180B6855
:10076000002498464B689100D200494252428C4680
:1007700091469B00614645182900A2004244166834
:10078000D21840C18142FAD14A460134A81AA74280
:10079000F0D1C0BCB946B046F0BDC046F0B5DE46AB
:1007A00057464E4645460023E0B51360836887B040
:1007B0009A46059200230268052693460093013B62
:1007C000039002910493052355469B1B98465D4375
:1007D0005B46002B00D18DE14544AD005D442B68A4
:1007E0005C006B6864085F007F08391C381C0EF0E1
:1007F0009EF9002800D0DFE0211C381C0EF092F991
:10080000002800D0DFE00027731C9A46022B53D942
:10081000AB685B005B08191C181C99460EF087F941
:10082000002800D046E14846211C0EF07BF9002844
:1008300001D04C4602275346032B3DD0EB685B00AA
:100840005B08191C181C99460EF071F9002800D09D
:1008500038E14846211C0EF065F9002801D04C46CD
:1008600003275346042B27D02B695B005B08191C18
:10087000181C99460EF05BF9002800D02AE1494681
:10088000201C0EF041F9002801D04C4604275346A5
:10089000052B11D06D696D006D08291C281C0EF008
:1008A00046F9002800D01DE1291C201C0EF02CF96F
:1008B000002801D005272C1C029B009A47440021E8
:1008C0009F50201C0EF018F9002800D17EE0049BF8
:1008D000013300D1E3E006239B1B45460193039BB4
:1008E0009B689A465D4306239F1B53469B0099468F
:1008F000019B52461C005443009A7F199446A50060
:1009000065449C460023BF005F44B8461F00644412
:10091000A4005D445C444346286819680EF0BDF8A5
:10092000011C20680EF09FF82060012E2DD943464F
:10093000286859680EF0B1F8011C60680EF093F851
:100940006060022E21D04346296898680EF0A5F811
:10095000011CA0680EF087F8A060032E15D0434656
:100960002968D8680EF099F8011CE0680EF07BF851
:10097000E060052E09D14346296818690EF08DF80C
:10098000011C20690EF06FF8206101374D444C4482
:10099000BE42C0D1009B013E04330093019B052B56
:1009A00000D010E71A00029B5A6107B0F0BCBB46AA
:1009B000B246A946A046F0BD211C201C0EF0B7F897
:1009C000002800D018E73C1C01271DE7474530D020
:1009D00059465C460098BB005B4409581D68039A61
:1009E00092682550196001009200594489189B189B
:1009F00008681C680C60186089189B1808681C68D7
:100A00000C60186089189B1808681C680C601860D6
:100A100089189B1808681C680C60186089189B1856
:100A200018680A6808601A60059A13680193013310
:100A300013604546039B5A469B685D439A460623CE
:100A40009B1B0193EC1843465B199B009F58A40025
:100A50005C442068391C0EF00CF82060012E00D890
:100A600041E76068391C0EF004F86060022E00D186
:100A700039E7A068391C0DF0FCFFA060032E00D1FF
:100A800031E7E068391C0DF0F4FFE060042E00D17E
:100A900029E72069391C0DF0ECFF206123E70623CC
:100AA00045469B1B0193039B9B689A465D434346C7
:100AB000049318E7211C201C0EF039F8002800D1FF
:100AC000B7E6B0E6211C201C0EF031F8002800D15A
:100AD000C5E6BEE6211C201C0EF029F8002800D136
:100AE000D3E6CCE6211C201C0EF021F8002800D112
:100AF000E0E6D9E61B68FFDEF0B55746DE464E4617
:100B00004546E0B599B01493249B8246259C2698CF
:100B10005D1C00D1229B651C00D1229C239DEE17F9
:100B200003253540239EB4466544AD10AF0007252C
:100B3000229E0E97AE4335000096149E002E00DCD8
:100B400088E29B001693230110930301D318179397
:100B50006B1EDB0801330391D9015B010F93A300E6
:100B60007C43201880001193131815930023D3465B
:100B7000139108930E9B002B00DCC2E10F9A039B9C
:100B8000944663441293179BD84601930023029323
:100B90000298434601000CCB089C5943A44661448B
:100BA000890051180991411C594361448900511829
:100BB0000A91811C59436144890051180B91C11C51
:100BC0004B4363449B00D318019E0C93009B34005D
:100BD000002B00DC45E2039B0025994600234C4690
:100BE000AA46AB46A946069504952F1C0595079580
:100BF0000D9325683168281C0DF04FFF59460DF004
:100C000035FF71688346281C0DF047FF51460DF0F3
:100C10002DFFB1688246281C0DF03FFF07990DF0AB
:100C200025FFF1680790281C0DF037FF05990DF09E
:100C30001DFF059065683169281C0DF02EFF391CD9
:100C40000DF014FF7169071C281C0DF026FF049994
:100C50000DF00CFFB1690490281C0DF01EFF0699E1
:100C60000DF004FFF1690690281C0DF016FF4946AF
:100C70000DF0FCFE8146A568316A281C0DF00DFFC1
:100C800059460DF0F3FE716A8346281C0DF005FFEE
:100C900051460DF0EBFEB16A8246281C0DF0FDFEB8
:100CA00007990DF0E3FEF16A0790281C0DF0F5FEA0
:100CB00005990DF0DBFE0590E568316B281C0DF001
:100CC000ECFE391C0DF0D2FE716B071C281C0DF0D8
:100CD000E4FE04990DF0CAFEB16B0490281C0DF0DF
:100CE000DCFE06990DF0C2FEF16B0690281C0DF09B
:100CF000D4FE49460DF0BAFE81462569316C281CA8
:100D00000DF0CBFE59460DF0B1FE716C8346281CE8
:100D10000DF0C3FE51460DF0A9FEB16C8246281CB1
:100D20000DF0BBFE07990DF0A1FEF16C0790281C99
:100D30000DF0B3FE05990DF099FE05906569316DD2
:100D4000281C0DF0AAFE391C0DF090FE716D071CD9
:100D5000281C0DF0A2FE04990DF088FEB16D0490E0
:100D6000281C0DF09AFE06990DF080FEF16D06909C
:100D7000281C0DF092FE49460DF078FE8146A569CB
:100D8000316E281C0DF089FE59460DF06FFE716E14
:100D90008346281C0DF081FE51460DF067FEB16EB2
:100DA0008246281C0DF079FE07990DF05FFEF16E6A
:100DB0000790281C0DF071FE05990DF057FE059067
:100DC000E569316F281C0DF068FE391C0DF04EFEF0
:100DD000716F071C281C0DF060FE04990DF046FE93
:100DE000B16F0490281C0DF058FE06990DF03EFEE0
:100DF000F16F0690281C0DF050FE49460DF036FEAE
:100E00008146803620340D9B009A08330D939A4218
:100E100000DDEEE6139B019C9C46051C5946381CE0
:100E200064440DF023FE5146071C04980DF01EFE8D
:100E30000799061C06980DF019FE05998146281C95
:100E40000DF014FE129B051C9A46229A009B9A42B2
:100E500030DDAB460493534620CB2168281C9A46CC
:100E60000DF01BFE011C381C0DF000FE6168071C14
:100E7000281C0DF012FE011C301C0DF0F7FDA168BE
:100E8000061C281C0DF009FE011C48460DF0EEFD65
:100E9000E1688146281C0DF000FE011C58460DF04B
:100EA000E5FD8346049B229A0133103404939A4251
:100EB000D1D1051C311C0A9E30680DF0D4FD391CBF
:100EC000099F041C38680DF0CEFD291C0C9D38606C
:100ED000346028680DF0C7FD0B9E4946041C30683D
:100EE0000DF0C1FD1099019A8C46029B624401925B
:100EF0000E9A0433306002932C609A4200DD47E67C
:100F0000C3460F9A039B944663440E9A0293239B15
:100F10009246159D934200DC90E05B465C68534628
:100F20005C43089B2F009C465B461B6864449C46C0
:100F3000009BA4006444002B00DC99E00023039F85
:100F400099463B00A04600262F001C003968206807
:100F50000DF0A3FD311C0DF089FD061C7968606859
:100F60000DF09BFD311C0DF081FD061CB968A068D9
:100F70000DF093FD311C0DF079FD061CF968E06859
:100F80000DF08BFD311C0DF071FD061C39692069D7
:100F90000DF083FD311C0DF069FD061C7969606957
:100FA0000DF07BFD311C0DF061FD061CB969A069D7
:100FB0000DF073FD311C0DF059FD061CF969E06957
:100FC0000DF06BFD311C0DF051FD061C2037203457
:100FD00008239C46009BE1444B45B7DC44460F9BED
:100FE000EF18029B0193229A009B9A4217DD9946C3
:100FF0000023984643464246F958019B98580DF005
:101000004CFD011C301C0DF031FD061C01239C46DB
:101010000333E1449C46229BE0444B45EAD12068DF
:10102000311C0DF020FD01239C46119BE2449C469F
:10103000239B20606544534500D06EE71699039AC0
:101040008C46089B62440392149A013308939A4297
:1010500000D08FE519B0F0BCBB46B246A946A04609
:10106000F0BD0025039BA9469A462E1C2F1CECE6DA
:10107000039B00260193B6E7F0B557464E46DE4681
:1010800045468024E0B5B5B006AF3C1920609420F9
:101090007B63E823AE4E38180160BA63FB181C6806
:1010A0003378BFF35B8FDB0700D477E2A94D902242
:1010B0002369BA1813608422A368BA1813608022C7
:1010C000BA1812686D68934202DD8423FB181A6017
:1010D00094218423902279180E688C21FB18BA1869
:1010E00012681B6856435343226879180A60002A25
:1010F00000D180E29B003B660023BB6763687B678F
:10110000002B00D163E2B300FB6500233B6798220C
:101110000423BA1813609033FB181B68002B19DDE9
:101120008023E422FB18BA181B6812681900934246
:1011300000DA4AE2280009010CF0F8F90323C2178B
:10114000134098221B189B109B00BA181360042BA5
:1011500000DA35E28023FB181968002900DCA9E1D8
:1011600090207B6B38181A000068796484464243EB
:10117000091A3A616244B9647A609821E4227918C4
:10118000BA18126809684A43BA619A007A6104324F
:10119000FA61A02201339B00BA181360E423FB1804
:1011A0001B689B009B460023FB63FB643B64BB66A0
:1011B0009C227B6CBA1813609022BA181268934272
:1011C00002DD9C23FB181A609423FB181B68002B7C
:1011D00000DC47E19C23FB181A68002A00DC41E18F
:1011E0009423E021FB181B687918BB6598230968D4
:1011F000FB188C461B68B86E53439B00BB607B6F2B
:101200001100FB6783006344FB6000238C46FB6690
:10121000FB620B00B021791839630321013B043ACA
:101220008B436044D31A38603B629822BA18BB6D76
:1012300012689A46934200DD9246FA68FB6E944625
:101240009B0063447B66FB6B88227B65FB6CBA1852
:101250003B659C23FB181B6813609C23FB181A68D2
:101260008823FB181B68D21ABA62A422BA1813602A
:10127000042B03DDA4220423BA1813608823FB186F
:101280003A681B68D21A7A62002B65DDA423BA6B18
:10129000FB189146A8221B68BA18013B98467B6D43
:1012A0009B0099447B6E1360AC220023BA18136034
:1012B000AC23AC22FB181B68BA18013313604346F9
:1012C000002B2CDDA8230025FB181C684B46266844
:1012D0005968301C0DF0E1FB011C60680DF0C3FB88
:1012E00043466060012B16D04B46301C99680DF0C8
:1012F000D4FB011CA0680DF0B6FB4346A060022B96
:1013000009D04B46301CD9680DF0C7FB011CE068C2
:101310000DF0A9FBE06001355C445545D6D10123B1
:101320005B429C46A133FB181B68E0449C46A82303
:10133000A822FB181B68BA1804331360AC23A4223C
:10134000FB18BA181B681268E1449342B0DB03E053
:10135000E0220320A43803208823A422FB18BA1813
:101360001B681268396B9D1A7B6EBE6A0B60E423A2
:10137000FB181B6891464B609C230196FB181B6869
:1013800088460093F86F5346FFF734F9002D37DD98
:1013900041467C6A386D4C440319B86B4A46844612
:1013A000786B9B004860A420381802608C203818A5
:1013B000006863440B602B0081463963FFF7C4F972
:1013C000E022FB6EBA181B1914689B00A0463C6B08
:1013D00043442360E423FB1819689C236160FB18D5
:1013E00004961B6849460393A423FB181A685346C6
:1013F0000292019300922B002000FA6FFFF77CFB12
:10140000882388227969FB188C461B68BA18043B2C
:10141000F96913603A6D62448C463A657A6E10320F
:101420007A667A6D62447A653A6A9A4200D014E725
:101430009822BA181268B96D9446FB6A8A1AB9697B
:1014400063448C46BA65B968FA6EFB6262448C46A6
:10145000FA66FA6F6244FA679422BA1812689A42DE
:1014600000DDE2E69022BA181268BB6E9446802234
:10147000BA1812686344BB6693421BDA8423FB18D4
:101480001B68002B38DC90233969FB188C467A6C7A
:101490001B68D21A7A643A6C62443A64BA6CD31A02
:1014A000BB647A68FB6C63449446FB64FB6B6344E7
:1014B000FB637DE68023FA6D9B029A4207D93A6F5F
:1014C000002A04D0531E1878101A0DF04FFC802308
:1014D0003A6E9B029A4207D9BA6F002A04D0531E73
:1014E0001878101A0DF042FCBD462FB0F0BCBB4678
:1014F000B246A946A046F0BDBA6B3B6C92469B0033
:101500009A44B023FE18B13B9946BD6CBC6E84234F
:10151000FB181B68A8469D4200DD9846AC22A3003C
:10152000BA1813607A6B8C2072609C225344BA18EC
:10153000381831001268006833604346FFF704F939
:10154000E022AC23BA181268FB1894461B688C2161
:1015500063443360E423FB181B687918736000232D
:1015600004934B46039302939423FB181B683000AB
:1015700001939C23FB181B6800937A6F434609680C
:10158000FFF7BAFA8423FB181B689C46ED1A8023E8
:10159000FB181B686444A342B9DC74E7300010F008
:1015A000B1F8364D002800D181E58023DB012B60A6
:1015B00080231B0330006B60AB6010F0BFF876E552
:1015C00098220423BA181360C4E51100B2E5802301
:1015D000B200FA659B029A423AD813006A46163363
:1015E000DB08DB00D31A9D4627200F23684498436D
:1015F000386778678BE59A0080233A669B029A42A7
:101600000FD813006A461633DB08DB00D31A9D4659
:1016100027200F23684498437D33FB18B867186070
:101620006CE5100010300DF083FBB867002800D186
:1016300064E50F221023844602409B1ADBB29C44CF
:1016400061464A1E13708C23FB18B967196055E573
:10165000100010300DF06CFB3867002800D156E503
:101660000F221023844602409B1ADBB29C44614641
:101670004A1E39671370796749E5C046A4380320CC
:10168000F0B557464E46DE464546E0B5B7B006AF24
:10169000824684207B65F023CB4E38180160BA6304
:1016A000FB181C683378BFF35B8FDB0700D49DE227
:1016B000C64D23696D683B67A368BB67534501DD71
:1016C0005346BB67842179180E6880213A6FBB6F3F
:1016D00056435343226879180A60002A00D1B4E2C5
:1016E0009B003B650023FB666368BB66002B00D153
:1016F00097E2B300FB6400237B6688220423BA18B8
:1017000013608033FB181B68002B16DDEC23FB18DD
:101710001B6851469A4500DA7FE2280009010BF068
:1017200005FF0323C217134088221B189B109B0040
:10173000BA181360042B00DA6AE25346002B00DC6F
:1017400032E27A6D386F1100434259430B00B9629F
:1017500051460C1A110062431B1A9B00BA647B604D
:101760000A000B0051464B43B96B53448C46E821A9
:101770009B006344FB637918830009685B423B600C
:1017800053468C469B006344EC21BB658823791843
:10179000FB1809681B687C674B4390213B619300F1
:1017A0005B4279180B60043BBB609B00FB60D3433A
:1017B00094229B00BA181360EC23A822FB181B6824
:1017C000BA189B001360544603008C22BA181360A9
:1017D000A34200DD14608423FB181B68002B00DC8F
:1017E00076E18C23FB181A68002A00DC70E1842360
:1017F000FB181B68B96D7B648823FB181B68534377
:101800009B00FB61BB6EFB659300CB1A3B62002320
:10181000B8213B667B63A31A7918FB621300396316
:101820000321013B043A8B43D31A7B61AC227B6CCE
:10183000BA1813608822BA181268934202DDAC23EA
:10184000FB181A603A6A3B6E94469B009C446246C1
:101850007A62BA6D944698226344BA181360FB6B9F
:101860003B648C23FB181B68FB679C22FB6FBA1838
:101870001360042B03DD9C220423BA181360FA6F53
:10188000FB6A94466344BB61002A00DCA0E09C2311
:10189000396CA0208A46FB181B6838185A1E9346DC
:1018A000BA685B42524402607A6D9B1A9B009A446C
:1018B0000423A4225B4299460023BA181360A02394
:1018C000FE20FB181B68800519680DF0D2F8B423C0
:1018D000FB181860A423FB181B685A46DB439B1AAD
:1018E0009822BA18126800269446B0229C009B00E9
:1018F0005B42BA1864441360B023FB181B684A4665
:101900009846A04443469958B423FB1818680DF034
:10191000C4F843464A4698505B46051C002B22DD1E
:10192000534619680DF0B9F8011C20680DF09BF8BA
:101930005B462060012B16D05346281C59680DF0D9
:10194000ACF8011C60680DF08EF85B466060022BFD
:1019500009D05346281C99680DF09FF8011CA06817
:101960000DF081F8A060A823FB181B6801369C4687
:10197000AC23FB181B6864449E42BDD1A423A4225F
:10198000FB181B68BA1801331360012294215242DC
:10199000944679180968E3448C46A021A132BA180C
:1019A0001268791862440A600422524294469432C2
:1019B000BA181268E14494469C22BA181268E244AC
:1019C000934200DA7BE703E0E0220320A4380320FF
:1019D000E8219C2279180968BA188C46FB6F1268B6
:1019E000396B9C1ABB699D1A3B6E5B199B00634463
:1019F0000B60EC23FB181B684B608C230194FB18D5
:101A00001B680093AC23FB181B68F86DFEF7F2FD12
:101A1000002C30DD7A6DF96A13008C466B433D6B08
:101A2000B96B80206A609C2263448C463818066833
:101A30009B00BA181268634429002B603000230011
:101A40009046FEF781FEEC2228008C237D6ABA18AE
:101A500005601568FB18456004941D68AC22434678
:101A600003950293BA181268009301922300310083
:101A7000FA6DFFF741F898229821BA181268791880
:101A8000103A0A60F9683A6C8C46FB6F62443A641B
:101A90007A69043BFB679A4200D0E6E68822BA18CE
:101AA0001268796C94467B6B8A1AF96963448C4698
:101AB0007A643969FA6D7B6362448C46FA653A6EE2
:101AC00062443A668422BA1812689A4200DDADE692
:101AD0007B6F1C1E68DDBB6F002B00DCFEE7BA6B62
:101AE000BB6C93469B009B4400239946B833FE1879
:101AF000B93B9A4623004C4699467D6FBB6FA8467A
:101B00009D4200DD9846B422A300BA1813607A6D96
:101B1000802072608C225B44BA1838183100126839
:101B2000006833604346FEF70FFEE822B423BA187C
:101B30001268FB1894461B68802163443360EC23D1
:101B4000FB181B68791873600023049353460393B2
:101B500002938423FB181B68300001938C23FB182D
:101B60001B680093BA6E43460968FEF7C5FFBB6F5A
:101B70009C46ED1A7B6F6444A342BFDCBA6ABB6C1F
:101B800094467A6863449446BB643A68FB6B4C465F
:101B900063449446FB63BB6D3A6F6344BB657B6FE4
:101BA0009B1A7B67130010E68023FA6C9B029A4213
:101BB00007D97A6E002A04D0531E1878101A0DF037
:101BC000D5F880233A6D9B029A4207D9FA6E002A13
:101BD00004D0531E1878101A0DF0C8F8BD4631B065
:101BE000F0BCBB46B246A946A046F0BD30000FF09F
:101BF00089FD374D002800D15BE58023DB012B6098
:101C000080231B0330006B60AB600FF097FD50E545
:101C100088220423BA1813608FE5EC23FB18196897
:101C20007BE58023B200FA649B029A423AD8130003
:101C30006A461633DB08DB00D31A9D4627200F23A4
:101C4000684498437866B86657E59A0080233A65F9
:101C50009B029A420FD813006A461633DB08DB005A
:101C6000D31A9D4627200F23684498437133FB18ED
:101C7000F866186038E5100010300DF059F8F86675
:101C8000002800D130E50F221023844602409B1A21
:101C9000DBB29C4461464A1E13708023FB18F96630
:101CA000196021E5100010300DF042F87866002828
:101CB00000D122E50F221023844602409B1ADBB29A
:101CC0009C4461464A1E79661370B96615E5C046A4
:101CD000A438032030B587B00D4B02AD00951A68CB
:101CE000694602929A880400AA809B796A46AB7181
:101CF000072301930023D3732CF096FC0098A8428D
:101D000003D0029901310DF065F8200007B030BD15
:101D1000D8980410F0B5DE4657464E464546E0B525
:101D20000E000168C7688946416805698A4681686E
:101D30008DB08B464169806907930690506813689F
:101D4000926805910A90291C30680B9209930895B6
:101D50000CF089FE0599039070680CF084FE0699DA
:101D6000051CB0680CF07FFE80268046360607987A
:101D70000CF016FFB446039B0090019163441800D9
:101D800051460CF08AFE5946061C281C0CF085FEB4
:101D9000011C301C0CF067FE391C061C40460497E1
:101DA0000CF07BFE011C301C0CF05DFE0CF0F8FE0C
:101DB0000022684B0BF031FE009A019B0BF02DFEC8
:101DC000060048460F000CF0EBFE02000B0030004E
:101DD0003900169C0BF0FAFD0BF024FF49462060F9
:101DE00003980CF05AFE5946061C40460CF055FE6E
:101DF000011C301C0CF03AFE0499061C281C0CF047
:101E00004CFE011C301C0CF02EFE0CF0C9FE002212
:101E1000504B0BF002FE009A019B0BF0FEFD0600FA
:101E200050460F000CF0BCFE02000B0030003900E1
:101E30000BF0CCFD0BF0F6FE49466060281C0CF060
:101E40002CFE5146061C40460CF027FE011C301C9F
:101E50000CF009FE0499061C03980CF01EFE011CF0
:101E6000301C0CF003FE0CF09BFE0022394B0BF0F3
:101E7000D4FD009A019B0BF0D0FD060058460F00E0
:101E80000CF08EFE02000B00300039000BF09EFDBE
:101E90000BF0C8FE4946A06040460CF0FEFD5146DE
:101EA000061C281C0CF0F9FD011C301C0CF0DEFD9A
:101EB0005946051C03980CF0F0FD011C281C0CF081
:101EC000D2FD0CF06DFE0022224B0BF0A6FD009A15
:101ED000019B0BF0A2FD060004980F000CF060FEC1
:101EE00002000B00300039000BF070FD0BF09AFE81
:101EF000089B0999E060181C98460CF0CEFD079DE0
:101F0000291C0CF0CAFD011C40460CF0ACFD059FDD
:101F10000A992061381C0CF0C0FD291C0CF0BDFD95
:101F2000011C381C0CF09FFD069E0B996061301C53
:101F30000CF0B3FD291C0CF0B0FD011C301C0CF0A2
:101F400092FDA06100200DB0F0BCBB46B246A94690
:101F5000A046F0BD0000E03FF0B5DE4657464E46D5
:101F600045468A464168E0B58846C768816891B0B1
:101F7000066889464046391C141C04930CF08DFDFC
:101F80004946051C301C0CF088FD0A90011C281CD9
:101F900009950CF068FD0CF003FE02000B000BF03D
:101FA00015FD06900791201C02940CF0F9FD0B0022
:101FB000020004000D00069807990BF02EFD0BF0AF
:101FC00031FE5246391C106048460CF066FD8346CF
:101FD0004146301C0CF061FD5A460E90011C5846DB
:101FE0000B920CF043FD0CF0DBFD02000B000BF03C
:101FF000EDFC02000B00200029000C920D930BF069
:102000000CFD0BF00FFE5446311C6060301C0CF0D0
:1020100044FD4146041C40460CF03FFD051C011CDC
:10202000201C0CF020FD4946089048460CF035FD78
:10203000391C8346381C0CF030FD59460190089835
:102040000CF011FD01990CF011FD02990F900CF0AC
:1020500024FD53464946986040460CF01EFD391C4D
:102060008046301C0CF019FD81461A980CF098FD42
:1020700006001B980F000CF093FD02900391291CA1
:10208000201C0CF0F3FC59460CF0EDFC01990CF00F
:10209000EAFC04990CF001FD0CF082FD04000D0037
:1020A000404649460CF0E2FC0CF07AFD02000B00C1
:1020B0000BF08CFC32003B000BF0AFFC02000B007D
:1020C000200029000BF082FC029A039B04000D0003
:1020D000069807990BF0A1FC02000B0020002900D4
:1020E0000BF074FC0BF09EFD5346D86004980CF086
:1020F00057FD04000D00404649460CF0B4FC0CF0BE
:102100004FFD02000B000BF061FC22002B00049439
:1021100005950BF082FC04000D00089859460CF060
:10212000A5FC01990CF09FFC1A990CF0B6FC0CF080
:1021300037FD02000B00200029000BF047FC029A3B
:10214000039B04000D000C980D990BF066FC020037
:102150000B00200029000BF039FC0BF063FD534607
:102160000A99186109980CF081FC0CF019FD020025
:102170000B000BF02BFC049A059B0BF04EFC0400AB
:102180000D000B980E990CF06EFC0CF009FD02008E
:102190000B000BF01BFC32003B000BF03EFC02007E
:1021A0000B00200029000BF011FC04000D000F981B
:1021B0001B990CF072FC0CF0F3FC02000B002000E9
:1021C00029000BF003FC0BF02DFD53465861002055
:1021D00011B0F0BCBB46B246A946A046F0BDC04611
:1021E000F0B50400DE4657464E4645460800E0B5C9
:1021F00045680968AA46856895B0AB46C5684669D2
:10220000876910910E950169556810689268049667
:1022100090461A68069711925A689B681292139317
:10222000FE239B05236099460CF01DFC0CF0B8FCC6
:10223000009001911E980CF0B3FC06000F0000986E
:1022400001990022924B0BF0E8FB32003B000BF0AF
:10225000E4FB0BF0E7FC04990390E061281C0CF010
:1022600002FC0CF09DFC0022894B049005910BF0C0
:10227000D4FB32003B000BF0D0FB0BF0D3FC0699F3
:10228000051CA06340460CF0EEFB0CF089FC00221C
:102290007F4B069007910BF0C0FB32003B000BF028
:1022A000BCFB0BF0BFFC0A90606550460CF078FC5C
:1022B0000022784B089009910BF0AFFB32003B00F5
:1022C0000BF0ABFB0BF0AEFC0B90206758460CF00C
:1022D00067FC00226F4B0C900D910BF09EFB3200BF
:1022E0003B000BF09AFB0BF09DFC8C238246E050E8
:1022F0000E980CF055FC0022664B0E900F910BF0DF
:102300008CFB32003B000BF088FB0BF08BFCA8230E
:102310008346E0500022009801995E4B0BF07DFB54
:1023200032003B000BF079FB0BF07CFC494600903F
:1023300060602162002206980799564B0BF06DFBF6
:1023400032003B000BF069FB0BF06CFCA56580468E
:10235000E06310980CF024FC00224D4B0BF05DFB69
:1023600032003B000BF059FB0BF05CFC594690230C
:10237000051C60670022E1500C980D99444B0BF04E
:102380004CFB32003B000BF048FB0BF04BFCAC234A
:102390000022E050049805993E4B0BF03EFB3200C2
:1023A0003B000BF03AFB0BF03DFC49460A9A834692
:1023B0006262009AA0602164E2650E980F99002283
:1023C000334B0BF02AFB32003B000BF026FB0BF0EB
:1023D00029FC94230B99A067E5501C33E15041463A
:1023E000E1605946A162494621665146039BE16777
:1023F0006364089809990022254B0BF00EFB32000C
:102400003B000BF00AFB0BF00DFC9823E0501C3353
:10241000E55000251E9911982561E562A564656661
:102420000CF03BFB011C48460CF01DFB8023E050E8
:102430001C33E5501C33E550343B1E9912986561FE
:102440002563E564A566E5500CF027FB011C4846B2
:102450000CF009FBA023E0501C33E550343BA56190
:1024600065632565E566E5501C33E5501E991398B4
:102470000CF013FB011C48460CF0F5FAC023E050A9
:10248000002015B0F0BCBB46B246A946A046F0BD40
:102490000000E0BF0000E03FF0B5DE4657464E4684
:1024A0004546E0B59A460B68141C8A689B464B6803
:1024B000C9688BB00500101C8846009301920CF08F
:1024C0006FFB02900391201C0CF06AFBC0230600F6
:1024D0000F000298039900221B060BF09EFA3200AF
:1024E0003B000BF09AFA0BF09DFB089028604046E9
:1024F0000CF056FB02000B000BF068FA32003B00B8
:102500000BF08BFA0BF08EFB041CA86158460CF004
:1025100047FBC02300221B06049005910BF07DFAB7
:1025200032003B000BF079FA0BF07CFB286300983B
:102530000CF036FB02000B00069007910BF046FAF8
:1025400032003B000BF069FA0BF06CFB002190238A
:102550008946A8642966A967E950686004980599C6
:1025600002000B000BF032FA32003B000BF055FA80
:102570000BF058FB6C630490E86102980399020029
:102580000B000BF023FA32003B000BF046FA0BF085
:1025900049FB49469423E8646966E967E950C0232A
:1025A00006980799049A1B06AA6000220BF035FAD8
:1025B00032003B000BF031FA0BF034FB089B49462C
:1025C000AB63802328622C65A966E9501833E95073
:1025D000404614990CF061FA019F1599061C381CAD
:1025E0000CF05BFA5146041C58460CF056FA311CAC
:1025F0000CF03CFA211C06940CF035FA011C0CF08E
:1026000035FA51460990E86000980CF046FA1499A2
:10261000041C381C0CF041FA011C201C0CF026FA9A
:102620001599041C40460CF038FA011C201C0CF0D3
:102630001DFA011C0CF01AFA1499029068620098B5
:102640000CF02BFA1599089058460CF026FA019ACE
:102650008024944624066444071C514620000CF054
:102660001CFA08990CF002FA391C0CF0FCF9011C58
:102670000CF0FCF91499E86358460CF00EFA159921
:10268000049000980CF009FA802212064244041CBF
:10269000514610000CF001FA04990CF0E7F9211CE6
:1026A0000CF0E4F9011C0CF0E1F94A468423EA66D7
:1026B0006865EA501833EA505146286101980CF0D9
:1026C000ECF908990CF0CFF9391C0CF0CFF9011C8A
:1026D0000CF0CCF9071CA8628020029B00062B643A
:1026E000514658440CF0D9F9311C0CF0BCF906994C
:1026F0000CF0BCF9011C0CF0B9F98823A865484618
:102700002867E8501833E850514640466F610CF096
:10271000C4F904990CF0A7F9211C0CF0A4F9011CD0
:102720000CF0A4F9099AE8626A64029B4A46EB65D8
:102730004B466B678C230020EA501833EA500BB0ED
:10274000F0BCBB46B246A946A046F0BD0123F0B599
:10275000E3214746CE469C46294B804605009946D4
:10276000284E80B58900076846444144FA0F6F68D7
:10277000D2077B005B08346813435A086240644602
:102780001C4201D04B465A4004C50436A942EDD143
:10279000E32342469B00C626D458194B01259C468C
:1027A000F6004644E20F4C68D20763005B080768F6
:1027B00013435A087A401D4201D063465A40043000
:1027C00004C1B042EED14246C62140460E4BC9007C
:1027D000D3581268DB0F52005208DB0741581343ED
:1027E0005A084A40DB0701D5054B5A404146064B83
:1027F000CA5000220433CA50C0BCB946B046F0BD2E
:10280000DFB0089934060000BC090000F0B5454669
:10281000DE4657464E46E0B53C4CD723A54434AA85
:10282000944663441B091B018A6805930B68019257
:1028300037921A6804902D929A6933912E921A6BEE
:1028400038AC2F929A6C30921A6E06929A6F089258
:1028500090229A5807925A680A92DA690B925A6B38
:102860000C92DA6C0D925A6E0E92DA6F0F929422DD
:102870009A5810929A6811921A6A12929A6B13924D
:102880001A6D14929A6E159280229A581692982276
:102890009A581792DA6818925A6A1992DA6B1A9251
:1028A0005A6D1B92DA6E1C9284229A581D929C22B9
:1028B0009A581E921A691F929A6A20921A6C219253
:1028C0009A6D22921A6F239288229A582492A022FB
:1028D0009A5825925A692692DA6A27925A6C289257
:1028E000DA6D29925A6F2A928C229A582B92A4223E
:1028F0009B582C934B68984638AB3293C42343447F
:1029000009934346A0461C0002E0C0469CFDFFFF21
:10291000E168A26889462169236848460391309995
:10292000029201930CF0B9F80399824606980CF0D4
:10293000B4F8011C50460CF099F867698246391CBE
:1029400008980CF0AAF8A6698346311C07980CF089
:10295000A4F8011C58460CF089F8011C50460CF0F4
:1029600085F8656882462E99281C0CF096F82F99F8
:10297000834602980CF091F8011C58460CF076F84A
:102980002D99834601980CF088F8011C58460CF0EC
:102990006DF8011C50460CF069F843464946186032
:1029A0000D980CF07AF8039982460E980CF075F8A1
:1029B000011C50460CF05AF8391C82460F980CF056
:1029C0006CF8311C834610980CF067F8011C5846CF
:1029D0000CF04CF8011C50460CF048F8291C8246BB
:1029E0000B980CF05AF8029983460C980CF055F8A5
:1029F000011C58460CF03AF8019983460A980CF0ED
:102A00004CF8011C58460CF031F8011C50460CF0F3
:102A10002DF843464946586014980CF03EF8039947
:102A2000824615980CF039F8011C50460CF01EF83F
:102A3000391C824616980CF030F8311C83461798E2
:102A40000CF02BF8011C58460CF010F8011C5046F5
:102A50000CF00CF8291C824612980CF01EF8029912
:102A6000834613980CF019F8011C58460BF0FEFF32
:102A70000199834611980CF010F8011C58460BF090
:102A8000F5FF011C50460BF0F1FF434649469860A4
:102A90001B980CF002F8039982461C980BF0FDFF7E
:102AA000011C50460BF0E2FF391C82461D980BF0CA
:102AB000F4FF311C83461E980BF0EFFF011C5846B3
:102AC0000BF0D4FF011C50460BF0D0FF291C8246AE
:102AD00019980BF0E2FF029983461A980BF0DDFF7C
:102AE000011C58460BF0C2FF0199834618980BF061
:102AF000D4FF011C58460BF0B9FF011C50460BF0E7
:102B0000B5FF43464946D86022980BF0C6FF0399AB
:102B1000824623980BF0C1FF011C50460BF0A6FF24
:102B2000391C824624980BF0B8FF311C8346259847
:102B30000BF0B3FF011C58460BF098FF011C5046E8
:102B40000BF094FF291C824620980BF0A6FF0299F7
:102B5000834621980BF0A1FF011C58460BF086FF1D
:102B6000019983461F980BF098FF011C58460BF003
:102B70007DFF011C50460BF079FF43464946186122
:102B800029980BF08AFF039981462A980BF085FF5C
:102B9000011C48460BF06AFF391C81462B980BF04C
:102BA0007CFF311C071C2C980BF077FF011C381C94
:102BB0000BF05CFF011C48460BF058FF291C061C5B
:102BC00027980BF06AFF0299051C28980BF065FF07
:102BD000011C281C0BF04AFF0199051C26980BF0DC
:102BE0005CFF011C281C0BF041FF011C301C0BF08A
:102BF0003DFF4346586118239C46099B1C34E04422
:102C0000A34200D084E6379B1A68629308929A69BF
:102C100009921A6B0A929A6C0B921A6E0C929A6F26
:102C20000D9290229A580E925A680F92DA69109279
:102C30005A6B1192DA6C12925A6E1392DA6F1492E6
:102C400094229A5815929A6816921A6A17929A6B59
:102C500018921A6D19929A6E1A9280229A581B92A3
:102C600098229A581C92DA681D925A6A1E92DA6B60
:102C70001F925A6D2092DA6E219284229A582292E3
:102C80009C229A5823921A6924929A6A25921A6C65
:102C900026929A6D059C27921A6F203428928822DA
:102CA0009A58A1462992A0229A582A925A692B92A0
:102CB000DA6A2C925A6C2D92DA6D2E925A6F2F92FC
:102CC0008C229A583092A4229B5831935CAB069385
:102CD0003EAB0793329B98464346424641464046A8
:102CE0001B6895690193069B146B096E926C40CB2F
:102CF000876F0291101C0B99039206930BF0CDFE87
:102D00000C99824602980BF0C8FE011C50460BF04D
:102D1000ADFE0D998246381C0BF0BFFE0E9983461E
:102D2000301C0BF0BAFE011C58460BF09FFE011C34
:102D300050460BF09BFE09998246281C0BF0ADFE15
:102D40000A998346201C0BF0A8FE011C58460BF084
:102D50008DFE0899834601980BF09FFE011C584692
:102D60000BF084FE011C50460BF080FE4B4612997E
:102D7000186003980BF091FE1399824602980BF0AD
:102D80008CFE011C50460BF071FE14998246381CD3
:102D90000BF083FE15998346301C0BF07EFE011C60
:102DA00058460BF063FE011C50460BF05FFE109975
:102DB0008246281C0BF071FE11998346201C0BF0F3
:102DC0006CFE011C58460BF051FE0F99834601988A
:102DD0000BF063FE011C58460BF048FE011C5046E8
:102DE0000BF044FE4B461999586003980BF055FEC2
:102DF0001A99824602980BF050FE011C50460BF0C7
:102E000035FE1B998246381C0BF047FE1C99834601
:102E1000301C0BF042FE011C58460BF027FE011C33
:102E200050460BF023FE17998246281C0BF035FE06
:102E300018998346201C0BF030FE011C58460BF0FD
:102E400015FE1699834601980BF027FE011C584683
:102E50000BF00CFE011C50460BF008FE4B4620996F
:102E6000986003980BF019FE2199824602980BF0A6
:102E700014FE011C50460BF0F9FD22998246381CC5
:102E80000BF00BFE23998346301C0BF006FE011C51
:102E900058460BF0EBFD011C50460BF0E7FD1E9968
:102EA0008246281C0BF0F9FD1F998346201C0BF06D
:102EB000F4FD011C58460BF0D9FD1D99834601987D
:102EC0000BF0EBFD011C58460BF0D0FD011C5046E9
:102ED0000BF0CCFD4B462799D86003980BF0DDFD35
:102EE0002899824602980BF0D8FD011C50460BF041
:102EF000BDFD29998246381C0BF0CFFD2A998346E7
:102F0000301C0BF0CAFD011C58460BF0AFFD011C34
:102F100050460BF0ABFD25998246281C0BF0BDFDF9
:102F200026998346201C0BF0B8FD011C58460BF077
:102F30009DFD2499834601980BF0AFFD011C584676
:102F40000BF094FD011C50460BF090FD4B462E9962
:102F5000186103980BF0A1FD2F99824602980BF09F
:102F60009CFD011C50460BF081FD30998246381CB7
:102F70000BF093FD3199071C301C0BF08EFD011CEA
:102F8000381C0BF073FD011C50460BF06FFD2C99A3
:102F9000061C281C0BF081FD2D99051C201C0BF034
:102FA0007CFD011C281C0BF061FD2B99041C019871
:102FB0000BF073FD011C201C0BF058FD011C301C94
:102FC0000BF054FD4B46586104239C461433E044F7
:102FD0009C46079BE144434500D07DE6339B059D1D
:102FE000DC68296A20680BF041FD049EA96B306003
:102FF00060680BF03BFD7060A068296D0BF036FD3A
:10300000B060E068A96E0BF031FD8023F0602069AC
:10301000E95898460BF02AFD98233061E958606919
:103020000BF024FD7061A069696A0BF01FFDB061AF
:10303000E069E96B0BF01AFDF061206A696D0BF035
:1030400015FD3062E96E606A0BF010FD8427706236
:10305000A06AE9590BF00AFD9C23B062E958E06AC6
:103060000BF004FDF062206BA96A0BF0FFFC3063EB
:10307000606B296C0BF0FAFC7063A06BA96D0BF010
:10308000F5FCB063E06B296F0BF0F0FCF063882671
:10309000206CA9590BF0EAFC049B1864A023606C17
:1030A000E9580BF0E3FC049BE96A5864A06C0BF050
:1030B000DDFC049B696C9864E06C0BF0D7FC049B0E
:1030C000E96DD864206D0BF0D1FC049B696F186525
:1030D000606D0BF0CBFC8C25049A059B5065A06DB0
:1030E00059590BF0C3FCA423049A9065059AE06D2E
:1030F000D1580BF0BBFC049B059AD865116B206E70
:103100000BF0B4FC049B059A1866916C606E0BF092
:10311000ADFC049B059A5866A06E116E0BF0A6FCE0
:10312000049B059A9866E06E916F0BF09FFC049BE0
:10313000059AD8669023206FD1580BF097FC049B1A
:10314000059A1867A823606FD1580BF08FFC049B79
:10315000059A5867A16F506B0BF088FC049B059A89
:103160009867E16FD06C0BF081FC4146049B059A97
:10317000D8676158506E0BF079FC4146049B059A64
:103180005850E159D06F0BF071FC049BD851942337
:10319000059FA159F8580BF069FC049B9851AC238A
:1031A0006159F8580BF062FC049B585199239B001D
:1031B0009D44F0BCBB46B246A946A046F0BDC04601
:1031C000F0B5DE4657464E4645460400E0B5436836
:1031D00087B05800A3684008590049080BF046FC26
:1031E0002368590049080BF041FC2369051C58006D
:1031F00063694008590049080BF038FCE36859003E
:1032000049080BF033FC011C281C0BF02FFCE36970
:10321000051C5800236A4008590049080BF026FC99
:10322000A369590049080BF021FCA36A061C580049
:10323000E36A4008590049080BF018FC636A59001A
:1032400049080BF013FC011C301C0BF00FFC636BE6
:10325000071C5800A36B4008590049080BF006FCF6
:10326000236B590049080BF001FC236C061C580025
:10327000636C4008590049080BF0F8FBE36B5900F8
:1032800049080BF0F3FB011C301C0BF0EFFB061C94
:10329000011C381C0BF038FC002800D13E1C311CEE
:1032A000281C0BF031FC002800D12E1CE36C5800C8
:1032B000236D4008590049080BF0D8FBA36C590056
:1032C00049080BF0D3FBA36D051C5800E36D4008C3
:1032D000590049080BF0CAFB636D590049080BF00F
:1032E000C5FB011C281C0BF0C1FB636E071C5800BA
:1032F000A36E4008590049080BF0B8FB236E590033
:1033000049080BF0B3FB236F051C5800636F40089E
:10331000590049080BF0AAFBE36E590049080BF06D
:10332000A5FB011C281C0BF0A1FBE36F8046580095
:103330008023E1584008490049080BF097FBA36F30
:10334000590049080BF092FB8823051CE058043310
:10335000E15840004900490840080BF087FB8423EE
:10336000E158490049080BF081FB011C281C0BF0B7
:103370007DFB051C011C40460BF0C6FB002800D15C
:103380004546291C381C0BF0BFFB002800D13D1C12
:10339000291C301C0BF0B8FB002800D1351CC023C1
:1033A0002100E55001AABA3B02A8A8310493029477
:1033B000FDF7F4F90121C422019B98260B405B42E2
:1033C0008B430133A354343A9246002250469C2743
:1033D00022509432A1509346923AA2510132E251C6
:1033E0009D32944660469C3A2250A03291469F3AC4
:1033F00090464A4640462300A05048461832A258FC
:10340000903392009A181568255040461060604627
:10341000B8222058A2588046604692009A18156833
:10342000255040461060B422E059A25884469200CC
:103430009A1810685D46E05160461060B022A258AC
:10344000A75992009A181068A0511760AC225846EC
:10345000A258265892009A18106860511660A82247
:10346000A258554692009B1852461868A2586051BF
:103470001A60C523E15407B0F0BCBB46B246A9466A
:10348000A046F0BDC023002210B5C2500022043374
:10349000C2520B68040003604B6843608B68836012
:1034A000CB68C3600B6903614B6943618B698361BE
:1034B000CB69C3610B6A03624B6A43628B6A8362A6
:1034C000CB6AC3620B6B03634B6B43638B6B83638E
:1034D000CB6BC3630B6C03644B6C43648B6C836476
:1034E000CB6CC3640B6D03654B6D43658B6D83655E
:1034F000CB6DC3650B6E03664B6E43668B6E836646
:10350000CB6EC3660B6F03674B6F43678B6F83672D
:10351000CB6FC3678023CA58C2500433CA58C25005
:103520000433CA58C2500433CA58C250FFF748FE89
:10353000200010BDF0B5DE464E4645465746E0B584
:10354000214C9146A5443AAA94460A0031931F4B58
:103550003B9063441B091B013A919846D3AB13CAB5
:1035600013C313CA13C31268D3A91A60184B194A9C
:103570001B6847A80493184B47AC1B680193174B73
:103580001B6805930093049BFEF786FF47ABD3931C
:103590004B46D49347ABD5933AAA832394468620CF
:1035A0001B0163441B68C0004044A2AAD3A9D69360
:1035B0000990FFF72BF96BAB089343460A934B46F0
:1035C0003094A1461C000BE014F7FFFF47030000F6
:1035D000742003200AE81C416C2003207020032083
:1035E0004B464E461B68B76F0793089B494640CB36
:1035F00048464A460893A823896C006E9569126B69
:1036000005910690E158301C04920BF046FA8C2389
:103610008246E158381C0BF040FA011C50460BF072
:1036200025FA216F824606980BF037FA616D8346C2
:1036300005980BF032FA011C58460BF017FA011CE2
:1036400050460BF013FAA16B824604980BF025FA52
:10365000E1698346281C0BF020FA011C58460BF048
:1036600005FA2168834607980BF017FA011C5846A3
:103670000BF0FCF9011C50460BF0F8F943461860BA
:10368000AC23301CE1580BF008FA90238246E15835
:10369000381C0BF002FA011C50460BF0E7F9616F81
:1036A000824606980BF0F9F9A16D834605980BF058
:1036B000F4F9011C58460BF0D9F9011C50460BF0E7
:1036C000D5F9E16B824604980BF0E7F9216A83464D
:1036D000281C0BF0E2F9011C58460BF0C7F9616891
:1036E000834607980BF0D9F9011C58460BF0BEF938
:1036F000011C50460BF0BAF943465860B023301C09
:10370000E1580BF0CAF994238246E158381C0BF0BB
:10371000C4F9011C50460BF0A9F9A16F8246069826
:103720000BF0BBF9E16D834605980BF0B6F9011C6F
:1037300058460BF09BF9011C50460BF097F9216C91
:10374000824604980BF0A9F9616A8346281C0BF0A5
:10375000A4F9011C58460BF089F9A1688346079823
:103760000BF09BF9011C58460BF080F9011C5046E8
:103770000BF07CF943469860B423301CE1580BF001
:103780008CF998238246E158381C0BF086F9011C0D
:1037900050460BF06BF9E16F824606980BF07DF90D
:1037A000216E834605980BF078F9011C58460BF002
:1037B0005DF9011C50460BF059F9616C8246049882
:1037C0000BF06BF9A16A8346281C0BF066F9011C0B
:1037D00058460BF04BF9E168834607980BF05DF90A
:1037E000011C58460BF042F9011C50460BF03EF903
:1037F0004346D860B823301CE1580BF04EF99C23A7
:103800008246E158381C0BF048F9011C50460BF079
:103810002DF980238246E15806980BF03EF9616E3F
:10382000834605980BF039F9011C58460BF01EF938
:10383000011C50460BF01AF9A16C824604980BF05B
:103840002CF9E16A8346281C0BF027F9011C584625
:103850000BF00CF92169834607980BF01EF9011C47
:1038600058460BF003F9011C50460BF0FFF8434695
:103870001861BC23301CE1580BF00FF9A0238246DD
:10388000E158381C0BF009F9011C50460BF0EEF81A
:1038900084238246E15806980BF0FFF8A16E834618
:1038A00005980BF0FAF8011C58460BF0DFF8011CE4
:1038B00050460BF0DBF8E16C824604980BF0EDF813
:1038C000216B8346281C0BF0E8F8011C58460BF0CE
:1038D000CDF86169834607980BF0DFF8011C584664
:1038E0000BF0C4F8011C50460BF0C0F84346E16EE3
:1038F000586105980BF0D1F888238246E158069864
:103900000BF0CBF8011C50460BF0B0F8A423824614
:10391000E158381C0BF0C1F8C023071CE158301CDB
:103920000BF0BBF8011C381C0BF0A0F8011C504632
:103930000BF09CF8616B061C281C0BF0AEF8216D97
:10394000051C04980BF0A9F8011C281C0BF08EF83C
:10395000A169051C07980BF0A0F8011C281C0BF0AE
:1039600085F8011C301C0BF081F843469861042354
:103970009C461833E1449C464DABE044994500D049
:103980002EE60A9BA146D8249846A427A4004444C6
:10399000BF00474420000999FFF774FD21009022E1
:1039A0003800C8240BF000FAFC21A400444489002C
:1039B0004144182220000BF0F7F9CE20812180002D
:1039C000C9004144182240440BF0EEF98422D4236C
:1039D000D200424412689B0043441A60D523874AB0
:1039E0004546424412889B004344FE211A8000232E
:1039F0002268B0359200AA1889051160936113639B
:103A0000936413669367C922920042441268444645
:103A10009200AA181360916113639364136693670D
:103A2000CA2292004244126806269200AA18136025
:103A300093611163936413669367CB2292004244AF
:103A4000126806209200AA181360936113639164B0
:103A500013669367CC229200424412689200AA181F
:103A6000136093611363936411669367CD22920090
:103A7000424412689200AA1813609361136393641E
:103A80001366A8235B009B46916742465946E4189B
:103A900020334344A660E6602661535080229200A2
:103AA00042444B396260924604933A0006230294E2
:103AB000FF3901960095FDF7DFFA42465946049B0F
:103AC000A660E6602661535053464B3963603A0066
:103AD00006230294062001960095FF39FDF7D0FDDC
:103AE00043461B688C2206934346DB69D3AC07939D
:103AF00043469B6B089343465B6D099343461B6F9C
:103B00000A9343469B5804320B9343465B680C93DD
:103B100043461B6A0D934346DB6B0E9343469B6DF6
:103B20000F9343465B6F109343469B5804321193A7
:103B300043469B68129343465B6A139343461B6C50
:103B400014934346DB6D159343469B6F1693434690
:103B50009B58043217934346DB68189343469B6A8D
:103B6000199343465B6C1A9343461B6E1B93434663
:103B7000DB6F1C9343469B58183A1D9343461B69C1
:103B80001E934346DB6A1F9343469B6C2093434638
:103B90005B6E219343469B581C32229343469B58AD
:103BA000183A239343465B69249343461B6B259342
:103BB0004346DB6C269343469B6E279343469B58B4
:103BC0001C32289343469B58183A299343469B69D5
:103BD0002A9343465B6B2B9343461B6D2C934346C2
:103BE000DB6E2D9343469B581C322E9343469B58C5
:103BF000A8462F934B46329302E0C04624040000AF
:103C000043461F685B6842469946434641469B6867
:103C1000D2680E694D6907984946049305920AF0E7
:103C20003CFF0499824608980AF037FF011C504671
:103C30000AF01CFF391C824606980AF02EFF011C70
:103C400050460AF013FF311C82460A980AF025FFFD
:103C5000291C83460B980AF020FF011C58460AF0E5
:103C600005FF0599834609980AF017FF011C58467D
:103C70000AF0FCFE011C50460AF0F8FE494620609E
:103C80000D980AF00AFF049982460E980AF005FF83
:103C9000011C50460AF0EAFE391C82460C980AF0D4
:103CA000FCFE011C50460AF0E1FE311C82461098D1
:103CB0000AF0F3FE291C834611980AF0EEFE011C5F
:103CC00058460AF0D3FE059983460F980AF0E5FEA0
:103CD000011C58460AF0CAFE011C50460AF0C6FEF6
:103CE0004946606013980AF0D8FE049982461498F9
:103CF0000AF0D3FE011C50460AF0B8FE391C824679
:103D000012980AF0CAFE011C50460AF0AFFE311CA0
:103D1000824616980AF0C1FE291C834617980AF0BD
:103D2000BCFE011C58460AF0A1FE05998346159871
:103D30000AF0B3FE011C58460AF098FE011C5046DA
:103D40000AF094FE4946A06019980AF0A6FE04996C
:103D500082461A980AF0A1FE011C50460AF086FE1F
:103D6000391C824618980AF098FE011C50460AF049
:103D70007DFE311C82461C980AF08FFE291C83466A
:103D80001D980AF08AFE011C58460AF06FFE05993C
:103D900083461B980AF081FE011C58460AF066FE15
:103DA000011C50460AF062FE4946E0601F980AF086
:103DB00074FE0499824620980AF06FFE011C50465A
:103DC0000AF054FE391C82461E980AF066FE011C59
:103DD00050460AF04BFE311C824622980AF05DFEE6
:103DE000291C834623980AF058FE011C58460AF005
:103DF0003DFE0599834621980AF04FFE011C584666
:103E00000AF034FE011C50460AF030FE494620619B
:103E100025980AF042FE0499824626980AF03DFE53
:103E2000011C50460AF022FE391C824624980AF0F2
:103E300034FE011C50460AF019FE311C82462898B7
:103E40000AF02BFE291C834629980AF026FE011C45
:103E500058460AF00BFE0599834627980AF01DFE86
:103E6000011C58460AF002FE011C50460AF0FEFDF5
:103E7000494660612B980AF010FE049981462C98FF
:103E80000AF00BFE011C48460AF0F0FD391C814681
:103E90002A980AF002FE011C48460AF0E7FD311C90
:103EA000071C2E980AF0F9FD291C061C2F980AF011
:103EB000F4FD011C301C0AF0D9FD0599051C2D9854
:103EC0000AF0EBFD011C281C0AF0D0FD011C381C77
:103ED0000AF0CCFD18239C46A061FDAB1C34E044E5
:103EE000A34200D08CE6329BD49A9946D39BD599B5
:103EF000D69CD79DD89ED99F06930792DA9BDB9AD2
:103F000008910994DC99DD9C0A950B96DE9DDF9E55
:103F10000C970D93E09FE19B0E92E29A0F91109403
:103F200011951296139714931592E399E49CE59DCD
:103F3000E69EE79FE89BE99A16911794EA99EB9C15
:103F400018951996EC9DED9E1A971B93EE9FEF9B8B
:103F50001C921D91F09AF1991E94F29C2096219743
:103F600022932392249125941F95F39DF49EF59F0F
:103F7000F79AF69BF899F99C26952796FA9DFB9E51
:103F80002897FC9F2A923A9A29932B912C942D954D
:103F90002E962F97D3AB32CA32C332CA32C31168BE
:103FA000D3AC1960FD49FE4B09681B680191FD49BE
:103FB000FD4A09682000009141A9FDF7CDFF319F1E
:103FC000419938680AF04FFD4299834678680AF0B3
:103FD0004AFD43998246B8680AF045FD4499041C9D
:103FE000F8680AF040FD4599051C38690AF03BFD68
:103FF0004699061C78690AF036FD071C011C2A98B0
:104000000AF04BFD311C804623980AF046FD011C46
:1040100040460AF02BFD291C80461C980AF03DFD05
:10402000011C40460AF022FD211C804615980AF02A
:1040300034FD514604900E980AF02FFD011C04989F
:104040000AF014FD5946049007980AF026FD011C59
:1040500004980AF00BFD011C40460AF007FD3A9A4D
:1040600051680AF003FD391C04902B980AF015FDE5
:10407000311C804624980AF010FD011C40460AF0CD
:10408000F5FC291C80461D980AF007FD011C4046DE
:104090000AF0ECFC211C804616980AF0FEFC514602
:1040A00005900F980AF0F9FC011C05980AF0DEFC57
:1040B0005946059008980AF0F0FC011C05980AF092
:1040C000D5FC011C40460AF0D1FC3A9A91680AF0EE
:1040D000CDFC391C05902C980AF0DFFC311C804681
:1040E00025980AF0DAFC011C40460AF0BFFC291CA6
:1040F00080461E980AF0D1FC011C40460AF0B6FC2E
:10410000211C804617980AF0C8FC5146319010983F
:104110000AF0C3FC011C31980AF0A8FC5946319002
:1041200009980AF0BAFC011C31980AF09FFC011CA6
:1041300040460AF09BFC3A9AD1680AF097FC391C79
:1041400031902D980AF0A9FC311C804626980AF07F
:10415000A4FC011C40460AF089FC291C80461F98DB
:104160000AF09BFC011C40460AF080FC211C8046A2
:1041700018980AF092FC5146329011980AF08DFC82
:10418000011C32980AF072FC594632900A980AF0E3
:1041900084FC011C32980AF069FC011C40460AF0BC
:1041A00065FC3A9A11690AF061FC391C32902E982C
:1041B0000AF073FC311C804627980AF06EFC011C43
:1041C00040460AF053FC291C804620980AF065FC02
:1041D000011C40460AF04AFC211C804619980AF04E
:1041E0005CFC5146339012980AF057FC011C33983E
:1041F0000AF03CFC594633900B980AF04EFC011C27
:1042000033980AF033FC011C40460AF02FFC3A9A1E
:1042100051690AF02BFC5146339013980AF03DFC8B
:10422000211C80461A980AF038FC011C40460AF00E
:104230001DFC594680460C980AF02FFC011C404694
:104240000AF014FC311C804628980AF026FC391C20
:1042500034902F980AF021FC011C34980AF006FCD7
:10426000291C349021980AF018FC011C34980AF09B
:10427000FDFB011C40460AF0F9FB3A9A91690AF0ED
:10428000F5FB391C804629980AF007FC311C071CF5
:1042900022980AF002FC011C381C0AF0E7FB291CDA
:1042A000061C1B980AF0F9FB011C301C0AF0DEFB0F
:1042B000211C051C14980AF0F0FB5146041C0D98B3
:1042C0000AF0EBFB011C201C0AF0D0FB5946041C31
:1042D00006980AF0E2FB011C201C0AF0C7FB011C37
:1042E000281C0AF0C3FB3A9AD3AC11680AF0BEFB53
:1042F0003B9B049A18605A60059A9A60319ADA607A
:10430000329A1A61339A5A6142469A614B461B6847
:104310004A46A2934B465B68A3934B469B68A49383
:104320004B46DB68A5934B461B69A6934B465B69DE
:10433000A7934B469B69A8934B46DB69A9934B46D1
:104340001B6AAA934B465B6AAB934B469B6AAC9342
:104350004B46DB6AAD934B461B6BAE934B465B6B98
:10436000AF934B469B6BB0934B46DB6BB1934B4685
:104370001B6CB2934B465B6CB3934B469B6CB493F4
:104380004B46DB6CB5934B461B6DB6934B465B6D52
:10439000B7934B469B6DB8934B4607E06C200320C8
:1043A00074200320702003200AE81C41DB6DB993C0
:1043B0004B461B6EBA934B465B6EBB934B469B6E54
:1043C000BC934B46DB6EBD934B461B6FBE934B4677
:1043D0005B6FBF934B469B6FC0934B46DB6FC193A4
:1043E0008023D358C2938423D358C3938823D358AC
:1043F000C4938C23D358C5939023D358C693942346
:10440000D358C7939823D358C8939C23D358C993A0
:10441000A023D358CA93A423D358CB93A823D3580B
:10442000CC93AC23D358CD93B023D358CE93B4239D
:10443000D358CF93B823D358D093BC23D358D19318
:10444000C023D358D293309B3092984643461F687E
:104450005B6842469946434641469B68D2680E696E
:104460004D690D984946049305920AF016FB04998C
:10447000824614980AF011FB011C50460AF0F6FA25
:10448000391C824606980AF008FB011C50460AF0C7
:10449000EDFA311C824622980AF0FFFA291C834665
:1044A00029980AF0FAFA011C58460AF0DFFA059931
:1044B00083461B980AF0F1FA011C58460AF0D6FA16
:1044C000011C50460AF0D2FA494620600E980AF0C4
:1044D000E4FA0499824615980AF0DFFA011C504666
:1044E0000AF0C4FA391C824607980AF0D6FA011C71
:1044F00050460AF0BBFA311C824623980AF0CDFAE6
:10450000291C83462A980AF0C8FA011C58460AF06A
:10451000ADFA059983461C980AF0BFFA011C58466B
:104520000AF0A4FA011C50460AF0A0FA494660605D
:104530000F980AF0B2FA0499824616980AF0ADFA7A
:10454000011C50460AF092FA391C824608980AF07B
:10455000A4FA011C50460AF089FA311C82462498BC
:104560000AF09BFA291C83462B980AF096FA011C44
:1045700058460AF07BFA059983461D980AF08DFA91
:10458000011C58460AF072FA011C50460AF06EFAF5
:104590004946A06010980AF080FA0499824617985C
:1045A0000AF07BFA011C50460AF060FA391C824678
:1045B00009980AF072FA011C50460AF057FA311CA9
:1045C000824625980AF069FA291C83462C980AF03D
:1045D00064FA011C58460AF049FA059983461E9868
:1045E0000AF05BFA011C58460AF040FA011C5046DA
:1045F0000AF03CFA4946E06011980AF04EFA049934
:10460000824618980AF049FA011C50460AF02EFA20
:10461000391C82460A980AF040FA011C50460AF0FA
:1046200025FA311C824626980AF037FA291C83465F
:104630002D980AF032FA011C58460AF017FA05992B
:1046400083461F980AF029FA011C58460AF00EFA10
:10465000011C50460AF00AFA4946206112980AF0F5
:104660001CFA0499824619980AF017FA011C504660
:104670000AF0FCF9391C82460B980AF00EFA011C6C
:1046800050460AF0F3F9311C824627980AF005FAE1
:10469000291C83462E980AF000FA011C58460AF09D
:1046A000E5F90599834620980AF0F7F9011C584668
:1046B0000AF0DCF9011C50460AF0D8F9494660615D
:1046C00013980AF0EAF9049981461A980AF0E5F974
:1046D000011C48460AF0CAF9391C81460C980AF0B8
:1046E000DCF9011C48460AF0C1F9311C071C289866
:1046F0000AF0D3F9291C061C2F980AF0CEF9011CE8
:10470000301C0AF0B3F90599051C21980AF0C5F987
:10471000011C281C0AF0AAF9011C381C0AF0A6F991
:1047200018239C46FFABA06114331C34E044A34221
:1047300000D08BE6309BA2AD99463C93C4234C46F7
:10474000C8464B44089307944246D26843464146C4
:10475000914642469E694C68096892685F691B6988
:104760000491301CFD99069305920AF096F9F6998A
:104770008246381C0AF091F9011C50460AF076F97D
:10478000EF99824606980AF088F9E89983464846E8
:104790000AF083F9011C58460AF068F9011C5046DA
:1047A0000AF064F9E199824605980AF076F9DA99F7
:1047B0008346201C0AF071F9011C58460AF056F98C
:1047C000D399834604980AF068F9011C58460AF008
:1047D0004DF9011C50460AF049F9011C28680AF0FD
:1047E00042F92860FE99301C0AF057F9F799824681
:1047F000381C0AF052F9011C50460AF037F9F099BA
:10480000824606980AF049F9E999834648460AF033
:1048100044F9011C58460AF029F9011C50460AF0D7
:1048200025F9E299824605980AF037F9DB99834623
:10483000201C0AF032F9011C58460AF017F9D499E5
:10484000834604980AF029F9011C58460AF00EF92B
:10485000011C50460AF00AF9011C68680AF003F9C5
:10486000FF996860301C0AF018F9F8998246381CE4
:104870000AF013F9011C50460AF0F8F8F199824643
:1048800006980AF00AF9EA99834648460AF005F9BB
:10489000011C58460AF0EAF8011C50460AF0E6F8F6
:1048A000E399824605980AF0F8F8DC998346201CC3
:1048B0000AF0F3F8011C58460AF0D8F8D599834657
:1048C00004980AF0EAF8011C58460AF0CFF8011CD7
:1048D00050460AF0CBF8011CA8680AF0C4F8FFABF8
:1048E0005968A860301C04330AF0D7F8F999824659
:1048F000381C0AF0D2F8011C50460AF0B7F8F299B9
:10490000824606980AF0C9F8EB99834648460AF0B1
:10491000C4F8011C58460AF0A9F8011C50460AF0D8
:10492000A5F8E499824605980AF0B7F8DD99834620
:10493000201C0AF0B2F8011C58460AF097F8D699E4
:10494000834604980AF0A9F8011C58460AF08EF82C
:10495000011C50460AF08AF8011CE8680AF083F846
:10496000FFAB9968E860301C08330AF096F8FA99B2
:104970008246381C0AF091F8011C50460AF076F87D
:10498000F399824606980AF088F8EC9983464846DF
:104990000AF083F8011C58460AF068F8011C5046DA
:1049A0000AF064F8E599824605980AF076F8DE99EF
:1049B0008346201C0AF071F8011C58460AF056F88C
:1049C000D799834604980AF068F8011C58460AF003
:1049D0004DF8011C50460AF049F8011C28690AF0FC
:1049E00042F8FFABD9682861301C0C330AF055F847
:1049F000FB998246381C0AF050F8011C50460AF018
:104A000035F8F499824606980AF047F8ED998346FE
:104A100048460AF042F8011C58460AF027F8011CE3
:104A200050460AF023F8E699824605980AF035F8D0
:104A3000DF998346201C0AF030F8011C58460AF022
:104A400015F8D899834604980AF027F8011C5846AF
:104A50000AF00CF8011C50460AF008F8011C6869BD
:104A60000AF001F8EE99686148460AF016F8F599DF
:104A7000814606980AF011F8011C484609F0F6FF35
:104A8000FC998146381C0AF008F8FFAB1969071C2D
:104A9000301C10330AF001F8011C381C09F0E6FF45
:104AA000011C484609F0E2FFE099061C201C09F0B1
:104AB000F4FFE799041C059809F0EFFF011C201C86
:104AC00009F0D4FFD999041C049809F0E6FF011CF1
:104AD000201C09F0CBFF011C301C09F0C7FF011C92
:104AE000A86909F0C0FF1C239C46089BE044A8610C
:104AF0001C35984500D027E6079BA29A99461A6074
:104B0000A39A5A60A49A9A60A59ADA60A69A1A6142
:104B1000A79A5A61A89A9A61A99ADA61AA9A1A621E
:104B2000AB9A5A62AC9A9A62AD9ADA62AE9A1A63FA
:104B3000AF9A5A63B09A9A63B19ADA63B29A1A64D6
:104B4000B39A5A64B49A9A64B59ADA64B69A1A65B2
:104B5000B79A5A65B89A9A65B99ADA65BA9A1A668E
:104B6000BB9A5A66BC9A9A66BD9ADA66BE9A1A676A
:104B7000BF9A5A67C09A9A67C19ADA674A468023F1
:104B8000C299D150C3990433D150C4990433D15040
:104B9000C5990433D150C6990433D150C799043311
:104BA000D150C8990433D150C9990433D150CA990E
:104BB0000433D150CB990433D150CC990433D15024
:104BC000CD990433D150CE990433D150CF990433C9
:104BD000D150D0990433D150D1990433D150D299C6
:104BE0000433D1503AAA9446504BA2AA63441B689E
:104BF00013CB13C24E4BD3AC63441B6807CB07C423
:104C00003A9B3B9D00934B4B28006344A2A91B6831
:104C1000D3AAFDF77FF82B00D3AA23CB23C213CB53
:104C200013C23AA91B688C4613603EAA11003F4B81
:104C300063441B6831CB31C13D4BA2A963441B685F
:104C400031CB31C13B4BD3A963441B6871A800939E
:104C5000A2ABFDF7C5FAD3AB1C000793719BA0462E
:104C60000993789B10937F9B1793869B1E938D9B34
:104C70002593949B2C939B9B3393729B0A93799BD4
:104C80001193809B1893879B1F938E9B2693959BD4
:104C90002D939C9B3493739B0B937A9B1293819BD4
:104CA0001993889B20938F9B2793969B2E939D9B74
:104CB0003593749B0C937B9B1393829B1A93899BD4
:104CC0002193909B2893979B2F939E9B3693759B44
:104CD0000D937C9B1493839B1B938A9B2293919BA4
:104CE0002993989B30939F9B3793769B0E937D9B44
:104CF0001593849B1C938B9B2393929B2A93999B44
:104D00003193A09B3893779B0F937E9B1693859B43
:104D10001D938C9B2493939B2B939A9B3293A19BE3
:104D200039934B463D933C9B994605E0280800008B
:104D3000380800003C080000484649464A464B46B1
:104D4000866909691B6855689468D2684769069145
:104D50003398311C0592049309F09FFE391C82465A
:104D60002C9809F09AFE011C504609F07FFE069926
:104D70008246259809F091FE059983461E9809F010
:104D80008CFE011C584609F071FE011C504609F0CA
:104D90006DFE211C8246179809F07FFE291C834670
:104DA000109809F07AFE011C584609F05FFE04993C
:104DB0008346099809F071FE011C584609F056FE19
:104DC000011C504609F052FE4346311C18603498CD
:104DD00009F063FE391C82462D9809F05EFE011C25
:104DE000504609F043FE06998246269809F055FE82
:104DF000059983461F9809F050FE011C584609F09A
:104E000035FE011C504609F031FE211C82461898DF
:104E100009F043FE291C8346119809F03EFE011C4F
:104E2000584609F023FE049983460A9809F035FE96
:104E3000011C584609F01AFE011C504609F016FEE6
:104E40004346311C5860359809F027FE391C8246CC
:104E50002E9809F022FE011C504609F007FE069923
:104E60008246279809F019FE05998346209809F093
:104E700014FE011C584609F0F9FD011C504609F0CA
:104E8000F5FD211C8246199809F007FE291C83466E
:104E9000129809F002FE011C584609F0E7FD04993A
:104EA00083460B9809F0F9FD011C584609F0DEFD18
:104EB000011C504609F0DAFD4346311C98603698D3
:104EC00009F0EBFD391C82462F9809F0E6FD011C24
:104ED000504609F0CBFD06998246289809F0DDFD81
:104EE00005998346219809F0D8FD011C584609F020
:104EF000BDFD011C504609F0B9FD211C82461A98DF
:104F000009F0CBFD291C8346139809F0C6FD011C4E
:104F1000584609F0ABFD049983460C9809F0BDFD95
:104F2000011C584609F0A2FD011C504609F09EFDE7
:104F30004346311CD860379809F0AFFD391C8246D2
:104F4000309809F0AAFD011C504609F08FFD069922
:104F50008246299809F0A1FD05998346229809F017
:104F60009CFD011C584609F081FD011C504609F0CA
:104F70007DFD211C82461B9809F08FFD291C83466C
:104F8000149809F08AFD011C584609F06FFD049938
:104F900083460D9809F081FD011C584609F066FD15
:104FA000011C504609F062FD4346311C18613898D7
:104FB00009F073FD391C8246319809F06EFD011C21
:104FC000504609F053FD069982462A9809F065FD7E
:104FD00005998346239809F060FD011C584609F0A5
:104FE00045FD011C504609F041FD211C82461C98DC
:104FF00009F053FD291C8346159809F04EFD011C4C
:10500000584609F033FD049983460E9809F045FD92
:10501000011C584609F02AFD011C504609F026FDE6
:10502000434605995861249809F037FD0699824650
:105030002B9809F032FD011C504609F017FD391C70
:105040008246329809F029FD311C071C399809F075
:1050500024FD011C381C09F009FD011C504609F013
:1050600005FD291C061C169809F017FD211C051CBE
:105070001D9809F012FD011C281C09F0F7FC049989
:10508000041C0F9809F009FD011C201C09F0EEFC1E
:10509000011C301C09F0EAFC434698611C239C4625
:1050A000089BE144E044994500D045E6A2ACA04607
:1050B000F6AB0693DAAB3C940893079B33981A68D7
:1050C000596D0492069A8946D669196FDD69059172
:1050D000311C9C6B176809F0E0FC391C82462C9847
:1050E00009F0DBFC011C504609F0C0FC0599824622
:1050F000259809F0D2FC494683461E9809F0CDFC5C
:10510000011C584609F0B2FC011C504609F0AEFCE7
:10511000211C8246179809F0C0FC291C8346109870
:1051200009F0BBFC011C584609F0A0FC0499834619
:10513000099809F0B2FC011C584609F097FC011CC3
:10514000504609F093FC41460860311C349809F040
:10515000A4FC391C82462D9809F09FFC011C504686
:1051600009F084FC05998246269809F096FC494688
:1051700083461F9809F091FC011C584609F076FC03
:10518000011C504609F072FC211C8246189809F057
:1051900084FC291C8346119809F07FFC011C5846A9
:1051A00009F064FC049983460A9809F076FC011C16
:1051B000584609F05BFC011C504609F057FC41467B
:1051C0004860311C359809F068FC391C82462E98DD
:1051D00009F063FC011C504609F048FC0599824621
:1051E000279809F05AFC49468346209809F055FC57
:1051F000011C584609F03AFC011C504609F036FCE7
:10520000211C8246199809F048FC291C83461298F3
:1052100009F043FC011C584609F028FC0499834618
:105220000B9809F03AFC011C584609F01FFC011CC0
:10523000504609F01BFC41468860311C369809F045
:105240002CFC391C82462F9809F027FC011C504683
:1052500009F00CFC05998246289809F01EFC494685
:105260008346219809F019FC011C584609F0FEFB01
:10527000011C504609F0FAFB211C82461A9809F0DD
:105280000CFC291C8346139809F007FC011C5846A6
:1052900009F0ECFB049983460C9809F0FEFB011C15
:1052A000584609F0E3FB011C504609F0DFFB41467C
:1052B000C860311C379809F0F0FB391C82463098E1
:1052C00009F0EBFB011C504609F0D0FB0599824622
:1052D000299809F0E2FB49468346229809F0DDFB54
:1052E000011C584609F0C2FB011C504609F0BEFBE8
:1052F000211C82461B9809F0D0FB291C8346149878
:1053000009F0CBFB011C584609F0B0FB0499834619
:105310000D9809F0C2FB011C584609F0A7FB011CBF
:10532000504609F0A3FB41460861311C389809F04A
:10533000B4FB391C8246319809F0AFFB011C504682
:1053400009F094FB059982462A9809F0A6FB494684
:105350008346239809F0A1FB011C584609F086FBFF
:10536000011C504609F082FB211C82461C9809F062
:1053700094FB291C8346159809F08FFB011C5846A5
:1053800009F074FB049983460E9809F086FB011C12
:10539000584609F06BFB011C504609F067FB434679
:1053A00049465861249809F078FB059981462B9865
:1053B00009F073FB011C484609F058FB391C814673
:1053C000329809F06AFB311C071C399809F065FB1B
:1053D000011C381C09F04AFB011C484609F046FB39
:1053E000291C061C169809F058FB211C051C1D9849
:1053F00009F053FB011C281C09F038FB0499041C1C
:105400000F9809F04AFB011C201C09F02FFB011C1E
:10541000301C09F02BFB414688611C218C46069A02
:10542000079B04320692089A04330793E0449A4299
:1054300000D042E63AAA94463D9B764A9946754B7F
:10544000624463441B6812681B68D3AC0793714BBA
:1054500063441B68DB6908936E4B63441B689B6B5A
:1054600009936C4B63441B685B6D0A93694B6344FF
:105470001B681B6F0B938C23D358664A0C93654BA8
:10548000624463441B685B680D93624B63441B6812
:105490001B6A0E935F4B63441B68DB6B0F935D4B82
:1054A00063441B689B6D10935A4B63441B685B6F8E
:1054B000126811939023D358564A1293554B624465
:1054C00063441B6812689B681393524B63441B68C8
:1054D0005B6A14934F4B63441B681B6C15934D4BD5
:1054E00063441B68DB6D16934A4B63441B689B6FD8
:1054F00017939423D358474A1893464B6244634406
:105500001B68DB681993434B63441B689B6A1A93BF
:10551000404B63441B685B6C1B933E4B63441B68AE
:1055200012681B6E1C933B4B63441B68DB6F1D931F
:105530009823D358374A1E93364B624463441B6802
:1055400012681B691F93334B63441B68DB6A20930B
:10555000304B63441B689B6C21932E4B63441B6848
:105560005B6E22938023D3582A4A23939C23624460
:105570001268D358274A2493264B624463441B681D
:105580005B692593234B63441B681B6B2693214B5C
:10559000126863441B68DB6C27931E4B63441B68D3
:1055A0009B6E28938423D3581A4A2993A0236244DC
:1055B0001268D358174A2A93164B624463441B68F7
:1055C00012689B692B93134B63441B685B6B2C9392
:1055D000104B63441B681B6D2D930E4B63441B687B
:1055E000DB6E2E938823D3580A4A2F93A423624458
:1055F0001268D35822003093074B63441B689846C7
:10560000D3AB06939023434431934B464446904694
:10561000329303E0340800002C0800006368E2685D
:105620009946A368089948460493059209F035FA0B
:1056300009998246049809F030FA011C504609F095
:1056400015FA276882460799381C09F026FA011CCA
:10565000504609F00BFA266982460B99301C09F076
:105660001CFA656983460C99281C09F016FA011C7E
:10567000584609F0FBF90A998346059809F00DFA96
:10568000011C584609F0F2F9011C504609F0EEF9E8
:10569000414608600E99484609F0FFF90F99824685
:1056A000049809F0FAF9011C504609F0DFF90D9948
:1056B0008246381C09F0F1F9011C504609F0D6F970
:1056C00011998246301C09F0E8F912998346281C8A
:1056D00009F0E3F9011C584609F0C8F9109983460E
:1056E000059809F0DAF9011C584609F0BFF9011CC8
:1056F000504609F0BBF9414648601499484609F004
:10570000CCF915998246049809F0C7F9011C504656
:1057100009F0ACF913998246381C09F0BEF9011C56
:10572000504609F0A3F917998246301C09F0B5F9E3
:1057300018998346281C09F0B0F9011C584609F055
:1057400095F916998346059809F0A7F9011C584662
:1057500009F08CF9011C504609F088F9414688602F
:105760001A99484609F099F91B998246049809F05C
:1057700094F9011C504609F079F919998246381CB0
:1057800009F08BF9011C504609F070F91D99824609
:10579000301C09F082F91E998346281C09F07DF916
:1057A000011C584609F062F91C998346059809F0D6
:1057B00074F9011C584609F059F9011C504609F0CA
:1057C00055F94146C8602099484609F066F9219983
:1057D0008246049809F061F9011C504609F046F927
:1057E0001F998246381C09F058F9011C504609F0EF
:1057F0003DF923998246301C09F04FF924998346DC
:10580000281C09F04AF9011C584609F02FF9229981
:105810008346059809F041F9011C584609F026F91C
:10582000011C504609F022F9414608612699484674
:1058300009F033F927998246049809F02EF9011CE2
:10584000504609F013F925998246381C09F025F9CC
:10585000011C504609F00AF929998246301C09F0CA
:105860001CF92A998346281C09F017F9011C58468F
:1058700009F0FCF828998346059809F00EF9011CF7
:10588000584609F0F3F8011C504609F0EFF843467A
:105890002C995861484609F000F92D9981460498E1
:1058A00009F0FBF8011C484609F0E0F82B99814605
:1058B000381C09F0F2F8011C484609F0D7F82F9976
:1058C000071C301C09F0E9F83099061C281C09F067
:1058D000E4F8011C301C09F0C9F82E99051C059844
:1058E00009F0DBF8011C281C09F0C0F8011C381C69
:1058F00009F0BCF8434698611C239C46319B183440
:10590000E044A34200D089E6F6AB05933C9CDAABB9
:105910003193069B0899DA691F6891469A6B48464D
:1059200090465A6D1E6F0492059A20CA059209F09E
:10593000B4F809998246404609F0AFF8011C504678
:1059400009F094F807998246381C09F0A6F8011C62
:10595000504609F08BF80B998246301C09F09DF8EF
:105960000C998346281C09F098F8011C584609F048
:105970007DF80A998346049809F08FF8011C58466F
:1059800009F074F8011C504609F070F8011C2068F9
:1059900009F06CF80E992060484609F07EF80F99DE
:1059A0008246404609F079F8011C504609F05EF83D
:1059B0000D998246381C09F070F8011C504609F018
:1059C00055F811998246301C09F067F81299834600
:1059D000281C09F062F8011C584609F047F8109994
:1059E0008346049809F059F8011C584609F03EF81E
:1059F000011C504609F03AF8011C606809F036F8BD
:105A000018996060281C09F048F817998246301CE4
:105A100009F043F8011C504609F028F8169982460F
:105A2000049809F03AF8011C504609F01FF814993F
:105A30008246484609F031F815998346404609F0F8
:105A40002CF8011C584609F011F813998346381CAC
:105A500009F023F8011C584609F008F8011C5046CB
:105A600009F004F8011CA06809F000F81E99A06074
:105A7000281C09F012F81D998246301C09F00DF817
:105A8000011C504608F0F2FF1C998246049809F068
:105A900004F8011C504608F0E9FF1B998246404675
:105AA00008F0FBFF1A998346484608F0F6FF011CF0
:105AB000584608F0DBFF19998346381C08F0EDFFC3
:105AC000011C584608F0D2FF011C504608F0CEFFDA
:105AD000011CE06808F0CAFF2099E060484608F021
