:020000041000EA
:1000000000B5324B212058609868022188439860DF
:10001000D860186158612E4B002199600221596106
:100020000121F02299502B49196001219960352056
:1000300000F044F80222904214D00621196600F024
:1000400034F8196E01211966002018661A6600F04E
:100050002CF8196E196E196E052000F02FF8012189
:100060000842F9D1002199601B49196000215960AB
:100070001A491B48016001219960EB211966A021F2
:10008000196600F012F800219960164914480160C1
:100090000121996001BC002800D000471248134993
:1000A000086003C880F30888084703B5996A0420EC
:1000B0000142FBD001200142F8D103BD02B5186610
:1000C0001866FFF7F2FF186E186E02BD00000240BE
:1000D000000000180000070000035F00212200005C
:1000E000F4000018222000A00001001008ED00E03C
:1000F00000000000000000000000000074B24E7A12
:1001000000200420F7010010C3010010C5010010F9
:10011000C1010010C1010010C1010010C101001097
:10012000C1010010C1010010C1010010C701001081
:10013000C1010010C1010010C9010010CB01001065
:10014000CD010010CD010010CD010010CD01001037
:10015000CD010010CD010010CD010010CD01001027
:10016000CD010010CD010010CD010010CD01001017
:10017000CD010010CD010010CD010010CD01001007
:10018000CD010010CD010010CD010010CD010010F7
:10019000CD010010CD010010CD010010CD010010E7
:1001A000CD010010CD010010CD010010CD010010D7
:1001B000CD010010CD010010CD010010CD010010C7
:1001C00000BE00BE00BE00BE00BE00BEEFF3058054
:1001D000103800BEF2EB8871FC3D05101C3E051086
:1001E0003402001090A31AE700201F49086006C8D7
:1001F00081F3088810471D48006800282FD10DA4FE
:100200000ECC002902D000F012F8F9E71849194A7B
:10021000002000E001C19142FCD1174988471749ED
:1002200088471749884700BEFDE701C901C29A42C5
:10023000FBD370471C3E0510C0000020902C00200E
:10024000EC6905100000042000000420EC69051092
:10025000001004200010042000000000704709482E
:100260000CF07EFF0047000008ED00E0000000D029
:10027000902C0020A058032055B900105503001001
:1002800089BA00105756000006005250ABB36053B5
:10029000D099041006005250861C0302E099041005
:1002A000060052505422A29DEC99041005005250B1
:1002B000DE65F468EC690510F8B5C0460448054BE6
:1002C00010B5834203D0044B002B00D0984710BDDB
:1002D000902C0020902C00200000000006480749C8
:1002E000091A8B10C90FC91810B5491003D0044B57
:1002F000002B00D0984710BD902C0020902C00209F
:100300000000000010B5074C2378002B09D1FFF73F
:10031000D5FF054B002B02D0044800E000BF0123AD
:10032000237010BDD830002000000000009504109C
:10033000054B10B5002B03D00449054800E000BF71
:10034000FFF7CCFF10BDC04600000000DC300020ED
:100350000095041070B5192009F0C8FDD023802243
:100360001B0692045A620EF06BFE00F047F806F08E
:10037000F5FC07F093FF06F037FF09F023F90022A0
:100380000524144B1A7006F0B5F9134D013C2100F9
:1003900028000EF049FEFA2080000AF0B7FB002C7E
:1003A000F4D10A200EF0A0FC012200210B480AF033
:1003B00075F80B4810F0F4FF01220A4B0A4C1A7032
:1003C0002378012BFCD108F025F92378012BFAD0F2
:1003D000F6E7C0468458032000950410B857032060
:1003E00059880010835803208858032010B502480C
:1003F00011F0FEFA10BDC04690380320092370B5F5
:1004000086B0059304330493023B0393013B0293AC
:10041000023B324D324C0193324B22003249334879
:1004200000932B0005F024FE142005F01DFEFA2099
:1004300080000AF06BFB2E4E21003200280006F0EF
:100440002FF83378682B08D02A4C20000EF098FC47
:10045000FA2080000AF05AFBF7E773783D2BF3D1BE
:1004600001222100280006F03FF8234E320021002F
:10047000280006F073F83378002BF7D10122210011
:10048000280005F0EFFE0121200005F0CDFE03213C
:10049000200005F05FFE0321280005F089FF1321ED
:1004A000200006F0C9F81221200006F003F900210F
:1004B000200006F0E1F80321200006F06BF802218D
:1004C000200006F083F85521200005F061FE182178
:1004D000280005F007FF06B070BDC0467820032055
:1004E0005C32002040420F009C200020942000201D
:1004F00048580320149504109A580320F0B5C646B6
:10050000334C344D344E22002900300000B505F044
:10051000D9FF6378DB439B0720D023781B0702D4E5
:1005200080BCB846F0BD2D4C0622002120000EF004
:10053000A9FA2100300005F095FF0023E05E05F0E8
:10054000FFFD274D28600223E05E05F0F9FD68609D
:100550000423E05E05F0F4FDA860E1E7214B0622EC
:100560009846180000210EF08DFA1F4F0622002138
:1005700038000EF087FA4146280005F055FF390093
:10058000280005F033FF43460020185E05F0C4FD47
:100590004346164D28600220185E05F0BDFD434617
:1005A00068600420185E05F0B7FDA8600023F85EBF
:1005B00005F0BCFD0E4D28600223F85E05F0B6FD87
:1005C00068600423F85E05F0B1FDA860A5E7C046A9
:1005D000CC4D03205C32002078200320783E03209D
:1005E00018430320683E0320703E03200C3D032087
:1005F000283D0320F0B55746DE464E464546E0B559
:100600008BB008919246190005900993DA170323DD
:100610008C46134063449B109B009846002B00DCE3
:1006200090E05246159B00249B000193149B9B1A5B
:10063000159A9B1A089A9B00029353681268190135
:1006400094460491069251469A00039252468D00B8
:100650000021013A92000792002289465900DE00EB
:10066000CB189B009B461300424665440092019ABA
:1006700094469C44039B1A199F195346002B1EDD78
:10068000069B059819196346804600989B004344D1
:1006900080460094086818600098081A845804314D
:1006A0005C6084599C60C059D86010338D42F1D190
:1006B00043460799009363468C4604339C440421C7
:1006C000029B5A4463448C461400049A3E00E14461
:1006D0009446009A5E4465444A45C8DC1A00009B73
:1006E0009846099B434526DD1499159C089B0D1BD4
:1006F000514609CB6D1A00291DDD41469E004B4332
:100700009B00C01853469C00059B47469C46099B8E
:10071000AB469846159B994600234A449100614494
:10072000C558CD5004339C42FAD1524401375A4443
:100730008019B845F0D10BB0F0BCBB46B246A94613
:10074000A046F0BD0022CCE7F0B54746CE4680B5C6
:100750001F00002B1DDD002A1BDD9300C0180B6855
:10076000002498464B689100D200494252428C4680
:1007700091469B00614645182900A2004244166834
:10078000D21840C18142FAD14A460134A81AA74280
:10079000F0D1C0BCB946B046F0BDC046F0B5DE46AB
:1007A00057464E4645460023E0B51360836887B040
:1007B0009A46059200230268052693460093013B62
:1007C000039002910493052355469B1B98465D4375
:1007D0005B46002B00D18DE14544AD005D442B68A4
:1007E0005C006B6864085F007F08391C381C0EF0E1
:1007F00012F8002800D0DFE0211C381C0EF006F8AB
:10080000002800D0DFE00027731C9A46022B53D942
:10081000AB685B005B08191C181C99460DF0FBFFC8
:10082000002800D046E14846211C0DF0EFFF0028CB
:1008300001D04C4602275346032B3DD0EB685B00AA
:100840005B08191C181C99460DF0E5FF002800D024
:1008500038E14846211C0DF0D9FF002801D04C4654
:1008600003275346042B27D02B695B005B08191C18
:10087000181C99460DF0CFFF002800D02AE1494608
:10088000201C0DF0B5FF002801D04C46042753462C
:10089000052B11D06D696D006D08291C281C0DF009
:1008A000BAFF002800D01DE1291C201C0DF0A0FF7C
:1008B000002801D005272C1C029B009A47440021E8
:1008C0009F50201C0DF08CFF002800D17EE0049B7F
:1008D000013300D1E3E006239B1B45460193039BB4
:1008E0009B689A465D4306239F1B53469B0099468F
:1008F000019B52461C005443009A7F199446A50060
:1009000065449C460023BF005F44B8461F00644412
:10091000A4005D445C444346286819680DF031FF2B
:10092000011C20680DF013FF2060012E2DD94346D5
:10093000286859680DF025FF011C60680DF007FF5D
:100940006060022E21D04346296898680DF019FF97
:10095000011CA0680DF0FBFEA060032E15D04346DD
:100960002968D8680DF00DFF011CE0680DF0EFFE5E
:10097000E060052E09D14346296818690DF001FF92
:10098000011C20690DF0E3FE206101374D444C4409
:10099000BE42C0D1009B013E04330093019B052B56
:1009A00000D010E71A00029B5A6107B0F0BCBB46AA
:1009B000B246A946A046F0BD211C201C0DF02BFF1D
:1009C000002800D018E73C1C01271DE7474530D020
:1009D00059465C460098BB005B4409581D68039A61
:1009E00092682550196001009200594489189B189B
:1009F00008681C680C60186089189B1808681C68D7
:100A00000C60186089189B1808681C680C601860D6
:100A100089189B1808681C680C60186089189B1856
:100A200018680A6808601A60059A13680193013310
:100A300013604546039B5A469B685D439A460623CE
:100A40009B1B0193EC1843465B199B009F58A40025
:100A50005C442068391C0DF080FE2060012E00D817
:100A600041E76068391C0DF078FE6060022E00D10D
:100A700039E7A068391C0DF070FEA060032E00D18C
:100A800031E7E068391C0DF068FEE060042E00D10B
:100A900029E72069391C0DF060FE206123E7062359
:100AA00045469B1B0193039B9B689A465D434346C7
:100AB000049318E7211C201C0DF0ADFE002800D186
:100AC000B7E6B0E6211C201C0DF0A5FE002800D1E1
:100AD000C5E6BEE6211C201C0DF09DFE002800D1BD
:100AE000D3E6CCE6211C201C0DF095FE002800D199
:100AF000E0E6D9E61B68FFDEF0B55746DE464E4617
:100B00004546E0B599B01493249B8246259C2698CF
:100B10005D1C00D1229B651C00D1229C239DEE17F9
:100B200003253540239EB4466544AD10AF0007252C
:100B3000229E0E97AE4335000096149E002E00DCD8
:100B400088E29B001693230110930301D318179397
:100B50006B1EDB0801330391D9015B010F93A300E6
:100B60007C43201880001193131815930023D3465B
:100B7000139108930E9B002B00DCC2E10F9A039B9C
:100B8000944663441293179BD84601930023029323
:100B90000298434601000CCB089C5943A44661448B
:100BA000890051180991411C594361448900511829
:100BB0000A91811C59436144890051180B91C11C51
:100BC0004B4363449B00D318019E0C93009B34005D
:100BD000002B00DC45E2039B0025994600234C4690
:100BE000AA46AB46A946069504952F1C0595079580
:100BF0000D9325683168281C0DF0C3FD59460DF092
:100C0000A9FD71688346281C0DF0BBFD51460DF00F
:100C1000A1FDB1688246281C0DF0B3FD07990DF0C7
:100C200099FDF1680790281C0DF0ABFD05990DF0BA
:100C300091FD059065683169281C0DF0A2FD391CF5
:100C40000DF088FD7169071C281C0DF09AFD0499B0
:100C50000DF080FDB1690490281C0DF092FD0699FD
:100C60000DF078FDF1690690281C0DF08AFD4946CB
:100C70000DF070FD8146A568316A281C0DF081FDDC
:100C800059460DF067FD716A8346281C0DF079FD09
:100C900051460DF05FFDB16A8246281C0DF071FDD2
:100CA00007990DF057FDF16A0790281C0DF069FDBA
:100CB00005990DF04FFD0590E568316B281C0DF08E
:100CC00060FD391C0DF046FD716B071C281C0DF0F2
:100CD00058FD04990DF03EFDB16B0490281C0DF0F9
:100CE00050FD06990DF036FDF16B0690281C0DF0B5
:100CF00048FD49460DF02EFD81462569316C281CC2
:100D00000DF03FFD59460DF025FD716C8346281C02
:100D10000DF037FD51460DF01DFDB16C8246281CCB
:100D20000DF02FFD07990DF015FDF16C0790281CB3
:100D30000DF027FD05990DF00DFD05906569316DEC
:100D4000281C0DF01EFD391C0DF004FD716D071CF3
:100D5000281C0DF016FD04990DF0FCFCB16D0490FB
:100D6000281C0DF00EFD06990DF0F4FCF16D0690B7
:100D7000281C0DF006FD49460DF0ECFC8146A569E6
:100D8000316E281C0DF0FDFC59460DF0E3FC716E30
:100D90008346281C0DF0F5FC51460DF0DBFCB16ECE
:100DA0008246281C0DF0EDFC07990DF0D3FCF16E86
:100DB0000790281C0DF0E5FC05990DF0CBFC059083
:100DC000E569316F281C0DF0DCFC391C0DF0C2FC0C
:100DD000716F071C281C0DF0D4FC04990DF0BAFCAF
:100DE000B16F0490281C0DF0CCFC06990DF0B2FCFC
:100DF000F16F0690281C0DF0C4FC49460DF0AAFCCA
:100E00008146803620340D9B009A08330D939A4218
:100E100000DDEEE6139B019C9C46051C5946381CE0
:100E200064440DF097FC5146071C04980DF092FCA9
:100E30000799061C06980DF08DFC05998146281C23
:100E40000DF088FC129B051C9A46229A009B9A4240
:100E500030DDAB460493534620CB2168281C9A46CC
:100E60000DF08FFC011C381C0DF074FC6168071C30
:100E7000281C0DF086FC011C301C0DF06BFCA168D9
:100E8000061C281C0DF07DFC011C48460DF062FC80
:100E9000E1688146281C0DF074FC011C58460DF0D9
:100EA00059FC8346049B229A0133103404939A42DE
:100EB000D1D1051C311C0A9E30680DF048FC391C4C
:100EC000099F041C38680DF042FC291C0C9D3860F9
:100ED000346028680DF03BFC0B9E4946041C3068CA
:100EE0000DF035FC1099019A8C46029B62440192E8
:100EF0000E9A0433306002932C609A4200DD47E67C
:100F0000C3460F9A039B944663440E9A0293239B15
:100F10009246159D934200DC90E05B465C68534628
:100F20005C43089B2F009C465B461B6864449C46C0
:100F3000009BA4006444002B00DC99E00023039F85
:100F400099463B00A04600262F001C003968206807
:100F50000DF017FC311C0DF0FDFB061C7968606874
:100F60000DF00FFC311C0DF0F5FB061CB968A068F4
:100F70000DF007FC311C0DF0EDFB061CF968E06874
:100F80000DF0FFFB311C0DF0E5FB061C39692069F3
:100F90000DF0F7FB311C0DF0DDFB061C7969606973
:100FA0000DF0EFFB311C0DF0D5FB061CB969A069F3
:100FB0000DF0E7FB311C0DF0CDFB061CF969E06973
:100FC0000DF0DFFB311C0DF0C5FB061C2037203473
:100FD00008239C46009BE1444B45B7DC44460F9BED
:100FE000EF18029B0193229A009B9A4217DD9946C3
:100FF0000023984643464246F958019B98580DF005
:10100000C0FB011C301C0DF0A5FB061C01239C46F7
:101010000333E1449C46229BE0444B45EAD12068DF
:10102000311C0DF094FB01239C46119BE2449C462D
:10103000239B20606544534500D06EE71699039AC0
:101040008C46089B62440392149A013308939A4297
:1010500000D08FE519B0F0BCBB46B246A946A04609
:10106000F0BD0025039BA9469A462E1C2F1CECE6DA
:10107000039B00260193B6E7F0B557464E46DE4681
:1010800045468024E0B5B5B006AF3C1920609420F9
:101090007B63E823AE4E38180160BA63FB181C6806
:1010A0003378BFF35B8FDB0700D477E2A94D902242
:1010B0002369BA1813608422A368BA1813608022C7
:1010C000BA1812686D68934202DD8423FB181A6017
:1010D00094218423902279180E688C21FB18BA1869
:1010E00012681B6856435343226879180A60002A25
:1010F00000D180E29B003B660023BB6763687B678F
:10110000002B00D163E2B300FB6500233B6798220C
:101110000423BA1813609033FB181B68002B19DDE9
:101120008023E422FB18BA181B6812681900934246
:1011300000DA4AE2280009010CF06CF80323C21718
:10114000134098221B189B109B00BA181360042BA5
:1011500000DA35E28023FB181968002900DCA9E1D8
:1011600090207B6B38181A000068796484464243EB
:10117000091A3A616244B9647A609821E4227918C4
:10118000BA18126809684A43BA619A007A6104324F
:10119000FA61A02201339B00BA181360E423FB1804
:1011A0001B689B009B460023FB63FB643B64BB66A0
:1011B0009C227B6CBA1813609022BA181268934272
:1011C00002DD9C23FB181A609423FB181B68002B7C
:1011D00000DC47E19C23FB181A68002A00DC41E18F
:1011E0009423E021FB181B687918BB6598230968D4
:1011F000FB188C461B68B86E53439B00BB607B6F2B
:101200001100FB6783006344FB6000238C46FB6690
:10121000FB620B00B021791839630321013B043ACA
:101220008B436044D31A38603B629822BA18BB6D76
:1012300012689A46934200DD9246FA68FB6E944625
:101240009B0063447B66FB6B88227B65FB6CBA1852
:101250003B659C23FB181B6813609C23FB181A68D2
:101260008823FB181B68D21ABA62A422BA1813602A
:10127000042B03DDA4220423BA1813608823FB186F
:101280003A681B68D21A7A62002B65DDA423BA6B18
:10129000FB189146A8221B68BA18013B98467B6D43
:1012A0009B0099447B6E1360AC220023BA18136034
:1012B000AC23AC22FB181B68BA18013313604346F9
:1012C000002B2CDDA8230025FB181C684B46266844
:1012D0005968301C0DF055FA011C60680DF037FAA2
:1012E00043466060012B16D04B46301C99680DF0C8
:1012F00048FA011CA0680DF02AFA4346A060022BB0
:1013000009D04B46301CD9680DF03BFA011CE0684F
:101310000DF01DFAE06001355C445545D6D101233E
:101320005B429C46A133FB181B68E0449C46A82303
:10133000A822FB181B68BA1804331360AC23A4223C
:10134000FB18BA181B681268E1449342B0DB03E053
:10135000E0220320A43803208823A422FB18BA1813
:101360001B681268396B9D1A7B6EBE6A0B60E423A2
:10137000FB181B6891464B609C230196FB181B6869
:1013800088460093F86F5346FFF734F9002D37DD98
:1013900041467C6A386D4C440319B86B4A46844612
:1013A000786B9B004860A420381802608C203818A5
:1013B000006863440B602B0081463963FFF7C4F972
:1013C000E022FB6EBA181B1914689B00A0463C6B08
:1013D00043442360E423FB1819689C236160FB18D5
:1013E00004961B6849460393A423FB181A685346C6
:1013F0000292019300922B002000FA6FFFF77CFB12
:10140000882388227969FB188C461B68BA18043B2C
:10141000F96913603A6D62448C463A657A6E10320F
:101420007A667A6D62447A653A6A9A4200D014E725
:101430009822BA181268B96D9446FB6A8A1AB9697B
:1014400063448C46BA65B968FA6EFB6262448C46A6
:10145000FA66FA6F6244FA679422BA1812689A42DE
:1014600000DDE2E69022BA181268BB6E9446802234
:10147000BA1812686344BB6693421BDA8423FB18D4
:101480001B68002B38DC90233969FB188C467A6C7A
:101490001B68D21A7A643A6C62443A64BA6CD31A02
:1014A000BB647A68FB6C63449446FB64FB6B6344E7
:1014B000FB637DE68023FA6D9B029A4207D93A6F5F
:1014C000002A04D0531E1878101A0DF0C3FA802396
:1014D0003A6E9B029A4207D9BA6F002A04D0531E73
:1014E0001878101A0DF0B6FABD462FB0F0BCBB4606
:1014F000B246A946A046F0BDBA6B3B6C92469B0033
:101500009A44B023FE18B13B9946BD6CBC6E84234F
:10151000FB181B68A8469D4200DD9846AC22A3003C
:10152000BA1813607A6B8C2072609C225344BA18EC
:10153000381831001268006833604346FFF704F939
:10154000E022AC23BA181268FB1894461B688C2161
:1015500063443360E423FB181B687918736000232D
:1015600004934B46039302939423FB181B683000AB
:1015700001939C23FB181B6800937A6F434609680C
:10158000FFF7BAFA8423FB181B689C46ED1A8023E8
:10159000FB181B686444A342B9DC74E730000FF009
:1015A00025FF364D002800D181E58023DB012B602B
:1015B00080231B0330006B60AB600FF033FF76E5D8
:1015C00098220423BA181360C4E51100B2E5802301
:1015D000B200FA659B029A423AD813006A46163363
:1015E000DB08DB00D31A9D4627200F23684498436D
:1015F000386778678BE59A0080233A669B029A42A7
:101600000FD813006A461633DB08DB00D31A9D4659
:1016100027200F23684498437D33FB18B867186070
:101620006CE5100010300DF0F7F9B867002800D114
:1016300064E50F221023844602409B1ADBB29C44CF
:1016400061464A1E13708C23FB18B967196055E573
:10165000100010300DF0E0F93867002800D156E591
:101660000F221023844602409B1ADBB29C44614641
:101670004A1E39671370796749E5C046A4380320CC
:10168000F0B557464E46DE464546E0B5B7B006AF24
:10169000824684207B65F023CB4E38180160BA6304
:1016A000FB181C683378BFF35B8FDB0700D49DE227
:1016B000C64D23696D683B67A368BB67534501DD71
:1016C0005346BB67842179180E6880213A6FBB6F3F
:1016D00056435343226879180A60002A00D1B4E2C5
:1016E0009B003B650023FB666368BB66002B00D153
:1016F00097E2B300FB6400237B6688220423BA18B8
:1017000013608033FB181B68002B16DDEC23FB18DD
:101710001B6851469A4500DA7FE2280009010BF068
:1017200079FD0323C217134088221B189B109B00CE
:10173000BA181360042B00DA6AE25346002B00DC6F
:1017400032E27A6D386F1100434259430B00B9629F
:1017500051460C1A110062431B1A9B00BA647B604D
:101760000A000B0051464B43B96B53448C46E821A9
:101770009B006344FB637918830009685B423B600C
:1017800053468C469B006344EC21BB658823791843
:10179000FB1809681B687C674B4390213B619300F1
:1017A0005B4279180B60043BBB609B00FB60D3433A
:1017B00094229B00BA181360EC23A822FB181B6824
:1017C000BA189B001360544603008C22BA181360A9
:1017D000A34200DD14608423FB181B68002B00DC8F
:1017E00076E18C23FB181A68002A00DC70E1842360
:1017F000FB181B68B96D7B648823FB181B68534377
:101800009B00FB61BB6EFB659300CB1A3B62002320
:10181000B8213B667B63A31A7918FB621300396316
:101820000321013B043A8B43D31A7B61AC227B6CCE
:10183000BA1813608822BA181268934202DDAC23EA
:10184000FB181A603A6A3B6E94469B009C446246C1
:101850007A62BA6D944698226344BA181360FB6B9F
:101860003B648C23FB181B68FB679C22FB6FBA1838
:101870001360042B03DD9C220423BA181360FA6F53
:10188000FB6A94466344BB61002A00DCA0E09C2311
:10189000396CA0208A46FB181B6838185A1E9346DC
:1018A000BA685B42524402607A6D9B1A9B009A446C
:1018B0000423A4225B4299460023BA181360A02394
:1018C000FE20FB181B68800519680CF046FFB42346
:1018D000FB181860A423FB181B685A46DB439B1AAD
:1018E0009822BA18126800269446B0229C009B00E9
:1018F0005B42BA1864441360B023FB181B684A4665
:101900009846A04443469958B423FB1818680CF035
:1019100038FF43464A4698505B46051C002B22DDA3
:10192000534619680CF02DFF011C20680CF00FFFC6
:101930005B462060012B16D05346281C59680CF0DA
:1019400020FF011C60680CF002FF5B466060022B08
:1019500009D05346281C99680CF013FF011CA0689D
:101960000CF0F5FEA060A823FB181B6801369C460E
:10197000AC23FB181B6864449E42BDD1A423A4225F
:10198000FB181B68BA1801331360012294215242DC
:10199000944679180968E3448C46A021A132BA180C
:1019A0001268791862440A600422524294469432C2
:1019B000BA181268E14494469C22BA181268E244AC
:1019C000934200DA7BE703E0E0220320A4380320FF
:1019D000E8219C2279180968BA188C46FB6F1268B6
:1019E000396B9C1ABB699D1A3B6E5B199B00634463
:1019F0000B60EC23FB181B684B608C230194FB18D5
:101A00001B680093AC23FB181B68F86DFEF7F2FD12
:101A1000002C30DD7A6DF96A13008C466B433D6B08
:101A2000B96B80206A609C2263448C463818066833
:101A30009B00BA181268634429002B603000230011
:101A40009046FEF781FEEC2228008C237D6ABA18AE
:101A500005601568FB18456004941D68AC22434678
:101A600003950293BA181268009301922300310083
:101A7000FA6DFFF741F898229821BA181268791880
:101A8000103A0A60F9683A6C8C46FB6F62443A641B
:101A90007A69043BFB679A4200D0E6E68822BA18CE
:101AA0001268796C94467B6B8A1AF96963448C4698
:101AB0007A643969FA6D7B6362448C46FA653A6EE2
:101AC00062443A668422BA1812689A4200DDADE692
:101AD0007B6F1C1E68DDBB6F002B00DCFEE7BA6B62
:101AE000BB6C93469B009B4400239946B833FE1879
:101AF000B93B9A4623004C4699467D6FBB6FA8467A
:101B00009D4200DD9846B422A300BA1813607A6D96
:101B1000802072608C225B44BA1838183100126839
:101B2000006833604346FEF70FFEE822B423BA187C
:101B30001268FB1894461B68802163443360EC23D1
:101B4000FB181B68791873600023049353460393B2
:101B500002938423FB181B68300001938C23FB182D
:101B60001B680093BA6E43460968FEF7C5FFBB6F5A
:101B70009C46ED1A7B6F6444A342BFDCBA6ABB6C1F
:101B800094467A6863449446BB643A68FB6B4C465F
:101B900063449446FB63BB6D3A6F6344BB657B6FE4
:101BA0009B1A7B67130010E68023FA6C9B029A4213
:101BB00007D97A6E002A04D0531E1878101A0CF038
:101BC00049FF80233A6D9B029A4207D9FA6E002A98
:101BD00004D0531E1878101A0CF03CFFBD4631B0EB
:101BE000F0BCBB46B246A946A046F0BD30000FF09F
:101BF000FDFB374D002800D15BE58023DB012B6026
:101C000080231B0330006B60AB600FF00BFC50E5D2
:101C100088220423BA1813608FE5EC23FB18196897
:101C20007BE58023B200FA649B029A423AD8130003
:101C30006A461633DB08DB00D31A9D4627200F23A4
:101C4000684498437866B86657E59A0080233A65F9
:101C50009B029A420FD813006A461633DB08DB005A
:101C6000D31A9D4627200F23684498437133FB18ED
:101C7000F866186038E5100010300CF0CDFEF866FC
:101C8000002800D130E50F221023844602409B1A21
:101C9000DBB29C4461464A1E13708023FB18F96630
:101CA000196021E5100010300CF0B6FE78660028AF
:101CB00000D122E50F221023844602409B1ADBB29A
:101CC0009C4461464A1E79661370B96615E5C046A4
:101CD000A438032030B587B00D4B02AD00951A68CB
:101CE000694602929A880400AA809B796A46AB7181
:101CF000072301930023D3732CF00AFB0098A8421A
:101D000003D0029901310CF0D9FE200007B030BD9C
:101D100028950410F0B5DE4657464E464546E0B5D8
:101D20000E000168C7688946416805698A4681686E
:101D30008DB08B464169806907930690506813689F
:101D4000926805910A90291C30680B9209930895B6
:101D50000CF0FDFC0599039070680CF0F8FC0699F6
:101D6000051CB0680CF0F3FC802680463606079808
:101D70000CF08AFDB446039B009001916344180067
:101D800051460CF0FEFC5946061C281C0CF0F9FCD0
:101D9000011C301C0CF0DBFC391C061C404604976F
:101DA0000CF0EFFC011C301C0CF0D1FC0CF06CFDB5
:101DB0000022684B0BF0A5FC009A019B0BF0A1FCE4
:101DC000060048460F000CF05FFD02000B003000DB
:101DD0003900169C0BF06EFC0BF098FD4946206014
:101DE00003980CF0CEFC5946061C40460CF0C9FC8A
:101DF000011C301C0CF0AEFC0499061C281C0CF0D5
:101E0000C0FC011C301C0CF0A2FC0CF03DFD0022BB
:101E1000504B0BF076FC009A019B0BF072FC060015
:101E200050460F000CF030FD02000B00300039006E
:101E30000BF040FC0BF06AFD49466060281C0CF07A
:101E4000A0FC5146061C40460CF09BFC011C301CBB
:101E50000CF07DFC0499061C03980CF092FC011C0C
:101E6000301C0CF077FC0CF00FFD0022394B0BF00E
:101E700048FC009A019B0BF044FC060058460F00FA
:101E80000CF002FD02000B00300039000BF012FCD8
:101E90000BF03CFD4946A06040460CF072FC5146F8
:101EA000061C281C0CF06DFC011C301C0CF052FCB4
:101EB0005946051C03980CF064FC011C281C0CF00E
:101EC00046FC0CF0E1FC0022224B0BF01AFC009ABD
:101ED000019B0BF016FC060004980F000CF0D4FCDC
:101EE00002000B00300039000BF0E4FB0BF00EFD9C
:101EF000089B0999E060181C98460CF042FC079D6D
:101F0000291C0CF03EFC011C40460CF020FC059FF7
:101F10000A992061381C0CF034FC291C0CF031FCAF
:101F2000011C381C0CF013FC069E0B996061301CE0
:101F30000CF027FC291C0CF024FC011C301C0CF0BC
:101F400006FCA06100200DB0F0BCBB46B246A9461D
:101F5000A046F0BD0000E03FF0B5DE4657464E46D5
:101F600045468A464168E0B58846C768816891B0B1
:101F7000066889464046391C141C04930CF001FC89
:101F80004946051C301C0CF0FCFB0A90011C281C67
:101F900009950CF0DCFB0CF077FC02000B000BF059
:101FA00089FB06900791201C02940CF06DFC0B003D
:101FB000020004000D00069807990BF0A2FB0BF03D
:101FC000A5FC5246391C106048460CF0DAFB8346EB
:101FD0004146301C0CF0D5FB5A460E90011C584669
:101FE0000B920CF0B7FB0CF04FFC02000B000BF057
:101FF00061FB02000B00200029000C920D930BF0F6
:1020000080FB0BF083FC5446311C6060301C0CF0EC
:10201000B8FB4146041C40460CF0B3FB051C011CF8
:10202000201C0CF094FB4946089048460CF0A9FB94
:10203000391C8346381C0CF0A4FB594601900898C3
:102040000CF085FB01990CF085FB02990F900CF0C8
:1020500098FB53464946986040460CF092FB391C69
:102060008046301C0CF08DFB81461A980CF00CFC5D
:1020700006001B980F000CF007FC02900391291C2E
:10208000201C0CF067FB59460CF061FB01990CF029
:102090005EFB04990CF075FB0CF0F6FB04000D00E0
:1020A000404649460CF056FB0CF0EEFB02000B00DC
:1020B0000BF000FB32003B000BF023FB02000B0097
:1020C000200029000BF0F6FA029A039B04000D0091
:1020D000069807990BF015FB02000B002000290061
:1020E0000BF0E8FA0BF012FC5346D86004980CF0A1
:1020F000CBFB04000D00404649460CF028FB0CF0D9
:10210000C3FB02000B000BF0D5FA22002B00049455
:1021100005950BF0F6FA04000D00089859460CF0EE
:1021200019FB01990CF013FB1A990CF02AFB0CF027
:10213000ABFB02000B00200029000BF0BBFA029A57
:10214000039B04000D000C980D990BF0DAFA0200C5
:102150000B00200029000BF0ADFA0BF0D7FB534623
:102160000A99186109980CF0F5FA0CF08DFB020041
:102170000B000BF09FFA049A059B0BF0C2FA0400C7
:102180000D000B980E990CF0E2FA0CF07DFB0200AA
:102190000B000BF08FFA32003B000BF0B2FA02009A
:1021A0000B00200029000BF085FA04000D000F98A9
:1021B0001B990CF0E6FA0CF067FB02000B00200004
:1021C00029000BF077FA0BF0A1FB53465861002071
:1021D00011B0F0BCBB46B246A946A046F0BDC04611
:1021E000F0B50400DE4657464E4645460800E0B5C9
:1021F00045680968AA46856895B0AB46C5684669D2
:10220000876910910E950169556810689268049667
:1022100090461A68069711925A689B681292139317
:10222000FE239B05236099460CF091FA0CF02CFBE1
:10223000009001911E980CF027FB06000F000098FB
:1022400001990022924B0BF05CFA32003B000BF03C
:1022500058FA0BF05BFB04990390E061281C0CF02A
:1022600076FA0CF011FB0022894B049005910BF0DB
:1022700048FA32003B000BF044FA0BF047FB06999A
:10228000051CA06340460CF062FA0CF0FDFA002237
:102290007F4B069007910BF034FA32003B000BF0B5
:1022A00030FA0BF033FB0A90606550460CF0ECFA04
:1022B0000022784B089009910BF023FA32003B0082
:1022C0000BF01FFA0BF022FB0B90206758460CF026
:1022D000DBFA00226F4B0C900D910BF012FA3200DA
:1022E0003B000BF00EFA0BF011FB8C238246E05002
:1022F0000E980CF0C9FA0022664B0E900F910BF06D
:1023000000FA32003B000BF0FCF90BF0FFFAA823B7
:102310008346E0500022009801995E4B0BF0F1F9E2
:1023200032003B000BF0EDF90BF0F0FA494600905B
:1023300060602162002206980799564B0BF0E1F984
:1023400032003B000BF0DDF90BF0E0FAA5658046AA
:10235000E06310980CF098FA00224D4B0BF0D1F985
:1023600032003B000BF0CDF90BF0D0FA5946902328
:10237000051C60670022E1500C980D99444B0BF04E
:10238000C0F932003B000BF0BCF90BF0BFFAAC23F4
:102390000022E050049805993E4B0BF0B2F9320050
:1023A0003B000BF0AEF90BF0B1FA49460A9A8346AE
:1023B0006262009AA0602164E2650E980F99002283
:1023C000334B0BF09EF932003B000BF09AF90BF007
:1023D0009DFA94230B99A067E5501C33E1504146C8
:1023E000E1605946A162494621665146039BE16777
:1023F0006364089809990022254B0BF082F932009A
:102400003B000BF07EF90BF081FA9823E0501C336F
:10241000E55000251E9911982561E562A564656661
:102420000CF0AFF9011C48460CF091F98023E05004
:102430001C33E5501C33E550343B1E9912986561FE
:102440002563E564A566E5500CF09BF9011C484640
:102450000CF07DF9A023E0501C33E550343BA5611E
:1024600065632565E566E5501C33E5501E991398B4
:102470000CF087F9011C48460CF069F9C023E050C4
:10248000002015B0F0BCBB46B246A946A046F0BD40
:102490000000E0BF0000E03FF0B5DE4657464E4684
:1024A0004546E0B59A460B68141C8A689B464B6803
:1024B000C9688BB00500101C8846009301920CF08F
:1024C000E3F902900391201C0CF0DEF9C023060012
:1024D0000F000298039900221B060BF012F932003C
:1024E0003B000BF00EF90BF011FA08902860404603
:1024F0000CF0CAF902000B000BF0DCF832003B00D4
:102500000BF0FFF80BF002FA041CA86158460CF01F
:10251000BBF9C02300221B06049005910BF0F1F8D3
:1025200032003B000BF0EDF80BF0F0F92863009857
:102530000CF0AAF902000B00069007910BF0BAF814
:1025400032003B000BF0DDF80BF0E0F900219023A6
:102550008946A8642966A967E950686004980599C6
:1025600002000B000BF0A6F832003B000BF0C9F89C
:102570000BF0CCF96C630490E861029803990200B7
:102580000B000BF097F832003B000BF0BAF80BF0A1
:10259000BDF949469423E8646966E967E950C023B8
:1025A00006980799049A1B06AA6000220BF0A9F866
:1025B00032003B000BF0A5F80BF0A8F9089B494648
:1025C000AB63802328622C65A966E9501833E95073
:1025D000404614990CF0D5F8019F1599061C381C3B
:1025E0000CF0CFF85146041C58460CF0CAF8311CC8
:1025F0000CF0B0F8211C06940CF0A9F8011C0CF0AA
:10260000A9F851460990E86000980CF0BAF81499BE
:10261000041C381C0CF0B5F8011C201C0CF09AF8B6
:102620001599041C40460CF0ACF8011C201C0CF061
:1026300091F8011C0CF08EF81499029068620098D1
:102640000CF09FF81599089058460CF09AF8019AEA
:102650008024944624066444071C514620000CF054
:1026600090F808990CF076F8391C0CF070F8011C01
:102670000CF070F81499E86358460CF082F815993C
:10268000049000980CF07DF8802212064244041C4D
:10269000514610000CF075F804990CF05BF8211C01
:1026A0000CF058F8011C0CF055F84A468423EA66F1
:1026B0006865EA501833EA505146286101980CF0D9
:1026C00060F808990CF043F8391C0CF043F8011C31
:1026D0000CF040F8071CA8628020029B00062B64C7
:1026E000514658440CF04DF8311C0CF030F8069966
:1026F0000CF030F8011C0CF02DF88823A865484632
:102700002867E8501833E850514640466F610CF096
:1027100038F804990CF01BF8211C0CF018F8011C77
:102720000CF018F8099AE8626A64029B4A46EB6565
:102730004B466B678C230020EA501833EA500BB0ED
:10274000F0BCBB46B246A946A046F0BD0123F0B599
:10275000E3214746CE469C46294B804605009946D4
:10276000284E80B58900076846444144FA0F6F68D7
:10277000D2077B005B08346813435A086240644602
:102780001C4201D04B465A4004C50436A942EDD143
:10279000E32342469B00C626D458194B01259C468C
:1027A000F6004644E20F4C68D20763005B080768F6
:1027B00013435A087A401D4201D063465A40043000
:1027C00004C1B042EED14246C62140460E4BC9007C
:1027D000D3581268DB0F52005208DB0741581343ED
:1027E0005A084A40DB0701D5054B5A404146064B83
:1027F000CA5000220433CA50C0BCB946B046F0BD2E
:10280000DFB0089934060000BC090000F0B5454669
:10281000DE4657464E46E0B53C4CD723A54434AA85
:10282000944663441B091B018A6805930B68019257
:1028300037921A6804902D929A6933912E921A6BEE
:1028400038AC2F929A6C30921A6E06929A6F089258
:1028500090229A5807925A680A92DA690B925A6B38
:102860000C92DA6C0D925A6E0E92DA6F0F929422DD
:102870009A5810929A6811921A6A12929A6B13924D
:102880001A6D14929A6E159280229A581692982276
:102890009A581792DA6818925A6A1992DA6B1A9251
:1028A0005A6D1B92DA6E1C9284229A581D929C22B9
:1028B0009A581E921A691F929A6A20921A6C219253
:1028C0009A6D22921A6F239288229A582492A022FB
:1028D0009A5825925A692692DA6A27925A6C289257
:1028E000DA6D29925A6F2A928C229A582B92A4223E
:1028F0009B582C934B68984638AB3293C42343447F
:1029000009934346A0461C0002E0C0469CFDFFFF21
:10291000E168A26889462169236848460391309995
:10292000029201930BF02DFF0399824606980BF05B
:1029300028FF011C50460BF00DFF67698246391CC9
:1029400008980BF01EFFA6698346311C07980BF010
:1029500018FF011C58460BF0FDFE011C50460BF001
:10296000F9FE656882462E99281C0BF00AFF2F9904
:10297000834602980BF005FF011C58460BF0EAFE57
:102980002D99834601980BF0FCFE011C58460BF074
:10299000E1FE011C50460BF0DDFE4346494618603F
:1029A0000D980BF0EEFE039982460E980BF0E9FEAF
:1029B000011C50460BF0CEFE391C82460F980BF0DE
:1029C000E0FE311C834610980BF0DBFE011C5846DC
:1029D0000BF0C0FE011C50460BF0BCFE291C8246C9
:1029E0000B980BF0CEFE029983460C980BF0C9FEB3
:1029F000011C58460BF0AEFE019983460A980BF075
:102A0000C0FE011C58460BF0A5FE011C50460BF001
:102A1000A1FE43464946586014980BF0B2FE039954
:102A2000824615980BF0ADFE011C50460BF092FE4D
:102A3000391C824616980BF0A4FE311C8346179869
:102A40000BF09FFE011C58460BF084FE011C504603
:102A50000BF080FE291C824612980BF092FE029920
:102A6000834613980BF08DFE011C58460BF072FE46
:102A70000199834611980BF084FE011C58460BF017
:102A800069FE011C50460BF065FE434649469860BE
:102A90001B980BF076FE039982461C980BF071FE92
:102AA000011C50460BF056FE391C82461D980BF057
:102AB00068FE311C83461E980BF063FE011C5846CD
:102AC0000BF048FE011C50460BF044FE291C8246C8
:102AD00019980BF056FE029983461A980BF051FE96
:102AE000011C58460BF036FE0199834618980BF0EE
:102AF00048FE011C58460BF02DFE011C50460BF001
:102B000029FE43464946D86022980BF03AFE0399C5
:102B1000824623980BF035FE011C50460BF01AFE3E
:102B2000391C824624980BF02CFE311C83462598D4
:102B30000BF027FE011C58460BF00CFE011C504602
:102B40000BF008FE291C824620980BF01AFE029911
:102B5000834621980BF015FE011C58460BF0FAFD38
:102B6000019983461F980BF00CFE011C58460BF090
:102B7000F1FD011C50460BF0EDFD4346494618613E
:102B800029980BF0FEFD039981462A980BF0F9FD78
:102B9000011C48460BF0DEFD391C81462B980BF0DA
:102BA000F0FD311C071C2C980BF0EBFD011C381CB0
:102BB0000BF0D0FD011C48460BF0CCFD291C061C77
:102BC00027980BF0DEFD0299051C28980BF0D9FD23
:102BD000011C281C0BF0BEFD0199051C26980BF06A
:102BE000D0FD011C281C0BF0B5FD011C301C0BF0A6
:102BF000B1FD4346586118239C46099B1C34E044B0
:102C0000A34200D084E6379B1A68629308929A69BF
:102C100009921A6B0A929A6C0B921A6E0C929A6F26
:102C20000D9290229A580E925A680F92DA69109279
:102C30005A6B1192DA6C12925A6E1392DA6F1492E6
:102C400094229A5815929A6816921A6A17929A6B59
:102C500018921A6D19929A6E1A9280229A581B92A3
:102C600098229A581C92DA681D925A6A1E92DA6B60
:102C70001F925A6D2092DA6E219284229A582292E3
:102C80009C229A5823921A6924929A6A25921A6C65
:102C900026929A6D059C27921A6F203428928822DA
:102CA0009A58A1462992A0229A582A925A692B92A0
:102CB000DA6A2C925A6C2D92DA6D2E925A6F2F92FC
:102CC0008C229A583092A4229B5831935CAB069385
:102CD0003EAB0793329B98464346424641464046A8
:102CE0001B6895690193069B146B096E926C40CB2F
:102CF000876F0291101C0B99039206930BF041FD14
:102D00000C99824602980BF03CFD011C50460BF0DA
:102D100021FD0D998246381C0BF033FD0E99834638
:102D2000301C0BF02EFD011C58460BF013FD011C4E
:102D300050460BF00FFD09998246281C0BF021FD2F
:102D40000A998346201C0BF01CFD011C58460BF011
:102D500001FD0899834601980BF013FD011C5846AC
:102D60000BF0F8FC011C50460BF0F4FC4B4612999A
:102D7000186003980BF005FD1399824602980BF03A
:102D800000FD011C50460BF0E5FC14998246381CEE
:102D90000BF0F7FC15998346301C0BF0F2FC011C7C
:102DA00058460BF0D7FC011C50460BF0D3FC109991
:102DB0008246281C0BF0E5FC11998346201C0BF081
:102DC000E0FC011C58460BF0C5FC0F9983460198A6
:102DD0000BF0D7FC011C58460BF0BCFC011C504604
:102DE0000BF0B8FC4B461999586003980BF0C9FCDE
:102DF0001A99824602980BF0C4FC011C50460BF055
:102E0000A9FC1B998246381C0BF0BBFC1C9983461D
:102E1000301C0BF0B6FC011C58460BF09BFC011C4F
:102E200050460BF097FC17998246281C0BF0A9FC22
:102E300018998346201C0BF0A4FC011C58460BF08B
:102E400089FC1699834601980BF09BFC011C58469F
:102E50000BF080FC011C50460BF07CFC4B4620998B
:102E6000986003980BF08DFC2199824602980BF034
:102E700088FC011C50460BF06DFC22998246381CE0
:102E80000BF07FFC23998346301C0BF07AFC011C6D
:102E900058460BF05FFC011C50460BF05BFC1E9982
:102EA0008246281C0BF06DFC1F998346201C0BF0FA
:102EB00068FC011C58460BF04DFC1D998346019897
:102EC0000BF05FFC011C58460BF044FC011C504603
:102ED0000BF040FC4B462799D86003980BF051FC4F
:102EE0002899824602980BF04CFC011C50460BF0CE
:102EF00031FC29998246381C0BF043FC2A99834601
:102F0000301C0BF03EFC011C58460BF023FC011C4E
:102F100050460BF01FFC25998246281C0BF031FC13
:102F200026998346201C0BF02CFC011C58460BF004
:102F300011FC2499834601980BF023FC011C584690
:102F40000BF008FC011C50460BF004FC4B462E997C
:102F5000186103980BF015FC2F99824602980BF02C
:102F600010FC011C50460BF0F5FB30998246381CD2
:102F70000BF007FC3199071C301C0BF002FC011C04
:102F8000381C0BF0E7FB011C50460BF0E3FB2C99BF
:102F9000061C281C0BF0F5FB2D99051C201C0BF0C2
:102FA000F0FB011C281C0BF0D5FB2B99041C01988D
:102FB0000BF0E7FB011C201C0BF0CCFB011C301CB0
:102FC0000BF0C8FB4B46586104239C461433E04485
:102FD0009C46079BE144434500D07DE6339B059D1D
:102FE000DC68296A20680BF0B5FB049EA96B306091
:102FF00060680BF0AFFB7060A068296D0BF0AAFB56
:10300000B060E068A96E0BF0A5FB8023F06020693A
:10301000E95898460BF09EFB98233061E9586069A7
:103020000BF098FB7061A069696A0BF093FBB061CB
:10303000E069E96B0BF08EFBF061206A696D0BF0C3
:1030400089FB3062E96E606A0BF084FB8427706252
:10305000A06AE9590BF07EFB9C23B062E958E06A54
:103060000BF078FBF062206BA96A0BF073FB306306
:10307000606B296C0BF06EFB7063A06BA96D0BF09D
:1030800069FBB063E06B296F0BF064FBF06388268B
:10309000206CA9590BF05EFB049B1864A023606CA4
:1030A000E9580BF057FB049BE96A5864A06C0BF0DD
:1030B00051FB049B696C9864E06C0BF04BFB049B28
:1030C000E96DD864206D0BF045FB049B696F1865B2
:1030D000606D0BF03FFB8C25049A059B5065A06D3D
:1030E00059590BF037FBA423049A9065059AE06DBB
:1030F000D1580BF02FFB049B059AD865116B206EFD
:103100000BF028FB049B059A1866916C606E0BF01F
:1031100021FB049B059A5866A06E116E0BF01AFBFA
:10312000049B059A9866E06E916F0BF013FB049B6D
:10313000059AD8669023206FD1580BF00BFB049BA7
:10314000059A1867A823606FD1580BF003FB049B06
:10315000059A5867A16F506B0BF0FCFA049B059A17
:103160009867E16FD06C0BF0F5FA4146049B059A25
:10317000D8676158506E0BF0EDFA4146049B059AF2
:103180005850E159D06F0BF0E5FA049BD8519423C5
:10319000059FA159F8580BF0DDFA049B9851AC2318
:1031A0006159F8580BF0D6FA049B585199239B00AB
:1031B0009D44F0BCBB46B246A946A046F0BDC04601
:1031C000F0B5DE4657464E4645460400E0B5436836
:1031D00087B05800A3684008590049080BF0BAFAB4
:1031E0002368590049080BF0B5FA2369051C5800FB
:1031F00063694008590049080BF0ACFAE3685900CC
:1032000049080BF0A7FA011C281C0BF0A3FAE3698C
:10321000051C5800236A4008590049080BF09AFA27
:10322000A369590049080BF095FAA36A061C5800D7
:10323000E36A4008590049080BF08CFA636A5900A8
:1032400049080BF087FA011C301C0BF083FA636B02
:10325000071C5800A36B4008590049080BF07AFA84
:10326000236B590049080BF075FA236C061C5800B3
:10327000636C4008590049080BF06CFAE36B590085
:1032800049080BF067FA011C301C0BF063FA061CAE
:10329000011C381C0BF0ACFA002800D13E1C311C7C
:1032A000281C0BF0A5FA002800D12E1CE36C580056
:1032B000236D4008590049080BF04CFAA36C5900E3
:1032C00049080BF047FAA36D051C5800E36D400850
:1032D000590049080BF03EFA636D590049080BF09C
:1032E00039FA011C281C0BF035FA636E071C5800D4
:1032F000A36E4008590049080BF02CFA236E5900C0
:1033000049080BF027FA236F051C5800636F40082B
:10331000590049080BF01EFAE36E590049080BF0FA
:1033200019FA011C281C0BF015FAE36F80465800AF
:103330008023E1584008490049080BF00BFAA36FBD
:10334000590049080BF006FA8823051CE05804339D
:10335000E15840004900490840080BF0FBF984237C
:10336000E158490049080BF0F5F9011C281C0BF045
:10337000F1F9051C011C40460BF03AFA002800D177
:103380004546291C381C0BF033FA002800D13D1C9F
:10339000291C301C0BF02CFA002800D1351CC0234E
:1033A0002100E55001AABA3B02A8A8310493029477
:1033B000FDF7F4F90121C422019B98260B405B42E2
:1033C0008B430133A354343A9246002250469C2743
:1033D00022509432A1509346923AA2510132E251C6
:1033E0009D32944660469C3A2250A03291469F3AC4
:1033F00090464A4640462300A05048461832A258FC
:10340000903392009A181568255040461060604627
:10341000B8222058A2588046604692009A18156833
:10342000255040461060B422E059A25884469200CC
:103430009A1810685D46E05160461060B022A258AC
:10344000A75992009A181068A0511760AC225846EC
:10345000A258265892009A18106860511660A82247
:10346000A258554692009B1852461868A2586051BF
:103470001A60C523E15407B0F0BCBB46B246A9466A
:10348000A046F0BDC023002210B5C2500022043374
:10349000C2520B68040003604B6843608B68836012
:1034A000CB68C3600B6903614B6943618B698361BE
:1034B000CB69C3610B6A03624B6A43628B6A8362A6
:1034C000CB6AC3620B6B03634B6B43638B6B83638E
:1034D000CB6BC3630B6C03644B6C43648B6C836476
:1034E000CB6CC3640B6D03654B6D43658B6D83655E
:1034F000CB6DC3650B6E03664B6E43668B6E836646
:10350000CB6EC3660B6F03674B6F43678B6F83672D
:10351000CB6FC3678023CA58C2500433CA58C25005
:103520000433CA58C2500433CA58C250FFF748FE89
:10353000200010BDF0B5DE464E4645465746E0B584
:10354000214C9146A5443AAA94460A0031931F4B58
:103550003B9063441B091B013A919846D3AB13CAB5
:1035600013C313CA13C31268D3A91A60184B194A9C
:103570001B6847A80493184B47AC1B680193174B73
:103580001B6805930093049BFEF786FF47ABD3931C
:103590004B46D49347ABD5933AAA832394468620CF
:1035A0001B0163441B68C0004044A2AAD3A9D69360
:1035B0000990FFF72BF96BAB089343460A934B46F0
:1035C0003094A1461C000BE014F7FFFF47030000F6
:1035D000742003200AE81C416C2003207020032083
:1035E0004B464E461B68B76F0793089B494640CB36
:1035F00048464A460893A823896C006E9569126B69
:1036000005910690E158301C04920BF0BAF88C2317
:103610008246E158381C0BF0B4F8011C50460BF000
:1036200099F8216F824606980BF0ABF8616D8346DE
:1036300005980BF0A6F8011C58460BF08BF8011CFE
:1036400050460BF087F8A16B824604980BF099F86E
:10365000E1698346281C0BF094F8011C58460BF0D6
:1036600079F82168834607980BF08BF8011C5846BF
:103670000BF070F8011C50460BF06CF843461860D4
:10368000AC23301CE1580BF07CF890238246E158C3
:10369000381C0BF076F8011C50460BF05BF8616F9C
:1036A000824606980BF06DF8A16D834605980BF0E5
:1036B00068F8011C58460BF04DF8011C50460BF001
:1036C00049F8E16B824604980BF05BF8216A834667
:1036D000281C0BF056F8011C58460BF03BF86168AB
:1036E000834607980BF04DF8011C58460BF032F852
:1036F000011C50460BF02EF843465860B023301C96
:10370000E1580BF03EF894238246E158381C0BF048
:1037100038F8011C50460BF01DF8A16F8246069840
:103720000BF02FF8E16D834605980BF02AF8011C89
:1037300058460BF00FF8011C50460BF00BF8216CAB
:10374000824604980BF01DF8616A8346281C0BF032
:1037500018F8011C58460AF0FDFFA1688346079837
:103760000BF00FF8011C58460AF0F4FF011C5046FC
:103770000AF0F0FF43469860B423301CE1580BF088
:1037800000F898238246E158381C0AF0FAFF011C21
:1037900050460AF0DFFFE16F824606980AF0F1FF1B
:1037A000216E834605980AF0ECFF011C58460AF08A
:1037B000D1FF011C50460AF0CDFF616C824604988F
:1037C0000AF0DFFFA16A8346281C0AF0DAFF011C19
:1037D00058460AF0BFFFE168834607980AF0D1FF18
:1037E000011C58460AF0B6FF011C50460AF0B2FF11
:1037F0004346D860B823301CE1580AF0C2FF9C232E
:103800008246E158381C0AF0BCFF011C50460AF001
:10381000A1FF80238246E15806980AF0B2FF616E4C
:10382000834605980AF0ADFF011C58460AF092FF46
:10383000011C50460AF08EFFA16C824604980AF0E3
:10384000A0FFE16A8346281C0AF09BFF011C584632
:103850000AF080FF2169834607980AF092FF011C55
:1038600058460AF077FF011C50460AF073FF4346A2
:103870001861BC23301CE1580AF083FFA023824664
:10388000E158381C0AF07DFF011C50460AF062FF27
:1038900084238246E15806980AF073FFA16E83469E
:1038A00005980AF06EFF011C58460AF053FF011CF0
:1038B00050460AF04FFFE16C824604980AF061FF1F
:1038C000216B8346281C0AF05CFF011C58460AF055
:1038D00041FF6169834607980AF053FF011C58466F
:1038E0000AF038FF011C50460AF034FF4346E16EEF
:1038F000586105980AF045FF88238246E1580698EA
:103900000AF03FFF011C50460AF024FFA423824620
:10391000E158381C0AF035FFC023071CE158301C61
:103920000AF02FFF011C381C0AF014FF011C50463E
:103930000AF010FF616B061C281C0AF022FF216DA3
:10394000051C04980AF01DFF011C281C0AF002FF48
:10395000A169051C07980AF014FF011C281C0AF035
:10396000F9FE011C301C0AF0F5FE43469861042361
:103970009C461833E1449C464DABE044994500D049
:103980002EE60A9BA146D8249846A427A4004444C6
:10399000BF00474420000999FFF774FD21009022E1
:1039A0003800C8240BF074F8FC21A40044448900BA
:1039B0004144182220000BF06BF8CE2081218000BA
:1039C000C9004144182240440BF062F88422D423F9
:1039D000D200424412689B0043441A60D523874AB0
:1039E0004546424412889B004344FE211A8000232E
:1039F0002268B0359200AA1889051160936113639B
:103A0000936413669367C922920042441268444645
:103A10009200AA181360916113639364136693670D
:103A2000CA2292004244126806269200AA18136025
:103A300093611163936413669367CB2292004244AF
:103A4000126806209200AA181360936113639164B0
:103A500013669367CC229200424412689200AA181F
:103A6000136093611363936411669367CD22920090
:103A7000424412689200AA1813609361136393641E
:103A80001366A8235B009B46916742465946E4189B
:103A900020334344A660E6602661535080229200A2
:103AA00042444B396260924604933A0006230294E2
:103AB000FF3901960095FDF7DFFA42465946049B0F
:103AC000A660E6602661535053464B3963603A0066
:103AD00006230294062001960095FF39FDF7D0FDDC
:103AE00043461B688C2206934346DB69D3AC07939D
:103AF00043469B6B089343465B6D099343461B6F9C
:103B00000A9343469B5804320B9343465B680C93DD
:103B100043461B6A0D934346DB6B0E9343469B6DF6
:103B20000F9343465B6F109343469B5804321193A7
:103B300043469B68129343465B6A139343461B6C50
:103B400014934346DB6D159343469B6F1693434690
:103B50009B58043217934346DB68189343469B6A8D
:103B6000199343465B6C1A9343461B6E1B93434663
:103B7000DB6F1C9343469B58183A1D9343461B69C1
:103B80001E934346DB6A1F9343469B6C2093434638
:103B90005B6E219343469B581C32229343469B58AD
:103BA000183A239343465B69249343461B6B259342
:103BB0004346DB6C269343469B6E279343469B58B4
:103BC0001C32289343469B58183A299343469B69D5
:103BD0002A9343465B6B2B9343461B6D2C934346C2
:103BE000DB6E2D9343469B581C322E9343469B58C5
:103BF000A8462F934B46329302E0C04624040000AF
:103C000043461F685B6842469946434641469B6867
:103C1000D2680E694D6907984946049305920AF0E7
:103C2000B0FD0499824608980AF0ABFD011C50468D
:103C30000AF090FD391C824606980AF0A2FD011C8C
:103C400050460AF087FD311C82460A980AF099FD19
:103C5000291C83460B980AF094FD011C58460AF073
:103C600079FD0599834609980AF08BFD011C584699
:103C70000AF070FD011C50460AF06CFD49462060B8
:103C80000D980AF07EFD049982460E980AF079FD9F
:103C9000011C50460AF05EFD391C82460C980AF061
:103CA00070FD011C50460AF055FD311C82461098EB
:103CB0000AF067FD291C834611980AF062FD011C79
:103CC00058460AF047FD059983460F980AF059FDBA
:103CD000011C58460AF03EFD011C50460AF03AFD10
:103CE0004946606013980AF04CFD04998246149886
:103CF0000AF047FD011C50460AF02CFD391C824693
:103D000012980AF03EFD011C50460AF023FD311CBA
:103D1000824616980AF035FD291C834617980AF04A
:103D200030FD011C58460AF015FD0599834615988B
:103D30000AF027FD011C58460AF00CFD011C5046F4
:103D40000AF008FD4946A06019980AF01AFD049986
:103D500082461A980AF015FD011C50460AF0FAFC3A
:103D6000391C824618980AF00CFD011C50460AF0D6
:103D7000F1FC311C82461C980AF003FD291C834685
:103D80001D980AF0FEFC011C58460AF0E3FC059958
:103D900083461B980AF0F5FC011C58460AF0DAFC31
:103DA000011C50460AF0D6FC4946E0601F980AF014
:103DB000E8FC0499824620980AF0E3FC011C504676
:103DC0000AF0C8FC391C82461E980AF0DAFC011C75
:103DD00050460AF0BFFC311C824622980AF0D1FC02
:103DE000291C834623980AF0CCFC011C58460AF093
:103DF000B1FC0599834621980AF0C3FC011C584682
:103E00000AF0A8FC011C50460AF0A4FC49462061B7
:103E100025980AF0B6FC0499824626980AF0B1FC6F
:103E2000011C50460AF096FC391C824624980AF080
:103E3000A8FC011C50460AF08DFC311C82462898D3
:103E40000AF09FFC291C834629980AF09AFC011C61
:103E500058460AF07FFC0599834627980AF091FCA2
:103E6000011C58460AF076FC011C50460AF072FC10
:103E7000494660612B980AF084FC049981462C988D
:103E80000AF07FFC011C48460AF064FC391C81469C
:103E90002A980AF076FC011C48460AF05BFC311CAB
:103EA000071C2E980AF06DFC291C061C2F980AF09E
:103EB00068FC011C301C0AF04DFC0599051C2D986E
:103EC0000AF05FFC011C281C0AF044FC011C381C91
:103ED0000AF040FC18239C46A061FDAB1C34E04472
:103EE000A34200D08CE6329BD49A9946D39BD599B5
:103EF000D69CD79DD89ED99F06930792DA9BDB9AD2
:103F000008910994DC99DD9C0A950B96DE9DDF9E55
:103F10000C970D93E09FE19B0E92E29A0F91109403
:103F200011951296139714931592E399E49CE59DCD
:103F3000E69EE79FE89BE99A16911794EA99EB9C15
:103F400018951996EC9DED9E1A971B93EE9FEF9B8B
:103F50001C921D91F09AF1991E94F29C2096219743
:103F600022932392249125941F95F39DF49EF59F0F
:103F7000F79AF69BF899F99C26952796FA9DFB9E51
:103F80002897FC9F2A923A9A29932B912C942D954D
:103F90002E962F97D3AB32CA32C332CA32C31168BE
:103FA000D3AC1960FD49FE4B09681B680191FD49BE
:103FB000FD4A09682000009141A9FDF7CDFF319F1E
:103FC000419938680AF0C3FB4299834678680AF041
:103FD000BEFB43998246B8680AF0B9FB4499041CB9
:103FE000F8680AF0B4FB4599051C38690AF0AFFB84
:103FF0004699061C78690AF0AAFB071C011C2A983E
:104000000AF0BFFB311C804623980AF0BAFB011C62
:1040100040460AF09FFB291C80461C980AF0B1FB21
:10402000011C40460AF096FB211C804615980AF0B8
:10403000A8FB514604900E980AF0A3FB011C0498BB
:104040000AF088FB5946049007980AF09AFB011C75
:1040500004980AF07FFB011C40460AF07BFB3A9A69
:1040600051680AF077FB391C04902B980AF089FB01
:10407000311C804624980AF084FB011C40460AF05B
:1040800069FB291C80461D980AF07BFB011C4046F9
:104090000AF060FB211C804616980AF072FB51461C
:1040A00005900F980AF06DFB011C05980AF052FB71
:1040B0005946059008980AF064FB011C05980AF01F
:1040C00049FB011C40460AF045FB3A9A91680AF008
:1040D00041FB391C05902C980AF053FB311C80469B
:1040E00025980AF04EFB011C40460AF033FB291CC0
:1040F00080461E980AF045FB011C40460AF02AFB48
:10410000211C804617980AF03CFB514631901098CC
:104110000AF037FB011C31980AF01CFB594631901C
:1041200009980AF02EFB011C31980AF013FB011CC0
:1041300040460AF00FFB3A9AD1680AF00BFB391C93
:1041400031902D980AF01DFB311C804626980AF00C
:1041500018FB011C40460AF0FDFA291C80461F98F6
:104160000AF00FFB011C40460AF0F4FA211C8046BD
:1041700018980AF006FB5146329011980AF001FB9C
:10418000011C32980AF0E6FA594632900A980AF071
:10419000F8FA011C32980AF0DDFA011C40460AF0D8
:1041A000D9FA3A9A11690AF0D5FA391C32902E9848
:1041B0000AF0E7FA311C804627980AF0E2FA011C5F
:1041C00040460AF0C7FA291C804620980AF0D9FA1E
:1041D000011C40460AF0BEFA211C804619980AF0DC
:1041E000D0FA5146339012980AF0CBFA011C33985A
:1041F0000AF0B0FA594633900B980AF0C2FA011C43
:1042000033980AF0A7FA011C40460AF0A3FA3A9A3A
:1042100051690AF09FFA5146339013980AF0B1FAA7
:10422000211C80461A980AF0ACFA011C40460AF09C
:1042300091FA594680460C980AF0A3FA011C4046B0
:104240000AF088FA311C804628980AF09AFA391C3C
:1042500034902F980AF095FA011C34980AF07AFAF3
:10426000291C349021980AF08CFA011C34980AF029
:1042700071FA011C40460AF06DFA3A9A91690AF007
:1042800069FA391C804629980AF07BFA311C071C10
:1042900022980AF076FA011C381C0AF05BFA291CF5
:1042A000061C1B980AF06DFA011C301C0AF052FA29
:1042B000211C051C14980AF064FA5146041C0D9840
:1042C0000AF05FFA011C201C0AF044FA5946041C4B
:1042D00006980AF056FA011C201C0AF03BFA011C51
:1042E000281C0AF037FA3A9AD3AC11680AF032FA6D
:1042F0003B9B049A18605A60059A9A60319ADA607A
:10430000329A1A61339A5A6142469A614B461B6847
:104310004A46A2934B465B68A3934B469B68A49383
:104320004B46DB68A5934B461B69A6934B465B69DE
:10433000A7934B469B69A8934B46DB69A9934B46D1
:104340001B6AAA934B465B6AAB934B469B6AAC9342
:104350004B46DB6AAD934B461B6BAE934B465B6B98
:10436000AF934B469B6BB0934B46DB6BB1934B4685
:104370001B6CB2934B465B6CB3934B469B6CB493F4
:104380004B46DB6CB5934B461B6DB6934B465B6D52
:10439000B7934B469B6DB8934B4607E06C200320C8
:1043A00074200320702003200AE81C41DB6DB993C0
:1043B0004B461B6EBA934B465B6EBB934B469B6E54
:1043C000BC934B46DB6EBD934B461B6FBE934B4677
:1043D0005B6FBF934B469B6FC0934B46DB6FC193A4
:1043E0008023D358C2938423D358C3938823D358AC
:1043F000C4938C23D358C5939023D358C693942346
:10440000D358C7939823D358C8939C23D358C993A0
:10441000A023D358CA93A423D358CB93A823D3580B
:10442000CC93AC23D358CD93B023D358CE93B4239D
:10443000D358CF93B823D358D093BC23D358D19318
:10444000C023D358D293309B3092984643461F687E
:104450005B6842469946434641469B68D2680E696E
:104460004D690D984946049305920AF08AF904991A
:10447000824614980AF085F9011C50460AF06AF940
:10448000391C824606980AF07CF9011C50460AF055
:1044900061F9311C824622980AF073F9291C83467F
:1044A00029980AF06EF9011C58460AF053F905994B
:1044B00083461B980AF065F9011C58460AF04AF930
:1044C000011C50460AF046F9494620600E980AF051
:1044D00058F90499824615980AF053F9011C504680
:1044E0000AF038F9391C824607980AF04AF9011C8B
:1044F00050460AF02FF9311C824623980AF041F900
:10450000291C83462A980AF03CF9011C58460AF0F7
:1045100021F9059983461C980AF033F9011C584685
:104520000AF018F9011C50460AF014F94946606077
:104530000F980AF026F90499824616980AF021F994
:10454000011C50460AF006F9391C824608980AF008
:1045500018F9011C50460AF0FDF8311C82462498D7
:104560000AF00FF9291C83462B980AF00AF9011C5E
:1045700058460AF0EFF8059983461D980AF001F9AC
:10458000011C58460AF0E6F8011C50460AF0E2F811
:104590004946A06010980AF0F4F8049982461798EA
:1045A0000AF0EFF8011C50460AF0D4F8391C824694
:1045B00009980AF0E6F8011C50460AF0CBF8311CC5
:1045C000824625980AF0DDF8291C83462C980AF0CB
:1045D000D8F8011C58460AF0BDF8059983461E9884
:1045E0000AF0CFF8011C58460AF0B4F8011C5046F6
:1045F0000AF0B0F84946E06011980AF0C2F8049950
:10460000824618980AF0BDF8011C50460AF0A2F83C
:10461000391C82460A980AF0B4F8011C50460AF088
:1046200099F8311C824626980AF0ABF8291C83467B
:104630002D980AF0A6F8011C58460AF08BF8059947
:1046400083461F980AF09DF8011C58460AF082F82C
:10465000011C50460AF07EF84946206112980AF083
:1046600090F80499824619980AF08BF8011C50467C
:104670000AF070F8391C82460B980AF082F8011C87
:1046800050460AF067F8311C824627980AF079F8FC
:10469000291C83462E980AF074F8011C58460AF02B
:1046A00059F80599834620980AF06BF8011C584682
:1046B0000AF050F8011C50460AF04CF84946606177
:1046C00013980AF05EF8049981461A980AF059F88E
:1046D000011C48460AF03EF8391C81460C980AF045
:1046E00050F8011C48460AF035F8311C071C289880
:1046F0000AF047F8291C061C2F980AF042F8011C02
:10470000301C0AF027F80599051C21980AF039F8A1
:10471000011C281C0AF01EF8011C381C0AF01AF8AB
:1047200018239C46FFABA06114331C34E044A34221
:1047300000D08BE6309BA2AD99463C93C4234C46F7
:10474000C8464B44089307944246D26843464146C4
:10475000914642469E694C68096892685F691B6988
:104760000491301CFD99069305920AF00AF8F69917
:104770008246381C0AF005F8011C504609F0EAFF91
:10478000EF998246069809F0FCFFE899834648466F
:1047900009F0F7FF011C584609F0DCFF011C5046E8
:1047A00009F0D8FFE1998246059809F0EAFFDA9905
:1047B0008346201C09F0E5FF011C584609F0CAFF9A
:1047C000D3998346049809F0DCFF011C584609F090
:1047D000C1FF011C504609F0BDFF011C286809F00B
:1047E000B6FF2860FE99301C09F0CBFFF79982468E
:1047F000381C09F0C6FF011C504609F0ABFFF099C8
:104800008246069809F0BDFFE9998346484609F0BB
:10481000B8FF011C584609F09DFF011C504609F0E5
:1048200099FFE2998246059809F0ABFFDB99834630
:10483000201C09F0A6FF011C584609F08BFFD499F3
:104840008346049809F09DFF011C584609F082FF39
:10485000011C504609F07EFF011C686809F077FFD3
:10486000FF996860301C09F08CFFF8998246381C6B
:1048700009F087FF011C504609F06CFFF199824650
:10488000069809F07EFFEA998346484609F079FFC9
:10489000011C584609F05EFF011C504609F05AFF02
:1048A000E3998246059809F06CFFDC998346201C49
:1048B00009F067FF011C584609F04CFFD599834663
:1048C000049809F05EFF011C584609F043FF011CE3
:1048D000504609F03FFF011CA86809F038FFFFAB04
:1048E0005968A860301C043309F04BFFF9998246DF
:1048F000381C09F046FF011C504609F02BFFF299C5
:104900008246069809F03DFFEB998346484609F038
:1049100038FF011C584609F01DFF011C504609F0E4
:1049200019FFE4998246059809F02BFFDD9983462B
:10493000201C09F026FF011C584609F00BFFD699F0
:104940008346049809F01DFF011C584609F002FF38
:10495000011C504609F0FEFE011CE86809F0F7FE54
:10496000FFAB9968E860301C083309F00AFFFA9938
:104970008246381C09F005FF011C504609F0EAFE8A
:10498000F3998246069809F0FCFEEC998346484666
:1049900009F0F7FE011C584609F0DCFE011C5046E8
:1049A00009F0D8FEE5998246059809F0EAFEDE99FD
:1049B0008346201C09F0E5FE011C584609F0CAFE9A
:1049C000D7998346049809F0DCFE011C584609F08B
:1049D000C1FE011C504609F0BDFE011C286909F00A
:1049E000B6FEFFABD9682861301C0C3309F0C9FE54
:1049F000FB998246381C09F0C4FE011C504609F0A0
:104A0000A9FEF4998246069809F0BBFEED9983460B
:104A1000484609F0B6FE011C584609F09BFE011CF1
:104A2000504609F097FEE6998246059809F0A9FEDE
:104A3000DF998346201C09F0A4FE011C584609F0AA
:104A400089FED8998346049809F09BFE011C5846BC
:104A500009F080FE011C504609F07CFE011C6869CB
:104A600009F075FEEE996861484609F08AFEF599ED
:104A70008146069809F085FE011C484609F06AFE49
:104A8000FC998146381C09F07CFEFFAB1969071CB4
:104A9000301C103309F075FE011C381C09F05AFE59
:104AA000011C484609F056FEE099061C201C09F03E
:104AB00068FEE799041C059809F063FE011C201CA0
:104AC00009F048FED999041C049809F05AFE011C0B
:104AD000201C09F03FFE011C301C09F03BFE011CAC
:104AE000A86909F034FE1C239C46089BE044A86199
:104AF0001C35984500D027E6079BA29A99461A6074
:104B0000A39A5A60A49A9A60A59ADA60A69A1A6142
:104B1000A79A5A61A89A9A61A99ADA61AA9A1A621E
:104B2000AB9A5A62AC9A9A62AD9ADA62AE9A1A63FA
:104B3000AF9A5A63B09A9A63B19ADA63B29A1A64D6
:104B4000B39A5A64B49A9A64B59ADA64B69A1A65B2
:104B5000B79A5A65B89A9A65B99ADA65BA9A1A668E
:104B6000BB9A5A66BC9A9A66BD9ADA66BE9A1A676A
:104B7000BF9A5A67C09A9A67C19ADA674A468023F1
:104B8000C299D150C3990433D150C4990433D15040
:104B9000C5990433D150C6990433D150C799043311
:104BA000D150C8990433D150C9990433D150CA990E
:104BB0000433D150CB990433D150CC990433D15024
:104BC000CD990433D150CE990433D150CF990433C9
:104BD000D150D0990433D150D1990433D150D299C6
:104BE0000433D1503AAA9446504BA2AA63441B689E
:104BF00013CB13C24E4BD3AC63441B6807CB07C423
:104C00003A9B3B9D00934B4B28006344A2A91B6831
:104C1000D3AAFDF77FF82B00D3AA23CB23C213CB53
:104C200013C23AA91B688C4613603EAA11003F4B81
:104C300063441B6831CB31C13D4BA2A963441B685F
:104C400031CB31C13B4BD3A963441B6871A800939E
:104C5000A2ABFDF7C5FAD3AB1C000793719BA0462E
:104C60000993789B10937F9B1793869B1E938D9B34
:104C70002593949B2C939B9B3393729B0A93799BD4
:104C80001193809B1893879B1F938E9B2693959BD4
:104C90002D939C9B3493739B0B937A9B1293819BD4
:104CA0001993889B20938F9B2793969B2E939D9B74
:104CB0003593749B0C937B9B1393829B1A93899BD4
:104CC0002193909B2893979B2F939E9B3693759B44
:104CD0000D937C9B1493839B1B938A9B2293919BA4
:104CE0002993989B30939F9B3793769B0E937D9B44
:104CF0001593849B1C938B9B2393929B2A93999B44
:104D00003193A09B3893779B0F937E9B1693859B43
:104D10001D938C9B2493939B2B939A9B3293A19BE3
:104D200039934B463D933C9B994605E0280800008B
:104D3000380800003C080000484649464A464B46B1
:104D4000866909691B6855689468D2684769069145
:104D50003398311C0592049309F013FD391C8246E7
:104D60002C9809F00EFD011C504609F0F3FC069941
:104D70008246259809F005FD059983461E9809F09D
:104D800000FD011C584609F0E5FC011C504609F0E5
:104D9000E1FC211C8246179809F0F3FC291C83468C
:104DA000109809F0EEFC011C584609F0D3FC049958
:104DB0008346099809F0E5FC011C584609F0CAFC35
:104DC000011C504609F0C6FC4346311C186034985B
:104DD00009F0D7FC391C82462D9809F0D2FC011C41
:104DE000504609F0B7FC06998246269809F0C9FC9E
:104DF000059983461F9809F0C4FC011C584609F028
:104E0000A9FC011C504609F0A5FC211C82461898FB
:104E100009F0B7FC291C8346119809F0B2FC011C6B
:104E2000584609F097FC049983460A9809F0A9FCB2
:104E3000011C584609F08EFC011C504609F08AFC02
:104E40004346311C5860359809F09BFC391C82465A
:104E50002E9809F096FC011C504609F07BFC06993F
:104E60008246279809F08DFC05998346209809F021
:104E700088FC011C584609F06DFC011C504609F0E5
:104E800069FC211C8246199809F07BFC291C834689
:104E9000129809F076FC011C584609F05BFC049955
:104EA00083460B9809F06DFC011C584609F052FC32
:104EB000011C504609F04EFC4346311C9860369860
:104EC00009F05FFC391C82462F9809F05AFC011C3E
:104ED000504609F03FFC06998246289809F051FC9B
:104EE00005998346219809F04CFC011C584609F0AD
:104EF00031FC011C504609F02DFC211C82461A98F9
:104F000009F03FFC291C8346139809F03AFC011C68
:104F1000584609F01FFC049983460C9809F031FCAF
:104F2000011C584609F016FC011C504609F012FC01
:104F30004346311CD860379809F023FC391C82465F
:104F4000309809F01EFC011C504609F003FC06993C
:104F50008246299809F015FC05998346229809F0A4
:104F600010FC011C584609F0F5FB011C504609F0E5
:104F7000F1FB211C82461B9809F003FC291C834687
:104F8000149809F0FEFB011C584609F0E3FB049954
:104F900083460D9809F0F5FB011C584609F0DAFB31
:104FA000011C504609F0D6FB4346311C1861389865
:104FB00009F0E7FB391C8246319809F0E2FB011C3D
:104FC000504609F0C7FB069982462A9809F0D9FB9A
:104FD00005998346239809F0D4FB011C584609F033
:104FE000B9FB011C504609F0B5FB211C82461C98F8
:104FF00009F0C7FB291C8346159809F0C2FB011C68
:10500000584609F0A7FB049983460E9809F0B9FBAE
:10501000011C584609F09EFB011C504609F09AFB02
:10502000434605995861249809F0ABFB06998246DE
:105030002B9809F0A6FB011C504609F08BFB391C8C
:105040008246329809F09DFB311C071C399809F003
:1050500098FB011C381C09F07DFB011C504609F02F
:1050600079FB291C061C169809F08BFB211C051CDA
:105070001D9809F086FB011C281C09F06BFB0499A4
:10508000041C0F9809F07DFB011C201C09F062FB39
:10509000011C301C09F05EFB434698611C239C46B2
:1050A000089BE144E044994500D045E6A2ACA04607
:1050B000F6AB0693DAAB3C940893079B33981A68D7
:1050C000596D0492069A8946D669196FDD69059172
:1050D000311C9C6B176809F054FB391C82462C98D4
:1050E00009F04FFB011C504609F034FB059982463C
:1050F000259809F046FB494683461E9809F041FB76
:10510000011C584609F026FB011C504609F022FB01
:10511000211C8246179809F034FB291C83461098FD
:1051200009F02FFB011C584609F014FB0499834633
:10513000099809F026FB011C584609F00BFB011CDD
:10514000504609F007FB41460860311C349809F0CD
:1051500018FB391C82462D9809F013FB011C5046A0
:1051600009F0F8FA05998246269809F00AFB4946A3
:1051700083461F9809F005FB011C584609F0EAFA1E
:10518000011C504609F0E6FA211C8246189809F0E5
:10519000F8FA291C8346119809F0F3FA011C5846C5
:1051A00009F0D8FA049983460A9809F0EAFA011C32
:1051B000584609F0CFFA011C504609F0CBFA414697
:1051C0004860311C359809F0DCFA391C82462E986B
:1051D00009F0D7FA011C504609F0BCFA059982463D
:1051E000279809F0CEFA49468346209809F0C9FA73
:1051F000011C584609F0AEFA011C504609F0AAFA03
:10520000211C8246199809F0BCFA291C8346129881
:1052100009F0B7FA011C584609F09CFA0499834634
:105220000B9809F0AEFA011C584609F093FA011CDC
:10523000504609F08FFA41468860311C369809F0D3
:10524000A0FA391C82462F9809F09BFA011C50469F
:1052500009F080FA05998246289809F092FA4946A1
:105260008346219809F08DFA011C584609F072FA1C
:10527000011C504609F06EFA211C82461A9809F06A
:1052800080FA291C8346139809F07BFA011C5846C2
:1052900009F060FA049983460C9809F072FA011C2F
:1052A000584609F057FA011C504609F053FA414696
:1052B000C860311C379809F064FA391C824630986E
:1052C00009F05FFA011C504609F044FA059982463C
:1052D000299809F056FA49468346229809F051FA6E
:1052E000011C584609F036FA011C504609F032FA02
:1052F000211C82461B9809F044FA291C8346149805
:1053000009F03FFA011C584609F024FA0499834633
:105310000D9809F036FA011C584609F01BFA011CD9
:10532000504609F017FA41460861311C389809F0D7
:1053300028FA391C8246319809F023FA011C50469C
:1053400009F008FA059982462A9809F01AFA49469E
:105350008346239809F015FA011C584609F0FAF91A
:10536000011C504609F0F6F9211C82461C9809F0F0
:1053700008FA291C8346159809F003FA011C5846BF
:1053800009F0E8F9049983460E9809F0FAF9011C2E
:10539000584609F0DFF9011C504609F0DBF9434695
:1053A00049465861249809F0ECF9059981462B98F3
:1053B00009F0E7F9011C484609F0CCF9391C81468F
:1053C000329809F0DEF9311C071C399809F0D9F937
:1053D000011C381C09F0BEF9011C484609F0BAF955
:1053E000291C061C169809F0CCF9211C051C1D98D7
:1053F00009F0C7F9011C281C09F0ACF90499041C38
:105400000F9809F0BEF9011C201C09F0A3F9011C3A
:10541000301C09F09FF9414688611C218C46069A90
:10542000079B04320692089A04330793E0449A4299
:1054300000D042E63AAA94463D9B764A9946754B7F
:10544000624463441B6812681B68D3AC0793714BBA
:1054500063441B68DB6908936E4B63441B689B6B5A
:1054600009936C4B63441B685B6D0A93694B6344FF
:105470001B681B6F0B938C23D358664A0C93654BA8
:10548000624463441B685B680D93624B63441B6812
:105490001B6A0E935F4B63441B68DB6B0F935D4B82
:1054A00063441B689B6D10935A4B63441B685B6F8E
:1054B000126811939023D358564A1293554B624465
:1054C00063441B6812689B681393524B63441B68C8
:1054D0005B6A14934F4B63441B681B6C15934D4BD5
:1054E00063441B68DB6D16934A4B63441B689B6FD8
:1054F00017939423D358474A1893464B6244634406
:105500001B68DB681993434B63441B689B6A1A93BF
:10551000404B63441B685B6C1B933E4B63441B68AE
:1055200012681B6E1C933B4B63441B68DB6F1D931F
:105530009823D358374A1E93364B624463441B6802
:1055400012681B691F93334B63441B68DB6A20930B
:10555000304B63441B689B6C21932E4B63441B6848
:105560005B6E22938023D3582A4A23939C23624460
:105570001268D358274A2493264B624463441B681D
:105580005B692593234B63441B681B6B2693214B5C
:10559000126863441B68DB6C27931E4B63441B68D3
:1055A0009B6E28938423D3581A4A2993A0236244DC
:1055B0001268D358174A2A93164B624463441B68F7
:1055C00012689B692B93134B63441B685B6B2C9392
:1055D000104B63441B681B6D2D930E4B63441B687B
:1055E000DB6E2E938823D3580A4A2F93A423624458
:1055F0001268D35822003093074B63441B689846C7
:10560000D3AB06939023434431934B464446904694
:10561000329303E0340800002C0800006368E2685D
:105620009946A368089948460493059209F0A9F899
:1056300009998246049809F0A4F8011C504609F023
:1056400089F8276882460799381C09F09AF8011CE6
:10565000504609F07FF8266982460B99301C09F004
:1056600090F8656983460C99281C09F08AF8011C9A
:10567000584609F06FF80A998346059809F081F8B1
:10568000011C584609F066F8011C504609F062F802
:10569000414608600E99484609F073F80F99824612
:1056A000049809F06EF8011C504609F053F80D9962
:1056B0008246381C09F065F8011C504609F04AF88A
:1056C00011998246301C09F05CF812998346281C17
:1056D00009F057F8011C584609F03CF81099834628
:1056E000059809F04EF8011C584609F033F8011CE2
:1056F000504609F02FF8414648601499484609F091
:1057000040F815998246049809F03BF8011C504670
:1057100009F020F813998246381C09F032F8011C70
:10572000504609F017F817998246301C09F029F8FD
:1057300018998346281C09F024F8011C584609F0E2
:1057400009F816998346059809F01BF8011C58467C
:1057500009F000F8011C504608F0FCFF4146886043
:105760001A99484609F00DF81B998246049809F0E9
:1057700008F8011C504608F0EDFF19998246381CC4
:1057800008F0FFFF011C504608F0E4FF1D99824617
:10579000301C08F0F6FF1E998346281C08F0F1FF24
:1057A000011C584608F0D6FF1C998346059808F05E
:1057B000E8FF011C584608F0CDFF011C504608F0D8
:1057C000C9FF4146C8602099484608F0DAFF219990
:1057D0008246049808F0D5FF011C504608F0BAFF35
:1057E0001F998246381C08F0CCFF011C504608F077
:1057F000B1FF23998246301C08F0C3FF24998346E9
:10580000281C08F0BEFF011C584608F0A3FF22998F
:105810008346059808F0B5FF011C584608F09AFF2A
:10582000011C504608F096FF4146086126994846FB
:1058300008F0A7FF27998246049808F0A2FF011CF0
:10584000504608F087FF25998246381C08F099FFDA
:10585000011C504608F07EFF29998246301C08F052
:1058600090FF2A998346281C08F08BFF011C58469C
:1058700008F070FF28998346059808F082FF011C04
:10588000584608F067FF011C504608F063FF434686
:105890002C995861484608F074FF2D998146049868
:1058A00008F06FFF011C484608F054FF2B99814611
:1058B000381C08F066FF011C484608F04BFF2F9982
:1058C000071C301C08F05DFF3099061C281C08F0EE
:1058D00058FF011C301C08F03DFF2E99051C05984F
:1058E00008F04FFF011C281C08F034FF011C381C75
:1058F00008F030FF434698611C239C46319B1834C6
:10590000E044A34200D089E6F6AB05933C9CDAABB9
:105910003193069B0899DA691F6891469A6B48464D
:1059200090465A6D1E6F0492059A20CA059208F09F
:1059300028FF09998246404608F023FF011C504683
:1059400008F008FF07998246381C08F01AFF011C6E
:10595000504608F0FFFE0B998246301C08F011FFFC
:105960000C998346281C08F00CFF011C584608F0CF
:10597000F1FE0A998346049808F003FF011C58467B
:1059800008F0E8FE011C504608F0E4FE011C206807
:1059900008F0E0FE0E992060484608F0F2FE0F99EC
:1059A0008246404608F0EDFE011C504608F0D2FE4B
:1059B0000D998246381C08F0E4FE011C504608F0A0
:1059C000C9FE11998246301C08F0DBFE129983460D
:1059D000281C08F0D6FE011C584608F0BBFE1099A2
:1059E0008346049808F0CDFE011C584608F0B2FE2C
:1059F000011C504608F0AEFE011C606808F0AAFECB
:105A000018996060281C08F0BCFE17998246301C6B
:105A100008F0B7FE011C504608F09CFE169982461D
:105A2000049808F0AEFE011C504608F093FE14994D
:105A30008246484608F0A5FE15998346404608F080
:105A4000A0FE011C584608F085FE13998346381CB9
:105A500008F097FE011C584608F07CFE011C5046D9
:105A600008F078FE011CA06808F074FE1E99A06082
:105A7000281C08F086FE1D998246301C08F081FE25
:105A8000011C504608F066FE1C998246049808F0F6
:105A900078FE011C504608F05DFE1B998246404688
:105AA00008F06FFE1A998346484608F06AFE011C0A
:105AB000584608F04FFE19998346381C08F061FEDD
:105AC000011C584608F046FE011C504608F042FEF4
:105AD000011CE06808F03EFE2099E060484608F0AE
