:020000041000EA
:1000000000B5324B212058609868022188439860DF
:10001000D860186158612E4B002199600221596106
:100020000121F02299502B49196001219960352056
:1000300000F044F80222904214D00621196600F024
:1000400034F8196E01211966002018661A6600F04E
:100050002CF8196E196E196E052000F02FF8012189
:100060000842F9D1002199601B49196000215960AB
:100070001A491B48016001219960EB211966A021F2
:10008000196600F012F800219960164914480160C1
:100090000121996001BC002800D000471248134993
:1000A000086003C880F30888084703B5996A0420EC
:1000B0000142FBD001200142F8D103BD02B5186610
:1000C0001866FFF7F2FF186E186E02BD00000240BE
:1000D000000000180000070000035F00212200005C
:1000E000F4000018222000A00001001008ED00E03C
:1000F00000000000000000000000000074B24E7A12
:1001000000200420F7010010C3010010C5010010F9
:10011000C1010010C1010010C1010010C101001097
:10012000C1010010C1010010C1010010C701001081
:10013000C1010010C1010010C9010010CB01001065
:10014000CD010010CD010010CD010010CD01001037
:10015000CD010010CD010010CD010010CD01001027
:10016000CD010010CD010010CD010010CD01001017
:10017000CD010010CD010010CD010010CD01001007
:10018000CD010010CD010010CD010010CD010010F7
:10019000CD010010CD010010CD010010CD010010E7
:1001A000CD010010CD010010CD010010CD010010D7
:1001B000CD010010CD010010CD010010CD010010C7
:1001C00000BE00BE00BE00BE00BE00BEEFF3058054
:1001D000103800BEF2EB88714C6C05106C6C051089
:1001E0003402001090A31AE700201F49086006C8D7
:1001F00081F3088810471D48006800282FD10DA4FE
:100200000ECC002902D000F012F8F9E71849194A7B
:10021000002000E001C19142FCD1174988471749ED
:1002200088471749884700BEFDE701C901C29A42C5
:10023000FBD370476C6C0510C0000020202D0020FF
:10024000CC9805100000042000000420CC98051074
:10025000001004200010042000000000704709482E
:100260000FF0FEFC0047000008ED00E0000000D0A9
:10027000202D00200C5D032055E4001055030010D4
:1002800089E500105756000006005250ABB360538A
:1002900020C8041006005250861C030230C8041007
:1002A000060052505422A29D3CC804100500525032
:1002B000DE65F468CC980510F8B5C0460448054BD7
:1002C00010B5834203D0044B002B00D0984710BDDB
:1002D000202D0020202D00200000000006480749A6
:1002E000091A8B10C90FC91810B5491003D0044B57
:1002F000002B00D0984710BD202D0020202D00207D
:100300000000000010B5074C2378002B09D1FFF73F
:10031000D5FF054B002B02D0044800E000BF0123AD
:10032000237010BD2832002000000000A8C2041075
:10033000054B10B5002B03D00449054800E000BF71
:10034000FFF7CCFF10BDC046000000002C3200209B
:10035000A8C2041070B519200CF0B0F8D023802288
:100360001B0692045A6211F0F3FC00F04BF807F000
:1003700095FE09F0B5FC08F05FF902F0E1FB00F032
:100380003DF90BF083F800220524144B1A7007F096
:1003900083FA134D013C2100280011F0CDFCFA2016
:1003A00080000CF09BFE002CF4D10A2011F024FBFD
:1003B000012200210B480CF059FB0B4813F078FE8A
:1003C00001220A4B0A4C1A702378012BFCD109F048
:1003D00043FE2378012BFAD0F6E7C046EE5C0320FB
:1003E000A8C20410F45B03209DA20010ED5C032062
:1003F000F25C032010B5024814F082F910BDC0462B
:10040000543B0320092370B586B00593043304934D
:10041000023B0393013B0293023B324D324C01936A
:10042000324B22003249334800932B0006F0F2FE93
:10043000142006F0EBFEFA2080000CF04FFE2E4E4A
:1004400021003200280007F0FDF83378682B08D02F
:100450002A4C200011F01CFBFA2080000CF03EFE1C
:10046000F7E773783D2BF3D101222100280007F034
:100470000DF9234E32002100280007F041F93378AE
:10048000002BF7D101222100280006F0BDFF012139
:10049000200006F09BFF0321200006F02DFF032122
:1004A000280007F057F81321200007F097F91221D0
:1004B000200007F0D1F90021200007F0AFF9032157
:1004C000200007F039F90221200007F051F95521E9
:1004D000200006F02FFF1821280006F0D5FF06B0F7
:1004E00070BDC0460C220320AC33002040420F00F8
:1004F0009C20002094200020A45C0320BCC2041097
:10050000075D0320F0B5C646334C344D344E22000F
:100510002900300000B507F0A7F86378DB439B079C
:1005200020D023781B0702D480BCB846F0BD2D4CE8
:1005300006220021200011F02DF92100300007F0E3
:1005400063F80023E05E06F0CDFE274D286002230D
:10055000E05E06F0C7FE68600423E05E06F0C2FEBF
:10056000A860E1E7214B062298461800002111F00F
:1005700011F91F4F06220021380011F00BF94146F6
:10058000280007F023F83900280007F001F8434657
:100590000020185E06F092FE4346164D28600220A9
:1005A000185E06F08BFE434668600420185E06F075
:1005B00085FEA8600023F85E06F08AFE0E4D2860D6
:1005C0000223F85E06F084FE68600423F85E06F0FD
:1005D0007FFEA860A5E7C046E8510320AC330020A9
:1005E0000C22032064410320C4460320544103200D
:1005F0005C410320D03F0320F03F0320F0B5C64606
:1006000000B511F0A5FB244924480DF05BFE032141
:100610001A200BF023FF03211B200BF01FFF0022E9
:1006200001211A200BF032FF002201211B200BF0C8
:100630002DFF1B480CF052FD1A4C1B4E23781B4D0E
:10064000DB070ED41A4B01279846210030880BF0A7
:100650000DFC4346287018680CF040FD23781F42BB
:10066000F3D030880BF0E0F90221287030880BF0CD
:1006700031FB1421287030880BF064FA14212870A3
:1006800030880BF0CDFB287030880BF031FA2870E1
:1006900080BCB846F0BDC046801A0600B4210020D8
:1006A000B80B0000085D0320A4200020F55C0320A7
:1006B000A8200020F0B55746DE464E464546E0B538
:1006C0008BB008919246190005900993DA1703231D
:1006D0008C46134063449B109B009846002B00DC23
:1006E00090E05246159B00249B000193149B9B1A9B
:1006F000159A9B1A089A9B00029353681268190175
:1007000094460491069251469A00039252468D00F7
:100710000021013A92000792002289465900DE002A
:10072000CB189B009B461300424665440092019AF9
:1007300094469C44039B1A199F195346002B1EDDB7
:10074000069B059819196346804600989B00434410
:1007500080460094086818600098081A845804318C
:100760005C6084599C60C059D86010338D42F1D1CF
:1007700043460799009363468C4604339C44042106
:10078000029B5A4463448C461400049A3E00E144A0
:100790009446009A5E4465444A45C8DC1A00009BB2
:1007A0009846099B434526DD1499159C089B0D1B13
:1007B000514609CB6D1A00291DDD41469E004B4371
:1007C0009B00C01853469C00059B47469C46099BCE
:1007D000AB469846159B994600234A4491006144D4
:1007E000C558CD5004339C42FAD1524401375A4483
:1007F0008019B845F0D10BB0F0BCBB46B246A94653
:10080000A046F0BD0022CCE7F0B54746CE4680B505
:100810001F00002B1DDD002A1BDD9300C0180B6894
:10082000002498464B689100D200494252428C46BF
:1008300091469B00614645182900A2004244166873
:10084000D21840C18142FAD14A460134A81AA742BF
:10085000F0D1C0BCB946B046F0BDC046F0B5DE46EA
:1008600057464E4645460023E0B51360836887B07F
:100870009A46059200230268052693460093013BA1
:10088000039002910493052355469B1B98465D43B4
:100890005B46002B00D18DE14544AD005D442B68E3
:1008A0005C006B6864085F007F08391C381C10F01E
:1008B00032FD002800D0DFE0211C381C10F026FD9E
:1008C000002800D0DFE00027731C9A46022B53D982
:1008D000AB685B005B08191C181C994610F01BFDE7
:1008E000002800D046E14846211C10F00FFD0028EA
:1008F00001D04C4602275346032B3DD0EB685B00EA
:100900005B08191C181C994610F005FD002800D042
:1009100038E14846211C10F0F9FC002801D04C4673
:1009200003275346042B27D02B695B005B08191C57
:10093000181C994610F0EFFC002800D02AE1494627
:10094000201C10F0D5FC002801D04C46042753464B
:10095000052B11D06D696D006D08291C281C10F045
:10096000DAFC002800D01DE1291C201C10F0C0FC7E
:10097000002801D005272C1C029B009A4744002127
:100980009F50201C10F0ACFC002800D17EE0049B9E
:10099000013300D1E3E006239B1B45460193039BF3
:1009A0009B689A465D4306239F1B53469B009946CE
:1009B000019B52461C005443009A7F199446A5009F
:1009C00065449C460023BF005F44B8461F00644452
:1009D000A4005D445C4443462868196810F051FC4B
:1009E000011C206810F033FC2060012E2DD94346F5
:1009F0002868596810F045FC011C606810F027FC5D
:100A00006060022E21D043462968986810F039FCB6
:100A1000011CA06810F01BFCA060032E15D04346FB
:100A20002968D86810F02DFC011CE06810F00FFC5C
:100A3000E060052E09D143462968186910F021FCB1
:100A4000011C206910F003FC206101374D444C4427
:100A5000BE42C0D1009B013E04330093019B052B95
:100A600000D010E71A00029B5A6107B0F0BCBB46E9
:100A7000B246A946A046F0BD211C201C10F04BFC3C
:100A8000002800D018E73C1C01271DE7474530D05F
:100A900059465C460098BB005B4409581D68039AA0
:100AA00092682550196001009200594489189B18DA
:100AB00008681C680C60186089189B1808681C6816
:100AC0000C60186089189B1808681C680C60186016
:100AD00089189B1808681C680C60186089189B1896
:100AE00018680A6808601A60059A13680193013350
:100AF00013604546039B5A469B685D439A4606230E
:100B00009B1B0193EC1843465B199B009F58A40064
:100B10005C442068391C10F0A0FB2060012E00D836
:100B200041E76068391C10F098FB6060022E00D12C
:100B300039E7A068391C10F090FBA060032E00D1AB
:100B400031E7E068391C10F088FBE060042E00D12A
:100B500029E72069391C10F080FB206123E7062378
:100B600045469B1B0193039B9B689A465D43434606
:100B7000049318E7211C201C10F0CDFB002800D1A5
:100B8000B7E6B0E6211C201C10F0C5FB002800D100
:100B9000C5E6BEE6211C201C10F0BDFB002800D1DC
:100BA000D3E6CCE6211C201C10F0B5FB002800D1B8
:100BB000E0E6D9E61B68FFDEF0B55746DE464E4656
:100BC0004546E0B599B01493249B8246259C26980F
:100BD0005D1C00D1229B651C00D1229C239DEE1739
:100BE00003253540239EB4466544AD10AF0007256C
:100BF000229E0E97AE4335000096149E002E00DC18
:100C000088E29B001693230110930301D3181793D6
:100C10006B1EDB0801330391D9015B010F93A30025
:100C20007C43201880001193131815930023D3469A
:100C3000139108930E9B002B00DCC2E10F9A039BDB
:100C4000944663441293179BD84601930023029362
:100C50000298434601000CCB089C5943A4466144CA
:100C6000890051180991411C594361448900511868
:100C70000A91811C59436144890051180B91C11C90
:100C80004B4363449B00D318019E0C93009B34009C
:100C9000002B00DC45E2039B0025994600234C46CF
:100CA000AA46AB46A946069504952F1C05950795BF
:100CB0000D9325683168281C10F0E3FA594610F0AE
:100CC000C9FA71688346281C10F0DBFA514610F00F
:100CD000C1FAB1688246281C10F0D3FA079910F0C7
:100CE000B9FAF1680790281C10F0CBFA059910F0BA
:100CF000B1FA059065683169281C10F0C2FA391CF8
:100D000010F0A8FA7169071C281C10F0BAFA0499AF
:100D100010F0A0FAB1690490281C10F0B2FA0699FC
:100D200010F098FAF1690690281C10F0AAFA4946CA
:100D300010F090FA8146A568316A281C10F0A1FADB
:100D4000594610F087FA716A8346281C10F099FA08
:100D5000514610F07FFAB16A8246281C10F091FAD1
:100D6000079910F077FAF16A0790281C10F089FAB9
:100D7000059910F06FFA0590E568316B281C10F0AA
:100D800080FA391C10F066FA716B071C281C10F0F1
:100D900078FA049910F05EFAB16B0490281C10F0F8
:100DA00070FA069910F056FAF16B0690281C10F0B4
:100DB00068FA494610F04EFA81462569316C281CC4
:100DC00010F05FFA594610F045FA716C8346281C02
:100DD00010F057FA514610F03DFAB16C8246281CCB
:100DE00010F04FFA079910F035FAF16C0790281CB3
:100DF00010F047FA059910F02DFA05906569316DEC
:100E0000281C10F03EFA391C10F024FA716D071CF2
:100E1000281C10F036FA049910F01CFAB16D0490F9
:100E2000281C10F02EFA069910F014FAF16D0690B5
:100E3000281C10F026FA494610F00CFA8146A569E4
:100E4000316E281C10F01DFA594610F003FA716E2D
:100E50008346281C10F015FA514610F0FBF9B16ECC
:100E60008246281C10F00DFA079910F0F3F9F16E84
:100E70000790281C10F005FA059910F0EBF9059081
:100E8000E569316F281C10F0FCF9391C10F0E2F90B
:100E9000716F071C281C10F0F4F9049910F0DAF9AE
:100EA000B16F0490281C10F0ECF9069910F0D2F9FB
:100EB000F16F0690281C10F0E4F9494610F0CAF9C9
:100EC0008146803620340D9B009A08330D939A4258
:100ED00000DDEEE6139B019C9C46051C5946381C20
:100EE000644410F0B7F95146071C049810F0B2F9A9
:100EF0000799061C069810F0ADF905998146281C43
:100F000010F0A8F9129B051C9A46229A009B9A425F
:100F100030DDAB460493534620CB2168281C9A460B
:100F200010F0AFF9011C381C10F094F96168071C2F
:100F3000281C10F0A6F9011C301C10F08BF9A168D8
:100F4000061C281C10F09DF9011C484610F082F97F
:100F5000E1688146281C10F094F9011C584610F0F5
:100F600079F98346049B229A0133103404939A4200
:100F7000D1D1051C311C0A9E306810F068F9391C6B
:100F8000099F041C386810F062F9291C0C9D386018
:100F90003460286810F05BF90B9E4946041C3068E9
:100FA00010F055F91099019A8C46029B6244019207
:100FB0000E9A0433306002932C609A4200DD47E6BB
:100FC000C3460F9A039B944663440E9A0293239B55
:100FD0009246159D934200DC90E05B465C68534668
:100FE0005C43089B2F009C465B461B6864449C4600
:100FF000009BA4006444002B00DC99E00023039FC5
:1010000099463B00A04600262F001C003968206846
:1010100010F037F9311C10F01DF9061C7968606872
:1010200010F02FF9311C10F015F9061CB968A068F2
:1010300010F027F9311C10F00DF9061CF968E06872
:1010400010F01FF9311C10F005F9061C39692069F0
:1010500010F017F9311C10F0FDF8061C7969606971
:1010600010F00FF9311C10F0F5F8061CB969A069F1
:1010700010F007F9311C10F0EDF8061CF969E06971
:1010800010F0FFF8311C10F0E5F8061C2037203472
:1010900008239C46009BE1444B45B7DC44460F9B2C
:1010A000EF18029B0193229A009B9A4217DD994602
:1010B0000023984643464246F958019B985810F041
:1010C000E0F8011C301C10F0C5F8061C01239C46FA
:1010D0000333E1449C46229BE0444B45EAD120681F
:1010E000311C10F0B4F801239C46119BE2449C464D
:1010F000239B20606544534500D06EE71699039A00
:101100008C46089B62440392149A013308939A42D6
:1011100000D08FE519B0F0BCBB46B246A946A04648
:10112000F0BD0025039BA9469A462E1C2F1CECE619
:10113000039B00260193B6E7F0B557464E46DE46C0
:1011400045468024E0B5B5B006AF3C192060942038
:101150007B63E823AE4E38180160BA63FB181C6845
:101160003378BFF35B8FDB0700D477E2A94D902281
:101170002369BA1813608422A368BA181360802206
:10118000BA1812686D68934202DD8423FB181A6056
:1011900094218423902279180E688C21FB18BA18A8
:1011A00012681B6856435343226879180A60002A64
:1011B00000D180E29B003B660023BB6763687B67CE
:1011C000002B00D163E2B300FB6500233B6798224C
:1011D0000423BA1813609033FB181B68002B19DD29
:1011E0008023E422FB18BA181B6812681900934286
:1011F00000DA4AE2280009010EF08CFD0323C21731
:10120000134098221B189B109B00BA181360042BE4
:1012100000DA35E28023FB181968002900DCA9E117
:1012200090207B6B38181A0000687964844642432A
:10123000091A3A616244B9647A609821E422791803
:10124000BA18126809684A43BA619A007A6104328E
:10125000FA61A02201339B00BA181360E423FB1843
:101260001B689B009B460023FB63FB643B64BB66DF
:101270009C227B6CBA1813609022BA1812689342B1
:1012800002DD9C23FB181A609423FB181B68002BBB
:1012900000DC47E19C23FB181A68002A00DC41E1CE
:1012A0009423E021FB181B687918BB659823096813
:1012B000FB188C461B68B86E53439B00BB607B6F6A
:1012C0001100FB6783006344FB6000238C46FB66D0
:1012D000FB620B00B021791839630321013B043A0A
:1012E0008B436044D31A38603B629822BA18BB6DB6
:1012F00012689A46934200DD9246FA68FB6E944665
:101300009B0063447B66FB6B88227B65FB6CBA1891
:101310003B659C23FB181B6813609C23FB181A6811
:101320008823FB181B68D21ABA62A422BA18136069
:10133000042B03DDA4220423BA1813608823FB18AE
:101340003A681B68D21A7A62002B65DDA423BA6B57
:10135000FB189146A8221B68BA18013B98467B6D82
:101360009B0099447B6E1360AC220023BA18136073
:10137000AC23AC22FB181B68BA1801331360434638
:10138000002B2CDDA8230025FB181C684B46266883
:101390005968301C0FF075FF011C60680FF057FF93
:1013A00043466060012B16D04B46301C99680FF005
:1013B00068FF011CA0680FF04AFF4346A060022BA3
:1013C00009D04B46301CD9680FF05BFF011CE06868
:1013D0000FF03DFFE06001355C445545D6D1012357
:1013E0005B429C46A133FB181B68E0449C46A82343
:1013F000A822FB181B68BA1804331360AC23A4227C
:10140000FB18BA181B681268E1449342B0DB03E092
:10141000A4250320683B03208823A422FB18BA18C4
:101420001B681268396B9D1A7B6EBE6A0B60E423E1
:10143000FB181B6891464B609C230196FB181B68A8
:1014400088460093F86F5346FFF734F9002D37DDD7
:1014500041467C6A386D4C440319B86B4A46844651
:10146000786B9B004860A420381802608C203818E4
:10147000006863440B602B0081463963FFF7C4F9B1
:10148000E022FB6EBA181B1914689B00A0463C6B47
:1014900043442360E423FB1819689C236160FB1814
:1014A00004961B6849460393A423FB181A68534605
:1014B0000292019300922B002000FA6FFFF77CFB51
:1014C000882388227969FB188C461B68BA18043B6C
:1014D000F96913603A6D62448C463A657A6E10324F
:1014E0007A667A6D62447A653A6A9A4200D014E765
:1014F0009822BA181268B96D9446FB6A8A1AB969BB
:1015000063448C46BA65B968FA6EFB6262448C46E5
:10151000FA66FA6F6244FA679422BA1812689A421D
:1015200000DDE2E69022BA181268BB6E9446802273
:10153000BA1812686344BB6693421BDA8423FB1813
:101540001B68002B38DC90233969FB188C467A6CB9
:101550001B68D21A7A643A6C62443A64BA6CD31A41
:10156000BB647A68FB6C63449446FB64FB6B634426
:10157000FB637DE68023FA6D9B029A4207D93A6F9E
:10158000002A04D0531E1878101A10F0EBF88023AC
:101590003A6E9B029A4207D9BA6F002A04D0531EB2
:1015A0001878101A10F0DEF8BD462FB0F0BCBB461C
:1015B000B246A946A046F0BDBA6B3B6C92469B0072
:1015C0009A44B023FE18B13B9946BD6CBC6E84238F
:1015D000FB181B68A8469D4200DD9846AC22A3007C
:1015E000BA1813607A6B8C2072609C225344BA182C
:1015F000381831001268006833604346FFF704F979
:10160000E022AC23BA181268FB1894461B688C21A0
:1016100063443360E423FB181B687918736000236C
:1016200004934B46039302939423FB181B683000EA
:1016300001939C23FB181B6800937A6F434609684B
:10164000FFF7BAFA8423FB181B689C46ED1A802327
:10165000FB181B686444A342B9DC74E7300012F045
:101660004DFD364D002800D181E58023DB012B6044
:1016700080231B0330006B60AB6012F05BFD76E5EE
:1016800098220423BA181360C4E51100B2E5802340
:10169000B200FA659B029A423AD813006A461633A2
:1016A000DB08DB00D31A9D4627200F2368449843AC
:1016B000386778678BE59A0080233A669B029A42E6
:1016C0000FD813006A461633DB08DB00D31A9D4699
:1016D00027200F23684498437D33FB18B8671860B0
:1016E0006CE51000103010F01FF8B867002800D12A
:1016F00064E50F221023844602409B1ADBB29C440F
:1017000061464A1E13708C23FB18B967196055E5B2
:101710001000103010F008F83867002800D156E5A6
:101720000F221023844602409B1ADBB29C44614680
:101730004A1E39671370796749E5C046683B032044
:10174000F0B557464E46DE464546E0B5B7B006AF63
:10175000824684207B65F023CB4E38180160BA6343
:10176000FB181C683378BFF35B8FDB0700D49DE266
:10177000C64D23696D683B67A368BB67534501DDB0
:101780005346BB67842179180E6880213A6FBB6F7E
:1017900056435343226879180A60002A00D1B4E204
:1017A0009B003B650023FB666368BB66002B00D192
:1017B00097E2B300FB6400237B6688220423BA18F7
:1017C00013608033FB181B68002B16DDEC23FB181D
:1017D0001B6851469A4500DA7FE2280009010EF0A5
:1017E00099FA0323C217134088221B189B109B00F1
:1017F000BA181360042B00DA6AE25346002B00DCAF
:1018000032E27A6D386F1100434259430B00B962DE
:1018100051460C1A110062431B1A9B00BA647B608C
:101820000A000B0051464B43B96B53448C46E821E8
:101830009B006344FB637918830009685B423B604B
:1018400053468C469B006344EC21BB658823791882
:10185000FB1809681B687C674B4390213B61930030
:101860005B4279180B60043BBB609B00FB60D34379
:1018700094229B00BA181360EC23A822FB181B6863
:10188000BA189B001360544603008C22BA181360E8
:10189000A34200DD14608423FB181B68002B00DCCE
:1018A00076E18C23FB181A68002A00DC70E184239F
:1018B000FB181B68B96D7B648823FB181B685343B6
:1018C0009B00FB61BB6EFB659300CB1A3B62002360
:1018D000B8213B667B63A31A7918FB621300396356
:1018E0000321013B043A8B43D31A7B61AC227B6C0E
:1018F000BA1813608822BA181268934202DDAC232A
:10190000FB181A603A6A3B6E94469B009C44624600
:101910007A62BA6D944698226344BA181360FB6BDE
:101920003B648C23FB181B68FB679C22FB6FBA1877
:101930001360042B03DD9C220423BA181360FA6F92
:10194000FB6A94466344BB61002A00DCA0E09C2350
:10195000396CA0208A46FB181B6838185A1E93461B
:10196000BA685B42524402607A6D9B1A9B009A44AB
:101970000423A4225B4299460023BA181360A023D3
:10198000FE20FB181B68800519680FF066FCB42365
:10199000FB181860A423FB181B685A46DB439B1AEC
:1019A0009822BA18126800269446B0229C009B0028
:1019B0005B42BA1864441360B023FB181B684A46A4
:1019C0009846A04443469958B423FB1818680FF072
:1019D00058FC43464A4698505B46051C002B22DDC6
:1019E000534619680FF04DFC011C20680FF02FFCC6
:1019F0005B462060012B16D05346281C59680FF017
:101A000040FC011C60680FF022FC5B466060022B0A
:101A100009D05346281C99680FF033FC011CA068BC
:101A20000FF015FCA060A823FB181B6801369C462C
:101A3000AC23FB181B6864449E42BDD1A423A4229E
:101A4000FB181B68BA18013313600122942152421B
:101A5000944679180968E3448C46A021A132BA184B
:101A60001268791862440A60042252429446943201
:101A7000BA181268E14494469C22BA181268E244EB
:101A8000934200DA7BE703E0A4250320683B0320B0
:101A9000E8219C2279180968BA188C46FB6F1268F5
:101AA000396B9C1ABB699D1A3B6E5B199B006344A2
:101AB0000B60EC23FB181B684B608C230194FB1814
:101AC0001B680093AC23FB181B68F86DFEF7F2FD52
:101AD000002C30DD7A6DF96A13008C466B433D6B48
:101AE000B96B80206A609C2263448C463818066873
:101AF0009B00BA181268634429002B603000230051
:101B00009046FEF781FEEC2228008C237D6ABA18ED
:101B100005601568FB18456004941D68AC224346B7
:101B200003950293BA1812680093019223003100C2
:101B3000FA6DFFF741F898229821BA1812687918BF
:101B4000103A0A60F9683A6C8C46FB6F62443A645A
:101B50007A69043BFB679A4200D0E6E68822BA180D
:101B60001268796C94467B6B8A1AF96963448C46D7
:101B70007A643969FA6D7B6362448C46FA653A6E21
:101B800062443A668422BA1812689A4200DDADE6D1
:101B90007B6F1C1E68DDBB6F002B00DCFEE7BA6BA1
:101BA000BB6C93469B009B4400239946B833FE18B8
:101BB000B93B9A4623004C4699467D6FBB6FA846B9
:101BC0009D4200DD9846B422A300BA1813607A6DD6
:101BD000802072608C225B44BA1838183100126879
:101BE000006833604346FEF70FFEE822B423BA18BC
:101BF0001268FB1894461B68802163443360EC2311
:101C0000FB181B68791873600023049353460393F1
:101C100002938423FB181B68300001938C23FB186C
:101C20001B680093BA6E43460968FEF7C5FFBB6F99
:101C30009C46ED1A7B6F6444A342BFDCBA6ABB6C5E
:101C400094467A6863449446BB643A68FB6B4C469E
:101C500063449446FB63BB6D3A6F6344BB657B6F23
:101C60009B1A7B67130010E68023FA6C9B029A4252
:101C700007D97A6E002A04D0531E1878101A0FF074
:101C800071FD80233A6D9B029A4207D9FA6E002AB1
:101C900004D0531E1878101A0FF064FDBD4631B001
:101CA000F0BCBB46B246A946A046F0BD300012F0DB
:101CB00025FA374D002800D15BE58023DB012B603E
:101CC00080231B0330006B60AB6012F033FA50E5E9
:101CD00088220423BA1813608FE5EC23FB181968D7
:101CE0007BE58023B200FA649B029A423AD8130043
:101CF0006A461633DB08DB00D31A9D4627200F23E4
:101D0000684498437866B86657E59A0080233A6538
:101D10009B029A420FD813006A461633DB08DB0099
:101D2000D31A9D4627200F23684498437133FB182C
:101D3000F866186038E5100010300FF0F5FCF86612
:101D4000002800D130E50F221023844602409B1A60
:101D5000DBB29C4461464A1E13708023FB18F9666F
:101D6000196021E5100010300FF0DEFC78660028C5
:101D700000D122E50F221023844602409B1ADBB2D9
:101D80009C4461464A1E79661370B96615E5C046E3
:101D9000683B032030B587B00D4B02AD00951A6843
:101DA000694602929A880400AA809B796A46AB71C0
:101DB000072301930023D3732FF032F90098A84230
:101DC00003D0029901310FF001FD200007B030BDB2
:101DD000D0C20410F0B5DE4657464E464546E0B543
:101DE0001F1CFE4B8FB01D68FD4B079018680A91B1
:101DF000011C00920FF02EFAFA4B19680FF041FA0D
:101E0000291C0FF03EFAF84B19680FF026FA011C56
:101E1000FE2080050FF01BFAF44B81461860F44B4E
:101E20001E68301C0FF0E0FAF24B041C1B68301CDB
:101E300098460FF0EBFAF04B8346211C40461E6893
:101E40000FF01FFA59468246301C0FF01AFA011C97
:101E500050460FF0FFF9291C0FF013FAE74B8246AA
:101E6000186080231B0643441800391C0FF009FA40
:101E700000998046301C0FF004FA011C40460FF018
:101E8000E9F9DF4B80461968201C0FF0FAF9189920
:101E90000FF0F7F9011C40460FF0DCF9291C0FF098
:101EA000F0F9D84B1899186080231B068046F0186B
:101EB0000FF0E7F9291C0FF0E4F9D34B00901860FC
:101EC000391C281C0FF0DDF9211C0FF0C6F9CF4C8E
:101ED000CF4B2668CF4C18602768CF4B83461968D4
:101EE000381C0FF0CEF9CD4C311C2568041C484637
:101EF0000FF0C7F9011C201C0FF0ACF9C84B041CF3
:101F00001968281C0FF0BDF9011C201C0FF0A2F964
:101F100041460FF09FF9C34B0C901860C24B381C20
:101F20001C68C24B19680FF0ACF9211C8046301CAC
:101F30000FF0A7F9011C40460FF08CF9291C8046D0
:101F400050460FF09EF9011C40460FF083F90099AE
:101F50000FF080F9B64B08901860B64B301C19682A
:101F60000FF08FF9B44B061C1968381C0FF089F973
:101F7000011C301C0FF06EF9B04B061C1968281CB0
:101F80000FF07FF9011C301C0FF064F959460FF077
:101F900061F9AB4EAB4B356818604946099048462D
:101FA0000FF06FF9291C0FF06CF9A74B19680FF0AF
:101FB00051F9A64BA64A186012680D90211C48469C
:101FC00090460FF05EF9291C0FF05BF9A14F061C3B
:101FD0003F684846391C00970FF053F9011C301C2C
:101FE0000FF038F95146061C48460FF04AF94146B1
:101FF0000FF047F9011C301C0FF02CF9964B4146AD
:102000000190186048460FF03CF9944B029018601C
:10201000291C201C0FF035F9914D924E29680FF0C4
:1020200019F93768051C391C50460FF02AF9011CB4
:10203000281C0FF00FF9061C011C48460FF021F96F
:10204000894B8A4A18608A4B12681B680390059373
:102050000492884D50462D68291C06950FF011F901
:102060004146051C201C0FF00CF9834B19680FF03A
:10207000F1F8291C0FF0EEF8311C8346201C0FF0FC
:1020800000F90099061C201C0FF0FBF8011C301C05
:102090000FF0E0F805990FF0DDF8049B061C191C01
:1020A000504698460FF0EDF8011C301C0FF0D2F8A6
:1020B0005946061C50460FF0E4F8011C301C0FF086
:1020C000C9F86E4B5E4619680FF0C4F86C4B00906F
:1020D00018606C4B391C1E6048460FF0D2F86A4BF2
:1020E00004901860391C201C0FF0CBF841460FF00B
:1020F000B1F8291C0FF0AEF8644B041C1860644B57
:10210000196806980FF0A6F8624B0899071C18602A
:1021100007980FF09CF8604B0999069018600A9890
:102120000FF095F85D4B079018605D4B05981968A6
:102130000FF090F85B4B061C186058465A4B0597F9
:1021400018605A4B381C1C60594B19680FF082F804
:10215000584B071C1860011C301C0FF092F8211C12
:10216000051C58460FF08DF8011C281C0FF06FF865
:10217000051C011C381C0FF070F84F4B071C186031
:1021800080231B065B44291C18000FF066F84B4B9C
:102190008146186080231B06E018291C0FF05DF8AB
:1021A000474B82461860291C301C0FF056F8454BEF
:1021B00080461860391C01980A970FF062F8029E59
:1021C0005146051C301C0FF05CF8011C281C0FF058
:1021D00041F83D4B071C1860494677E0D0200020AD
:1021E000AC20002084230320D82000200C420320B0
:1021F00014210020182100201C2100201C42032053
:10220000CC2000204C5C0320505C0320B023032032
:10221000545C0320B423032010420320B82303207E
:1022200014420320BC23032018420320C4200020B2
:10223000C02303202042032024420320C820002082
:10224000DC200020C4230320F4200020E020002014
:10225000E8500320E0500320E4500320EC5003201A
:10226000F050032000510320F450032008510320B4
:10227000E4200020EC200020F8500320F82000206B
:10228000E8200020FC500320045103200C510320BF
:10229000FC200020F0200020F84103200042032011
:1022A00000210020B85B0320BC5B0320C05B03203F
:1022B00004210020C45B0320C85B0320CC5B032007
:1022C000D05B0320D45B0320C033002001980EF0C4
:1022D000D8FF4146051C301C0EF0D3FF011C281C02
:1022E0000EF0B8FF914B061C0A99186000980EF08A
:1022F000C8FF5146051C58460EF0C3FF011C281CA0
:102300000EF0A8FF8A4B494618600B9000980EF01B
:10231000B8FF4146051C58460EF0B3FF011C281CAF
:102320000EF098FF834B051C0A991860201C0EF0D4
:10233000A8FF51460A9005980EF0A3FF011C0A98C9
:102340000EF088FF7C4B824618604946201C0EF038
:1023500098FF4146814605980EF093FF011C4846C0
:102360000EF078FF754B81461860391C06980EF008
:1023700088FF0C990EF06EFF311C804607980EF016
:1023800080FF011C40460EF065FF6D4B0B991860F5
:1023900006980EF076FF08990EF05CFF291C804627
:1023A00007980EF06EFF011C40460EF053FF654B80
:1023B0005146186006980EF064FF09990EF04AFF26
:1023C0004946804607980EF05CFF011C40460EF01F
:1023D00041FF5D4B391C186003980EF052FF011C41
:1023E0000D980EF034FF311C804604980EF049FF22
:1023F000011C40460EF02BFF544B391C186000980E
:102400000EF03FFF011C01980EF021FF311C8046A9
:10241000201C0EF036FF011C40460EF018FF4C4BFE
:10242000391C186058460EF02CFF011C02980EF063
:102430000EFF059B071C311C181C98460EF021FF4F
:10244000011C381C0EF003FF424B0B991860FE2054
:1024500080050EF0FCFE061C011C03980EF011FF17
:10246000291C071C04980EF00CFF011C381C0EF0F0
:10247000EEFE394B311C186000980EF002FF291C4B
:10248000071C201C0EF0FDFE011C381C0EF0DFFEA8
:10249000324B311C186058460EF0F3FE291C061C06
:1024A00040460EF0EEFE011C301C0EF0D0FE2C4B10
:1024B00049461860FE2080050EF0C9FE051C011C6F
:1024C00004980EF0DEFE5146061C03980EF0D9FE6D
:1024D000011C301C0EF0BBFE224B291C1860201C76
:1024E0000EF0CFFE5146041C00980EF0CAFE011CEF
:1024F000201C0EF0ACFE1C4B291C186040460EF050
:10250000C0FE5146041C58460EF0BBFE011C201CA8
:102510000EF09DFE154B1860FE2080050FB0F0BC3C
:10252000BB46B246A946A046F0BDC046C433002013
:10253000C8330020CC330020D0330020D433002017
:10254000B0230320B4230320B8230320DC20002081
:10255000E0500320E8500320F0500320E420002046
:10256000F85003200051032008510320EC200020E4
:10257000F0B5DE4657464E464546E24BE0B518609C
:10258000E14B0D1C1B68E14C98464146E04BE4686A
:102590001960DD4989B04968069059608946DB4B6E
:1025A000DA491F684E68DB4B89681F605E6099607E
:1025B000DC60D94B05949A6858681C6802920491B3
:1025C0000190DB68211C404603930EF05AFE0299ED
:1025D000824648460EF055FE011C50460EF03AFE6B
:1025E000CE4B82461968281C9B460EF04AFE011C01
:1025F00050460EF02FFECA4B0199186007904046D6
:102600009A460EF03EFE0399804648460EF039FE8B
:10261000011C40460EF01EFE5B4680465968281C91
:102620000EF02FFE011C40460EF014FE5546834668
:102630006860211C381C0EF024FE029A051C111C37
:10264000301C90460EF01DFE011C281C0EF002FEF0
:1026500001998146381C0EF014FE039F051C391C9D
:10266000301C0EF00EFE011C281C0EF0F3FD211C88
:10267000824604980EF005FE4146051C05980EF0B2
:1026800000FE011C281C0EF0E5FD4646019980461F
:1026900004980EF0F6FD391C051C05980EF0F1FDAE
:1026A000011C281C0EF0D6FD4946071C201C0EF00C
:1026B000E8FD4146051C301C0EF0E3FD011C281C02
:1026C0000EF0C8FD974E31680EF0C4FD964D514690
:1026D00004902860201C0EF0D4FD391C041C0298C4
:1026E0000EF0CFFD011C201C0EF0B4FD71680EF041
:1026F000B1FD49460290686001980EF0C2FD039A50
:102700004146041C101C91460EF0BBFD011C201C10
:102710000EF0A0FDB1680EF09DFD5146041CA860AE
:1027200001980EF0AEFD391C804648460EF0A9FD1A
:10273000011C40460EF08EFDF1680EF08BFDE86046
:102740007A4D071C2E680498311C0EF09AFD6D68B6
:102750008046291C381C01970EF093FD291C8246E7
:1027600002980EF08EFD41460EF074FD311C0EF005
:1027700088FD311C071C201C0EF083FD51460EF015
:1027800069FD291C0EF07DFD011C381C0EF062FD58
:10279000674B19680EF05EFD664B071C1860291C1C
:1027A000201C0EF06EFD41460EF054FD391C0EF05B
:1027B00054FD61498046894608600298311C0EF03C
:1027C00060FD51460EF046FD391C0EF046FD4946AF
:1027D000079B071C4860181C311C9A460EF051FDDF
:1027E000291C814658460EF04CFD011C48460EF04F
:1027F00031FD011C06980EF02AFD414681460EF07F
:1028000040FD51460EF026FD3F4A391C10604846F7
:102810000EF037FD59460EF01DFD3B4A81465060D3
:10282000464A311C934640460EF02BFD5A46011C89
:1028300010680EF00CFD311C8246381C0EF021FD94
:102840005A46011C50680EF002FD291C061C404629
:102850000EF017FD5A46011C90680EF0F8FC291C7A
:102860008046381C0EF00DFD5A46011CD0680EF053
:10287000EEFC5146051C04980EF003FD029B4146F8
:10288000071C181C9B460EF0FCFC011C381C0EF0AB
:10289000E1FC1E4A311C106004980EF0F2FC291C69
:1028A000071C58460EF0EDFC011C381C0EF0D2FC43
:1028B000164B51465860201C0EF0E3FC019B41462C
:1028C000071C181C98460EF0DCFC011C381C0EF08E
:1028D000C1FC0E4B311C9860201C0EF0D2FC291C50
:1028E000041C40460EF0CDFC011C201C0EF0B2FC76
:1028F000064BD860484609B0F0BCBB46B246A94674
:10290000A046F0BDD45C032094500320602E00202C
:1029100068460320A02E0020C02E00204441032042
:10292000A4500320B02D0020802E0020B85003209A
:102930005023032058460320B8330020E02E002007
:10294000F0B5DE4657464E464546E0B5674B83B088
:1029500059689A460EF07BFC654B051C1860654B68
:102960001B689B46644B59461C680EF073FC211C87
:102970000EF087FC614B061C1868011C0EF06AFC07
:10298000011C301C0EF069FC5D4E31680EF062FCDB
:102990005C4B009030601868011C0EF05BFC5A4BD9
:1029A000061C1A68111C91460EF06BFC8046011C37
:1029B000201C0EF04FFC211C071C40460EF047FC6B
:1029C000524A116890460EF05CFC391C0EF045FC32
:1029D0004946019048460EF03DFC59468146281C68
:1029E0000EF035FC011C48460EF04BFC391C0EF075
:1029F00034FC011C01980EF02DFC42460099106039
:102A0000071C281C0EF026FC391C0EF023FC404B42
:102A100019680EF036FC3F4B18603F4B1860534668
:102A200019680EF014FC3D4B051C18603C4B1B68EC
:102A3000191C9A460EF00EFC211C0EF022FC394B9C
:102A400080461868011C0EF005FC011C40460EF083
:102A500004FC354B994619680EF0FCFB4B46186098
:102A6000324B80461B68301C191C99460EF009FC3D
:102A70008346011C201C0EF0EDFB4946061C48460F
:102A80000EF0E8FB51468146281C0EF0E0FB011CCD
:102A900048460EF0F6FB311C0EF0DFFB211C814690
:102AA00058460EF0D4FB391C0EF0EBFB311C0EF037
:102AB000D4FB011C48460EF0CDFB1D4B414618606F
:102AC000041C281C0EF0C6FB211C0EF0C3FB194B86
:102AD00019680EF0D6FB184B1860184B186003B03D
:102AE000F0BCBB46B246A946A046F0BD94500320B8
:102AF0000442032060460320D4200020B0200020A0
:102B000050460320C0200020E8330020E04103208D
:102B1000B8200020585C0320485C032008420320B2
:102B200064460320B420002054460320EC330020E8
:102B3000E4410320BC2000205C5C0320605C032097
:102B4000F8B5FE250024194BAD051D60DD609C60C5
:102B50005C60174B174F1D60DD609C605C60164B1E
:102B60001E68164B301C19680EF077FB144B38604A
:102B70001D605C60DD609C60124B7C601D605E606F
:102B8000DD609C60104B1C605D60104B1868011C80
:102B90000EF077FB0E4B0F4A186012680E4B1A604E
:102BA0000E4A9C6012685C60DA60F8BD602E0020FE
:102BB000802E002044410320D4200020D820002073
:102BC000E02E0020C02E0020B8500320102100204D
:102BD0005023032038230320B02D0020342303206A
:102BE000F0B5DE4657464E464546E0B50E00016854
:102BF000C7688946416805698A4681688DB08B46F9
:102C0000416980690793069050681368926805913E
:102C10000A90291C30680B92099308950EF017FB57
:102C20000599039070680EF012FB0699051CB068B8
:102C30000EF00DFB80268046360607980EF0BAFB94
:102C4000B446039B009001916344180051460EF076
:102C500018FB5946061C281C0EF013FB011C301CE7
:102C60000EF0F5FA391C061C404604970EF009FBDD
:102C7000011C301C0EF0EBFA0EF09CFB0022684B9E
:102C80000DF0BFFA009A019B0DF0BBFA0600484612
:102C90000F000EF08FFB02000B0030003900169C75
:102CA0000DF088FA0DF0B2FB4946206003980EF053
:102CB000E8FA5946061C40460EF0E3FA011C301CA7
:102CC0000EF0C8FA0499061C281C0EF0DAFA011C52
:102CD000301C0EF0BCFA0EF06DFB0022504B0DF0D4
:102CE00090FA009A019B0DF08CFA060050460F00F6
:102CF0000EF060FB02000B00300039000DF05AFAB4
:102D00000DF084FB49466060281C0EF0BAFA51466B
:102D1000061C40460EF0B5FA011C301C0EF097FA66
:102D20000499061C03980EF0ACFA011C301C0EF03E
:102D300091FA0EF03FFB0022394B0DF062FA009A37
:102D4000019B0DF05EFA060058460F000EF032FBB4
:102D500002000B00300039000DF02CFA0DF056FB8C
:102D60004946A06040460EF08CFA5146061C281CCD
:102D70000EF087FA011C301C0EF06CFA5946051C47
:102D800003980EF07EFA011C281C0EF060FA0EF07B
:102D900011FB0022224B0DF034FA009A019B0DF03A
:102DA00030FA060004980F000EF004FB02000B003E
:102DB000300039000DF0FEF90DF028FB089B099951
:102DC000E060181C98460EF05CFA079D291C0EF076
:102DD00058FA011C40460EF03AFA059F0A99206104
:102DE000381C0EF04EFA291C0EF04BFA011C381C50
:102DF0000EF02DFA069E0B996061301C0EF041FA20
:102E0000291C0EF03EFA011C301C0EF020FAA061C5
:102E100000200DB0F0BCBB46B246A946A046F0BDAE
:102E20000000E03FF0B5DE4657464E4645468A462E
:102E30004168E0B58846C768816891B006688946F0
:102E40004046391C141C04930EF01BFA4946051C1D
:102E5000301C0EF016FA0A90011C281C09950EF081
:102E6000F6F90EF0A7FA02000B000DF0A3F9069098
:102E70000791201C02940EF09DFA0B000200040042
:102E80000D00069807990DF0BCF90DF0BFFA5246F7
:102E9000391C106048460EF0F4F983464146301C58
:102EA0000EF0EFF95A460E90011C58460B920EF0A8
:102EB000D1F90EF07FFA02000B000DF07BF9020051
:102EC0000B00200029000C920D930DF09AF90DF0E3
:102ED0009DFA5446311C6060301C0EF0D2F9414618
:102EE000041C40460EF0CDF9051C011C201C0EF000
:102EF000AEF94946089048460EF0C3F9391C83469E
:102F0000381C0EF0BEF95946019008980EF09FF952
:102F100001990EF09FF902990F900EF0B2F9534605
:102F20004946986040460EF0ACF9391C8046301C8A
:102F30000EF0A7F981461A980EF03CFA06001B988D
:102F40000F000EF037FA02900391291C201C0EF09E
:102F500081F959460EF07BF901990EF078F9049940
:102F60000EF08FF90EF026FA04000D004046494697
:102F70000EF070F90EF01EFA02000B000DF01AF9B7
:102F800032003B000DF03DF902000B00200029004B
:102F90000DF010F9029A039B04000D0006980799A2
:102FA0000DF02FF902000B00200029000DF002F9AE
:102FB0000DF02CFA5346D86004980EF0FBF904008B
:102FC0000D00404649460EF042F90EF0F3F90200BA
:102FD0000B000DF0EFF822002B00049405950DF086
:102FE00010F904000D00089859460EF033F90199C4
:102FF0000EF02DF91A990EF044F90EF0DBF90200EB
:103000000B00200029000DF0D5F8029A039B040064
:103010000D000C980D990DF0F4F802000B00200043
:1030200029000DF0C7F80DF0F1F953460A9918611F
:1030300009980EF00FF90EF0BDF902000B000DF02B
:10304000B9F8049A059B0DF0DCF804000D000B980C
:103050000E990EF0FCF80EF0ADF902000B000DF029
:10306000A9F832003B000DF0CCF802000B00200064
:1030700029000DF09FF804000D000F981B990EF029
:1030800000F90EF097F902000B00200029000DF066
:1030900091F80DF0BBF953465861002011B0F0BC17
:1030A000BB46B246A946A046F0BDC046F0B50400F6
:1030B000DE4657464E4645460800E0B54568096875
:1030C000AA46856895B0AB46C56846698769109180
:1030D0000E950169556810689268049690461A68C2
:1030E000069711925A689B6812921393FE239B05D0
:1030F000236099460EF0ABF80EF05CF90090019158
:103100001E980EF057F906000F0000980199002252
:10311000924B0DF076F832003B000DF072F80DF096
:1031200075F904990390E061281C0EF090F80EF0F8
:1031300041F90022894B049005910DF062F83200AC
:103140003B000DF05EF80DF061F90699051CA063D7
:1031500040460EF07CF80EF02DF900227F4B0690D1
:1031600007910DF04EF832003B000DF04AF80DF0DB
:103170004DF90A90606550460EF01CF90022784B1C
:10318000089009910DF03DF832003B000DF039F840
:103190000DF03CF90B90206758460EF00BF9002219
:1031A0006F4B0C900D910DF02CF832003B000DF0A0
:1031B00028F80DF02BF98C238246E0500E980EF083
:1031C000F9F80022664B0E900F910DF01AF83200BC
:1031D0003B000DF016F80DF019F9A8238346E050D6
:1031E0000022009801995E4B0DF00BF832003B0075
:1031F0000DF007F80DF00AF9494600906060216271
:10320000002206980799564B0CF0FBFF32003B005A
:103210000CF0F7FF0DF0FAF8A5658046E063109812
:103220000EF0C8F800224D4B0CF0EBFF32003B00D3
:103230000CF0E7FF0DF0EAF859469023051C606793
:103240000022E1500C980D99444B0CF0DAFF32004B
:103250003B000CF0D6FF0DF0D9F8AC230022E05073
:10326000049805993E4B0CF0CCFF32003B000CF06B
:10327000C8FF0DF0CBF849460A9A83466262009A6D
:10328000A0602164E2650E980F990022334B0CF088
:10329000B8FF32003B000CF0B4FF0DF0B7F89423F8
:1032A0000B99A067E5501C33E1504146E160594657
:1032B000A162494621665146039BE1676364089811
:1032C00009990022254B0CF09CFF32003B000CF0CA
:1032D00098FF0DF09BF89823E0501C33E550002533
:1032E0001E9911982561E562A56465660DF0C9FF18
:1032F000011C48460DF0ABFF8023E0501C33E55025
:103300001C33E550343B1E99129865612563E564D2
:10331000A566E5500DF0B5FF011C48460DF097FF7E
:10332000A023E0501C33E550343BA561656325655F
:10333000E566E5501C33E5501E9913980DF0A1FF8A
:10334000011C48460DF083FFC023E050002015B05B
:10335000F0BCBB46B246A946A046F0BD0000E0BFA7
:103360000000E03FF0B5DE4657464E464546E0B524
:103370009A460B68141C8A689B464B68C9688BB0D8
:103380000500101C8846009301920EF013F802907D
:103390000391201C0EF00EF8C02306000F000298C7
:1033A000039900221B060CF02CFF32003B000CF0AE
:1033B00028FF0DF02BF80890286040460DF0FAFF2A
:1033C00002000B000CF0F6FE32003B000CF019FF7F
:1033D0000DF01CF8041CA86158460DF0EBFFC0234B
:1033E00000221B06049005910CF00BFF32003B00FD
:1033F0000CF007FF0DF00AF8286300980DF0DAFFD3
:1034000002000B00069007910CF0D4FE32003B0046
:103410000CF0F7FE0CF0FAFF002190238946A86417
:103420002966A967E95068600498059902000B00B5
:103430000CF0C0FE32003B000CF0E3FE0CF0E6FFA7
:103440006C630490E8610298039902000B000CF091
:10345000B1FE32003B000CF0D4FE0CF0D7FF494621
:103460009423E8646966E967E950C02306980799E0
:10347000049A1B06AA6000220CF0C3FE32003B0037
:103480000CF0BFFE0CF0C2FF089B4946AB638023E3
:1034900028622C65A966E9501833E9504046149912
:1034A0000DF0EFFE019F1599061C381C0DF0E9FE8A
:1034B0005146041C58460DF0E4FE311C0DF0CAFEC6
:1034C000211C06940DF0C3FE011C0DF0C3FE5146F5
:1034D0000990E86000980DF0D4FE1499041C381C83
:1034E0000DF0CFFE011C201C0DF0B4FE1599041C3C
:1034F00040460DF0C6FE011C201C0DF0ABFE011C69
:103500000DF0A8FE14990290686200980DF0B9FEC3
:103510001599089058460DF0B4FE019A80249446FF
:1035200024066444071C514620000DF0AAFE0899A9
:103530000DF090FE391C0DF08AFE011C0DF08AFE84
:103540001499E86358460DF09CFE15990490009874
:103550000DF097FE802212064244041C51461000D2
:103560000DF08FFE04990DF075FE211C0DF072FE1A
:10357000011C0DF06FFE4A468423EA666865EA5036
:103580001833EA505146286101980DF07AFE0899E7
:103590000DF05DFE391C0DF05DFE011C0DF05AFEB4
:1035A000071CA8628020029B00062B6451465844E9
:1035B0000DF067FE311C0DF04AFE06990DF04AFE33
:1035C000011C0DF047FE8823A86548462867E8508F
:1035D0001833E850514640466F610DF052FE049991
:1035E0000DF035FE211C0DF032FE011C0DF032FEF7
:1035F000099AE8626A64029B4A46EB654B466B6730
:103600008C230020EA501833EA500BB0F0BCBB46C4
:10361000B246A946A046F0BD0123F0B5E3214746D6
:10362000CE469C46294B804605009946284E80B5DB
:103630008900076846444144FA0F6F68D2077B004F
:103640005B08346813435A08624064461C4201D048
:103650004B465A4004C50436A942EDD1E323424605
:103660009B00C626D458194B01259C46F6004644BB
:10367000E20F4C68D20763005B08076813435A08DF
:103680007A401D4201D063465A40043004C1B04222
:10369000EED14246C62140460E4BC900D3581268AF
:1036A000DB0F52005208DB07415813435A084A40C7
:1036B000DB0701D5054B5A404146064BCA50002254
:1036C0000433CA50C0BCB946B046F0BDDFB008995B
:1036D00034060000BC090000F0B54546DE465746FA
:1036E0004E46E0B53C4CD723A54434AA94466344E7
:1036F0001B091B018A6805930B68019237921A68AF
:1037000004902D929A6933912E921A6B38AC2F92B5
:103710009A6C30921A6E06929A6F089290229A587A
:1037200007925A680A92DA690B925A6B0C92DA6C19
:103730000D925A6E0E92DA6F0F9294229A5810924E
:103740009A6811921A6A12929A6B13921A6D1492D5
:103750009A6E159280229A58169298229A58179229
:10376000DA6818925A6A1992DA6B1A925A6D1B9299
:10377000DA6E1C9284229A581D929C229A581E92AC
:103780001A691F929A6A20921A6C21929A6D22925B
:103790001A6F239288229A582492A0229A5825922E
:1037A0005A692692DA6A27925A6C2892DA6D29921F
:1037B0005A6F2A928C229A582B92A4229B582C93AF
:1037C0004B68984638AB3293C4234344099343462D
:1037D000A0461C0002E0C0469CFDFFFFE168A26815
:1037E00089462169236848460391309902920193E2
:1037F0000DF047FD0399824606980DF042FD011C2D
:1038000050460DF027FD67698246391C08980DF077
:1038100038FDA6698346311C07980DF032FD011C66
:1038200058460DF017FD011C50460DF013FD65685C
:1038300082462E99281C0DF024FD2F99834602986C
:103840000DF01FFD011C58460DF004FD2D99834617
:1038500001980DF016FD011C58460DF0FBFC011CF3
:1038600050460DF0F7FC4346494618600D980DF0A0
:1038700008FD039982460E980DF003FD011C504689
:103880000DF0E8FC391C82460F980DF0FAFC311C53
:10389000834610980DF0F5FC011C58460DF0DAFC3B
:1038A000011C50460DF0D6FC291C82460B980DF0E9
:1038B000E8FC029983460C980DF0E3FC011C584685
:1038C0000DF0C8FC019983460A980DF0DAFC011C42
:1038D00058460DF0BFFC011C50460DF0BBFC4346A2
:1038E0004946586014980DF0CCFC0399824615980F
:1038F0000DF0C7FC011C50460DF0ACFC391C824693
:1039000016980DF0BEFC311C834617980DF0B9FCDB
:10391000011C58460DF09EFC011C50460DF09AFC0F
:10392000291C824612980DF0ACFC0299834613982C
:103930000DF0A7FC011C58460DF08CFC0199834644
:1039400011980DF09EFC011C58460DF083FC011CE3
:1039500050460DF07FFC4346494698601B980DF099
:1039600090FC039982461C980DF08BFC011C50467C
:103970000DF070FC391C82461D980DF082FC311C44
:1039800083461E980DF07DFC011C58460DF062FC2C
:10399000011C50460DF05EFC291C824619980DF062
:1039A00070FC029983461A980DF06BFC011C584676
:1039B0000DF050FC0199834618980DF062FC011C33
:1039C00058460DF047FC011C50460DF043FC4346A1
:1039D0004946D86022980DF054FC039982462398FA
:1039E0000DF04FFC011C50460DF034FC391C824692
:1039F00024980DF046FC311C834625980DF041FCBF
:103A0000011C58460DF026FC011C50460DF022FC0E
:103A1000291C824620980DF034FC02998346219897
:103A20000DF02FFC011C58460DF014FC0199834643
:103A30001F980DF026FC011C58460DF00BFC011CD4
:103A400050460DF007FC43464946186129980DF091
:103A500018FC039981462A980DF013FC011C484676
:103A60000DF0F8FB391C81462B980DF00AFC311C37
:103A7000071C2C980DF005FC011C381C0DF0EAFB0E
:103A8000011C48460DF0E6FB291C061C27980DF08A
:103A9000F8FB0299051C28980DF0F3FB011C281C6B
:103AA0000DF0D8FB0199051C26980DF0EAFB011CCE
:103AB000281C0DF0CFFB011C301C0DF0CBFB434646
:103AC000586118239C46099B1C34E044A34200D053
:103AD00084E6379B1A68629308929A6909921A6B76
:103AE0000A929A6C0B921A6E0C929A6F0D92902217
:103AF0009A580E925A680F92DA6910925A6B119284
:103B0000DA6C12925A6E1392DA6F149294229A58C7
:103B100015929A6816921A6A17929A6B18921A6DF1
:103B200019929A6E1A9280229A581B9298229A5849
:103B30001C92DA681D925A6A1E92DA6B1F925A6DB5
:103B40002092DA6E219284229A5822929C229A58CC
:103B500023921A6924929A6A25921A6C26929A6D77
:103B6000059C27921A6F2034289288229A58A146E1
:103B70002992A0229A582A925A692B92DA6A2C9298
:103B80005A6C2D92DA6D2E925A6F2F928C229A587F
:103B90003092A4229B5831935CAB06933EAB0793C3
:103BA000329B984643464246414640461B689569CB
:103BB0000193069B146B096E926C40CB876F029148
:103BC000101C0B99039206930DF05BFB0C99824637
:103BD00002980DF056FB011C50460DF03BFB0D9971
:103BE0008246381C0DF04DFB0E998346301C0DF0BB
:103BF00048FB011C58460DF02DFB011C50460DF0F2
:103C000029FB09998246281C0DF03BFB0A99834643
:103C1000201C0DF036FB011C58460DF01BFB0899CB
:103C2000834601980DF02DFB011C58460DF012FB48
:103C3000011C50460DF00EFB4B461299186003987C
:103C40000DF01FFB1399824602980DF01AFB011C20
:103C500050460DF0FFFA14998246381C0DF011FB06
:103C600015998346301C0DF00CFB011C58460DF0D5
:103C7000F1FA011C50460DF0EDFA10998246281C0D
:103C80000DF0FFFA11998346201C0DF0FAFA011C81
:103C900058460DF0DFFA0F99834601980DF0F1FABE
:103CA000011C58460DF0D6FA011C50460DF0D2FA10
:103CB0004B461999586003980DF0E3FA1A99824619
:103CC00002980DF0DEFA011C50460DF0C3FA1B9964
:103CD0008246381C0DF0D5FA1C998346301C0DF035
:103CE000D0FA011C58460DF0B5FA011C50460DF0F3
:103CF000B1FA17998246281C0DF0C3FA1899834629
:103D0000201C0DF0BEFA011C58460DF0A3FA1699BE
:103D1000834601980DF0B5FA011C58460DF09AFA49
:103D2000011C50460DF096FA4B4620999860039876
:103D30000DF0A7FA2199824602980DF0A2FA011C13
:103D400050460DF087FA22998246381C0DF099FAF8
:103D500023998346301C0DF094FA011C58460DF04F
:103D600079FA011C50460DF075FA1E998246281CFE
:103D70000DF087FA1F998346201C0DF082FA011C72
:103D800058460DF067FA1D99834601980DF079FAAF
:103D9000011C58460DF05EFA011C50460DF05AFA0F
:103DA0004B462799D86003980DF06BFA2899824604
:103DB00002980DF066FA011C50460DF04BFA299955
:103DC0008246381C0DF05DFA2A998346301C0DF0AE
:103DD00058FA011C58460DF03DFA011C50460DF0F2
:103DE00039FA25998246281C0DF04BFA269983460C
:103DF000201C0DF046FA011C58460DF02BFA2499B0
:103E0000834601980DF03DFA011C58460DF022FA48
:103E1000011C50460DF01EFA4B462E99186103986E
:103E20000DF02FFA2F99824602980DF02AFA011C04
:103E300050460DF00FFA30998246381C0DF021FAE9
:103E40003199071C301C0DF01CFA011C381C0DF0B8
:103E500001FA011C50460DF0FDF92C99061C281C96
:103E60000DF00FFA2D99051C201C0DF00AFA011C0B
:103E7000281C0DF0EFF92B99041C01980DF001FAA4
:103E8000011C201C0DF0E6F9011C301C0DF0E2F9BC
:103E90004B46586104239C461433E0449C46079BE0
:103EA000E144434500D07DE6339B059DDC68296AEB
:103EB00020680DF0CFF9049EA96B306060680DF0AA
:103EC000C9F97060A068296D0DF0C4F9B060E068B0
:103ED000A96E0DF0BFF98023F0602069E95898467B
:103EE0000DF0B8F998233061E95860690DF0B2F926
:103EF0007061A069696A0DF0ADF9B061E069E96BC4
:103F00000DF0A8F9F061206A696D0DF0A3F9306237
:103F1000E96E606A0DF09EF984277062A06AE95923
:103F20000DF098F99C23B062E958E06A0DF092F91F
:103F3000F062206BA96A0DF08DF93063606B296C1B
:103F40000DF088F97063A06BA96D0DF083F9B06373
:103F5000E06B296F0DF07EF9F0638826206CA9597B
:103F60000DF078F9049B1864A023606CE9580DF0FB
:103F700071F9049BE96A5864A06C0DF06BF9049B1D
:103F8000696C9864E06C0DF065F9049BE96DD86488
:103F9000206D0DF05FF9049B696F1865606D0DF081
:103FA00059F98C25049A059B5065A06D59590DF05F
:103FB00051F9A423049A9065059AE06DD1580DF04B
:103FC00049F9049B059AD865116B206E0DF042F9F2
:103FD000049B059A1866916C606E0DF03BF9049B8A
:103FE000059A5866A06E116E0DF034F9049B059A7F
:103FF0009866E06E916F0DF02DF9049B059AD866D6
:104000009023206FD1580DF025F9049B059A18676D
:10401000A823606FD1580DF01DF9049B059A5867CD
:10402000A16F506B0DF016F9049B059A9867E16F2C
:10403000D06C0DF00FF94146049B059AD867615882
:10404000506E0DF007F94146049B059A5850E1590E
:10405000D06F0DF0FFF8049BD8519423059FA15910
:10406000F8580DF0F7F8049B9851AC236159F858B3
:104070000DF0F0F8049B585199239B009D44F0BC2F
:10408000BB46B246A946A046F0BDC046F0B5DE46E6
:1040900057464E4645460400E0B5436887B0580091
:1040A000A3684008590049080DF0D4F82368590066
:1040B00049080DF0CFF82369051C580063694008D2
:1040C000590049080DF0C6F8E368590049080DF099
:1040D000C1F8011C281C0DF0BDF8E369051C58004F
:1040E000236A4008590049080DF0B4F8A369590043
:1040F00049080DF0AFF8A36A061C5800E36A4008AF
:10410000590049080DF0A6F8636A590049080DF0F6
:10411000A1F8011C301C0DF09DF8636B071C5800C2
:10412000A36B4008590049080DF094F8236B59001F
:1041300049080DF08FF8236C061C5800636C40088A
:10414000590049080DF086F8E36B590049080DF055
:1041500081F8011C301C0DF07DF8061C011C381C78
:104160000DF0C6F8002800D13E1C311C281C0DF0B3
:10417000BFF8002800D12E1CE36C5800236D4008C6
:10418000590049080DF066F8A36C590049080DF074
:1041900061F8A36D051C5800E36D400859004908FB
:1041A0000DF058F8636D590049080DF053F8011CE3
:1041B000281C0DF04FF8636E071C5800A36E4008D2
:1041C000590049080DF046F8236E590049080DF0D2
:1041D00041F8236F051C5800636F400859004908D7
:1041E0000DF038F8E36E590049080DF033F8011C62
:1041F000281C0DF02FF8E36F804658008023E1580B
:104200004008490049080DF025F8A36F59004908F6
:104210000DF020F88823051CE0580433E1584000D5
:104220004900490840080DF015F88423E158490079
:1042300049080DF00FF8011C281C0DF00BF8051CA7
:10424000011C40460DF054F8002800D14546291CB9
:10425000381C0DF04DF8002800D13D1C291C301CE5
:104260000DF046F8002800D1351CC0232100E55090
:1042700001AABA3B02A8A83104930294FCF7EEFA13
:104280000121C422019B98260B405B428B430133E2
:10429000A354343A9246002250469C27225094322E
:1042A000A1509346923AA2510132E2519D32944676
:1042B00060469C3A2250A03291469F3A90464A4628
:1042C00040462300A05048461832A258903392002E
:1042D0009A1815682550404610606046B82220584C
:1042E000A2588046604692009A18156825504046AC
:1042F0001060B422E059A258844692009A181068BF
:104300005D46E05160461060B022A258A759920065
:104310009A181068A0511760AC225846A258265827
:1043200092009A18106860511660A822A25855464B
:1043300092009B1852461868A25860511A60C52313
:10434000E15407B0F0BCBB46B246A946A046F0BD5A
:10435000C023002210B5C25000220433C2520B68A1
:10436000040003604B6843608B688360CB68C36064
:104370000B6903614B6943618B698361CB69C361DD
:104380000B6A03624B6A43628B6A8362CB6AC362C5
:104390000B6B03634B6B43638B6B8363CB6BC363AD
:1043A0000B6C03644B6C43648B6C8364CB6CC36495
:1043B0000B6D03654B6D43658B6D8365CB6DC3657D
:1043C0000B6E03664B6E43668B6E8366CB6EC36665
:1043D0000B6F03674B6F43678B6F8367CB6FC3674D
:1043E0008023CA58C2500433CA58C2500433CA5832
:1043F000C2500433CA58C250FFF748FE200010BD17
:10440000F0B5DE464E4645465746E0B5214C91464E
:10441000A5443AAA94460A0031931F4B3B9063444B
:104420001B091B013A919846D3AB13CA13C313CA95
:1044300013C31268D3A91A60184B194A1B6847A8FE
:104440000493184B47AC1B680193174B1B680593EB
:104450000093049BFEF786FF47ABD3934B46D49360
:1044600047ABD5933AAA8323944686201B01634425
:104470001B68C0004044A2AAD3A9D6930990FFF7B5
:104480002BF96BAB089343460A934B463094A146F5
:104490001C000BE014F7FFFF470300000822032075
:1044A0000AE81C4100220320042203204B464E460A
:1044B0001B68B76F0793089B494640CB48464A465E
:1044C0000893A823896C006E9569126B059106907C
:1044D000E158301C04920CF0D4FE8C238246E15843
:1044E000381C0CF0CEFE011C50460CF0B3FE216FC0
:1044F000824606980CF0C5FE616D834605980CF067
:10450000C0FE011C58460CF0A5FE011C50460CF0E4
:10451000A1FEA16B824604980CF0B3FEE1698346CC
:10452000281C0CF0AEFE011C58460CF093FE2168CE
:10453000834607980CF0A5FE011C58460CF08AFE35
:10454000011C50460CF086FE43461860AC23301C1C
:10455000E1580CF096FE90238246E158381C0CF08E
:1045600090FE011C50460CF075FE616F8246069865
:104570000CF087FEA16D834605980CF082FE011CAD
:1045800058460CF067FE011C50460CF063FEE16BD0
:10459000824604980CF075FE216A8346281C0CF0B4
:1045A00070FE011C58460CF055FE61688346079862
:1045B0000CF067FE011C58460CF04CFE011C5046E6
:1045C0000CF048FE43465860B023301CE1580CF014
:1045D00058FE94238246E158381C0CF052FE011C10
:1045E00050460CF037FEA16F824606980CF049FE4B
:1045F000E16D834605980CF044FE011C58460CF012
:1046000029FE011C50460CF025FE216C82460498C0
:104610000CF037FE616A8346281C0CF032FE011C48
:1046200058460CF017FEA168834607980CF029FE47
:10463000011C58460CF00EFE011C50460CF00AFE00
:1046400043469860B423301CE1580CF01AFE9823BE
:104650008246E158381C0CF014FE011C50460CF048
:10466000F9FDE16F824606980CF00BFE216E834641
:1046700005980CF006FE011C58460CF0EBFD011CE1
:1046800050460CF0E7FD616C824604980CF0F9FD91
:10469000A16A8346281C0CF0F4FD011C58460CF05E
:1046A000D9FDE168834607980CF0EBFD011C5846E4
:1046B0000CF0D0FD011C50460CF0CCFD4346D860F8
:1046C000B823301CE1580CF0DCFD9C238246E158F5
:1046D000381C0CF0D6FD011C50460CF0BBFD8023AD
:1046E0008246E15806980CF0CCFD616E8346059831
:1046F0000CF0C7FD011C58460CF0ACFD011C5046E7
:104700000CF0A8FDA16C824604980CF0BAFDE16A99
:104710008346281C0CF0B5FD011C58460CF09AFD90
:104720002169834607980CF0ACFD011C58460CF03B
:1047300091FD011C50460CF08DFD43461861BC23D1
:10474000301CE1580CF09DFDA0238246E158381C36
:104750000CF097FD011C50460CF07CFD8423824632
:10476000E15806980CF08DFDA16E834605980CF07B
:1047700088FD011C58460CF06DFD011C50460CF0E4
:1047800069FDE16C824604980CF07BFD216B834649
:10479000281C0CF076FD011C58460CF05BFD61698D
:1047A000834607980CF06DFD011C58460CF052FD35
:1047B000011C50460CF04EFD4346E16E58610598D1
:1047C0000CF05FFD88238246E15806980CF059FDF5
:1047D000011C50460CF03EFDA4238246E158381CD3
:1047E0000CF04FFDC023071CE158301C0CF049FDB4
:1047F000011C381C0CF02EFD011C50460CF02AFD4B
:10480000616B061C281C0CF03CFD216D051C0498F6
:104810000CF037FD011C281C0CF01CFDA169051CC7
:1048200007980CF02EFD011C281C0CF013FD011C38
:10483000301C0CF00FFD4346986104239C4618334E
:10484000E1449C464DABE044994500D02EE60A9BDE
:10485000A146D8249846A427A4004444BF00474456
:1048600020000999FFF774FD210090223800C82428
:104870000CF096FFFC21A400444489004144182216
:1048800020000CF08DFFCE2081218000C900414422
:10489000182240440CF084FF8422D423D2004244E6
:1048A00012689B0043441A60D523874A4546424418
:1048B00012889B004344FE211A8000232268B035F1
:1048C0009200AA18890511609361136393641366BB
:1048D0009367C92292004244126844469200AA1883
:1048E000136091611363936413669367CA22920005
:1048F0004244126806269200AA181360936111635D
:10490000936413669367CB22920042441268062098
:104910009200AA18136093611363916413669367FE
:10492000CC229200424412689200AA18136093614C
:104930001363936411669367CD2292004244126818
:104940009200AA1813609361136393641366A823FB
:104950005B009B46916742465946E4182033434426
:10496000A660E660266153508022920042444B3993
:104970006260924604933A0006230294FF3901963E
:104980000095FCF7D9FB42465946049BA660E660B9
:104990002661535053464B3963603A000623029414
:1049A000062001960095FF39FCF7CAFE43461B68B6
:1049B0008C2206934346DB69D3AC079343469B6B3B
:1049C000089343465B6D099343461B6F0A93434626
:1049D0009B5804320B9343465B680C9343461B6A17
:1049E0000D934346DB6B0E9343469B6D0F934346FB
:1049F0005B6F109343469B580432119343469B6868
:104A0000129343465B6A139343461B6C14934346CD
:104A1000DB6D159343469B6F169343469B580432B8
:104A200017934346DB68189343469B6A19934346A2
:104A30005B6C1A9343461B6E1B934346DB6F1C93C0
:104A400043469B58183A1D9343461B691E934346A1
:104A5000DB6A1F9343469B6C209343465B6E219316
:104A600043469B581C32229343469B58183A239343
:104A700043465B69249343461B6B25934346DB6C9B
:104A8000269343469B6E279343469B581C3228939C
:104A900043469B58183A299343469B692A934346B9
:104AA0005B6B2B9343461B6D2C934346DB6E2D9320
:104AB00043469B581C322E9343469B58A8462F933F
:104AC0004B46329302E0C0462404000043461F6870
:104AD0005B6842469946434641469B68D2680E69E8
:104AE0004D6907984946049305920CF0CAFB049956
:104AF000824608980CF0C5FB011C50460CF0AAFB3E
:104B0000391C824606980CF0BCFB011C50460CF088
:104B1000A1FB311C82460A980CF0B3FB291C83468A
:104B20000B980CF0AEFB011C58460CF093FB05995A
:104B3000834609980CF0A5FB011C58460CF08AFB33
:104B4000011C50460CF086FB494620600D980CF085
:104B500098FB049982460E980CF093FB011C50467A
:104B60000CF078FB391C82460C980CF08AFB011C77
:104B700050460CF06FFB311C824610980CF081FB04
:104B8000291C834611980CF07CFB011C58460CF044
:104B900061FB059983460F980CF073FB011C584686
:104BA0000CF058FB011C50460CF054FB4946606069
:104BB00013980CF066FB0499824614980CF061FB84
:104BC000011C50460CF046FB391C824612980CF032
:104BD00058FB011C50460CF03DFB311C82461698D8
:104BE0000CF04FFB291C834617980CF04AFB011C64
:104BF00058460CF02FFB0599834615980CF041FBA5
:104C0000011C58460CF026FB011C50460CF022FB00
:104C10004946A06019980CF034FB049982461A9812
:104C20000CF02FFB011C50460CF014FB391C824683
:104C300018980CF026FB011C50460CF00BFB311CA5
:104C400082461C980CF01DFB291C83461D980CF015
:104C500018FB011C58460CF0FDFA059983461B9879
:104C60000CF00FFB011C58460CF0F4FA011C5046E6
:104C70000CF0F0FA4946E0601F980CF002FB049932
:104C8000824620980CF0FDFA011C50460CF0E2FA26
:104C9000391C82461E980CF0F4FA011C50460CF0A8
:104CA000D9FA311C824622980CF0EBFA291C834673
:104CB00023980CF0E6FA011C58460CF0CBFA059943
:104CC000834621980CF0DDFA011C58460CF0C2FA1C
:104CD000011C50460CF0BEFA4946206125980CF0A4
:104CE000D0FA0499824626980CF0CBFA011C504663
:104CF0000CF0B0FA391C824624980CF0C2FA011C60
:104D000050460CF0A7FA311C824628980CF0B9FAEC
:104D1000291C834629980CF0B4FA011C58460CF063
:104D200099FA0599834627980CF0ABFA011C58466E
:104D30000CF090FA011C50460CF08CFA4946606168
:104D40002B980CF09EFA049981462C980CF099FA55
:104D5000011C48460CF07EFA391C81462A980CF05A
:104D600090FA011C48460CF075FA311C071C2E986D
:104D70000CF087FA291C061C2F980CF082FA011CF3
:104D8000301C0CF067FA0599051C2D980CF079FA87
:104D9000011C281C0CF05EFA011C381C0CF05AFA9D
:104DA00018239C46A061FDAB1C34E044A34200D014
:104DB0008CE6329BD49A9946D39BD599D69CD79DA5
:104DC000D89ED99F06930792DA9BDB9A08910994A3
:104DD000DC99DD9C0A950B96DE9DDF9E0C970D936A
:104DE000E09FE19B0E92E29A0F911094119512961A
:104DF000139714931592E399E49CE59DE69EE79F33
:104E0000E89BE99A16911794EA99EB9C18951996E4
:104E1000EC9DED9E1A971B93EE9FEF9B1C921D91AC
:104E2000F09AF1991E94F29C209621972293239256
:104E3000249125941F95F39DF49EF59FF79AF69B78
:104E4000F899F99C26952796FA9DFB9E2897FC9F3A
:104E50002A923A9A29932B912C942D952E962F973E
:104E6000D3AB32CA32C332CA32C31168D3AC196071
:104E7000FD49FE4B09681B680191FD49FD4A09681F
:104E80002000009141A9FDF7CDFF319F419938687D
:104E90000CF0DDF94299834678680CF0D8F9439913
:104EA0008246B8680CF0D3F94499041CF8680CF0F9
:104EB000CEF94599051C38690CF0C9F94699061CCC
:104EC00078690CF0C4F9071C011C2A980CF0D9F978
:104ED000311C804623980CF0D4F9011C40460CF09C
:104EE000B9F9291C80461C980CF0CBF9011C4046EE
:104EF0000CF0B0F9211C804615980CF0C2F951460F
:104F000004900E980CF0BDF9011C04980CF0A2F965
:104F10005946049007980CF0B4F9011C04980CF061
:104F200099F9011C40460CF095F93A9A51680CF039
:104F300091F9391C04902B980CF0A3F9311C804690
:104F400024980CF09EF9011C40460CF083F9291CB2
:104F500080461D980CF095F9011C40460CF07AF93A
:104F6000211C804616980CF08CF9514605900F983C
:104F70000CF087F9011C05980CF06CF95946059066
:104F800008980CF07EF9011C05980CF063F9011CDF
:104F900040460CF05FF93A9A91680CF05BF9391CC5
:104FA00005902C980CF06DF9311C804625980CF07A
:104FB00068F9011C40460CF04DF9291C80461E98EA
:104FC0000CF05FF9011C40460CF044F9211C8046AE
:104FD00017980CF056F95146319010980CF051F991
:104FE000011C31980CF036F95946319009980CF0B3
:104FF00048F9011C31980CF02DF9011C40460CF0C9
:1050000029F93A9AD1680CF025F9391C31902D987C
:105010000CF037F9311C804626980CF032F9011C4F
:1050200040460CF017F9291C80461F980CF029F90E
:10503000011C40460CF00EF9211C804618980CF01B
:1050400020F95146329011980CF01BF9011C32984E
:105050000CF000F9594632900A980CF012F9011C34
:1050600032980CF0F7F8011C40460CF0F3F83A9A2D
:1050700011690CF0EFF8391C32902E980CF001F900
:10508000311C804627980CF0FCF8011C40460CF0BF
:10509000E1F8291C804620980CF0F3F8011C4046EA
:1050A0000CF0D8F8211C804619980CF0EAF851460B
:1050B000339012980CF0E5F8011C33980CF0CAF804
:1050C000594633900B980CF0DCF8011C33980CF027
:1050D000C1F8011C40460CF0BDF83A9A51690CF039
:1050E000B9F85146339013980CF0CBF8211C804648
:1050F0001A980CF0C6F8011C40460CF0ABF8594663
:1051000080460C980CF0BDF8011C40460CF0A2F84B
:10511000311C804628980CF0B4F8391C34902F9834
:105120000CF0AFF8011C34980CF094F8291C349062
:1051300021980CF0A6F8011C34980CF08BF8011C97
:1051400040460CF087F83A9A91690CF083F8391CC4
:10515000804629980CF095F8311C071C22980CF019
:1051600090F8011C381C0CF075F8291C061C1B98C3
:105170000CF087F8011C301C0CF06CF8211C051C8D
:1051800014980CF07EF85146041C0D980CF079F838
:10519000011C201C0CF05EF85946041C06980CF00B
:1051A00070F8011C201C0CF055F8011C281C0CF098
:1051B00051F83A9AD3AC11680CF04CF83B9B049A26
:1051C00018605A60059A9A60319ADA60329A1A61C8
:1051D000339A5A6142469A614B461B684A46A293EB
:1051E0004B465B68A3934B469B68A4934B46DB6896
:1051F000A5934B461B69A6934B465B69A7934B4609
:105200009B69A8934B46DB69A9934B461B6AAA93FB
:105210004B465B6AAB934B469B6AAC934B46DB6A4F
:10522000AD934B461B6BAE934B465B6BAF934B46BC
:105230009B6BB0934B46DB6BB1934B461B6CB293AD
:105240004B465B6CB3934B469B6CB4934B46DB6C09
:10525000B5934B461B6DB6934B465B6DB7934B4670
:105260009B6DB8934B4607E00022032008220320E1
:10527000042203200AE81C41DB6DB9934B461B6EE8
:10528000BA934B465B6EBB934B469B6EBC934B46AF
:10529000DB6EBD934B461B6FBE934B465B6FBF935C
:1052A0004B469B6FC0934B46DB6FC1938023D35813
:1052B000C2938423D358C3938823D358C4938C2395
:1052C000D358C5939023D358C6939423D358C793E8
:1052D0009823D358C8939C23D358C993A023D35859
:1052E000CA93A423D358CB93A823D358CC93AC23ED
:1052F000D358CD93B023D358CE93B423D358CF9360
:10530000B823D358D093BC23D358D193C023D358B8
:10531000D293309B3092984643461F685B68424662
:105320009946434641469B68D2680E694D690D987F
:105330004946049305920BF0A4FF04998246149801
:105340000BF09FFF011C50460BF084FF391C824676
:1053500006980BF096FF011C50460BF07BFF311CAA
:10536000824622980BF08DFF291C834629980BF06A
:1053700088FF011C58460BF06DFF059983461B986A
:105380000BF07FFF011C58460BF064FF011C5046D8
:105390000BF060FF494620600E980BF072FF0499F5
:1053A000824615980BF06DFF011C50460BF052FF22
:1053B000391C824607980BF064FF011C50460BF025
:1053C00049FF311C824623980BF05BFF291C834662
:1053D0002A980BF056FF011C58460BF03BFF05992D
:1053E00083461C980BF04DFF011C58460BF032FF12
:1053F000011C50460BF02EFF494660600F980BF0E1
:1054000040FF0499824616980BF03BFF011C504662
:105410000BF020FF391C824608980BF032FF011C6C
:1054200050460BF017FF311C824624980BF029FFE1
:10543000291C83462B980BF024FF011C58460BF0C7
:1054400009FF059983461D980BF01BFF011C584668
:105450000BF000FF011C50460BF0FCFE4946A0601B
:1054600010980BF00EFF0499824617980BF009FF75
:10547000011C50460BF0EEFE391C824609980BF0D9
:1054800000FF011C50460BF0E5FE311C82462598BA
:105490000BF0F7FE291C83462C980BF0F2FE011C42
:1054A00058460BF0D7FE059983461E980BF0E9FE8F
:1054B000011C58460BF0CEFE011C50460BF0CAFEF4
:1054C0004946E06011980BF0DCFE0499824618987A
:1054D0000BF0D7FE011C50460BF0BCFE391C824677
:1054E0000A980BF0CEFE011C50460BF0B3FE311CA7
:1054F000824626980BF0C5FE291C83462D980BF09A
:10550000C0FE011C58460BF0A5FE059983461F9866
:105510000BF0B7FE011C58460BF09CFE011C5046D8
:105520000BF098FE4946206112980BF0AAFE0499F0
:10553000824619980BF0A5FE011C50460BF08AFE1E
:10554000391C82460B980BF09CFE011C50460BF058
:1055500081FE311C824627980BF093FE291C83465E
:105560002E980BF08EFE011C58460BF073FE059929
:10557000834620980BF085FE011C58460BF06AFE0E
:10558000011C50460BF066FE4946606113980BF013
:1055900078FE049981461A980BF073FE011C484668
:1055A0000BF058FE391C81460C980BF06AFE011C6A
:1055B00048460BF04FFE311C071C28980BF061FE8B
:1055C000291C061C2F980BF05CFE011C301C0BF0F4
:1055D00041FE0599051C21980BF053FE011C281C67
:1055E0000BF038FE011C381C0BF034FE18239C46CF
:1055F000FFABA06114331C34E044A34200D08BE61F
:10560000309BA2AD99463C93C4234C46C8464B44BC
:10561000089307944246D268434641469146424623
:105620009E694C68096892685F691B690491301C27
:10563000FD99069305920BF024FEF6998246381CDC
:105640000BF01FFE011C50460BF004FEEF99824642
:1056500006980BF016FEE899834648460BF011FEBB
:10566000011C58460BF0F6FD011C50460BF0F2FDF4
:10567000E199824605980BF004FEDA998346201CD6
:105680000BF0FFFD011C58460BF0E4FDD399834657
:1056900004980BF0F6FD011C58460BF0DBFD011CD5
:1056A00050460BF0D7FD011C28680BF0D0FD286098
:1056B000FE99301C0BF0E5FDF7998246381C0BF083
:1056C000E0FD011C50460BF0C5FDF099824606989E
:1056D0000BF0D7FDE999834648460BF0D2FD011C3B
:1056E00058460BF0B7FD011C50460BF0B3FDE29994
:1056F000824605980BF0C5FDDB998346201C0BF014
:10570000C0FD011C58460BF0A5FDD49983460498B2
:105710000BF0B7FD011C58460BF09CFD011C5046D8
:105720000BF098FD011C68680BF091FDFF99686013
:10573000301C0BF0A6FDF8998246381C0BF0A1FD39
:10574000011C50460BF086FDF199824606980BF03D
:1057500098FDEA99834648460BF093FD011C584694
:105760000BF078FD011C50460BF074FDE399824666
:1057700005980BF086FDDC998346201C0BF081FD1B
:10578000011C58460BF066FDD599834604980BF032
:1057900078FD011C58460BF05DFD011C50460BF0D6
:1057A00059FD011CA8680BF052FDFFAB5968A860B9
:1057B000301C04330BF065FDF9998246381C0BF060
:1057C00060FD011C50460BF045FDF299824606989B
:1057D0000BF057FDEB99834648460BF052FD011C38
:1057E00058460BF037FD011C50460BF033FDE49991
:1057F000824605980BF045FDDD998346201C0BF091
:1058000040FD011C58460BF025FDD69983460498AF
:105810000BF037FD011C58460BF01CFD011C5046D7
:105820000BF018FD011CE8680BF011FDFFAB996847
:10583000E860301C08330BF024FDFA998246381CCE
:105840000BF01FFD011C50460BF004FDF39982463E
:1058500006980BF016FDEC99834648460BF011FDB7
:10586000011C58460BF0F6FC011C50460BF0F2FCF4
:10587000E599824605980BF004FDDE998346201CCD
:105880000BF0FFFC011C58460BF0E4FCD799834653
:1058900004980BF0F6FC011C58460BF0DBFC011CD5
:1058A00050460BF0D7FC011C28690BF0D0FCFFAB75
:1058B000D9682861301C0C330BF0E3FCFB9982465D
:1058C000381C0BF0DEFC011C50460BF0C3FCF499B5
:1058D000824606980BF0D5FCED99834648460BF0BE
:1058E000D0FC011C58460BF0B5FC011C50460BF0D7
:1058F000B1FCE699824605980BF0C3FCDF9983461C
:10590000201C0BF0BEFC011C58460BF0A3FCD899E0
:10591000834604980BF0B5FC011C58460BF09AFC2A
:10592000011C50460BF096FC011C68690BF08FFCC3
:10593000EE99686148460BF0A4FCF59981460698FB
:105940000BF09FFC011C48460BF084FCFC9981463F
:10595000381C0BF096FCFFAB1969071C301C103388
:105960000BF08FFC011C381C0BF074FC011C48462A
:105970000BF070FCE099061C201C0BF082FCE799F0
:10598000041C05980BF07DFC011C201C0BF062FC34
:10599000D999041C04980BF074FC011C201C0BF01A
:1059A00059FC011C301C0BF055FC011CA8690BF0C4
:1059B0004EFC1C239C46089BE044A8611C3598457E
:1059C00000D027E6079BA29A99461A60A39A5A60CC
:1059D000A49A9A60A59ADA60A69A1A61A79A5A615F
:1059E000A89A9A61A99ADA61AA9A1A62AB9A5A623B
:1059F000AC9A9A62AD9ADA62AE9A1A63AF9A5A6317
:105A0000B09A9A63B19ADA63B29A1A64B39A5A64F2
:105A1000B49A9A64B59ADA64B69A1A65B79A5A65CE
:105A2000B89A9A65B99ADA65BA9A1A66BB9A5A66AA
:105A3000BC9A9A66BD9ADA66BE9A1A67BF9A5A6786
:105A4000C09A9A67C19ADA674A468023C299D150B0
:105A5000C3990433D150C4990433D150C599043348
:105A6000D150C6990433D150C7990433D150C89945
:105A70000433D150C9990433D150CA990433D15059
:105A8000CB990433D150CC990433D150CD99043300
:105A9000D150CE990433D150CF990433D150D099FD
:105AA0000433D150D1990433D150D2990433D15019
:105AB0003AAA9446504BA2AA63441B6813CB13C264
:105AC0004E4BD3AC63441B6807CB07C43A9B3B9D4A
:105AD00000934B4B28006344A2A91B68D3AAFDF78F
