:020000041000EA
:1000000000B5324B212058609868022188439860DF
:10001000D860186158612E4B002199600221596106
:100020000121F02299502B49196001219960352056
:1000300000F044F80222904214D00621196600F024
:1000400034F8196E01211966002018661A6600F04E
:100050002CF8196E196E196E052000F02FF8012189
:100060000842F9D1002199601B49196000215960AB
:100070001A491B48016001219960EB211966A021F2
:10008000196600F012F800219960164914480160C1
:100090000121996001BC002800D000471248134993
:1000A000086003C880F30888084703B5996A0420EC
:1000B0000142FBD001200142F8D103BD02B5186610
:1000C0001866FFF7F2FF186E186E02BD00000240BE
:1000D000000000180000070000035F00212200005C
:1000E000F4000018222000A00001001008ED00E03C
:1000F00000000000000000000000000074B24E7A12
:1001000000200420F7010010C3010010C5010010F9
:10011000C1010010C1010010C1010010C101001097
:10012000C1010010C1010010C1010010C701001081
:10013000C1010010C1010010C9010010CB01001065
:10014000CD010010CD010010CD010010CD01001037
:10015000CD010010CD010010CD010010CD01001027
:10016000CD010010CD010010CD010010CD01001017
:10017000CD010010CD010010CD010010CD01001007
:10018000CD010010CD010010CD010010CD010010F7
:10019000CD010010CD010010CD010010CD010010E7
:1001A000CD010010CD010010CD010010CD010010D7
:1001B000CD010010CD010010CD010010CD010010C7
:1001C00000BE00BE00BE00BE00BE00BEEFF3058054
:1001D000103800BEF2EB8871404B0510604B0510E3
:1001E0003402001090A31AE700201F49086006C8D7
:1001F00081F3088810471D48006800282FD10DA4FE
:100200000ECC002902D000F012F8F9E71849194A7B
:10021000002000E001C19142FCD1174988471749ED
:1002200088471749884700BEFDE701C901C29A42C5
:10023000FBD37047604B0510C0000020102D00203C
:10024000B07705100000042000000420B0770510EE
:10025000001004200010042000000000704709482E
:100260000DF03CFA0047000008ED00E0000000D06F
:10027000102D00202059032021BE0010550300102E
:1002800055BF00105756000006005250ABB36053E4
:1002900030A9041006005250861C030240A9041025
:1002A000060052505422A29D4CA904100500525041
:1002B000DE65F468B0770510F8B5C0460448054B14
:1002C00010B5834203D0044B002B00D0984710BDDB
:1002D000102D0020102D00200000000006480749C6
:1002E000091A8B10C90FC91810B5491003D0044B57
:1002F000002B00D0984710BD102D0020102D00209D
:100300000000000010B5074C2378002B09D1FFF73F
:10031000D5FF054B002B02D0044800E000BF0123AD
:10032000237010BD582F00200000000060A40410AE
:10033000054B10B5002B03D00449054800E000BF71
:10034000FFF7CCFF10BDC046000000005C2F00206E
:1003500060A4041070B519200AF000F8D0238022A0
:100360001B0692045A620FF027F900F047F806F0D6
:10037000FFFC07F0E7FF06F00BFF09F03FFB002250
:100380000524144B1A7006F09DF9134D013C210011
:1003900028000FF005F9FA2080000AF0EBFD002C90
:1003A000F4D10A200EF05AFF012200210B480AF076
:1003B0009DFA0B4811F0DCFA01220A4B0A4C1A7024
:1003C0002378012BFCD108F079F92378012BFAD09E
:1003D000F6E7C0463C56032060A404107455032081
:1003E000018900103B5603204056032010B50248F7
:1003F00011F0E6FD10BDC04608370320092370B593
:1004000086B0059304330493023B0393013B0293AC
:10041000023B324D324C0193324B22003249334879
:1004200000932B0005F00CFE142005F005FEFA20C9
:1004300080000AF09FFD2E4E21003200280006F0B9
:1004400017F83378682B08D02A4C20000EF052FFA2
:10045000FA2080000AF08EFDF7E773783D2BF3D188
:1004600001222100280006F027F8234E3200210047
:10047000280006F05BF83378002BF7D10122210029
:10048000280005F0D7FE0121200005F0B5FE03216C
:10049000200005F047FE0321280005F071FF13211D
:1004A000200006F0B1F81221200006F0EBF8002140
:1004B000200006F0C9F80321200006F053F80221BD
:1004C000200006F06BF85521200005F049FE1821A8
:1004D000280005F0EFFE06B070BDC046F41E0320F4
:1004E000D830002040420F001C21002014210020A1
:1004F0000056032074A4041054560320F0B5C646D9
:10050000334C344D344E22002900300000B505F044
:10051000C1FF6378DB439B0720D023781B0702D4FD
:1005200004BC9046F0BD2D4C0622002120000EF0A8
:100530006FFD2100300005F07DFF0023E05E05F037
:10054000E7FD274D28600223E05E05F0E1FD6860CD
:100550000423E05E05F0DCFDA860E1E7214B062204
:100560009846180000210EF053FD1F4F062200216F
:1005700038000EF04DFD4146280005F03DFF3900E2
:10058000280005F01BFF43460020185E05F0ACFD77
:100590004346164D28600220185E05F0A5FD43462F
:1005A00068600420185E05F09FFDA8600023F85ED7
:1005B00005F0A4FD0E4D28600223F85E05F09EFDB7
:1005C00068600423F85E05F099FDA860A5E7C046C1
:1005D000884B0320D8300020F41E0320343C032035
:1005E000D4400320243C03202C3C0320C83A0320A1
:1005F000E43A0320F0B55746DE464E464546E0B5A0
:100600008BB008919246190005900993DA170323DD
:100610008C46134063449B109B009846002B00DCE3
:100620008FE05246159B00249B000193149B0025EC
:100630009B1A159A9B1A089A9B000293536812689A
:100640001901944606929A0003925246013A92008A
:100650000792002291465A000491DF005146D318B8
:100660009B0042469B4623008E0066440092019AFE
:1006700094469C44039B5C19D8195346002B1EDDFD
:10068000069B05995A196346884600999B00434486
:1006900088460095116819600099511A0D59043265
:1006A0005D60CD599D600958D96010339642F1D1F3
:1006B0004346079A00936346944604339C440422BD
:1006C000029B5C4463449446049AE1449446009A35
:1006D00058442500070066444A45C8DC1C00904683
:1006E000099B434526DD149A1598089B151A524616
:1006F0000ACBAD1A002A1DDD42469E0053439B00E3
:10070000C91853469800059B47469C46099BAB4633
:100710009846159B994600234C44A2006244CD584C
:10072000D55004339842FAD1544401375C448919B6
:10073000B845F0D10BB03CBC90469946A246AB46BA
:10074000F0BD0024CCE7C046F0B5CE46474680B5A4
:10075000002B1DDD002A1BDD940000190C6800250C
:10076000A0464C689100D200494252428C469146C4
:10077000A400614646183100AA00424417681219C5
:1007800080C18142FAD14A460135B01AAB42F0D15C
:100790000CBC90469946F0BDF0B5DE4657464E4635
:1007A0004546E0B599B00B9024980C93259B0130F9
:1007B00001D122982490581C00D1229B2398C41761
:1007C00003202040239CA44660448010850007201D
:1007D000229C02958443200001940C9C002C00DC98
:1007E00085E20091190113912699249C0901511861
:1007F0001691411EC9080131C801490109919900AA
:10080000179126996B438C4663449B00D31812932F
:100810000023A400149415900493029B002B00DC89
:10082000C1E1099A009B944663441193169B03937C
:10083000002305930598049C0100A4460B9B039E8E
:100840000CCB59436144890051180D91411C594307
:100850006144890051180E91811C594361448900FB
:1008600051180F91C11C4B4363449B00D318109344
:10087000019B3400002B00DC44E2009B00259846DD
:1008800000234446A946AA46AB46A84607950695C6
:100890002F1C08950A9325683168281C0EF037FA3A
:1008A00059460EF01DFA71688346281C0EF02FFA87
:1008B00051460EF015FAB1688246281C0EF027FA50
:1008C00049460EF00DFAF1688146281C0EF01FFA19
:1008D00008990EF005FA089065683169281C0EF039
:1008E00016FA391C0EF0FCF97169071C281C0EF071
:1008F0000EFA06990EF0F4F9B1690690281C0EF074
:1009000006FA07990EF0ECF9F1690790281C0EF031
:10091000FEF941460EF0E4F98046A568316A281CCC
:100920000EF0F5F959460EF0DBF9716A8346281C82
:100930000EF0EDF951460EF0D3F9B16A8246281C4B
:100940000EF0E5F949460EF0CBF9F16A8146281C14
:100950000EF0DDF908990EF0C3F90890E568316BE7
:10096000281C0EF0D4F9391C0EF0BAF9716B071C73
:10097000281C0EF0CCF906990EF0B2F9B16B069076
:10098000281C0EF0C4F907990EF0AAF9F16B079034
:10099000281C0EF0BCF941460EF0A2F980462569EC
:1009A000316C281C0EF0B3F959460EF099F9716CB0
:1009B0008346281C0EF0ABF951460EF091F9B16C4C
:1009C0008246281C0EF0A3F949460EF089F9F16C15
:1009D0008146281C0EF09BF908990EF081F90890C9
:1009E0006569316D281C0EF092F9391C0EF078F90A
:1009F000716D071C281C0EF08AF906990EF070F92B
:100A0000B16D0690281C0EF082F907990EF068F976
:100A1000F16D0790281C0EF07AF941460EF060F94E
:100A20008046A569316E281C0EF071F959460EF00A
:100A300057F9716E8346281C0EF069F951460EF085
:100A40004FF9B16E8246281C0EF061F949460EF04E
:100A500047F9F16E8146281C0EF059F908990EF0FD
:100A60003FF90890E569316F281C0EF050F9391CE8
:100A70000EF036F9716F071C281C0EF048F9069924
:100A80000EF02EF9B16F0690281C0EF040F9079970
:100A90000EF026F9F16F0790281C0EF038F9414648
:100AA0000EF01EF98046803620340A9B019A0833E6
:100AB0000A939A4200DDEEE6159A039B9446594646
:100AC0006344381C1C000EF00BF95146071C0698B5
:100AD0000EF006F94946061C07980EF001F9089930
:100AE000814640460EF0FCF8119B051C9B46229B5C
:100AF0001900019B994230DD9A46A8465B4620CBFF
:100B00002168281C9B460EF002F9011C381C0EF0CF
:100B1000E7F86168071C281C0EF0F9F8011C301C6E
:100B20000EF0DEF8A168061C281C0EF0F0F8011C7F
:100B300048460EF0D5F8E1688146281C0EF0E7F82B
:100B4000011C40460EF0CCF8804601239C46229BB7
:100B5000E24410345345D1D1051C311C0E9E30683F
:100B60000EF0BBF8391C0D9F041C38680EF0B5F868
:100B7000291C109D3860346028680EF0AEF80F9E76
:100B80004946041C30680EF0A8F81399039A8C4665
:100B9000059B62440392029A0433306005932C60F3
:100BA0009A4200DD46E6239B029A934200DC92E0E3
:100BB000099A009B944663440593029B129D9846B4
:100BC0000B9B9B465B465E6843465E43049BA9467F
:100BD0009C465B461A6866449446B600019B664490
:100BE0000396002B00DC89E000232E0000249A46A7
:100BF000009F316838680EF08AF8211C0EF070F8FA
:100C0000041C716878680EF082F8211C0EF068F8F8
:100C1000041CB168B8680EF07AF8211C0EF060F878
:100C2000041CF168F8680EF072F8211C0EF058F8F8
:100C3000041C316938690EF06AF8211C0EF050F876
:100C4000041C716978690EF062F8211C0EF048F8F6
:100C5000041CB169B8690EF05AF8211C0EF040F876
:100C6000041CF169F8690EF052F8211C0EF038F8F6
:100C7000041C2036203708239C46019BE244534540
:100C8000B7DC099B9946059BA9449A46229B019E85
:100C9000B34210DD00274B46D9595346D8590EF0C0
:100CA00036F8011C201C0EF01BF8041C229B013698
:100CB0000437B342EFD1211C039C20680EF00DF8DD
:100CC00001239C46179BE0449C46239B206065447F
:100CD000434500D076E71499009A8C46049B624401
:100CE00000920C9A013304939A4200D095E519B012
:100CF0003CBC90469946A246AB46F0BD009B002402
:100D00009A46C3E70025009BA9469B462E1C2F1C34
:100D1000EDE6C04630B587B00C4B02AD00951A68C1
:100D2000694602929A880400AA809B796A46AB7150
:100D3000072301930023D3732EF0F6F80098A842FE
:100D400001D00EF079F9200007B030BD88A404105E
:100D5000F0B5DE4657464E464546E0B50E00016802
:100D6000C7688946416805698A4681688DB08B46A7
:100D700041698069079306905068136892680591ED
:100D80000A90291C30680B92099308950DF0A5FF75
:100D90000599039070680DF0A0FF0699051CB068D6
:100DA0000DF09BFF804607980EF034F880231B0659
:100DB0009C46039E009001916644514630000DF020
:100DC000A6FF5946061C281C0DF0A1FF011C301C73
:100DD0000DF083FF391C061C404604970DF097FF69
:100DE000011C301C0DF079FF0EF014F80022684B46
:100DF0000CF041FF009A019B0CF03DFF06004846B5
:100E00000F000EF007F802000B0030003900169CAE
:100E10000CF00AFF0DF034F84946206003980DF0FD
:100E200076FF5946061C40460DF071FF011C301C30
:100E30000DF056FF0499061C281C0DF068FF011CDC
:100E4000301C0DF04AFF0DF0E5FF0022504B0CF076
:100E500012FF009A019B0CF00EFF060050460F0097
:100E60000DF0D8FF02000B00300039000CF0DCFE62
:100E70000DF006F849466060281C0DF048FF514609
:100E8000061C40460DF043FF011C301C0DF025FFF1
:100E90000499061C03980DF03AFF011C301C0DF05C
:100EA0001FFF0DF0B7FF0022394B0CF0E4FE009A53
:100EB000019B0CF0E0FE060058460F000DF0AAFF63
:100EC00002000B00300039000CF0AEFE0CF0D8FF31
:100ED0004946A06040460DF01AFF5146061C281CEA
:100EE0000DF015FF011C301C0DF0FAFE5946051CD3
:100EF00003980DF00CFF011C281C0DF0EEFE0DF008
:100F000089FF0022224B0CF0B6FE009A019B0CF0E8
:100F1000B2FE060004980F000DF07CFF02000B00EB
:100F2000300039000CF080FE0CF0AAFF089B0999F4
:100F3000E060181C98460DF0EAFE079D291C0DF094
:100F4000E6FE011C40460DF0C8FE059F0A9920618F
:100F5000381C0DF0DCFE291C0DF0D9FE011C381CDC
:100F60000DF0BBFE069E0B996061301C0DF0CFFEAC
:100F7000291C0DF0CCFE011C301C0DF0AEFEA06152
:100F800000200DB03CBC90469946A246AB46F0BD51
:100F90000000E03FF0B5DE4657464E4645468A46DD
:100FA0004168E0B58846C768816891B0066889469F
:100FB0004046391C141C04930DF0A9FE4946051C3B
:100FC000301C0DF0A4FE0A90011C281C09950DF0A0
:100FD00084FE0DF01FFF02000B000CF025FE0690B2
:100FE0000791201C02940DF015FF0B000200040075
:100FF0000D00069807990CF03EFE0CF041FF52469A
:10100000391C106048460DF082FE83464146301C74
:101010000DF07DFE5A460E90011C58460B920DF0C5
:101020005FFE0DF0F7FE02000B000CF0FDFD02006C
:101030000B00200029000C920D930CF01CFE0CF00C
:101040001FFF5446311C6060301C0DF060FE4146AD
:10105000041C40460DF05BFE051C011C201C0DF01D
:101060003CFE4946089048460DF051FE391C834627
:10107000381C0DF04CFE5946019008980DF02DFEDD
:1010800001990DF02DFE02990F900DF040FE534690
:101090004946986040460DF03AFE391C8046301CA7
:1010A0000DF035FE81461A980DF0B4FE06001B982F
:1010B0000F000DF0AFFE02900391291C201C0DF0D3
:1010C0000FFE59460DF009FE01990DF006FE049938
:1010D0000DF01DFE0DF09EFE04000D004046494639
:1010E0000DF0FEFD0DF096FE02000B000CF09CFDD5
:1010F00032003B000CF0BFFD02000B002000290075
:101100000CF092FD029A039B04000D0006980799CB
:101110000CF0B1FD02000B00200029000CF084FD52
:101120000CF0AEFE5346D86004980DF073FE040038
:101130000D00404649460DF0D0FD0DF06BFE02005B
:101140000B000CF071FD22002B00049405950CF0AF
:1011500092FD04000D00089859460DF0C1FD01995B
:101160000DF0BBFD1A990DF0D2FD0DF053FE0200FB
:101170000B00200029000CF057FD029A039B04008D
:101180000D000C980D990CF076FD02000B0020006C
:1011900029000CF049FD0CF073FE53460A991861C2
:1011A00009980DF09DFD0DF035FE02000B000CF0CE
:1011B0003BFD049A059B0CF05EFD04000D000B98AE
:1011C0000E990DF08AFD0DF025FE02000B000CF0CB
:1011D0002BFD32003B000CF04EFD02000B00200006
:1011E00029000CF021FD04000D000F981B990DF053
:1011F0008EFD0DF00FFE02000B00200029000CF008
:1012000013FD0CF03DFE53465861002011B03CBC6C
:1012100090469946A246AB46F0BDC046F0B50400E4
:10122000DE4657464E4645460800E0B54568096823
:10123000AA46856895B0AB46C5684669876910912E
:101240000E950169556810689268049690461A6870
:10125000069711925A689B6812921393FE239B057E
:10126000236099460DF039FD0DF0D4FD00900191F9
:101270001E980DF0CFFD06000F0000980199002286
:10128000924B0CF0F8FC32003B000CF0F4FC0CF03C
:10129000F7FD04990390E061281C0DF01EFD0DF090
:1012A000B9FD0022894B049005910CF0E4FC32005A
:1012B0003B000CF0E0FC0CF0E3FD0699051CA0637C
:1012C00040460DF00AFD0DF0A5FD00227F4B069073
:1012D00007910CF0D0FC32003B000CF0CCFC0CF081
:1012E000CFFD0A90606550460DF094FD0022784BCA
:1012F000089009910CF0BFFC32003B000CF0BBFCE5
:101300000CF0BEFD0B90206758460DF083FD0022C7
:101310006F4B0C900D910CF0AEFC32003B000CF0CA
:10132000AAFC0CF0ADFD8C238246E0500E980DF027
:1013300071FD0022664B0E900F910CF09CFC320068
:101340003B000CF098FC0CF09BFDA8238346E0507A
:101350000022009801995E4B0CF08DFC32003B009E
:101360000CF089FC0CF08CFD494600906060216215
:10137000002206980799564B0CF07DFC32003B008A
:101380000CF079FC0CF07CFDA5658046E0631098BC
:101390000DF040FD00224D4B0CF06DFC32003B0087
:1013A0000CF069FC0CF06CFD59469023051C60673D
:1013B0000022E1500C980D99444B0CF05CFC32007B
:1013C0003B000CF058FC0CF05BFDAC230022E0501D
:1013D000049805993E4B0CF04EFC32003B000CF09B
:1013E0004AFC0CF04DFD49460A9A83466262009A17
:1013F000A0602164E2650E980F990022334B0CF037
:101400003AFC32003B000CF036FC0CF039FD942322
:101410000B99A067E5501C33E1504146E160594605
:10142000A162494621665146039BE16763640898BF
:1014300009990022254B0CF01EFC32003B000CF0F9
:101440001AFC0CF01DFD9823E0501C33E5500025DC
:101450001E9911982561E562A56465660DF057FC3B
:10146000011C48460DF039FC8023E0501C33E55048
:101470001C33E550343B1E99129865612563E56481
:10148000A566E5500DF043FC011C48460DF025FC17
:10149000A023E0501C33E550343BA561656325650E
:1014A000E566E5501C33E5501E9913980DF02FFCAE
:1014B000011C48460DF011FCC023E050002015B07F
:1014C0003CBC90469946A246AB46F0BD0000E0BF4A
:1014D0000000E03FF0B5DE4657464E464546E0B5D3
:1014E0009A460B68141C8A689B464B68C9688BB087
:1014F0000500101C8846009301920DF08BFC0290B1
:101500000391201C0DF086FCC02306000F000298FA
:10151000039900221B060CF0AEFB32003B000CF0DE
:10152000AAFB0CF0ADFC0890286040460DF072FC60
:1015300002000B000CF078FB32003B000CF09BFB30
:101540000CF09EFC041CA86158460DF063FCC023FF
:1015500000221B06049005910CF08DFB32003B002D
:101560000CF089FB0CF08CFC286300980DF052FC09
:1015700002000B00069007910CF056FB32003B0076
:101580000CF079FB0CF07CFC002190238946A864C8
:101590002966A967E95068600498059902000B0064
:1015A0000CF042FB32003B000CF065FB0CF068FCD9
:1015B0006C630490E8610298039902000B000CF040
:1015C00033FB32003B000CF056FB0CF059FC494653
:1015D0009423E8646966E967E950C023069807998F
:1015E000049A1B06AA6000220CF045FB32003B0067
:1015F0000CF041FB0CF044FC089B4946AB63802394
:1016000028622C65A966E9501833E95040461499C0
:101610000DF07DFB019F1599061C381C0DF077FB22
:101620005146041C58460DF072FB311C0DF058FB5E
:10163000211C06940DF051FB011C0DF051FB51468D
:101640000990E86000980DF062FB1499041C381CA6
:1016500001970DF05CFB011C201C0DF041FB15995E
:10166000041C40460DF053FB011C201C0DF038FB00
:10167000011C0DF035FB14990290686200980DF082
:1016800046FB1599089058460DF041FB019A8024BD
:10169000944624066444071C514620000DF037FB95
:1016A00008990DF01DFB391C0DF017FB011C0DF006
:1016B00017FB1499E86358460DF029FB159904901F
:1016C00000980DF024FB802212064244041C51466F
:1016D00010000DF01CFB04990DF002FB211C0DF015
:1016E000FFFA011C0DF0FCFA4A468423EA6668659D
:1016F000EA501833EA505146286101980DF007FB73
:1017000008990DF0EAFA391C0DF0EAFA011C0DF007
:10171000E7FA071CA8628020029B00062B64514652
:1017200058440DF0F4FA311C0DF0D7FA06990DF07B
:10173000D7FA011C0DF0D4FA8823A865484628671B
:10174000E8501833E850514640466F610DF0DFFA1B
:1017500004990DF0C2FA211C0DF0BFFA011C0DF026
:10176000BFFA099AE8626A64029B4A46EB654B46F7
:101770006B678C230020EA501833EA500BB03CBC56
:1017800090469946A246AB46F0BDC046F0B54546E8
:10179000DE4657464E46E0B53B4CC723A54434AA27
:1017A000944663441B091B0105938B680490319395
:1017B0000B6833911A6864462A929A692B921A6BC5
:1017C0002C929A6C2D921A6E2E929A6F2F929022D2
:1017D0009A5830925A680692DA6908925A6B0992BE
:1017E000DA6C0A925A6E0B92DA6F0C9294229A5823
:1017F0000D929A680E921A6A0F929A6B10921A6D55
:1018000011929A6E129280229A58139298229A58A4
:101810001492DA6815925A6A1692DA6B17925A6D18
:101820001892DA6E199284229A581A929C229A5827
:101830001B921A6932941C929A6A1D921A6C1E921B
:101840009A6D1F921A6F209288229A582192A02294
:101850009A5822925A692392DA6A24925A6C2592F3
:10186000DA6D26925A6F27928C229A582892A422D7
:101870009B5829934B689846C42343440793434697
:10188000E0461C0002E0C046ACFDFFFFE168A26834
:10189000894621692368484603912D990292019354
:1018A0000DF035FA2E99824603980DF030FA011C9E
:1018B00050460DF015FA676982462F99381C0DF0D5
:1018C00026FAA66983463099301C0DF020FA011CD7
:1018D00058460DF005FA011C50460DF001FA6568F6
:1018E00082462B99281C0DF012FA2C9983460298F7
:1018F0000DF00DFA011C58460DF0F2F92A998346B5
:1019000001980DF004FA011C58460DF0E9F9011C8C
:1019100050460DF0E5F94346494618600A980DF027
:10192000F6F9039982460B980DF0F1F9011C504627
:101930000DF0D6F9391C82460C980DF0E8F9311CEF
:1019400083460D980DF0E3F9011C58460DF0C8F9D7
:10195000011C50460DF0C4F9291C824608980DF070
:10196000D6F90299834609980DF0D1F9011C584621
:101970000DF0B6F90199834606980DF0C8F9011CDF
:1019800058460DF0ADF9011C50460DF0A9F943463B
:101990004946586011980DF0BAF903998246129899
:1019A0000DF0B5F9011C50460DF09AF9391C82462C
:1019B00013980DF0ACF9311C834614980DF0A7F97B
:1019C000011C58460DF08CF9011C50460DF088F9A9
:1019D000291C82460F980DF09AF9029983461098B7
:1019E0000DF095F9011C58460DF07AF901998346DE
:1019F0000E980DF08CF9011C58460DF071F9011C80
:101A000050460DF06DF943464946986018980DF020
:101A10007EF90399824619980DF079F9011C504618
:101A20000DF05EF9391C82461A980DF070F9311CE0
:101A300083461B980DF06BF9011C58460DF050F9C8
:101A4000011C50460DF04CF9291C824616980DF0E9
:101A50005EF90299834617980DF059F9011C584612
:101A60000DF03EF90199834615980DF050F9011CCF
:101A700058460DF035F9011C50460DF031F943463A
:101A80004946D8601F980DF042F903998246209884
:101A90000DF03DF9011C50460DF022F9391C82462B
:101AA00021980DF034F9311C834622980DF02FF95E
:101AB000011C58460DF014F9011C50460DF010F9A8
:101AC000291C82461D980DF022F9029983461E9822
:101AD0000DF01DF9011C58460DF002F901998346DD
:101AE0001C980DF014F9011C58460DF0F9F8011C72
:101AF00050460DF0F5F843464946186126980DF01A
:101B000006F90399814627980DF001F9011C484612
:101B10000DF0E6F8391C814628980DF0F8F8311CD4
:101B2000071C29980DF0F3F8011C381C0DF0D8F8AB
:101B3000011C48460DF0D4F8291C061C24980DF011
:101B4000E6F80299051C25980DF0E1F8011C281C07
:101B50000DF0C6F80199051C23980DF0D8F8011C6A
:101B6000281C0DF0BDF8011C301C0DF0B9F84346DF
:101B7000586118239C46079B1C34E044A34200D0C4
:101B800084E6319A1368089393690993136B0A9357
:101B9000936C0B93136E0C93936F0D939023D35808
:101BA0000E9353680F93D3691093536B1193D36CB7
:101BB0001293536E1393D36F14939423D3581593A6
:101BC00093681693136A1793936B1893136D199375
:101BD000936E1A938023D3581B939823D3581C9346
:101BE000D3681D93536A1E93D36B1F93536D209339
:101BF000D36E21938423D35822939C23D3582393C9
:101C000013692493936A2593136C2693936D2793FA
:101C1000136F059C28938823D35820342993A0233D
:101C2000D358A1462A9353692B93D36A2C93536CB0
:101C30002D93D36D2E93536F2F938C23D3583093C2
:101C4000A423D358319358AB0693329B1A0098467D
:101C50001832079243464246414640461B68956902
:101C60000193069B146B096E926C40CB876F0291B7
:101C7000101C0B99039206930DF049F80C998246BB
:101C800002980DF044F8011C50460DF029F80D990A
:101C90008246381C0DF03BF80E998346301C0DF03F
:101CA00036F8011C58460DF01BF8011C50460DF08B
:101CB00017F809998246281C0DF029F80A998346DD
:101CC000201C0DF024F8011C58460DF009F8089965
:101CD000834601980DF01BF8011C58460DF000F8E2
:101CE000011C50460CF0FCFF4B46129918600398FB
:101CF0000DF00DF81399824602980DF008F8011CBA
:101D000050460CF0EDFF14998246381C0CF0FFFF92
:101D100015998346301C0CF0FAFF011C58460CF054
:101D2000DFFF011C50460CF0DBFF10998246281C97
:101D30000CF0EDFF11998346201C0CF0E8FF011C0C
:101D400058460CF0CDFF0F99834601980CF0DFFF49
:101D5000011C58460CF0C4FF011C50460CF0C0FF9B
:101D60004B461999586003980CF0D1FF1A99824696
:101D700002980CF0CCFF011C50460CF0B1FF1B99EF
:101D80008246381C0CF0C3FF1C998346301C0CF0B3
:101D9000BEFF011C58460CF0A3FF011C50460CF07E
:101DA0009FFF17998246281C0CF0B1FF18998346B3
:101DB000201C0CF0ACFF011C58460CF091FF16994A
:101DC000834601980CF0A3FF011C58460CF088FFD5
:101DD000011C50460CF084FF4B46209998600398F4
:101DE0000CF095FF2199824602980CF090FF011C9F
:101DF00050460CF075FF22998246381C0CF087FF84
:101E000023998346301C0CF082FF011C58460CF0CD
:101E100067FF011C50460CF063FF1E998246281C88
:101E20000CF075FF1F998346201C0CF070FF011CFD
:101E300058460CF055FF1D99834601980CF067FF3A
:101E4000011C58460CF04CFF011C50460CF048FF9A
:101E50004B462799D86003980CF059FF2899824681
:101E600002980CF054FF011C50460CF039FF2999E0
:101E70008246381C0CF04BFF2A998346301C0CF02C
:101E800046FF011C58460CF02BFF011C50460CF07D
:101E900027FF25998246281C0CF039FF2699834696
:101EA000201C0CF034FF011C58460CF019FF24993B
:101EB000834601980CF02BFF011C58460CF010FFD4
:101EC000011C50460CF00CFF4B462E9918610398EC
:101ED0000CF01DFF2F99824602980CF018FF011C90
:101EE00050460CF0FDFE30998246381C0CF00FFF76
:101EF0003199071C301C0CF00AFF011C381C0CF037
:101F0000EFFE011C50460CF0EBFE2C99061C281C21
:101F10000CF0FDFE2D99051C201C0CF0F8FE011C98
:101F2000281C0CF0DDFE2B99041C01980CF0EFFE30
:101F3000011C201C0CF0D4FE011C301C0CF0D0FE47
:101F40004B46586104239C461433E0449C46079B4F
:101F5000E144984500D07DE6339B059DDC68296A05
:101F600020680CF0BDFE049EA96B306060680CF028
:101F7000B7FE7060A068296D0CF0B2FEB060E0683A
:101F8000A96E0CF0ADFE8023F0602069E9589846F8
:101F90000CF0A6FE98233061E95860690CF0A0FEB1
:101FA0007061A069696A0CF09BFEB061E069E96B41
:101FB0000CF096FEF061206A696D0CF091FE3062C3
:101FC000E96E606A0CF08CFE84277062A06AE959A1
:101FD0000CF086FE9C23B062E958E06A0CF080FEAB
:101FE000F062206BA96A0CF07BFE3063606B296C99
:101FF0000CF076FE7063A06BA96D0CF071FEB063FF
:10200000E06B296F0CF06CFE0496F0638826206C60
:10201000A9590CF065FE049B1864A023606CE95874
:102020000CF05EFE049BE96A5864A06C0CF058FE4C
:10203000049B696C9864E06C0CF052FE049BE96DA3
:10204000D864206D0CF04CFE049B696F1865606DC0
:1020500005950CF045FE8C25049A059B5065A06DF6
:1020600059590CF03DFEA423049A9065059AE06D41
:10207000D1580CF035FE0499059AC865206E116B95
:102080000CF02EFE0499059A0866916C606E0CF0B7
:1020900027FE0499059A4866A06E116E0CF020FE8A
:1020A0000499059A8866E06E916F0CF019FE9023F2
:1020B0000499059AC866206FD1580CF011FEA82328
:1020C0000499059A0867606FD1580CF009FE0499CD
:1020D000059A4867A16F506B0CF002FE0499059AAF
:1020E0008867E16FD06C0CF0FBFD0499059AC86716
:1020F00040462158506E0CF0F3FD4146049B059A72
:102100005850E159D06F0CF0EBFD049BD85194234B
:10211000059FA159F8580CF0E3FD049B9851AC239E
:102120006159F8580CF0DCFD049B585195239B0035
:102130009D443CBC90469946A246AB46F0BDC04685
:10214000F0B54E464546DE4657460023E0B51360DF
:10215000836887B09846049200230268052691465A
:102160000093013B019003910293052345469B1B7D
:102170009A465D434B46002B00D197E15544AD0094
:102180004D442B685C006B6864085F007F08391C55
:10219000381C0CF006FE002800D0E8E0211C381C9A
:1021A0000CF0FAFD002800D0E8E00027731C9B46E5
:1021B000012E53D0AB685B005B08191C181C9846B5
:1021C0000CF0EFFD002800D04DE14046211C0CF042
:1021D000E3FD002801D0444602275B46032B3DD097
:1021E000EB685B005B08191C181C98460CF0D9FDC5
:1021F000002800D03FE14146201C0CF0BFFD002824
:1022000001D0444603275B46042B27D02B695B0093
:102210005B08191C181C98460CF0C3FD002800D060
:1022200031E14146201C0CF0A9FD002801D04446B4
:1022300004275B46052B11D06D696D006D08291CC4
:10224000281C0CF0AEFD002800D024E1291C201C25
:102250000CF094FD002801D005272C1C039B009A4C
:10226000574400219F50201C0CF080FD002800D115
:1022700087E0029B013300D1EBE05746019B9B684E
:1022800098465F4306239C1B06239B1BDF1943468E
:10229000424663439D001C19002392009346009A16
:1022A0009A469446BF006544A4004F444D444C44B4
:1022B000396828680CF02BFD011C20680CF00DFD1E
:1022C0002060012E29D0796828680CF020FD011CBF
:1022D00060680CF002FD6060022E1ED02968B868AC
:1022E0000CF015FD011CA0680CF0F7FCA060032E9B
:1022F00013D02968F8680CF00AFD011CE0680CF0A6
:10230000ECFCE060052E08D1296838690CF0FFFC70
:10231000011C20690CF0E1FC206101239C46E24491
:102320005D445C445645C3D1009B013E0433009399
:10233000002E00D019E70523039A00215361019B69
:102340009A68013293009B184A469B0098580CF0FB
:102350000DFD002803D0029B013300D1A3E00298B9
:1023600007B03CBC90469946A246AB46F0BD211C46
:10237000201C0CF016FD002800D00FE73C1C0127A4
:1023800014E757452FD049464C46019ABB000098A8
:102390004B441D68926809589200255048441960C2
:1023A00081189B1808681C680C60186089189B18B5
:1023B00008681C680C60186089189B1808681C68FD
:1023C0000C60186089189B1808681C680C601860FD
:1023D00089189B1818680A6808601A60049A1368BC
:1023E0000593013313605746019B4A469B685F4340
:1023F000984606239C1B5346FB183D199B009B588F
:10240000AD004D442868191C9A460CF06CFC2860FD
:10241000012E00D138E7686851460CF064FC686012
:10242000022E00D130E7A86851460CF05CFCA86091
:10243000032E00D128E7E86851460CF054FCE86010
:10244000042E00D120E7286951460CF04CFC28618D
:102450001AE75746019B9B6898465F4306239C1BDF
:102460005346029310E7211C201C0CF09AFC002814
:1024700000D1B0E6A9E6211C201C0CF092FC00283B
:1024800000D1BEE6B7E6211C201C0CF08AFC002817
:1024900000D1CCE6C5E6211C201C0CF082FC0028F3
:1024A00000D1D9E6D2E60523029358E71B68FFDE88
:1024B000F0B5DE464E4645465746E0B589B001AF19
:1024C0003A000500059005AB03CB03C26B682C00F6
:1024D0005800AB684008590049080CF001FC2B6813
:1024E000590049080CF0FCFB2B69061C58006B696D
:1024F0004008590049080CF0F3FBEB685900490803
:102500000CF0EEFB011C301C0CF0EAFBEB69804682
:1025100058002B6A4008590049080CF0E1FBAB69F0
:10252000590049080CF0DCFBAB6A061C5800EB6A4A
:102530004008590049080CF0D3FB6B6A5900490860
:102540000CF0CEFB011C301C0CF0CAFB6B6B8146FF
:102550005800AB6B4008590049080CF0C1FB2B6BCD
:10256000590049080CF0BCFB2B6C061C58006B6C26
:102570004008590049080CF0B3FBEB6B59004908BF
:102580000CF0AEFB011C301C0CF0AAFB061C011C5D
:1025900048460CF0F3FB002800D14E464046311C63
:1025A0000CF0ECFB002800D14646E36C5800236D8C
:1025B0004008590049080CF093FBA36C59004908E6
:1025C0000CF08EFBA36D80465800E36D4008590067
:1025D00049080CF085FB636D590049080CF080FB3D
:1025E000011C40460CF07CFB636E80465800A36ED5
:1025F0004008590049080CF073FB236E5900490844
:102600000CF06EFB236F81465800636F4008590041
:1026100049080CF065FBE36E590049080CF060FBBB
:10262000011C48460CF05CFBE36F81465800802398
:10263000E1584008490049080CF052FBA36F5900CB
:1026400049080CF04DFB88238246E0580433E158DA
:1026500040004900490840080CF042FB8423E1583F
:10266000490049080CF03CFB011C50460CF038FBBB
:10267000041C011C48460CF081FB002800D14C468C
:102680004046211C0CF07AFB002800D14446211C56
:10269000301C0CF073FB002800D1341CC02329002F
:1026A000EC503A00BA3BA83104A806930495FFF712
:1026B00047FD0121C422019B98260B405B428B43BE
:1026C0000133AB54343A9246002250469C272A509C
:1026D0009432A9509346923AAA510132EA519D325E
:1026E000944660469C3A2A50A03291469F3A9046C2
:1026F0004A4640462B00A85048461832AA58903304
:1027000092009A1814682C50404610606046B82217
:102710002858AA588046604692009A1814682C508F
:1027200040461060B422E859AA58844692009A188C
:1027300010685C46E85160461060B022AA58AF5954
:1027400092009A181068A8511760AC225846AA58EF
:102750002E5892009A18106828511660A822AA587C
:10276000544692009B1852461868AA5828511A607D
:10277000C523E95409B03CBC90469946A246AB46F5
:10278000F0BDC046C023002210B5C2500022043361
:10279000C2520B68040003604B6843608B6883601F
:1027A000CB68C3600B6903614B6943618B698361CB
:1027B000CB69C3610B6A03624B6A43628B6A8362B3
:1027C000CB6AC3620B6B03634B6B43638B6B83639B
:1027D000CB6BC3630B6C03644B6C43648B6C836483
:1027E000CB6CC3640B6D03654B6D43658B6D83656B
:1027F000CB6DC3650B6E03664B6E43668B6E836653
:10280000CB6EC3660B6F03674B6F43678B6F83673A
:10281000CB6FC3678023CA58C2500433CA58C25012
:102820000433CA58C2500433CA58C250FFF740FE9E
:10283000200010BD10B5037A0400002B07D00068FB
:10284000002804D0431E1B78C01A0CF0C9FB2000DE
:1028500010BDC046F0B557464E464546DE46E0B58B
:10286000B5B006AFFB64EC23E84DF861F9633A6755
:10287000FB181E682B78BFF35B8FDB0700D484E264
:10288000E34C6368FA699A4633697B62B3683B62DA
:10289000934200DD3A627A6A3B6A53439946FB6B86
:1028A000534398468023DB05994500D351E23368B2
:1028B0003B65002B00D155E24B4600249D00A02330
:1028C000A422FB181C604B46BA18136080239B029D
:1028D000AB42AD41A8236D42FB181D708023DB0580
:1028E000984500D319E27368FB60002B00D11DE20C
:1028F000434600249D00AC23B022FB181C604346D5
:10290000BA18136080239B02AB42AD41B4236D42E1
:10291000FB181D7004237B64FB6B002B15DDE82086
:102920003A18FB6912681900934200DAF3E1504645
:1029300009010AF029FF0323C21713401B189B103B
:102940009B007B64042B00DAE2E1F969002900DCDA
:102950007BE17B6AB9611A00C91A9C463961E8219A
:10296000F86C9B0042433B60BA607B1862441B6872
:102970007A607A6C5343BB628300FB650433BB65AA
:10298000431C9B00BB667B181B689B007B66E02397
:10299000FB181B683B6300237B63BB637B613B6667
:1029A0008C20BB693A1813607A6A934201DD3B18A8
:1029B0001A60FB6B002B00DC18E18C23FB181B68F2
:1029C000002B00DC12E1FA6BBA647A6C53439B0073
:1029D000FB62FB687B6700237B653B6498339A4608
:1029E000BA448020BB6C3A1813607A6C934201DDC4
:1029F0003B181A603A6B7B6D944690229B006344AF
:102A0000BA18136084227B6BBA181360BB6BFB6728
:102A1000002399468C234A46FB181B689B1A98464C
:102A2000BB67042B01DD042398463B6E94224B4484
:102A3000FB6643465E1E8423FB181B68BA189D0084
:102A40003B6F9C469023FB181B6865441360002E67
:102A500046D094238822FB181C680023B3462E001E
:102A6000BA18136025687168281C0CF050F9011C15
:102A700060680CF032F95B466060012B14D0B168DD
:102A8000281C0CF044F9011CA0680CF026F95B46E8
:102A9000A060022B08D0F168281C0CF038F9011C4A
:102AA000E0680CF01AF9E0608822BB181B68BA18BD
:102AB000013313607A6E94468022BA181268644417
:102AC0009342CFD19422BB6E35005E469C46BB1824
:102AD0001B68BA180433013E65441360002EB8D158
:102AE0004246BB6F51469C1A90225346BA18126850
:102AF0001A60E822BA1812685A604B4601938C2378
:102B0000FB181B68424600938023FB181B68786FF4
:102B1000FDF770FD002C37DDFB6E3A6F43441D005E
:102B200094465246FB6F3E6D5B199B0063441360F5
:102B30005346FA6C51465A60300023004246FDF776
:102B400003FE7B6DE8229C46E023FB181B6865446E
:102B50009C465346BA181268AD0065441D605A6021
:102B60004B4604938C23FB181B68310003934346A8
:102B700002938023FB181B68504601934346009341
:102B80007A6F2300FDF708FE04239C46FA6DE144AA
:102B900094469022FB6F84216344FB67BB181B683B
:102BA000BA1810331360BA6D7B1894461B687A18F4
:102BB000634413608C23FB181B684B4500DD29E739
:102BC0007A6CB96C94463B6C8A1AB96A63448C4639
:102BD000BA64F96A7A6D3B6462448C467A657A6FAE
:102BE00062447A67FA6B9A4200DDFAE67A6A3B6ED3
:102BF0009446FA6963443B669A4226DD3A6A002AA3
:102C000036DCF9699B189942FCDC03E05C21032067
:102C100020370320BA697B6A7969D21ABA61BA6827
:102C20000800944639697A68CB1A3B61BB6B6044F3
:102C300063449446BB633A687B6B78616344944613
:102C40007B633B6B63443B63AAE6982414233A19E5
:102C5000D018FFF7EFFD08233A19D018FFF7EAFD67
:102C6000BD462FB03CBC90469946A246AB46F0BD4F
:102C70003A6F7B69944694229B006344BA181360B0
:102C80003B6E3E69984698239A4600239B46013B3B
:102C900099463300BA444646544698463B6AC24673
:102CA000984500DD9A4694238C22FB181B68B500DA
:102CB000EB182360FB6CB9180A68386D210063605B
:102CC0005346FDF741FDE02179180B68E82179189A
:102CD0009C460B68654463605B46256004934B46E5
:102CE00003930293FB6B200001938C23FB181B685A
:102CF0000093FA685346396DFDF74EFD42463B6A34
:102D00009C46D31A9846FB696644B342C6DC81E709
:102D100004237B6419E6110009E6012040420CF00F
:102D200083F97368FB60002B00D0E1E543469D000A
:102D300080239B029D424AD82B006A461633DB084B
:102D4000DB00D31A9D4627240F236C449C43FC6070
:102D5000D1E5012040420CF067F933683B65002B58
:102D600000D0A9E54B469D0080239B029D421ED8C2
:102D70002B006A461633DB08DB00D31A9D46272456
:102D80000F236C449C433C6599E528000EF016FE29
:102D90001D4C002800D174E58023DB0123608023D3
:102DA0001B0328006360A3600EF024FE69E5280081
:102DB00010300CF0F7F8041E19D00F221023024037
:102DC0009B1ADBB2C418621E13703C6577E52800BD
:102DD00010300CF0E7F8041E0FD00F221023024031
:102DE0009B1ADBB2C418621E1370FC6083E50120DD
:102DF00040420CF019F93C6561E5012040420CF0BD
:102E000013F9FC6077E5C04620370320F0B5DE46B5
:102E100057464E464546E0B5B9B006AFFB67FC23C2
:102E2000384DB963BA64FB181E682B788346BFF32C
:102E30005B8FDB0700D4C1E2334C63689A46336989
:102E40007B61B3683B615B4501DD5B463B617A6951
:102E50003B6953439946BB6B534398468023DB053C
:102E6000994500D38EE233683B65002B00D192E296
:102E70004B4600249D00B023B422FB181C604B4637
:102E8000BA18136080239B02AB42AD41B8236D4258
:102E9000FB181D708023DB05984500D356E273684C
:102EA000FB61002B00D15AE2434600249D00BC2365
:102EB000C022FB181C604346BA18136080239B0293
:102EC000AB42AD41C4236D42FB181D7004233B642B
:102ED000BB6B002B1ADDF823FB181B6859469B457A
:102EE00000DA2FE2504609010AF04EFC0323C21714
:102EF00013401B189B109B003B64042B00DA1EE25E
:102F000004E0C0465C210320203703205B46002BF1
:102F100000DC00E2FA6F78691100434259430B006C
:102F2000F96059460C1A110062431B1A9B00BA61E2
:102F3000BB600A000B0059464B43B96C5B448C469E
:102F4000F0219B006344FB627918830009685B42AF
:102F50007B605B468C46F8219B00634479180968C6
:102F60003B633B6C7C634B433B6293005B423B6641
:102F7000043B7B659B00BB65D3439B00A422BB66DF
:102F80008B007B665B46BA1813600300A422BA1854
:102F900012683B67934200DD3A67BB6B002B00DC95
:102FA00058E13A6F002A00DC54E17B643B6C396BDA
:102FB00053439B007B62FB69FB669300CB1ABB62A9
:102FC00000237B67FB63A433FB181B6803219B1A58
:102FD000BB671300013B043A8B43D31AFB65902275
:102FE0007B6CBA1813603A6C934202DD9023FB1895
:102FF0001A60BA6A7B6F94469B009C446246FA64EE
:103000003A6B944698226344BA1813609422FB6A80
:10301000BA1813603B6F9A465346D346042B01DD22
:1030200004239B468022BB6FBA18534413605B464F
:103030005E1E7B6DF96F99469423FB181A685B46F8
:1030400090465B425B1A9B00A422C1449844012332
:10305000BA185B4213604B46FE20196880050BF0DE
:1030600042FE8C239821FB181860A4237918096864
:10307000FB188C4684211A687918931B9C009B00CE
:103080005B420B6093009C22BA181360A0220023BD
:10309000BA18644413608423FB181B6888229C467A
:1030A000A4446346BA1813609C22BA18126899584F
:1030B0008C23FB1818680BF02AFE88239C22FB182F
:1030C000BA181B681268051C9850002E20D0434681
:1030D00019680BF01CFE011C20680BF0FEFD20603F
:1030E000012E15D04346281C59680BF010FE011C18
:1030F00060680BF0F2FD6060022E09D04346281C88
:1031000099680BF004FE011CA0680BF0E6FDA060BE
:10311000A023A022FB181B68BA18013313607A6E33
:1031200094469022BA18126864449342B3D1A423FF
:10313000A422FB181B68BA18013B1360BB6E9C46A7
:103140003B6EE1449C46E044013E84D25A465346DD
:103150009C1A8023FB181B68A8219D1AF022BA181C
:1031600012687B6F9446A8225B199B006344BA18CF
:103170001360F823AC22FB181B68BA181360902365
:1031800001943E6FFB1800961B68F86E5A4679183A
:1031900099468046FDF72EFA002C2DDDBA6FF96FA7
:1031A00094464D43BA6C6544A8239446AD006544EB
:1031B000FB181D60AC23FB181960A82123005A4698
:1031C000386D7918FDF7C0FAA823FD6CFB181D6057
:1031D000F823FB181D68AC23FB181D605D464B46A9
:1031E000A82001930494039602950095230042467B
:1031F000396D3818FDF7D0FA04235B429C46BA6D4E
:10320000E244944694229833FB181B68BA1863442E
:10321000136098239822FB181B68BA18103B1360A0
:10322000FB6D534500D0F7E63A6C796C9446FB6B26
:103230008A1A796A63448C467A64396AFA6EFB6347
:1032400062448C46FA667A6F62447A67BA6B9A4235
:1032500000DDC4E6A4227B6BBA181360002B5ADD94
:10326000BA6C1C009146BB6900259B009944002361
:10327000CB469A463E69A046B44200DDB04643467E
:10328000002B2EDDA822AB009946BA185B441360D0
:10329000AC22A821FB6FBA181360386D43463A6F11
:1032A0007918FDF751FAF023A822FB181B68BA1809
:1032B0004B441360F823AC22FB181B68BA18136048
:1032C000534604930123A8205B4203930293BB6BF4
:1032D000381801933B6F0093FA694346396DFDF747
:1032E0005BFA7B6BAD19A41BAB42C4DCFA68BB690B
:1032F0009446BA6863449446BB617A68FB6A634447
:103300009446FB623B6B7A6963443B637B6B9B1A1D
:103310007B6313003AE6A8221423BA18D018FFF7EB
:1033200089FAA8220823BA18D018FFF783FABD46F5
:1033300033B03CBC90469946A246AB46F0BD042350
:103340003B64E3E5F823FB181968CBE50120404214
:103350000BF06AFE7368FB61002B00D0A4E54346C6
:103360009D0080239B029D424AD82B006A4616335B
:10337000DB08DB00D31A9D4627240F236C449C43B3
:10338000FC6194E5012040420BF04EFE33683B6542
:10339000002B00D06CE54B469D0080239B029D4294
:1033A0001ED82B006A461633DB08DB00D31A9D4675
:1033B00027240F236C449C433C655CE528000EF0F9
:1033C000FDFA1D4C002800D137E58023DB01236086
:1033D00080231B0328006360A3600EF00BFB2CE529
:1033E000280010300BF0DEFD041E19D00F22102330
:1033F00002409B1ADBB2C418621E13703C653AE5AA
:10340000280010300BF0CEFD041E0FD00F22102329
:1034100002409B1ADBB2C418621E1370FC6146E5C1
:10342000012040420BF000FE3C6524E501204042B3
:103430000BF0FAFDFC613AE520370320F0B5DE46DB
:1034400045464E465746E0B5214C1600A5443AAADB
:1034500094460A000B931F4B099063441B09049187
:103460001D01FDAB13CA13C313CA13C31268FDA910
:103470001A60194B194A1B6847A80593184B47ACAB
:103480001B680193174B1B6806930093059BFEF77F
:1034900021F83AAA944647ABFD93FF93124BFFAA3B
:1034A00063441B680432FE9613608623DB009C464F
:1034B000AC446046CCAAFDA90D90FEF767F96BAB52
:1034C0000C9323000A9498462C000E950EE0C046FB
:1034D0006CF6FFFFEF030000F01E03200AE81C411A
:1034E000E81E0320EC1E0320D80800004346404697
:1034F00045461B68806C05930C9BAF6F814620CBC3
:103500004146404642460C93A823096B006E9269DF
:1035100007910890F158281C06920BF0F8FB8C23B9
:103520008246F158381C0BF0F2FB011C50460BF0A0
:10353000D7FB316F824608980BF0E9FB716D83462B
:1035400048460BF0E4FB011C58460BF0C9FB011C7C
:1035500050460BF0C5FBB16B824607980BF0D7FBCA
:10356000F169834606980BF0D2FB011C58460BF01C
:10357000B7FB3168834605980BF0C9FB011C584620
:103580000BF0AEFB011C50460BF0AAFBAC232060F5
:10359000F158281C0BF0BBFB90238246F158381CD5
:1035A0000BF0B5FB011C50460BF09AFB716F824685
:1035B00008980BF0ACFBB16D834648460BF0A7FBB7
:1035C000011C58460BF08CFB011C50460BF088FB8D
:1035D000F16B824607980BF09AFB316A8346069896
:1035E0000BF095FB011C58460BF07AFB7168834683
:1035F00005980BF08CFB011C58460BF071FB011C6D
:1036000050460BF06DFBB0236060F158281C0BF0A6
:103610007EFB94238246F158381C0BF078FB011C8A
:1036200050460BF05DFBB16F824608980BF06FFBC4
:10363000F16D834648460BF06AFB011C58460BF0BF
:103640004FFB011C50460BF04BFB316C8246079838
:103650000BF05DFB716A834606980BF058FB011C6A
:1036600058460BF03DFBB168834605980BF04FFBC5
:10367000011C58460BF034FB011C50460BF030FB8C
:10368000B423A060F158281C0BF041FB982382461C
:10369000F158381C0BF03BFB011C50460BF020FB93
:1036A000F16F824608980BF032FB316E8346484634
:1036B0000BF02DFB011C58460BF012FB011C504671
:1036C0000BF00EFB716C824607980BF020FBB16A81
:1036D000834606980BF01BFB011C58460BF000FBC1
:1036E000F168834605980BF012FB011C58460BF05D
:1036F000F7FA011C50460BF0F3FAB823E060F158DA
:10370000281C0BF004FB9C238246F158381C0BF05C
:10371000FEFA011C50460BF0E3FA80238246F15872
:1037200008980BF0F4FA716E834648460BF0EFFAF6
:10373000011C58460BF0D4FA011C50460BF0D0FA8D
:10374000B16C824607980BF0E2FAF16A834606985C
:103750000BF0DDFA011C58460BF0C2FA31698346C2
:1037600005980BF0D4FA011C58460BF0B9FA011C6D
:1037700050460BF0B5FABC232061F158281C0BF021
:10378000C6FAA0238246F158381C0BF0C0FA011C7F
:1037900050460BF0A5FA84238246F15808980BF0A6
:1037A000B6FAB16E834648460BF0B1FA011C584692
:1037B0000BF096FA011C50460BF092FAF16C82461F
:1037C00007980BF0A4FA316B834606980BF09FFA2A
:1037D000011C58460BF084FA7169834605980BF07A
:1037E00096FA011C58460BF07BFA011C50460BF070
:1037F00077FAF16E606148460BF089FA88238146BA
:10380000F15808980BF083FA011C48460BF068FA4F
:10381000A4238146F158381C9A460BF078FAC0234D
:10382000071CF158281C0BF072FA011C381C0BF015
:1038300057FA011C48460BF053FA716B051C0698A9
:103840000BF065FA316D071C07980BF060FA011C4C
:10385000381C0BF045FAB169071C05980BF057FAB4
:10386000011C381C0BF03CFA011C281C0BF038FA28
:1038700004239C464DABE044A0611C34984500D025
:1038800034E6D8230E9D9B00EC1820000D99FEF71E
:1038900079FFA4239B009B46AB442100902258460D
:1038A0000BF0BCFBC8239B00EC18D033E91818229E
:1038B00020000BF0B3FBCE239B00E818D033E918AF
:1038C00018220BF0ABFB8422D423D200AA18126872
:1038D0009B00EB181A60D523744A2F00AA1812888F
:1038E0009B00EB18FE211A8000232268B03792005B
:1038F000BA18890511609361136393641366936723
:10390000C9229200AA181268D13C9200BA1813601A
:1039100091611363936413669367CA229200AA1895
:103920001268FF3C9200BA181360936111639364AC
:1039300013669367CB229200AA18126806209200A1
:10394000BA18136093611363916413669367CC2272
:103950009200AA1812689200BA1813609361136358
:10396000936411669367CD229200AA1812689200A0
:10397000BA18136093611363936413660623A360FC
:10398000E360236198466B33FF339946A9449167FE
:103990004A46203BEA50802292009446AC4462465C
:1039A000414662604B3B02910539059203945A46A9
:1039B0000191FF3B05310097FEF74CFF4046A823DD
:1039C000A060E060206148465B00E850012143466A
:1039D000059A062062600394029301915A4600976B
:1039E0000531FFF713FA2B68B8461C93EB69FDAC61
:1039F0001D93AB6B1E936B6D1F932B6F20938C23CA
:103A0000EB5821936B682B932B6A2C93EB6B2D93C4
:103A1000AB6D22936B6F23939023EB582493AB6889
:103A200025936B6A26932B6C2793EB6D2893AB6FD2
:103A300029939423EB582A93EB682E93AB6A1B933C
:103A40006B6C07932B6E0C93EB6F0D939823EB58D5
:103A50000E932B690F93EB6A1093AB6C11936B6E03
:103A60002F938023EB5830939C23EB5831936B6951
:103A700012932B6B1393EB6C34961493AB6E1593DC
:103A80008423EB581693A023EB581793AB69189334
:103A90006B6B19932B6D1A93EB6E32938823EB5853
:103AA00008935346EB58339302E0C04624040000C9
:103AB00043461F685B6842469946434641469B68B9
:103AC000D2680E694D691D984946059306920BF020
:103AD0001EF9059982461E980BF019F9011C5046F3
:103AE0000BF0FEF8391C82461C980BF010F9011CF3
:103AF00050460BF0F5F8311C824620980BF007F980
:103B0000291C834621980BF002F9011C58460BF042
:103B1000E7F8069983461F980BF0F9F8011C584600
:103B20000BF0DEF8011C50460BF0DAF84946206035
:103B30002C980BF0ECF8059982462D980BF0E7F8DD
:103B4000011C50460BF0CCF8391C82462B980BF028
:103B5000DEF8011C50460BF0C3F8311C8246239856
:103B60000BF0D5F8291C834624980BF0D0F8011CE3
:103B700058460BF0B5F80699834622980BF0C7F823
:103B8000011C58460BF0ACF8011C50460BF0A8F88D
:103B90004946606026980BF0BAF805998246279846
:103BA0000BF0B5F8011C50460BF09AF8391C824610
:103BB00025980BF0ACF8011C50460BF091F8311C25
:103BC000824629980BF0A3F8291C83462A980BF00B
:103BD0009EF8011C58460BF083F8069983462898F6
:103BE0000BF095F8011C58460BF07AF8011C504672
:103BF0000BF076F84946A0601B980BF088F8059901
:103C0000824607980BF083F8011C50460BF068F8C9
:103C1000391C82462E980BF07AF8011C50460BF0A6
:103C20005FF8311C82460D980BF071F8291C834611
:103C30000E980BF06CF8011C58460BF051F80699E1
:103C400083460C980BF063F8011C58460BF048F8BB
:103C5000011C50460BF044F84946E06010980BF008
:103C600056F80599824611980BF051F8011C504600
:103C70000BF036F8391C82460F980BF048F8011CFF
:103C800050460BF02DF8311C824630980BF03FF86F
:103C9000291C834631980BF03AF8011C58460BF06A
:103CA0001FF8069983462F980BF031F8011C5846EF
:103CB0000BF016F8011C50460BF012F84946206133
:103CC00013980BF024F80599824614980BF01FF80E
:103CD000011C50460BF004F8391C824612980BF078
:103CE00016F8011C50460AF0FBFF311C824616985C
:103CF0000BF00DF8291C834617980BF008F8011CEF
:103D000058460AF0EDFF0699834615980AF0FFFF22
:103D1000011C58460AF0E4FF011C50460AF0E0FF7F
:103D20004946606119980AF0F2FF059981461A9890
:103D30000AF0EDFF011C48460AF0D2FF391C81460B
:103D400018980AF0E4FF011C48460AF0C9FF311C2C
:103D5000071C08980AF0DBFF291C061C33980AF0A0
:103D6000D6FF011C301C0AF0BBFF0699051C3298D7
:103D70000AF0CDFF011C281C0AF0B2FF011C381C00
:103D80000AF0AEFF18239C46FFABA061A0331C34A1
:103D9000E044A34200D08BE6FD9BFE9A069371930C
:103DA000FFAB5C680433FFAB9D680833FFABDF6893
:103DB0000C33FFAB10331B68FF990F937793FFAB66
:103DC0001433079272921A68FFAB183308917391FB
:103DD0001968FFAB1C330C9474941C68FFAB203340
:103DE0000D9575951D68FFAB2433349E0E9776971D
:103DF000109278921191799112947A9413951F6888
:103E0000FFAB28331B687B9515937D93FFABDA6A74
:103E10002C33FFAB196B3033FFAB5C6B3433FFAB30
:103E20009D6B3833FFAB3C3314977C971F68FFAB17
:103E300040331B6816921B938393FFAB44337E92EF
:103E40001A68FFAB483317917F911968FFAB4C3369
:103E5000189480941C68FFAB5033199581951A977C
:103E600082971C9284921D9185911E941D68FFABD0
:103E70005F6D5433FFAB58331B688694219389934D
:103E8000FFABDA6D5C33FFAB196E6033FFAB5C6E7A
:103E90006433FFAB68331F9587951D68FFAB6C33A8
:103EA000209788971F68FFAB70331B682292279377
:103EB0008F93FFAB74338A921A68FFAB78332391E8
:103EC0008B911968FFAB7C3324948C9425958D9548
:103ED00026978E972892909229911C68FFAB803389
:103EE0001D68FFAB84331F68FFAB88331B6891915B
:103EF0002D939593FFAB8C331A68FFAB9033196801
:103F0000FFAB94332A9492941C68FFAB98332B95A3
:103F100093951D68FFAB9C332C9794971F682E9246
:103F20009692049A2F9197913094989431959995FF
:103F300032979A97FDAB32CA32C332CA32C3116884
:103F4000FDAC1960FD49FE4B09681B680191FD49F4
:103F5000FD4A09682000009141A9FDF71BF80B9F5D
:103F6000419938680AF0B9FE4299834678680AF0A8
:103F7000B4FE4399041CB8680AF0AFFE4499051CCE
:103F8000F8680AF0AAFE4599824638690B970AF04C
:103F9000A4FE0B9B071C469958690AF09EFE8046BA
:103FA000011C2D980AF0B3FE391C814626980AF0B0
:103FB000AEFE011C48460AF093FE53468146514628
:103FC0001F9805930AF0A3FE011C48460AF088FEDC
:103FD000291C814618980AF09AFE211C82461198E5
:103FE0000AF095FE011C50460AF07AFE59468246B8
:103FF00007980AF08CFE011C50460AF071FE011C65
:1040000048460AF06DFE049A51680AF069FE41467E
:104010000B902E980AF07BFE391C814627980AF0F7
:1040200076FE011C48460AF05BFE05998146209801
:104030000AF06DFE011C48460AF052FE291C81461A
:1040400019980AF064FE211C824612980AF05FFE5D
:10405000011C50460AF044FE5946824608980AF070
:1040600056FE011C50460AF03BFE011C48460AF071
:1040700037FE049A91680AF033FE414633902F9838
:104080000AF045FE391C814628980AF040FE011CC2
:1040900048460AF025FE0599814621980AF037FE28
:1040A000011C48460AF01CFE291C81461A980AF099
:1040B0002EFE211C824613980AF029FE011C504650
:1040C0000AF00EFE594682460C980AF020FE011CAA
:1040D00050460AF005FE011C48460AF001FE049A0B
:1040E000D1680AF0FDFD4146349030980AF00FFE89
:1040F000391C814629980AF00AFE011C48460AF03C
:10410000EFFD0599814622980AF001FE011C484600
:104110000AF0E6FD291C81461B980AF0F8FD211CD7
:10412000824614980AF0F3FD011C50460AF0D8FDAF
:10413000594682460D980AF0EAFD011C50460AF0E5
:10414000CFFD011C48460AF0CBFD049A11690AF024
:10415000C7FD4146359031980AF0D9FD391C81469A
:104160002A980AF0D4FD011C48460AF0B9FD0599C9
:10417000814623980AF0CBFD011C48460AF0B0FDA9
:10418000291C81461C980AF0C2FD211C8246159804
:104190000AF0BDFD011C50460AF0A2FD59468246B8
:1041A0000E980AF0B4FD011C50460AF099FD011C5E
:1041B00048460AF095FD049A51690AF091FD211CC8
:1041C000369016980AF0A3FD291C81461D980AF026
:1041D0009EFD011C48460AF083FD594681460F9812
:1041E0000AF095FD011C48460AF07AFD391C81460B
:1041F0002B980AF08CFD4146824632980AF087FDE2
:10420000011C50460AF06CFD0599824624980AF07C
:104210007EFD011C50460AF063FD011C48460AF071
:104220005FFD049A91690AF05BFD414681462C9836
:104230000AF06DFD391C804625980AF068FD011CC6
:1042400040460AF04DFD0599071C1E980AF05FFDD7
:10425000011C381C0AF044FD291C071C17980AF0A1
:1042600056FD211C051C10980AF051FD011C281C4C
:104270000AF036FD5946041C06980AF048FD011C58
:10428000201C0AF02DFD011C381C0AF029FD049A9F
:10429000FDAC11680AF024FD099B0B9A18605A6066
:1042A000339A9A60349ADA60359A1A61369A5A616A
:1042B0004A469A613368CC937368CD93B368CE93C2
:1042C000F368CF933369D0937369D193B369D29371
:1042D000F369D393336AD493736AD593B36AD6934D
:1042E000F36AD793336BD893736BD993B36BDA9329
:1042F000F36BDB93336CDC93736CDD93B36CDE9305
:10430000F36CDF93336DE093736DE193B36DE293E0
:10431000F36DE393336EE493736EE593B36EE693BC
:10432000F36EE793336FE893736FE993B36FEA9398
:10433000F36FEB938023F358EC9307E0E81E032020
:10434000F01E0320EC1E03200AE81C418423F358CE
:10435000ED938823F358EE938C23F358EF93902337
:10436000F358F0939423F358F1939823F358F2936E
:104370009C23F3580B96F393A023F358F493A423B0
:10438000F358F593A823F358F693AC23F358F79317
:10439000B023F358F893B423F358F993B823F358A0
:1043A000FA93BC23F358FB93C023F358FC930A9B66
:1043B00010985A681F6891469A6849469046DA688C
:1043C0001E695D6905920AF0A2FC41468246179873
:1043D0000AF09DFC011C50460AF082FC391C824602
:1043E00006980AF094FC011C50460AF079FC311C36
:1043F000824625980AF08BFC291C83462C980AF0EB
:1044000086FC011C58460AF06BFC059983461E98F1
:104410000AF07DFC011C58460AF062FC011C504663
:104420000AF05EFC4946206011980AF070FC414693
:10443000824618980AF06BFC011C50460AF050FCAA
:10444000391C824607980AF062FC011C50460AF0AB
:1044500047FC311C824626980AF059FC291C8346E9
:104460002D980AF054FC011C58460AF039FC0599B5
:1044700083461F980AF04BFC011C58460AF030FC9A
:10448000011C50460AF02CFC4946606012980AF064
:104490003EFC4146824619980AF039FC011C504600
:1044A0000AF01EFC391C824608980AF030FC011CF8
:1044B00050460AF015FC311C824627980AF027FC6A
:1044C000291C83462E980AF022FC011C58460AF04B
:1044D00007FC0599834620980AF019FC011C5846F0
:1044E0000AF0FEFB011C50460AF0FAFB4946A060A8
:1044F00013980AF00CFC414682461A980AF007FC11
:10450000011C50460AF0ECFB391C82460C980AF05C
:10451000FEFB011C50460AF0E3FB311C8246289842
:104520000AF0F5FB291C83462F980AF0F0FB011CCA
:1045300058460AF0D5FB0599834621980AF0E7FB17
:10454000011C58460AF0CCFB011C50460AF0C8FB7F
:104550004946E06014980AF0DAFB414682461B980F
:104560000AF0D5FB011C50460AF0BAFB391C824602
:104570000D980AF0CCFB011C50460AF0B1FB311C2F
:10458000824629980AF0C3FB291C834630980AF01A
:10459000BEFB011C58460AF0A3FB059983462298EE
:1045A0000AF0B5FB011C58460AF09AFB011C504664
:1045B0000AF096FB4946206115980AF0A8FB41468F
:1045C00082461C980AF0A3FB011C50460AF088FBA7
:1045D000391C82460E980AF09AFB011C50460AF0DC
:1045E0007FFB311C82462A980AF091FB291C8346E6
:1045F00031980AF08CFB011C58460AF071FB0599B2
:10460000834623980AF083FB011C58460AF068FB96
:10461000011C50460AF064FB4946606116980AF096
:1046200076FB414681461D980AF071FB011C484605
:104630000AF056FB391C80460F980AF068FB011CF3
:1046400040460AF04DFB311C071C2B980AF05FFB1B
:10465000291C061C32980AF05AFB011C301C0AF077
:104660003FFB0599051C24980AF051FB011C281CEE
:104670000AF036FB011C381C0AF032FB0A9BA061D1
:1046800018330A93FFAB1C34BC33A34200D08EE630
:10469000C4239C460B9ECCADB444634634003C9688
:1046A0000A9308962369A6699846E36821689946A3
:1046B000A36862680793FFABA0330591301C1968AB
:1046C00006920AF024FB6769FFAB843319688246BF
:1046D000381C0AF01CFB011C50460AF001FBFFAB22
:1046E000996E8246404668330AF011FBFFABD96CE5
:1046F000834648464C330AF00AFB011C58460AF030
:10470000EFFA011C50460AF0EBFAFFAB196B824638
:10471000079830330AF0FBFAFFAB596983460698D5
:1047200014330AF0F4FA011C58460AF0D9FAFD993C
:10473000834605980AF0EBFA011C58460AF0D0FAB5
:10474000011C50460AF0CCFA011C28680AF0C5FA90
:10475000FFABA43328601968301C0AF0D8FAFFAB0D
:10476000883319688246381C0AF0D1FA011C504679
:104770000AF0B6FAFFABD96E824640466C330AF0B7
:10478000C6FAFFAB196D8346484650330AF0BFFAAC
:10479000011C58460AF0A4FA011C50460AF0A0FA7F
:1047A000FFAB596B8246079834330AF0B0FAFFAB7F
:1047B00099698346069818330AF0A9FA011C5846ED
:1047C0000AF08EFAFE99834605980AF0A0FA011CB9
:1047D00058460AF085FA011C50460AF081FA011C7D
:1047E00068680AF07AFAFFABA83319686860301C71
:1047F0000AF08DFAFFAB8C3319688246381C0AF038
:1048000086FA011C50460AF06BFAFFAB8246196F1C
:10481000404670330AF07BFAFFAB596D8346484639
:1048200054330AF074FA011C58460AF059FA011C74
:1048300050460AF055FAFFAB996B82460798383319
:104840000AF065FAFFABD969834606981C330AF073
:104850005EFA011C58460AF043FAFF998346059810
:104860000AF055FA011C58460AF03AFA011C504663
:104870000AF036FA011CA8680AF02FFAFFABAC3335
:104880001968A860301C0AF042FAFFAB903319682F
:104890008246381C0AF03BFA011C50460AF020FA06
:1048A000FFAB596F8246404674330AF030FAFFABD3
:1048B000996D8346484658330AF029FA011C584638
:1048C0000AF00EFA011C50460AF00AFAFFAB8246C3
:1048D000D96B07983C330AF01AFAFFAB196A834682
:1048E000069820330AF013FA011C58460AF0F8F92A
:1048F000FFAB59688346059804330AF008FA011C97
:1049000058460AF0EDF9011C50460AF0E9F9011C7D
:10491000E8680AF0E2F9FFABB0331968E860301CD0
:104920000AF0F5F9FFAB943319688246381C0AF097
:10493000EEF9011C50460AF0D3F9FFAB996F82469D
:10494000404678330AF0E3F9FFABD96D8346484619
:104950005C330AF0DCF9011C58460AF0C1F9011C6D
:1049600050460AF0BDF9FFAB196C824607984033F8
:104970000AF0CDF9FFAB596A8346069824330AF052
:10498000C6F9011C58460AF0ABF9FFAB996883469B
:10499000059808330AF0BBF9011C58460AF0A0F943
:1049A000011C50460AF09CF9011C28690AF095F98F
:1049B000FFABB43319682861301C0AF0A8F9FFABCB
:1049C000983319688246381C0AF0A1F9011C504638
:1049D0000AF086F9FFABD96F824640467C330AF075
:1049E00096F9FFAB196E8346484660330AF08FF99B
:1049F000011C58460AF074F9011C50460AF070F97F
:104A0000FFAB596C8246079844330AF080F9FFAB3C
:104A1000996A8346069828330AF079F9011C5846AA
:104A20000AF05EF9FFABD968834605980C330AF0AB
:104A30006EF9011C58460AF053F9011C50460AF061
:104A40004FF9011C68690AF048F9FFAB596E6861BB
:104A5000484664330AF05BF9FFAB8033196881463E
:104A600040460AF054F9011C48460AF039F9FFABF8
:104A70009C3319688046381C0AF049F9FFABB833FB
:104A80001968071C301C0AF042F9011C381C0AF096
:104A900027F9011C40460AF023F9FFABD96A061C2E
:104AA00006982C330AF033F9FFAB996C071C079872
:104AB00048330AF02CF9011C381C0AF011F9FFAB3D
:104AC0001969071C059810330AF021F9011C381CDC
:104AD0000AF006F9011C301C0AF002F9011CA86951
:104AE0000AF0FBF80A9B1C34A8611C359C4200D0DC
:104AF000D8E5089ECC9B3360CD9B7360CE9BB360A2
:104B0000CF9BF360D09B3361D19B7361D29BB36128
:104B1000D39BF361D49B3362D59B7362D69BB36204
:104B2000D79BF362D89B3363D99B7363DA9BB363E0
:104B3000DB9BF363DC9B3364DD9B7364DE9BB364BC
:104B4000DF9BF364E09B3365E19B7365E29BB36598
:104B5000E39BF365E49B3366E59B7366E69BB36674
:104B6000E79BF366E89B3367E99B7367EA9BB36750
:104B7000EB9BF3678023EC9AF250ED9A0433F250EA
:104B8000EE9A0433F250EF9A0433F250F09A043361
:104B9000F250F19A0433F250F29A0433F250F39A3D
:104BA0000433F250F49A0433F250F59A0433F2507D
:104BB000F69A0433F250F79A0433F250F89A043319
:104BC000F250F99A0433F250FA9A0433F250FB9AF5
:104BD0000433F250FC9A0433F2503AAA8D239446DF
:104BE0001B0163441B68CCAA13CB13C28E231B0189
:104BF00063441B68FDAC07CB07C4049B099D00936D
:104C0000494B28006344CCA91B68FDAAFCF7A0F817
:104C10002B00FDAA23CB23C2220013CB13C21B6897
:104C20003AA913608D238C463EAA11001B016344F0
:104C30001B6831CB31C18E231B0163441B68CCA997
:104C400031CB31C1384BFDA963441B689BA800934D
:104C5000CCABFCF7E3FAFDAB08931C009B9B0B93DA
:104C6000A29B1293A99B1993B09B2093B79B279368
:104C7000BE9B2E93C59B35939C9B0C93A39B139338
:104C8000AA9B1A93B19B2193B89B2893BF9B2F9308
:104C9000C69B36939D9B0D93A49B1493AB9B1B9338
:104CA000B29B2293B99B2993C09B3093C79B3793A8
:104CB0009E9B0E93A59B1593AC9B1C93B39B239338
:104CC000BA9B2A93C19B3193C89B38939F9B0F93A8
:104CD000A69B1693AD9B1D93B49B2493BB9B2B93D8
:104CE000C29B3293C99B3993A09B1093A79B1793A8
:104CF000AE9B1E93B59B2593BC9B2C93C39B339378
:104D0000CA9B3A93A19B1193A89B1893AF9B1F93A7
:104D1000B69B2693BD9B2D93C49B3493CB9B3B9317
:104D20003C9B3C96984601E0E40800004146C96877
:104D300040468946414642464346866909691B68A2
:104D40005568926847690791301C3599059306921A
:104D500009F0DDFF2E998246381C09F0D8FF011CAE
:104D6000504609F0BDFF27998246079809F0CFFF0A
:104D700020998346484609F0CAFF011C584609F0AD
:104D8000AFFF011C504609F0ABFF19998246069807
:104D900009F0BDFF12998346281C09F0B8FF011CD9
:104DA000584609F09DFF0B998346059809F0AFFF1F
:104DB000011C584609F094FF011C504609F090FF71
:104DC00036992060301C09F0A2FF2F998246381CCA
:104DD00009F09DFF011C504609F082FF2899824688
:104DE000079809F094FF21998346484609F08FFF00
:104DF000011C584609F074FF011C504609F070FF71
:104E00001A998246069809F082FF13998346281C56
:104E100009F07DFF011C584609F062FF0C9983469A
:104E2000059809F074FF011C584609F059FF011C50
:104E3000504609F055FF311C6060379809F067FF54
:104E4000391C8246309809F062FF011C504609F077
:104E500047FF29998246079809F059FF229983460E
:104E6000484609F054FF011C584609F039FF011C5F
:104E7000504609F035FF1B998246069809F047FF16
:104E800014998346281C09F042FF011C584609F07A
:104E900027FF0D998346059809F039FF011C5846F4
:104EA00009F01EFF011C504609F01AFF311CA060DA
:104EB000389809F02CFF391C8246319809F027FFF9
:104EC000011C504609F00CFF079982462A9809F008
:104ED0001EFF49468346239809F019FF011C5846D6
:104EE00009F0FEFE011C504609F0FAFE06998246C2
:104EF0001C9809F00CFF291C8346159809F007FF40
:104F0000011C584609F0ECFE059983460E9809F0FD
:104F1000FEFE011C584609F0E3FE011C504609F054
:104F2000DFFE311CE060399809F0F1FE391C824641
:104F3000329809F0ECFE011C504609F0D1FE0799A9
:104F400082462B9809F0E3FE49468346249809F0EF
:104F5000DEFE011C584609F0C3FE011C504609F054
:104F6000BFFE069982461D9809F0D1FE291C834692
:104F7000169809F0CCFE011C584609F0B1FE0599BF
:104F800083460F9809F0C3FE011C584609F0A8FE9D
:104F9000011C504609F0A4FE311C20613A9809F02A
:104FA000B6FE391C8246339809F0B1FE011C50460A
:104FB00009F096FE079982462C9809F0A8FE49460A
:104FC0008346259809F0A3FE011C584609F088FE87
:104FD000011C504609F084FE069982461E9809F08D
:104FE00096FE291C8346179809F091FE011C58462D
:104FF00009F076FE05998346109809F088FE011C99
:10500000584609F06DFE011C504609F069FE4946FC
:105010006061269809F07BFE079981462D9809F07A
:1050200076FE011C484609F05BFE391C8146349827
:1050300009F06DFE311C071C3B9809F068FE011C4D
:10504000381C09F04DFE011C484609F049FE291C98
:10505000061C189809F05BFE0699051C1F9809F0BC
:1050600056FE011C281C09F03BFE0599051C1198F1
:1050700009F04DFE011C281C09F032FE011C301CF9
:1050800009F02EFE1C239C460A9BE044A0611C34C0
:10509000984500D04AE6FFAB84333C9E0793FFABB4
:1050A000CCAC14333C940A933D96089B1A68586D17
:1050B0000592079A996BD6698146186F06918046CA
:1050C000311C3598DD69176809F021FE391C8246CC
:1050D0002E9809F01CFE011C504609F001FE4146C5
:1050E0008246279809F013FE20998346484609F026
:1050F0000EFE011C584609F0F3FD011C504609F054
:10510000EFFD19998246069809F001FE129983462F
:10511000281C09F0FCFD011C584609F0E1FD0B9923
:105120008346059809F0F3FD011C584609F0D8FDA7
:10513000011C504609F0D4FD311C2060369809F05E
:10514000E6FD391C82462F9809F0E1FD011C50460E
:1051500009F0C6FD41468246289809F0D8FD494627
:105160008346219809F0D3FD011C584609F0B8FD8B
:10517000011C504609F0B4FD069982461A9809F0C0
:10518000C6FD291C8346139809F0C1FD011C584631
:1051900009F0A6FD059983460C9809F0B8FD011C9D
:1051A000584609F09DFD011C504609F099FD311C3F
:1051B0006060379809F0ABFD391C8246309809F0E1
:1051C000A6FD011C504609F08BFD414682462998F8
:1051D00009F09DFD49468346229809F098FD011C7F
:1051E000584609F07DFD011C504609F079FD0699ED
:1051F00082461B9809F08BFD291C8346149809F000
:1052000086FD011C584609F06BFD059983460D98F3
:1052100009F07DFD011C584609F062FD011C504655
:1052200009F05EFD311CA060389809F070FD391C52
:105230008246319809F06BFD011C504609F050FD83
:10524000414682462A9809F062FD494683462398E2
:1052500009F05DFD011C584609F042FD011C504655
:1052600009F03EFD069982461C9809F050FD291C64
:105270008346159809F04BFD011C584609F030FD96
:10528000059983460E9809F042FD011C584609F025
:1052900027FD011C504609F023FD311CE0603998C0
:1052A00009F035FD391C8246329809F030FD011CA9
:1052B000504609F015FD414682462B9809F027FD1E
:1052C00049468346249809F022FD011C584609F0FE
:1052D00007FD011C504609F003FD069982461D9802
:1052E00009F015FD291C8346169809F010FD011CD4
:1052F000584609F0F5FC059983460F9809F007FD1B
:10530000011C584609F0ECFC011C504609F0E8FC71
:10531000311C20613A9809F0FAFC391C8246339816
:1053200009F0F5FC011C504609F0DAFC41468246C2
:105330002C9809F0ECFC49468346259809F0E7FCD7
:10534000011C584609F0CCFC011C504609F0C8FC71
:10535000069982461E9809F0DAFC291C83461798A4
:1053600009F0D5FC011C584609F0BAFC05998346A2
:10537000109809F0CCFC011C584609F0B1FC011C46
:10538000504609F0ADFC49466061269809F0BFFC23
:10539000414681462D9809F0BAFC011C484609F0A7
:1053A0009FFC391C8046349809F0B1FC311C071C65
:1053B0003B9809F0ACFC011C381C09F091FC011C65
:1053C000404609F08DFC291C061C189809F09FFC2A
:1053D0000699051C1F9809F09AFC011C281C09F06D
:1053E0007FFC0599051C119809F091FC011C281CF3
:1053F00009F076FC011C301C09F072FC079A089B2E
:10540000043207920A9A0433A06108931C349A422A
:1054100000D04AE63AAA9446744B744A63441B6827
:1054200062441B6812680893704B3D9E63441B687E
:10543000FDACDB690A936D4B63441B689B6B0B935C
:105440006A4B63441B685B6D0C93684B63441B6839
:105450001B6F0D938C23D358644A0E93634B6244A5
:1054600063441B685B680F93604B63441B681B6A53
:1054700010935E4B63441B68DB6B11935B4B63447F
:105480001B689B6D1293594B63441B685B6F1268DA
:1054900013939023D358554A1493544B6244634456
:1054A0001B6812689B681593504B63441B685B6ACA
:1054B00016934E4B63441B681B6C17934B4B634412
:1054C0001B68DB6D1893494B63441B689B6F1993F2
:1054D0009423D358454A1A93444B624463441B684F
:1054E000DB681B93414B63441B689B6A1C933F4BD7
:1054F00063441B685B6C1D933C4B63441B681268E0
:105500001B6E1E93394B63441B68DB6F1F939823FC
:10551000D358364A2093354B624463441B68126863
:105520001B692193314B63441B68DB6A22932F4B29
:1055300063441B689B6C23932C4B63441B685B6E1A
:1055400024938023D358294A25939C2362441268CC
:10555000D358264A2693254B624463441B685B69F3
:105560002793224B63441B681B6B28931F4B1268C5
:1055700063441B68DB6C29931C4B63441B689B6E64
:105580002A938423D358194A2B93A0236244126888
:10559000D358164A2C93154B624463441B68126817
:1055A0009B692D93114B63441B685B6B2E930F4BD0
:1055B00063441B681B6D2F930C4B63441B68DB6EAD
:1055C00030938823D358094A3193A4236244126844
:1055D000D3583293064B63441B689846FDAB079340
:1055E000902343443393349604E0C046DC08000023
:1055F000D408000043461F685B684246994643460C
:1056000041469B68D2680E694D6948460A990593E0
:10561000069209F07CFB0B998246059809F077FB0E
:10562000011C504609F05CFB08998246381C09F0C1
:105630006EFB011C504609F053FB0D998246301C4D
:1056400009F065FB0E998346281C09F060FB011CDC
:10565000584609F045FB0C998346069809F057FB1C
:10566000011C584609F03CFB011C504609F038FB70
:1056700010992060484609F04AFB11998246059826
:1056800009F045FB011C504609F02AFB0F998246A0
:10569000381C09F03CFB011C504609F021FB139912
:1056A0008246301C09F033FB14998346281C09F00C
:1056B0002EFB011C584609F013FB129983460698ED
:1056C00009F025FB011C584609F00AFB011C504655
:1056D00009F006FB16996060484609F018FB179917
:1056E0008246059809F013FB011C504609F0F8FAB0
:1056F00015998246381C09F00AFB011C504609F036
:10570000EFFA19998246301C09F001FB1A99834679
:10571000281C09F0FCFA011C584609F0E1FA189916
:105720008346069809F0F3FA011C584609F0D8FAA6
:10573000011C504609F0D4FAA0601C99484609F0B3
:10574000E6FA1D998246059809F0E1FA011C5046D7
:1057500009F0C6FA1B998246381C09F0D8FA011CD8
:10576000504609F0BDFA1F998246301C09F0CFFA65
:1057700020998346281C09F0CAFA011C584609F0F2
:10578000AFFA1E998346069809F0C1FA011C5846E3
:1057900009F0A6FA011C504609F0A2FA2299E0602D
:1057A000484609F0B4FA23998246059809F0AFFA01
:1057B000011C504609F094FA21998246381C09F0E0
:1057C000A6FA011C504609F08BFA25998246301C36
:1057D00009F09DFA26998346281C09F098FA011CC5
:1057E000584609F07DFA24998346069809F08FFA05
:1057F000011C584609F074FA011C504609F070FA71
:1058000028992061484609F082FA2999824605982C
:1058100009F07DFA011C504609F062FA2799824688
:10582000381C09F074FA011C504609F059FA2B99FA
:105830008246301C09F06BFA2C998346281C09F02B
:1058400066FA011C584609F04BFA2A9983460698D5
:1058500009F05DFA011C584609F042FA011C504655
:1058600009F03EFA2E996061484609F050FA2F99E6
:105870008146059809F04BFA011C484609F030FAB8
:105880002D998146381C09F042FA011C484609F05E
:1058900027FA3199071C301C09F039FA3299061C95
:1058A000281C09F034FA011C301C09F019FA30994F
:1058B000051C069809F02BFA011C281C09F010FAA7
:1058C000011C381C09F00CFA18239C46339BE04459
:1058D000A0611C34434500D08CE6FFAB84330693B3
:1058E000FFAB14333C9C3393079B0D99DA691E6F11
:1058F00091469A6B301C90465A6D1F680592069A25
:1059000020CA069209F003FA0E998246281C09F073
:10591000FEF9011C504609F0E3F90C9982460598FE
:1059200009F0F5F9011C504609F0DAF90A998246A6
:10593000484609F0ECF90B998346404609F0E7F92F
:10594000011C584609F0CCF908998346381C09F027
:10595000DEF9011C584609F0C3F9011C504609F054
:10596000BFF9011C206809F0BBF910992060484676
:1059700009F0CDF911998246404609F0C8F9011C99
:10598000504609F0ADF90F998246381C09F0BFF96D
:10599000011C504609F0A4F913998246301C09F005
:1059A000B6F914998346281C09F0B1F9011C584630
:1059B00009F096F912998346059809F0A8F9011C97
:1059C000584609F08DF9011C504609F089F9011C6F
:1059D000606809F085F916996060484609F097F902
:1059E00017998246404609F092F9011C504609F089
:1059F00077F915998246381C09F089F9011C50463F
:105A000009F06EF919998246301C09F080F91A994B
:105A10008346281C09F07BF9011C584609F060F9FF
:105A200018998346059809F072F9011C584609F047
:105A300057F9011C504609F053F9011CA06809F000
:105A40004FF91C99A060484609F061F91D998246FA
:105A5000404609F05CF9011C504609F041F91B99D8
:105A60008246381C09F053F9011C504609F038F9F8
:105A70001F998246301C09F04AF920998346281C58
:105A800009F045F9011C584609F02AF91E99834688
:105A9000059809F03CF9011C584609F021F9011C50
:105AA000504609F01DF9011CE06809F019F9229926
:105AB000E060484609F02BF923998246404609F0F8
:105AC00026F9011C504609F00BF921998246381C31
:105AD00009F01DF9011C504609F002F9259982468A
