:020000041000EA
:1000000000B5324B212058609868022188439860DF
:10001000D860186158612E4B002199600221596106
:100020000121F02299502B49196001219960352056
:1000300000F044F80222904214D00621196600F024
:1000400034F8196E01211966002018661A6600F04E
:100050002CF8196E196E196E052000F02FF8012189
:100060000842F9D1002199601B49196000215960AB
:100070001A491B48016001219960EB211966A021F2
:10008000196600F012F800219960164914480160C1
:100090000121996001BC002800D000471248134993
:1000A000086003C880F30888084703B5996A0420EC
:1000B0000142FBD001200142F8D103BD02B5186610
:1000C0001866FFF7F2FF186E186E02BD00000240BE
:1000D000000000180000070000035F00212200005C
:1000E000F4000018222000A00001001008ED00E03C
:1000F00000000000000000000000000074B24E7A12
:1001000000200420F7010010C3010010C5010010F9
:10011000C1010010C1010010C1010010C101001097
:10012000C1010010C1010010C1010010C701001081
:10013000C1010010C1010010C9010010CB01001065
:10014000CD010010CD010010CD010010CD01001037
:10015000CD010010CD010010CD010010CD01001027
:10016000CD010010CD010010CD010010CD01001017
:10017000CD010010CD010010CD010010CD01001007
:10018000CD010010CD010010CD010010CD010010F7
:10019000CD010010CD010010CD010010CD010010E7
:1001A000CD010010CD010010CD010010CD010010D7
:1001B000CD010010CD010010CD010010CD010010C7
:1001C00000BE00BE00BE00BE00BE00BEEFF3058054
:1001D000103800BEF2EB8871447005106470051091
:1001E0003402001090A31AE700201F49086006C8D7
:1001F00081F3088810471D48006800282FD10DA4FE
:100200000ECC002902D000F012F8F9E71849194A7B
:10021000002000E001C19142FCD1174988471749ED
:1002200088471749884700BEFDE701C901C29A42C5
:10023000FBD3704764700510C0000020202D002003
:10024000C49C05100000042000000420C49C05107C
:10025000001004200010042000000000704709482E
:100260000FF0E6FE0047000008ED00E0000000D0BF
:10027000202D0020285D032025E8001055030010E4
:1002800059E900105756000006005250ABB36053B6
:1002900018CC041006005250861C030228CC04100F
:1002A000060052505422A29D34CC04100500525036
:1002B000DE65F468C49C0510F8B5C0460448054BDB
:1002C00010B5834203D0044B002B00D0984710BDDB
:1002D000202D0020202D00200000000006480749A6
:1002E000091A8B10C90FC91810B5491003D0044B57
:1002F000002B00D0984710BD202D0020202D00207D
:100300000000000010B5074C2378002B09D1FFF73F
:10031000D5FF054B002B02D0044800E000BF0123AD
:10032000237010BD2832002000000000D8C6041041
:10033000054B10B5002B03D00449054800E000BF71
:10034000FFF7CCFF10BDC046000000002C3200209B
:10035000D8C6041070B519200CF098FAD02380226A
:100360001B0692045A6211F00DFF00F04BF807F0E3
:10037000C9FE09F045FE08F0C1F902F031FC00F0B9
:100380003DF90BF06BFA00220524144B1A7007F0AC
:10039000B7FA134D013C2100280011F0E7FEFA20C6
:1003A00080000DF083F8002CF4D10A2011F03EFDFE
:1003B000012200210B480CF041FD0B4814F092F88B
:1003C00001220A4B0A4C1A702378012BFCD109F048
:1003D000D3FF2378012BFAD0F6E7C0460A5D03204D
:1003E000D8C60410045C032079A50010095D032021
:1003F0000E5D032010B5024814F09CFB10BDC046F2
:10040000543B0320092370B586B00593043304934D
:10041000023B0393013B0293023B324D324C01936A
:10042000324B22003249334800932B0006F026FF5E
:10043000142006F01FFFFA2080000DF037F82E4E32
:1004400021003200280007F031F93378682B08D0FA
:100450002A4C200011F036FDFA2080000DF026F81D
:10046000F7E773783D2BF3D101222100280007F034
:1004700041F9234E32002100280007F075F9337846
:10048000002BF7D101222100280006F0F1FF012105
:10049000200006F0CFFF0321200006F061FF0321BA
:1004A000280007F08BF81321200007F0CBF9122168
:1004B000200007F005FA0021200007F0E3F90321EE
:1004C000200007F06DF90221200007F085F9552181
:1004D000200006F063FF1821280007F009F806B095
:1004E00070BDC0460C220320AC33002040420F00F8
:1004F0009C20002094200020B85C0320ECC604104F
:10050000235D0320F0B5C646334C344D344E2200F3
:100510002900300000B507F0DBF86378DB439B0768
:1005200020D023781B0702D480BCB846F0BD2D4CE8
:1005300006220021200011F047FB2100300007F0C7
:1005400097F80023E05E06F001FF274D28600223A4
:10055000E05E06F0FBFE68600423E05E06F0F6FE57
:10056000A860E1E7214B062298461800002111F00F
:100570002BFB1F4F06220021380011F025FB4146BE
:10058000280007F057F83900280007F035F84346EF
:100590000020185E06F0C6FE4346164D2860022075
:1005A000185E06F0BFFE434668600420185E06F041
:1005B000B9FEA8600023F85E06F0BEFE0E4D28606E
:1005C0000223F85E06F0B8FE68600423F85E06F0C9
:1005D000B3FEA860A5E7C046F8510320AC33002065
:1005E0000C22032064410320D04603205441032001
:1005F0005C410320D03F0320F03F0320F0B5C64606
:1006000000B511F0BFFD244924480EF043F8032142
:100610001A200CF00BF903211B200CF007F9002223
:1006200001211A200CF01AF9002201211B200CF0E4
:1006300015F91B480CF03AFF1A4C1B4E23781B4D42
:10064000DB070ED41A4B01279846210030880BF0A7
:10065000F5FD4346287018680CF028FF23781F42E8
:10066000F3D030880BF0C8FB0221287030880BF0E3
:1006700019FD1421287030880BF04CFC14212870CF
:1006800030880BF0B5FD287030880BF019FC28700D
:1006900080BCB846F0BDC046801A0600B4210020D8
:1006A000B80B0000245D0320A4200020115D03206E
:1006B000A8200020F0B55746DE464E464546E0B538
:1006C0008BB008919246190005900993DA1703231D
:1006D0008C46134063449B109B009846002B00DC23
:1006E00090E05246159B00249B000193149B9B1A9B
:1006F000159A9B1A089A9B00029353681268190175
:1007000094460491069251469A00039252468D00F7
:100710000021013A92000792002289465900DE002A
:10072000CB189B009B461300424665440092019AF9
:1007300094469C44039B1A199F195346002B1EDDB7
:10074000069B059819196346804600989B00434410
:1007500080460094086818600098081A845804318C
:100760005C6084599C60C059D86010338D42F1D1CF
:1007700043460799009363468C4604339C44042106
:10078000029B5A4463448C461400049A3E00E144A0
:100790009446009A5E4465444A45C8DC1A00009BB2
:1007A0009846099B434526DD1499159C089B0D1B13
:1007B000514609CB6D1A00291DDD41469E004B4371
:1007C0009B00C01853469C00059B47469C46099BCE
:1007D000AB469846159B994600234A4491006144D4
:1007E000C558CD5004339C42FAD1524401375A4483
:1007F0008019B845F0D10BB0F0BCBB46B246A94653
:10080000A046F0BD0022CCE7F0B54746CE4680B505
:100810001F00002B1DDD002A1BDD9300C0180B6894
:10082000002498464B689100D200494252428C46BF
:1008300091469B00614645182900A2004244166873
:10084000D21840C18142FAD14A460134A81AA742BF
:10085000F0D1C0BCB946B046F0BDC046F0B5DE46EA
:100860004E46574645460023E0B5136083688BB07B
:10087000049305239B4600235E4609920268029377
:10088000013B07900691039208930523049C9B1B50
:100890005C439846029BA4009C46039B64449C4690
:1008A000644423685D0063686D085F007F08291C4D
:1008B000381C10F01FFF002800D1CCE03D1C0127A0
:1008C000731C9A46022B37D9A368291C5B005B086E
:1008D000181C994610F00EFF002801D04D46022743
:1008E0005346032B28D0E368291C5B005B08181CC7
:1008F000994610F0FFFE002801D04D4603275346CD
:10090000042B19D02369281C5B005B08191C99462D
:1009100010F0E2FE002801D04D4604275346062B76
:100920000AD16469281C64006408211C10F0D4FEFC
:10093000002801D00527251C069B029A4744002168
:100940009F50281C10F0C0FE002800D185E0089BB5
:10095000013300D1FEE0062347469B1B9C46079AC5
:1009600005939268574367440492BF000599049B1E
:100970000C009A005C43029B00929C46039BA500DE
:100980001A0065448C4691469B46924690463B1D14
:100990006444A400994404335D445C449A44BB44D9
:1009A00004331037944698443B0000276344019376
:1009B0005B462968186810F058FE011C206810F08A
:1009C0003AFE2060012E2DD94B462868196810F098
:1009D0004CFE011C606810F02EFE6060022E21D0DB
:1009E00053462868196810F040FE011CA06810F0FA
:1009F00022FEA060032E15D043462868196810F027
:100A000034FE011CE06810F016FEE060052E09D1EE
:100A1000019B2968186810F028FE011C206910F05D
:100A20000AFE2061009B01379C4665446444BE4237
:100A3000BED1029B013E04330293059B052B00D0DF
:100A400023E71A00069B5A610BB0F0BCBB46B246C6
:100A5000A946A046F0BD002732E7474530D00399AC
:100A600002988C46BF0067448446079A3C689268A7
:100A70000B5892000C5061443B608918BB18086801
:100A80001C680C60186089189B1808681C680C604A
:100A9000186089189B1808681C680C601860891811
:100AA0009B1808681C680C60186089189B181868E7
:100AB0000A6808601A60099A13680093013313608A
:100AC0004746079B039A9B685F4304930623991B41
:100AD00043468C46FB189B0067449C58BF00D519C1
:100AE00028680591211C10F0ACFD2860012E00D86B
:100AF0003CE7039B3D1D9C4665442868211C10F083
:100B0000A0FD2860022E00D130E7039B3D009C46EB
:100B1000083565442868211C10F093FD2860032ED9
:100B200000D123E7039B3D009C460C3565442868B3
:100B3000211C10F086FD2860042E00D116E7039AD0
:100B40003D009446103565442868211C10F079FD5D
:100B500028600BE7062347469B1B9C4605934346AC
:100B6000079A08939268574367440492BF00FDE6D2
:100B7000F0B55746DE464E464546E0B599B014936B
:100B8000249B8246259C26985D1C00D1229B651CD7
:100B900000D1229C239DEE1703253540239EB446A9
:100BA0006544AD10AF000725229E0E97AE43350079
:100BB0000096149E002E00DC88E29B001693230111
:100BC00010930301D31817936B1EDB0801330391B5
:100BD000D9015B010F93A3007C432018800011937F
:100BE000131815930023D346139108930E9B002BE3
:100BF00000DCC2E10F9A039B944663441293179B57
:100C0000D8460193002302930298434601000CCB7F
:100C1000089C5943A4466144890051180991411C1C
:100C200059436144890051180A91811C5943614418
:100C3000890051180B91C11C4B4363449B00D3188E
:100C4000019E0C93009B3400002B00DC45E2039BCB
:100C50000025994600234C46AA46AB46A946069570
:100C600004952F1C059507950D9325683168281C60
:100C700010F0FBFC594610F0E1FC71688346281C1B
:100C800010F0F3FC514610F0D9FCB1688246281CE4
:100C900010F0EBFC079910F0D1FCF1680790281CCC
:100CA00010F0E3FC059910F0C9FC05906568316906
:100CB000281C10F0DAFC391C10F0C0FC7169071C0C
:100CC000281C10F0D2FC049910F0B8FCB169049013
:100CD000281C10F0CAFC069910F0B0FCF1690690CF
:100CE000281C10F0C2FC494610F0A8FC8146A568FB
:100CF000316A281C10F0B9FC594610F09FFC716A4B
:100D00008346281C10F0B1FC514610F097FCB16AE4
:100D10008246281C10F0A9FC079910F08FFCF16A9C
:100D20000790281C10F0A1FC059910F087FC059095
:100D3000E568316B281C10F098FC391C10F07EFC23
:100D4000716B071C281C10F090FC049910F076FCC5
:100D5000B16B0490281C10F088FC069910F06EFC12
:100D6000F16B0690281C10F080FC494610F066FCE0
:100D700081462569316C281C10F077FC594610F02B
:100D80005DFC716C8346281C10F06FFC514610F01E
:100D900055FCB16C8246281C10F067FC079910F0D6
:100DA0004DFCF16C0790281C10F05FFC059910F0C9
:100DB00045FC05906569316D281C10F056FC391C06
:100DC00010F03CFC716D071C281C10F04EFC0499BF
:100DD00010F034FCB16D0490281C10F046FC06990C
:100DE00010F02CFCF16D0690281C10F03EFC4946DA
:100DF00010F024FC8146A569316E281C10F035FCEA
:100E0000594610F01BFC716E8346281C10F02DFC17
:100E1000514610F013FCB16E8246281C10F025FCE0
:100E2000079910F00BFCF16E0790281C10F01DFCC8
:100E3000059910F003FC0590E569316F281C10F04E
:100E400014FC391C10F0FAFB716F071C281C10F001
:100E50000CFC049910F0F2FBB16F0490281C10F008
:100E600004FC069910F0EAFBF16F0690281C10F0C4
:100E7000FCFB494610F0E2FB8146803620340D9B96
:100E8000009A08330D939A4200DDEEE6139B019C15
:100E90009C46051C5946381C644410F0CFFB514653
:100EA000071C049810F0CAFB0799061C069810F05E
:100EB000C5FB05998146281C10F0C0FB129B051C40
:100EC0009A46229A009B9A4230DDAB4604935346E1
:100ED00020CB2168281C9A4610F0C7FB011C381C47
:100EE00010F0ACFB6168071C281C10F0BEFB011C55
:100EF000301C10F0A3FBA168061C281C10F0B5FBE9
:100F0000011C484610F09AFBE1688146281C10F04D
:100F1000ACFB011C584610F091FB8346049B229ABF
:100F20000133103404939A42D1D1051C311C0A9E1E
:100F3000306810F080FB391C099F041C386810F0E1
:100F40007AFB291C0C9D38603460286810F073FB14
:100F50000B9E4946041C306810F06DFB1099019AF5
:100F60008C46029B624401920E9A043330600293D5
:100F70002C609A4200DD47E6C3460F9A039B9446D5
:100F800063440E9A0293239B9246159D934200DC84
:100F900090E05B465C6853465C43089B2F009C4690
:100FA0005B461B6864449C46009BA4006444002B81
:100FB00000DC99E00023039F99463B00A0460026F1
:100FC0002F001C003968206810F04FFB311C10F016
:100FD00035FB061C7968606810F047FB311C10F087
:100FE0002DFB061CB968A06810F03FFB311C10F007
:100FF00025FB061CF968E06810F037FB311C10F087
:101000001DFB061C3969206910F02FFB311C10F004
:1010100015FB061C7969606910F027FB311C10F084
:101020000DFB061CB969A06910F01FFB311C10F004
:1010300005FB061CF969E06910F017FB311C10F084
:10104000FDFA061C2037203408239C46009BE1440F
:101050004B45B7DC44460F9BEF18029B0193229A45
:10106000009B9A4217DD9946002398464346424624
:10107000F958019B985810F0F8FA011C301C10F038
:10108000DDFA061C01239C460333E1449C46229B67
:10109000E0444B45EAD12068311C10F0CCFA012322
:1010A0009C46119BE2449C46239B2060654453452B
:1010B00000D06EE71699039A8C46089B624403920F
:1010C000149A013308939A4200D08FE519B0F0BC0E
:1010D000BB46B246A946A046F0BD0025039BA946E3
:1010E0009A462E1C2F1CECE6039B00260193B6E7C4
:1010F000F0B55746DE464E4645469C24E0B5BDB0A9
:1011000006AF3C19FB63842320609824BA669422BE
:101110005B003C19FB1821601C68BA182369FB6747
:10112000A3681360834202DD9423FB1818609423A4
:101130009821FB187918FA6F1B680D6853435543C3
:101140002268002A00D1DBE29B007B668C23FB181F
:101150001A6090220023BA1813606368AA003A66E6
:10116000002B00D1ECE28822BB670023BA18136081
:10117000C84D2B78BFF35B8FDB0700D4FDE2C64C74
:10118000A4220423BA1813609433FB181B68606808
:10119000002B18DD9C237A1DFB18FF321B68126898
:1011A0001900934200DAFFE209010EF09BFF0323CE
:1011B000C2171340A4221B189B109B00BA1813607F
:1011C000042B00DAEBE29C23FB181C68002C00DCEB
:1011D00072E2FB6BFD6F18006A425043F861180021
:1011E0008021661B7043F866180001335A43920051
:1011F0007918BA61621E0E60110059438900884651
:10120000B96E1B018C46E04441467964A90049420D
:101210003961A1007C1CFF3424685B42A446A424ED
:1012200061443964791DFF313C1909682468FB6009
:101230006143B962B02183005B4279180B600300FF
:10124000921B5043DB43AC229B00BA181360C422AC
:101250007B1DFF331B68BA189B0078611360A022C6
:10126000FB6FBA1813609C22BA181268934202DD11
:10127000A023FB181A609823FB181B68002B00DCC6
:101280009FE1A023FB181A68002A00DC99E198234B
:10129000FB181B68396C3B65A423FB181B68534380
:1012A0009B00FB62BB6FFB649300CB1A79697B6286
:1012B0008C46FB6EB82163447B63002379180B6076
:1012C000D021BB643B679C33FB181B6879189B1AC1
:1012D000BB60130079600321013B043A8B43D31AAE
:1012E0003B63A422BA183B6D1268FB65934200DD94
:1012F000FA65B822BA181268FB6D9446C822634496
:10130000BA1813609C237A6AFB1894461B688422DF
:101310007B673B6FBA189B0063443B627B6B7B65CA
:101320007B6CBB65A023FB181B6813608423B4226D
:10133000FB181B68BA181360042B03DDB4220423C6
:10134000BA1813608423FB181B68002B00DCA5E08F
:10135000B422C820B824BA187B6F116838183C1919
:10136000006824685A1ABA63A04200DC9CE09446E4
:101370004E1EB96E9B008A46043B9B467B6D791CD2
:1013800063449B00FF3109689A44BB6C63448C46FC
:10139000A8219B00634479180B609300C0225B4234
:1013A000BA181360BC22BB6DBA181360BC23FE20B0
:1013B000FB181B688005196810F043F9CC23FB1853
:1013C0001860A823FB181C68B823FB181B68B146DB
:1013D0001E00C023FB181B685A469846A04443468B
:1013E0009958CC23FB18186810F03FF943465A4629
:1013F00098504B46051C002B22DD5346196810F00F
:1014000034F9011C206810F016F94B462060012BBE
:1014100016D05346281C596810F027F9011C606843
:1014200010F009F94B466060022B09D05346281C86
:10143000996810F01AF9011CA06810F0FCF8A0607F
:10144000C423FB181B6801369C46C823FB181B6885
:1014500064449E42BDD1AC22BC23BA181268FB186A
:101460009446BC221B68BA18634413600423B0225C
:101470005B429C46BA181268E3449446B4224E4636
:10148000BA181268731EE244961BB2420CDD1E00AD
:101490008CE7C046A4250320683B0320B422BA1879
:1014A0007B6F12689B1ABB638423B422BD6BBA188E
:1014B000AC46FB1810681B687A1CFF3212681C1AB5
:1014C0003B6F7968634494469B0063440B607B1DCB
:1014D000FF331B6880464B60A0230194FB181E68F5
:1014E00002000096FB6DF86C9B4689468246FFF72A
:1014F000E1F8002C2ADD2B00BA6849469446FD6BC2
:10150000BA6E6B438C20634494464D604D469B00FD
:101510003818006863440B60424623008146FFF799
:1015200073F929007B1DFF333D6A1B680D604B601A
:101530000D005B46039646460193524623004946FA
:101540002800049402960096FFF712FB842384225D
:10155000F968FB188C46B0211B68BA18043B13606D
:101560007A6F7918043A09687A67BA6D62448C46D2
:10157000BA657A6D62447A653A6B934200D0D5E6DB
:10158000A422B823BA181268B8219446FB181B6825
:10159000791863440B60396D8A1AF96A3A658C468A
:1015A000FA6CB96A62448C46FA643A6F62443A67EC
:1015B000BA6C6244BA649822BA1812689A4200DD82
:1015C0008FE680239C22FB181B68BA181360002B3F
:1015D00072DD9423FB181B68002B00DCFEE78023E0
:1015E000BA6EFB1892461D68FB6E00249B009A445D
:1015F000D023FE1800239B46013B99469423FB18F9
:101600001B68A8469D4200DD9846CC22A300BA186C
:101610001360FA6B8C207260A0225344BA183818F9
:1016200031001268006833604346FFF7EDF87A1C1A
:10163000CC23FF321268FB1894461B688C2163444C
:1016400033607B1DFF331B68791873605B4604931E
:101650004B46039302939823FB181B6830000193B9
:10166000A023FB181B680093BA6F43460968FFF775
:101670007FFA9423FB181B689C46ED1A8023FB1805
:101680001B686444A342B9DCFA69FB6E9446BA69EC
:1016900063449446FB663A697B6C634494467B647E
:1016A0003B6CFA6F63443B648023FB181B689B1AF6
:1016B0008022BA181360D2E580233A6E9B029A42C8
:1016C00008D98823FB181B68002B03D0043B18683B
:1016D00010F062FA80237A6E9B029A4208D9902316
:1016E000FB181B68002B03D0043B186810F054FA59
:1016F000BD4637B0F0BCBB46B246A946A046F0BDD9
:101700009A0080237A669B029A424FD813006A4659
:101710001633DB08DB00D31A9D4627200F236844CD
:1017200098438133FB18186090238C22FB181B68A8
:10173000BA1813606368AA003A66002B00D012E55D
:1017400080239B029A424FD813006A461633DB0867
:10175000DB00D31A9D4627200F2368449843793332
:10176000FB1818608823FB181B682D4DBB672B786E
:10177000BFF35B8FDB0700D501E5280012F0D8FE30
:10178000284C002800D1FBE48023DB012360802368
:101790001B0328006360A36012F0E6FEF0E4A422BD
:1017A0000423BA1813600EE51100FDE41000103098
:1017B00010F0D4F99023FB18021E1860B4D00F2348
:1017C000010099430B0010218C468C209C446146FB
:1017D000DA6023683818016058425841902340422B
:1017E0000140FB181960B8E41000103010F0B6F991
:1017F0008823FB1818600028B4D00F2301009943F8
:101800000B0010218C46D86060689C4443425841CC
:10181000614688234042B967FB1801401960A7E47C
:10182000A4250320683B0320F0B55746DE464E460C
:101830004546E0B5B3B006AF8C24BB62E023FA6244
:1018400088223C19FB1821601C68BA182369786546
:1018500013608422A368BA181360834202DD8423D4
:10186000FB181860842388228C21FB18BA18791879
:1018700012681B680D68534355432268002A00D143
:1018800050E29B00FA6780223B650023BA18136080
:101890006368AA00FA64002B00D161E2FB660023B2
:1018A000BB67E74D2B78BFF35B8FDB0700D470E29B
:1018B000E44C90220423BA1813608833FB181B6889
:1018C0006068002B16DDDC22BA187B6D12681900E7
:1018D000934200DA74E209010EF004FC0323C217FC
:1018E000134090221B189B109B00BA181360042B06
:1018F00000DA60E27B6D002B00DCF1E18822B96A3E
:10190000BA1808001268BB6350439B1AB86098204D
:101910007B634B1C99001B01FB61DC234A43381895
:1019200001607A609020DC22FB181B68BA189B00CB
:101930009B46FB6A38183B63002312680068BB654E
:1019400042437A610A1F3A627B679422BB6BBA18E2
:1019500013608822BA181268934202DD9423FB18A0
:101960001A608C23FB181B68002B00DC45E19423D4
:10197000FB181A68002A00DC3FE18C239021FB1839
:101980001B687918BB6413000968DA464B43D821F9
:10199000791809689B008C463B61FB6E9C21FB65B6
:1019A0007B6F79189B006344FB6000230B60A821C8
:1019B0003B667918130039600321013B043A8B43DD
:1019C000D31ABB619022BA18BB6C1268BB669342F3
:1019D00000DDBA669C22BA181268BB6E9446FA689B
:1019E000634494469B463B6E9B006344FB633B6BA6
:1019F0003B647B6F7B66BB6D7B649423FB181B6829
:101A00003B679423FB181A683B6FD21A7A62A022B4
:101A1000BA181360042B03DDA0220423BA18136044
:101A20003B6F002B58DD9C23FB181B689B4553DD47
:101A3000A023A422FB181B68BA18013B9946FB6B34
:101A400013603B6C98464B46002B2EDDA423FB18FD
:101A50001C689C23FB181E68434625685968281C8F
:101A60000FF003FE011C60680FF0E5FD4B4660605F
:101A7000012B16D04346281C99680FF0F6FD011C77
:101A8000A0680FF0D8FD4B46A060022B09D043465A
:101A9000281CD9680FF0E9FD011CE0680FF0CBFDB0
:101AA000E060013654445E45D6D14B465A1E982319
:101AB000FB181B68A4219C46A423FB181B687918FB
:101AC00004330B60A023FB1819684B46E044CB1A83
:101AD000994201DD9146B6E7A022BA181468D822CF
:101AE0003B6F796E3E6E8C461D1B3300BA18106832
:101AF0006344844639689B0063440B60DC23FB1815
:101B00001B6822004B607B6A884601939423FB1874
:101B100018680090BB6EF86DFEF7CCFD002D36DD29
:101B20007B6E41469C46786C220064440319F86A37
:101B30009B008446B86A63444860A020381802605D
:101B4000F86F0B602B00C1468046FEF75DFED82281
:101B5000BA18331914689B00A4464C4663442360AA
:101B6000DC23FB1819687B6A616004939423FB18DB
:101B70001E68A0230396FB181A6841460292BB6EAA
:101B80000092019348462B00FA6DFEF7F1FF396A87
:101B90007A6C8C46F96962448C467A647A6E3B6F43
:101BA00004327A663A6C043B62443A64FA6B3B67EF
:101BB0001032FA63BA69934200D022E790229C2344
:101BC000BA1812689C219446FB181B687918634464
:101BD0000B60B96C8A1A7969BA648C463A6E3969B5
:101BE00062448C463A66FA6D6244FA658C22BA18F1
:101BF00012689A4200DDE5E6D3468822BA181268D8
:101C00007B6F94467A6D63447B67934268DA8423E2
:101C1000FB181B68002B17DC8823B968FB188C465F
:101C2000BA6B1B68D21ABA63BA6D6244BA657A6B32
:101C3000D31A7A687B6394463B6B63443B6384E6C8
:101C4000A4250320683B0320FA6ABB6D92469B00E3
:101C50009A44A823FE18A93B99467D6B7C6F842388
:101C6000FB181B68A8469D4200DD9846A422A300ED
:101C7000BA181360BA6A534472609422BA183100D9
:101C80001268F86F33604346FEF7BEFDD822A423E6
:101C9000BA181268FB1894461B683000634433601E
:101CA000DC23FB181B687360002304934B460393EB
:101CB00002938C23FB181B6801939423FB181B6869
:101CC0000093FA6E4346F96FFEF752FF8423FB1828
:101CD0001B689C46ED1A7B6D6444A342BFDC9BE706
:101CE0008023FA6C9B029A4206D9BB6F002B03D06B
:101CF000043B18680FF050FF80233A6D9B029A4214
:101D000008D98023FB181B68002B03D0043B1868FC
:101D10000FF042FFBD462DB0F0BCBB46B246A9460F
:101D2000A046F0BD9A0080233A659B029A4249D8AA
:101D300013006A461633DB08DB00D31A9D462720C2
:101D40000F23684498437133FB1818608023FB18F5
:101D50001B68AA00FB676368FA64002B00D09DE54E
:101D600080239B029A4249D813006A461633DB0847
:101D7000DB00D31A9D4627200F2368449843B86799
:101D8000BB6F2A4DFB662B78BFF35B8FDB0700D55B
:101D90008EE5280012F0CCFB254C002800D188E508
:101DA0008023DB01236080231B0328006360A36082
:101DB00012F0DAFB7DE590220423BA18136099E54E
:101DC000110088E5100010300FF0C8FE8023FB18CA
:101DD00018600028BAD00F23010099430B0010218E
:101DE0008C46D8609C442368614658425841802301
:101DF0004042F967FB180140196049E510001030B6
:101E00000FF0ACFEB8670028BAD00F230100994349
:101E10000B0010218C46D86060689C4443425841B6
:101E200061464042F9660140B9673AE5A4250320BE
:101E3000683B032030B587B00D4B02AD00951A68A2
:101E4000694602929A880400AA809B796A46AB711F
:101E5000072301930023D3732FF0FCFA0098A842C4
:101E600003D0029901310FF0CBFE200007B030BD46
:101E700000C70410F0B5DE4657464E464546E0B56D
:101E80001F1CFE4B8FB01D68FD4B079018680A9110
:101E9000011C00920FF0D2FBFA4B19680FF0E5FB22
:101EA000291C0FF0E2FBF84B19680FF0CAFB011C6C
:101EB000FE2080050FF0BFFBF44B81461860F44B09
:101EC0001E68301C0FF084FCF24B041C1B68301C95
:101ED00098460FF08FFCF04B8346211C40461E684D
:101EE0000FF0C3FB59468246301C0FF0BEFB011CAD
:101EF00050460FF0A3FB291C0FF0B7FBE74B8246BF
:101F0000186080231B0643441800391C0FF0ADFBFA
:101F100000998046301C0FF0A8FB011C40460FF0D2
:101F20008DFBDF4B80461968201C0FF09EFB189933
:101F30000FF09BFB011C40460FF080FB291C0FF0AB
:101F400094FBD84B1899186080231B068046F01824
:101F50000FF08BFB291C0FF088FBD34B009018600F
:101F6000391C281C0FF081FB211C0FF06AFBCF4CA1
:101F7000CF4B2668CF4C18602768CF4B8346196833
:101F8000381C0FF072FBCD4C311C2568041C4846F0
:101F90000FF06BFB011C201C0FF050FBC84B041C06
:101FA0001968281C0FF061FB011C201C0FF046FB78
:101FB00041460FF043FBC34B0C901860C24B381CDA
:101FC0001C68C24B19680FF050FB211C8046301C66
:101FD0000FF04BFB011C40460FF030FB291C8046E4
:101FE00050460FF042FB011C40460FF027FB0099C2
:101FF0000FF024FBB64B08901860B64B301C1968E4
:102000000FF033FBB44B061C1968381C0FF02DFB86
:10201000011C301C0FF012FBB04B061C1968281C69
:102020000FF023FB011C301C0FF008FB59460FF08A
:1020300005FBAB4EAB4B35681860494609904846E6
:102040000FF013FB291C0FF010FBA74B19680FF0C2
:10205000F5FAA64BA64A186012680D90211C484656
:1020600090460FF002FB291C0FF0FFFAA14F061C4F
:102070003F684846391C00970FF0F7FA011C301CE6
:102080000FF0DCFA5146061C48460FF0EEFA4146C6
:102090000FF0EBFA011C301C0FF0D0FA964B4146C2
:1020A0000190186048460FF0E0FA944B02901860D7
:1020B000291C201C0FF0D9FA914D924E29680FF07F
:1020C000BDFA3768051C391C50460FF0CEFA011CCA
:1020D000281C0FF0B3FA061C011C48460FF0C5FA85
:1020E000894B8A4A18608A4B12681B6803900593D3
:1020F0000492884D50462D68291C06950FF0B5FABC
:102100004146051C201C0FF0B0FA834B19680FF0F4
:1021100095FA291C0FF092FA311C8346201C0FF00F
:10212000A4FA0099061C201C0FF09FFA011C301C19
:102130000FF084FA05990FF081FA049B061C191C14
:10214000504698460FF091FA011C301C0FF076FAB9
:102150005946061C50460FF088FA011C301C0FF03F
:102160006DFA6E4B5E4619680FF068FA6C4B009082
:1021700018606C4B391C1E6048460FF076FA6A4BAB
:1021800004901860391C201C0FF06FFA41460FF0C4
:1021900055FA291C0FF052FA644B041C1860644B6A
:1021A000196806980FF04AFA624B0899071C1860E4
:1021B00007980FF040FA604B0999069018600A984A
:1021C0000FF039FA5D4B079018605D4B0598196860
:1021D0000FF034FA5B4B061C186058465A4B0597B3
:1021E00018605A4B381C1C60594B19680FF026FABE
:1021F000584B071C1860011C301C0FF036FA211CCC
:10220000051C58460FF031FA011C281C0FF013FA78
:10221000051C011C381C0FF014FA4F4B071C1860EA
:1022200080231B065B44291C18000FF00AFA4B4B55
:102230008146186080231B06E018291C0FF001FA64
:10224000474B82461860291C301C0FF0FAF9454BA9
:1022500080461860391C01980A970FF006FA029E12
:102260005146051C301C0FF000FA011C281C0FF011
:10227000E5F93D4B071C1860494677E0D020002067
:10228000AC20002084230320D82000200C4203200F
:1022900014210020182100201C2100201C420320B2
:1022A000CC200020605C0320645C0320B02303206A
:1022B000685C0320B423032010420320B8230320CA
:1022C00014420320BC23032018420320C420002012
:1022D000C02303202042032024420320C8200020E2
:1022E000DC200020C4230320F4200020E020002074
:1022F000F4500320EC500320F0500320F85003204A
:10230000FC5003200C5103200051032014510320E2
:10231000E4200020EC20002004510320F8200020BD
:10232000E8200020085103201051032018510320F9
:10233000FC200020F0200020F84103200042032070
:1023400000210020C85B0320CC5B0320D05B03206E
:1023500004210020D45B0320D85B0320DC5B032036
:10236000E05B0320E45B0320C033002001980FF002
:102370007CF94146051C301C0FF077F9011C281C24
:102380000FF05CF9914B061C0A99186000980FF049
:102390006CF95146051C58460FF067F9011C281CC2
:1023A0000FF04CF98A4B494618600B9000980FF0DB
:1023B0005CF94146051C58460FF057F9011C281CD2
:1023C0000FF03CF9834B051C0A991860201C0FF094
:1023D0004CF951460A9005980FF047F9011C0A98EC
:1023E0000FF02CF97C4B824618604946201C0FF0F8
:1023F0003CF94146814605980FF037F9011C4846E3
:102400000FF01CF9754B81461860391C06980FF0C7
:102410002CF90C990FF012F9311C804607980FF037
:1024200024F9011C40460FF009F96D4B0B99186017
:1024300006980FF01AF908990FF000F9291C804648
:1024400007980FF012F9011C40460FF0F7F8654BA2
:102450005146186006980FF008F909990FF0EEF848
:102460004946804607980FF000F9011C40460FF0DE
:10247000E5F85D4B391C186003980FF0F6F8011C65
:102480000D980FF0D8F8311C804604980FF0EDF845
:10249000011C40460FF0CFF8544B391C18600098CF
:1024A0000FF0E3F8011C01980FF0C5F8311C8046CD
:1024B000201C0FF0DAF8011C40460FF0BCF84C4B22
:1024C000391C186058460FF0D0F8011C02980FF024
:1024D000B2F8059B071C311C181C98460FF0C5F874
:1024E000011C381C0FF0A7F8424B0B991860FE2016
:1024F00080050FF0A0F8061C011C03980FF0B5F83A
:10250000291C071C04980FF0B0F8011C381C0FF0B0
:1025100092F8394B311C186000980FF0A6F8291C6E
:10252000071C201C0FF0A1F8011C381C0FF083F8C9
:10253000324B311C186058460FF097F8291C061CC6
:1025400040460FF092F8011C301C0FF074F82C4B31
:1025500049461860FE2080050FF06DF8051C011C2F
:1025600004980FF082F85146061C03980FF07DF88E
:10257000011C301C0FF05FF8224B291C1860201C36
:102580000FF073F85146041C00980FF06EF8011C10
:10259000201C0FF050F81C4B291C186040460FF00F
:1025A00064F85146041C58460FF05FF8011C201CCB
:1025B0000FF041F8154B1860FE2080050FB0F0BCFD
:1025C000BB46B246A946A046F0BDC046C433002073
:1025D000C8330020CC330020D0330020D433002077
:1025E000B0230320B4230320B8230320DC200020E1
:1025F000EC500320F4500320FC500320E420002082
:10260000045103200C51032014510320EC2000201E
:10261000F0B5DE4657464E464546E24BE0B51860FB
:10262000E14B0D1C1B68E14C98464146E04BE468C9
:102630001960DD4989B04968069059608946DB4BCD
:10264000DA491F684E68DB4B89681F605E609960DD
:10265000DC60D94B05949A6858681C680292049112
:102660000190DB68211C404603930EF0FEFF0299A7
:10267000824648460EF0F9FF011C50460EF0DEFF80
:10268000CE4B82461968281C9B460EF0EEFF011CBB
:1026900050460EF0D3FFCA4B019918600790404690
:1026A0009A460EF0E2FF0399804648460EF0DDFFA1
:1026B000011C40460EF0C2FF5B4680465968281C4C
:1026C0000EF0D3FF011C40460EF0B8FF554683467E
:1026D0006860211C381C0EF0C8FF029A051C111CF2
:1026E000301C90460EF0C1FF011C281C0EF0A6FF06
:1026F00001998146381C0EF0B8FF039F051C391C58
:10270000301C0EF0B2FF011C281C0EF097FF211C9C
:10271000824604980EF0A9FF4146051C05980EF06C
:10272000A4FF011C281C0EF089FF46460199804633
:1027300004980EF09AFF391C051C05980EF095FFC1
:10274000011C281C0EF07AFF4946071C201C0EF0C5
:102750008CFF4146051C301C0EF087FF011C281C15
:102760000EF06CFF974E31680EF068FF964D5146A3
:1027700004902860201C0EF078FF391C041C02987D
:102780000EF073FF011C201C0EF058FF71680EF054
:1027900055FF49460290686001980EF066FF039A63
:1027A0004146041C101C91460EF05FFF011C201CCA
:1027B0000EF044FFB1680EF041FF5146041CA860C2
:1027C00001980EF052FF391C804648460EF04DFF2E
:1027D000011C40460EF032FFF1680EF02FFFE8605A
:1027E0007A4D071C2E680498311C0EF03EFF6D6870
:1027F0008046291C381C01970EF037FF291C8246A1
:1028000002980EF032FF41460EF018FF311C0EF018
:102810002CFF311C071C201C0EF027FF51460EF028
:102820000DFF291C0EF021FF011C381C0EF006FFC5
:10283000674B19680EF002FF664B071C1860291CD5
:10284000201C0EF012FF41460EF0F8FE391C0EF06F
:10285000F8FE61498046894608600298311C0EF0F6
:1028600004FF51460EF0EAFE391C0EF0EAFE49461E
:10287000079B071C4860181C311C9A460EF0F5FE99
:10288000291C814658460EF0F0FE011C48460EF009
:10289000D5FE011C06980EF0CEFE414681460EF094
:1028A000E4FE51460EF0CAFE3F4A391C106048460D
:1028B0000EF0DBFE59460EF0C1FE3B4A81465060E9
:1028C000464A311C934640460EF0CFFE5A46011C44
:1028D00010680EF0B0FE311C8246381C0EF0C5FEAA
:1028E0005A46011C50680EF0A6FE291C061C4046E4
:1028F0000EF0BBFE5A46011C90680EF09CFE291C8F
:102900008046381C0EF0B1FE5A46011CD0680EF00D
:1029100092FE5146051C04980EF0A7FE029B41460C
:10292000071C181C9B460EF0A0FE011C381C0EF064
:1029300085FE1E4A311C106004980EF096FE291C7C
:10294000071C58460EF091FE011C381C0EF076FE56
:10295000164B51465860201C0EF087FE019B4146E5
:10296000071C181C98460EF080FE011C381C0EF047
:1029700065FE0E4B311C9860201C0EF076FE291C63
:10298000041C40460EF071FE011C201C0EF056FE89
:10299000064BD860484609B0F0BCBB46B246A946D3
:1029A000A046F0BDF05C0320A0500320602E002064
:1029B00070460320A02E0020C02E0020444103209A
:1029C000B0500320B02D0020802E0020C4500320E2
:1029D000502303205C460320B8330020E02E002063
:1029E000F0B5DE4657464E464546E0B5674B83B0E8
:1029F00059689A460EF01FFE654B051C1860654B22
:102A00001B689B46644B59461C680EF017FE211C40
:102A10000EF02BFE614B061C1868011C0EF00EFE1A
:102A2000011C301C0EF00DFE5D4E31680EF006FEEE
:102A30005C4B009030601868011C0EF0FFFD5A4B93
:102A4000061C1A68111C91460EF00FFE8046011CF0
:102A5000201C0EF0F3FD211C071C40460EF0EBFD80
:102A6000524A116890460EF000FE391C0EF0E9FD46
:102A70004946019048460EF0E1FD59468146281C22
:102A80000EF0D9FD011C48460EF0EFFD391C0EF08A
:102A9000D8FD011C01980EF0D1FD4246009910604E
:102AA000071C281C0EF0CAFD391C0EF0C7FD404B58
:102AB00019680EF0DAFD3F4B18603F4B1860534623
:102AC00019680EF0B8FD3D4B051C18603C4B1B68A7
:102AD000191C9A460EF0B2FD211C0EF0C6FD394BB2
:102AE00080461868011C0EF0A9FD011C40460EF03E
:102AF000A8FD354B994619680EF0A0FD4B461860AD
:102B0000324B80461B68301C191C99460EF0ADFDF7
:102B10008346011C201C0EF091FD4946061C4846C8
:102B20000EF08CFD51468146281C0EF084FD011CE0
:102B300048460EF09AFD311C0EF083FD211C8146A3
:102B400058460EF078FD391C0EF08FFD311C0EF04A
:102B500078FD011C48460EF071FD1D4B4146186082
:102B6000041C281C0EF06AFD211C0EF067FD194B99
:102B700019680EF07AFD184B1860184B186003B0F6
:102B8000F0BCBB46B246A946A046F0BDA05003200B
:102B90000442032068460320D4200020B0200020F7
:102BA00054460320C0200020E8330020E0410320E9
:102BB000B82000206C5C03205C5C032008420320EA
:102BC0006C460320B420002058460320EC3300203C
:102BD000E4410320BC200020705C0320745C0320CF
:102BE000F8B5FE250024194BAD051D60DD609C6025
:102BF0005C60174B174F1D60DD609C605C60164B7E
:102C00001E68164B301C19680EF01BFD144B386003
:102C10001D605C60DD609C60124B7C601D605E60CE
:102C2000DD609C60104B1C605D60104B1868011CDF
:102C30000EF01BFD0E4B0F4A186012680E4B1A6007
:102C40000E4A9C6012685C60DA60F8BD602E00205D
:102C5000802E002044410320D4200020D8200020D2
:102C6000E02E0020C02E0020C450032010210020A0
:102C70005023032038230320B02D002034230320C9
:102C8000F0B5DE4657464E464546E0B50E000168B3
:102C9000C7688946416805698A4681688DB08B4658
:102CA000416980690793069050681368926805919E
:102CB0000A90291C30680B92099308950EF0BBFC12
:102CC0000599039070680EF0B6FC0699051CB06873
:102CD0000EF0B1FC80268046360607980EF05EFDA9
:102CE000B446039B009001916344180051460EF0D6
:102CF000BCFC5946061C281C0EF0B7FC011C301CFD
:102D00000EF099FC391C061C404604970EF0ADFCF1
:102D1000011C301C0EF08FFC0EF040FD0022684BB1
:102D20000DF057FC009A019B0DF053FC060048463D
:102D30000F000EF033FD02000B0030003900169C2E
:102D40000DF020FC0DF04AFD4946206003980EF07E
:102D50008CFC5946061C40460EF087FC011C301CBA
:102D60000EF06CFC0499061C281C0EF07EFC011C65
:102D7000301C0EF060FC0EF011FD0022504B0DF0E7
:102D800028FC009A019B0DF024FC060050460F0021
:102D90000EF004FD02000B00300039000DF0F2FBD4
:102DA0000DF01CFD49466060281C0EF05EFC51468B
:102DB000061C40460EF059FC011C301C0EF03BFC7A
:102DC0000499061C03980EF050FC011C301C0EF0F8
:102DD00035FC0EF0E3FC0022394B0DF0FAFB009AB3
:102DE000019B0DF0F6FB060058460F000EF0D6FCD6
:102DF00002000B00300039000DF0C4FB0DF0EEFCBA
:102E00004946A06040460EF030FC5146061C281C86
:102E10000EF02BFC011C301C0EF010FC5946051C5A
:102E200003980EF022FC011C281C0EF004FC0EF08E
:102E3000B5FC0022224B0DF0CCFB009A019B0DF05B
:102E4000C8FB060004980F000EF0A8FC02000B005F
:102E5000300039000DF096FB0DF0C0FC089B09997D
:102E6000E060181C98460EF000FC079D291C0EF02F
:102E7000FCFB011C40460EF0DEFB059F0A99206119
:102E8000381C0EF0F2FB291C0EF0EFFB011C381C65
:102E90000EF0D1FB069E0B996061301C0EF0E5FB35
:102EA000291C0EF0E2FB011C301C0EF0C4FBA061DB
:102EB00000200DB0F0BCBB46B246A946A046F0BD0E
:102EC0000000E03FF0B5DE4657464E4645468A468E
:102ED0004168E0B58846C768816891B00668894650
:102EE0004046391C141C04930EF0BFFB4946051CD8
:102EF000301C0EF0BAFB0A90011C281C09950EF03C
:102F00009AFB0EF04BFC02000B000DF03BFB069011
:102F10000791201C02940EF041FC0B0002000400FB
:102F20000D00069807990DF054FB0DF057FC524622
:102F3000391C106048460EF098FB83464146301C11
:102F40000EF093FB5A460E90011C58460B920EF061
:102F500075FB0EF023FC02000B000DF013FB0200CA
:102F60000B00200029000C920D930DF032FB0DF0A8
:102F700035FC5446311C6060301C0EF076FB414637
:102F8000041C40460EF071FB051C011C201C0EF0B9
:102F900052FB4946089048460EF067FB391C8346B1
:102FA000381C0EF062FB5946019008980EF043FB66
:102FB00001990EF043FB02990F900EF056FB534619
:102FC0004946986040460EF050FB391C8046301C44
:102FD0000EF04BFB81461A980EF0E0FB06001B98A2
:102FE0000F000EF0DBFB02900391291C201C0EF059
:102FF00025FB59460EF01FFB01990EF01CFB0499AE
:103000000EF033FB0EF0CAFB04000D0040464946AB
:103010000EF014FB0EF0C2FB02000B000DF0B2FA32
:1030200032003B000DF0D5FA02000B002000290011
:103030000DF0A8FA029A039B04000D000698079968
:103040000DF0C7FA02000B00200029000DF09AFADB
:103050000DF0C4FB5346D86004980EF09FFB0400AB
:103060000D00404649460EF0E6FA0EF097FB0200CE
:103070000B000DF087FA22002B00049405950DF04B
:10308000A8FA04000D00089859460EF0D7FA0199E5
:103090000EF0D1FA1A990EF0E8FA0EF07FFB02005A
:1030A0000B00200029000DF06DFA029A039B04002A
:1030B0000D000C980D990DF08CFA02000B00200009
:1030C00029000DF05FFA0DF089FB53460A9918614B
:1030D00009980EF0B3FA0EF061FB02000B000DF040
:1030E00051FA049A059B0DF074FA04000D000B9838
:1030F0000E990EF0A0FA0EF051FB02000B000DF03D
:1031000041FA32003B000DF064FA02000B0020008F
:1031100029000DF037FA04000D000F981B990EF0EE
:10312000A4FA0EF03BFB02000B00200029000DF07A
:1031300029FA0DF053FB53465861002011B0F0BC42
:10314000BB46B246A946A046F0BDC046F0B5040055
:10315000DE4657464E4645460800E0B545680968D4
:10316000AA46856895B0AB46C568466987691091DF
:103170000E950169556810689268049690461A6821
:10318000069711925A689B6812921393FE239B052F
:10319000236099460EF04FFA0EF000FB009001916B
:1031A0001E980EF0FBFA06000F000098019900220D
:1031B000924B0DF00EFA32003B000DF00AFA0DF0C2
:1031C0000DFB04990390E061281C0EF034FA0EF018
:1031D000E5FA0022894B049005910DF0FAF93200CE
:1031E0003B000DF0F6F90DF0F9FA0699051CA06305
:1031F00040460EF020FA0EF0D1FA00227F4B0690E6
:1032000007910DF0E6F932003B000DF0E2F90DF008
:10321000E5FA0A90606550460EF0C0FA0022784B3D
:10322000089009910DF0D5F932003B000DF0D1F96D
:103230000DF0D4FA0B90206758460EF0AFFA00223A
:103240006F4B0C900D910DF0C4F932003B000DF066
:10325000C0F90DF0C3FA8C238246E0500E980EF0B0
:103260009DFA0022664B0E900F910DF0B2F93200DC
:103270003B000DF0AEF90DF0B1FAA8238346E05003
:103280000022009801995E4B0DF0A3F932003B003B
:103290000DF09FF90DF0A2FA49460090606021629E
:1032A000002206980799564B0DF093F932003B0027
:1032B0000DF08FF90DF092FAA5658046E063109845
:1032C0000EF06CFA00224D4B0DF083F932003B00FA
:1032D0000DF07FF90DF082FA59469023051C6067C6
:1032E0000022E1500C980D99444B0DF072F9320018
:1032F0003B000DF06EF90DF071FAAC230022E050A6
:10330000049805993E4B0DF064F932003B000DF036
:1033100060F90DF063FA49460A9A83466262009AA0
:10332000A0602164E2650E980F990022334B0DF0E6
:1033300050F932003B000DF04CF90DF04FFA942398
:103340000B99A067E5501C33E1504146E1605946B6
:10335000A162494621665146039BE1676364089870
:1033600009990022254B0DF034F932003B000DF095
:1033700030F90DF033FA9823E0501C33E550002566
:103380001E9911982561E562A56465660EF06DF9D8
:10339000011C48460EF04FF98023E0501C33E550E5
:1033A0001C33E550343B1E99129865612563E56432
:1033B000A566E5500EF059F9011C48460EF03BF9A0
:1033C000A023E0501C33E550343BA56165632565BF
:1033D000E566E5501C33E5501E9913980EF045F94B
:1033E000011C48460EF027F9C023E050002015B01C
:1033F000F0BCBB46B246A946A046F0BD0000E0BF07
:103400000000E03FF0B5DE4657464E464546E0B583
:103410009A460B68141C8A689B464B68C9688BB037
:103420000500101C8846009301920EF0B7F9029037
:103430000391201C0EF0B2F9C02306000F00029881
:10344000039900221B060DF0C4F832003B000DF07A
:10345000C0F80DF0C3F90890286040460EF09EF9C0
:1034600002000B000DF08EF832003B000DF0B1F8B9
:103470000DF0B4F9041CA86158460EF08FF9C02372
:1034800000221B06049005910DF0A3F832003B00CA
:103490000DF09FF80DF0A2F9286300980EF07EF968
:1034A00002000B00069007910DF06CF832003B0013
:1034B0000DF08FF80DF092F9002190238946A86451
:1034C0002966A967E95068600498059902000B0015
:1034D0000DF058F832003B000DF07BF80DF07EF94E
:1034E0006C630490E8610298039902000B000DF0F0
:1034F00049F832003B000DF06CF80DF06FF94946C9
:103500009423E8646966E967E950C023069807993F
:10351000049A1B06AA6000220DF05BF832003B0003
:103520000DF057F80DF05AF9089B4946AB6380231C
:1035300028622C65A966E9501833E9504046149971
:103540000EF093F8019F1599061C381C0EF08DF8AB
:103550005146041C58460EF088F8311C0EF06EF8E7
:10356000211C06940EF067F8011C0EF067F8514616
:103570000990E86000980EF078F81499041C381C43
:103580000EF073F8011C201C0EF058F81599041C5D
:1035900040460EF06AF8011C201C0EF04FF8011C8A
:1035A0000EF04CF814990290686200980EF05DF8E5
:1035B0001599089058460EF058F8019A80249446C0
:1035C00024066444071C514620000EF04EF808996A
:1035D0000EF034F8391C0EF02EF8011C0EF02EF807
:1035E0001499E86358460EF040F815990490009835
:1035F0000EF03BF8802212064244041C5146100093
:103600000EF033F804990EF019F8211C0EF016F89C
:10361000011C0EF013F84A468423EA666865EA50F6
:103620001833EA505146286101980EF01EF80899A7
:103630000EF001F8391C0EF001F8011C0DF0FEFF30
:10364000071CA8628020029B00062B645146584448
:103650000EF00BF8311C0DF0EEFF06990DF0EEFFA9
:10366000011C0DF0EBFF8823A86548462867E85049
:103670001833E850514640466F610DF0F6FF04994B
:103680000DF0D9FF211C0DF0D6FF011C0DF0D6FF67
:10369000099AE8626A64029B4A46EB654B466B678F
:1036A0008C230020EA501833EA500BB0F0BCBB4624
:1036B000B246A946A046F0BD0123F0B5E321474636
:1036C000CE469C46294B804605009946284E80B53B
:1036D0008900076846444144FA0F6F68D2077B00AF
:1036E0005B08346813435A08624064461C4201D0A8
:1036F0004B465A4004C50436A942EDD1E323424665
:103700009B00C626D458194B01259C46F60046441A
:10371000E20F4C68D20763005B08076813435A083E
:103720007A401D4201D063465A40043004C1B04281
:10373000EED14246C62140460E4BC900D35812680E
:10374000DB0F52005208DB07415813435A084A4026
:10375000DB0701D5054B5A404146064BCA500022B3
:103760000433CA50C0BCB946B046F0BDDFB00899BA
:1037700034060000BC090000F0B54546DE46574659
:103780004E46E0B53B4CD723A54434AA9446634447
:103790001B091B018A6805930B68019237921A680E
:1037A000049006929A69339107921A6B38AC08928A
:1037B0009A6C09921A6E0B929A6F0C9290229A58F8
:1037C0000D925A680E92DA690F925A6B1092DA6C67
:1037D00011925A6E1292DA6F139294229A5814929E
:1037E0009A6815921A6A16929A6B17921A6D189225
:1037F0009A6E199280229A581A9298229A581B927D
:10380000DA681C925A6A1D92DA6B1E925A6D1F92E8
:10381000DA6E209284229A5821929C229A582292FF
:103820001A6923929A6A24921A6C25929A6D2692AA
:103830001A6F279288229A582892A0229A58299281
:103840005A692A92DA6A2B925A6C2C92DA6D2D926E
:103850005A6F2E928C229A582F92A4229B58309302
:103860004B68984638AB3293C423454643440A9389
:1038700002E0C0469CFDFFFFEA68A96991462A69FB
:10388000AB6890466A690998039149460193029290
:103890000DF0EBFE414682460B980DF0E6FE011C52
:1038A00050460DF0CBFE029982460C980DF0DDFEDD
:1038B000039983460D980DF0D8FE011C58460DF073
:1038C000BDFE011C50460DF0B9FE6F688246391CE2
:1038D00007980DF0CAFE0199834608980DF0C5FEC1
:1038E000011C58460DF0AAFE2E688346311C06982E
:1038F0000DF0BBFE011C58460DF0A0FE011C504609
:103900000DF09CFE4946206011980DF0AEFE414638
:10391000824612980DF0A9FE011C50460DF08EFE55
:103920000299824613980DF0A0FE039983461498DD
:103930000DF09BFE011C58460DF080FE011C504608
:103940000DF07CFE391C82460F980DF08EFE019919
:10395000834610980DF089FE011C58460DF06EFE4E
:10396000311C83460E980DF080FE011C58460DF068
:1039700065FE011C50460DF061FE494660601898D6
:103980000DF073FE4146824619980DF06EFE011C43
:1039900050460DF053FE029982461A980DF065FECE
:1039A000039983461B980DF060FE011C58460DF0EC
:1039B00045FE011C50460DF041FE391C824616980A
:1039C0000DF053FE0199834617980DF04EFE011C31
:1039D00058460DF033FE311C834615980DF045FE18
:1039E000011C58460DF02AFE011C50460DF026FE23
:1039F0004946A0601F980DF038FE41468246209847
:103A00000DF033FE011C50460DF018FE029982465F
:103A100021980DF02AFE0399834622980DF025FE89
:103A2000011C58460DF00AFE011C50460DF006FE22
:103A3000391C82461D980DF018FE019983461E9888
:103A40000DF013FE011C58460DF0F8FD311C8346A5
:103A50001C980DF00AFE011C58460DF0EFFD011CEC
:103A600050460DF0EBFD4946E06026980DF0FDFD57
:103A70004146824627980DF0F8FD011C50460DF096
:103A8000DDFD0299824628980DF0EFFD03998346EB
:103A900029980DF0EAFD011C58460DF0CFFD011CE0
:103AA00050460DF0CBFD391C824624980DF0DDFD0B
:103AB0000199834625980DF0D8FD011C58460DF05C
:103AC000BDFD311C834623980DF0CFFD011C5846E7
:103AD0000DF0B4FD011C50460DF0B0FD2D99206194
:103AE00048460DF0C2FD2E99814640460DF0BDFDC1
:103AF000011C48460DF0A2FD2F99804602980DF05A
:103B0000B4FD3099814603980DF0AFFD011C484685
:103B10000DF094FD011C40460DF090FD391C8046CF
:103B20002B980DF0A2FD2C99071C01980DF09DFD1E
:103B3000011C381C0DF082FD311C071C2A980DF069
:103B400094FD011C381C0DF079FD011C40460DF060
:103B500075FD0A9B1C3560611834AB4200D08BE6C2
:103B6000379B1A68629308929A6909921A6B0A92B3
:103B70009A6C0B921A6E0C929A6F0D9290229A5830
:103B80000E925A680F92DA6910925A6B1192DA6C9F
:103B900012925A6E1392DA6F149294229A581592D6
:103BA0009A6816921A6A17929A6B18921A6D19925D
:103BB0009A6E1A9280229A581B9298229A581C92B6
:103BC000DA681D925A6A1E92DA6B1F925A6D209221
:103BD000DA6E219284229A5822929C229A58239239
:103BE0001A6924929A6A25921A6C26929A6D059CFB
:103BF00027921A6F2034289288229A58A146299237
:103C0000A0229A582A925A692B92DA6A2C925A6CFC
:103C10002D92DA6D2E925A6F2F928C229A583092F2
:103C2000A4229B5831935CAB06933EAB0793329B27
:103C3000984643464246414640461B689569019373
:103C4000069B146B096E926C40CB876F0291101C1F
:103C50000B99039206930DF008FD0C998246029889
:103C60000DF003FD011C50460DF0E8FC0D99824655
:103C7000381C0DF0FAFC0E998346301C0DF0F5FC53
:103C8000011C58460DF0DAFC011C50460DF0D6FC24
:103C900009998246281C0DF0E8FC0A998346201CED
:103CA0000DF0E3FC011C58460DF0C8FC0899834652
:103CB00001980DF0DAFC011C58460DF0BFFC011C08
:103CC00050460DF0BBFC4B461299186003980DF05E
:103CD000CCFC1399824602980DF0C7FC011C50469B
:103CE0000DF0ACFC14998246381C0DF0BEFC159901
:103CF0008346301C0DF0B9FC011C58460DF09EFCAB
:103D0000011C50460DF09AFC10998246281C0DF0BB
:103D1000ACFC11998346201C0DF0A7FC011C5846F1
:103D20000DF08CFC0F99834601980DF09EFC011C50
:103D300058460DF083FC011C50460DF07FFC4B46AD
:103D40001999586003980DF090FC1A9982460298D0
:103D50000DF08BFC011C50460DF070FC1B99824647
:103D6000381C0DF082FC1C998346301C0DF07DFC44
:103D7000011C58460DF062FC011C50460DF05EFC23
:103D800017998246281C0DF070FC18998346201C58
:103D90000DF06BFC011C58460DF050FC1699834643
:103DA00001980DF062FC011C58460DF047FC011C07
:103DB00050460DF043FC4B462099986003980DF057
:103DC00054FC2199824602980DF04FFC011C50468C
:103DD0000DF034FC22998246381C0DF046FC2399E4
:103DE0008346301C0DF041FC011C58460DF026FCAA
:103DF000011C50460DF022FC1E998246281C0DF035
:103E000034FC1F998346201C0DF02FFC011C5846E2
:103E10000DF014FC1D99834601980DF026FC011C41
:103E200058460DF00BFC011C50460DF007FC4B46AC
:103E30002799D86003980DF018FC289982460298BB
:103E40000DF013FC011C50460DF0F8FB2999824639
:103E5000381C0DF00AFC2A998346301C0DF005FC35
:103E6000011C58460DF0EAFB011C50460DF0E6FB24
:103E700025998246281C0DF0F8FB26998346201CC4
:103E80000DF0F3FB011C58460DF0D8FB2499834636
:103E900001980DF0EAFB011C58460DF0CFFB011C08
:103EA00050460DF0CBFB4B462E99186103980DF050
:103EB000DCFB2F99824602980DF0D7FB011C50467F
:103EC0000DF0BCFB30998246381C0DF0CEFB3199C9
:103ED000071C301C0DF0C9FB011C381C0DF0AEFB9B
:103EE000011C50460DF0AAFB2C99061C281C0DF055
:103EF000BCFB2D99051C201C0DF0B7FB011C281CD8
:103F00000DF09CFB2B99041C01980DF0AEFB011CDD
:103F1000201C0DF093FB011C301C0DF08FFB4B4659
:103F2000586104239C461433E0449C46079BE144BB
:103F3000984500D07DE6339B059DDC68296A2068A2
:103F40000DF07CFB049EA96B306060680DF076FB81
:103F50007060A068296D0DF071FBB060E068A96E1B
:103F60000DF06CFB8023F0602069E95898460DF055
:103F700065FB98233061E95860690DF05FFB706163
:103F8000A069696A0DF05AFBB061E069E96B0DF058
:103F900055FBF061206A696D0DF050FB3062E96EEF
:103FA000606A0DF04BFB84277062A06AE9590DF03E
:103FB00045FB9C23B062E958E06A0DF03FFBF062DC
:103FC000206BA96A0DF03AFB3063606B296C0DF031
:103FD00035FB7063A06BA96D0DF030FBB063E06B37
:103FE000296F0DF02BFBF0638826206CA9590DF08A
:103FF00025FB049B1864A023606CE9580DF01EFBA0
:10400000049BE96A5864A06C0DF018FB049B696C72
:104010009864E06C0DF012FB049BE96DD864206D90
:104020000DF00CFB049B696F1865606D0DF006FBCD
:104030008C25049A059B5065A06D59590DF0FEFA28
:10404000A423049A9065059AE06DD1580DF0F6FA14
:10405000049B059AD865116B206E0DF0EFFA049B56
:10406000059A1866916C606E0DF0E8FA049B059A4B
:104070005866A06E116E0DF0E1FA049B059A9866E1
:10408000E06E916F0DF0DAFA049B059AD8669023E2
:10409000206FD1580DF0D2FA049B059A1867A82317
:1040A000606FD1580DF0CAFA049B059A5867A16F4A
:1040B000506B0DF0C3FA049B059A9867E16FD06CC2
:1040C0000DF0BCFA4146049B059AD8676158506EC2
:1040D0000DF0B4FA4146049B059A5850E159D06F4F
:1040E0000DF0ACFA049BD8519423059FA159F858C0
:1040F0000DF0A4FA049B9851AC236159F8580DF0C7
:104100009DFA049B585199239B009D44F0BCBB46EB
:10411000B246A946A046F0BDF0B5DE4657464E462B
:1041200045460400E0B5036987B05800636940085C
:10413000590049080DF082FAE368590049080DF06A
:104140007DFA6368051C5800A368400859004908B7
:104150000DF074FA2368590049080DF06FFA011C3C
:10416000281C0DF06BFAA36A051C5800E36A40088E
:10417000590049080DF062FA636A590049080DF0C8
:104180005DFAE369061C5800236A40085900490893
:104190000DF054FAA369590049080DF04FFA011CBB
:1041A000301C0DF04BFA236C071C5800636C400860
:1041B000590049080DF042FAE36B590049080DF027
:1041C0003DFA636B061C5800A36B40085900490870
:1041D0000DF034FA236B590049080DF02FFA011C39
:1041E000301C0DF02BFA061C011C381C0DF074FA63
:1041F000002800D13E1C311C281C0DF06DFA00284F
:1042000000D12E1CA36D5800E36D400859004908E9
:104210000DF014FA636D590049080DF00FFAE36CC4
:10422000051C5800236D4008590049080DF006FA96
:10423000A36C590049080DF001FA011C281C0DF06F
:10424000FDF9236F071C5800636F400859004908A7
:104250000DF0F4F9E36E590049080DF0EFF9636EC3
:10426000051C5800A36E4008590049080DF0E6F9F6
:10427000236E590049080DF0E1F9011C281C0DF0CE
:10428000DDF988238046E0580433E15840004900B6
:10429000490840080DF0D2F98423E1584900490843
:1042A0000DF0CCF9E36F051C58008023E15840085D
:1042B000490049080DF0C2F9A36F590049080DF0F3
:1042C000BDF9011C281C0DF0B9F9051C011C404664
:1042D0000DF002FA002800D14546291C381C0DF0CB
:1042E000FBF9002800D13D1C291C301C0DF0F4F90D
:1042F000002800D1351CC0232100E55001AABA3B9B
:1043000002A8A83104930294FCF7A8FA0121C42260
:10431000019B98260B405B428B430133A354343AF4
:104320009246002250469C2722509432A150934638
:10433000923AA2510132E2519D32944660469C3A33
:104340002250A03291469F3A90464A46404623006A
:10435000A05048461832A258903392009A18156817
:104360002550404610606046B8222058A25880462A
:10437000604692009A181568255040461060B42295
:10438000E059A258844692009A1810685D46E051A0
:1043900060461060B022A258A75992009A1810687F
:1043A000A0511760AC225846A258265892009A187D
:1043B000106860511660A822A258554692009B18BA
:1043C00052461868A25860511A60C523E15407B0DC
:1043D000F0BCBB46B246A946A046F0BDC0230022B1
:1043E00010B5C25000220433C2520B6804000360AF
:1043F0004B6843608B688360CB68C3600B69036163
:104400004B6943618B698361CB69C3610B6A03624A
:104410004B6A43628B6A8362CB6AC3620B6B036332
:104420004B6B43638B6B8363CB6BC3630B6C03641A
:104430004B6C43648B6C8364CB6CC3640B6D036502
:104440004B6D43658B6D8365CB6DC3650B6E0366EA
:104450004B6E43668B6E8366CB6EC3660B6F0367D2
:104460004B6F43678B6F8367CB6FC3678023CA58DB
:10447000C2500433CA58C2500433CA58C25004331D
:10448000CA58C250FFF748FE200010BDF0B5DE4606
:104490004E4645465746E0B5214C9146A5443AAABA
:1044A00094460A0031931F4B3B9063441B091B0148
:1044B0003A919846D3AB13CA13C313CA13C31268F5
:1044C000D3A91A60184B194A1B6847A80493184BC4
:1044D00047AC1B680193174B1B6805930093049B23
:1044E000FEF790FF47ABD3934B46D49347ABD5939E
:1044F0003AAA8323944686201B0163441B68C000AC
:104500004044A2AAD3A9D6930990FFF735F96BAB23
:10451000089343460A934B463094A1461C000BE097
:1045200014F7FFFF47030000082203200AE81C419C
:1045300000220320042203204B464E461B68B76F1F
:104540000493089B494640CB48464A460893A82313
:10455000896C006E9569126B06910790E158301CCA
:1045600005920DF082F88C238246E158381C0DF03C
:104570007CF8011C50460DF061F8216F82460798C7
:104580000DF073F8616D834606980DF06EF8011C0E
:1045900058460DF053F8011C50460DF04FF8A16B32
:1045A000824605980DF061F8E1698346281C0DF0FC
:1045B0005CF8011C58460DF041F8216883460498C8
:1045C0000DF053F8011C58460DF038F8011C504608
:1045D0000DF034F843461860AC23301CE1580DF060
:1045E00044F890238246E158381C0DF03EF8011C37
:1045F00050460DF023F8616F824607980DF035F8AC
:10460000A16D834606980DF030F8011C58460DF058
:1046100015F8011C50460DF011F8E16B8246059823
:104620000DF023F8216A8346281C0DF01EF8011CAA
:1046300058460DF003F86168834604980DF015F8AC
:10464000011C58460CF0FAFF011C50460CF0F6FF16
:1046500043465860B023301CE1580DF006F894230F
:104660008246E158381C0DF000F8011C50460CF051
:10467000E5FFA16F824607980CF0F7FFE16D8346D6
:1046800006980CF0F2FF011C58460CF0D7FF011CF5
:1046900050460CF0D3FF216C824605980CF0E5FFE4
:1046A000616A8346281C0CF0E0FF011C58460CF0A0
:1046B000C5FFA168834604980CF0D7FF011C58463B
:1046C0000CF0BCFF011C50460CF0B8FF434698604C
:1046D000B423301CE1580CF0C8FF98238246E158FF
:1046E000381C0CF0C2FF011C50460CF0A7FFE16F14
:1046F000824607980CF0B9FF216E834606980CF0AD
:10470000B4FF011C58460CF099FF011C50460CF0F8
:1047100095FF616C824605980CF0A7FFA16A83465D
:10472000281C0CF0A2FF011C58460CF087FFE16822
:10473000834604980CF099FF011C58460CF07EFF4C
:10474000011C50460CF07AFF4346D860B823301C59
:10475000E1580CF08AFF9C238246E158381C0CF08B
:1047600084FF011C50460CF069FF80238246E1580B
:1047700007980CF07AFF616E834606980CF075FF7F
:10478000011C58460CF05AFF011C50460CF056FF15
:10479000A16C824605980CF068FFE16A8346281CEC
:1047A0000CF063FF011C58460CF048FF216983465A
:1047B00004980CF05AFF011C58460CF03FFF011CF6
:1047C00050460CF03BFF43461861BC23301CE158B7
:1047D0000CF04BFFA0238246E158381C0CF045FF3B
:1047E000011C50460CF02AFF84238246E1580798AA
:1047F0000CF03BFFA16E834606980CF036FF011CBF
:1048000058460CF01BFF011C50460CF017FFE16CE2
:10481000824605980CF029FF216B8346281C0CF07A
:1048200024FF011C58460CF009FF61698346049877
:104830000CF01BFF011C58460CF000FF011C5046F9
:104840000CF0FCFE4346E16E586106980CF00DFF3B
:1048500088238246E15807980CF007FF011C504658
:104860000CF0ECFEA4238246E158381C0CF0FDFE4F
:10487000C023071CE158301C0CF0F7FE011C381C4B
:104880000CF0DCFE011C50460CF0D8FE616B061CDF
:10489000281C0CF0EAFE216D051C05980CF0E5FEC5
:1048A000011C281C0CF0CAFEA169051C04980CF020
:1048B000DCFE011C281C0CF0C1FE011C301C0CF09D
:1048C000BDFE4346986104239C461833E1449C4650
:1048D0004DABE0444B4500D02EE60A9BA146D824C0
:1048E0009846A427A4004444BF00474420000999E7
:1048F000FFF774FD210090223800C8240DF06AF9FA
:10490000FC21A400444489004144182220000DF0F9
:1049100061F9CE2081218000C90041441822404421
:104920000DF058F98422D423D200424412689B002F
:1049300043441A60D523874A4546424412889B0067
:104940004344FE211A8000232268B0359200AA1841
:104950008905116093611363936413669367C92299
:1049600092004244126844469200AA181360916172
:104970001363936413669367CA22920042441268D9
:1049800006269200AA18136093611163936413665C
:104990009367CB2292004244126806209200AA1824
:1049A000136093611363916413669367CC22920042
:1049B000424412689200AA181360936113639364CF
:1049C00011669367CD229200424412689200AA18A1
:1049D00013609361136393641366A8235B009B4683
:1049E000916742465946E41820334344A660E66086
:1049F000266153508022920042444B3962609246B5
:104A000004933A0006230294FF3901960095FCF7BF
:104A10000BFF42465946049BA660E6602661535050
:104A200053464B3963603A000623029406200196F0
:104A30000095FF39FCF75CFB43461B688C2207930B
:104A40004346DB69D3AC089343469B6B09934346CB
:104A50005B6D0A9343461B6F0B9343469B5804328E
:104A60000C9343465B68179343461B6A189343466F
:104A7000DB6B0D9343469B6D0E9343465B6F0F9329
:104A800043469B580432109343469B681193434618
:104A90005B6A129343461B6C13934346DB6D14937E
:104AA00043469B6F159343469B58043216934346E7
:104AB000DB68199343469B6A069343465B6C1A93E3
:104AC00043461B6E1B934346DB6F1C9343469B5828
:104AD000183A1D9343461B691E934346DB6A1F9396
:104AE00043469B6C209343465B6E219343469B5801
:104AF0001C32229343469B58183A239343465B69E2
:104B0000249343461B6B25934346DB6C2693434615
:104B10009B6E279343469B581C32289343469B58D1
:104B2000183A299343469B692A9343465B6B2B9320
:104B300043461B6D2C934346DB6E2D9343469B5897
:104B40001C322E9343469B58A8462F934B463293D4
:104B500002E0C0462404000043461F685B684246EA
:104B60009946434641469B68D2680E694D6908984C
:104B70004946049305920CF078FD04998246099801
:104B80000CF073FD011C50460CF058FD391C824698
:104B900007980CF06AFD011C50460CF04FFD311CCB
:104BA00082460B980CF061FD291C83460C980CF092
:104BB0005CFD011C58460CF041FD059983460A989E
:104BC0000CF053FD011C58460CF038FD011C5046FA
:104BD0000CF034FD4946206018980CF046FD04990D
:104BE00082460D980CF041FD011C50460CF026FD4C
:104BF000391C824617980CF038FD011C50460CF009
:104C00001DFD311C82460F980CF02FFD291C834698
:104C100010980CF02AFD011C58460CF00FFD059968
:104C200083460E980CF021FD011C58460CF006FD41
:104C3000011C50460CF002FD4946606012980CF0D1
:104C400014FD0499824613980CF00FFD011C504688
:104C50000CF0F4FC391C824611980CF006FD011C86
:104C600050460CF0EBFC311C824615980CF0FDFC14
:104C7000291C834616980CF0F8FC011C58460CF0D1
:104C8000DDFC0599834614980CF0EFFC011C584696
:104C90000CF0D4FC011C50460CF0D0FC4946A0603E
:104CA00006980CF0E2FC049982461A980CF0DDFCA0
:104CB000011C50460CF0C2FC391C824619980CF0BD
:104CC000D4FC011C50460CF0B9FC311C82461C98E7
:104CD0000CF0CBFC291C83461D980CF0C6FC011C73
:104CE00058460CF0ABFC059983461B980CF0BDFCB4
:104CF000011C58460CF0A2FC011C50460CF09EFC16
:104D00004946E0601F980CF0B0FC04998246209858
:104D10000CF0ABFC011C50460CF090FC391C824698
:104D20001E980CF0A2FC011C50460CF087FC311CB4
:104D3000824622980CF099FC291C834623980CF09B
:104D400094FC011C58460CF079FC05998346219887
:104D50000CF08BFC011C58460CF070FC011C5046FA
:104D60000CF06CFC4946206125980CF07EFC0499FF
:104D7000824626980CF079FC011C50460CF05EFC33
:104D8000391C824624980CF070FC011C50460CF033
:104D900055FC311C824628980CF067FC291C834680
:104DA00029980CF062FC011C58460CF047FC059950
:104DB000834627980CF059FC011C58460CF03EFC29
:104DC000011C50460CF03AFC494660612B980CF0EF
:104DD0004CFC049981462C980CF047FC011C484679
:104DE0000CF02CFC391C81462A980CF03EFC011C6E
:104DF00048460CF023FC311C071C2E980CF035FCA7
:104E0000291C061C2F980CF030FC011C301C0CF0E7
:104E100015FC0599051C2D980CF027FC011C281C7D
:104E20000CF00CFC011C381C0CF008FC18239C46F0
:104E3000A061FDAB1C34E044A34200D08CE6329B61
:104E4000D49A9946D39BD599D69CD79DD89ED99F65
:104E500006930792DA9BDB9A08910994DC99DD9C12
:104E60000A950B96DE9DDF9E0C970D93E09FE19BCC
:104E70000E92E29A0F911094119512961397149333
:104E80001592E399E49CE59DE69EE79FE89BE99AED
:104E900016911794EA99EB9C18951996EC9DED9E46
:104EA0001A971B93EE9FEF9B1C921D91F09AF1991C
:104EB0001E94F29C2096219722932392249125946C
:104EC0001F95F39DF49EF59FF79AF69BF899F99C30
:104ED00026952796FA9DFB9E2897FC9F2A923A9A40
:104EE00029932B912C942D952E962F97D3AB32CAC4
:104EF00032C332CA32C31168D3AC1960FD49FE4BCC
:104F000009681B680191FD49FD4A0968200000916C
:104F100041A9FDF7D7FF319F419938680CF08BFB11
:104F20004299834678680CF086FB43998246B868BC
:104F30000CF081FB4499041CF8680CF07CFB45994B
:104F4000051C38690CF077FB4699061C78690CF053
:104F500072FB071C011C2A980CF087FB311C804651
:104F600023980CF082FB011C40460CF067FB291CC7
:104F700080461C980CF079FB011C40460CF05EFB4F
:104F8000211C804615980CF070FB514604900E9839
:104F90000CF06BFB011C04980CF050FB594604907C
:104FA00007980CF062FB011C04980CF047FB011CF5
:104FB00040460CF043FB3A9A51680CF03FFB391C19
:104FC00004902B980CF051FB311C804624980CF077
:104FD0004CFB011C40460CF031FB291C80461D98FF
:104FE0000CF043FB011C40460CF028FB211C8046C2
:104FF00016980CF03AFB514605900F980CF035FBD3
:10500000011C05980CF01AFB5946059008980CF005
:105010002CFB011C05980CF011FB011C40460CF008
:105020000DFB3A9A91680CF009FB391C05902C98FD
:105030000CF01BFB311C804625980CF016FB011C64
:1050400040460CF0FBFA291C80461E980CF00DFB24
:10505000011C40460CF0F2FA211C804617980CF017
:1050600004FB5146319010980CF0FFFA011C319866
:105070000CF0E4FA5946319009980CF0F6FA011C4C
:1050800031980CF0DBFA011C40460CF0D7FA3A9A42
:10509000D1680CF0D3FA391C31902D980CF0E5FA58
:1050A000311C804626980CF0E0FA011C40460CF0BA
:1050B000C5FA291C80461F980CF0D7FA011C4046FF
:1050C0000CF0BCFA211C804618980CF0CEFA514620
:1050D000329011980CF0C9FA011C32980CF0AEFA1B
:1050E000594632900A980CF0C0FA011C32980CF024
:1050F000A5FA011C40460CF0A1FA3A9A11690CF08D
:105100009DFA391C32902E980CF0AFFA311C804673
:1051100027980CF0AAFA011C40460CF08FFA291CC3
:10512000804620980CF0A1FA011C40460CF086FA4B
:10513000211C804619980CF098FA51463390129829
:105140000CF093FA011C33980CF078FA594633901E
:105150000B980CF08AFA011C33980CF06FFA011CC2
:1051600040460CF06BFA3A9A51690CF067FA5146D6
:10517000339013980CF079FA211C80461A980CF0A1
:1051800074FA011C40460CF059FA594680460C98B6
:105190000CF06BFA011C40460CF050FA311C8046B2
:1051A00028980CF062FA391C34902F980CF05DFAB4
:1051B000011C34980CF042FA291C349021980CF010
:1051C00054FA011C34980CF039FA011C40460CF0DA
:1051D00035FA3A9A91690CF031FA391C80462998CF
:1051E0000CF043FA311C071C22980CF03EFA011C0B
:1051F000381C0CF023FA291C061C1B980CF035FAFD
:10520000011C301C0CF01AFA211C051C14980CF01F
:105210002CFA5146041C0D980CF027FA011C201C96
:105220000CF00CFA5946041C06980CF01EFA011CEE
:10523000201C0CF003FA011C281C0CF0FFF93A9A10
:10524000D3AC11680CF0FAF93B9B049A18605A60D1
:10525000059A9A60319ADA60329A1A61339A5A61E1
:1052600042469A614B461B684A46A2934B465B688E
:10527000A3934B469B68A4934B46DB68A5934B4690
:105280001B69A6934B465B69A7934B469B69A89302
:105290004B46DB69A9934B461B6AAA934B465B6A54
:1052A000AB934B469B6AAC934B46DB6AAD934B4644
:1052B0001B6BAE934B465B6BAF934B469B6BB093B4
:1052C0004B46DB6BB1934B461B6CB2934B465B6C0E
:1052D000B3934B469B6CB4934B46DB6CB5934B46F8
:1052E0001B6DB6934B465B6DB7934B469B6DB89366
:1052F0004B4607E00022032008220320042203205B
:105300000AE81C41DB6DB9934B461B6EBA934B46C2
:105310005B6EBB934B469B6EBC934B46DB6EBD9363
:105320004B461B6FBE934B465B6FBF934B469B6FC9
:10533000C0934B46DB6FC1938023D358C293842321
:10534000D358C3938823D358C4938C23D358C5937D
:105350009023D358C6939423D358C7939823D358F4
:10536000C8939C23D358C993A023D358CA93A4238A
:10537000D358CB93A823D358CC93AC23D358CD93F5
:10538000B023D358CE93B423D358CF93B823D35854
:10539000D093BC23D358D193C023D358D293309BFE
:1053A0003092984643461F685B684246994643469A
:1053B00041469B68D2680E694D690D984946049331
:1053C00005920CF052F90499824614980CF04DF9AC
:1053D000011C50460CF032F9391C824606980CF03C
:1053E00044F9011C50460CF029F9311C82462298E0
:1053F0000CF03BF9291C834629980CF036F9011C66
:1054000058460CF01BF9059983461B980CF02DF9B2
:10541000011C58460CF012F9011C50460CF00EF914
:10542000494620600E980CF020F9049982461598A0
:105430000CF01BF9011C50460CF000F9391C824697
:1054400007980CF012F9011C50460CF0F7F8311CCB
:10545000824623980CF009F9291C83462A980CF0FF
:1054600004F9011C58460CF0E9F8059983461C988C
:105470000CF0FBF8011C58460CF0E0F8011C5046FB
:105480000CF0DCF8494660600F980CF0EEF80499D7
:10549000824616980CF0E9F8011C50460CF0CEF844
:1054A000391C824608980CF0E0F8011C50460CF0BC
:1054B000C5F8311C824624980CF0D7F8291C834685
:1054C0002B980CF0D2F8011C58460CF0B7F805994F
:1054D00083461D980CF0C9F8011C58460CF0AEF834
:1054E000011C50460CF0AAF84946A06010980CF038
:1054F000BCF80499824617980CF0B7F8011C504686
:105500000CF09CF8391C824609980CF0AEF8011C8E
:1055100050460CF093F8311C824625980CF0A5F803
:10552000291C83462C980CF0A0F8011C58460CF05E
:1055300085F8059983461E980CF097F8011C58468B
:105540000CF07CF8011C50460CF078F84946E060FD
:1055500011980CF08AF80499824618980CF085F896
:10556000011C50460CF06AF8391C82460A980CF06F
:105570007CF8011C50460CF061F8311C82462698DC
:105580000CF073F8291C83462D980CF06EF8011C62
:1055900058460CF053F8059983461F980CF065F8AF
:1055A000011C58460CF04AF8011C50460CF046F815
:1055B0004946206112980CF058F8049982461998CF
:1055C0000CF053F8011C50460CF038F8391C824698
:1055D0000B980CF04AF8011C50460CF02FF8311CC7
:1055E000824627980CF041F8291C83462E980CF02F
:1055F0003CF8011C58460CF021F805998346209888
:105600000CF033F8011C58460CF018F8011C5046F9
:105610000CF014F84946606113980CF026F80499D0
:1056200081461A980CF021F8011C48460CF006F847
:10563000391C81460C980CF018F8011C48460BF0F8
:10564000FDFF311C071C28980CF00FF8291C061CC4
:105650002F980CF00AF8011C301C0BF0EFFF059995
:10566000051C21980CF001F8011C281C0BF0E6FF2A
:10567000011C381C0BF0E2FF18239C46FFABA06115
:1056800014331C34E044A34200D08BE6309BA2AD1F
:1056900099463C93C4234C46C8464B440893079410
:1056A0004246D26843464146914642469E694C680E
:1056B000096892685F691B690491301CFD99069323
:1056C00005920BF0D2FFF6998246381C0BF0CDFF05
:1056D000011C50460BF0B2FFEF99824606980BF082
:1056E000C4FFE899834648460BF0BFFF011C5846AB
:1056F0000BF0A4FF011C50460BF0A0FFE19982467D
:1057000005980BF0B2FFDA998346201C0BF0ADFF31
:10571000011C58460BF092FFD399834604980BF076
:10572000A4FF011C58460BF089FF011C50460BF0EA
:1057300085FF011C28680BF07EFF2860FE99301C55
:105740000BF093FFF7998246381C0BF08EFF011C7B
:1057500050460BF073FFF099824606980BF085FFD8
:10576000E999834648460BF080FF011C58460BF030
:1057700065FF011C50460BF061FFE29982460598D7
:105780000BF073FFDB998346201C0BF06EFF011CAE
:1057900058460BF053FFD499834604980BF065FFED
:1057A000011C58460BF04AFF011C50460BF046FF07
:1057B000011C68680BF03FFFFF996860301C0BF01C
:1057C00054FFF8998246381C0BF04FFF011C5046DD
:1057D0000BF034FFF199824606980BF046FFEA99E8
:1057E000834648460BF041FF011C58460BF026FF4C
:1057F000011C50460BF022FFE399824605980BF0FE
:1058000034FFDC998346201C0BF02FFF011C584607
:105810000BF014FFD599834604980BF026FF011C6A
:1058200058460BF00BFF011C50460BF007FF011C04
:10583000A8680BF000FFFFAB5968A860301C043368
:105840000BF013FFF9998246381C0BF00EFF011C78
:1058500050460BF0F3FEF299824606980BF005FFD6
:10586000EB99834648460BF000FF011C58460BF0AD
:10587000E5FE011C50460BF0E1FEE49982460598D6
:105880000BF0F3FEDD998346201C0BF0EEFE011CAD
:1058900058460BF0D3FED699834604980BF0E5FEEC
:1058A000011C58460BF0CAFE011C50460BF0C6FE08
:1058B000011CE8680BF0BFFEFFAB9968E860301C84
:1058C00008330BF0D2FEFA998246381C0BF0CDFE5D
:1058D000011C50460BF0B2FEF399824606980BF07D
:1058E000C4FEEC99834648460BF0BFFE011C5846A7
:1058F0000BF0A4FE011C50460BF0A0FEE599824679
:1059000005980BF0B2FEDE998346201C0BF0ADFE2D
:10591000011C58460BF092FED799834604980BF071
:10592000A4FE011C58460BF089FE011C50460BF0EA
:1059300085FE011C28690BF07EFEFFABD96828614B
:10594000301C0C330BF091FEFB998246381C0BF097
:105950008CFE011C50460BF071FEF49982460698AD
:105960000BF083FEED99834648460BF07EFE011C4A
:1059700058460BF063FE011C50460BF05FFEE699A3
:10598000824605980BF071FEDF998346201C0BF0D0
:105990006CFE011C58460BF051FED89983460498C2
:1059A0000BF063FE011C58460BF048FE011C5046EC
:1059B0000BF044FE011C68690BF03DFEEE99686136
:1059C00048460BF052FEF599814606980BF04DFEC5
:1059D000011C48460BF032FEFC998146381C0BF046
:1059E00044FEFFAB1969071C301C10330BF03DFE61
:1059F000011C381C0BF022FE011C48460BF01EFE59
:105A0000E099061C201C0BF030FEE799041C059859
:105A10000BF02BFE011C201C0BF010FED999041C6E
:105A200004980BF022FE011C201C0BF007FE011C49
:105A3000301C0BF003FE011CA8690BF0FCFD1C23BD
:105A40009C46089BE044A8611C35984500D027E699
:105A5000079BA29A99461A60A39A5A60A49A9A60E0
:105A6000A59ADA60A69A1A61A79A5A61A89A9A61C9
:105A7000A99ADA61AA9A1A62AB9A5A62AC9A9A62A5
:105A8000AD9ADA62AE9A1A63AF9A5A63B09A9A6381
:105A9000B19ADA63B29A1A64B39A5A64B49A9A645D
:105AA000B59ADA64B69A1A65B79A5A65B89A9A6539
:105AB000B99ADA65BA9A1A66BB9A5A66BC9A9A6615
:105AC000BD9ADA66BE9A1A67BF9A5A67C09A9A67F1
:105AD000C19ADA674A468023C299D150C3990433E8
