:020000041000EA
:1000000000B5324B212058609868022188439860DF
:10001000D860186158612E4B002199600221596106
:100020000121F02299502B49196001219960352056
:1000300000F044F80222904214D00621196600F024
:1000400034F8196E01211966002018661A6600F04E
:100050002CF8196E196E196E052000F02FF8012189
:100060000842F9D1002199601B49196000215960AB
:100070001A491B48016001219960EB211966A021F2
:10008000196600F012F800219960164914480160C1
:100090000121996001BC002800D000471248134993
:1000A000086003C880F30888084703B5996A0420EC
:1000B0000142FBD001200142F8D103BD02B5186610
:1000C0001866FFF7F2FF186E186E02BD00000240BE
:1000D000000000180000070000035F00212200005C
:1000E000F4000018222000A00001001008ED00E03C
:1000F00000000000000000000000000074B24E7A12
:1001000000200420F7010010C3010010C5010010F9
:10011000C1010010C1010010C1010010C101001097
:10012000C1010010C1010010C1010010C701001081
:10013000C1010010C1010010C9010010CB01001065
:10014000CD010010CD010010CD010010CD01001037
:10015000CD010010CD010010CD010010CD01001027
:10016000CD010010CD010010CD010010CD01001017
:10017000CD010010CD010010CD010010CD01001007
:10018000CD010010CD010010CD010010CD010010F7
:10019000CD010010CD010010CD010010CD010010E7
:1001A000CD010010CD010010CD010010CD010010D7
:1001B000CD010010CD010010CD010010CD010010C7
:1001C00000BE00BE00BE00BE00BE00BEEFF3058054
:1001D000103800BEF2EB8871E443051004440510AA
:1001E0003402001090A31AE700201F49086006C8D7
:1001F00081F3088810471D48006800282FD10DA4FE
:100200000ECC002902D000F012F8F9E71849194A7B
:10021000002000E001C19142FCD1174988471749ED
:1002200088471749884700BEFDE701C901C29A42C5
:10023000FBD3704704440510C0000020902C002020
:10024000D46F05100000042000000420D46F0510B6
:10025000001004200010042000000000704709482E
:100260000DF086FA0047000008ED00E0000000D025
:10027000902C0020AC58032065BF001055030010DF
:1002800099C000105756000006005250ABB360539F
:10029000B89F041006005250861C0302C89F041029
:1002A000060052505422A29DD49F041005005250C3
:1002B000DE65F468D46F0510F8B5C0460448054BF8
:1002C00010B5834203D0044B002B00D0984710BDDB
:1002D000902C0020902C00200000000006480749C8
:1002E000091A8B10C90FC91810B5491003D0044B57
:1002F000002B00D0984710BD902C0020902C00209F
:100300000000000010B5074C2378002B09D1FFF73F
:10031000D5FF054B002B02D0044800E000BF0123AD
:10032000237010BDD830002000000000109B041086
:10033000054B10B5002B03D00449054800E000BF71
:10034000FFF7CCFF10BDC04600000000DC300020ED
:10035000109B041070B519200AF0D0F8D023802229
:100360001B0692045A620FF073F900F047F806F08A
:10037000C3FD08F0ADF907F055F809F02BFC002299
:100380000524144B1A7006F0B5F9134D013C2100F9
:1003900028000FF051F9FA2080000AF0BFFE002C6F
:1003A000F4D10A200EF0A8FF012200210B480AF028
:1003B0007DFB0B4811F0FCFA01220A4B0A4C1A7023
:1003C0002378012BFCD108F03FFB2378012BFAD0D6
:1003D000F6E7C04690580320109B0410C457032032
:1003E0008D8C00108F5803209458032010B50248BC
:1003F00011F006FE10BDC0469C380320092370B5DD
:1004000086B0059304330493023B0393013B0293AC
:10041000023B324D324C0193324B22003249334879
:1004200000932B0005F024FE142005F01DFEFA2099
:1004300080000AF073FE2E4E21003200280006F0E4
:100440002FF83378682B08D02A4C20000EF0A0FF3C
:10045000FA2080000AF062FEF7E773783D2BF3D1B3
:1004600001222100280006F03FF8234E320021002F
:10047000280006F073F83378002BF7D10122210011
:10048000280005F0EFFE0121200005F0CDFE03213C
:10049000200005F05FFE0321280005F089FF1321ED
:1004A000200006F0C9F81221200006F003F900210F
:1004B000200006F0E1F80321200006F06BF802218D
:1004C000200006F083F85521200005F061FE182178
:1004D000280005F007FF06B070BDC0468420032049
:1004E0005C32002040420F009C200020942000201D
:1004F00054580320249B0410A6580320F0B5C64688
:10050000334C344D344E22002900300000B505F044
:10051000D9FF6378DB439B0720D023781B0702D4E5
:1005200080BCB846F0BD2D4C0622002120000EF004
:10053000B1FD2100300005F095FF0023E05E05F0DD
:10054000FFFD274D28600223E05E05F0F9FD68609D
:100550000423E05E05F0F4FDA860E1E7214B0622EC
:100560009846180000210EF095FD1F4F062200212D
:1005700038000EF08FFD4146280005F055FF390088
:10058000280005F033FF43460020185E05F0C4FD47
:100590004346164D28600220185E05F0BDFD434617
:1005A00068600420185E05F0B7FDA8600023F85EBF
:1005B00005F0BCFD0E4D28600223F85E05F0B6FD87
:1005C00068600423F85E05F0B1FDA860A5E7C046A9
:1005D000D84D03205C32002084200320843E032079
:1005E00024430320743E03207C3E0320183D032057
:1005F000343D0320F0B55746DE464E464546E0B54D
:100600008BB008919246190005900993DA170323DD
:100610008C46134063449B109B009846002B00DCE3
:1006200090E05246159B00249B000193149B9B1A5B
:10063000159A9B1A089A9B00029353681268190135
:1006400094460491069251469A00039252468D00B8
:100650000021013A92000792002289465900DE00EB
:10066000CB189B009B461300424665440092019ABA
:1006700094469C44039B1A199F195346002B1EDD78
:10068000069B059819196346804600989B004344D1
:1006900080460094086818600098081A845804314D
:1006A0005C6084599C60C059D86010338D42F1D190
:1006B00043460799009363468C4604339C440421C7
:1006C000029B5A4463448C461400049A3E00E14461
:1006D0009446009A5E4465444A45C8DC1A00009B73
:1006E0009846099B434526DD1499159C089B0D1BD4
:1006F000514609CB6D1A00291DDD41469E004B4332
:100700009B00C01853469C00059B47469C46099B8E
:10071000AB469846159B994600234A449100614494
:10072000C558CD5004339C42FAD1524401375A4443
:100730008019B845F0D10BB0F0BCBB46B246A94613
:10074000A046F0BD0022CCE7F0B54746CE4680B5C6
:100750001F00002B1DDD002A1BDD9300C0180B6855
:10076000002498464B689100D200494252428C4680
:1007700091469B00614645182900A2004244166834
:10078000D21840C18142FAD14A460134A81AA74280
:10079000F0D1C0BCB946B046F0BDC046F0B5DE46AB
:1007A00057464E4645460023E0B51360836887B040
:1007B0009A46059200230268052693460093013B62
:1007C000039002910493052355469B1B98465D4375
:1007D0005B46002B00D18DE14544AD005D442B68A4
:1007E0005C006B6864085F007F08391C381C0EF0E1
:1007F0001AFB002800D0DFE0211C381C0EF00EFB95
:10080000002800D0DFE00027731C9A46022B53D942
:10081000AB685B005B08191C181C99460EF003FBC3
:10082000002800D046E14846211C0EF0F7FA0028C7
:1008300001D04C4602275346032B3DD0EB685B00AA
:100840005B08191C181C99460EF0EDFA002800D020
:1008500038E14846211C0EF0E1FA002801D04C4650
:1008600003275346042B27D02B695B005B08191C18
:10087000181C99460EF0D7FA002800D02AE1494604
:10088000201C0EF0BDFA002801D04C460427534628
:10089000052B11D06D696D006D08291C281C0EF008
:1008A000C2FA002800D01DE1291C201C0EF0A8FA75
:1008B000002801D005272C1C029B009A47440021E8
:1008C0009F50201C0EF094FA002800D17EE0049B7B
:1008D000013300D1E3E006239B1B45460193039BB4
:1008E0009B689A465D4306239F1B53469B0099468F
:1008F000019B52461C005443009A7F199446A50060
:1009000065449C460023BF005F44B8461F00644412
:10091000A4005D445C444346286819680EF039FA27
:10092000011C20680EF01BFA2060012E2DD94346D1
:10093000286859680EF02DFA011C60680EF00FFA55
:100940006060022E21D04346296898680EF021FA93
:10095000011CA0680EF003FAA060032E15D04346D8
:100960002968D8680EF015FA011CE0680EF0F7F956
:10097000E060052E09D14346296818690EF009FA8E
:10098000011C20690EF0EBF9206101374D444C4405
:10099000BE42C0D1009B013E04330093019B052B56
:1009A00000D010E71A00029B5A6107B0F0BCBB46AA
:1009B000B246A946A046F0BD211C201C0EF033FA19
:1009C000002800D018E73C1C01271DE7474530D020
:1009D00059465C460098BB005B4409581D68039A61
:1009E00092682550196001009200594489189B189B
:1009F00008681C680C60186089189B1808681C68D7
:100A00000C60186089189B1808681C680C601860D6
:100A100089189B1808681C680C60186089189B1856
:100A200018680A6808601A60059A13680193013310
:100A300013604546039B5A469B685D439A460623CE
:100A40009B1B0193EC1843465B199B009F58A40025
:100A50005C442068391C0EF088F92060012E00D813
:100A600041E76068391C0EF080F96060022E00D109
:100A700039E7A068391C0EF078F9A060032E00D188
:100A800031E7E068391C0EF070F9E060042E00D107
:100A900029E72069391C0EF068F9206123E7062355
:100AA00045469B1B0193039B9B689A465D434346C7
:100AB000049318E7211C201C0EF0B5F9002800D182
:100AC000B7E6B0E6211C201C0EF0ADF9002800D1DD
:100AD000C5E6BEE6211C201C0EF0A5F9002800D1B9
:100AE000D3E6CCE6211C201C0EF09DF9002800D195
:100AF000E0E6D9E61B68FFDEF0B55746DE464E4617
:100B00004546E0B599B01493249B8246259C2698CF
:100B10005D1C00D1229B651C00D1229C239DEE17F9
:100B200003253540239EB4466544AD10AF0007252C
:100B3000229E0E97AE4335000096149E002E00DCD8
:100B400088E29B001693230110930301D318179397
:100B50006B1EDB0801330391D9015B010F93A300E6
:100B60007C43201880001193131815930023D3465B
:100B7000139108930E9B002B00DCC2E10F9A039B9C
:100B8000944663441293179BD84601930023029323
:100B90000298434601000CCB089C5943A44661448B
:100BA000890051180991411C594361448900511829
:100BB0000A91811C59436144890051180B91C11C51
:100BC0004B4363449B00D318019E0C93009B34005D
:100BD000002B00DC45E2039B0025994600234C4690
:100BE000AA46AB46A946069504952F1C0595079580
:100BF0000D9325683168281C0EF0CBF859460EF08D
:100C0000B1F871688346281C0EF0C3F851460EF007
:100C1000A9F8B1688246281C0EF0BBF807990EF0BF
:100C2000A1F8F1680790281C0EF0B3F805990EF0B2
:100C300099F8059065683169281C0EF0AAF8391CEE
:100C40000EF090F87169071C281C0EF0A2F80499A8
:100C50000EF088F8B1690490281C0EF09AF80699F5
:100C60000EF080F8F1690690281C0EF092F84946C3
:100C70000EF078F88146A568316A281C0EF089F8D4
:100C800059460EF06FF8716A8346281C0EF081F801
:100C900051460EF067F8B16A8246281C0EF079F8CA
:100CA00007990EF05FF8F16A0790281C0EF071F8B2
:100CB00005990EF057F80590E568316B281C0EF089
:100CC00068F8391C0EF04EF8716B071C281C0EF0EA
:100CD00060F804990EF046F8B16B0490281C0EF0F1
:100CE00058F806990EF03EF8F16B0690281C0EF0AD
:100CF00050F849460EF036F881462569316C281CBB
:100D00000EF047F859460EF02DF8716C8346281CFA
:100D10000EF03FF851460EF025F8B16C8246281CC3
:100D20000EF037F807990EF01DF8F16C0790281CAB
:100D30000EF02FF805990EF015F805906569316DE4
:100D4000281C0EF026F8391C0EF00CF8716D071CEB
:100D5000281C0EF01EF804990EF004F8B16D0490F2
:100D6000281C0EF016F806990DF0FCFFF16D0690A8
:100D7000281C0EF00EF849460DF0F4FF8146A569D7
:100D8000316E281C0EF005F859460DF0EBFF716E20
:100D90008346281C0DF0FDFF51460DF0E3FFB16EB8
:100DA0008246281C0DF0F5FF07990DF0DBFFF16E70
:100DB0000790281C0DF0EDFF05990DF0D3FF05906D
:100DC000E569316F281C0DF0E4FF391C0DF0CAFFF6
:100DD000716F071C281C0DF0DCFF04990DF0C2FF99
:100DE000B16F0490281C0DF0D4FF06990DF0BAFFE6
:100DF000F16F0690281C0DF0CCFF49460DF0B2FFB4
:100E00008146803620340D9B009A08330D939A4218
:100E100000DDEEE6139B019C9C46051C5946381CE0
:100E200064440DF09FFF5146071C04980DF09AFF93
:100E30000799061C06980DF095FF05998146281C18
:100E40000DF090FF129B051C9A46229A009B9A4235
:100E500030DDAB460493534620CB2168281C9A46CC
:100E60000DF097FF011C381C0DF07CFF6168071C1A
:100E7000281C0DF08EFF011C301C0DF073FFA168C3
:100E8000061C281C0DF085FF011C48460DF06AFF6A
:100E9000E1688146281C0DF07CFF011C58460DF0CE
:100EA00061FF8346049B229A0133103404939A42D3
:100EB000D1D1051C311C0A9E30680DF050FF391C41
:100EC000099F041C38680DF04AFF291C0C9D3860EE
:100ED000346028680DF043FF0B9E4946041C3068BF
:100EE0000DF03DFF1099019A8C46029B62440192DD
:100EF0000E9A0433306002932C609A4200DD47E67C
:100F0000C3460F9A039B944663440E9A0293239B15
:100F10009246159D934200DC90E05B465C68534628
:100F20005C43089B2F009C465B461B6864449C46C0
:100F3000009BA4006444002B00DC99E00023039F85
:100F400099463B00A04600262F001C003968206807
:100F50000DF01FFF311C0DF005FF061C796860685D
:100F60000DF017FF311C0DF0FDFE061CB968A068DE
:100F70000DF00FFF311C0DF0F5FE061CF968E0685E
:100F80000DF007FF311C0DF0EDFE061C39692069DC
:100F90000DF0FFFE311C0DF0E5FE061C796960695D
:100FA0000DF0F7FE311C0DF0DDFE061CB969A069DD
:100FB0000DF0EFFE311C0DF0D5FE061CF969E0695D
:100FC0000DF0E7FE311C0DF0CDFE061C203720345D
:100FD00008239C46009BE1444B45B7DC44460F9BED
:100FE000EF18029B0193229A009B9A4217DD9946C3
:100FF0000023984643464246F958019B98580DF005
:10100000C8FE011C301C0DF0ADFE061C01239C46E1
:101010000333E1449C46229BE0444B45EAD12068DF
:10102000311C0DF09CFE01239C46119BE2449C4622
:10103000239B20606544534500D06EE71699039AC0
:101040008C46089B62440392149A013308939A4297
:1010500000D08FE519B0F0BCBB46B246A946A04609
:10106000F0BD0025039BA9469A462E1C2F1CECE6DA
:10107000039B00260193B6E7F0B557464E46DE4681
:1010800045468024E0B5B5B006AF3C1920609420F9
:101090007B63E823AE4E38180160BA63FB181C6806
:1010A0003378BFF35B8FDB0700D477E2A94D902242
:1010B0002369BA1813608422A368BA1813608022C7
:1010C000BA1812686D68934202DD8423FB181A6017
:1010D00094218423902279180E688C21FB18BA1869
:1010E00012681B6856435343226879180A60002A25
:1010F00000D180E29B003B660023BB6763687B678F
:10110000002B00D163E2B300FB6500233B6798220C
:101110000423BA1813609033FB181B68002B19DDE9
:101120008023E422FB18BA181B6812681900934246
:1011300000DA4AE2280009010CF074FB0323C2170D
:10114000134098221B189B109B00BA181360042BA5
:1011500000DA35E28023FB181968002900DCA9E1D8
:1011600090207B6B38181A000068796484464243EB
:10117000091A3A616244B9647A609821E4227918C4
:10118000BA18126809684A43BA619A007A6104324F
:10119000FA61A02201339B00BA181360E423FB1804
:1011A0001B689B009B460023FB63FB643B64BB66A0
:1011B0009C227B6CBA1813609022BA181268934272
:1011C00002DD9C23FB181A609423FB181B68002B7C
:1011D00000DC47E19C23FB181A68002A00DC41E18F
:1011E0009423E021FB181B687918BB6598230968D4
:1011F000FB188C461B68B86E53439B00BB607B6F2B
:101200001100FB6783006344FB6000238C46FB6690
:10121000FB620B00B021791839630321013B043ACA
:101220008B436044D31A38603B629822BA18BB6D76
:1012300012689A46934200DD9246FA68FB6E944625
:101240009B0063447B66FB6B88227B65FB6CBA1852
:101250003B659C23FB181B6813609C23FB181A68D2
:101260008823FB181B68D21ABA62A422BA1813602A
:10127000042B03DDA4220423BA1813608823FB186F
:101280003A681B68D21A7A62002B65DDA423BA6B18
:10129000FB189146A8221B68BA18013B98467B6D43
:1012A0009B0099447B6E1360AC220023BA18136034
:1012B000AC23AC22FB181B68BA18013313604346F9
:1012C000002B2CDDA8230025FB181C684B46266844
:1012D0005968301C0DF05DFD011C60680DF03FFD8C
:1012E00043466060012B16D04B46301C99680DF0C8
:1012F00050FD011CA0680DF032FD4346A060022B9A
:1013000009D04B46301CD9680DF043FD011CE06844
:101310000DF025FDE06001355C445545D6D1012333
:101320005B429C46A133FB181B68E0449C46A82303
:10133000A822FB181B68BA1804331360AC23A4223C
:10134000FB18BA181B681268E1449342B0DB03E053
:10135000EC220320B03803208823A422FB18BA18FB
:101360001B681268396B9D1A7B6EBE6A0B60E423A2
:10137000FB181B6891464B609C230196FB181B6869
:1013800088460093F86F5346FFF734F9002D37DD98
:1013900041467C6A386D4C440319B86B4A46844612
:1013A000786B9B004860A420381802608C203818A5
:1013B000006863440B602B0081463963FFF7C4F972
:1013C000E022FB6EBA181B1914689B00A0463C6B08
:1013D00043442360E423FB1819689C236160FB18D5
:1013E00004961B6849460393A423FB181A685346C6
:1013F0000292019300922B002000FA6FFFF77CFB12
:10140000882388227969FB188C461B68BA18043B2C
:10141000F96913603A6D62448C463A657A6E10320F
:101420007A667A6D62447A653A6A9A4200D014E725
:101430009822BA181268B96D9446FB6A8A1AB9697B
:1014400063448C46BA65B968FA6EFB6262448C46A6
:10145000FA66FA6F6244FA679422BA1812689A42DE
:1014600000DDE2E69022BA181268BB6E9446802234
:10147000BA1812686344BB6693421BDA8423FB18D4
:101480001B68002B38DC90233969FB188C467A6C7A
:101490001B68D21A7A643A6C62443A64BA6CD31A02
:1014A000BB647A68FB6C63449446FB64FB6B6344E7
:1014B000FB637DE68023FA6D9B029A4207D93A6F5F
:1014C000002A04D0531E1878101A0DF0CBFD80238B
:1014D0003A6E9B029A4207D9BA6F002A04D0531E73
:1014E0001878101A0DF0BEFDBD462FB0F0BCBB46FB
:1014F000B246A946A046F0BDBA6B3B6C92469B0033
:101500009A44B023FE18B13B9946BD6CBC6E84234F
:10151000FB181B68A8469D4200DD9846AC22A3003C
:10152000BA1813607A6B8C2072609C225344BA18EC
:10153000381831001268006833604346FFF704F939
:10154000E022AC23BA181268FB1894461B688C2161
:1015500063443360E423FB181B687918736000232D
:1015600004934B46039302939423FB181B683000AB
:1015700001939C23FB181B6800937A6F434609680C
:10158000FFF7BAFA8423FB181B689C46ED1A8023E8
:10159000FB181B686444A342B9DC74E7300010F008
:1015A0002DFA364D002800D181E58023DB012B6028
:1015B00080231B0330006B60AB6010F03BFA76E5D4
:1015C00098220423BA181360C4E51100B2E5802301
:1015D000B200FA659B029A423AD813006A46163363
:1015E000DB08DB00D31A9D4627200F23684498436D
:1015F000386778678BE59A0080233A669B029A42A7
:101600000FD813006A461633DB08DB00D31A9D4659
:1016100027200F23684498437D33FB18B867186070
:101620006CE5100010300DF0FFFCB867002800D109
:1016300064E50F221023844602409B1ADBB29C44CF
:1016400061464A1E13708C23FB18B967196055E573
:10165000100010300DF0E8FC3867002800D156E586
:101660000F221023844602409B1ADBB29C44614641
:101670004A1E39671370796749E5C046B0380320C0
:10168000F0B557464E46DE464546E0B5B7B006AF24
:10169000824684207B65F023CB4E38180160BA6304
:1016A000FB181C683378BFF35B8FDB0700D49DE227
:1016B000C64D23696D683B67A368BB67534501DD71
:1016C0005346BB67842179180E6880213A6FBB6F3F
:1016D00056435343226879180A60002A00D1B4E2C5
:1016E0009B003B650023FB666368BB66002B00D153
:1016F00097E2B300FB6400237B6688220423BA18B8
:1017000013608033FB181B68002B16DDEC23FB18DD
:101710001B6851469A4500DA7FE2280009010CF067
:1017200081F80323C217134088221B189B109B00CB
:10173000BA181360042B00DA6AE25346002B00DC6F
:1017400032E27A6D386F1100434259430B00B9629F
:1017500051460C1A110062431B1A9B00BA647B604D
:101760000A000B0051464B43B96B53448C46E821A9
:101770009B006344FB637918830009685B423B600C
:1017800053468C469B006344EC21BB658823791843
:10179000FB1809681B687C674B4390213B619300F1
:1017A0005B4279180B60043BBB609B00FB60D3433A
:1017B00094229B00BA181360EC23A822FB181B6824
:1017C000BA189B001360544603008C22BA181360A9
:1017D000A34200DD14608423FB181B68002B00DC8F
:1017E00076E18C23FB181A68002A00DC70E1842360
:1017F000FB181B68B96D7B648823FB181B68534377
:101800009B00FB61BB6EFB659300CB1A3B62002320
:10181000B8213B667B63A31A7918FB621300396316
:101820000321013B043A8B43D31A7B61AC227B6CCE
:10183000BA1813608822BA181268934202DDAC23EA
:10184000FB181A603A6A3B6E94469B009C446246C1
:101850007A62BA6D944698226344BA181360FB6B9F
:101860003B648C23FB181B68FB679C22FB6FBA1838
:101870001360042B03DD9C220423BA181360FA6F53
:10188000FB6A94466344BB61002A00DCA0E09C2311
:10189000396CA0208A46FB181B6838185A1E9346DC
:1018A000BA685B42524402607A6D9B1A9B009A446C
:1018B0000423A4225B4299460023BA181360A02394
:1018C000FE20FB181B68800519680DF04EFAB42342
:1018D000FB181860A423FB181B685A46DB439B1AAD
:1018E0009822BA18126800269446B0229C009B00E9
:1018F0005B42BA1864441360B023FB181B684A4665
:101900009846A04443469958B423FB1818680DF034
:1019100040FA43464A4698505B46051C002B22DDA0
:10192000534619680DF035FA011C20680DF017FABE
:101930005B462060012B16D05346281C59680DF0D9
:1019400028FA011C60680DF00AFA5B466060022B01
:1019500009D05346281C99680DF01BFA011CA06899
:101960000DF0FDF9A060A823FB181B6801369C460A
:10197000AC23FB181B6864449E42BDD1A423A4225F
:10198000FB181B68BA1801331360012294215242DC
:10199000944679180968E3448C46A021A132BA180C
:1019A0001268791862440A600422524294469432C2
:1019B000BA181268E14494469C22BA181268E244AC
:1019C000934200DA7BE703E0EC220320B0380320E7
:1019D000E8219C2279180968BA188C46FB6F1268B6
:1019E000396B9C1ABB699D1A3B6E5B199B00634463
:1019F0000B60EC23FB181B684B608C230194FB18D5
:101A00001B680093AC23FB181B68F86DFEF7F2FD12
:101A1000002C30DD7A6DF96A13008C466B433D6B08
:101A2000B96B80206A609C2263448C463818066833
:101A30009B00BA181268634429002B603000230011
:101A40009046FEF781FEEC2228008C237D6ABA18AE
:101A500005601568FB18456004941D68AC22434678
:101A600003950293BA181268009301922300310083
:101A7000FA6DFFF741F898229821BA181268791880
:101A8000103A0A60F9683A6C8C46FB6F62443A641B
:101A90007A69043BFB679A4200D0E6E68822BA18CE
:101AA0001268796C94467B6B8A1AF96963448C4698
:101AB0007A643969FA6D7B6362448C46FA653A6EE2
:101AC00062443A668422BA1812689A4200DDADE692
:101AD0007B6F1C1E68DDBB6F002B00DCFEE7BA6B62
:101AE000BB6C93469B009B4400239946B833FE1879
:101AF000B93B9A4623004C4699467D6FBB6FA8467A
:101B00009D4200DD9846B422A300BA1813607A6D96
:101B1000802072608C225B44BA1838183100126839
:101B2000006833604346FEF70FFEE822B423BA187C
:101B30001268FB1894461B68802163443360EC23D1
:101B4000FB181B68791873600023049353460393B2
:101B500002938423FB181B68300001938C23FB182D
:101B60001B680093BA6E43460968FEF7C5FFBB6F5A
:101B70009C46ED1A7B6F6444A342BFDCBA6ABB6C1F
:101B800094467A6863449446BB643A68FB6B4C465F
:101B900063449446FB63BB6D3A6F6344BB657B6FE4
:101BA0009B1A7B67130010E68023FA6C9B029A4213
:101BB00007D97A6E002A04D0531E1878101A0DF037
:101BC00051FA80233A6D9B029A4207D9FA6E002A95
:101BD00004D0531E1878101A0DF044FABD4631B0E7
:101BE000F0BCBB46B246A946A046F0BD30000FF09F
:101BF00005FF374D002800D15BE58023DB012B601A
:101C000080231B0330006B60AB600FF013FF50E5C7
:101C100088220423BA1813608FE5EC23FB18196897
:101C20007BE58023B200FA649B029A423AD8130003
:101C30006A461633DB08DB00D31A9D4627200F23A4
:101C4000684498437866B86657E59A0080233A65F9
:101C50009B029A420FD813006A461633DB08DB005A
:101C6000D31A9D4627200F23684498437133FB18ED
:101C7000F866186038E5100010300DF0D5F9F866F8
:101C8000002800D130E50F221023844602409B1A21
:101C9000DBB29C4461464A1E13708023FB18F96630
:101CA000196021E5100010300DF0BEF978660028AB
:101CB00000D122E50F221023844602409B1ADBB29A
:101CC0009C4461464A1E79661370B96615E5C046A4
:101CD000B038032030B587B00D4B02AD00951A68BF
:101CE000694602929A880400AA809B796A46AB7181
:101CF000072301930023D3732CF012FE0098A8420F
:101D000003D0029901310DF0E1F9200007B030BD98
:101D1000389B0410F0B5DE4657464E464546E0B5C2
:101D20000E000168C7688946416805698A4681686E
:101D30008DB08B464169806907930690506813689F
:101D4000926805910A90291C30680B9209930895B6
:101D50000DF005F80599039070680DF000F80699EC
:101D6000051CB0680CF0FBFF8026804636060798FD
:101D70000DF092F8B446039B009001916344180063
:101D800051460DF006F85946061C281C0DF001F8C6
:101D9000011C301C0CF0E3FF391C061C4046049764
:101DA0000CF0F7FF011C301C0CF0D9FF0DF074F89B
:101DB0000022684B0BF0ADFF009A019B0BF0A9FFCE
:101DC000060048460F000DF067F802000B003000D7
:101DD0003900169C0BF076FF0CF0A0F84946206005
:101DE00003980CF0D6FF5946061C40460CF0D1FF74
:101DF000011C301C0CF0B6FF0499061C281C0CF0CA
:101E0000C8FF011C301C0CF0AAFF0DF045F80022A1
:101E1000504B0BF07EFF009A019B0BF07AFF0600FF
:101E200050460F000DF038F802000B00300039006A
:101E30000BF048FF0CF072F849466060281C0CF06B
:101E4000A8FF5146061C40460CF0A3FF011C301CA5
:101E50000CF085FF0499061C03980CF09AFF011CF6
:101E6000301C0CF07FFF0DF017F80022394B0BF0FF
:101E700050FF009A019B0BF04CFF060058460F00E4
:101E80000DF00AF802000B00300039000BF01AFFC9
:101E90000CF044F84946A06040460CF07AFF5146E9
:101EA000061C281C0CF075FF011C301C0CF05AFF9E
:101EB0005946051C03980CF06CFF011C281C0CF003
:101EC0004EFF0CF0E9FF0022224B0BF022FF009A9C
:101ED000019B0BF01EFF060004980F000CF0DCFFC6
:101EE00002000B00300039000BF0ECFE0CF016F88D
:101EF000089B0999E060181C98460CF04AFF079D62
:101F0000291C0CF046FF011C40460CF028FF059FE1
:101F10000A992061381C0CF03CFF291C0CF039FF99
:101F2000011C381C0CF01BFF069E0B996061301CD5
:101F30000CF02FFF291C0CF02CFF011C301C0CF0A6
:101F40000EFFA06100200DB0F0BCBB46B246A94612
:101F5000A046F0BD0000E03FF0B5DE4657464E46D5
:101F600045468A464168E0B58846C768816891B0B1
:101F7000066889464046391C141C04930CF009FF7E
:101F80004946051C301C0CF004FF0A90011C281C5B
:101F900009950CF0E4FE0CF07FFF02000B000BF043
:101FA00091FE06900791201C02940CF075FF0B0027
:101FB000020004000D00069807990BF0AAFE0BF032
:101FC000ADFF5246391C106048460CF0E2FE8346D5
:101FD0004146301C0CF0DDFE5A460E90011C58465E
:101FE0000B920CF0BFFE0CF057FF02000B000BF041
:101FF00069FE02000B00200029000C920D930BF0EB
:1020000088FE0BF08BFF5446311C6060301C0CF0D6
:10201000C0FE4146041C40460CF0BBFE051C011CE2
:10202000201C0CF09CFE4946089048460CF0B1FE7E
:10203000391C8346381C0CF0ACFE594601900898B8
:102040000CF08DFE01990CF08DFE02990F900CF0B2
:10205000A0FE53464946986040460CF09AFE391C53
:102060008046301C0CF095FE81461A980CF014FF47
:1020700006001B980F000CF00FFF02900391291C23
:10208000201C0CF06FFE59460CF069FE01990CF013
:1020900066FE04990CF07DFE0CF0FEFE04000D00BF
:1020A000404649460CF05EFE0CF0F6FE02000B00C6
:1020B0000BF008FE32003B000BF02BFE02000B0081
:1020C000200029000BF0FEFD029A039B04000D0086
:1020D000069807990BF01DFE02000B002000290056
:1020E0000BF0F0FD0BF01AFF5346D86004980CF08B
:1020F000D3FE04000D00404649460CF030FE0CF0C3
:10210000CBFE02000B000BF0DDFD22002B0004943F
:1021100005950BF0FEFD04000D00089859460CF0E3
:1021200021FE01990CF01BFE1A990CF032FE0CF006
:10213000B3FE02000B00200029000BF0C3FD029A41
:10214000039B04000D000C980D990BF0E2FD0200BA
:102150000B00200029000BF0B5FD0BF0DFFE53460D
:102160000A99186109980CF0FDFD0CF095FE02002B
:102170000B000BF0A7FD049A059B0BF0CAFD0400B1
:102180000D000B980E990CF0EAFD0CF085FE020094
:102190000B000BF097FD32003B000BF0BAFD020084
:1021A0000B00200029000BF08DFD04000D000F989E
:1021B0001B990CF0EEFD0CF06FFE02000B002000EE
:1021C00029000BF07FFD0BF0A9FE5346586100205B
:1021D00011B0F0BCBB46B246A946A046F0BDC04611
:1021E000F0B50400DE4657464E4645460800E0B5C9
:1021F00045680968AA46856895B0AB46C5684669D2
:10220000876910910E950169556810689268049667
:1022100090461A68069711925A689B681292139317
:10222000FE239B05236099460CF099FD0CF034FECB
:10223000009001911E980CF02FFE06000F000098F0
:1022400001990022924B0BF064FD32003B000BF031
:1022500060FD0BF063FE04990390E061281C0CF014
:102260007EFD0CF019FE0022894B049005910BF0C5
:1022700050FD32003B000BF04CFD0BF04FFE069979
:10228000051CA06340460CF06AFD0CF005FE002220
:102290007F4B069007910BF03CFD32003B000BF0AA
:1022A00038FD0BF03BFE0A90606550460CF0F4FDE3
:1022B0000022784B089009910BF02BFD32003B0077
:1022C0000BF027FD0BF02AFE0B90206758460CF010
:1022D000E3FD00226F4B0C900D910BF01AFD3200C4
:1022E0003B000BF016FD0BF019FE8C238246E050EC
:1022F0000E980CF0D1FD0022664B0E900F910BF062
:1023000008FD32003B000BF004FD0BF007FEA82394
:102310008346E0500022009801995E4B0BF0F9FCD7
:1023200032003B000BF0F5FC0BF0F8FD4946009045
:1023300060602162002206980799564B0BF0E9FC79
:1023400032003B000BF0E5FC0BF0E8FDA565804694
:10235000E06310980CF0A0FD00224D4B0BF0D9FC6F
:1023600032003B000BF0D5FC0BF0D8FD5946902312
:10237000051C60670022E1500C980D99444B0BF04E
:10238000C8FC32003B000BF0C4FC0BF0C7FDAC23D3
:102390000022E050049805993E4B0BF0BAFC320045
:1023A0003B000BF0B6FC0BF0B9FD49460A9A834698
:1023B0006262009AA0602164E2650E980F99002283
:1023C000334B0BF0A6FC32003B000BF0A2FC0BF0F1
:1023D000A5FD94230B99A067E5501C33E1504146BD
:1023E000E1605946A162494621665146039BE16777
:1023F0006364089809990022254B0BF08AFC32008F
:102400003B000BF086FC0BF089FD9823E0501C3359
:10241000E55000251E9911982561E562A564656661
:102420000CF0B7FC011C48460CF099FC8023E050EE
:102430001C33E5501C33E550343B1E9912986561FE
:102440002563E564A566E5500CF0A3FC011C484635
:102450000CF085FCA023E0501C33E550343BA56113
:1024600065632565E566E5501C33E5501E991398B4
:102470000CF08FFC011C48460CF071FCC023E050AE
:10248000002015B0F0BCBB46B246A946A046F0BD40
:102490000000E0BF0000E03FF0B5DE4657464E4684
:1024A0004546E0B59A460B68141C8A689B464B6803
:1024B000C9688BB00500101C8846009301920CF08F
:1024C000EBFC02900391201C0CF0E6FCC0230600FC
:1024D0000F000298039900221B060BF01AFC320031
:1024E0003B000BF016FC0BF019FD089028604046ED
:1024F0000CF0D2FC02000B000BF0E4FB32003B00BE
:102500000BF007FC0BF00AFD041CA86158460CF008
:10251000C3FCC02300221B06049005910BF0F9FBBD
:1025200032003B000BF0F5FB0BF0F8FC2863009841
:102530000CF0B2FC02000B00069007910BF0C2FBFE
:1025400032003B000BF0E5FB0BF0E8FC0021902390
:102550008946A8642966A967E950686004980599C6
:1025600002000B000BF0AEFB32003B000BF0D1FB86
:102570000BF0D4FC6C630490E861029803990200AC
:102580000B000BF09FFB32003B000BF0C2FB0BF08B
:10259000C5FC49469423E8646966E967E950C023AD
:1025A00006980799049A1B06AA6000220BF0B1FB5B
:1025B00032003B000BF0ADFB0BF0B0FC089B494632
:1025C000AB63802328622C65A966E9501833E95073
:1025D000404614990CF0DDFB019F1599061C381C30
:1025E0000CF0D7FB5146041C58460CF0D2FB311CB2
:1025F0000CF0B8FB211C06940CF0B1FB011C0CF094
:10260000B1FB51460990E86000980CF0C2FB1499A8
:10261000041C381C0CF0BDFB011C201C0CF0A2FBA0
:102620001599041C40460CF0B4FB011C201C0CF056
:1026300099FB011C0CF096FB1499029068620098BB
:102640000CF0A7FB1599089058460CF0A2FB019AD4
:102650008024944624066444071C514620000CF054
:1026600098FB08990CF07EFB391C0CF078FB011CE0
:102670000CF078FB1499E86358460CF08AFB159926
:10268000049000980CF085FB802212064244041C42
:10269000514610000CF07DFB04990CF063FB211CEB
:1026A0000CF060FB011C0CF05DFB4A468423EA66DB
:1026B0006865EA501833EA505146286101980CF0D9
:1026C00068FB08990CF04BFB391C0CF04BFB011C10
:1026D0000CF048FB071CA8628020029B00062B64BC
:1026E000514658440CF055FB311C0CF038FB069950
:1026F0000CF038FB011C0CF035FB8823A86548461C
:102700002867E8501833E850514640466F610CF096
:1027100040FB04990CF023FB211C0CF020FB011C56
:102720000CF020FB099AE8626A64029B4A46EB655A
:102730004B466B678C230020EA501833EA500BB0ED
:10274000F0BCBB46B246A946A046F0BD0123F0B599
:10275000E3214746CE469C46294B804605009946D4
:10276000284E80B58900076846444144FA0F6F68D7
:10277000D2077B005B08346813435A086240644602
:102780001C4201D04B465A4004C50436A942EDD143
:10279000E32342469B00C626D458194B01259C468C
:1027A000F6004644E20F4C68D20763005B080768F6
:1027B00013435A087A401D4201D063465A40043000
:1027C00004C1B042EED14246C62140460E4BC9007C
:1027D000D3581268DB0F52005208DB0741581343ED
:1027E0005A084A40DB0701D5054B5A404146064B83
:1027F000CA5000220433CA50C0BCB946B046F0BD2E
:10280000DFB0089934060000BC090000F0B5454669
:10281000DE4657464E46E0B53C4CD723A54434AA85
:10282000944663441B091B018A6805930B68019257
:1028300037921A6804902D929A6933912E921A6BEE
:1028400038AC2F929A6C30921A6E06929A6F089258
:1028500090229A5807925A680A92DA690B925A6B38
:102860000C92DA6C0D925A6E0E92DA6F0F929422DD
:102870009A5810929A6811921A6A12929A6B13924D
:102880001A6D14929A6E159280229A581692982276
:102890009A581792DA6818925A6A1992DA6B1A9251
:1028A0005A6D1B92DA6E1C9284229A581D929C22B9
:1028B0009A581E921A691F929A6A20921A6C219253
:1028C0009A6D22921A6F239288229A582492A022FB
:1028D0009A5825925A692692DA6A27925A6C289257
:1028E000DA6D29925A6F2A928C229A582B92A4223E
:1028F0009B582C934B68984638AB3293C42343447F
:1029000009934346A0461C0002E0C0469CFDFFFF21
:10291000E168A26889462169236848460391309995
:10292000029201930CF035FA0399824606980CF056
:1029300030FA011C50460CF015FA67698246391CC2
:1029400008980CF026FAA6698346311C07980CF00B
:1029500020FA011C58460CF005FA011C50460CF0F8
:1029600001FA656882462E99281C0CF012FA2F99FC
:10297000834602980CF00DFA011C58460CF0F2F94F
:102980002D99834601980CF004FA011C58460CF06E
:10299000E9F9011C50460CF0E5F943464946186038
:1029A0000D980CF0F6F9039982460E980CF0F1F9A7
:1029B000011C50460CF0D6F9391C82460F980CF0D9
:1029C000E8F9311C834610980CF0E3F9011C5846D5
:1029D0000CF0C8F9011C50460CF0C4F9291C8246C1
:1029E0000B980CF0D6F9029983460C980CF0D1F9AB
:1029F000011C58460CF0B6F9019983460A980CF070
:102A0000C8F9011C58460CF0ADF9011C50460CF0F9
:102A1000A9F943464946586014980CF0BAF903994D
:102A2000824615980CF0B5F9011C50460CF09AF945
:102A3000391C824616980CF0ACF9311C8346179865
:102A40000CF0A7F9011C58460CF08CF9011C5046FB
:102A50000CF088F9291C824612980CF09AF9029918
:102A6000834613980CF095F9011C58460CF07AF93E
:102A70000199834611980CF08CF9011C58460CF012
:102A800071F9011C50460CF06DF9434649469860B7
:102A90001B980CF07EF9039982461C980CF079F98A
:102AA000011C50460CF05EF9391C82461D980CF052
:102AB00070F9311C83461E980CF06BF9011C5846C6
:102AC0000CF050F9011C50460CF04CF9291C8246C0
:102AD00019980CF05EF9029983461A980CF059F98E
:102AE000011C58460CF03EF90199834618980CF0E9
:102AF00050F9011C58460CF035F9011C50460CF0F9
:102B000031F943464946D86022980CF042F90399BE
:102B1000824623980CF03DF9011C50460CF022F936
:102B2000391C824624980CF034F9311C83462598D0
:102B30000CF02FF9011C58460CF014F9011C5046FA
:102B40000CF010F9291C824620980CF022F9029909
:102B5000834621980CF01DF9011C58460CF002F92F
:102B6000019983461F980CF014F9011C58460CF08B
:102B7000F9F8011C50460CF0F5F843464946186137
:102B800029980CF006F9039981462A980CF001F96E
:102B9000011C48460CF0E6F8391C81462B980CF0D5
:102BA000F8F8311C071C2C980CF0F3F8011C381CA9
:102BB0000CF0D8F8011C48460CF0D4F8291C061C6F
:102BC00027980CF0E6F80299051C28980CF0E1F81B
:102BD000011C281C0CF0C6F80199051C26980CF065
:102BE000D8F8011C281C0CF0BDF8011C301C0CF09E
:102BF000B9F84346586118239C46099B1C34E044AD
:102C0000A34200D084E6379B1A68629308929A69BF
:102C100009921A6B0A929A6C0B921A6E0C929A6F26
:102C20000D9290229A580E925A680F92DA69109279
:102C30005A6B1192DA6C12925A6E1392DA6F1492E6
:102C400094229A5815929A6816921A6A17929A6B59
:102C500018921A6D19929A6E1A9280229A581B92A3
:102C600098229A581C92DA681D925A6A1E92DA6B60
:102C70001F925A6D2092DA6E219284229A582292E3
:102C80009C229A5823921A6924929A6A25921A6C65
:102C900026929A6D059C27921A6F203428928822DA
:102CA0009A58A1462992A0229A582A925A692B92A0
:102CB000DA6A2C925A6C2D92DA6D2E925A6F2F92FC
:102CC0008C229A583092A4229B5831935CAB069385
:102CD0003EAB0793329B98464346424641464046A8
:102CE0001B6895690193069B146B096E926C40CB2F
:102CF000876F0291101C0B99039206930CF049F810
:102D00000C99824602980CF044F8011C50460CF0D5
:102D100029F80D998246381C0CF03BF80E99834631
:102D2000301C0CF036F8011C58460CF01BF8011C46
:102D300050460CF017F809998246281C0CF029F827
:102D40000A998346201C0CF024F8011C58460CF00C
:102D500009F80899834601980CF01BF8011C5846A5
:102D60000CF000F8011C50460BF0FCFF4B4612998A
:102D7000186003980CF00DF81399824602980CF035
:102D800008F8011C50460BF0EDFF14998246381CE0
:102D90000BF0FFFF15998346301C0BF0FAFF011C66
:102DA00058460BF0DFFF011C50460BF0DBFF10997B
:102DB0008246281C0BF0EDFF11998346201C0BF076
:102DC000E8FF011C58460BF0CDFF0F998346019890
:102DD0000BF0DFFF011C58460BF0C4FF011C5046EE
:102DE0000BF0C0FF4B461999586003980BF0D1FFC8
:102DF0001A99824602980BF0CCFF011C50460BF04A
:102E0000B1FF1B998246381C0BF0C3FF1C99834607
:102E1000301C0BF0BEFF011C58460BF0A3FF011C39
:102E200050460BF09FFF17998246281C0BF0B1FF0C
:102E300018998346201C0BF0ACFF011C58460BF080
:102E400091FF1699834601980BF0A3FF011C584689
:102E50000BF088FF011C50460BF084FF4B46209975
:102E6000986003980BF095FF2199824602980BF029
:102E700090FF011C50460BF075FF22998246381CCA
:102E80000BF087FF23998346301C0BF082FF011C57
:102E900058460BF067FF011C50460BF063FF1E996C
:102EA0008246281C0BF075FF1F998346201C0BF0EF
:102EB00070FF011C58460BF055FF1D998346019881
:102EC0000BF067FF011C58460BF04CFF011C5046ED
:102ED0000BF048FF4B462799D86003980BF059FF39
:102EE0002899824602980BF054FF011C50460BF0C3
:102EF00039FF29998246381C0BF04BFF2A998346EB
:102F0000301C0BF046FF011C58460BF02BFF011C38
:102F100050460BF027FF25998246281C0BF039FFFD
:102F200026998346201C0BF034FF011C58460BF0F9
:102F300019FF2499834601980BF02BFF011C58467A
:102F40000BF010FF011C50460BF00CFF4B462E9966
:102F5000186103980BF01DFF2F99824602980BF021
:102F600018FF011C50460BF0FDFE30998246381CBC
:102F70000BF00FFF3199071C301C0BF00AFF011CEE
:102F8000381C0BF0EFFE011C50460BF0EBFE2C99A9
:102F9000061C281C0BF0FDFE2D99051C201C0BF0B7
:102FA000F8FE011C281C0BF0DDFE2B99041C019877
:102FB0000BF0EFFE011C201C0BF0D4FE011C301C9A
:102FC0000BF0D0FE4B46586104239C461433E0447A
:102FD0009C46079BE144434500D07DE6339B059D1D
:102FE000DC68296A20680BF0BDFE049EA96B306086
:102FF00060680BF0B7FE7060A068296D0BF0B2FE40
:10300000B060E068A96E0BF0ADFE8023F06020692F
:10301000E95898460BF0A6FE98233061E95860699C
:103020000BF0A0FE7061A069696A0BF09BFEB061B5
:10303000E069E96B0BF096FEF061206A696D0BF0B8
:1030400091FE3062E96E606A0BF08CFE842770623C
:10305000A06AE9590BF086FE9C23B062E958E06A49
:103060000BF080FEF062206BA96A0BF07BFE3063F0
:10307000606B296C0BF076FE7063A06BA96D0BF092
:1030800071FEB063E06B296F0BF06CFEF063882675
:10309000206CA9590BF066FE049B1864A023606C99
:1030A000E9580BF05FFE049BE96A5864A06C0BF0D2
:1030B00059FE049B696C9864E06C0BF053FE049B12
:1030C000E96DD864206D0BF04DFE049B696F1865A7
:1030D000606D0BF047FE8C25049A059B5065A06D32
:1030E00059590BF03FFEA423049A9065059AE06DB0
:1030F000D1580BF037FE049B059AD865116B206EF2
:103100000BF030FE049B059A1866916C606E0BF014
:1031100029FE049B059A5866A06E116E0BF022FEE4
:10312000049B059A9866E06E916F0BF01BFE049B62
:10313000059AD8669023206FD1580BF013FE049B9C
:10314000059A1867A823606FD1580BF00BFE049BFB
:10315000059A5867A16F506B0BF004FE049B059A0B
:103160009867E16FD06C0BF0FDFD4146049B059A1A
:10317000D8676158506E0BF0F5FD4146049B059AE7
:103180005850E159D06F0BF0EDFD049BD8519423BA
:10319000059FA159F8580BF0E5FD049B9851AC230D
:1031A0006159F8580BF0DEFD049B585199239B00A0
:1031B0009D44F0BCBB46B246A946A046F0BDC04601
:1031C000F0B5DE4657464E4645460400E0B5436836
:1031D00087B05800A3684008590049080BF0C2FDA9
:1031E0002368590049080BF0BDFD2369051C5800F0
:1031F00063694008590049080BF0B4FDE3685900C1
:1032000049080BF0AFFD011C281C0BF0ABFDE36976
:10321000051C5800236A4008590049080BF0A2FD1C
:10322000A369590049080BF09DFDA36A061C5800CC
:10323000E36A4008590049080BF094FD636A59009D
:1032400049080BF08FFD011C301C0BF08BFD636BEC
:10325000071C5800A36B4008590049080BF082FD79
:10326000236B590049080BF07DFD236C061C5800A8
:10327000636C4008590049080BF074FDE36B59007A
:1032800049080BF06FFD011C301C0BF06BFD061C98
:10329000011C381C0BF0B4FD002800D13E1C311C71
:1032A000281C0BF0ADFD002800D12E1CE36C58004B
:1032B000236D4008590049080BF054FDA36C5900D8
:1032C00049080BF04FFDA36D051C5800E36D400845
:1032D000590049080BF046FD636D590049080BF091
:1032E00041FD011C281C0BF03DFD636E071C5800BE
:1032F000A36E4008590049080BF034FD236E5900B5
:1033000049080BF02FFD236F051C5800636F400820
:10331000590049080BF026FDE36E590049080BF0EF
:1033200021FD011C281C0BF01DFDE36F8046580099
:103330008023E1584008490049080BF013FDA36FB2
:10334000590049080BF00EFD8823051CE058043392
:10335000E15840004900490840080BF003FD842370
:10336000E158490049080BF0FDFC011C281C0BF03A
:10337000F9FC051C011C40460BF042FD002800D161
:103380004546291C381C0BF03BFD002800D13D1C94
:10339000291C301C0BF034FD002800D1351CC02343
:1033A0002100E55001AABA3B02A8A8310493029477
:1033B000FDF7F4F90121C422019B98260B405B42E2
:1033C0008B430133A354343A9246002250469C2743
:1033D00022509432A1509346923AA2510132E251C6
:1033E0009D32944660469C3A2250A03291469F3AC4
:1033F00090464A4640462300A05048461832A258FC
:10340000903392009A181568255040461060604627
:10341000B8222058A2588046604692009A18156833
:10342000255040461060B422E059A25884469200CC
:103430009A1810685D46E05160461060B022A258AC
:10344000A75992009A181068A0511760AC225846EC
:10345000A258265892009A18106860511660A82247
:10346000A258554692009B1852461868A2586051BF
:103470001A60C523E15407B0F0BCBB46B246A9466A
:10348000A046F0BDC023002210B5C2500022043374
:10349000C2520B68040003604B6843608B68836012
:1034A000CB68C3600B6903614B6943618B698361BE
:1034B000CB69C3610B6A03624B6A43628B6A8362A6
:1034C000CB6AC3620B6B03634B6B43638B6B83638E
:1034D000CB6BC3630B6C03644B6C43648B6C836476
:1034E000CB6CC3640B6D03654B6D43658B6D83655E
:1034F000CB6DC3650B6E03664B6E43668B6E836646
:10350000CB6EC3660B6F03674B6F43678B6F83672D
:10351000CB6FC3678023CA58C2500433CA58C25005
:103520000433CA58C2500433CA58C250FFF748FE89
:10353000200010BDF0B5DE464E4645465746E0B584
:10354000214C9146A5443AAA94460A0031931F4B58
:103550003B9063441B091B013A919846D3AB13CAB5
:1035600013C313CA13C31268D3A91A60184B194A9C
:103570001B6847A80493184B47AC1B680193174B73
:103580001B6805930093049BFEF786FF47ABD3931C
:103590004B46D49347ABD5933AAA832394468620CF
:1035A0001B0163441B68C0004044A2AAD3A9D69360
:1035B0000990FFF72BF96BAB089343460A934B46F0
:1035C0003094A1461C000BE014F7FFFF47030000F6
:1035D000802003200AE81C41782003207C2003205F
:1035E0004B464E461B68B76F0793089B494640CB36
:1035F00048464A460893A823896C006E9569126B69
:1036000005910690E158301C04920BF0C2FB8C230C
:103610008246E158381C0BF0BCFB011C50460BF0F5
:10362000A1FB216F824606980BF0B3FB616D8346C8
:1036300005980BF0AEFB011C58460BF093FB011CE8
:1036400050460BF08FFBA16B824604980BF0A1FB58
:10365000E1698346281C0BF09CFB011C58460BF0CB
:1036600081FB2168834607980BF093FB011C5846A9
:103670000BF078FB011C50460BF074FB43461860BE
:10368000AC23301CE1580BF084FB90238246E158B8
:10369000381C0BF07EFB011C50460BF063FB616F86
:1036A000824606980BF075FBA16D834605980BF0DA
:1036B00070FB011C58460BF055FB011C50460BF0EB
:1036C00051FBE16B824604980BF063FB216A834651
:1036D000281C0BF05EFB011C58460BF043FB616895
:1036E000834607980BF055FB011C58460BF03AFB3C
:1036F000011C50460BF036FB43465860B023301C8B
:10370000E1580BF046FB94238246E158381C0BF03D
:1037100040FB011C50460BF025FBA16F824606982A
:103720000BF037FBE16D834605980BF032FB011C73
:1037300058460BF017FB011C50460BF013FB216C95
:10374000824604980BF025FB616A8346281C0BF027
:1037500020FB011C58460BF005FBA1688346079827
:103760000BF017FB011C58460BF0FCFA011C5046ED
:103770000BF0F8FA43469860B423301CE1580BF084
:1037800008FB98238246E158381C0BF002FB011C11
:1037900050460BF0E7FAE16F824606980BF0F9FA13
:1037A000216E834605980BF0F4FA011C58460BF085
:1037B000D9FA011C50460BF0D5FA616C8246049888
:1037C0000BF0E7FAA16A8346281C0BF0E2FA011C11
:1037D00058460BF0C7FAE168834607980BF0D9FA10
:1037E000011C58460BF0BEFA011C50460BF0BAFA09
:1037F0004346D860B823301CE1580BF0CAFA9C232A
:103800008246E158381C0BF0C4FA011C50460BF0FC
:10381000A9FA80238246E15806980BF0BAFA616E45
:10382000834605980BF0B5FA011C58460BF09AFA3E
:10383000011C50460BF096FAA16C824604980BF0DE
:10384000A8FAE16A8346281C0BF0A3FA011C58462B
:103850000BF088FA2169834607980BF09AFA011C4D
:1038600058460BF07FFA011C50460BF07BFA43469A
:103870001861BC23301CE1580BF08BFAA023824660
:10388000E158381C0BF085FA011C50460BF06AFA1F
:1038900084238246E15806980BF07BFAA16E83469A
:1038A00005980BF076FA011C58460BF05BFA011CE8
:1038B00050460BF057FAE16C824604980BF069FA17
:1038C000216B8346281C0BF064FA011C58460BF050
:1038D00049FA6169834607980BF05BFA011C584668
:1038E0000BF040FA011C50460BF03CFA4346E16EE7
:1038F000586105980BF04DFA88238246E1580698E6
:103900000BF047FA011C50460BF02CFAA423824618
:10391000E158381C0BF03DFAC023071CE158301C5D
:103920000BF037FA011C381C0BF01CFA011C504636
:103930000BF018FA616B061C281C0BF02AFA216D9B
:10394000051C04980BF025FA011C281C0BF00AFA40
:10395000A169051C07980BF01CFA011C281C0BF030
:1039600001FA011C301C0BF0FDF943469861042359
:103970009C461833E1449C464DABE044994500D049
:103980002EE60A9BA146D8249846A427A4004444C6
:10399000BF00474420000999FFF774FD21009022E1
:1039A0003800C8240BF07CFBFC21A40044448900AF
:1039B0004144182220000BF073FBCE2081218000AF
:1039C000C9004144182240440BF06AFB8422D423EE
:1039D000D200424412689B0043441A60D523874AB0
:1039E0004546424412889B004344FE211A8000232E
:1039F0002268B0359200AA1889051160936113639B
:103A0000936413669367C922920042441268444645
:103A10009200AA181360916113639364136693670D
:103A2000CA2292004244126806269200AA18136025
:103A300093611163936413669367CB2292004244AF
:103A4000126806209200AA181360936113639164B0
:103A500013669367CC229200424412689200AA181F
:103A6000136093611363936411669367CD22920090
:103A7000424412689200AA1813609361136393641E
:103A80001366A8235B009B46916742465946E4189B
:103A900020334344A660E6602661535080229200A2
:103AA00042444B396260924604933A0006230294E2
:103AB000FF3901960095FDF7DFFA42465946049B0F
:103AC000A660E6602661535053464B3963603A0066
:103AD00006230294062001960095FF39FDF7D0FDDC
:103AE00043461B688C2206934346DB69D3AC07939D
:103AF00043469B6B089343465B6D099343461B6F9C
:103B00000A9343469B5804320B9343465B680C93DD
:103B100043461B6A0D934346DB6B0E9343469B6DF6
:103B20000F9343465B6F109343469B5804321193A7
:103B300043469B68129343465B6A139343461B6C50
:103B400014934346DB6D159343469B6F1693434690
:103B50009B58043217934346DB68189343469B6A8D
:103B6000199343465B6C1A9343461B6E1B93434663
:103B7000DB6F1C9343469B58183A1D9343461B69C1
:103B80001E934346DB6A1F9343469B6C2093434638
:103B90005B6E219343469B581C32229343469B58AD
:103BA000183A239343465B69249343461B6B259342
:103BB0004346DB6C269343469B6E279343469B58B4
:103BC0001C32289343469B58183A299343469B69D5
:103BD0002A9343465B6B2B9343461B6D2C934346C2
:103BE000DB6E2D9343469B581C322E9343469B58C5
:103BF000A8462F934B46329302E0C04624040000AF
:103C000043461F685B6842469946434641469B6867
:103C1000D2680E694D6907984946049305920BF0E6
:103C2000B8F80499824608980BF0B3F8011C504686
:103C30000BF098F8391C824606980BF0AAF8011C84
:103C400050460BF08FF8311C82460A980BF0A1F811
:103C5000291C83460B980BF09CF8011C58460BF06E
:103C600081F80599834609980BF093F8011C584692
:103C70000BF078F8011C50460BF074F849462060B0
:103C80000D980BF086F8049982460E980BF081F897
:103C9000011C50460BF066F8391C82460C980BF05C
:103CA00078F8011C50460BF05DF8311C82461098E4
:103CB0000BF06FF8291C834611980BF06AF8011C71
:103CC00058460BF04FF8059983460F980BF061F8B2
:103CD000011C58460BF046F8011C50460BF042F808
:103CE0004946606013980BF054F804998246149882
:103CF0000BF04FF8011C50460BF034F8391C82468B
:103D000012980BF046F8011C50460BF02BF8311CB2
:103D1000824616980BF03DF8291C834617980BF045
:103D200038F8011C58460BF01DF805998346159884
:103D30000BF02FF8011C58460BF014F8011C5046EC
:103D40000BF010F84946A06019980BF022F804997E
:103D500082461A980BF01DF8011C50460BF002F831
:103D6000391C824618980BF014F8011C50460AF0D2
:103D7000F9FF311C82461C980BF00BF8291C834676
:103D80001D980BF006F8011C58460AF0EBFF059948
:103D900083461B980AF0FDFF011C58460AF0E2FF1B
:103DA000011C50460AF0DEFF4946E0601F980AF009
:103DB000F0FF0499824620980AF0EBFF011C504660
:103DC0000AF0D0FF391C82461E980AF0E2FF011C5F
:103DD00050460AF0C7FF311C824622980AF0D9FFEC
:103DE000291C834623980AF0D4FF011C58460AF088
:103DF000B9FF0599834621980AF0CBFF011C58466C
:103E00000AF0B0FF011C50460AF0ACFF49462061A1
:103E100025980AF0BEFF0499824626980AF0B9FF59
:103E2000011C50460AF09EFF391C824624980AF075
:103E3000B0FF011C50460AF095FF311C82462898BD
:103E40000AF0A7FF291C834629980AF0A2FF011C4B
:103E500058460AF087FF0599834627980AF099FF8C
:103E6000011C58460AF07EFF011C50460AF07AFFFA
:103E7000494660612B980AF08CFF049981462C9882
:103E80000AF087FF011C48460AF06CFF391C814686
:103E90002A980AF07EFF011C48460AF063FF311C95
:103EA000071C2E980AF075FF291C061C2F980AF093
:103EB00070FF011C301C0AF055FF0599051C2D9858
:103EC0000AF067FF011C281C0AF04CFF011C381C7B
:103ED0000AF048FF18239C46A061FDAB1C34E04467
:103EE000A34200D08CE6329BD49A9946D39BD599B5
:103EF000D69CD79DD89ED99F06930792DA9BDB9AD2
:103F000008910994DC99DD9C0A950B96DE9DDF9E55
:103F10000C970D93E09FE19B0E92E29A0F91109403
:103F200011951296139714931592E399E49CE59DCD
:103F3000E69EE79FE89BE99A16911794EA99EB9C15
:103F400018951996EC9DED9E1A971B93EE9FEF9B8B
:103F50001C921D91F09AF1991E94F29C2096219743
:103F600022932392249125941F95F39DF49EF59F0F
:103F7000F79AF69BF899F99C26952796FA9DFB9E51
:103F80002897FC9F2A923A9A29932B912C942D954D
:103F90002E962F97D3AB32CA32C332CA32C31168BE
:103FA000D3AC1960FD49FE4B09681B680191FD49BE
:103FB000FD4A09682000009141A9FDF7CDFF319F1E
:103FC000419938680AF0CBFE4299834678680AF036
:103FD000C6FE43998246B8680AF0C1FE4499041CA3
:103FE000F8680AF0BCFE4599051C38690AF0B7FE6E
:103FF0004699061C78690AF0B2FE071C011C2A9833
:104000000AF0C7FE311C804623980AF0C2FE011C4C
:1040100040460AF0A7FE291C80461C980AF0B9FE0B
:10402000011C40460AF09EFE211C804615980AF0AD
:10403000B0FE514604900E980AF0ABFE011C0498A5
:104040000AF090FE5946049007980AF0A2FE011C5F
:1040500004980AF087FE011C40460AF083FE3A9A53
:1040600051680AF07FFE391C04902B980AF091FEEB
:10407000311C804624980AF08CFE011C40460AF050
:1040800071FE291C80461D980AF083FE011C4046E3
:104090000AF068FE211C804616980AF07AFE514606
:1040A00005900F980AF075FE011C05980AF05AFE5B
:1040B0005946059008980AF06CFE011C05980AF014
:1040C00051FE011C40460AF04DFE3A9A91680AF0F2
:1040D00049FE391C05902C980AF05BFE311C804685
:1040E00025980AF056FE011C40460AF03BFE291CAA
:1040F00080461E980AF04DFE011C40460AF032FE32
:10410000211C804617980AF044FE514631901098C1
:104110000AF03FFE011C31980AF024FE5946319006
:1041200009980AF036FE011C31980AF01BFE011CAA
:1041300040460AF017FE3A9AD1680AF013FE391C7D
:1041400031902D980AF025FE311C804626980AF001
:1041500020FE011C40460AF005FE291C80461F98DF
:104160000AF017FE011C40460AF0FCFD211C8046A7
:1041700018980AF00EFE5146329011980AF009FE86
:10418000011C32980AF0EEFD594632900A980AF066
:1041900000FE011C32980AF0E5FD011C40460AF0C1
:1041A000E1FD3A9A11690AF0DDFD391C32902E9832
:1041B0000AF0EFFD311C804627980AF0EAFD011C49
:1041C00040460AF0CFFD291C804620980AF0E1FD08
:1041D000011C40460AF0C6FD211C804619980AF0D1
:1041E000D8FD5146339012980AF0D3FD011C339844
:1041F0000AF0B8FD594633900B980AF0CAFD011C2D
:1042000033980AF0AFFD011C40460AF0ABFD3A9A24
:1042100051690AF0A7FD5146339013980AF0B9FD91
:10422000211C80461A980AF0B4FD011C40460AF091
:1042300099FD594680460C980AF0ABFD011C40469A
:104240000AF090FD311C804628980AF0A2FD391C26
:1042500034902F980AF09DFD011C34980AF082FDDD
:10426000291C349021980AF094FD011C34980AF01E
:1042700079FD011C40460AF075FD3A9A91690AF0F1
:1042800071FD391C804629980AF083FD311C071CFA
:1042900022980AF07EFD011C381C0AF063FD291CDF
:1042A000061C1B980AF075FD011C301C0AF05AFD13
:1042B000211C051C14980AF06CFD5146041C0D9835
:1042C0000AF067FD011C201C0AF04CFD5946041C35
:1042D00006980AF05EFD011C201C0AF043FD011C3B
:1042E000281C0AF03FFD3A9AD3AC11680AF03AFD57
:1042F0003B9B049A18605A60059A9A60319ADA607A
:10430000329A1A61339A5A6142469A614B461B6847
:104310004A46A2934B465B68A3934B469B68A49383
:104320004B46DB68A5934B461B69A6934B465B69DE
:10433000A7934B469B69A8934B46DB69A9934B46D1
:104340001B6AAA934B465B6AAB934B469B6AAC9342
:104350004B46DB6AAD934B461B6BAE934B465B6B98
:10436000AF934B469B6BB0934B46DB6BB1934B4685
:104370001B6CB2934B465B6CB3934B469B6CB493F4
:104380004B46DB6CB5934B461B6DB6934B465B6D52
:10439000B7934B469B6DB8934B4607E078200320BC
:1043A000802003207C2003200AE81C41DB6DB993A8
:1043B0004B461B6EBA934B465B6EBB934B469B6E54
:1043C000BC934B46DB6EBD934B461B6FBE934B4677
:1043D0005B6FBF934B469B6FC0934B46DB6FC193A4
:1043E0008023D358C2938423D358C3938823D358AC
:1043F000C4938C23D358C5939023D358C693942346
:10440000D358C7939823D358C8939C23D358C993A0
:10441000A023D358CA93A423D358CB93A823D3580B
:10442000CC93AC23D358CD93B023D358CE93B4239D
:10443000D358CF93B823D358D093BC23D358D19318
:10444000C023D358D293309B3092984643461F687E
:104450005B6842469946434641469B68D2680E696E
:104460004D690D984946049305920AF092FC04990F
:10447000824614980AF08DFC011C50460AF072FC2A
:10448000391C824606980AF084FC011C50460AF04A
:1044900069FC311C824622980AF07BFC291C834669
:1044A00029980AF076FC011C58460AF05BFC059935
:1044B00083461B980AF06DFC011C58460AF052FC1A
:1044C000011C50460AF04EFC494620600E980AF046
:1044D00060FC0499824615980AF05BFC011C50466A
:1044E0000AF040FC391C824607980AF052FC011C75
:1044F00050460AF037FC311C824623980AF049FCEA
:10450000291C83462A980AF044FC011C58460AF0EC
:1045100029FC059983461C980AF03BFC011C58466F
:104520000AF020FC011C50460AF01CFC4946606061
:104530000F980AF02EFC0499824616980AF029FC7E
:10454000011C50460AF00EFC391C824608980AF0FD
:1045500020FC011C50460AF005FC311C82462498C0
:104560000AF017FC291C83462B980AF012FC011C48
:1045700058460AF0F7FB059983461D980AF009FC96
:10458000011C58460AF0EEFB011C50460AF0EAFBFB
:104590004946A06010980AF0FCFB049982461798DF
:1045A0000AF0F7FB011C50460AF0DCFB391C82467E
:1045B00009980AF0EEFB011C50460AF0D3FB311CAF
:1045C000824625980AF0E5FB291C83462C980AF0C0
:1045D000E0FB011C58460AF0C5FB059983461E986E
:1045E0000AF0D7FB011C58460AF0BCFB011C5046E0
:1045F0000AF0B8FB4946E06011980AF0CAFB04993A
:10460000824618980AF0C5FB011C50460AF0AAFB26
:10461000391C82460A980AF0BCFB011C50460AF07D
:10462000A1FB311C824626980AF0B3FB291C834665
:104630002D980AF0AEFB011C58460AF093FB059931
:1046400083461F980AF0A5FB011C58460AF08AFB16
:10465000011C50460AF086FB4946206112980AF078
:1046600098FB0499824619980AF093FB011C504666
:104670000AF078FB391C82460B980AF08AFB011C71
:1046800050460AF06FFB311C824627980AF081FBE6
:10469000291C83462E980AF07CFB011C58460AF020
:1046A00061FB0599834620980AF073FB011C58466C
:1046B0000AF058FB011C50460AF054FB4946606161
:1046C00013980AF066FB049981461A980AF061FB78
:1046D000011C48460AF046FB391C81460C980AF03A
:1046E00058FB011C48460AF03DFB311C071C28986A
:1046F0000AF04FFB291C061C2F980AF04AFB011CEC
:10470000301C0AF02FFB0599051C21980AF041FB8B
:10471000011C281C0AF026FB011C381C0AF022FB95
:1047200018239C46FFABA06114331C34E044A34221
:1047300000D08BE6309BA2AD99463C93C4234C46F7
:10474000C8464B44089307944246D26843464146C4
:10475000914642469E694C68096892685F691B6988
:104760000491301CFD99069305920AF012FBF6990C
:104770008246381C0AF00DFB011C50460AF0F2FA82
:10478000EF99824606980AF004FBE899834648466A
:104790000AF0FFFA011C58460AF0E4FA011C5046E0
:1047A0000AF0E0FAE199824605980AF0F2FADA99FD
:1047B0008346201C0AF0EDFA011C58460AF0D2FA92
:1047C000D399834604980AF0E4FA011C58460AF08B
:1047D000C9FA011C50460AF0C5FA011C28680AF003
:1047E000BEFA2860FE99301C0AF0D3FAF799824687
:1047F000381C0AF0CEFA011C50460AF0B3FAF099C0
:10480000824606980AF0C5FAE999834648460AF0B6
:10481000C0FA011C58460AF0A5FA011C50460AF0DD
:10482000A1FAE299824605980AF0B3FADB99834629
:10483000201C0AF0AEFA011C58460AF093FAD499EB
:10484000834604980AF0A5FA011C58460AF08AFA31
:10485000011C50460AF086FA011C68680AF07FFACB
:10486000FF996860301C0AF094FAF8998246381C67
:104870000AF08FFA011C50460AF074FAF199824648
:1048800006980AF086FAEA99834648460AF081FAC1
:10489000011C58460AF066FA011C50460AF062FAFA
:1048A000E399824605980AF074FADC998346201C45
:1048B0000AF06FFA011C58460AF054FAD59983465B
:1048C00004980AF066FA011C58460AF04BFA011CDB
:1048D00050460AF047FA011CA8680AF040FAFFABFC
:1048E0005968A860301C04330AF053FAF9998246DB
:1048F000381C0AF04EFA011C50460AF033FAF299BD
:10490000824606980AF045FAEB99834648460AF033
:1049100040FA011C58460AF025FA011C50460AF0DC
:1049200021FAE499824605980AF033FADD99834624
:10493000201C0AF02EFA011C58460AF013FAD699E8
:10494000834604980AF025FA011C58460AF00AFA30
:10495000011C50460AF006FA011CE8680AF0FFF94B
:10496000FFAB9968E860301C08330AF012FAFA9934
:104970008246381C0AF00DFA011C50460AF0F2F982
:10498000F399824606980AF004FAEC998346484661
:104990000AF0FFF9011C58460AF0E4F9011C5046E0
:1049A0000AF0E0F9E599824605980AF0F2F9DE99F5
:1049B0008346201C0AF0EDF9011C58460AF0D2F992
:1049C000D799834604980AF0E4F9011C58460AF086
:1049D000C9F9011C50460AF0C5F9011C28690AF002
:1049E000BEF9FFABD9682861301C0C330AF0D1F94D
:1049F000FB998246381C0AF0CCF9011C50460AF09B
:104A0000B1F9F499824606980AF0C3F9ED99834604
:104A100048460AF0BEF9011C58460AF0A3F9011CE9
:104A200050460AF09FF9E699824605980AF0B1F9D6
:104A3000DF998346201C0AF0ACF9011C58460AF0A5
:104A400091F9D899834604980AF0A3F9011C5846B5
:104A50000AF088F9011C50460AF084F9011C6869C3
:104A60000AF07DF9EE99686148460AF092F9F599E5
:104A7000814606980AF08DF9011C48460AF072F941
:104A8000FC998146381C0AF084F9FFAB1969071CB0
:104A9000301C10330AF07DF9011C381C0AF062F951
:104AA000011C48460AF05EF9E099061C201C0AF039
:104AB00070F9E799041C05980AF06BF9011C201C99
:104AC0000AF050F9D999041C04980AF062F9011C03
:104AD000201C0AF047F9011C301C0AF043F9011CA4
:104AE000A8690AF03CF91C239C46089BE044A86195
:104AF0001C35984500D027E6079BA29A99461A6074
:104B0000A39A5A60A49A9A60A59ADA60A69A1A6142
:104B1000A79A5A61A89A9A61A99ADA61AA9A1A621E
:104B2000AB9A5A62AC9A9A62AD9ADA62AE9A1A63FA
:104B3000AF9A5A63B09A9A63B19ADA63B29A1A64D6
:104B4000B39A5A64B49A9A64B59ADA64B69A1A65B2
:104B5000B79A5A65B89A9A65B99ADA65BA9A1A668E
:104B6000BB9A5A66BC9A9A66BD9ADA66BE9A1A676A
:104B7000BF9A5A67C09A9A67C19ADA674A468023F1
:104B8000C299D150C3990433D150C4990433D15040
:104B9000C5990433D150C6990433D150C799043311
:104BA000D150C8990433D150C9990433D150CA990E
:104BB0000433D150CB990433D150CC990433D15024
:104BC000CD990433D150CE990433D150CF990433C9
:104BD000D150D0990433D150D1990433D150D299C6
:104BE0000433D1503AAA9446504BA2AA63441B689E
:104BF00013CB13C24E4BD3AC63441B6807CB07C423
:104C00003A9B3B9D00934B4B28006344A2A91B6831
:104C1000D3AAFDF77FF82B00D3AA23CB23C213CB53
:104C200013C23AA91B688C4613603EAA11003F4B81
:104C300063441B6831CB31C13D4BA2A963441B685F
:104C400031CB31C13B4BD3A963441B6871A800939E
:104C5000A2ABFDF7C5FAD3AB1C000793719BA0462E
:104C60000993789B10937F9B1793869B1E938D9B34
:104C70002593949B2C939B9B3393729B0A93799BD4
:104C80001193809B1893879B1F938E9B2693959BD4
:104C90002D939C9B3493739B0B937A9B1293819BD4
:104CA0001993889B20938F9B2793969B2E939D9B74
:104CB0003593749B0C937B9B1393829B1A93899BD4
:104CC0002193909B2893979B2F939E9B3693759B44
:104CD0000D937C9B1493839B1B938A9B2293919BA4
:104CE0002993989B30939F9B3793769B0E937D9B44
:104CF0001593849B1C938B9B2393929B2A93999B44
:104D00003193A09B3893779B0F937E9B1693859B43
:104D10001D938C9B2493939B2B939A9B3293A19BE3
:104D200039934B463D933C9B994605E0280800008B
:104D3000380800003C080000484649464A464B46B1
:104D4000866909691B6855689468D2684769069145
:104D50003398311C059204930AF01BF8391C8246E3
:104D60002C980AF016F8011C504609F0FBFF069932
:104D7000824625980AF00DF8059983461E980AF098
:104D800008F8011C584609F0EDFF011C504609F0D7
:104D9000E9FF211C8246179809F0FBFF291C834676
:104DA000109809F0F6FF011C584609F0DBFF049942
:104DB0008346099809F0EDFF011C584609F0D2FF1F
:104DC000011C504609F0CEFF4346311C1860349850
:104DD00009F0DFFF391C82462D9809F0DAFF011C2B
:104DE000504609F0BFFF06998246269809F0D1FF88
:104DF000059983461F9809F0CCFF011C584609F01D
:104E0000B1FF011C504609F0ADFF211C82461898E5
:104E100009F0BFFF291C8346119809F0BAFF011C55
:104E2000584609F09FFF049983460A9809F0B1FF9C
:104E3000011C584609F096FF011C504609F092FFEC
:104E40004346311C5860359809F0A3FF391C82464F
:104E50002E9809F09EFF011C504609F083FF069929
:104E60008246279809F095FF05998346209809F016
:104E700090FF011C584609F075FF011C504609F0CF
:104E800071FF211C8246199809F083FF291C834673
:104E9000129809F07EFF011C584609F063FF04993F
:104EA00083460B9809F075FF011C584609F05AFF1C
:104EB000011C504609F056FF4346311C9860369855
:104EC00009F067FF391C82462F9809F062FF011C28
:104ED000504609F047FF06998246289809F059FF85
:104EE00005998346219809F054FF011C584609F0A2
:104EF00039FF011C504609F035FF211C82461A98E3
:104F000009F047FF291C8346139809F042FF011C52
:104F1000584609F027FF049983460C9809F039FF99
:104F2000011C584609F01EFF011C504609F01AFFEB
:104F30004346311CD860379809F02BFF391C824654
:104F4000309809F026FF011C504609F00BFF069926
:104F50008246299809F01DFF05998346229809F099
:104F600018FF011C584609F0FDFE011C504609F0CF
:104F7000F9FE211C82461B9809F00BFF291C834671
:104F8000149809F006FF011C584609F0EBFE04993D
:104F900083460D9809F0FDFE011C584609F0E2FE1B
:104FA000011C504609F0DEFE4346311C186138985A
:104FB00009F0EFFE391C8246319809F0EAFE011C27
:104FC000504609F0CFFE069982462A9809F0E1FE84
:104FD00005998346239809F0DCFE011C584609F028
:104FE000C1FE011C504609F0BDFE211C82461C98E2
:104FF00009F0CFFE291C8346159809F0CAFE011C52
:10500000584609F0AFFE049983460E9809F0C1FE98
:10501000011C584609F0A6FE011C504609F0A2FEEC
:10502000434605995861249809F0B3FE06998246D3
:105030002B9809F0AEFE011C504609F093FE391C76
:105040008246329809F0A5FE311C071C399809F0F8
:10505000A0FE011C381C09F085FE011C504609F019
:1050600081FE291C061C169809F093FE211C051CC4
:105070001D9809F08EFE011C281C09F073FE04998E
:10508000041C0F9809F085FE011C201C09F06AFE23
:10509000011C301C09F066FE434698611C239C46A7
:1050A000089BE144E044994500D045E6A2ACA04607
:1050B000F6AB0693DAAB3C940893079B33981A68D7
:1050C000596D0492069A8946D669196FDD69059172
:1050D000311C9C6B176809F05CFE391C82462C98C9
:1050E00009F057FE011C504609F03CFE0599824626
:1050F000259809F04EFE494683461E9809F049FE60
:10510000011C584609F02EFE011C504609F02AFEEB
:10511000211C8246179809F03CFE291C83461098F2
:1051200009F037FE011C584609F01CFE049983461D
:10513000099809F02EFE011C584609F013FE011CC7
:10514000504609F00FFE41460860311C349809F0C2
:1051500020FE391C82462D9809F01BFE011C50468A
:1051600009F000FE05998246269809F012FE49468C
:1051700083461F9809F00DFE011C584609F0F2FD08
:10518000011C504609F0EEFD211C8246189809F0DA
:1051900000FE291C8346119809F0FBFD011C5846AE
:1051A00009F0E0FD049983460A9809F0F2FD011C1C
:1051B000584609F0D7FD011C504609F0D3FD414681
:1051C0004860311C359809F0E4FD391C82462E9860
:1051D00009F0DFFD011C504609F0C4FD0599824627
:1051E000279809F0D6FD49468346209809F0D1FD5D
:1051F000011C584609F0B6FD011C504609F0B2FDED
:10520000211C8246199809F0C4FD291C8346129876
:1052100009F0BFFD011C584609F0A4FD049983461E
:105220000B9809F0B6FD011C584609F09BFD011CC6
:10523000504609F097FD41468860311C369809F0C8
:10524000A8FD391C82462F9809F0A3FD011C504689
:1052500009F088FD05998246289809F09AFD49468B
:105260008346219809F095FD011C584609F07AFD06
:10527000011C504609F076FD211C82461A9809F05F
:1052800088FD291C8346139809F083FD011C5846AC
:1052900009F068FD049983460C9809F07AFD011C19
:1052A000584609F05FFD011C504609F05BFD414680
:1052B000C860311C379809F06CFD391C8246309863
:1052C00009F067FD011C504609F04CFD0599824626
:1052D000299809F05EFD49468346229809F059FD58
:1052E000011C584609F03EFD011C504609F03AFDEC
:1052F000211C82461B9809F04CFD291C83461498FA
:1053000009F047FD011C584609F02CFD049983461D
:105310000D9809F03EFD011C584609F023FD011CC3
:10532000504609F01FFD41460861311C389809F0CC
:1053300030FD391C8246319809F02BFD011C504686
:1053400009F010FD059982462A9809F022FD494688
:105350008346239809F01DFD011C584609F002FD03
:10536000011C504609F0FEFC211C82461C9809F0E5
:1053700010FD291C8346159809F00BFD011C5846A9
:1053800009F0F0FC049983460E9809F002FD011C17
:10539000584609F0E7FC011C504609F0E3FC43467F
:1053A00049465861249809F0F4FC059981462B98E8
:1053B00009F0EFFC011C484609F0D4FC391C814679
:1053C000329809F0E6FC311C071C399809F0E1FC21
:1053D000011C381C09F0C6FC011C484609F0C2FC3F
:1053E000291C061C169809F0D4FC211C051C1D98CC
:1053F00009F0CFFC011C281C09F0B4FC0499041C22
:105400000F9809F0C6FC011C201C09F0ABFC011C24
:10541000301C09F0A7FC414688611C218C46069A85
:10542000079B04320692089A04330793E0449A4299
:1054300000D042E63AAA94463D9B764A9946754B7F
:10544000624463441B6812681B68D3AC0793714BBA
:1054500063441B68DB6908936E4B63441B689B6B5A
:1054600009936C4B63441B685B6D0A93694B6344FF
:105470001B681B6F0B938C23D358664A0C93654BA8
:10548000624463441B685B680D93624B63441B6812
:105490001B6A0E935F4B63441B68DB6B0F935D4B82
:1054A00063441B689B6D10935A4B63441B685B6F8E
:1054B000126811939023D358564A1293554B624465
:1054C00063441B6812689B681393524B63441B68C8
:1054D0005B6A14934F4B63441B681B6C15934D4BD5
:1054E00063441B68DB6D16934A4B63441B689B6FD8
:1054F00017939423D358474A1893464B6244634406
:105500001B68DB681993434B63441B689B6A1A93BF
:10551000404B63441B685B6C1B933E4B63441B68AE
:1055200012681B6E1C933B4B63441B68DB6F1D931F
:105530009823D358374A1E93364B624463441B6802
:1055400012681B691F93334B63441B68DB6A20930B
:10555000304B63441B689B6C21932E4B63441B6848
:105560005B6E22938023D3582A4A23939C23624460
:105570001268D358274A2493264B624463441B681D
:105580005B692593234B63441B681B6B2693214B5C
:10559000126863441B68DB6C27931E4B63441B68D3
:1055A0009B6E28938423D3581A4A2993A0236244DC
:1055B0001268D358174A2A93164B624463441B68F7
:1055C00012689B692B93134B63441B685B6B2C9392
:1055D000104B63441B681B6D2D930E4B63441B687B
:1055E000DB6E2E938823D3580A4A2F93A423624458
:1055F0001268D35822003093074B63441B689846C7
:10560000D3AB06939023434431934B464446904694
:10561000329303E0340800002C0800006368E2685D
:105620009946A368089948460493059209F0B1FB8E
:1056300009998246049809F0ACFB011C504609F018
:1056400091FB276882460799381C09F0A2FB011CD0
:10565000504609F087FB266982460B99301C09F0F9
:1056600098FB656983460C99281C09F092FB011C84
:10567000584609F077FB0A998346059809F089FB9B
:10568000011C584609F06EFB011C504609F06AFBEC
:10569000414608600E99484609F07BFB0F99824607
:1056A000049809F076FB011C504609F05BFB0D994C
:1056B0008246381C09F06DFB011C504609F052FB74
:1056C00011998246301C09F064FB12998346281C0C
:1056D00009F05FFB011C584609F044FB1099834612
:1056E000059809F056FB011C584609F03BFB011CCC
:1056F000504609F037FB414648601499484609F086
:1057000048FB15998246049809F043FB011C50465A
:1057100009F028FB13998246381C09F03AFB011C5A
:10572000504609F01FFB17998246301C09F031FBE7
:1057300018998346281C09F02CFB011C584609F0D7
:1057400011FB16998346059809F023FB011C584666
:1057500009F008FB011C504609F004FB4146886033
:105760001A99484609F015FB1B998246049809F0DE
:1057700010FB011C504609F0F5FA19998246381CB5
:1057800009F007FB011C504609F0ECFA1D9982460E
:10579000301C09F0FEFA1E998346281C09F0F9FA1C
:1057A000011C584609F0DEFA1C998346059809F059
:1057B000F0FA011C584609F0D5FA011C504609F0D0
:1057C000D1FA4146C8602099484609F0E2FA219989
:1057D0008246049809F0DDFA011C504609F0C2FA2D
:1057E0001F998246381C09F0D4FA011C504609F072
:1057F000B9FA23998246301C09F0CBFA24998346E2
:10580000281C09F0C6FA011C584609F0ABFA229987
:105810008346059809F0BDFA011C584609F0A2FA22
:10582000011C504609F09EFA4146086126994846F7
:1058300009F0AFFA27998246049809F0AAFA011CE8
:10584000504609F08FFA25998246381C09F0A1FAD2
:10585000011C504609F086FA29998246301C09F04D
:1058600098FA2A998346281C09F093FA011C584695
:1058700009F078FA28998346059809F08AFA011CFC
:10588000584609F06FFA011C504609F06BFA43467E
:105890002C995861484609F07CFA2D998146049864
:1058A00009F077FA011C484609F05CFA2B99814609
:1058B000381C09F06EFA011C484609F053FA2F997A
:1058C000071C301C09F065FA3099061C281C09F0E9
:1058D00060FA011C301C09F045FA2E99051C059848
:1058E00009F057FA011C281C09F03CFA011C381C6D
:1058F00009F038FA434698611C239C46319B1834C2
:10590000E044A34200D089E6F6AB05933C9CDAABB9
:105910003193069B0899DA691F6891469A6B48464D
:1059200090465A6D1E6F0492059A20CA059209F09E
:1059300030FA09998246404609F02BFA011C50467C
:1059400009F010FA07998246381C09F022FA011C66
:10595000504609F007FA0B998246301C09F019FAF3
:105960000C998346281C09F014FA011C584609F0CA
:10597000F9F90A998346049809F00BFA011C584674
:1059800009F0F0F9011C504609F0ECF9011C2068FF
:1059900009F0E8F90E992060484609F0FAF90F99E4
:1059A0008246404609F0F5F9011C504609F0DAF943
:1059B0000D998246381C09F0ECF9011C504609F09B
:1059C000D1F911998246301C09F0E3F91299834606
:1059D000281C09F0DEF9011C584609F0C3F910999A
:1059E0008346049809F0D5F9011C584609F0BAF924
:1059F000011C504609F0B6F9011C606809F0B2F9C3
:105A000018996060281C09F0C4F917998246301C67
:105A100009F0BFF9011C504609F0A4F91699824615
:105A2000049809F0B6F9011C504609F09BF9149945
:105A30008246484609F0ADF915998346404609F07B
:105A4000A8F9011C584609F08DF913998346381CB2
:105A500009F09FF9011C584609F084F9011C5046D1
:105A600009F080F9011CA06809F07CF91E99A0607A
:105A7000281C09F08EF91D998246301C09F089F91D
:105A8000011C504609F06EF91C998246049809F0F1
:105A900080F9011C504609F065F91B998246404681
:105AA00009F077F91A998346484609F072F9011C02
:105AB000584609F057F919998346381C09F069F9D5
:105AC000011C584609F04EF9011C504609F04AF9EC
:105AD000011CE06809F046F92099E060484609F0A9
