:020000041000EA
:1000000000B5324B212058609868022188439860DF
:10001000D860186158612E4B002199600221596106
:100020000121F02299502B49196001219960352056
:1000300000F044F80222904214D00621196600F024
:1000400034F8196E01211966002018661A6600F04E
:100050002CF8196E196E196E052000F02FF8012189
:100060000842F9D1002199601B49196000215960AB
:100070001A491B48016001219960EB211966A021F2
:10008000196600F012F800219960164914480160C1
:100090000121996001BC002800D000471248134993
:1000A000086003C880F30888084703B5996A0420EC
:1000B0000142FBD001200142F8D103BD02B5186610
:1000C0001866FFF7F2FF186E186E02BD00000240BE
:1000D000000000180000070000035F00212200005C
:1000E000F4000018222000A00001001008ED00E03C
:1000F00000000000000000000000000074B24E7A12
:1001000000200420F7010010C3010010C5010010F9
:10011000C1010010C1010010C1010010C101001097
:10012000C1010010C1010010C1010010C701001081
:10013000C1010010C1010010C9010010CB01001065
:10014000CD010010CD010010CD010010CD01001037
:10015000CD010010CD010010CD010010CD01001027
:10016000CD010010CD010010CD010010CD01001017
:10017000CD010010CD010010CD010010CD01001007
:10018000CD010010CD010010CD010010CD010010F7
:10019000CD010010CD010010CD010010CD010010E7
:1001A000CD010010CD010010CD010010CD010010D7
:1001B000CD010010CD010010CD010010CD010010C7
:1001C00000BE00BE00BE00BE00BE00BEEFF3058054
:1001D000103800BEF2EB8871345B0510545B0510DB
:1001E0003402001090A31AE700201F49086006C8D7
:1001F00081F3088810471D48006800282FD10DA4FE
:100200000ECC002902D000F012F8F9E71849194A7B
:10021000002000E001C19142FCD1174988471749ED
:1002200088471749884700BEFDE701C901C29A42C5
:10023000FBD37047545B0510C0000020E42C002065
:10024000788705100000042000000420788705103E
:10025000001004200010042000000000704709482E
:100260000EF0FEFC0047000008ED00E0000000D0AA
:10027000F02C0020285C032055D4001055030010FA
:1002800089D500105756000006005250ABB360539A
:1002900008B7041006005250861C030218B7041059
:1002A000060052505422A29D24B70410050052505B
:1002B000DE65F46878870510F8B5C0460448054B3C
:1002C00010B5834203D0044B002B00D0984710BDDB
:1002D000E42C0020E42C0020000000000648074920
:1002E000091A8B10C90FC91810B5491003D0044B57
:1002F000002B00D0984710BDE42C0020E42C0020F7
:100300000000000010B5074C2378002B09D1FFF73F
:10031000D5FF054B002B02D0044800E000BF0123AD
:10032000237010BDF83100200000000020B204103E
:10033000054B10B5002B03D00449054800E000BF71
:10034000FFF7CCFF10BDC04600000000FC310020CC
:1003500020B2041070B519200BF092F9D02380223E
:100360001B0692045A6210F0FBFC00F049F807F0FB
:10037000EDF908F0B7FF07F093FC02F005F80AF07A
:100380002BFB00220524144B1A7006F08DFE134D32
:10039000013C2100280010F0D7FCFA2080000BF06F
:1003A0007FFF002CF4D10A2010F02EFB0122002147
:1003B0000B480BF03DFC0B4812F082FE01220A4B69
:1003C0000A4C1A702378012BFCD109F047F92378E5
:1003D000012BFAD0F6E7C0460A5C032020B20410D5
:1003E000145B0320A1980010095C03200E5C03201D
:1003F00010B5024813F08CF910BDC046F43A032042
:10040000092370B586B0059304330493023B03932C
:10041000013B0293023B324D324C0193324B22009E
:100420003249334800932B0006F0FCFA142006F002
:10043000F5FAFA2080000BF033FF2E4E2100320037
:10044000280006F007FD3378682B08D02A4C2000DE
:1004500010F026FBFA2080000BF022FFF7E77378FC
:100460003D2BF3D101222100280006F017FD234E79
:1004700032002100280006F04BFD3378002BF7D125
:1004800001222100280006F0C7FB0121200006F010
:10049000A5FB0321200006F037FB0321280006F00E
:1004A00061FC1321200006F0A1FD1221200006F0BE
:1004B000DBFD0021200006F0B9FD0321200006F03D
:1004C00043FD0221200006F05BFD5521200006F0CF
:1004D00039FB1821280006F0DFFB06B070BDC046CE
:1004E000C42103207C33002040420F009C200020C8
:1004F00094200020C45B032034B20410255C032048
:10050000F0B5C646334C344D344E2200290030003D
:1005100000B506F0B1FC6378DB439B0720D023785D
:100520001B0702D480BCB846F0BD2D4C062200212A
:10053000200010F037F92100300006F06DFC002398
:10054000E05E06F0D7FA274D28600223E05E06F051
:10055000D1FA68600423E05E06F0CCFAA860E1E717
:10056000214B062298461800002110F01BF91F4F5E
:1005700006220021380010F015F94146280006F047
:100580002DFC3900280006F00BFC43460020185EC5
:1005900006F09CFA4346164D28600220185E06F0CD
:1005A00095FA434668600420185E06F08FFAA8604A
:1005B0000023F85E06F094FA0E4D28600223F85EE0
:1005C00006F08EFA68600423F85E06F089FAA860E7
:1005D000A5E7C046285103207C330020C421032016
:1005E000F040032034460320E0400320E84003208D
:1005F000743F0320903F0320F0B55746DE464E4639
:100600004546E0B58BB008919246190005900993D4
:10061000DA1703238C46134063449B109B009846D3
:10062000002B00DC90E05246159B00249B000193B8
:10063000149B9B1A159A9B1A089A9B000293536865
:100640001268190194460491069251469A00039249
:1006500052468D000021013A9200079200228946FD
:100660005900DE00CB189B009B46130042466544B0
:100670000092019A94469C44039B1A199F19534671
:10068000002B1EDD069B05981919634680460098CD
:100690009B00434480460094086818600098081A3C
:1006A000845804315C6084599C60C059D860103310
:1006B0008D42F1D143460799009363468C4604333B
:1006C0009C440421029B5A4463448C461400049ABF
:1006D0003E00E1449446009A5E4465444A45C8DCC5
:1006E0001A00009B9846099B434526DD1499159CEA
:1006F000089B0D1B514609CB6D1A00291DDD414693
:100700009E004B439B00C01853469C00059B4746E8
:100710009C46099BAB469846159B994600234A4444
:1007200091006144C558CD5004339C42FAD15244E3
:1007300001375A448019B845F0D10BB0F0BCBB4624
:10074000B246A946A046F0BD0022CCE7F0B5474628
:10075000CE4680B51F00002B1DDD002A1BDD930057
:10076000C0180B68002498464B689100D20049429B
:1007700052428C4691469B00614645182900A200D2
:1007800042441668D21840C18142FAD14A46013427
:10079000A81AA742F0D1C0BCB946B046F0BDC046C9
:1007A000F0B5DE464E46574645460023E0B5136099
:1007B00083688BB0049305239B4600235E46099211
:1007C00002680293013B0790069103920893052368
:1007D000049C9B1B5C439846029BA4009C46039B85
:1007E00064449C46644423685D0063686D085F0050
:1007F0007F08291C381C0FF091FD002800D1CCE0A7
:100800003D1C0127731C9A46022B37D9A368291C6B
:100810005B005B08181C99460FF080FD002801D092
:100820004D4602275346032B28D0E368291C5B0062
:100830005B08181C99460FF071FD002801D04D4649
:1008400003275346042B19D02369281C5B005B083F
:10085000191C99460FF04CFD002801D04D46042785
:100860005346062B0AD16469281C64006408211CC5
:100870000FF03EFD002801D00527251C069B029A9B
:10088000474400219F50281C0FF02AFD002800D16A
:1008900085E0089B013300D1FEE0062347469B1B01
:1008A0009C46079A05939268574367440492BF0099
:1008B0000599049B0C009A005C43029B00929C46A5
:1008C000039BA5001A0065448C4691469B469246C0
:1008D00090463B1D6444A400994404335D445C4449
:1008E0009A44BB4404331037944698443B00002795
:1008F000634401935B46296818680FF0C2FC011C31
:1009000020680FF0A4FC2060012E2DD94B462868EA
:1009100019680FF0B6FC011C60680FF098FC60606D
:10092000022E21D05346286819680FF0AAFC011C3A
:10093000A0680FF08CFCA060032E15D043462868F9
:1009400019680FF09EFC011CE0680FF080FCE0606D
:10095000052E09D1019B296818680FF092FC011C33
:1009600020690FF074FC2061009B01379C466544B0
:100970006444BE42BED1029B013E04330293059BF8
:10098000052B00D023E71A00069B5A610BB0F0BC80
:10099000BB46B246A946A046F0BD002732E7474510
:1009A00030D0039902988C46BF0067448446079A6A
:1009B0003C6892680B5892000C5061443B60891867
:1009C000BB1808681C680C60186089189B180868B8
:1009D0001C680C60186089189B1808681C680C60FB
:1009E000186089189B1808681C680C6018608918C2
:1009F0009B1818680A6808601A60099A13680093BF
:100A0000013313604746079B039A9B685F43049337
:100A10000623991B43468C46FB189B0067449C5851
:100A2000BF00D51928680591211C0FF016FC28601D
:100A3000012E00D83CE7039B3D1D9C466544286879
:100A4000211C0FF00AFC2860022E00D130E7039B26
:100A50003D009C46083565442868211C0FF0FDFBCD
:100A60002860032E00D123E7039B3D009C460C35F4
:100A700065442868211C0FF0F0FB2860042E00D18B
:100A800016E7039A3D009446103565442868211CFA
:100A90000FF0E3FB28600BE7062347469B1B9C46B1
:100AA00005934346079A0893926857436744049214
:100AB000BF00FDE6F0B55746DE464E464546E0B57A
:100AC00099B01493249B8246259C26985D1C00D1E6
:100AD000229B651C00D1229C239DEE1703253540E7
:100AE000239EB4466544AD10AF000725229E0E97A5
:100AF000AE4335000096149E002E00DC88E29B0079
:100B00001693230110930301D31817936B1EDB0870
:100B100001330391D9015B010F93A3007C4320189B
:100B200080001193131815930023D3461391089353
:100B30000E9B002B00DCC2E10F9A039B944663449A
:100B40001293179BD84601930023029302984346C1
:100B500001000CCB089C5943A446614489005118FC
:100B60000991411C59436144890051180A91811C23
:100B700059436144890051180B91C11C4B43634494
:100B80009B00D318019E0C93009B3400002B00DCCB
:100B900045E2039B0025994600234C46AA46AB46F6
:100BA000A946069504952F1C059507950D93256874
:100BB0003168281C0FF065FB59460FF04BFB71683C
:100BC0008346281C0FF05DFB51460FF043FBB168D4
:100BD0008246281C0FF055FB07990FF03BFBF1688C
:100BE0000790281C0FF04DFB05990FF033FB059083
:100BF00065683169281C0FF044FB391C0FF02AFB93
:100C00007169071C281C0FF03CFB04990FF022FBB4
:100C1000B1690490281C0FF034FB06990FF01AFB01
:100C2000F1690690281C0FF02CFB49460FF012FBCF
:100C30008146A568316A281C0FF023FB59460FF046
:100C400009FB716A8346281C0FF01BFB51460FF00D
:100C500001FBB16A8246281C0FF013FB07990FF0C5
:100C6000F9FAF16A0790281C0FF00BFB05990FF0B9
:100C7000F1FA0590E568316B281C0FF002FB391C76
:100C80000FF0E8FA716B071C281C0FF0FAFA0499B0
:100C90000FF0E0FAB16B0490281C0FF0F2FA0699FD
:100CA0000FF0D8FAF16B0690281C0FF0EAFA4946CB
:100CB0000FF0D0FA81462569316C281C0FF0E1FA5B
:100CC00059460FF0C7FA716C8346281C0FF0D9FA09
:100CD00051460FF0BFFAB16C8246281C0FF0D1FAD2
:100CE00007990FF0B7FAF16C0790281C0FF0C9FABA
:100CF00005990FF0AFFA05906569316D281C0FF06A
:100D0000C0FA391C0FF0A6FA716D071C281C0FF0F1
:100D1000B8FA04990FF09EFAB16D0490281C0FF0F8
:100D2000B0FA06990FF096FAF16D0690281C0FF0B4
:100D3000A8FA49460FF08EFA8146A569316E281C43
:100D40000FF09FFA59460FF085FA716E8346281C02
:100D50000FF097FA51460FF07DFAB16E8246281CCB
:100D60000FF08FFA07990FF075FAF16E0790281CB3
:100D70000FF087FA05990FF06DFA0590E569316F6C
:100D8000281C0FF07EFA391C0FF064FA716F071CF3
:100D9000281C0FF076FA04990FF05CFAB16F0490FA
:100DA000281C0FF06EFA06990FF054FAF16F0690B6
:100DB000281C0FF066FA49460FF04CFA814680363F
:100DC00020340D9B009A08330D939A4200DDEEE625
:100DD000139B019C9C46051C5946381C64440FF02B
:100DE00039FA5146071C04980FF034FA0799061C8B
:100DF00006980FF02FFA05998146281C0FF02AFA61
:100E0000129B051C9A46229A009B9A4230DDAB4603
:100E10000493534620CB2168281C9A460FF031FAE0
:100E2000011C381C0FF016FA6168071C281C0FF013
:100E300028FA011C301C0FF00DFAA168061C281CB2
:100E40000FF01FFA011C48460FF004FAE1688146D2
:100E5000281C0FF016FA011C58460FF0FBF98346C8
:100E6000049B229A0133103404939A42D1D1051C79
:100E7000311C0A9E30680FF0EAF9391C099F041CE6
:100E800038680FF0E4F9291C0C9D3860346028683C
:100E90000FF0DDF90B9E4946041C30680FF0D7F9BE
:100EA0001099019A8C46029B624401920E9A043377
:100EB000306002932C609A4200DD47E6C3460F9AE9
:100EC000039B944663440E9A0293239B9246159D7E
:100ED000934200DC90E05B465C6853465C43089BB1
:100EE0002F009C465B461B6864449C46009BA40004
:100EF0006444002B00DC99E00023039F99463B00EB
:100F0000A04600262F001C00396820680FF0B9F9B0
:100F1000311C0FF09FF9061C796860680FF0B1F979
:100F2000311C0FF097F9061CB968A0680FF0A9F9F9
:100F3000311C0FF08FF9061CF968E0680FF0A1F979
:100F4000311C0FF087F9061C396920690FF099F9F7
:100F5000311C0FF07FF9061C796960690FF091F977
:100F6000311C0FF077F9061CB969A0690FF089F9F7
:100F7000311C0FF06FF9061CF969E0690FF081F977
:100F8000311C0FF067F9061C2037203408239C46DB
:100F9000009BE1444B45B7DC44460F9BEF18029B96
:100FA0000193229A009B9A4217DD994600239846A6
:100FB00043464246F958019B98580FF062F9011CCC
:100FC000301C0FF047F9061C01239C460333E14413
:100FD0009C46229BE0444B45EAD12068311C0FF02F
:100FE00036F901239C46119BE2449C46239B2060DA
:100FF0006544534500D06EE71699039A8C46089BCA
:1010000062440392149A013308939A4200D08FE508
:1010100019B0F0BCBB46B246A946A046F0BD0025BB
:10102000039BA9469A462E1C2F1CECE6039B002628
:101030000193B6E7F0B55746DE464E4645469C243A
:10104000E0B5BDB006AF3C19FB6384232060982453
:10105000BA6694225B003C19FB1821601C68BA1820
:101060002369FB67A3681360834202DD9423FB18A6
:10107000186094239821FB187918FA6F1B680D6883
:10108000534355432268002A00D1DBE29B007B6674
:101090008C23FB181A6090220023BA18136063682F
:1010A000AA003A66002B00D1ECE28822BB6700233D
:1010B000BA181360C84D2B78BFF35B8FDB0700D4E1
:1010C000FDE2C64CA4220423BA1813609433FB1823
:1010D0001B686068002B18DD9C237A1DFB18FF320B
:1010E0001B6812681900934200DAFFE209010DF053
:1010F00011FE0323C2171340A4221B189B109B0050
:10110000BA181360042B00DAEBE29C23FB181C686E
:10111000002C00DC72E2FB6BFD6F18006A4250434A
:10112000F86118008021661B7043F86618000133CF
:101130005A4392007918BA61621E0E601100594339
:1011400089008846B96E1B018C46E04441467964AB
:10115000A90049423961A1007C1CFF3424685B422C
:10116000A446A42461443964791DFF313C190968FF
:101170002468FB606143B962B02183005B42791847
:101180000B600300921B5043DB43AC229B00BA1858
:101190001360C4227B1DFF331B68BA189B00786163
:1011A0001360A022FB6FBA1813609C22BA18126851
:1011B000934202DDA023FB181A609823FB181B68DA
:1011C000002B00DC9FE1A023FB181A68002A00DC3A
:1011D00099E19823FB181B68396C3B65A423FB1825
:1011E0001B6853439B00FB62BB6FFB649300CB1AED
:1011F00079697B628C46FB6EB82163447B63002374
:1012000079180B60D021BB643B679C33FB181B68CB
:1012100079189B1ABB60130079600321013B043AE3
:101220008B43D31A3B63A422BA183B6D1268FB654B
:10123000934200DDFA65B822BA181268FB6D944635
:10124000C8226344BA1813609C237A6AFB18944638
:101250001B6884227B673B6FBA189B0063443B6228
:101260007B6B7B657B6CBB65A023FB181B681360E5
:101270008423B422FB181B68BA181360042B03DD07
:10128000B4220423BA1813608423FB181B68002BB4
:1012900000DCA5E0B422C820B824BA187B6F11681E
:1012A00038183C19006824685A1ABA63A04200DC56
:1012B0009CE094464E1EB96E9B008A46043B9B46BA
:1012C0007B6D791C63449B00FF3109689A44BB6CB9
:1012D00063448C46A8219B00634479180B609300FB
:1012E000C0225B42BA181360BC22BB6DBA181360EF
:1012F000BC23FE20FB181B68800519680EF0ADFFAB
:10130000CC23FB181860A823FB181C68B823FB1813
:101310001B68B1461E00C023FB181B685A4698463E
:10132000A04443469958CC23FB1818680EF0A9FF37
:1013300043465A4698504B46051C002B22DD534627
:1013400019680EF09EFF011C20680EF080FF4B46CE
:101350002060012B16D05346281C59680EF091FFCF
:10136000011C60680EF073FF4B466060022B09D0D1
:101370005346281C99680EF084FF011CA0680EF0EB
:1013800066FFA060C423FB181B6801369C46C82377
:10139000FB181B6864449E42BDD1AC22BC23BA1822
:1013A0001268FB189446BC221B68BA186344136089
:1013B0000423B0225B429C46BA181268E344944668
:1013C000B4224E46BA181268731EE244961BB2420B
:1013D0000CDD1E008CE7C046442503200C3B032097
:1013E000B422BA187B6F12689B1ABB638423B422A1
:1013F000BD6BBA18AC46FB1810681B687A1CFF322C
:1014000012681C1A3B6F7968634494469B006344DE
:101410000B607B1DFF331B6880464B60A02301944B
:10142000FB181E6802000096FB6DF86C9B4689460F
:101430008246FFF7E1F8002C2ADD2B00BA68494606
:101440009446FD6BBA6E6B438C20634494464D60AA
:101450004D469B003818006863440B6042462300E9
:101460008146FFF773F929007B1DFF333D6A1B6836
:101470000D604B600D005B46039646460193524655
:10148000230049462800049402960096FFF712FBB9
:1014900084238422F968FB188C46B0211B68BA1893
:1014A000043B13607A6F7918043A09687A67BA6D59
:1014B00062448C46BA657A6D62447A653A6B9342AF
:1014C00000D0D5E6A422B823BA181268B8219446F1
:1014D000FB181B68791863440B60396D8A1AF96A26
:1014E0003A658C46FA6CB96A62448C46FA643A6F83
:1014F00062443A67BA6C6244BA649822BA181268B5
:101500009A4200DD8FE680239C22FB181B68BA18E4
:101510001360002B72DD9423FB181B68002B00DC8A
:10152000FEE78023BA6EFB1892461D68FB6E00240E
:101530009B009A44D023FE1800239B46013B99460A
:101540009423FB181B68A8469D4200DD9846CC22D8
:10155000A300BA181360FA6B8C207260A022534467
:10156000BA18381831001268006833604346FFF734
:10157000EDF87A1CCC23FF321268FB1894461B68E6
:101580008C21634433607B1DFF331B6879187360C3
:101590005B4604934B46039302939823FB181B6806
:1015A00030000193A023FB181B680093BA6F4346D9
:1015B0000968FFF77FFA9423FB181B689C46ED1A15
:1015C0008023FB181B686444A342B9DCFA69FB6EF4
:1015D0009446BA6963449446FB663A697B6C6344FB
:1015E00094467B643B6CFA6F63443B648023FB1836
:1015F0001B689B1A8022BA181360D2E580233A6ECA
:101600009B029A4208D98823FB181B68002B03D041
:10161000043B18680FF0AEF880237A6E9B029A4262
:1016200008D99023FB181B68002B03D0043B1868D3
:101630000FF0A0F8BD4637B0F0BCBB46B246A94695
:10164000A046F0BD9A0080237A669B029A424FD84A
:1016500013006A461633DB08DB00D31A9D462720A9
:101660000F23684498438133FB18186090238C2221
:10167000FB181B68BA1813606368AA003A66002B4F
:1016800000D012E580239B029A424FD813006A468D
:101690001633DB08DB00D31A9D4627200F2368444E
:1016A00098437933FB1818608823FB181B682D4D6D
:1016B000BB672B78BFF35B8FDB0700D501E5280004
:1016C00011F024FD284C002800D1FBE48023DB012D
:1016D000236080231B0328006360A36011F032FDA8
:1016E000F0E4A4220423BA1813600EE51100FDE40F
:1016F000100010300FF020F89023FB18021E186025
:10170000B4D00F23010099430B0010218C468C208C
:101710009C446146DA602368381801605842584199
:10172000902340420140FB181960B8E410001030CB
:101730000FF002F88823FB1818600028B4D00F239C
:10174000010099430B0010218C46D86060689C44CE
:1017500043425841614688234042B967FB18014023
:101760001960A7E4442503200C3B0320F0B557463D
:10177000DE464E464546E0B5B3B006AF8C24BB62AC
:10178000E023FA6288223C19FB1821601C68BA1811
:101790002369786513608422A368BA1813608342B2
:1017A00002DD8423FB181860842388228C21FB1817
:1017B000BA18791812681B680D685343554322689C
:1017C000002A00D150E29B00FA6780223B6500238B
:1017D000BA1813606368AA00FA64002B00D161E2B2
:1017E000FB660023BB67E74D2B78BFF35B8FDB07FE
:1017F00000D470E2E44C90220423BA1813608833BA
:10180000FB181B686068002B16DDDC22BA187B6DA4
:1018100012681900934200DA74E209010DF07AFAB5
:101820000323C217134090221B189B109B00BA1869
:101830001360042B00DA60E27B6D002B00DCF1E129
:101840008822B96ABA1808001268BB6350439B1A11
:10185000B86098207B634B1C99001B01FB61DC2363
:101860004A43381801607A609020DC22FB181B681C
:10187000BA189B009B46FB6A38183B63002312682A
:101880000068BB6542437A610A1F3A627B67942213
:10189000BB6BBA1813608822BA181268934202DD33
:1018A0009423FB181A608C23FB181B68002B00DCA8
:1018B00045E19423FB181A68002A00DC3FE18C23E1
:1018C0009021FB181B687918BB6413000968DA467D
:1018D0004B43D821791809689B008C463B61FB6E0D
:1018E0009C21FB657B6F79189B006344FB600023A0
:1018F0000B60A8213B667918130039600321013B76
:10190000043A8B43D31ABB619022BA18BB6C12689D
:10191000BB66934200DDBA669C22BA181268BB6EA1
:101920009446FA68634494469B463B6E9B0063442E
:10193000FB633B6B3B647B6F7B66BB6D7B6494237B
:10194000FB181B683B679423FB181A683B6FD21A7D
:101950007A62A022BA181360042B03DDA0220423AC
:10196000BA1813603B6F002B58DD9C23FB181B68D3
:101970009B4553DDA023A422FB181B68BA18013B2A
:101980009946FB6B13603B6C98464B46002B2EDD53
:10199000A423FB181C689C23FB181E68434625687B
:1019A0005968281C0EF06DFC011C60680EF04FFC9D
:1019B0004B466060012B16D04346281C99680EF0F8
:1019C00060FC011CA0680EF042FC4B46A060022B9C
:1019D00009D04346281CD9680EF053FC011CE0686E
:1019E0000EF035FCE060013654445E45D6D14B46DE
:1019F0005A1E9823FB181B68A4219C46A423FB189D
:101A00001B68791804330B60A023FB1819684B4638
:101A1000E044CB1A994201DD9146B6E7A022BA18FC
:101A20001468D8223B6F796E3E6E8C461D1B3300C6
:101A3000BA1810686344844639689B0063440B609D
:101A4000DC23FB181B6822004B607B6A88460193ED
:101A50009423FB1818680090BB6EF86DFEF7CCFD60
:101A6000002D36DD7B6E41469C46786C2200644436
:101A70000319F86A9B008446B86A63444860A02052
:101A800038180260F86F0B602B00C1468046FEF7E5
:101A90005DFED822BA18331914689B00A4464C4640
:101AA00063442360DC23FB1819687B6A616004933C
:101AB0009423FB181E68A0230396FB181A6841465E
:101AC0000292BB6E0092019348462B00FA6DFEF71E
:101AD000F1FF396A7A6C8C46F96962448C467A6403
:101AE0007A6E3B6F04327A663A6C043B62443A6425
:101AF000FA6B3B671032FA63BA69934200D022E76F
:101B000090229C23BA1812689C219446FB181B68EB
:101B1000791863440B60B96C8A1A7969BA648C4687
:101B20003A6E396962448C463A66FA6D6244FA65E7
:101B30008C22BA1812689A4200DDE5E6D346882264
:101B4000BA1812687B6F94467A6D63447B67934240
:101B500068DA8423FB181B68002B17DC8823B9681C
:101B6000FB188C46BA6B1B68D21ABA63BA6D624412
:101B7000BA657A6BD31A7A687B6394463B6B63448D
:101B80003B6384E6442503200C3B0320FA6ABB6DCB
:101B900092469B009A44A823FE18A93B99467D6B68
:101BA0007C6F8423FB181B68A8469D4200DD984685
:101BB000A422A300BA181360BA6A53447260942234
:101BC000BA1831001268F86F33604346FEF7BEFD65
:101BD000D822A423BA181268FB1894461B68300058
:101BE00063443360DC23FB181B6873600023049399
:101BF0004B46039302938C23FB181B680193942399
:101C0000FB181B680093FA6E4346F96FFEF752FF0C
:101C10008423FB181B689C46ED1A7B6D6444A34229
:101C2000BFDC9BE78023FA6C9B029A4206D9BB6F0C
:101C3000002B03D0043B18680EF09CFD80233A6D06
:101C40009B029A4208D98023FB181B68002B03D003
:101C5000043B18680EF08EFDBD462DB0F0BCBB46AF
:101C6000B246A946A046F0BD9A0080233A659B0281
:101C70009A4249D813006A461633DB08DB00D31AB0
:101C80009D4627200F23684498437133FB18186042
:101C90008023FB181B68AA00FB676368FA64002BAB
:101CA00000D09DE580239B029A4249D813006A46E2
:101CB0001633DB08DB00D31A9D4627200F23684428
:101CC0009843B867BB6F2A4DFB662B78BFF35B8FD9
:101CD000DB0700D58EE5280011F018FA254C002806
:101CE00000D188E58023DB01236080231B032800CB
:101CF0006360A36011F026FA7DE590220423BA18F0
:101D0000136099E5110088E5100010300EF014FD05
:101D10008023FB1818600028BAD00F2301009943D4
:101D20000B0010218C46D8609C44236861465842C1
:101D3000584180234042F967FB180140196049E58A
:101D4000100010300EF0F8FCB8670028BAD00F234E
:101D5000010099430B0010218C46D86060689C44B8
:101D60004342584161464042F9660140B9673AE54D
:101D7000442503200C3B032030B587B00D4B02AD4A
:101D800000951A68694602929A880400AA809B7995
:101D90006A46AB71072301930023D3732EF048F9F1
:101DA0000098A84203D0029901310EF017FD2000DF
:101DB00007B030BD48B20410F0B5DE4657464E4677
:101DC0004546E24BE0B51860E14B0D1C1B68E14C49
:101DD00098464146E04BE4681960DD4989B049689E
:101DE000069059608946DB4BDA491F684E68DB4B29
:101DF00089681F605E609960DC60D94B05949A68C1
:101E000058681C68029204910190DB68211C4046CE
:101E100003930EF036FA0299824648460EF031FAE4
:101E2000011C50460EF016FACE4B82461968281C4B
:101E30009B460EF026FA011C50460EF00BFACA4BD8
:101E400001991860079040469A460EF01AFA0399D5
:101E5000804648460EF015FA011C40460EF0FAF98D
:101E60005B4680465968281C0EF00BFA011C404660
:101E70000EF0F0F9554683466860211C381C0EF0C0
:101E800000FA029A051C111C301C90460EF0F9F95C
:101E9000011C281C0EF0DEF901998146381C0EF059
:101EA000F0F9039F051C391C301C0EF0EAF9011CE7
:101EB000281C0EF0CFF9211C824604980EF0E1F99F
:101EC0004146051C05980EF0DCF9011C281C0EF09B
:101ED000C1F946460199804604980EF0D2F9391CA2
:101EE000051C05980EF0CDF9011C281C0EF0B2F966
:101EF0004946071C201C0EF0C4F94146051C301C45
:101F00000EF0BFF9011C281C0EF0A4F9974E3168A1
:101F10000EF0A0F9964D514604902860201C0EF05A
:101F2000B0F9391C041C02980EF0ABF9011C201CFE
:101F30000EF090F971680EF08DF9494602906860D4
:101F400001980EF09EF9039A4146041C101C91461C
:101F50000EF097F9011C201C0EF07CF9B1680EF010
:101F600079F95146041CA86001980EF08AF9391CD1
:101F7000804648460EF085F9011C40460EF06AF98D
:101F8000F1680EF067F9E8607A4D071C2E68049836
:101F9000311C0EF076F96D688046291C381C0197BB
:101FA0000EF06FF9291C824602980EF06AF941463C
:101FB0000EF050F9311C0EF064F9311C071C201C86
:101FC0000EF05FF951460EF045F9291C0EF059F953
:101FD000011C381C0EF03EF9674B19680EF03AF9F7
:101FE000664B071C1860291C201C0EF04AF941465C
:101FF0000EF030F9391C0EF030F9614980468946FF
:1020000008600298311C0EF03CF951460EF022F99E
:10201000391C0EF022F94946079B071C4860181C22
:10202000311C9A460EF02DF9291C814658460EF0B7
:1020300028F9011C48460EF00DF9011C06980EF017
:1020400006F9414681460EF01CF951460EF002F9A0
:102050003F4A391C106048460EF013F959460EF0FD
:10206000F9F83B4A81465060464A311C9346404647
:102070000EF007F95A46011C10680EF0E8F8311C02
:102080008246381C0EF0FDF85A46011C50680EF0CE
:10209000DEF8291C061C40460EF0F3F85A46011CD7
:1020A00090680EF0D4F8291C8046381C0EF0E9F830
:1020B0005A46011CD0680EF0CAF85146051C049817
:1020C0000EF0DFF8029B4146071C181C9B460EF0E1
:1020D000D8F8011C381C0EF0BDF81E4A311C1060E7
:1020E00004980EF0CEF8291C071C58460EF0C9F8CB
:1020F000011C381C0EF0AEF8164B51465860201CDF
:102100000EF0BFF8019B4146071C181C98460EF0C4
:10211000B8F8011C381C0EF09DF80E4B311C98606D
:10212000201C0EF0AEF8291C041C40460EF0A9F845
:10213000011C201C0EF08EF8064BD860484609B0F2
:10214000F0BCBB46B246A946A046F0BDF05B0320FA
:1021500004500320302E0020DC450320702E002088
:10216000902E0020D040032014500320802D00200A
:10217000502E00202850032008230320D0450320A0
:1021800088330020B02E0020F0B5DE4657464E467C
:102190004546E0B5674B83B059689A460EF057F84C
:1021A000654B051C1860654B1B689B46644B594684
:1021B0001C680EF04FF8211C0EF063F8614B061CF2
:1021C0001868011C0EF046F8011C301C0EF045F892
:1021D0005D4E31680EF03EF85C4B00903060186840
:1021E000011C0EF037F85A4B061C1A68111C914658
:1021F0000EF047F88046011C201C0EF02BF8211C25
:10220000071C40460EF023F8524A116890460EF023
:1022100038F8391C0EF021F84946019048460EF076
:1022200019F859468146281C0EF011F8011C484641
:102230000EF027F8391C0EF010F8011C01980EF072
:1022400009F8424600991060071C281C0EF002F89D
:10225000391C0DF0FFFF404B19680EF012F83F4B90
:1022600018603F4B1860534619680DF0F0FF3D4B66
:10227000051C18603C4B1B68191C9A460DF0EAFFC0
:10228000211C0DF0FEFF394B80461868011C0DF033
:10229000E1FF011C40460DF0E0FF354B99461968FF
:1022A0000DF0D8FF4B461860324B80461B68301C3F
:1022B000191C99460DF0E5FF8346011C201C0DF00A
:1022C000C9FF4946061C48460DF0C4FF51468146E9
:1022D000281C0DF0BCFF011C48460DF0D2FF311C3C
:1022E0000DF0BBFF211C814658460DF0B0FF391C94
:1022F0000DF0C7FF311C0DF0B0FF011C48460DF07A
:10230000A9FF1D4B41461860041C281C0DF0A2FFBC
:10231000211C0DF09FFF194B19680DF0B2FF184BEF
:102320001860184B186003B0F0BCBB46B246A94613
:10233000A046F0BD0450032088410320D44503206B
:10234000C8200020AC200020C8450320BC2000206D
:10235000A03300206C410320B4200020785B0320D0
:10236000685B03208C410320D8450320B020002067
:10237000CC450320A433002070410320B820002066
:102380007C5B0320805B0320F8B5FE250024194BFD
:10239000AD051D60DD609C605C60174B174F1D60D4
:1023A000DD609C605C60164B1E68164B301C196823
:1023B0000DF053FF144B38601D605C60DD609C6065
:1023C000124B7C601D605E60DD609C60104B1C6089
:1023D0005D60104B1868011C0DF053FF0E4B0F4A47
:1023E000186012680E4B1A600E4A9C6012685C609E
:1023F000DA60F8BD302E0020502E0020D04003209F
:10240000C8200020CC200020B02E0020902E0020DC
:1024100028500320D820002008230320F022032086
:10242000802D0020EC220320F0B5DE4657464E46B4
:102430004546E0B50E000168C768894641680569F0
:102440008A4681688DB08B46416980690793069002
:1024500050681368926805910A90291C30680B92A5
:10246000099308950DF0F3FE0599039070680DF03F
:10247000EEFE0699051CB0680DF0E9FE8026804648
:10248000360607980DF09EFFB446039B009001911D
:102490006344180051460DF0F4FE5946061C281CF2
:1024A0000DF0EFFE011C301C0DF0D1FE391C061C96
:1024B000404604970DF0E5FE011C301C0DF0C7FEF0
:1024C0000DF080FF0022684B0CF09BFE009A019BF0
:1024D0000CF097FE060048460F000DF073FF020057
:1024E0000B0030003900169C0CF064FE0CF08EFFDF
:1024F0004946206003980DF0C4FE5946061C40462C
:102500000DF0BFFE011C301C0DF0A4FE0499061C4A
:10251000281C0DF0B6FE011C301C0DF098FE0DF0CD
:1025200051FF0022504B0CF06CFE009A019B0CF006
:1025300068FE060050460F000DF044FF02000B003D
:10254000300039000CF036FE0CF060FF4946606048
:10255000281C0DF096FE5146061C40460DF091FEDB
:10256000011C301C0DF073FE0499061C03980DF03D
:1025700088FE011C301C0DF06DFE0DF023FF0022C3
:10258000394B0CF03EFE009A019B0CF03AFE06001F
:1025900058460F000DF016FF02000B003000390006
:1025A0000CF008FE0CF032FF4946A06040460DF0EA
:1025B00068FE5146061C281C0DF063FE011C301CF1
:1025C0000DF048FE5946051C03980DF05AFE011CFB
:1025D000281C0DF03CFE0DF0F5FE0022224B0CF005
:1025E00010FE009A019B0CF00CFE060004980F00F0
:1025F0000DF0E8FE02000B00300039000CF0DAFDAF
:102600000CF004FF089B0999E060181C98460DF037
:1026100038FE079D291C0DF034FE011C40460DF0CC
:1026200016FE059F0A992061381C0DF02AFE291C10
:102630000DF027FE011C381C0DF009FE069E0B99BB
:102640006061301C0DF01DFE291C0DF01AFE011CEE
:10265000301C0DF0FCFDA06100200DB0F0BCBB46AD
:10266000B246A946A046F0BD0000E03FF0B5DE4608
:1026700057464E4645468A464168E0B58846C76893
:10268000816891B0066889464046391C141C049341
:102690000DF0F7FD4946051C301C0DF0F2FD0A90C7
:1026A000011C281C09950DF0D2FD0DF08BFE0200D7
:1026B0000B000CF07FFD06900791201C02940DF09A
:1026C00081FE0B00020004000D00069807990CF033
:1026D00098FD0CF09BFE5246391C106048460DF0E8
:1026E000D0FD83464146301C0DF0CBFD5A460E907E
:1026F000011C58460B920DF0ADFD0DF063FE02007B
:102700000B000CF057FD02000B00200029000C927A
:102710000D930CF076FD0CF079FE5446311C606090
:10272000301C0DF0AEFD4146041C40460DF0A9FDE5
:10273000051C011C201C0DF08AFD494608904846E6
:102740000DF09FFD391C8346381C0DF09AFD59464B
:10275000019008980DF07BFD01990DF07BFD029929
:102760000F900DF08EFD53464946986040460DF09F
:1027700088FD391C8046301C0DF083FD81461A9877
:102780000DF020FE06001B980F000DF01BFE0290BE
:102790000391291C201C0DF05DFD59460DF057FDDD
:1027A00001990DF054FD04990DF06BFD0DF00AFE3A
:1027B00004000D00404649460DF04CFD0DF002FEB0
:1027C00002000B000CF0F6FC32003B000CF019FD8F
:1027D00002000B00200029000CF0ECFC029A039B85
:1027E00004000D00069807990CF00BFD02000B0089
:1027F000200029000CF0DEFC0CF008FE5346D860E7
:1028000004980DF0DFFD04000D00404649460DF030
:102810001EFD0DF0D7FD02000B000CF0CBFC2200DA
:102820002B00049405950CF0ECFC04000D000898B6
:1028300059460DF00FFD01990DF009FD1A990DF0A3
:1028400020FD0DF0BFFD02000B00200029000CF060
:10285000B1FC029A039B04000D000C980D990CF03A
:10286000D0FC02000B00200029000CF0A3FC0CF0AF
:10287000CDFD53460A99186109980DF0EBFC0DF057
:10288000A1FD02000B000CF095FC049A059B0CF0D6
:10289000B8FC04000D000B980E990DF0D8FC0DF05B
:1028A00091FD02000B000CF085FC32003B000CF0A7
:1028B000A8FC02000B00200029000CF07BFC0400A7
:1028C0000D000F981B990DF0DCFC0DF07BFD020054
:1028D0000B00200029000CF06DFC0CF097FD534616
:1028E0005861002011B0F0BCBB46B246A946A046D4
:1028F000F0BDC046F0B50400DE4657464E4645469C
:102900000800E0B545680968AA46856895B0AB46F9
:10291000C5684669876910910E9501695568106808
:102920009268049690461A68069711925A689B68B6
:1029300012921393FE239B05236099460DF087FCAA
:102940000DF040FD009001911E980DF03BFD06003A
:102950000F00009801990022924B0CF052FC3200BB
:102960003B000CF04EFC0CF051FD04990390E0612B
:10297000281C0DF06CFC0DF025FD0022894B049005
:1029800005910CF03EFC32003B000CF03AFC0CF0E0
:102990003DFD0699051CA06340460DF058FC0DF066
:1029A00011FD00227F4B069007910CF02AFC3200AB
:1029B0003B000CF026FC0CF029FD0A9060655046A7
:1029C0000DF000FD0022784B089009910CF019FCE5
:1029D00032003B000CF015FC0CF018FD0B9020674A
:1029E00058460DF0EFFC00226F4B0C900D910CF04F
:1029F00008FC32003B000CF004FC0CF007FD8C23BB
:102A00008246E0500E980DF0DDFC0022664B0E90E1
:102A10000F910CF0F6FB32003B000CF0F2FB0CF0D7
:102A2000F5FCA8238346E0500022009801995E4BF4
:102A30000CF0E7FB32003B000CF0E3FB0CF0E6FC93
:102A40004946009060602162002206980799564B23
:102A50000CF0D7FB32003B000CF0D3FB0CF0D6FCA3
:102A6000A5658046E06310980DF0ACFC00224D4B4C
:102A70000CF0C7FB32003B000CF0C3FB0CF0C6FCB3
:102A800059469023051C60670022E1500C980D996F
:102A9000444B0CF0B6FB32003B000CF0B2FB0CF0E8
:102AA000B5FCAC230022E050049805993E4B0CF095
:102AB000A8FB32003B000CF0A4FB0CF0A7FC49463D
:102AC0000A9A83466262009AA0602164E2650E98C9
:102AD0000F990022334B0CF094FB32003B000CF0BA
:102AE00090FB0CF093FC94230B99A067E5501C33EA
:102AF000E1504146E1605946A1624946216651468E
:102B0000039BE1676364089809990022254B0CF048
:102B100078FB32003B000CF074FB0CF077FC982340
:102B2000E0501C33E55000251E9911982561E5629F
:102B3000A56465660DF0A5FB011C48460DF087FBFA
:102B40008023E0501C33E5501C33E550343B1E9984
:102B5000129865612563E564A566E5500DF091FB6B
:102B6000011C48460DF073FBA023E0501C33E550D8
:102B7000343BA56165632565E566E5501C33E5508A
:102B80001E9913980DF07DFB011C48460DF05FFB6C
:102B9000C023E050002015B0F0BCBB46B246A946A9
:102BA000A046F0BD0000E0BF0000E03FF0B5DE460B
:102BB00057464E464546E0B59A460B68141C8A684F
:102BC0009B464B68C9688BB00500101C8846009373
:102BD00001920DF0F7FB02900391201C0DF0F2FB27
:102BE000C02306000F000298039900221B060CF078
:102BF00008FB32003B000CF004FB0CF007FC0890D3
:102C0000286040460DF0DEFB02000B000CF0D2FA0B
:102C100032003B000CF0F5FA0CF0F8FB041CA86144
:102C200058460DF0CFFBC02300221B0604900591EF
:102C30000CF0E7FA32003B000CF0E3FA0CF0E6FB94
:102C4000286300980DF0BEFB02000B000690079170
:102C50000CF0B0FA32003B000CF0D3FA0CF0D6FBCB
:102C6000002190238946A8642966A967E950686015
:102C70000498059902000B000CF09CFA32003B000E
:102C80000CF0BFFA0CF0C2FB6C630490E861029890
:102C9000039902000B000CF08DFA32003B000CF09F
:102CA000B0FA0CF0B3FB49469423E8646966E9671F
:102CB000E950C02306980799049A1B06AA600022CF
:102CC0000CF09FFA32003B000CF09BFA0CF09EFBDC
:102CD000089B4946AB63802328622C65A966E950AE
:102CE0001833E950404614990DF0CBFA019F15991D
:102CF000061C381C0DF0C5FA5146041C58460DF050
:102D0000C0FA311C0DF0A6FA211C06940DF09FFAB2
:102D1000011C0DF09FFA51460990E86000980DF0F3
:102D2000B0FA1499041C381C0DF0ABFA011C201CDD
:102D30000DF090FA1599041C40460DF0A2FA011C02
:102D4000201C0DF087FA011C0DF084FA14990290F2
:102D5000686200980DF095FA1599089058460DF0A4
:102D600090FA019A8024944624066444071C514634
:102D700020000DF086FA08990DF06CFA391C0DF060
:102D800066FA011C0DF066FA1499E86358460DF0D6
:102D900078FA1599049000980DF073FA80221206C3
:102DA0004244041C514610000DF06BFA04990DF0DA
:102DB00051FA211C0DF04EFA011C0DF04BFA4A4657
:102DC0008423EA666865EA501833EA505146286160
:102DD00001980DF056FA08990DF039FA391C0DF0EA
:102DE00039FA011C0DF036FA071CA8628020029BFC
:102DF00000062B64514658440DF043FA311C0DF087
:102E000026FA06990DF026FA011C0DF023FA882304
:102E1000A86548462867E8501833E85051464046B0
:102E20006F610DF02EFA04990DF011FA211C0DF0CE
:102E30000EFA011C0DF00EFA099AE8626A64029B10
:102E40004A46EB654B466B678C230020EA501833EB
:102E5000EA500BB0F0BCBB46B246A946A046F0BD56
:102E60000123F0B5E3214746CE469C46294B8046D8
:102E700005009946284E80B58900076846444144BC
:102E8000FA0F6F68D2077B005B08346813435A0857
:102E9000624064461C4201D04B465A4004C5043689
:102EA000A942EDD1E32342469B00C626D458194BD4
:102EB00001259C46F6004644E20F4C68D2076300A9
:102EC0005B08076813435A087A401D4201D06346E5
:102ED0005A40043004C1B042EED14246C6214046B9
:102EE0000E4BC900D3581268DB0F52005208DB07A3
:102EF000415813435A084A40DB0701D5054B5A4055
:102F00004146064BCA5000220433CA50C0BCB946E1
:102F1000B046F0BDDFB0089934060000BC090000DF
:102F2000F0B54546DE4657464E46E0B53B4CD72306
:102F3000A54434AA944663441B091B018A6805937F
:102F40000B68019237921A68049006929A6933913D
:102F500007921A6B38AC08929A6C09921A6E0B920F
:102F60009A6F0C9290229A580D925A680E92DA69D2
:102F70000F925A6B1092DA6C11925A6E1292DA6FAB
:102F8000139294229A5814929A6815921A6A169279
:102F90009A6B17921A6D18929A6E199280229A580B
:102FA0001A9298229A581B92DA681C925A6A1D92B9
:102FB000DA6B1E925A6D1F92DA6E209284229A5812
:102FC00021929C229A5822921A6923929A6A2492F8
:102FD0001A6C25929A6D26921A6F279288229A5817
:102FE0002892A0229A5829925A692A92DA6A2B9238
:102FF0005A6C2C92DA6D2D925A6F2E928C229A581E
:103000002F92A4229B5830934B68984638AB32934A
:10301000C423454643440A9302E0C0469CFDFFFF9B
:10302000EA68A96991462A69AB6890466A69099875
:1030300003914946019302920DF023F941468246DD
:103040000B980DF01EF9011C50460DF003F9029982
:1030500082460C980DF015F9039983460D980DF0F2
:1030600010F9011C58460DF0F5F8011C50460DF002
:10307000F1F86F688246391C07980DF002F9019942
:10308000834608980DF0FDF8011C58460DF0E2F853
:103090002E688346311C06980DF0F3F8011C584643
:1030A0000DF0D8F8011C50460DF0D4F849462060C8
:1030B00011980DF0E6F84146824612980DF0E1F8BD
:1030C000011C50460DF0C6F80299824613980DF087
:1030D000D8F80399834614980DF0D3F8011C58468C
:1030E0000DF0B8F8011C50460DF0B4F8391C8246BA
:1030F0000F980DF0C6F80199834610980DF0C1F8AD
:10310000011C58460DF0A6F8311C83460E980DF0B0
:10311000B8F8011C58460DF09DF8011C50460DF002
:1031200099F84946606018980DF0ABF84146824620
:1031300019980DF0A6F8011C50460DF08BF8029975
:1031400082461A980DF09DF8039983461B980DF05E
:1031500098F8011C58460DF07DF8011C50460DF002
:1031600079F8391C824616980DF08BF80199834640
:1031700017980DF086F8011C58460DF06BF8311CBD
:10318000834615980DF07DF8011C58460DF062F845
:10319000011C50460DF05EF84946A0601F980DF0E6
:1031A00070F84146824620980DF06BF8011C50469D
:1031B0000DF050F80299824621980DF062F80399BB
:1031C000834622980DF05DF8011C58460DF042F838
:1031D000011C50460DF03EF8391C82461D980DF03A
:1031E00050F8019983461E980DF04BF8011C584683
:1031F0000DF030F8311C83461C980DF042F8011C8C
:1032000058460DF027F8011C50460DF023F84946AA
:10321000E06026980DF035F84146824627980DF07B
:1032200030F8011C50460DF015F802998246289896
:103230000DF027F80399834629980DF022F8011C18
:1032400058460DF007F8011C50460DF003F8391CE4
:10325000824624980DF015F80199834625980DF0C3
:1032600010F8011C58460CF0F5FF311C83462398DA
:103270000DF007F8011C58460CF0ECFF011C5046FD
:103280000CF0E8FF2D99206148460CF0FAFF2E99CA
:10329000814640460CF0F5FF011C48460CF0DAFF71
:1032A0002F99804602980CF0ECFF309981460398E4
:1032B0000CF0E7FF011C48460CF0CCFF011C404617
:1032C0000CF0C8FF391C80462B980CF0DAFF2C99C3
:1032D000071C01980CF0D5FF011C381C0CF0BAFF3C
:1032E000311C071C2A980CF0CCFF011C381C0CF078
:1032F000B1FF011C40460CF0ADFF0A9B1C3560611C
:103300001834AB4200D08BE6379B1A686293089260
:103310009A6909921A6B0A929A6C0B921A6E0C9225
:103320009A6F0D9290229A580E925A680F92DA690B
:1033300010925A6B1192DA6C12925A6E1392DA6FE3
:10334000149294229A5815929A6816921A6A1792B1
:103350009A6B18921A6D19929A6E1A9280229A5844
:103360001B9298229A581C92DA681D925A6A1E92F1
:10337000DA6B1F925A6D2092DA6E219284229A584B
:1033800022929C229A5823921A6924929A6A259230
:103390001A6C26929A6D059C27921A6F20342892F7
:1033A00088229A58A1462992A0229A582A925A69AC
:1033B0002B92DA6A2C925A6C2D92DA6D2E925A6FF9
:1033C0002F928C229A583092A4229B5831935CAB56
:1033D00006933EAB0793329B98464346424641468E
:1033E00040461B6895690193069B146B096E926CAD
:1033F00040CB876F0291101C0B99039206930CF03F
:1034000040FF0C99824602980CF03BFF011C50468D
:103410000CF020FF0D998246381C0CF032FF0E99FB
:103420008346301C0CF02DFF011C58460CF012FF97
:10343000011C50460CF00EFF09998246281C0CF026
:1034400020FF0A998346201C0CF01BFF011C5846E4
:103450000CF000FF0899834601980CF012FF011C44
:1034600058460CF0F7FE011C50460CF0F3FE4B469C
:103470001299186003980CF004FF13998246029881
:103480000CF0FFFE011C50460CF0E4FE149982463D
:10349000381C0CF0F6FE15998346301C0CF0F1FE3A
:1034A000011C58460CF0D6FE011C50460CF0D2FE12
:1034B00010998246281C0CF0E4FE11998346201CCA
:1034C0000CF0DFFE011C58460CF0C4FE0F99834639
:1034D00001980CF0D6FE011C58460CF0BBFE011CF6
:1034E00050460CF0B7FE4B461999586003980CF003
:1034F000C8FE1A99824602980CF0C3FE011C504681
:103500000CF0A8FE1B998246381C0CF0BAFE1C99E0
:103510008346301C0CF0B5FE011C58460CF09AFE98
:10352000011C50460CF096FE17998246281C0CF0A0
:10353000A8FE18998346201C0CF0A3FE011C5846D7
:103540000CF088FE1699834601980CF09AFE011C37
:1035500058460CF07FFE011C50460CF07BFE4B469B
:103560002099986003980CF08CFE2199824602986D
:103570000CF087FE011C50460CF06CFE229982462E
:10358000381C0CF07EFE23998346301C0CF079FE2B
:10359000011C58460CF05EFE011C50460CF05AFE11
:1035A0001E998246281C0CF06CFE1F998346201C35
:1035B0000CF067FE011C58460CF04CFE1D9983462A
:1035C00001980CF05EFE011C58460CF043FE011CF5
:1035D00050460CF03FFE4B462799D86003980CF0FC
:1035E00050FE2899824602980CF04BFE011C504672
:1035F0000CF030FE29998246381C0CF042FE2A99C4
:103600008346301C0CF03DFE011C58460CF022FE97
:10361000011C50460CF01EFE25998246281C0CF019
:1036200030FE26998346201C0CF02BFE011C5846C8
:103630000CF010FE2499834601980CF022FE011C28
:1036400058460CF007FE011C50460CF003FE4B469A
:103650002E99186103980CF014FE2F998246029857
:103660000CF00FFE011C50460CF0F4FD3099824620
:10367000381C0CF006FE3199071C301C0CF001FEC2
:10368000011C381C0CF0E6FD011C50460CF0E2FD5C
:103690002C99061C281C0CF0F4FD2D99051C201CEF
:1036A0000CF0EFFD011C281C0CF0D4FD2B99041C20
:1036B00001980CF0E6FD011C201C0CF0CBFD011C58
:1036C000301C0CF0C7FD4B46586104239C46143354
:1036D000E0449C46079BE144984500D07DE6339B3F
:1036E000059DDC68296A20680CF0B4FD049EA96B76
:1036F000306060680CF0AEFD7060A068296D0CF061
:10370000A9FDB060E068A96E0CF0A4FD8023F06014
:103710002069E95898460CF09DFD98233061E958DE
:1037200060690CF097FD7061A069696A0CF092FD08
:10373000B061E069E96B0CF08DFDF061206A696DA4
:103740000CF088FD3062E96E606A0CF083FD84271E
:103750007062A06AE9590CF07DFD9C23B062E958C3
:10376000E06A0CF077FDF062206BA96A0CF072FD44
:103770003063606B296C0CF06DFD7063A06BA96DFC
:103780000CF068FDB063E06B296F0CF063FDF06333
:103790008826206CA9590CF05DFD049B1864A023B9
:1037A000606CE9580CF056FD049BE96A5864A06C03
:1037B0000CF050FD049B696C9864E06C0CF04AFDC1
:1037C000049BE96DD864206D0CF044FD049B696F87
:1037D0001865606D0CF03EFD8C25049A059B5065C4
:1037E000A06D59590CF036FDA423049A9065059AF2
:1037F000E06DD1580CF02EFD049B059AD865116B35
:10380000206E0CF027FD049B059A1866916C606E83
:103810000CF020FD049B059A5866A06E116E0CF00A
:1038200019FD049B059A9866E06E916F0CF012FDED
:10383000049B059AD8669023206FD1580CF00AFD9E
:10384000049B059A1867A823606FD1580CF002FDFD
:10385000049B059A5867A16F506B0CF0FBFC049B0E
:10386000059A9867E16FD06C0CF0F4FC4146049B1C
:10387000059AD8676158506E0CF0ECFC4146049BE9
:10388000059A5850E159D06F0CF0E4FC049BD851D4
:103890009423059FA159F8580CF0DCFC049B985127
:1038A000AC236159F8580CF0D5FC049B585199236E
:1038B0009B009D44F0BCBB46B246A946A046F0BD65
:1038C000F0B5DE4657464E4645460400E0B503696E
:1038D00087B0580063694008590049080CF0BAFCE9
:1038E000E368590049080CF0B5FC6368051C5800F2
:1038F000A3684008590049080CF0ACFC2368590043
:1039000049080CF0A7FC011C281C0CF0A3FCA36ABE
:10391000051C5800E36A4008590049080CF09AFC5D
:10392000636A590049080CF095FCE369061C5800CD
:10393000236A4008590049080CF08CFCA36959001F
:1039400049080CF087FC011C301C0CF083FC236C34
:10395000071C5800636C4008590049080CF07AFCB9
:10396000E36B590049080CF075FC636B061C5800AA
:10397000A36B4008590049080CF06CFC236B5900FC
:1039800049080CF067FC011C301C0CF063FC061CA1
:10399000011C381C0CF0ACFC002800D13E1C311C72
:1039A000281C0CF0A5FC002800D12E1CA36D58008B
:1039B000E36D4008590049080CF04CFC636D590058
:1039C00049080CF047FCE36C051C5800236D4008C7
:1039D000590049080CF03EFCA36C590049080CF052
:1039E00039FC011C281C0CF035FC236F071C580007
:1039F000636F4008590049080CF02CFCE36E590035
:103A000049080CF027FC636E051C5800A36E4008A3
:103A1000590049080CF01EFC236E590049080CF0AF
:103A200019FC011C281C0CF015FC88238046E0586A
:103A30000433E15840004900490840080CF00AFCF2
:103A40008423E158490049080CF004FCE36F051C8D
:103A500058008023E1584008490049080CF0FAFB5F
:103A6000A36F590049080CF0F5FB011C281C0CF051
:103A7000F1FB051C011C40460CF03AFC002800D16B
:103A80004546291C381C0CF033FC002800D13D1C95
:103A9000291C301C0CF02CFC002800D1351CC02344
:103AA0002100E55001AABA3B02A8A8310493029470
:103AB000FCF776FE0121C422019B98260B405B4255
:103AC0008B430133A354343A9246002250469C273C
:103AD00022509432A1509346923AA2510132E251BF
:103AE0009D32944660469C3A2250A03291469F3ABD
:103AF00090464A4640462300A05048461832A258F5
:103B0000903392009A181568255040461060604620
:103B1000B8222058A2588046604692009A1815682C
:103B2000255040461060B422E059A25884469200C5
:103B30009A1810685D46E05160461060B022A258A5
:103B4000A75992009A181068A0511760AC225846E5
:103B5000A258265892009A18106860511660A82240
:103B6000A258554692009B1852461868A2586051B8
:103B70001A60C523E15407B0F0BCBB46B246A94663
:103B8000A046F0BDC023002210B5C250002204336D
:103B9000C2520B68040003604B6843608B6883600B
:103BA000CB68C3600B6903614B6943618B698361B7
:103BB000CB69C3610B6A03624B6A43628B6A83629F
:103BC000CB6AC3620B6B03634B6B43638B6B836387
:103BD000CB6BC3630B6C03644B6C43648B6C83646F
:103BE000CB6CC3640B6D03654B6D43658B6D836557
:103BF000CB6DC3650B6E03664B6E43668B6E83663F
:103C0000CB6EC3660B6F03674B6F43678B6F836726
:103C1000CB6FC3678023CA58C2500433CA58C250FE
:103C20000433CA58C2500433CA58C250FFF748FE82
:103C3000200010BDF0B5DE464E4645465746E0B57D
:103C4000214C9146A5443AAA94460A0031931F4B51
:103C50003B9063441B091B013A919846D3AB13CAAE
:103C600013C313CA13C31268D3A91A60184B194A95
:103C70001B6847A80493184B47AC1B680193174B6C
:103C80001B6805930093049BFEF790FF47ABD3930B
:103C90004B46D49347ABD5933AAA832394468620C8
:103CA0001B0163441B68C0004044A2AAD3A9D69359
:103CB0000990FFF735F96BAB089343460A934B46DF
:103CC0003094A1461C000BE014F7FFFF47030000EF
:103CD000C02103200AE81C41B8210320BC21032095
:103CE0004B464E461B68B76F0493089B494640CB32
:103CF00048464A460893A823896C006E9569126B62
:103D000006910790E158301C05920CF0BAFA8C230A
:103D10008246E158381C0CF0B4FA011C50460CF0F5
:103D200099FA216F824607980CF0ABFA616D8346D1
:103D300006980CF0A6FA011C58460CF08BFA011CF0
:103D400050460CF087FAA16B824605980CF099FA60
:103D5000E1698346281C0CF094FA011C58460CF0CB
:103D600079FA2168834604980CF08BFA011C5846B6
:103D70000CF070FA011C50460CF06CFA43461860C7
:103D8000AC23301CE1580CF07CFA90238246E158B9
:103D9000381C0CF076FA011C50460CF05BFA616F8F
:103DA000824607980CF06DFAA16D834606980CF0D8
:103DB00068FA011C58460CF04DFA011C50460CF0F4
:103DC00049FAE16B824605980CF05BFA216A83465A
:103DD000281C0CF056FA011C58460CF03BFA61689E
:103DE000834604980CF04DFA011C58460CF032FA48
:103DF000011C50460CF02EFA43465860B023301C8C
:103E0000E1580CF03EFA94238246E158381C0CF03D
:103E100038FA011C50460CF01DFAA16F8246079833
:103E20000CF02FFAE16D834606980CF02AFA011C7B
:103E300058460CF00FFA011C50460CF00BFA216C9E
:103E4000824605980CF01DFA616A8346281C0CF026
:103E500018FA011C58460CF0FDF9A1688346049835
:103E60000CF00FFA011C58460CF0F4F9011C5046F6
:103E70000CF0F0F943469860B423301CE1580CF084
:103E800000FA98238246E158381C0CF0FAF9011C1C
:103E900050460CF0DFF9E16F824607980CF0F1F91B
:103EA000216E834606980CF0ECF9011C58460CF084
:103EB000D1F9011C50460CF0CDF9616C8246059891
:103EC0000CF0DFF9A16A8346281C0CF0DAF9011C1A
:103ED00058460CF0BFF9E168834604980CF0D1F91C
:103EE000011C58460CF0B6F9011C50460CF0B2F912
:103EF0004346D860B823301CE1580CF0C2F99C232B
:103F00008246E158381C0CF0BCF9011C50460CF0FC
:103F1000A1F980238246E15807980CF0B2F9616E4E
:103F2000834606980CF0ADF9011C58460CF092F946
:103F3000011C50460CF08EF9A16C824605980CF0DD
:103F4000A0F9E16A8346281C0CF09BF9011C584635
:103F50000CF080F92169834604980CF092F9011C59
:103F600058460CF077F9011C50460CF073F94346A3
:103F70001861BC23301CE1580CF083F9A023824661
:103F8000E158381C0CF07DF9011C50460CF062F928
:103F900084238246E15807980CF073F9A16E83469A
:103FA00006980CF06EF9011C58460CF053F9011CF0
:103FB00050460CF04FF9E16C824605980CF061F91F
:103FC000216B8346281C0CF05CF9011C58460CF050
:103FD00041F96169834604980CF053F9011C584675
:103FE0000CF038F9011C50460CF034F94346E16EF0
:103FF000586106980CF045F988238246E1580798E5
:104000000CF03FF9011C50460CF024F9A423824621
:10401000E158381C0CF035F9C023071CE158301C5E
:104020000CF02FF9011C381C0CF014F9011C50463F
:104030000CF010F9616B061C281C0CF022F9216DA4
:10404000051C05980CF01DF9011C281C0CF002F948
:10405000A169051C04980CF014F9011C281C0CF033
:10406000F9F8011C301C0CF0F5F843469861042364
:104070009C461833E1449C464DABE0444B4500D090
:104080002EE60A9BA146D8249846A427A4004444BF
:10409000BF00474420000999FFF774FD21009022DA
:1040A0003800C8240CF084FBFC21A400444489009F
:1040B0004144182220000CF07BFBCE20812180009F
:1040C000C9004144182240440CF072FB8422D423DE
:1040D000D200424412689B0043441A60D523874AA9
:1040E0004546424412889B004344FE211A80002327
:1040F0002268B0359200AA18890511609361136394
:10410000936413669367C92292004244126844463E
:104110009200AA1813609161136393641366936706
:10412000CA2292004244126806269200AA1813601E
:1041300093611163936413669367CB2292004244A8
:10414000126806209200AA181360936113639164A9
:1041500013669367CC229200424412689200AA1818
:10416000136093611363936411669367CD22920089
:10417000424412689200AA18136093611363936417
:104180001366A8235B009B46916742465946E41894
:1041900020334344A660E66026615350802292009B
:1041A00042444B396260924604933A0006230294DB
:1041B000FF3901960095FDF7D9FA42465946049B0E
:1041C000A660E6602661535053464B3963603A005F
:1041D00006230294062001960095FF39FCF72AFF7A
:1041E00043461B688C2207934346DB69D3AC089394
:1041F00043469B6B099343465B6D0A9343461B6F93
:104200000B9343469B5804320C9343465B681793C9
:1042100043461B6A18934346DB6B0D9343469B6DE5
:104220000E9343465B6F0F9343469B5804321093A3
:1042300043469B68119343465B6A129343461B6C4B
:1042400013934346DB6D149343469B6F159343468C
:104250009B58043216934346DB68199343469B6A86
:10426000069343465B6C1A9343461B6E1B9343466F
:10427000DB6F1C9343469B58183A1D9343461B69BA
:104280001E934346DB6A1F9343469B6C2093434631
:104290005B6E219343469B581C32229343469B58A6
:1042A000183A239343465B69249343461B6B25933B
:1042B0004346DB6C269343469B6E279343469B58AD
:1042C0001C32289343469B58183A299343469B69CE
:1042D0002A9343465B6B2B9343461B6D2C934346BB
:1042E000DB6E2D9343469B581C322E9343469B58BE
:1042F000A8462F934B46329302E0C04624040000A8
:1043000043461F685B6842469946434641469B6860
:10431000D2680E694D6908984946049305920BF0DE
:10432000B0FF0499824609980BF0ABFF011C504680
:104330000BF090FF391C824607980BF0A2FF011C7E
:1043400050460BF087FF311C82460B980BF099FF0B
:10435000291C83460C980BF094FF011C58460BF067
:1043600079FF059983460A980BF08BFF011C58468C
:104370000BF070FF011C50460BF06CFF49462060AB
:1043800018980BF07EFF049982460D980BF079FF88
:10439000011C50460BF05EFF391C824617980BF04B
:1043A00070FF011C50460BF055FF311C82460F98E0
:1043B0000BF067FF291C834610980BF062FF011C6D
:1043C00058460BF047FF059983460E980BF059FFAE
:1043D000011C58460BF03EFF011C50460BF03AFF03
:1043E0004946606012980BF04CFF0499824613987E
:1043F0000BF047FF011C50460BF02CFF391C824686
:1044000011980BF03EFF011C50460BF023FF311CAE
:10441000824615980BF035FF291C834616980BF041
:1044200030FF011C58460BF015FF05998346149880
:104430000BF027FF011C58460BF00CFF011C5046E7
:104440000BF008FF4946A06006980BF01AFF04998C
:1044500082461A980BF015FF011C50460BF0FAFE2D
:10446000391C824619980BF00CFF011C50460BF0CA
:10447000F1FE311C82461C980BF003FF291C834679
:104480001D980BF0FEFE011C58460BF0E3FE05994B
:1044900083461B980BF0F5FE011C58460BF0DAFE24
:1044A000011C50460BF0D6FE4946E0601F980BF009
:1044B000E8FE0499824620980BF0E3FE011C50466A
:1044C0000BF0C8FE391C82461E980BF0DAFE011C68
:1044D00050460BF0BFFE311C824622980BF0D1FEF5
:1044E000291C834623980BF0CCFE011C58460BF088
:1044F000B1FE0599834621980BF0C3FE011C584676
:104500000BF0A8FE011C50460BF0A4FE49462061AA
:1045100025980BF0B6FE0499824626980BF0B1FE62
:10452000011C50460BF096FE391C824624980BF075
:10453000A8FE011C50460BF08DFE311C82462898C7
:104540000BF09FFE291C834629980BF09AFE011C54
:1045500058460BF07FFE0599834627980BF091FE95
:10456000011C58460BF076FE011C50460BF072FE03
:10457000494660612B980BF084FE049981462C9883
:104580000BF07FFE011C48460BF064FE391C81468F
:104590002A980BF076FE011C48460BF05BFE311C9E
:1045A000071C2E980BF06DFE291C061C2F980BF093
:1045B00068FE011C301C0BF04DFE0599051C2D9862
:1045C0000BF05FFE011C281C0BF044FE011C381C84
:1045D0000BF040FE18239C46A061FDAB1C34E04468
:1045E000A34200D08CE6329BD49A9946D39BD599AE
:1045F000D69CD79DD89ED99F06930792DA9BDB9ACB
:1046000008910994DC99DD9C0A950B96DE9DDF9E4E
:104610000C970D93E09FE19B0E92E29A0F911094FC
:1046200011951296139714931592E399E49CE59DC6
:10463000E69EE79FE89BE99A16911794EA99EB9C0E
:1046400018951996EC9DED9E1A971B93EE9FEF9B84
:104650001C921D91F09AF1991E94F29C209621973C
:1046600022932392249125941F95F39DF49EF59F08
:10467000F79AF69BF899F99C26952796FA9DFB9E4A
:104680002897FC9F2A923A9A29932B912C942D9546
:104690002E962F97D3AB32CA32C332CA32C31168B7
:1046A000D3AC1960FD49FE4B09681B680191FD49B7
:1046B000FD4A09682000009141A9FDF7D7FF319F0D
:1046C000419938680BF0C3FD4299834678680BF036
:1046D000BEFD43998246B8680BF0B9FD4499041CAD
:1046E000F8680BF0B4FD4599051C38690BF0AFFD77
:1046F0004699061C78690BF0AAFD071C011C2A9834
:104700000BF0BFFD311C804623980BF0BAFD011C55
:1047100040460BF09FFD291C80461C980BF0B1FD14
:10472000011C40460BF096FD211C804615980BF0AD
:10473000A8FD514604900E980BF0A3FD011C0498AF
:104740000BF088FD5946049007980BF09AFD011C68
:1047500004980BF07FFD011C40460BF07BFD3A9A5C
:1047600051680BF077FD391C04902B980BF089FDF4
:10477000311C804624980BF084FD011C40460BF050
:1047800069FD291C80461D980BF07BFD011C4046ED
:104790000BF060FD211C804616980BF072FD51460F
:1047A00005900F980BF06DFD011C05980BF052FD64
:1047B0005946059008980BF064FD011C05980BF014
:1047C00049FD011C40460BF045FD3A9A91680BF0FB
:1047D00041FD391C05902C980BF053FD311C80468F
:1047E00025980BF04EFD011C40460BF033FD291CB3
:1047F00080461E980BF045FD011C40460BF02AFD3B
:10480000211C804617980BF03CFD514631901098C2
:104810000BF037FD011C31980BF01CFD594631900F
:1048200009980BF02EFD011C31980BF013FD011CB3
:1048300040460BF00FFD3A9AD1680BF00BFD391C86
:1048400031902D980BF01DFD311C804626980BF001
:1048500018FD011C40460BF0FDFC291C80461F98EA
:104860000BF00FFD011C40460BF0F4FC211C8046B0
:1048700018980BF006FD5146329011980BF001FD8F
:10488000011C32980BF0E6FC594632900A980BF066
:10489000F8FC011C32980BF0DDFC011C40460BF0CB
:1048A000D9FC3A9A11690BF0D5FC391C32902E983C
:1048B0000BF0E7FC311C804627980BF0E2FC011C52
:1048C00040460BF0C7FC291C804620980BF0D9FC11
:1048D000011C40460BF0BEFC211C804619980BF0D1
:1048E000D0FC5146339012980BF0CBFC011C33984E
:1048F0000BF0B0FC594633900B980BF0C2FC011C36
:1049000033980BF0A7FC011C40460BF0A3FC3A9A2D
:1049100051690BF09FFC5146339013980BF0B1FC9A
:10492000211C80461A980BF0ACFC011C40460BF091
:1049300091FC594680460C980BF0A3FC011C4046A4
:104940000BF088FC311C804628980BF09AFC391C2F
:1049500034902F980BF095FC011C34980BF07AFCE6
:10496000291C349021980BF08CFC011C34980BF01E
:1049700071FC011C40460BF06DFC3A9A91690BF0FA
:1049800069FC391C804629980BF07BFC311C071C04
:1049900022980BF076FC011C381C0BF05BFC291CE8
:1049A000061C1B980BF06DFC011C301C0BF052FC1C
:1049B000211C051C14980BF064FC5146041C0D9836
:1049C0000BF05FFC011C201C0BF044FC5946041C3E
:1049D00006980BF056FC011C201C0BF03BFC011C44
:1049E000281C0BF037FC3A9AD3AC11680BF032FC60
:1049F0003B9B049A18605A60059A9A60319ADA6073
:104A0000329A1A61339A5A6142469A614B461B6840
:104A10004A46A2934B465B68A3934B469B68A4937C
:104A20004B46DB68A5934B461B69A6934B465B69D7
:104A3000A7934B469B69A8934B46DB69A9934B46CA
:104A40001B6AAA934B465B6AAB934B469B6AAC933B
:104A50004B46DB6AAD934B461B6BAE934B465B6B91
:104A6000AF934B469B6BB0934B46DB6BB1934B467E
:104A70001B6CB2934B465B6CB3934B469B6CB493ED
:104A80004B46DB6CB5934B461B6DB6934B465B6D4B
:104A9000B7934B469B6DB8934B4607E0B821032074
:104AA000C0210320BC2103200AE81C41DB6DB9931F
:104AB0004B461B6EBA934B465B6EBB934B469B6E4D
:104AC000BC934B46DB6EBD934B461B6FBE934B4670
:104AD0005B6FBF934B469B6FC0934B46DB6FC1939D
:104AE0008023D358C2938423D358C3938823D358A5
:104AF000C4938C23D358C5939023D358C69394233F
:104B0000D358C7939823D358C8939C23D358C99399
:104B1000A023D358CA93A423D358CB93A823D35804
:104B2000CC93AC23D358CD93B023D358CE93B42396
:104B3000D358CF93B823D358D093BC23D358D19311
:104B4000C023D358D293309B3092984643461F6877
:104B50005B6842469946434641469B68D2680E6967
:104B60004D690D984946049305920BF08AFB049910
:104B7000824614980BF085FB011C50460BF06AFB33
:104B8000391C824606980BF07CFB011C50460BF04A
:104B900061FB311C824622980BF073FB291C834673
:104BA00029980BF06EFB011C58460BF053FB05993E
:104BB00083461B980BF065FB011C58460BF04AFB23
:104BC000011C50460BF046FB494620600E980BF046
:104BD00058FB0499824615980BF053FB011C504674
:104BE0000BF038FB391C824607980BF04AFB011C7E
:104BF00050460BF02FFB311C824623980BF041FBF3
:104C0000291C83462A980BF03CFB011C58460BF0EC
:104C100021FB059983461C980BF033FB011C584679
:104C20000BF018FB011C50460BF014FB494660606A
:104C30000F980BF026FB0499824616980BF021FB87
:104C4000011C50460BF006FB391C824608980BF0FD
:104C500018FB011C50460BF0FDFA311C82462498CB
:104C60000BF00FFB291C83462B980BF00AFB011C51
:104C700058460BF0EFFA059983461D980BF001FB9F
:104C8000011C58460BF0E6FA011C50460BF0E2FA04
:104C90004946A06010980BF0F4FA049982461798E0
:104CA0000BF0EFFA011C50460BF0D4FA391C824687
:104CB00009980BF0E6FA011C50460BF0CBFA311CB8
:104CC000824625980BF0DDFA291C83462C980BF0C0
:104CD000D8FA011C58460BF0BDFA059983461E9878
:104CE0000BF0CFFA011C58460BF0B4FA011C5046E9
:104CF0000BF0B0FA4946E06011980BF0C2FA049943
:104D0000824618980BF0BDFA011C50460BF0A2FA2F
:104D1000391C82460A980BF0B4FA011C50460BF07D
:104D200099FA311C824626980BF0ABFA291C83466F
:104D30002D980BF0A6FA011C58460BF08BFA05993A
:104D400083461F980BF09DFA011C58460BF082FA1F
:104D5000011C50460BF07EFA4946206112980BF078
:104D600090FA0499824619980BF08BFA011C504670
:104D70000BF070FA391C82460B980BF082FA011C7A
:104D800050460BF067FA311C824627980BF079FAEF
:104D9000291C83462E980BF074FA011C58460BF020
:104DA00059FA0599834620980BF06BFA011C584676
:104DB0000BF050FA011C50460BF04CFA494660616A
:104DC00013980BF05EFA049981461A980BF059FA81
:104DD000011C48460BF03EFA391C81460C980BF03A
:104DE00050FA011C48460BF035FA311C071C289874
:104DF0000BF047FA291C061C2F980BF042FA011CF5
:104E0000301C0BF027FA0599051C21980BF039FA94
:104E1000011C281C0BF01EFA011C381C0BF01AFA9E
:104E200018239C46FFABA06114331C34E044A3421A
:104E300000D08BE6309BA2AD99463C93C4234C46F0
:104E4000C8464B44089307944246D26843464146BD
:104E5000914642469E694C68096892685F691B6981
:104E60000491301CFD99069305920BF00AFAF6990D
:104E70008246381C0BF005FA011C50460BF0EAF98B
:104E8000EF99824606980BF0FCF9E899834648466C
:104E90000BF0F7F9011C58460BF0DCF9011C5046E9
:104EA0000BF0D8F9E199824605980BF0EAF9DA9906
:104EB0008346201C0BF0E5F9011C58460BF0CAF99B
:104EC000D399834604980BF0DCF9011C58460BF08B
:104ED000C1F9011C50460BF0BDF9011C28680BF00C
:104EE000B6F92860FE99301C0BF0CBF9F799824691
:104EF000381C0BF0C6F9011C50460BF0ABF9F099C9
:104F0000824606980BF0BDF9E999834648460BF0B6
:104F1000B8F9011C58460BF09DF9011C50460BF0E6
:104F200099F9E299824605980BF0ABF9DB99834633
:104F3000201C0BF0A6F9011C58460BF08BF9D499F4
:104F4000834604980BF09DF9011C58460BF082F93A
:104F5000011C50460BF07EF9011C68680BF077F9D4
:104F6000FF996860301C0BF08CF9F8998246381C68
:104F70000BF087F9011C50460BF06CF9F199824651
:104F800006980BF07EF9EA99834648460BF079F9CA
:104F9000011C58460BF05EF9011C50460BF05AF903
:104FA000E399824605980BF06CF9DC998346201C46
:104FB0000BF067F9011C58460BF04CF9D599834664
:104FC00004980BF05EF9011C58460BF043F9011CE4
:104FD00050460BF03FF9011CA8680BF038F9FFAB05
:104FE0005968A860301C04330BF04BF9F9998246DC
:104FF000381C0BF046F9011C50460BF02BF9F299C6
:10500000824606980BF03DF9EB99834648460BF033
:1050100038F9011C58460BF01DF9011C50460BF0E5
:1050200019F9E499824605980BF02BF9DD9983462E
:10503000201C0BF026F9011C58460BF00BF9D699F1
:10504000834604980BF01DF9011C58460BF002F939
:10505000011C50460BF0FEF8011CE8680BF0F7F855
:10506000FFAB9968E860301C08330BF00AF9FA9935
:105070008246381C0BF005F9011C50460BF0EAF88B
:10508000F399824606980BF0FCF8EC998346484663
:105090000BF0F7F8011C58460BF0DCF8011C5046E9
:1050A0000BF0D8F8E599824605980BF0EAF8DE99FE
:1050B0008346201C0BF0E5F8011C58460BF0CAF89B
:1050C000D799834604980BF0DCF8011C58460BF086
:1050D000C1F8011C50460BF0BDF8011C28690BF00B
:1050E000B6F8FFABD9682861301C0C330BF0C9F857
:1050F000FB998246381C0BF0C4F8011C50460BF09B
:10510000A9F8F499824606980BF0BBF8ED9983460E
:1051100048460BF0B6F8011C58460BF09BF8011CF2
:1051200050460BF097F8E699824605980BF0A9F8DF
:10513000DF998346201C0BF0A4F8011C58460BF0A5
:1051400089F8D899834604980BF09BF8011C5846BF
:105150000BF080F8011C50460BF07CF8011C6869CC
:105160000BF075F8EE99686148460BF08AF8F599EE
:10517000814606980BF085F8011C48460BF06AF84A
:10518000FC998146381C0BF07CF8FFAB1969071CB1
:10519000301C10330BF075F8011C381C0BF05AF85A
:1051A000011C48460BF056F8E099061C201C0BF039
:1051B00068F8E799041C05980BF063F8011C201CA3
:1051C0000BF048F8D999041C04980BF05AF8011C0C
:1051D000201C0BF03FF8011C301C0BF03BF8011CAD
:1051E000A8690BF034F81C239C46089BE044A86196
:1051F0001C35984500D027E6079BA29A99461A606D
:10520000A39A5A60A49A9A60A59ADA60A69A1A613B
:10521000A79A5A61A89A9A61A99ADA61AA9A1A6217
:10522000AB9A5A62AC9A9A62AD9ADA62AE9A1A63F3
:10523000AF9A5A63B09A9A63B19ADA63B29A1A64CF
:10524000B39A5A64B49A9A64B59ADA64B69A1A65AB
:10525000B79A5A65B89A9A65B99ADA65BA9A1A6687
:10526000BB9A5A66BC9A9A66BD9ADA66BE9A1A6763
:10527000BF9A5A67C09A9A67C19ADA674A468023EA
:10528000C299D150C3990433D150C4990433D15039
:10529000C5990433D150C6990433D150C79904330A
:1052A000D150C8990433D150C9990433D150CA9907
:1052B0000433D150CB990433D150CC990433D1501D
:1052C000CD990433D150CE990433D150CF990433C2
:1052D000D150D0990433D150D1990433D150D299BF
:1052E0000433D1503AAA94464F4BA2AA63441B6898
:1052F00013CB13C24D4BD3AC63441B6807CB07C41D
:105300003A9B3B9D00934A4B28006344A2A91B682B
:10531000D3AAFDF789F82B00D3AA23CB23C213CB42
:1053200013C23AA91B688C4613603EAA11003E4B7B
:1053300063441B6831CB31C13C4BA2A963441B6859
:1053400031CB31C13A4BD3A963441B6871A8009398
:10535000A2ABFDF7CFFAD3AB07931C00719B099367
:10536000789B10937F9B1793869B1E938D9B259311
:10537000949B2C939B9B3393729B0A93799B1193E1
:10538000809B1893879B1F938E9B2693959B2D93B1
:105390009C9B3493739B0B937A9B1293819B1993E1
:1053A000889B20938F9B2793969B2E939D9B359351
:1053B000749B0C937B9B1393829B1A93899B2193E1
:1053C000909B2893979B2F939E9B3693759B0D9351
:1053D0007C9B1493839B1B938A9B2293919B299381
:1053E000989B30939F9B3793769B0E937D9B159351
:1053F000849B1C938B9B2393929B2A93999B319321
:10540000A09B3893779B0F937E9B1693859B1D9350
:105410008C9B2493939B2B939A9B3293A19B3C9DB3
:1054200039934B463C9305E02808000038080000FB
:105430003C080000E868AE698146A96828692B68C5
:105440006A6880460691301C3399049305920AF0ED
:1054500018FF6F6982462C99381C0AF012FF011C54
:1054600050460AF0F7FE2599824640460AF009FFA9
:105470001E99834648460AF004FF011C58460AF06C
:10548000E9FE011C50460AF0E5FE1799824606988F
:105490000AF0F7FE1099834605980AF0F2FE011C07
:1054A00058460AF0D7FE0999834604980AF0E9FEA7
:1054B000011C58460AF0CEFE011C50460AF0CAFEF6
:1054C00034992060301C0AF0DCFE2D998246381C8D
:1054D0000AF0D7FE011C50460AF0BCFE269982460F
:1054E00040460AF0CEFE1F99834648460AF0C9FEA0
:1054F000011C58460AF0AEFE011C50460AF0AAFEF6
:105500001899824606980AF0BCFE119983460598C0
:105510000AF0B7FE011C58460AF09CFE0A99834621
:1055200004980AF0AEFE011C58460AF093FE011CD6
:1055300050460AF08FFE35996060301C0AF0A1FEDB
:105540002E998246381C0AF09CFE011C50460AF037
:1055500081FE2799824640460AF093FE20998346B1
:1055600048460AF08EFE011C58460AF073FE011CE4
:1055700050460AF06FFE1999824606980AF081FE9D
:105580001299834605980AF07CFE011C58460AF0E1
:1055900061FE0B99834604980AF073FE011C58467D
:1055A0000AF058FE011C50460AF054FE3699A060DD
:1055B000301C0AF066FE2F998246381C0AF061FE04
:1055C000011C50460AF046FE2899824640460AF0E1
:1055D00058FE2199834648460AF053FE011C58465E
:1055E0000AF038FE011C50460AF034FE1A99824631
:1055F00006980AF046FE1399834605980AF041FE84
:10560000011C58460AF026FE0C99834604980AF0BD
:1056100038FE011C58460AF01DFE011C50460AF0D7
:1056200019FE3799E060301C0AF02BFE3099824653
:10563000381C0AF026FE011C50460AF00BFE299980
:10564000824640460AF01DFE2299834648460AF0EB
:1056500018FE011C58460AF0FDFD011C50460AF0D8
:10566000F9FD1B99824606980AF00BFE14998346B1
:1056700005980AF006FE011C58460AF0EBFD0D994C
:10568000834604980AF0FDFD011C58460AF0E2FD2D
:10569000011C50460AF0DEFD38992061301C0AF0EA
:1056A000F0FD31998246381C0AF0EBFD011C504692
:1056B0000AF0D0FD2A99824640460AF0E2FD23997D
:1056C000834648460AF0DDFD011C58460AF0C2FD3B
:1056D000011C50460AF0BEFD1C99824606980AF04D
:1056E000D0FD1599834605980AF0CBFD011C58465C
:1056F0000AF0B0FD0E99834604980AF0C2FD011C21
:1057000058460AF0A7FD011C50460AF0A3FD494681
:10571000606124980AF0B5FD414681462B980AF055
:10572000B0FD011C48460AF095FD391C80463298B0
:105730000AF0A7FD311C071C39980AF0A2FD011CD4
:10574000381C0AF087FD011C40460AF083FD0599CC
:10575000061C16980AF095FD0699071C1D980AF07C
:1057600090FD011C381C0AF075FD0499071C0F9868
:105770000AF087FD011C381C0AF06CFD011C301C6E
:105780000AF068FD089B1C35A0611C349D4200D0C6
:1057900050E63C9BA2AC9946F6AB0693DAAB089375
:1057A0004B463C943D93079B586D1A688146996B14
:1057B000186F0492069A8046059148461E99DD6945
:1057C0001768D6690AF05DFD2599824640460AF0C1
:1057D00058FD011C50460AF03DFD2C998246381CAC
:1057E0000AF04FFD33998346301C0AF04AFD011C34
:1057F00058460AF02FFD011C50460AF02BFD109967
:105800008246281C0AF03DFD1799834605980AF048
:1058100038FD011C58460AF01DFD0999834604987D
:105820000AF02FFD011C58460AF014FD011C5046D9
:105830000AF010FD20601F9948460AF022FD2699C3
:10584000824640460AF01DFD011C50460AF002FD4A
:105850002D998246381C0AF014FD34998346301C79
:105860000AF00FFD011C58460AF0F4FC011C5046DA
:105870000AF0F0FC11998246281C0AF002FD1899E2
:10588000834605980AF0FDFC011C58460AF0E2FC2C
:105890000A99834604980AF0F4FC011C58460AF061
:1058A000D9FC011C50460AF0D5FC2099606048469E
:1058B0000AF0E7FC2799824640460AF0E2FC011C08
:1058C00050460AF0C7FC2E998246381C0AF0D9FCD3
:1058D00035998346301C0AF0D4FC011C58460AF066
:1058E000B9FC011C50460AF0B5FC12998246281CEE
:1058F0000AF0C7FC1999834605980AF0C2FC011CFE
:1059000058460AF0A7FC0B99834604980AF0B9FCA4
:10591000011C58460AF09EFC011C50460AF09AFCF5
:105920002199A06048460AF0ACFC2899824640467E
:105930000AF0A7FC011C50460AF08CFC2F99824605
:10594000381C0AF09EFC36998346301C0AF099FCFC
:10595000011C58460AF07EFC011C50460AF07AFCF5
:1059600013998246281C0AF08CFC1A9983460598E4
:105970000AF087FC011C58460AF06CFC0C9983461F
:1059800004980AF07EFC011C58460AF063FC011CD6
:1059900050460AF05FFC2299E06048460AF071FC2C
:1059A0002999824640460AF06CFC011C50460AF0D8
:1059B00051FC30998246381C0AF063FC37998346C3
:1059C000301C0AF05EFC011C58460AF043FC011C26
:1059D00050460AF03FFC14998246281C0AF051FCFC
:1059E0001B99834605980AF04CFC011C58460AF0A6
:1059F00031FC0D99834604980AF043FC011C58467B
:105A00000AF028FC011C50460AF024FC239920616E
:105A100048460AF036FC2A99824640460AF031FC94
:105A2000011C50460AF016FC31998246381C0AF0D7
:105A300028FC38998346301C0AF023FC011C584688
:105A40000AF008FC011C50460AF004FC1599824635
:105A5000281C0AF016FC1C99834605980AF011FCD4
:105A6000011C58460AF0F6FB0E99834604980AF08A
:105A700008FC011C58460AF0EDFB011C50460AF0D8
:105A8000E9FB4946606124980AF0FBFB41468146E8
:105A90002B980AF0F6FB011C48460AF0DBFB391C88
:105AA000804632980AF0EDFB311C071C39980AF049
:105AB000E8FB011C381C0AF0CDFB011C40460AF033
:105AC000C9FB291C061C16980AF0DBFB0599051C6E
:105AD0001D980AF0D6FB011C281C0AF0BBFB049998
