:020000041000EA
:1000000000B5324B212058609868022188439860DF
:10001000D860186158612E4B002199600221596106
:100020000121F02299502B49196001219960352056
:1000300000F044F80222904214D00621196600F024
:1000400034F8196E01211966002018661A6600F04E
:100050002CF8196E196E196E052000F02FF8012189
:100060000842F9D1002199601B49196000215960AB
:100070001A491B48016001219960EB211966A021F2
:10008000196600F012F800219960164914480160C1
:100090000121996001BC002800D000471248134993
:1000A000086003C880F30888084703B5996A0420EC
:1000B0000142FBD001200142F8D103BD02B5186610
:1000C0001866FFF7F2FF186E186E02BD00000240BE
:1000D000000000180000070000035F00212200005C
:1000E000F4000018222000A00001001008ED00E03C
:1000F00000000000000000000000000074B24E7A12
:1001000000200420F7010010C3010010C5010010F9
:10011000C1010010C1010010C1010010C101001097
:10012000C1010010C1010010C1010010C701001081
:10013000C1010010C1010010C9010010CB01001065
:10014000CD010010CD010010CD010010CD01001037
:10015000CD010010CD010010CD010010CD01001027
:10016000CD010010CD010010CD010010CD01001017
:10017000CD010010CD010010CD010010CD01001007
:10018000CD010010CD010010CD010010CD010010F7
:10019000CD010010CD010010CD010010CD010010E7
:1001A000CD010010CD010010CD010010CD010010D7
:1001B000CD010010CD010010CD010010CD010010C7
:1001C00000BE00BE00BE00BE00BE00BEEFF3058054
:1001D000103800BEF2EB88716441051084410510AF
:1001E0003402001090A31AE700201F49086006C8D7
:1001F00081F3088810471D48006800282FD10DA4FE
:100200000ECC002902D000F012F8F9E71849194A7B
:10021000002000E001C19142FCD1174988471749ED
:1002200088471749884700BEFDE701C901C29A42C5
:10023000FBD3704784410510C0000020902C0020A3
:10024000546D05100000042000000420546D0510BA
:10025000001004200010042000000000704709482E
:100260000DF0E4F80047000008ED00E0000000D0C9
:10027000902C0020B858032021BC0010550300101A
:1002800055BD00105756000006005250ABB36053E6
:10029000389D041006005250861C0302489D04102D
:1002A000060052505422A29D549D04100500525045
:1002B000DE65F468546D0510F8B5C0460448054B7A
:1002C00010B5834203D0044B002B00D0984710BDDB
:1002D000902C0020902C00200000000006480749C8
:1002E000091A8B10C90FC91810B5491003D0044B57
:1002F000002B00D0984710BD902C0020902C00209F
:100300000000000010B5074C2378002B09D1FFF73F
:10031000D5FF054B002B02D0044800E000BF0123AD
:10032000237010BDD8300020000000006098041039
:10033000054B10B5002B03D00449054800E000BF71
:10034000FFF7CCFF10BDC04600000000DC300020ED
:100350006098041070B5192009F02EFFD023802278
:100360001B0692045A620EF0D1FF00F047F806F027
:1003700013FD08F01DF906F0D5FF09F0A9FA0022D7
:100380000524144B1A7006F0B5F9134D013C2100F9
:1003900028000EF0AFFFFA2080000AF01DFD002CAF
:1003A000F4D10A200EF006FE012200210B480AF0CB
:1003B000DBF90B4811F05AF901220A4B0A4C1A706A
:1003C0002378012BFCD108F0AFFA2378012BFAD067
:1003D000F6E7C0469C58032060980410D0570320CD
:1003E0006D8B00109B580320A058032010B50248C5
:1003F00011F064FC10BDC04690380320092370B58D
:1004000086B0059304330493023B0393013B0293AC
:10041000023B324D324C0193324B22003249334879
:1004200000932B0005F024FE142005F01DFEFA2099
:1004300080000AF0D1FC2E4E21003200280006F088
:100440002FF83378682B08D02A4C20000EF0FEFDE0
:10045000FA2080000AF0C0FCF7E773783D2BF3D157
:1004600001222100280006F03FF8234E320021002F
:10047000280006F073F83378002BF7D10122210011
:10048000280005F0EFFE0121200005F0CDFE03213C
:10049000200005F05FFE0321280005F089FF1321ED
:1004A000200006F0C9F81221200006F003F900210F
:1004B000200006F0E1F80321200006F06BF802218D
:1004C000200006F083F85521200005F061FE182178
:1004D000280005F007FF06B070BDC0467820032055
:1004E0005C32002040420F009C200020942000201D
:1004F0006058032074980410B5580320F0B5C64620
:10050000334C344D344E22002900300000B505F044
:10051000D9FF6378DB439B0720D023781B0702D4E5
:1005200080BCB846F0BD2D4C0622002120000EF004
:100530000FFC2100300005F095FF0023E05E05F080
:10054000FFFD274D28600223E05E05F0F9FD68609D
:100550000423E05E05F0F4FDA860E1E7214B0622EC
:100560009846180000210EF0F3FB1F4F06220021D1
:1005700038000EF0EDFB4146280005F055FF39002C
:10058000280005F033FF43460020185E05F0C4FD47
:100590004346164D28600220185E05F0BDFD434617
:1005A00068600420185E05F0B7FDA8600023F85EBF
:1005B00005F0BCFD0E4D28600223F85E05F0B6FD87
:1005C00068600423F85E05F0B1FDA860A5E7C046A9
:1005D000E44D03205C320020782003208C3E032071
:1005E0002C4303207C3E0320843E03200C3D03204B
:1005F000283D0320F0B55746DE464E464546E0B559
:100600008BB008919246190005900993DA170323DD
:100610008C46134063449B109B009846002B00DCE3
:1006200090E05246159B00249B000193149B9B1A5B
:10063000159A9B1A089A9B00029353681268190135
:1006400094460491069251469A00039252468D00B8
:100650000021013A92000792002289465900DE00EB
:10066000CB189B009B461300424665440092019ABA
:1006700094469C44039B1A199F195346002B1EDD78
:10068000069B059819196346804600989B004344D1
:1006900080460094086818600098081A845804314D
:1006A0005C6084599C60C059D86010338D42F1D190
:1006B00043460799009363468C4604339C440421C7
:1006C000029B5A4463448C461400049A3E00E14461
:1006D0009446009A5E4465444A45C8DC1A00009B73
:1006E0009846099B434526DD1499159C089B0D1BD4
:1006F000514609CB6D1A00291DDD41469E004B4332
:100700009B00C01853469C00059B47469C46099B8E
:10071000AB469846159B994600234A449100614494
:10072000C558CD5004339C42FAD1524401375A4443
:100730008019B845F0D10BB0F0BCBB46B246A94613
:10074000A046F0BD0022CCE7F0B54746CE4680B5C6
:100750001F00002B1DDD002A1BDD9300C0180B6855
:10076000002498464B689100D200494252428C4680
:1007700091469B00614645182900A2004244166834
:10078000D21840C18142FAD14A460134A81AA74280
:10079000F0D1C0BCB946B046F0BDC046F0B5DE46AB
:1007A00057464E4645460023E0B51360836887B040
:1007B0009A46059200230268052693460093013B62
:1007C000039002910493052355469B1B98465D4375
:1007D0005B46002B00D18DE14544AD005D442B68A4
:1007E0005C006B6864085F007F08391C381C0EF0E1
:1007F00078F9002800D0DFE0211C381C0EF06CF9DD
:10080000002800D0DFE00027731C9A46022B53D942
:10081000AB685B005B08191C181C99460EF061F967
:10082000002800D046E14846211C0EF055F900286A
:1008300001D04C4602275346032B3DD0EB685B00AA
:100840005B08191C181C99460EF04BF9002800D0C3
:1008500038E14846211C0EF03FF9002801D04C46F3
:1008600003275346042B27D02B695B005B08191C18
:10087000181C99460EF035F9002800D02AE14946A7
:10088000201C0EF01BF9002801D04C4604275346CB
:10089000052B11D06D696D006D08291C281C0EF008
:1008A00020F9002800D01DE1291C201C0EF006F9BB
:1008B000002801D005272C1C029B009A47440021E8
:1008C0009F50201C0EF0F2F8002800D17EE0049B1F
:1008D000013300D1E3E006239B1B45460193039BB4
:1008E0009B689A465D4306239F1B53469B0099468F
:1008F000019B52461C005443009A7F199446A50060
:1009000065449C460023BF005F44B8461F00644412
:10091000A4005D445C444346286819680EF097F8CB
:10092000011C20680EF079F82060012E2DD9434675
:10093000286859680EF08BF8011C60680EF06DF89D
:100940006060022E21D04346296898680EF07FF837
:10095000011CA0680EF061F8A060032E15D043467C
:100960002968D8680EF073F8011CE0680EF055F89D
:10097000E060052E09D14346296818690EF067F832
:10098000011C20690EF049F8206101374D444C44A8
:10099000BE42C0D1009B013E04330093019B052B56
:1009A00000D010E71A00029B5A6107B0F0BCBB46AA
:1009B000B246A946A046F0BD211C201C0EF091F8BD
:1009C000002800D018E73C1C01271DE7474530D020
:1009D00059465C460098BB005B4409581D68039A61
:1009E00092682550196001009200594489189B189B
:1009F00008681C680C60186089189B1808681C68D7
:100A00000C60186089189B1808681C680C601860D6
:100A100089189B1808681C680C60186089189B1856
:100A200018680A6808601A60059A13680193013310
:100A300013604546039B5A469B685D439A460623CE
:100A40009B1B0193EC1843465B199B009F58A40025
:100A50005C442068391C0DF0E6FF2060012E00D8B0
:100A600041E76068391C0DF0DEFF6060022E00D1A6
:100A700039E7A068391C0DF0D6FFA060032E00D125
:100A800031E7E068391C0DF0CEFFE060042E00D1A4
:100A900029E72069391C0DF0C6FF206123E70623F2
:100AA00045469B1B0193039B9B689A465D434346C7
:100AB000049318E7211C201C0EF013F8002800D125
:100AC000B7E6B0E6211C201C0EF00BF8002800D180
:100AD000C5E6BEE6211C201C0EF003F8002800D15C
:100AE000D3E6CCE6211C201C0DF0FBFF002800D132
:100AF000E0E6D9E61B68FFDEF0B55746DE464E4617
:100B00004546E0B599B01493249B8246259C2698CF
:100B10005D1C00D1229B651C00D1229C239DEE17F9
:100B200003253540239EB4466544AD10AF0007252C
:100B3000229E0E97AE4335000096149E002E00DCD8
:100B400088E29B001693230110930301D318179397
:100B50006B1EDB0801330391D9015B010F93A300E6
:100B60007C43201880001193131815930023D3465B
:100B7000139108930E9B002B00DCC2E10F9A039B9C
:100B8000944663441293179BD84601930023029323
:100B90000298434601000CCB089C5943A44661448B
:100BA000890051180991411C594361448900511829
:100BB0000A91811C59436144890051180B91C11C51
:100BC0004B4363449B00D318019E0C93009B34005D
:100BD000002B00DC45E2039B0025994600234C4690
:100BE000AA46AB46A946069504952F1C0595079580
:100BF0000D9325683168281C0DF029FF59460DF02A
:100C00000FFF71688346281C0DF021FF51460DF03F
:100C100007FFB1688246281C0DF019FF07990DF0F7
:100C2000FFFEF1680790281C0DF011FF05990DF0EB
:100C3000F7FE059065683169281C0DF008FF391C26
:100C40000DF0EEFE7169071C281C0DF000FF0499E1
:100C50000DF0E6FEB1690490281C0DF0F8FE06992F
:100C60000DF0DEFEF1690690281C0DF0F0FE4946FD
:100C70000DF0D6FE8146A568316A281C0DF0E7FE0E
:100C800059460DF0CDFE716A8346281C0DF0DFFE3B
:100C900051460DF0C5FEB16A8246281C0DF0D7FE04
:100CA00007990DF0BDFEF16A0790281C0DF0CFFEEC
:100CB00005990DF0B5FE0590E568316B281C0DF027
:100CC000C6FE391C0DF0ACFE716B071C281C0DF024
:100CD000BEFE04990DF0A4FEB16B0490281C0DF02B
:100CE000B6FE06990DF09CFEF16B0690281C0DF0E7
:100CF000AEFE49460DF094FE81462569316C281CF4
:100D00000DF0A5FE59460DF08BFE716C8346281C34
:100D10000DF09DFE51460DF083FEB16C8246281CFD
:100D20000DF095FE07990DF07BFEF16C0790281CE5
:100D30000DF08DFE05990DF073FE05906569316D1E
:100D4000281C0DF084FE391C0DF06AFE716D071C25
:100D5000281C0DF07CFE04990DF062FEB16D04902C
:100D6000281C0DF074FE06990DF05AFEF16D0690E8
:100D7000281C0DF06CFE49460DF052FE8146A56917
:100D8000316E281C0DF063FE59460DF049FE716E60
:100D90008346281C0DF05BFE51460DF041FEB16EFE
:100DA0008246281C0DF053FE07990DF039FEF16EB6
:100DB0000790281C0DF04BFE05990DF031FE0590B3
:100DC000E569316F281C0DF042FE391C0DF028FE3C
:100DD000716F071C281C0DF03AFE04990DF020FEDF
:100DE000B16F0490281C0DF032FE06990DF018FE2C
:100DF000F16F0690281C0DF02AFE49460DF010FEFA
:100E00008146803620340D9B009A08330D939A4218
:100E100000DDEEE6139B019C9C46051C5946381CE0
:100E200064440DF0FDFD5146071C04980DF0F8FDDB
:100E30000799061C06980DF0F3FD05998146281CBC
:100E40000DF0EEFD129B051C9A46229A009B9A42D9
:100E500030DDAB460493534620CB2168281C9A46CC
:100E60000DF0F5FD011C381C0DF0DAFD6168071C62
:100E7000281C0DF0ECFD011C301C0DF0D1FDA1680B
:100E8000061C281C0DF0E3FD011C48460DF0C8FDB2
:100E9000E1688146281C0DF0DAFD011C58460DF072
:100EA000BFFD8346049B229A0133103404939A4277
:100EB000D1D1051C311C0A9E30680DF0AEFD391CE5
:100EC000099F041C38680DF0A8FD291C0C9D386092
:100ED000346028680DF0A1FD0B9E4946041C306863
:100EE0000DF09BFD1099019A8C46029B6244019281
:100EF0000E9A0433306002932C609A4200DD47E67C
:100F0000C3460F9A039B944663440E9A0293239B15
:100F10009246159D934200DC90E05B465C68534628
:100F20005C43089B2F009C465B461B6864449C46C0
:100F3000009BA4006444002B00DC99E00023039F85
:100F400099463B00A04600262F001C003968206807
:100F50000DF07DFD311C0DF063FD061C79686068A5
:100F60000DF075FD311C0DF05BFD061CB968A06825
:100F70000DF06DFD311C0DF053FD061CF968E068A5
:100F80000DF065FD311C0DF04BFD061C3969206923
:100F90000DF05DFD311C0DF043FD061C79696069A3
:100FA0000DF055FD311C0DF03BFD061CB969A06923
:100FB0000DF04DFD311C0DF033FD061CF969E069A3
:100FC0000DF045FD311C0DF02BFD061C20372034A3
:100FD00008239C46009BE1444B45B7DC44460F9BED
:100FE000EF18029B0193229A009B9A4217DD9946C3
:100FF0000023984643464246F958019B98580DF005
:1010000026FD011C301C0DF00BFD061C01239C4627
:101010000333E1449C46229BE0444B45EAD12068DF
:10102000311C0DF0FAFC01239C46119BE2449C46C6
:10103000239B20606544534500D06EE71699039AC0
:101040008C46089B62440392149A013308939A4297
:1010500000D08FE519B0F0BCBB46B246A946A04609
:10106000F0BD0025039BA9469A462E1C2F1CECE6DA
:10107000039B00260193B6E7F0B557464E46DE4681
:1010800045468024E0B5B5B006AF3C1920609420F9
:101090007B63E823AE4E38180160BA63FB181C6806
:1010A0003378BFF35B8FDB0700D477E2A94D902242
:1010B0002369BA1813608422A368BA1813608022C7
:1010C000BA1812686D68934202DD8423FB181A6017
:1010D00094218423902279180E688C21FB18BA1869
:1010E00012681B6856435343226879180A60002A25
:1010F00000D180E29B003B660023BB6763687B678F
:10110000002B00D163E2B300FB6500233B6798220C
:101110000423BA1813609033FB181B68002B19DDE9
:101120008023E422FB18BA181B6812681900934246
:1011300000DA4AE2280009010CF0D2F90323C217B1
:10114000134098221B189B109B00BA181360042BA5
:1011500000DA35E28023FB181968002900DCA9E1D8
:1011600090207B6B38181A000068796484464243EB
:10117000091A3A616244B9647A609821E4227918C4
:10118000BA18126809684A43BA619A007A6104324F
:10119000FA61A02201339B00BA181360E423FB1804
:1011A0001B689B009B460023FB63FB643B64BB66A0
:1011B0009C227B6CBA1813609022BA181268934272
:1011C00002DD9C23FB181A609423FB181B68002B7C
:1011D00000DC47E19C23FB181A68002A00DC41E18F
:1011E0009423E021FB181B687918BB6598230968D4
:1011F000FB188C461B68B86E53439B00BB607B6F2B
:101200001100FB6783006344FB6000238C46FB6690
:10121000FB620B00B021791839630321013B043ACA
:101220008B436044D31A38603B629822BA18BB6D76
:1012300012689A46934200DD9246FA68FB6E944625
:101240009B0063447B66FB6B88227B65FB6CBA1852
:101250003B659C23FB181B6813609C23FB181A68D2
:101260008823FB181B68D21ABA62A422BA1813602A
:10127000042B03DDA4220423BA1813608823FB186F
:101280003A681B68D21A7A62002B65DDA423BA6B18
:10129000FB189146A8221B68BA18013B98467B6D43
:1012A0009B0099447B6E1360AC220023BA18136034
:1012B000AC23AC22FB181B68BA18013313604346F9
:1012C000002B2CDDA8230025FB181C684B46266844
:1012D0005968301C0DF0BBFB011C60680DF09DFBD4
:1012E00043466060012B16D04B46301C99680DF0C8
:1012F000AEFB011CA0680DF090FB4346A060022BE2
:1013000009D04B46301CD9680DF0A1FB011CE068E8
:101310000DF083FBE06001355C445545D6D10123D7
:101320005B429C46A133FB181B68E0449C46A82303
:10133000A822FB181B68BA1804331360AC23A4223C
:10134000FB18BA181B681268E1449342B0DB03E053
:10135000E0220320A43803208823A422FB18BA1813
:101360001B681268396B9D1A7B6EBE6A0B60E423A2
:10137000FB181B6891464B609C230196FB181B6869
:1013800088460093F86F5346FFF734F9002D37DD98
:1013900041467C6A386D4C440319B86B4A46844612
:1013A000786B9B004860A420381802608C203818A5
:1013B000006863440B602B0081463963FFF7C4F972
:1013C000E022FB6EBA181B1914689B00A0463C6B08
:1013D00043442360E423FB1819689C236160FB18D5
:1013E00004961B6849460393A423FB181A685346C6
:1013F0000292019300922B002000FA6FFFF77CFB12
:10140000882388227969FB188C461B68BA18043B2C
:10141000F96913603A6D62448C463A657A6E10320F
:101420007A667A6D62447A653A6A9A4200D014E725
:101430009822BA181268B96D9446FB6A8A1AB9697B
:1014400063448C46BA65B968FA6EFB6262448C46A6
:10145000FA66FA6F6244FA679422BA1812689A42DE
:1014600000DDE2E69022BA181268BB6E9446802234
:10147000BA1812686344BB6693421BDA8423FB18D4
:101480001B68002B38DC90233969FB188C467A6C7A
:101490001B68D21A7A643A6C62443A64BA6CD31A02
:1014A000BB647A68FB6C63449446FB64FB6B6344E7
:1014B000FB637DE68023FA6D9B029A4207D93A6F5F
:1014C000002A04D0531E1878101A0DF029FC80232E
:1014D0003A6E9B029A4207D9BA6F002A04D0531E73
:1014E0001878101A0DF01CFCBD462FB0F0BCBB469E
:1014F000B246A946A046F0BDBA6B3B6C92469B0033
:101500009A44B023FE18B13B9946BD6CBC6E84234F
:10151000FB181B68A8469D4200DD9846AC22A3003C
:10152000BA1813607A6B8C2072609C225344BA18EC
:10153000381831001268006833604346FFF704F939
:10154000E022AC23BA181268FB1894461B688C2161
:1015500063443360E423FB181B687918736000232D
:1015600004934B46039302939423FB181B683000AB
:1015700001939C23FB181B6800937A6F434609680C
:10158000FFF7BAFA8423FB181B689C46ED1A8023E8
:10159000FB181B686444A342B9DC74E7300010F008
:1015A0008BF8364D002800D181E58023DB012B60CC
:1015B00080231B0330006B60AB6010F099F876E578
:1015C00098220423BA181360C4E51100B2E5802301
:1015D000B200FA659B029A423AD813006A46163363
:1015E000DB08DB00D31A9D4627200F23684498436D
:1015F000386778678BE59A0080233A669B029A42A7
:101600000FD813006A461633DB08DB00D31A9D4659
:1016100027200F23684498437D33FB18B867186070
:101620006CE5100010300DF05DFBB867002800D1AC
:1016300064E50F221023844602409B1ADBB29C44CF
:1016400061464A1E13708C23FB18B967196055E573
:10165000100010300DF046FB3867002800D156E529
:101660000F221023844602409B1ADBB29C44614641
:101670004A1E39671370796749E5C046A4380320CC
:10168000F0B557464E46DE464546E0B5B7B006AF24
:10169000824684207B65F023CB4E38180160BA6304
:1016A000FB181C683378BFF35B8FDB0700D49DE227
:1016B000C64D23696D683B67A368BB67534501DD71
:1016C0005346BB67842179180E6880213A6FBB6F3F
:1016D00056435343226879180A60002A00D1B4E2C5
:1016E0009B003B650023FB666368BB66002B00D153
:1016F00097E2B300FB6400237B6688220423BA18B8
:1017000013608033FB181B68002B16DDEC23FB18DD
:101710001B6851469A4500DA7FE2280009010BF068
:10172000DFFE0323C217134088221B189B109B0067
:10173000BA181360042B00DA6AE25346002B00DC6F
:1017400032E27A6D386F1100434259430B00B9629F
:1017500051460C1A110062431B1A9B00BA647B604D
:101760000A000B0051464B43B96B53448C46E821A9
:101770009B006344FB637918830009685B423B600C
:1017800053468C469B006344EC21BB658823791843
:10179000FB1809681B687C674B4390213B619300F1
:1017A0005B4279180B60043BBB609B00FB60D3433A
:1017B00094229B00BA181360EC23A822FB181B6824
:1017C000BA189B001360544603008C22BA181360A9
:1017D000A34200DD14608423FB181B68002B00DC8F
:1017E00076E18C23FB181A68002A00DC70E1842360
:1017F000FB181B68B96D7B648823FB181B68534377
:101800009B00FB61BB6EFB659300CB1A3B62002320
:10181000B8213B667B63A31A7918FB621300396316
:101820000321013B043A8B43D31A7B61AC227B6CCE
:10183000BA1813608822BA181268934202DDAC23EA
:10184000FB181A603A6A3B6E94469B009C446246C1
:101850007A62BA6D944698226344BA181360FB6B9F
:101860003B648C23FB181B68FB679C22FB6FBA1838
:101870001360042B03DD9C220423BA181360FA6F53
:10188000FB6A94466344BB61002A00DCA0E09C2311
:10189000396CA0208A46FB181B6838185A1E9346DC
:1018A000BA685B42524402607A6D9B1A9B009A446C
:1018B0000423A4225B4299460023BA181360A02394
:1018C000FE20FB181B68800519680DF0ACF8B423E6
:1018D000FB181860A423FB181B685A46DB439B1AAD
:1018E0009822BA18126800269446B0229C009B00E9
:1018F0005B42BA1864441360B023FB181B684A4665
:101900009846A04443469958B423FB1818680DF034
:101910009EF843464A4698505B46051C002B22DD44
:10192000534619680DF093F8011C20680DF075F806
:101930005B462060012B16D05346281C59680DF0D9
:1019400086F8011C60680DF068F85B466060022B49
:1019500009D05346281C99680DF079F8011CA0683D
:101960000DF05BF8A060A823FB181B6801369C46AD
:10197000AC23FB181B6864449E42BDD1A423A4225F
:10198000FB181B68BA1801331360012294215242DC
:10199000944679180968E3448C46A021A132BA180C
:1019A0001268791862440A600422524294469432C2
:1019B000BA181268E14494469C22BA181268E244AC
:1019C000934200DA7BE703E0E0220320A4380320FF
:1019D000E8219C2279180968BA188C46FB6F1268B6
:1019E000396B9C1ABB699D1A3B6E5B199B00634463
:1019F0000B60EC23FB181B684B608C230194FB18D5
:101A00001B680093AC23FB181B68F86DFEF7F2FD12
:101A1000002C30DD7A6DF96A13008C466B433D6B08
:101A2000B96B80206A609C2263448C463818066833
:101A30009B00BA181268634429002B603000230011
:101A40009046FEF781FEEC2228008C237D6ABA18AE
:101A500005601568FB18456004941D68AC22434678
:101A600003950293BA181268009301922300310083
:101A7000FA6DFFF741F898229821BA181268791880
:101A8000103A0A60F9683A6C8C46FB6F62443A641B
:101A90007A69043BFB679A4200D0E6E68822BA18CE
:101AA0001268796C94467B6B8A1AF96963448C4698
:101AB0007A643969FA6D7B6362448C46FA653A6EE2
:101AC00062443A668422BA1812689A4200DDADE692
:101AD0007B6F1C1E68DDBB6F002B00DCFEE7BA6B62
:101AE000BB6C93469B009B4400239946B833FE1879
:101AF000B93B9A4623004C4699467D6FBB6FA8467A
:101B00009D4200DD9846B422A300BA1813607A6D96
:101B1000802072608C225B44BA1838183100126839
:101B2000006833604346FEF70FFEE822B423BA187C
:101B30001268FB1894461B68802163443360EC23D1
:101B4000FB181B68791873600023049353460393B2
:101B500002938423FB181B68300001938C23FB182D
:101B60001B680093BA6E43460968FEF7C5FFBB6F5A
:101B70009C46ED1A7B6F6444A342BFDCBA6ABB6C1F
:101B800094467A6863449446BB643A68FB6B4C465F
:101B900063449446FB63BB6D3A6F6344BB657B6FE4
:101BA0009B1A7B67130010E68023FA6C9B029A4213
:101BB00007D97A6E002A04D0531E1878101A0DF037
:101BC000AFF880233A6D9B029A4207D9FA6E002A39
:101BD00004D0531E1878101A0DF0A2F8BD4631B08B
:101BE000F0BCBB46B246A946A046F0BD30000FF09F
:101BF00063FD374D002800D15BE58023DB012B60BE
:101C000080231B0330006B60AB600FF071FD50E56B
:101C100088220423BA1813608FE5EC23FB18196897
:101C20007BE58023B200FA649B029A423AD8130003
:101C30006A461633DB08DB00D31A9D4627200F23A4
:101C4000684498437866B86657E59A0080233A65F9
:101C50009B029A420FD813006A461633DB08DB005A
:101C6000D31A9D4627200F23684498437133FB18ED
:101C7000F866186038E5100010300DF033F8F8669B
:101C8000002800D130E50F221023844602409B1A21
:101C9000DBB29C4461464A1E13708023FB18F96630
:101CA000196021E5100010300DF01CF8786600284E
:101CB00000D122E50F221023844602409B1ADBB29A
:101CC0009C4461464A1E79661370B96615E5C046A4
:101CD000A438032030B587B00D4B02AD00951A68CB
:101CE000694602929A880400AA809B796A46AB7181
:101CF000072301930023D3732CF070FC0098A842B3
:101D000003D0029901310DF03FF8200007B030BD3B
:101D100088980410F0B5DE4657464E464546E0B575
:101D20000E000168C7688946416805698A4681686E
:101D30008DB08B464169806907930690506813689F
:101D4000926805910A90291C30680B9209930895B6
:101D50000CF063FE0599039070680CF05EFE069926
:101D6000051CB0680CF059FE8026804636060798A0
:101D70000CF0F0FEB446039B009001916344180000
:101D800051460CF064FE5946061C281C0CF05FFE00
:101D9000011C301C0CF041FE391C061C4046049707
:101DA0000CF055FE011C301C0CF037FE0CF0D2FE7E
:101DB0000022684B0BF00BFE009A019B0BF007FE14
:101DC000060048460F000CF0C5FE02000B00300074
:101DD0003900169C0BF0D4FD0BF0FEFE4946206046
:101DE00003980CF034FE5946061C40460CF02FFEBA
:101DF000011C301C0CF014FE0499061C281C0CF06D
:101E000026FE011C301C0CF008FE0CF0A3FE002284
:101E1000504B0BF0DCFD009A019B0BF0D8FD060047
:101E200050460F000CF096FE02000B003000390007
:101E30000BF0A6FD0BF0D0FE49466060281C0CF0AC
:101E400006FE5146061C40460CF001FE011C301CEB
:101E50000CF0E3FD0499061C03980CF0F8FD011C3E
:101E6000301C0CF0DDFD0CF075FE0022394B0BF040
:101E7000AEFD009A019B0BF0AAFD060058460F002C
:101E80000CF068FE02000B00300039000BF078FD0A
:101E90000BF0A2FE4946A06040460CF0D8FD51462A
:101EA000061C281C0CF0D3FD011C301C0CF0B8FDE6
:101EB0005946051C03980CF0CAFD011C281C0CF0A7
:101EC000ACFD0CF047FE0022224B0BF080FD009A87
:101ED000019B0BF07CFD060004980F000CF03AFE0D
:101EE00002000B00300039000BF04AFD0BF074FECD
:101EF000089B0999E060181C98460CF0A8FD079D06
:101F0000291C0CF0A4FD011C40460CF086FD059F29
:101F10000A992061381C0CF09AFD291C0CF097FDE1
:101F2000011C381C0CF079FD069E0B996061301C79
:101F30000CF08DFD291C0CF08AFD011C301C0CF0EE
:101F40006CFDA06100200DB0F0BCBB46B246A946B6
:101F5000A046F0BD0000E03FF0B5DE4657464E46D5
:101F600045468A464168E0B58846C768816891B0B1
:101F7000066889464046391C141C04930CF067FD22
:101F80004946051C301C0CF062FD0A90011C281CFF
:101F900009950CF042FD0CF0DDFD02000B000BF08A
:101FA000EFFC06900791201C02940CF0D3FD0B006F
:101FB000020004000D00069807990BF008FD0BF0D5
:101FC0000BFE5246391C106048460CF040FD83461B
:101FD0004146301C0CF03BFD5A460E90011C584601
:101FE0000B920CF01DFD0CF0B5FD02000B000BF088
:101FF000C7FC02000B00200029000C920D930BF08F
:10200000E6FC0BF0E9FD5446311C6060301C0CF01E
:102010001EFD4146041C40460CF019FD051C011C28
:10202000201C0CF0FAFC4946089048460CF00FFDC5
:10203000391C8346381C0CF00AFD5946019008985B
:102040000CF0EBFC01990CF0EBFC02990F900CF0FA
:10205000FEFC53464946986040460CF0F8FC391C9B
:102060008046301C0CF0F3FC81461A980CF072FD8F
:1020700006001B980F000CF06DFD02900391291CC7
:10208000201C0CF0CDFC59460CF0C7FC01990CF05B
:10209000C4FC04990CF0DBFC0CF05CFD04000D00AA
:1020A000404649460CF0BCFC0CF054FD02000B000D
:1020B0000BF066FC32003B000BF089FC02000B00C9
:1020C000200029000BF05CFC029A039B04000D0029
:1020D000069807990BF07BFC02000B0020002900FA
:1020E0000BF04EFC0BF078FD5346D86004980CF0D2
:1020F00031FD04000D00404649460CF08EFC0CF00A
:1021000029FD02000B000BF03BFC22002B00049485
:1021100005950BF05CFC04000D00089859460CF086
:102120007FFC01990CF079FC1A990CF090FC0CF0F2
:1021300011FD02000B00200029000BF021FC029A87
:10214000039B04000D000C980D990BF040FC02005D
:102150000B00200029000BF013FC0BF03DFD534653
:102160000A99186109980CF05BFC0CF0F3FC020072
:102170000B000BF005FC049A059B0BF028FC0400F7
:102180000D000B980E990CF048FC0CF0E3FC0200DB
:102190000B000BF0F5FB32003B000BF018FC0200CB
:1021A0000B00200029000BF0EBFB04000D000F9842
:1021B0001B990CF04CFC0CF0CDFC02000B00200035
:1021C00029000BF0DDFB0BF007FD534658610020A2
:1021D00011B0F0BCBB46B246A946A046F0BDC04611
:1021E000F0B50400DE4657464E4645460800E0B5C9
:1021F00045680968AA46856895B0AB46C5684669D2
:10220000876910910E950169556810689268049667
:1022100090461A68069711925A689B681292139317
:10222000FE239B05236099460CF0F7FB0CF092FC13
:10223000009001911E980CF08DFC06000F00009894
:1022400001990022924B0BF0C2FB32003B000BF0D5
:10225000BEFB0BF0C1FC04990390E061281C0CF05C
:10226000DCFB0CF077FC0022894B049005910BF00D
:10227000AEFB32003B000BF0AAFB0BF0ADFC069965
:10228000051CA06340460CF0C8FB0CF063FC002268
:102290007F4B069007910BF09AFB32003B000BF04E
:1022A00096FB0BF099FC0A90606550460CF052FCCE
:1022B0000022784B089009910BF089FB32003B001B
:1022C0000BF085FB0BF088FC0B90206758460CF058
:1022D00041FC00226F4B0C900D910BF078FB32000B
:1022E0003B000BF074FB0BF077FC8C238246E05034
:1022F0000E980CF02FFC0022664B0E900F910BF005
:1023000066FB32003B000BF062FB0BF065FCA82380
:102310008346E0500022009801995E4B0BF057FB7A
:1023200032003B000BF053FB0BF056FC494600908B
:1023300060602162002206980799564B0BF047FB1C
:1023400032003B000BF043FB0BF046FCA5658046DA
:10235000E06310980CF0FEFB00224D4B0BF037FBB6
:1023600032003B000BF033FB0BF036FC5946902358
:10237000051C60670022E1500C980D99444B0BF04E
:1023800026FB32003B000BF022FB0BF025FCAC23BC
:102390000022E050049805993E4B0BF018FB3200E8
:1023A0003B000BF014FB0BF017FC49460A9A8346DE
:1023B0006262009AA0602164E2650E980F99002283
:1023C000334B0BF004FB32003B000BF000FB0BF037
:1023D00003FC94230B99A067E5501C33E150414660
:1023E000E1605946A162494621665146039BE16777
:1023F0006364089809990022254B0BF0E8FA320033
:102400003B000BF0E4FA0BF0E7FB9823E0501C33A1
:10241000E55000251E9911982561E562A564656661
:102420000CF015FB011C48460CF0F7FA8023E05035
:102430001C33E5501C33E550343B1E9912986561FE
:102440002563E564A566E5500CF001FB011C4846D8
:102450000CF0E3FAA023E0501C33E550343BA561B7
:1024600065632565E566E5501C33E5501E991398B4
:102470000CF0EDFA011C48460CF0CFFAC023E050F6
:10248000002015B0F0BCBB46B246A946A046F0BD40
:102490000000E0BF0000E03FF0B5DE4657464E4684
:1024A0004546E0B59A460B68141C8A689B464B6803
:1024B000C9688BB00500101C8846009301920CF08F
:1024C00049FB02900391201C0CF044FBC023060042
:1024D0000F000298039900221B060BF078FA3200D5
:1024E0003B000BF074FA0BF077FB08902860404635
:1024F0000CF030FB02000B000BF042FA32003B0004
:102500000BF065FA0BF068FB041CA86158460CF050
:1025100021FBC02300221B06049005910BF057FA03
:1025200032003B000BF053FA0BF056FB2863009887
:102530000CF010FB02000B00069007910BF020FA44
:1025400032003B000BF043FA0BF046FB00219023D6
:102550008946A8642966A967E950686004980599C6
:1025600002000B000BF00CFA32003B000BF02FFACC
:102570000BF032FB6C630490E8610298039902004F
:102580000B000BF0FDF932003B000BF020FA0BF0D2
:1025900023FB49469423E8646966E967E950C02350
:1025A00006980799049A1B06AA6000220BF00FFAFE
:1025B00032003B000BF00BFA0BF00EFB089B494678
:1025C000AB63802328622C65A966E9501833E95073
:1025D000404614990CF03BFA019F1599061C381CD3
:1025E0000CF035FA5146041C58460CF030FA311CF8
:1025F0000CF016FA211C06940CF00FFA011C0CF0DA
:102600000FFA51460990E86000980CF020FA1499EE
:10261000041C381C0CF01BFA011C201C0CF000FAE6
:102620001599041C40460CF012FA011C201C0CF0F9
:10263000F7F9011C0CF0F4F9149902906862009803
:102640000CF005FA1599089058460CF000FA019A1A
:102650008024944624066444071C514620000CF054
:10266000F6F908990CF0DCF9391C0CF0D6F9011CCC
:102670000CF0D6F91499E86358460CF0E8F915996E
:10268000049000980CF0E3F9802212064244041CE6
:10269000514610000CF0DBF904990CF0C1F9211C33
:1026A0000CF0BEF9011C0CF0BBF94A468423EA6623
:1026B0006865EA501833EA505146286101980CF0D9
:1026C000C6F908990CF0A9F9391C0CF0A9F9011CFC
:1026D0000CF0A6F9071CA8628020029B00062B6460
:1026E000514658440CF0B3F9311C0CF096F9069998
:1026F0000CF096F9011C0CF093F98823A865484664
:102700002867E8501833E850514640466F610CF096
:102710009EF904990CF081F9211C0CF07EF9011C42
:102720000CF07EF9099AE8626A64029B4A46EB65FE
:102730004B466B678C230020EA501833EA500BB0ED
:10274000F0BCBB46B246A946A046F0BD0123F0B599
:10275000E3214746CE469C46294B804605009946D4
:10276000284E80B58900076846444144FA0F6F68D7
:10277000D2077B005B08346813435A086240644602
:102780001C4201D04B465A4004C50436A942EDD143
:10279000E32342469B00C626D458194B01259C468C
:1027A000F6004644E20F4C68D20763005B080768F6
:1027B00013435A087A401D4201D063465A40043000
:1027C00004C1B042EED14246C62140460E4BC9007C
:1027D000D3581268DB0F52005208DB0741581343ED
:1027E0005A084A40DB0701D5054B5A404146064B83
:1027F000CA5000220433CA50C0BCB946B046F0BD2E
:10280000DFB0089934060000BC090000F0B5454669
:10281000DE4657464E46E0B53C4CD723A54434AA85
:10282000944663441B091B018A6805930B68019257
:1028300037921A6804902D929A6933912E921A6BEE
:1028400038AC2F929A6C30921A6E06929A6F089258
:1028500090229A5807925A680A92DA690B925A6B38
:102860000C92DA6C0D925A6E0E92DA6F0F929422DD
:102870009A5810929A6811921A6A12929A6B13924D
:102880001A6D14929A6E159280229A581692982276
:102890009A581792DA6818925A6A1992DA6B1A9251
:1028A0005A6D1B92DA6E1C9284229A581D929C22B9
:1028B0009A581E921A691F929A6A20921A6C219253
:1028C0009A6D22921A6F239288229A582492A022FB
:1028D0009A5825925A692692DA6A27925A6C289257
:1028E000DA6D29925A6F2A928C229A582B92A4223E
:1028F0009B582C934B68984638AB3293C42343447F
:1029000009934346A0461C0002E0C0469CFDFFFF21
:10291000E168A26889462169236848460391309995
:10292000029201930CF093F80399824606980CF0FA
:102930008EF8011C50460CF073F867698246391C0A
:1029400008980CF084F8A6698346311C07980CF0AF
:102950007EF8011C58460CF063F8011C50460CF040
:102960005FF8656882462E99281C0CF070F82F9944
:10297000834602980CF06BF8011C58460CF050F896
:102980002D99834601980CF062F8011C58460CF012
:1029900047F8011C50460CF043F84346494618607E
:1029A0000D980CF054F8039982460E980CF04FF8ED
:1029B000011C50460CF034F8391C82460F980CF07C
:1029C00046F8311C834610980CF041F8011C58461B
:1029D0000CF026F8011C50460CF022F8291C824607
:1029E0000B980CF034F8029983460C980CF02FF8F1
:1029F000011C58460CF014F8019983460A980CF013
:102A000026F8011C58460CF00BF8011C50460CF03F
:102A100007F843464946586014980CF018F8039993
:102A2000824615980CF013F8011C50460BF0F8FF85
:102A3000391C824616980CF00AF8311C8346179808
:102A40000CF005F8011C58460BF0EAFF011C50463B
:102A50000BF0E6FF291C824612980BF0F8FF029952
:102A6000834613980BF0F3FF011C58460BF0D8FF78
:102A70000199834611980BF0EAFF011C58460BF0B0
:102A8000CFFF011C50460BF0CBFF434649469860F0
:102A90001B980BF0DCFF039982461C980BF0D7FFC4
:102AA000011C50460BF0BCFF391C82461D980BF0F0
:102AB000CEFF311C83461E980BF0C9FF011C5846FF
:102AC0000BF0AEFF011C50460BF0AAFF291C8246FA
:102AD00019980BF0BCFF029983461A980BF0B7FFC8
:102AE000011C58460BF09CFF0199834618980BF087
:102AF000AEFF011C58460BF093FF011C50460BF033
:102B00008FFF43464946D86022980BF0A0FF0399F7
:102B1000824623980BF09BFF011C50460BF080FF70
:102B2000391C824624980BF092FF311C834625986D
:102B30000BF08DFF011C58460BF072FF011C504634
:102B40000BF06EFF291C824620980BF080FF029943
:102B5000834621980BF07BFF011C58460BF060FF69
:102B6000019983461F980BF072FF011C58460BF029
:102B700057FF011C50460BF053FF4346494618616E
:102B800029980BF064FF039981462A980BF05FFFA8
:102B9000011C48460BF044FF391C81462B980BF072
:102BA00056FF311C071C2C980BF051FF011C381CE0
:102BB0000BF036FF011C48460BF032FF291C061CA7
:102BC00027980BF044FF0299051C28980BF03FFF53
:102BD000011C281C0BF024FF0199051C26980BF002
:102BE00036FF011C281C0BF01BFF011C301C0BF0D6
:102BF00017FF4346586118239C46099B1C34E04448
:102C0000A34200D084E6379B1A68629308929A69BF
:102C100009921A6B0A929A6C0B921A6E0C929A6F26
:102C20000D9290229A580E925A680F92DA69109279
:102C30005A6B1192DA6C12925A6E1392DA6F1492E6
:102C400094229A5815929A6816921A6A17929A6B59
:102C500018921A6D19929A6E1A9280229A581B92A3
:102C600098229A581C92DA681D925A6A1E92DA6B60
:102C70001F925A6D2092DA6E219284229A582292E3
:102C80009C229A5823921A6924929A6A25921A6C65
:102C900026929A6D059C27921A6F203428928822DA
:102CA0009A58A1462992A0229A582A925A692B92A0
:102CB000DA6A2C925A6C2D92DA6D2E925A6F2F92FC
:102CC0008C229A583092A4229B5831935CAB069385
:102CD0003EAB0793329B98464346424641464046A8
:102CE0001B6895690193069B146B096E926C40CB2F
:102CF000876F0291101C0B99039206930BF0A7FEAD
:102D00000C99824602980BF0A2FE011C50460BF073
:102D100087FE0D998246381C0BF099FE0E9983466A
:102D2000301C0BF094FE011C58460BF079FE011C80
:102D300050460BF075FE09998246281C0BF087FE61
:102D40000A998346201C0BF082FE011C58460BF0AA
:102D500067FE0899834601980BF079FE011C5846DE
:102D60000BF05EFE011C50460BF05AFE4B461299CA
:102D7000186003980BF06BFE1399824602980BF0D3
:102D800066FE011C50460BF04BFE14998246381C1F
:102D90000BF05DFE15998346301C0BF058FE011CAC
:102DA00058460BF03DFE011C50460BF039FE1099C1
:102DB0008246281C0BF04BFE11998346201C0BF019
:102DC00046FE011C58460BF02BFE0F9983460198D6
:102DD0000BF03DFE011C58460BF022FE011C504634
:102DE0000BF01EFE4B461999586003980BF02FFE0E
:102DF0001A99824602980BF02AFE011C50460BF0ED
:102E00000FFE1B998246381C0BF021FE1C9983464D
:102E1000301C0BF01CFE011C58460BF001FE011C7F
:102E200050460BF0FDFD17998246281C0BF00FFE53
:102E300018998346201C0BF00AFE011C58460BF023
:102E4000EFFD1699834601980BF001FE011C5846D0
:102E50000BF0E6FD011C50460BF0E2FD4B462099BD
:102E6000986003980BF0F3FD2199824602980BF0CD
:102E7000EEFD011C50460BF0D3FD22998246381C12
:102E80000BF0E5FD23998346301C0BF0E0FD011C9F
:102E900058460BF0C5FD011C50460BF0C1FD1E99B4
:102EA0008246281C0BF0D3FD1F998346201C0BF093
:102EB000CEFD011C58460BF0B3FD1D9983460198C9
:102EC0000BF0C5FD011C58460BF0AAFD011C504635
:102ED0000BF0A6FD4B462799D86003980BF0B7FD81
:102EE0002899824602980BF0B2FD011C50460BF067
:102EF00097FD29998246381C0BF0A9FD2A99834633
:102F0000301C0BF0A4FD011C58460BF089FD011C80
:102F100050460BF085FD25998246281C0BF097FD45
:102F200026998346201C0BF092FD011C58460BF09D
:102F300077FD2499834601980BF089FD011C5846C2
:102F40000BF06EFD011C50460BF06AFD4B462E99AE
:102F5000186103980BF07BFD2F99824602980BF0C5
:102F600076FD011C50460BF05BFD30998246381C03
:102F70000BF06DFD3199071C301C0BF068FD011C36
:102F8000381C0BF04DFD011C50460BF049FD2C99EF
:102F9000061C281C0BF05BFD2D99051C201C0BF05A
:102FA00056FD011C281C0BF03BFD2B99041C0198BD
:102FB0000BF04DFD011C201C0BF032FD011C301CE0
:102FC0000BF02EFD4B46586104239C461433E0441D
:102FD0009C46079BE144434500D07DE6339B059D1D
:102FE000DC68296A20680BF01BFD049EA96B306029
:102FF00060680BF015FD7060A068296D0BF010FD86
:10300000B060E068A96E0BF00BFD8023F0602069D2
:10301000E95898460BF004FD98233061E95860693F
:103020000BF0FEFC7061A069696A0BF0F9FCB061FD
:10303000E069E96B0BF0F4FCF061206A696D0BF05C
:10304000EFFC3062E96E606A0BF0EAFC8427706284
:10305000A06AE9590BF0E4FC9C23B062E958E06AED
:103060000BF0DEFCF062206BA96A0BF0D9FC306338
:10307000606B296C0BF0D4FC7063A06BA96D0BF036
:10308000CFFCB063E06B296F0BF0CAFCF0638826BD
:10309000206CA9590BF0C4FC049B1864A023606C3D
:1030A000E9580BF0BDFC049BE96A5864A06C0BF076
:1030B000B7FC049B696C9864E06C0BF0B1FC049B5A
:1030C000E96DD864206D0BF0ABFC049B696F18654B
:1030D000606D0BF0A5FC8C25049A059B5065A06DD6
:1030E00059590BF09DFCA423049A9065059AE06D54
:1030F000D1580BF095FC049B059AD865116B206E96
:103100000BF08EFC049B059A1866916C606E0BF0B8
:1031100087FC049B059A5866A06E116E0BF080FC2C
:10312000049B059A9866E06E916F0BF079FC049B06
:10313000059AD8669023206FD1580BF071FC049B40
:10314000059A1867A823606FD1580BF069FC049B9F
:10315000059A5867A16F506B0BF062FC049B059AAF
:103160009867E16FD06C0BF05BFC4146049B059ABD
:10317000D8676158506E0BF053FC4146049B059A8A
:103180005850E159D06F0BF04BFC049BD85194235D
:10319000059FA159F8580BF043FC049B9851AC23B0
:1031A0006159F8580BF03CFC049B585199239B0043
:1031B0009D44F0BCBB46B246A946A046F0BDC04601
:1031C000F0B5DE4657464E4645460400E0B5436836
:1031D00087B05800A3684008590049080BF020FC4C
:1031E0002368590049080BF01BFC2369051C580093
:1031F00063694008590049080BF012FCE368590064
:1032000049080BF00DFC011C281C0BF009FCE369BC
:10321000051C5800236A4008590049080BF000FCBF
:10322000A369590049080BF0FBFBA36A061C580070
:10323000E36A4008590049080BF0F2FB636A590041
:1032400049080BF0EDFB011C301C0BF0E9FB636B34
:10325000071C5800A36B4008590049080BF0E0FB1D
:10326000236B590049080BF0DBFB236C061C58004C
:10327000636C4008590049080BF0D2FBE36B59001E
:1032800049080BF0CDFB011C301C0BF0C9FB061CE0
:10329000011C381C0BF012FC002800D13E1C311C14
:1032A000281C0BF00BFC002800D12E1CE36C5800EE
:1032B000236D4008590049080BF0B2FBA36C59007C
:1032C00049080BF0ADFBA36D051C5800E36D4008E9
:1032D000590049080BF0A4FB636D590049080BF035
:1032E0009FFB011C281C0BF09BFB636E071C580006
:1032F000A36E4008590049080BF092FB236E590059
:1033000049080BF08DFB236F051C5800636F4008C4
:10331000590049080BF084FBE36E590049080BF093
:103320007FFB011C281C0BF07BFBE36F80465800E1
:103330008023E1584008490049080BF071FBA36F56
:10334000590049080BF06CFB8823051CE058043336
:10335000E15840004900490840080BF061FB842314
:10336000E158490049080BF05BFB011C281C0BF0DD
:1033700057FB051C011C40460BF0A0FB002800D1A8
:103380004546291C381C0BF099FB002800D13D1C38
:10339000291C301C0BF092FB002800D1351CC023E7
:1033A0002100E55001AABA3B02A8A8310493029477
:1033B000FDF7F4F90121C422019B98260B405B42E2
:1033C0008B430133A354343A9246002250469C2743
:1033D00022509432A1509346923AA2510132E251C6
:1033E0009D32944660469C3A2250A03291469F3AC4
:1033F00090464A4640462300A05048461832A258FC
:10340000903392009A181568255040461060604627
:10341000B8222058A2588046604692009A18156833
:10342000255040461060B422E059A25884469200CC
:103430009A1810685D46E05160461060B022A258AC
:10344000A75992009A181068A0511760AC225846EC
:10345000A258265892009A18106860511660A82247
:10346000A258554692009B1852461868A2586051BF
:103470001A60C523E15407B0F0BCBB46B246A9466A
:10348000A046F0BDC023002210B5C2500022043374
:10349000C2520B68040003604B6843608B68836012
:1034A000CB68C3600B6903614B6943618B698361BE
:1034B000CB69C3610B6A03624B6A43628B6A8362A6
:1034C000CB6AC3620B6B03634B6B43638B6B83638E
:1034D000CB6BC3630B6C03644B6C43648B6C836476
:1034E000CB6CC3640B6D03654B6D43658B6D83655E
:1034F000CB6DC3650B6E03664B6E43668B6E836646
:10350000CB6EC3660B6F03674B6F43678B6F83672D
:10351000CB6FC3678023CA58C2500433CA58C25005
:103520000433CA58C2500433CA58C250FFF748FE89
:10353000200010BDF0B5DE464E4645465746E0B584
:10354000214C9146A5443AAA94460A0031931F4B58
:103550003B9063441B091B013A919846D3AB13CAB5
:1035600013C313CA13C31268D3A91A60184B194A9C
:103570001B6847A80493184B47AC1B680193174B73
:103580001B6805930093049BFEF786FF47ABD3931C
:103590004B46D49347ABD5933AAA832394468620CF
:1035A0001B0163441B68C0004044A2AAD3A9D69360
:1035B0000990FFF72BF96BAB089343460A934B46F0
:1035C0003094A1461C000BE014F7FFFF47030000F6
:1035D000742003200AE81C416C2003207020032083
:1035E0004B464E461B68B76F0793089B494640CB36
:1035F00048464A460893A823896C006E9569126B69
:1036000005910690E158301C04920BF020FA8C23AF
:103610008246E158381C0BF01AFA011C50460BF098
:10362000FFF9216F824606980BF011FA616D83460F
:1036300005980BF00CFA011C58460BF0F1F9011C2F
:1036400050460BF0EDF9A16B824604980BF0FFF9A0
:10365000E1698346281C0BF0FAF9011C58460BF06F
:10366000DFF92168834607980BF0F1F9011C5846F1
:103670000BF0D6F9011C50460BF0D2F94346186006
:10368000AC23301CE1580BF0E2F990238246E1585C
:10369000381C0BF0DCF9011C50460BF0C1F9616FCE
:1036A000824606980BF0D3F9A16D834605980BF07E
:1036B000CEF9011C58460BF0B3F9011C50460BF033
:1036C000AFF9E16B824604980BF0C1F9216A834699
:1036D000281C0BF0BCF9011C58460BF0A1F96168DD
:1036E000834607980BF0B3F9011C58460BF098F984
:1036F000011C50460BF094F943465860B023301C2F
:10370000E1580BF0A4F994238246E158381C0BF0E1
:103710009EF9011C50460BF083F9A16F8246069872
:103720000BF095F9E16D834605980BF090F9011CBB
:1037300058460BF075F9011C50460BF071F9216CDD
:10374000824604980BF083F9616A8346281C0BF0CB
:103750007EF9011C58460BF063F9A168834607986F
:103760000BF075F9011C58460BF05AF9011C504634
:103770000BF056F943469860B423301CE1580BF027
:1037800066F998238246E158381C0BF060F9011C59
:1037900050460BF045F9E16F824606980BF057F959
:1037A000216E834605980BF052F9011C58460BF028
:1037B00037F9011C50460BF033F9616C82460498CE
:1037C0000BF045F9A16A8346281C0BF040F9011C57
:1037D00058460BF025F9E168834607980BF037F956
:1037E000011C58460BF01CF9011C50460BF018F94F
:1037F0004346D860B823301CE1580BF028F99C23CD
:103800008246E158381C0BF022F9011C50460BF09F
:1038100007F980238246E15806980BF018F9616E8B
:10382000834605980BF013F9011C58460BF0F8F885
:10383000011C50460BF0F4F8A16C824604980BF082
:1038400006F9E16A8346281C0BF001F9011C584671
:103850000BF0E6F82169834607980BF0F8F8011C95
:1038600058460BF0DDF8011C50460BF0D9F84346E2
:103870001861BC23301CE1580BF0E9F8A023824604
:10388000E158381C0BF0E3F8011C50460BF0C8F867
:1038900084238246E15806980BF0D9F8A16E83463E
:1038A00005980BF0D4F8011C58460BF0B9F8011C30
:1038B00050460BF0B5F8E16C824604980BF0C7F85F
:1038C000216B8346281C0BF0C2F8011C58460BF0F4
:1038D000A7F86169834607980BF0B9F8011C5846B0
:1038E0000BF09EF8011C50460BF09AF84346E16E2F
:1038F000586105980BF0ABF888238246E15806988A
:103900000BF0A5F8011C50460BF08AF8A423824660
:10391000E158381C0BF09BF8C023071CE158301C01
:103920000BF095F8011C381C0BF07AF8011C50467E
:103930000BF076F8616B061C281C0BF088F8216DE3
:10394000051C04980BF083F8011C281C0BF068F888
:10395000A169051C07980BF07AF8011C281C0BF0D4
:103960005FF8011C301C0BF05BF8434698610423A0
:103970009C461833E1449C464DABE044994500D049
:103980002EE60A9BA146D8249846A427A4004444C6
:10399000BF00474420000999FFF774FD21009022E1
:1039A0003800C8240BF0DAF9FC21A4004444890053
:1039B0004144182220000BF0D1F9CE208121800053
:1039C000C9004144182240440BF0C8F98422D42392
:1039D000D200424412689B0043441A60D523874AB0
:1039E0004546424412889B004344FE211A8000232E
:1039F0002268B0359200AA1889051160936113639B
:103A0000936413669367C922920042441268444645
:103A10009200AA181360916113639364136693670D
:103A2000CA2292004244126806269200AA18136025
:103A300093611163936413669367CB2292004244AF
:103A4000126806209200AA181360936113639164B0
:103A500013669367CC229200424412689200AA181F
:103A6000136093611363936411669367CD22920090
:103A7000424412689200AA1813609361136393641E
:103A80001366A8235B009B46916742465946E4189B
:103A900020334344A660E6602661535080229200A2
:103AA00042444B396260924604933A0006230294E2
:103AB000FF3901960095FDF7DFFA42465946049B0F
:103AC000A660E6602661535053464B3963603A0066
:103AD00006230294062001960095FF39FDF7D0FDDC
:103AE00043461B688C2206934346DB69D3AC07939D
:103AF00043469B6B089343465B6D099343461B6F9C
:103B00000A9343469B5804320B9343465B680C93DD
:103B100043461B6A0D934346DB6B0E9343469B6DF6
:103B20000F9343465B6F109343469B5804321193A7
:103B300043469B68129343465B6A139343461B6C50
:103B400014934346DB6D159343469B6F1693434690
:103B50009B58043217934346DB68189343469B6A8D
:103B6000199343465B6C1A9343461B6E1B93434663
:103B7000DB6F1C9343469B58183A1D9343461B69C1
:103B80001E934346DB6A1F9343469B6C2093434638
:103B90005B6E219343469B581C32229343469B58AD
:103BA000183A239343465B69249343461B6B259342
:103BB0004346DB6C269343469B6E279343469B58B4
:103BC0001C32289343469B58183A299343469B69D5
:103BD0002A9343465B6B2B9343461B6D2C934346C2
:103BE000DB6E2D9343469B581C322E9343469B58C5
:103BF000A8462F934B46329302E0C04624040000AF
:103C000043461F685B6842469946434641469B6867
:103C1000D2680E694D6907984946049305920AF0E7
:103C200016FF0499824608980AF011FF011C5046BD
:103C30000AF0F6FE391C824606980AF008FF011CBD
:103C400050460AF0EDFE311C82460A980AF0FFFE4B
:103C5000291C83460B980AF0FAFE011C58460AF00C
:103C6000DFFE0599834609980AF0F1FE011C5846CB
:103C70000AF0D6FE011C50460AF0D2FE49462060EA
:103C80000D980AF0E4FE049982460E980AF0DFFED1
:103C9000011C50460AF0C4FE391C82460C980AF0FA
:103CA000D6FE011C50460AF0BBFE311C824610981D
:103CB0000AF0CDFE291C834611980AF0C8FE011CAB
:103CC00058460AF0ADFE059983460F980AF0BFFEEC
:103CD000011C58460AF0A4FE011C50460AF0A0FE42
:103CE0004946606013980AF0B2FE0499824614981F
:103CF0000AF0ADFE011C50460AF092FE391C8246C5
:103D000012980AF0A4FE011C50460AF089FE311CEC
:103D1000824616980AF09BFE291C834617980AF0E3
:103D200096FE011C58460AF07BFE059983461598BD
:103D30000AF08DFE011C58460AF072FE011C504626
:103D40000AF06EFE4946A06019980AF080FE0499B8
:103D500082461A980AF07BFE011C50460AF060FE6B
:103D6000391C824618980AF072FE011C50460AF06F
:103D700057FE311C82461C980AF069FE291C8346B6
:103D80001D980AF064FE011C58460AF049FE059988
:103D900083461B980AF05BFE011C58460AF040FE61
:103DA000011C50460AF03CFE4946E0601F980AF0AC
:103DB0004EFE0499824620980AF049FE011C5046A6
:103DC0000AF02EFE391C82461E980AF040FE011CA5
:103DD00050460AF025FE311C824622980AF037FE32
:103DE000291C834623980AF032FE011C58460AF02B
:103DF00017FE0599834621980AF029FE011C5846B2
:103E00000AF00EFE011C50460AF00AFE49462061E7
:103E100025980AF01CFE0499824626980AF017FE9F
:103E2000011C50460AF0FCFD391C824624980AF019
:103E30000EFE011C50460AF0F3FD311C8246289804
:103E40000AF005FE291C834629980AF000FE011C91
:103E500058460AF0E5FD0599834627980AF0F7FDD4
:103E6000011C58460AF0DCFD011C50460AF0D8FD42
:103E7000494660612B980AF0EAFD049981462C9826
:103E80000AF0E5FD011C48460AF0CAFD391C8146CE
:103E90002A980AF0DCFD011C48460AF0C1FD311CDD
:103EA000071C2E980AF0D3FD291C061C2F980AF037
:103EB000CEFD011C301C0AF0B3FD0599051C2D98A0
:103EC0000AF0C5FD011C281C0AF0AAFD011C381CC3
:103ED0000AF0A6FD18239C46A061FDAB1C34E0440B
:103EE000A34200D08CE6329BD49A9946D39BD599B5
:103EF000D69CD79DD89ED99F06930792DA9BDB9AD2
:103F000008910994DC99DD9C0A950B96DE9DDF9E55
:103F10000C970D93E09FE19B0E92E29A0F91109403
:103F200011951296139714931592E399E49CE59DCD
:103F3000E69EE79FE89BE99A16911794EA99EB9C15
:103F400018951996EC9DED9E1A971B93EE9FEF9B8B
:103F50001C921D91F09AF1991E94F29C2096219743
:103F600022932392249125941F95F39DF49EF59F0F
:103F7000F79AF69BF899F99C26952796FA9DFB9E51
:103F80002897FC9F2A923A9A29932B912C942D954D
:103F90002E962F97D3AB32CA32C332CA32C31168BE
:103FA000D3AC1960FD49FE4B09681B680191FD49BE
:103FB000FD4A09682000009141A9FDF7CDFF319F1E
:103FC000419938680AF029FD4299834678680AF0D9
:103FD00024FD43998246B8680AF01FFD4499041CE9
:103FE000F8680AF01AFD4599051C38690AF015FDB4
:103FF0004699061C78690AF010FD071C011C2A98D6
:104000000AF025FD311C804623980AF020FD011C92
:1040100040460AF005FD291C80461C980AF017FD51
:10402000011C40460AF0FCFC211C804615980AF051
:104030000EFD514604900E980AF009FD011C0498EB
:104040000AF0EEFC5946049007980AF000FD011CA6
:1040500004980AF0E5FC011C40460AF0E1FC3A9A9B
:1040600051680AF0DDFC391C04902B980AF0EFFC33
:10407000311C804624980AF0EAFC011C40460AF0F4
:10408000CFFC291C80461D980AF0E1FC011C40462B
:104090000AF0C6FC211C804616980AF0D8FC51464E
:1040A00005900F980AF0D3FC011C05980AF0B8FCA3
:1040B0005946059008980AF0CAFC011C05980AF0B8
:1040C000AFFC011C40460AF0ABFC3A9A91680AF03A
:1040D000A7FC391C05902C980AF0B9FC311C8046CD
:1040E00025980AF0B4FC011C40460AF099FC291CF2
:1040F00080461E980AF0ABFC011C40460AF090FC7A
:10410000211C804617980AF0A2FC51463190109865
:104110000AF09DFC011C31980AF082FC594631904E
:1041200009980AF094FC011C31980AF079FC011CF2
:1041300040460AF075FC3A9AD1680AF071FC391CC5
:1041400031902D980AF083FC311C804626980AF0A5
:104150007EFC011C40460AF063FC291C80461F9827
:104160000AF075FC011C40460AF05AFC211C8046EE
:1041700018980AF06CFC5146329011980AF067FCCE
:10418000011C32980AF04CFC594632900A980AF009
:104190005EFC011C32980AF043FC011C40460AF008
:1041A0003FFC3A9A11690AF03BFC391C32902E9878
:1041B0000AF04DFC311C804627980AF048FC011C8F
:1041C00040460AF02DFC291C804620980AF03FFC4E
:1041D000011C40460AF024FC211C804619980AF074
:1041E00036FC5146339012980AF031FC011C33988A
:1041F0000AF016FC594633900B980AF028FC011C73
:1042000033980AF00DFC011C40460AF009FC3A9A6A
:1042100051690AF005FC5146339013980AF017FCD7
:10422000211C80461A980AF012FC011C40460AF034
:10423000F7FB594680460C980AF009FC011C4046E1
:104240000AF0EEFB311C804628980AF000FC391C6D
:1042500034902F980AF0FBFB011C34980AF0E0FB25
:10426000291C349021980AF0F2FB011C34980AF0C2
:10427000D7FB011C40460AF0D3FB3A9A91690AF039
:10428000CFFB391C804629980AF0E1FB311C071C42
:1042900022980AF0DCFB011C381C0AF0C1FB291C27
:1042A000061C1B980AF0D3FB011C301C0AF0B8FB5B
:1042B000211C051C14980AF0CAFB5146041C0D98D9
:1042C0000AF0C5FB011C201C0AF0AAFB5946041C7D
:1042D00006980AF0BCFB011C201C0AF0A1FB011C83
:1042E000281C0AF09DFB3A9AD3AC11680AF098FB9F
:1042F0003B9B049A18605A60059A9A60319ADA607A
:10430000329A1A61339A5A6142469A614B461B6847
:104310004A46A2934B465B68A3934B469B68A49383
:104320004B46DB68A5934B461B69A6934B465B69DE
:10433000A7934B469B69A8934B46DB69A9934B46D1
:104340001B6AAA934B465B6AAB934B469B6AAC9342
:104350004B46DB6AAD934B461B6BAE934B465B6B98
:10436000AF934B469B6BB0934B46DB6BB1934B4685
:104370001B6CB2934B465B6CB3934B469B6CB493F4
:104380004B46DB6CB5934B461B6DB6934B465B6D52
:10439000B7934B469B6DB8934B4607E06C200320C8
:1043A00074200320702003200AE81C41DB6DB993C0
:1043B0004B461B6EBA934B465B6EBB934B469B6E54
:1043C000BC934B46DB6EBD934B461B6FBE934B4677
:1043D0005B6FBF934B469B6FC0934B46DB6FC193A4
:1043E0008023D358C2938423D358C3938823D358AC
:1043F000C4938C23D358C5939023D358C693942346
:10440000D358C7939823D358C8939C23D358C993A0
:10441000A023D358CA93A423D358CB93A823D3580B
:10442000CC93AC23D358CD93B023D358CE93B4239D
:10443000D358CF93B823D358D093BC23D358D19318
:10444000C023D358D293309B3092984643461F687E
:104450005B6842469946434641469B68D2680E696E
:104460004D690D984946049305920AF0F0FA0499B3
:10447000824614980AF0EBFA011C50460AF0D0FA72
:10448000391C824606980AF0E2FA011C50460AF0EE
:10449000C7FA311C824622980AF0D9FA291C8346B1
:1044A00029980AF0D4FA011C58460AF0B9FA05997D
:1044B00083461B980AF0CBFA011C58460AF0B0FA62
:1044C000011C50460AF0ACFA494620600E980AF0EA
:1044D000BEFA0499824615980AF0B9FA011C5046B2
:1044E0000AF09EFA391C824607980AF0B0FA011CBD
:1044F00050460AF095FA311C824623980AF0A7FA32
:10450000291C83462A980AF0A2FA011C58460AF090
:1045100087FA059983461C980AF099FA011C5846B7
:104520000AF07EFA011C50460AF07AFA49466060A9
:104530000F980AF08CFA0499824616980AF087FAC6
:10454000011C50460AF06CFA391C824608980AF0A1
:104550007EFA011C50460AF063FA311C8246249808
:104560000AF075FA291C83462B980AF070FA011C90
:1045700058460AF055FA059983461D980AF067FADD
:10458000011C58460AF04CFA011C50460AF048FA41
:104590004946A06010980AF05AFA04998246179882
:1045A0000AF055FA011C50460AF03AFA391C8246C4
:1045B00009980AF04CFA011C50460AF031FA311CF5
:1045C000824625980AF043FA291C83462C980AF063
:1045D0003EFA011C58460AF023FA059983461E98B4
:1045E0000AF035FA011C58460AF01AFA011C504626
:1045F0000AF016FA4946E06011980AF028FA049980
:10460000824618980AF023FA011C50460AF008FA6C
:10461000391C82460A980AF01AFA011C50460AF020
:10462000FFF9311C824626980AF011FA291C8346AC
:104630002D980AF00CFA011C58460AF0F1F9059978
:1046400083461F980AF003FA011C58460AF0E8F95D
:10465000011C50460AF0E4F94946206112980AF01C
:10466000F6F90499824619980AF0F1F9011C5046AE
:104670000AF0D6F9391C82460B980AF0E8F9011CB9
:1046800050460AF0CDF9311C824627980AF0DFF92E
:10469000291C83462E980AF0DAF9011C58460AF0C4
:1046A000BFF90599834620980AF0D1F9011C5846B4
:1046B0000AF0B6F9011C50460AF0B2F949466061A9
:1046C00013980AF0C4F9049981461A980AF0BFF9C0
:1046D000011C48460AF0A4F9391C81460C980AF0DE
:1046E000B6F9011C48460AF09BF9311C071C2898B2
:1046F0000AF0ADF9291C061C2F980AF0A8F9011C34
:10470000301C0AF08DF90599051C21980AF09FF9D3
:10471000011C281C0AF084F9011C381C0AF080F9DD
:1047200018239C46FFABA06114331C34E044A34221
:1047300000D08BE6309BA2AD99463C93C4234C46F7
:10474000C8464B44089307944246D26843464146C4
:10475000914642469E694C68096892685F691B6988
:104760000491301CFD99069305920AF070F9F699B0
:104770008246381C0AF06BF9011C50460AF050F9C9
:10478000EF99824606980AF062F9E899834648460E
:104790000AF05DF9011C58460AF042F9011C504626
:1047A0000AF03EF9E199824605980AF050F9DA9943
:1047B0008346201C0AF04BF9011C58460AF030F9D8
:1047C000D399834604980AF042F9011C58460AF02E
:1047D00027F9011C50460AF023F9011C28680AF049
:1047E0001CF92860FE99301C0AF031F9F7998246CD
:1047F000381C0AF02CF9011C50460AF011F9F09906
:10480000824606980AF023F9E999834648460AF059
:104810001EF9011C58460AF003F9011C50460AF023
:10482000FFF8E299824605980AF011F9DB99834670
:10483000201C0AF00CF9011C58460AF0F1F8D49932
:10484000834604980AF003F9011C58460AF0E8F878
:10485000011C50460AF0E4F8011C68680AF0DDF813
:10486000FF996860301C0AF0F2F8F8998246381C0B
:104870000AF0EDF8011C50460AF0D2F8F199824690
:1048800006980AF0E4F8EA99834648460AF0DFF809
:10489000011C58460AF0C4F8011C50460AF0C0F842
:1048A000E399824605980AF0D2F8DC998346201CE9
:1048B0000AF0CDF8011C58460AF0B2F8D5998346A3
:1048C00004980AF0C4F8011C58460AF0A9F8011C23
:1048D00050460AF0A5F8011CA8680AF09EF8FFAB44
:1048E0005968A860301C04330AF0B1F8F99982467F
:1048F000381C0AF0ACF8011C50460AF091F8F29905
:10490000824606980AF0A3F8EB99834648460AF0D7
:104910009EF8011C58460AF083F8011C50460AF024
:104920007FF8E499824605980AF091F8DD9983466C
:10493000201C0AF08CF8011C58460AF071F8D69930
:10494000834604980AF083F8011C58460AF068F878
:10495000011C50460AF064F8011CE8680AF05DF892
:10496000FFAB9968E860301C08330AF070F8FA99D8
:104970008246381C0AF06BF8011C50460AF050F8C9
:10498000F399824606980AF062F8EC998346484605
:104990000AF05DF8011C58460AF042F8011C504626
:1049A0000AF03EF8E599824605980AF050F8DE993B
:1049B0008346201C0AF04BF8011C58460AF030F8D8
:1049C000D799834604980AF042F8011C58460AF029
:1049D00027F8011C50460AF023F8011C28690AF048
:1049E0001CF8FFABD9682861301C0C330AF02FF893
:1049F000FB998246381C0AF02AF8011C50460AF03E
:104A00000FF8F499824606980AF021F8ED9983464A
:104A100048460AF01CF8011C58460AF001F8011C2F
:104A2000504609F0FDFFE699824605980AF00FF816
:104A3000DF998346201C0AF00AF8011C584609F049
:104A4000EFFFD899834604980AF001F8011C5846F4
:104A500009F0E6FF011C504609F0E2FF011C6869FD
:104A600009F0DBFFEE996861484609F0F0FFF5991F
:104A70008146069809F0EBFF011C484609F0D0FF7B
:104A8000FC998146381C09F0E2FFFFAB1969071C4D
:104A9000301C103309F0DBFF011C381C09F0C0FF8B
:104AA000011C484609F0BCFFE099061C201C09F0D7
:104AB000CEFFE799041C059809F0C9FF011C201CD2
:104AC00009F0AEFFD999041C049809F0C0FF011C3D
:104AD000201C09F0A5FF011C301C09F0A1FF011CDE
:104AE000A86909F09AFF1C239C46089BE044A86132
:104AF0001C35984500D027E6079BA29A99461A6074
:104B0000A39A5A60A49A9A60A59ADA60A69A1A6142
:104B1000A79A5A61A89A9A61A99ADA61AA9A1A621E
:104B2000AB9A5A62AC9A9A62AD9ADA62AE9A1A63FA
:104B3000AF9A5A63B09A9A63B19ADA63B29A1A64D6
:104B4000B39A5A64B49A9A64B59ADA64B69A1A65B2
:104B5000B79A5A65B89A9A65B99ADA65BA9A1A668E
:104B6000BB9A5A66BC9A9A66BD9ADA66BE9A1A676A
:104B7000BF9A5A67C09A9A67C19ADA674A468023F1
:104B8000C299D150C3990433D150C4990433D15040
:104B9000C5990433D150C6990433D150C799043311
:104BA000D150C8990433D150C9990433D150CA990E
:104BB0000433D150CB990433D150CC990433D15024
:104BC000CD990433D150CE990433D150CF990433C9
:104BD000D150D0990433D150D1990433D150D299C6
:104BE0000433D1503AAA9446504BA2AA63441B689E
:104BF00013CB13C24E4BD3AC63441B6807CB07C423
:104C00003A9B3B9D00934B4B28006344A2A91B6831
:104C1000D3AAFDF77FF82B00D3AA23CB23C213CB53
:104C200013C23AA91B688C4613603EAA11003F4B81
:104C300063441B6831CB31C13D4BA2A963441B685F
:104C400031CB31C13B4BD3A963441B6871A800939E
:104C5000A2ABFDF7C5FAD3AB1C000793719BA0462E
:104C60000993789B10937F9B1793869B1E938D9B34
:104C70002593949B2C939B9B3393729B0A93799BD4
:104C80001193809B1893879B1F938E9B2693959BD4
:104C90002D939C9B3493739B0B937A9B1293819BD4
:104CA0001993889B20938F9B2793969B2E939D9B74
:104CB0003593749B0C937B9B1393829B1A93899BD4
:104CC0002193909B2893979B2F939E9B3693759B44
:104CD0000D937C9B1493839B1B938A9B2293919BA4
:104CE0002993989B30939F9B3793769B0E937D9B44
:104CF0001593849B1C938B9B2393929B2A93999B44
:104D00003193A09B3893779B0F937E9B1693859B43
:104D10001D938C9B2493939B2B939A9B3293A19BE3
:104D200039934B463D933C9B994605E0280800008B
:104D3000380800003C080000484649464A464B46B1
:104D4000866909691B6855689468D2684769069145
:104D50003398311C0592049309F079FE391C824680
:104D60002C9809F074FE011C504609F059FE069972
:104D70008246259809F06BFE059983461E9809F036
:104D800066FE011C584609F04BFE011C504609F016
:104D900047FE211C8246179809F059FE291C8346BC
:104DA000109809F054FE011C584609F039FE049988
:104DB0008346099809F04BFE011C584609F030FE65
:104DC000011C504609F02CFE4346311C18603498F3
:104DD00009F03DFE391C82462D9809F038FE011C71
:104DE000504609F01DFE06998246269809F02FFECE
:104DF000059983461F9809F02AFE011C584609F0C0
:104E00000FFE011C504609F00BFE211C824618982B
:104E100009F01DFE291C8346119809F018FE011C9B
:104E2000584609F0FDFD049983460A9809F00FFEE3
:104E3000011C584609F0F4FD011C504609F0F0FD34
:104E40004346311C5860359809F001FE391C8246F2
:104E50002E9809F0FCFD011C504609F0E1FD069971
:104E60008246279809F0F3FD05998346209809F0BA
:104E7000EEFD011C584609F0D3FD011C504609F017
:104E8000CFFD211C8246199809F0E1FD291C8346BB
:104E9000129809F0DCFD011C584609F0C1FD049987
:104EA00083460B9809F0D3FD011C584609F0B8FD64
:104EB000011C504609F0B4FD4346311C98603698F9
:104EC00009F0C5FD391C82462F9809F0C0FD011C70
:104ED000504609F0A5FD06998246289809F0B7FDCD
:104EE00005998346219809F0B2FD011C584609F046
:104EF00097FD011C504609F093FD211C82461A982B
:104F000009F0A5FD291C8346139809F0A0FD011C9A
:104F1000584609F085FD049983460C9809F097FDE1
:104F2000011C584609F07CFD011C504609F078FD33
:104F30004346311CD860379809F089FD391C8246F8
:104F4000309809F084FD011C504609F069FD06996E
:104F50008246299809F07BFD05998346229809F03D
:104F600076FD011C584609F05BFD011C504609F016
:104F700057FD211C82461B9809F069FD291C8346B8
:104F8000149809F064FD011C584609F049FD049984
:104F900083460D9809F05BFD011C584609F040FD61
:104FA000011C504609F03CFD4346311C18613898FD
:104FB00009F04DFD391C8246319809F048FD011C6D
:104FC000504609F02DFD069982462A9809F03FFDCA
:104FD00005998346239809F03AFD011C584609F0CB
:104FE0001FFD011C504609F01BFD211C82461C9828
:104FF00009F02DFD291C8346159809F028FD011C98
:10500000584609F00DFD049983460E9809F01FFDDE
:10501000011C584609F004FD011C504609F000FD32
:10502000434605995861249809F011FD0699824676
:105030002B9809F00CFD011C504609F0F1FC391CBD
:105040008246329809F003FD311C071C399809F09B
:10505000FEFC011C381C09F0E3FC011C504609F061
:10506000DFFC291C061C169809F0F1FC211C051C0C
:105070001D9809F0ECFC011C281C09F0D1FC0499D6
:10508000041C0F9809F0E3FC011C201C09F0C8FC6B
:10509000011C301C09F0C4FC434698611C239C464B
:1050A000089BE144E044994500D045E6A2ACA04607
:1050B000F6AB0693DAAB3C940893079B33981A68D7
:1050C000596D0492069A8946D669196FDD69059172
:1050D000311C9C6B176809F0BAFC391C82462C986D
:1050E00009F0B5FC011C504609F09AFC059982466E
:1050F000259809F0ACFC494683461E9809F0A7FCA8
:10510000011C584609F08CFC011C504609F088FC33
:10511000211C8246179809F09AFC291C8346109896
:1051200009F095FC011C584609F07AFC0499834665
:10513000099809F08CFC011C584609F071FC011C0F
:10514000504609F06DFC41460860311C349809F066
:105150007EFC391C82462D9809F079FC011C5046D2
:1051600009F05EFC05998246269809F070FC4946D4
:1051700083461F9809F06BFC011C584609F050FC4F
:10518000011C504609F04CFC211C8246189809F07D
:105190005EFC291C8346119809F059FC011C5846F5
:1051A00009F03EFC049983460A9809F050FC011C62
:1051B000584609F035FC011C504609F031FC4146C7
:1051C0004860311C359809F042FC391C82462E9803
:1051D00009F03DFC011C504609F022FC059982466D
:1051E000279809F034FC49468346209809F02FFCA3
:1051F000011C584609F014FC011C504609F010FC33
:10520000211C8246199809F022FC291C8346129819
:1052100009F01DFC011C584609F002FC0499834664
:105220000B9809F014FC011C584609F0F9FB011C0D
:10523000504609F0F5FB41468860311C369809F06C
:1052400006FC391C82462F9809F001FC011C5046CF
:1052500009F0E6FB05998246289809F0F8FB4946D3
:105260008346219809F0F3FB011C584609F0D8FB4E
:10527000011C504609F0D4FB211C82461A9809F003
:10528000E6FB291C8346139809F0E1FB011C5846F4
:1052900009F0C6FB049983460C9809F0D8FB011C61
:1052A000584609F0BDFB011C504609F0B9FB4146C8
:1052B000C860311C379809F0CAFB391C8246309807
:1052C00009F0C5FB011C504609F0AAFB059982466E
:1052D000299809F0BCFB49468346229809F0B7FBA0
:1052E000011C584609F09CFB011C504609F098FB34
:1052F000211C82461B9809F0AAFB291C834614989E
:1053000009F0A5FB011C584609F08AFB0499834665
:105310000D9809F09CFB011C584609F081FB011C0B
:10532000504609F07DFB41460861311C389809F070
:105330008EFB391C8246319809F089FB011C5046CE
:1053400009F06EFB059982462A9809F080FB4946D0
:105350008346239809F07BFB011C584609F060FB4B
:10536000011C504609F05CFB211C82461C9809F088
:105370006EFB291C8346159809F069FB011C5846F1
:1053800009F04EFB049983460E9809F060FB011C5E
:10539000584609F045FB011C504609F041FB4346C5
:1053A00049465861249809F052FB059981462B988B
:1053B00009F04DFB011C484609F032FB391C8146BF
:1053C000329809F044FB311C071C399809F03FFB67
:1053D000011C381C09F024FB011C484609F020FB85
:1053E000291C061C169809F032FB211C051C1D986F
:1053F00009F02DFB011C281C09F012FB0499041C68
:105400000F9809F024FB011C201C09F009FB011C6A
:10541000301C09F005FB414688611C218C46069A28
:10542000079B04320692089A04330793E0449A4299
:1054300000D042E63AAA94463D9B764A9946754B7F
:10544000624463441B6812681B68D3AC0793714BBA
:1054500063441B68DB6908936E4B63441B689B6B5A
:1054600009936C4B63441B685B6D0A93694B6344FF
:105470001B681B6F0B938C23D358664A0C93654BA8
:10548000624463441B685B680D93624B63441B6812
:105490001B6A0E935F4B63441B68DB6B0F935D4B82
:1054A00063441B689B6D10935A4B63441B685B6F8E
:1054B000126811939023D358564A1293554B624465
:1054C00063441B6812689B681393524B63441B68C8
:1054D0005B6A14934F4B63441B681B6C15934D4BD5
:1054E00063441B68DB6D16934A4B63441B689B6FD8
:1054F00017939423D358474A1893464B6244634406
:105500001B68DB681993434B63441B689B6A1A93BF
:10551000404B63441B685B6C1B933E4B63441B68AE
:1055200012681B6E1C933B4B63441B68DB6F1D931F
:105530009823D358374A1E93364B624463441B6802
:1055400012681B691F93334B63441B68DB6A20930B
:10555000304B63441B689B6C21932E4B63441B6848
:105560005B6E22938023D3582A4A23939C23624460
:105570001268D358274A2493264B624463441B681D
:105580005B692593234B63441B681B6B2693214B5C
:10559000126863441B68DB6C27931E4B63441B68D3
:1055A0009B6E28938423D3581A4A2993A0236244DC
:1055B0001268D358174A2A93164B624463441B68F7
:1055C00012689B692B93134B63441B685B6B2C9392
:1055D000104B63441B681B6D2D930E4B63441B687B
:1055E000DB6E2E938823D3580A4A2F93A423624458
:1055F0001268D35822003093074B63441B689846C7
:10560000D3AB06939023434431934B464446904694
:10561000329303E0340800002C0800006368E2685D
:105620009946A368089948460493059209F00FFA31
:1056300009998246049809F00AFA011C504609F0BB
:10564000EFF9276882460799381C09F000FA011C17
:10565000504609F0E5F9266982460B99301C09F09D
:10566000F6F9656983460C99281C09F0F0F9011CCC
:10567000584609F0D5F90A998346059809F0E7F9E3
:10568000011C584609F0CCF9011C504609F0C8F934
:10569000414608600E99484609F0D9F90F998246AB
:1056A000049809F0D4F9011C504609F0B9F90D9994
:1056B0008246381C09F0CBF9011C504609F0B0F9BC
:1056C00011998246301C09F0C2F912998346281CB0
:1056D00009F0BDF9011C584609F0A2F9109983465A
:1056E000059809F0B4F9011C584609F099F9011C14
:1056F000504609F095F9414648601499484609F02A
:10570000A6F915998246049809F0A1F9011C5046A2
:1057100009F086F913998246381C09F098F9011CA2
:10572000504609F07DF917998246301C09F08FF92F
:1057300018998346281C09F08AF9011C584609F07B
:105740006FF916998346059809F081F9011C5846AE
:1057500009F066F9011C504609F062F9414688607B
:105760001A99484609F073F91B998246049809F082
:105770006EF9011C504609F053F919998246381CFC
:1057800009F065F9011C504609F04AF91D99824655
:10579000301C09F05CF91E998346281C09F057F962
:1057A000011C584609F03CF91C998346059809F0FC
:1057B0004EF9011C584609F033F9011C504609F016
:1057C0002FF94146C8602099484609F040F92199CF
:1057D0008246049809F03BF9011C504609F020F973
:1057E0001F998246381C09F032F9011C504609F015
:1057F00017F923998246301C09F029F92499834628
:10580000281C09F024F9011C584609F009F92299CD
:105810008346059809F01BF9011C584609F000F968
:10582000011C504609F0FCF841460861269948469B
:1058300009F00DF927998246049809F008F9011C2E
:10584000504609F0EDF825998246381C09F0FFF81A
:10585000011C504609F0E4F829998246301C09F0F1
:10586000F6F82A998346281C09F0F1F8011C5846DD
:1058700009F0D6F828998346059809F0E8F8011C44
:10588000584609F0CDF8011C504609F0C9F84346C6
:105890002C995861484609F0DAF82D998146049808
:1058A00009F0D5F8011C484609F0BAF82B99814651
:1058B000381C09F0CCF8011C484609F0B1F82F99C2
:1058C000071C301C09F0C3F83099061C281C09F08D
:1058D000BEF8011C301C09F0A3F82E99051C059890
:1058E00009F0B5F8011C281C09F09AF8011C381CB5
:1058F00009F096F8434698611C239C46319B183466
:10590000E044A34200D089E6F6AB05933C9CDAABB9
:105910003193069B0899DA691F6891469A6B48464D
:1059200090465A6D1E6F0492059A20CA059209F09E
:105930008EF809998246404609F089F8011C5046C4
:1059400009F06EF807998246381C09F080F8011CAE
:10595000504609F065F80B998246301C09F077F83B
:105960000C998346281C09F072F8011C584609F06E
:1059700057F80A998346049809F069F8011C5846BB
:1059800009F04EF8011C504609F04AF8011C206845
:1059900009F046F80E992060484609F058F80F992A
:1059A0008246404609F053F8011C504609F038F889
:1059B0000D998246381C09F04AF8011C504609F03E
:1059C0002FF811998246301C09F041F8129983464C
:1059D000281C09F03CF8011C584609F021F81099E0
:1059E0008346049809F033F8011C584609F018F86A
:1059F000011C504609F014F8011C606809F010F809
:105A000018996060281C09F022F817998246301C0A
:105A100009F01DF8011C504609F002F8169982465B
:105A2000049809F014F8011C504608F0F9FF149985
:105A30008246484609F00BF815998346404609F01E
:105A400006F8011C584608F0EBFF13998346381CF2
:105A500008F0FDFF011C584608F0E2FF011C50460B
:105A600008F0DEFF011CA06808F0DAFF1E99A060B4
:105A7000281C08F0ECFF1D998246301C08F0E7FF57
:105A8000011C504608F0CCFF1C998246049808F08F
:105A9000DEFF011C504608F0C3FF1B9982464046BA
:105AA00008F0D5FF1A998346484608F0D0FF011C3C
:105AB000584608F0B5FF19998346381C08F0C7FF0F
:105AC000011C584608F0ACFF011C504608F0A8FF26
:105AD000011CE06808F0A4FF2099E060484608F047
