:020000041000EA
:1000000000B5324B212058609868022188439860DF
:10001000D860186158612E4B002199600221596106
:100020000121F02299502B49196001219960352056
:1000300000F044F80222904214D00621196600F024
:1000400034F8196E01211966002018661A6600F04E
:100050002CF8196E196E196E052000F02FF8012189
:100060000842F9D1002199601B49196000215960AB
:100070001A491B48016001219960EB211966A021F2
:10008000196600F012F800219960164914480160C1
:100090000121996001BC002800D000471248134993
:1000A000086003C880F30888084703B5996A0420EC
:1000B0000142FBD001200142F8D103BD02B5186610
:1000C0001866FFF7F2FF186E186E02BD00000240BE
:1000D000000000180000070000035F00212200005C
:1000E000F4000018222000A00001001008ED00E03C
:1000F00000000000000000000000000074B24E7A12
:1001000000200420F7010010C3010010C5010010F9
:10011000C1010010C1010010C1010010C101001097
:10012000C1010010C1010010C1010010C701001081
:10013000C1010010C1010010C9010010CB01001065
:10014000CD010010CD010010CD010010CD01001037
:10015000CD010010CD010010CD010010CD01001027
:10016000CD010010CD010010CD010010CD01001017
:10017000CD010010CD010010CD010010CD01001007
:10018000CD010010CD010010CD010010CD010010F7
:10019000CD010010CD010010CD010010CD010010E7
:1001A000CD010010CD010010CD010010CD010010D7
:1001B000CD010010CD010010CD010010CD010010C7
:1001C00000BE00BE00BE00BE00BE00BEEFF3058054
:1001D000103800BEF2EB88711C3F05103C3F051043
:1001E0003402001090A31AE700201F49086006C8D7
:1001F00081F3088810471D48006800282FD10DA4FE
:100200000ECC002902D000F012F8F9E71849194A7B
:10021000002000E001C19142FCD1174988471749ED
:1002200088471749884700BEFDE701C901C29A42C5
:10023000FBD370473C3F0510C0000020902C0020ED
:100240000C6B051000000420000004200C6B05104E
:10025000001004200010042000000000704709482E
:100260000DF002F80047000008ED00E0000000D0AB
:10027000902C0020B85803205DBA001055030010E0
:1002800091BB00105756000006005250ABB36053AC
:10029000E89A041006005250861C0302F89A0410D3
:1002A000060052505422A29D049B04100500525097
:1002B000DE65F4680C6B0510F8B5C0460448054BC4
:1002C00010B5834203D0044B002B00D0984710BDDB
:1002D000902C0020902C00200000000006480749C8
:1002E000091A8B10C90FC91810B5491003D0044B57
:1002F000002B00D0984710BD902C0020902C00209F
:100300000000000010B5074C2378002B09D1FFF73F
:10031000D5FF054B002B02D0044800E000BF0123AD
:10032000237010BDD830002000000000A0960410FB
:10033000054B10B5002B03D00449054800E000BF71
:10034000FFF7CCFF10BDC04600000000DC300020ED
:10035000A096041070B5192009F04CFED02380221D
:100360001B0692045A620EF0EFFE00F047F806F00A
:1003700013FD08F071F906F0D5FF09F0C7F9002266
:100380000524144B1A7006F0B5F9134D013C2100F9
:1003900028000EF0CDFEFA2080000AF03BFC002C75
:1003A000F4D10A200EF024FD012200210B480AF0AE
:1003B000F9F80B4811F078F801220A4B0A4C1A7030
:1003C0002378012BFCD107F02DF82378012BFAD0EC
:1003D000F6E7C0469C580320A0960410D05703208F
:1003E000A98900109B580320A058032010B502488B
:1003F00011F082FB10BDC04690380320092370B570
:1004000086B0059304330493023B0393013B0293AC
:10041000023B324D324C0193324B22003249334879
:1004200000932B0005F024FE142005F01DFEFA2099
:1004300080000AF0EFFB2E4E21003200280006F06B
:100440002FF83378682B08D02A4C20000EF01CFDC2
:10045000FA2080000AF0DEFBF7E773783D2BF3D13A
:1004600001222100280006F03FF8234E320021002F
:10047000280006F073F83378002BF7D10122210011
:10048000280005F0EFFE0121200005F0CDFE03213C
:10049000200005F05FFE0321280005F089FF1321ED
:1004A000200006F0C9F81221200006F003F900210F
:1004B000200006F0E1F80321200006F06BF802218D
:1004C000200006F083F85521200005F061FE182178
:1004D000280005F007FF06B070BDC0467820032055
:1004E0005C32002040420F009C200020942000201D
:1004F00060580320B4960410B5580320F0B5C646E2
:10050000334C344D344E22002900300000B505F044
:10051000D9FF6378DB439B0720D023781B0702D4E5
:1005200080BCB846F0BD2D4C0622002120000EF004
:100530002DFB2100300005F095FF0023E05E05F063
:10054000FFFD274D28600223E05E05F0F9FD68609D
:100550000423E05E05F0F4FDA860E1E7214B0622EC
:100560009846180000210EF011FB1F4F06220021B3
:1005700038000EF00BFB4146280005F055FF39000E
:10058000280005F033FF43460020185E05F0C4FD47
:100590004346164D28600220185E05F0BDFD434617
:1005A00068600420185E05F0B7FDA8600023F85EBF
:1005B00005F0BCFD0E4D28600223F85E05F0B6FD87
:1005C00068600423F85E05F0B1FDA860A5E7C046A9
:1005D000E44D03205C320020782003208C3E032071
:1005E0002C4303207C3E0320843E03200C3D03204B
:1005F000283D0320F0B55746DE464E464546E0B559
:100600008BB008919246190005900993DA170323DD
:100610008C46134063449B109B009846002B00DCE3
:1006200090E05246159B00249B000193149B9B1A5B
:10063000159A9B1A089A9B00029353681268190135
:1006400094460491069251469A00039252468D00B8
:100650000021013A92000792002289465900DE00EB
:10066000CB189B009B461300424665440092019ABA
:1006700094469C44039B1A199F195346002B1EDD78
:10068000069B059819196346804600989B004344D1
:1006900080460094086818600098081A845804314D
:1006A0005C6084599C60C059D86010338D42F1D190
:1006B00043460799009363468C4604339C440421C7
:1006C000029B5A4463448C461400049A3E00E14461
:1006D0009446009A5E4465444A45C8DC1A00009B73
:1006E0009846099B434526DD1499159C089B0D1BD4
:1006F000514609CB6D1A00291DDD41469E004B4332
:100700009B00C01853469C00059B47469C46099B8E
:10071000AB469846159B994600234A449100614494
:10072000C558CD5004339C42FAD1524401375A4443
:100730008019B845F0D10BB0F0BCBB46B246A94613
:10074000A046F0BD0022CCE7F0B54746CE4680B5C6
:100750001F00002B1DDD002A1BDD9300C0180B6855
:10076000002498464B689100D200494252428C4680
:1007700091469B00614645182900A2004244166834
:10078000D21840C18142FAD14A460134A81AA74280
:10079000F0D1C0BCB946B046F0BDC046F0B5DE46AB
:1007A00057464E4645460023E0B51360836887B040
:1007B0009A46059200230268052693460093013B62
:1007C000039002910493052355469B1B98465D4375
:1007D0005B46002B00D18DE14544AD005D442B68A4
:1007E0005C006B6864085F007F08391C381C0EF0E1
:1007F00096F8002800D0DFE0211C381C0EF08AF8A3
:10080000002800D0DFE00027731C9A46022B53D942
:10081000AB685B005B08191C181C99460EF07FF84A
:10082000002800D046E14846211C0EF073F800284D
:1008300001D04C4602275346032B3DD0EB685B00AA
:100840005B08191C181C99460EF069F8002800D0A6
:1008500038E14846211C0EF05DF8002801D04C46D6
:1008600003275346042B27D02B695B005B08191C18
:10087000181C99460EF053F8002800D02AE149468A
:10088000201C0EF039F8002801D04C4604275346AE
:10089000052B11D06D696D006D08291C281C0EF008
:1008A0003EF8002800D01DE1291C201C0EF024F881
:1008B000002801D005272C1C029B009A47440021E8
:1008C0009F50201C0EF010F8002800D17EE0049B01
:1008D000013300D1E3E006239B1B45460193039BB4
:1008E0009B689A465D4306239F1B53469B0099468F
:1008F000019B52461C005443009A7F199446A50060
:1009000065449C460023BF005F44B8461F00644412
:10091000A4005D445C444346286819680DF0B5FFA7
:10092000011C20680DF097FF2060012E2DD9434651
:10093000286859680DF0A9FF011C60680DF08BFF55
:100940006060022E21D04346296898680DF09DFF13
:10095000011CA0680DF07FFFA060032E15D0434658
:100960002968D8680DF091FF011CE0680DF073FF55
:10097000E060052E09D14346296818690DF085FF0E
:10098000011C20690DF067FF206101374D444C4484
:10099000BE42C0D1009B013E04330093019B052B56
:1009A00000D010E71A00029B5A6107B0F0BCBB46AA
:1009B000B246A946A046F0BD211C201C0DF0AFFF99
:1009C000002800D018E73C1C01271DE7474530D020
:1009D00059465C460098BB005B4409581D68039A61
:1009E00092682550196001009200594489189B189B
:1009F00008681C680C60186089189B1808681C68D7
:100A00000C60186089189B1808681C680C601860D6
:100A100089189B1808681C680C60186089189B1856
:100A200018680A6808601A60059A13680193013310
:100A300013604546039B5A469B685D439A460623CE
:100A40009B1B0193EC1843465B199B009F58A40025
:100A50005C442068391C0DF004FF2060012E00D892
:100A600041E76068391C0DF0FCFE6060022E00D189
:100A700039E7A068391C0DF0F4FEA060032E00D108
:100A800031E7E068391C0DF0ECFEE060042E00D187
:100A900029E72069391C0DF0E4FE206123E70623D5
:100AA00045469B1B0193039B9B689A465D434346C7
:100AB000049318E7211C201C0DF031FF002800D101
:100AC000B7E6B0E6211C201C0DF029FF002800D15C
:100AD000C5E6BEE6211C201C0DF021FF002800D138
:100AE000D3E6CCE6211C201C0DF019FF002800D114
:100AF000E0E6D9E61B68FFDEF0B55746DE464E4617
:100B00004546E0B599B01493249B8246259C2698CF
:100B10005D1C00D1229B651C00D1229C239DEE17F9
:100B200003253540239EB4466544AD10AF0007252C
:100B3000229E0E97AE4335000096149E002E00DCD8
:100B400088E29B001693230110930301D318179397
:100B50006B1EDB0801330391D9015B010F93A300E6
:100B60007C43201880001193131815930023D3465B
:100B7000139108930E9B002B00DCC2E10F9A039B9C
:100B8000944663441293179BD84601930023029323
:100B90000298434601000CCB089C5943A44661448B
:100BA000890051180991411C594361448900511829
:100BB0000A91811C59436144890051180B91C11C51
:100BC0004B4363449B00D318019E0C93009B34005D
:100BD000002B00DC45E2039B0025994600234C4690
:100BE000AA46AB46A946069504952F1C0595079580
:100BF0000D9325683168281C0DF047FE59460DF00D
:100C00002DFE71688346281C0DF03FFE51460DF005
:100C100025FEB1688246281C0DF037FE07990DF0BD
:100C20001DFEF1680790281C0DF02FFE05990DF0B0
:100C300015FE059065683169281C0DF026FE391CEB
:100C40000DF00CFE7169071C281C0DF01EFE0499A6
:100C50000DF004FEB1690490281C0DF016FE0699F3
:100C60000DF0FCFDF1690690281C0DF00EFE4946C2
:100C70000DF0F4FD8146A568316A281C0DF005FED3
:100C800059460DF0EBFD716A8346281C0DF0FDFD01
:100C900051460DF0E3FDB16A8246281C0DF0F5FDCA
:100CA00007990DF0DBFDF16A0790281C0DF0EDFDB2
:100CB00005990DF0D3FD0590E568316B281C0DF00A
:100CC000E4FD391C0DF0CAFD716B071C281C0DF0EA
:100CD000DCFD04990DF0C2FDB16B0490281C0DF0F1
:100CE000D4FD06990DF0BAFDF16B0690281C0DF0AD
:100CF000CCFD49460DF0B2FD81462569316C281CBA
:100D00000DF0C3FD59460DF0A9FD716C8346281CFA
:100D10000DF0BBFD51460DF0A1FDB16C8246281CC3
:100D20000DF0B3FD07990DF099FDF16C0790281CAB
:100D30000DF0ABFD05990DF091FD05906569316DE4
:100D4000281C0DF0A2FD391C0DF088FD716D071CEB
:100D5000281C0DF09AFD04990DF080FDB16D0490F2
:100D6000281C0DF092FD06990DF078FDF16D0690AE
:100D7000281C0DF08AFD49460DF070FD8146A569DD
:100D8000316E281C0DF081FD59460DF067FD716E26
:100D90008346281C0DF079FD51460DF05FFDB16EC4
:100DA0008246281C0DF071FD07990DF057FDF16E7C
:100DB0000790281C0DF069FD05990DF04FFD059079
:100DC000E569316F281C0DF060FD391C0DF046FD02
:100DD000716F071C281C0DF058FD04990DF03EFDA5
:100DE000B16F0490281C0DF050FD06990DF036FDF2
:100DF000F16F0690281C0DF048FD49460DF02EFDC0
:100E00008146803620340D9B009A08330D939A4218
:100E100000DDEEE6139B019C9C46051C5946381CE0
:100E200064440DF01BFD5146071C04980DF016FD9F
:100E30000799061C06980DF011FD05998146281C9E
:100E40000DF00CFD129B051C9A46229A009B9A42BB
:100E500030DDAB460493534620CB2168281C9A46CC
:100E60000DF013FD011C381C0DF0F8FC6168071C27
:100E7000281C0DF00AFD011C301C0DF0EFFCA168D0
:100E8000061C281C0DF001FD011C48460DF0E6FC77
:100E9000E1688146281C0DF0F8FC011C58460DF055
:100EA000DDFC8346049B229A0133103404939A425A
:100EB000D1D1051C311C0A9E30680DF0CCFC391CC8
:100EC000099F041C38680DF0C6FC291C0C9D386075
:100ED000346028680DF0BFFC0B9E4946041C306846
:100EE0000DF0B9FC1099019A8C46029B6244019264
:100EF0000E9A0433306002932C609A4200DD47E67C
:100F0000C3460F9A039B944663440E9A0293239B15
:100F10009246159D934200DC90E05B465C68534628
:100F20005C43089B2F009C465B461B6864449C46C0
:100F3000009BA4006444002B00DC99E00023039F85
:100F400099463B00A04600262F001C003968206807
:100F50000DF09BFC311C0DF081FC061C796860686B
:100F60000DF093FC311C0DF079FC061CB968A068EB
:100F70000DF08BFC311C0DF071FC061CF968E0686B
:100F80000DF083FC311C0DF069FC061C39692069E9
:100F90000DF07BFC311C0DF061FC061C7969606969
:100FA0000DF073FC311C0DF059FC061CB969A069E9
:100FB0000DF06BFC311C0DF051FC061CF969E06969
:100FC0000DF063FC311C0DF049FC061C2037203469
:100FD00008239C46009BE1444B45B7DC44460F9BED
:100FE000EF18029B0193229A009B9A4217DD9946C3
:100FF0000023984643464246F958019B98580DF005
:1010000044FC011C301C0DF029FC061C01239C46ED
:101010000333E1449C46229BE0444B45EAD12068DF
:10102000311C0DF018FC01239C46119BE2449C46A8
:10103000239B20606544534500D06EE71699039AC0
:101040008C46089B62440392149A013308939A4297
:1010500000D08FE519B0F0BCBB46B246A946A04609
:10106000F0BD0025039BA9469A462E1C2F1CECE6DA
:10107000039B00260193B6E7F0B557464E46DE4681
:1010800045468024E0B5B5B006AF3C1920609420F9
:101090007B63E823AE4E38180160BA63FB181C6806
:1010A0003378BFF35B8FDB0700D477E2A94D902242
:1010B0002369BA1813608422A368BA1813608022C7
:1010C000BA1812686D68934202DD8423FB181A6017
:1010D00094218423902279180E688C21FB18BA1869
:1010E00012681B6856435343226879180A60002A25
:1010F00000D180E29B003B660023BB6763687B678F
:10110000002B00D163E2B300FB6500233B6798220C
:101110000423BA1813609033FB181B68002B19DDE9
:101120008023E422FB18BA181B6812681900934246
:1011300000DA4AE2280009010CF0F0F80323C21794
:10114000134098221B189B109B00BA181360042BA5
:1011500000DA35E28023FB181968002900DCA9E1D8
:1011600090207B6B38181A000068796484464243EB
:10117000091A3A616244B9647A609821E4227918C4
:10118000BA18126809684A43BA619A007A6104324F
:10119000FA61A02201339B00BA181360E423FB1804
:1011A0001B689B009B460023FB63FB643B64BB66A0
:1011B0009C227B6CBA1813609022BA181268934272
:1011C00002DD9C23FB181A609423FB181B68002B7C
:1011D00000DC47E19C23FB181A68002A00DC41E18F
:1011E0009423E021FB181B687918BB6598230968D4
:1011F000FB188C461B68B86E53439B00BB607B6F2B
:101200001100FB6783006344FB6000238C46FB6690
:10121000FB620B00B021791839630321013B043ACA
:101220008B436044D31A38603B629822BA18BB6D76
:1012300012689A46934200DD9246FA68FB6E944625
:101240009B0063447B66FB6B88227B65FB6CBA1852
:101250003B659C23FB181B6813609C23FB181A68D2
:101260008823FB181B68D21ABA62A422BA1813602A
:10127000042B03DDA4220423BA1813608823FB186F
:101280003A681B68D21A7A62002B65DDA423BA6B18
:10129000FB189146A8221B68BA18013B98467B6D43
:1012A0009B0099447B6E1360AC220023BA18136034
:1012B000AC23AC22FB181B68BA18013313604346F9
:1012C000002B2CDDA8230025FB181C684B46266844
:1012D0005968301C0DF0D9FA011C60680DF0BBFA9A
:1012E00043466060012B16D04B46301C99680DF0C8
:1012F000CCFA011CA0680DF0AEFA4346A060022BA8
:1013000009D04B46301CD9680DF0BFFA011CE068CB
:101310000DF0A1FAE06001355C445545D6D10123BA
:101320005B429C46A133FB181B68E0449C46A82303
:10133000A822FB181B68BA1804331360AC23A4223C
:10134000FB18BA181B681268E1449342B0DB03E053
:10135000E0220320A43803208823A422FB18BA1813
:101360001B681268396B9D1A7B6EBE6A0B60E423A2
:10137000FB181B6891464B609C230196FB181B6869
:1013800088460093F86F5346FFF734F9002D37DD98
:1013900041467C6A386D4C440319B86B4A46844612
:1013A000786B9B004860A420381802608C203818A5
:1013B000006863440B602B0081463963FFF7C4F972
:1013C000E022FB6EBA181B1914689B00A0463C6B08
:1013D00043442360E423FB1819689C236160FB18D5
:1013E00004961B6849460393A423FB181A685346C6
:1013F0000292019300922B002000FA6FFFF77CFB12
:10140000882388227969FB188C461B68BA18043B2C
:10141000F96913603A6D62448C463A657A6E10320F
:101420007A667A6D62447A653A6A9A4200D014E725
:101430009822BA181268B96D9446FB6A8A1AB9697B
:1014400063448C46BA65B968FA6EFB6262448C46A6
:10145000FA66FA6F6244FA679422BA1812689A42DE
:1014600000DDE2E69022BA181268BB6E9446802234
:10147000BA1812686344BB6693421BDA8423FB18D4
:101480001B68002B38DC90233969FB188C467A6C7A
:101490001B68D21A7A643A6C62443A64BA6CD31A02
:1014A000BB647A68FB6C63449446FB64FB6B6344E7
:1014B000FB637DE68023FA6D9B029A4207D93A6F5F
:1014C000002A04D0531E1878101A0DF047FB802311
:1014D0003A6E9B029A4207D9BA6F002A04D0531E73
:1014E0001878101A0DF03AFBBD462FB0F0BCBB4681
:1014F000B246A946A046F0BDBA6B3B6C92469B0033
:101500009A44B023FE18B13B9946BD6CBC6E84234F
:10151000FB181B68A8469D4200DD9846AC22A3003C
:10152000BA1813607A6B8C2072609C225344BA18EC
:10153000381831001268006833604346FFF704F939
:10154000E022AC23BA181268FB1894461B688C2161
:1015500063443360E423FB181B687918736000232D
:1015600004934B46039302939423FB181B683000AB
:1015700001939C23FB181B6800937A6F434609680C
:10158000FFF7BAFA8423FB181B689C46ED1A8023E8
:10159000FB181B686444A342B9DC74E730000FF009
:1015A000A9FF364D002800D181E58023DB012B60A7
:1015B00080231B0330006B60AB600FF0B7FF76E554
:1015C00098220423BA181360C4E51100B2E5802301
:1015D000B200FA659B029A423AD813006A46163363
:1015E000DB08DB00D31A9D4627200F23684498436D
:1015F000386778678BE59A0080233A669B029A42A7
:101600000FD813006A461633DB08DB00D31A9D4659
:1016100027200F23684498437D33FB18B867186070
:101620006CE5100010300DF07BFAB867002800D18F
:1016300064E50F221023844602409B1ADBB29C44CF
:1016400061464A1E13708C23FB18B967196055E573
:10165000100010300DF064FA3867002800D156E50C
:101660000F221023844602409B1ADBB29C44614641
:101670004A1E39671370796749E5C046A4380320CC
:10168000F0B557464E46DE464546E0B5B7B006AF24
:10169000824684207B65F023CB4E38180160BA6304
:1016A000FB181C683378BFF35B8FDB0700D49DE227
:1016B000C64D23696D683B67A368BB67534501DD71
:1016C0005346BB67842179180E6880213A6FBB6F3F
:1016D00056435343226879180A60002A00D1B4E2C5
:1016E0009B003B650023FB666368BB66002B00D153
:1016F00097E2B300FB6400237B6688220423BA18B8
:1017000013608033FB181B68002B16DDEC23FB18DD
:101710001B6851469A4500DA7FE2280009010BF068
:10172000FDFD0323C217134088221B189B109B004A
:10173000BA181360042B00DA6AE25346002B00DC6F
:1017400032E27A6D386F1100434259430B00B9629F
:1017500051460C1A110062431B1A9B00BA647B604D
:101760000A000B0051464B43B96B53448C46E821A9
:101770009B006344FB637918830009685B423B600C
:1017800053468C469B006344EC21BB658823791843
:10179000FB1809681B687C674B4390213B619300F1
:1017A0005B4279180B60043BBB609B00FB60D3433A
:1017B00094229B00BA181360EC23A822FB181B6824
:1017C000BA189B001360544603008C22BA181360A9
:1017D000A34200DD14608423FB181B68002B00DC8F
:1017E00076E18C23FB181A68002A00DC70E1842360
:1017F000FB181B68B96D7B648823FB181B68534377
:101800009B00FB61BB6EFB659300CB1A3B62002320
:10181000B8213B667B63A31A7918FB621300396316
:101820000321013B043A8B43D31A7B61AC227B6CCE
:10183000BA1813608822BA181268934202DDAC23EA
:10184000FB181A603A6A3B6E94469B009C446246C1
:101850007A62BA6D944698226344BA181360FB6B9F
:101860003B648C23FB181B68FB679C22FB6FBA1838
:101870001360042B03DD9C220423BA181360FA6F53
:10188000FB6A94466344BB61002A00DCA0E09C2311
:10189000396CA0208A46FB181B6838185A1E9346DC
:1018A000BA685B42524402607A6D9B1A9B009A446C
:1018B0000423A4225B4299460023BA181360A02394
:1018C000FE20FB181B68800519680CF0CAFFB423C2
:1018D000FB181860A423FB181B685A46DB439B1AAD
:1018E0009822BA18126800269446B0229C009B00E9
:1018F0005B42BA1864441360B023FB181B684A4665
:101900009846A04443469958B423FB1818680CF035
:10191000BCFF43464A4698505B46051C002B22DD1F
:10192000534619680CF0B1FF011C20680CF093FFBE
:101930005B462060012B16D05346281C59680CF0DA
:10194000A4FF011C60680CF086FF5B466060022B00
:1019500009D05346281C99680CF097FF011CA06819
:101960000CF079FFA060A823FB181B6801369C4689
:10197000AC23FB181B6864449E42BDD1A423A4225F
:10198000FB181B68BA1801331360012294215242DC
:10199000944679180968E3448C46A021A132BA180C
:1019A0001268791862440A600422524294469432C2
:1019B000BA181268E14494469C22BA181268E244AC
:1019C000934200DA7BE703E0E0220320A4380320FF
:1019D000E8219C2279180968BA188C46FB6F1268B6
:1019E000396B9C1ABB699D1A3B6E5B199B00634463
:1019F0000B60EC23FB181B684B608C230194FB18D5
:101A00001B680093AC23FB181B68F86DFEF7F2FD12
:101A1000002C30DD7A6DF96A13008C466B433D6B08
:101A2000B96B80206A609C2263448C463818066833
:101A30009B00BA181268634429002B603000230011
:101A40009046FEF781FEEC2228008C237D6ABA18AE
:101A500005601568FB18456004941D68AC22434678
:101A600003950293BA181268009301922300310083
:101A7000FA6DFFF741F898229821BA181268791880
:101A8000103A0A60F9683A6C8C46FB6F62443A641B
:101A90007A69043BFB679A4200D0E6E68822BA18CE
:101AA0001268796C94467B6B8A1AF96963448C4698
:101AB0007A643969FA6D7B6362448C46FA653A6EE2
:101AC00062443A668422BA1812689A4200DDADE692
:101AD0007B6F1C1E68DDBB6F002B00DCFEE7BA6B62
:101AE000BB6C93469B009B4400239946B833FE1879
:101AF000B93B9A4623004C4699467D6FBB6FA8467A
:101B00009D4200DD9846B422A300BA1813607A6D96
:101B1000802072608C225B44BA1838183100126839
:101B2000006833604346FEF70FFEE822B423BA187C
:101B30001268FB1894461B68802163443360EC23D1
:101B4000FB181B68791873600023049353460393B2
:101B500002938423FB181B68300001938C23FB182D
:101B60001B680093BA6E43460968FEF7C5FFBB6F5A
:101B70009C46ED1A7B6F6444A342BFDCBA6ABB6C1F
:101B800094467A6863449446BB643A68FB6B4C465F
:101B900063449446FB63BB6D3A6F6344BB657B6FE4
:101BA0009B1A7B67130010E68023FA6C9B029A4213
:101BB00007D97A6E002A04D0531E1878101A0CF038
:101BC000CDFF80233A6D9B029A4207D9FA6E002A14
:101BD00004D0531E1878101A0CF0C0FFBD4631B067
:101BE000F0BCBB46B246A946A046F0BD30000FF09F
:101BF00081FC374D002800D15BE58023DB012B60A1
:101C000080231B0330006B60AB600FF08FFC50E54E
:101C100088220423BA1813608FE5EC23FB18196897
:101C20007BE58023B200FA649B029A423AD8130003
:101C30006A461633DB08DB00D31A9D4627200F23A4
:101C4000684498437866B86657E59A0080233A65F9
:101C50009B029A420FD813006A461633DB08DB005A
:101C6000D31A9D4627200F23684498437133FB18ED
:101C7000F866186038E5100010300CF051FFF86677
:101C8000002800D130E50F221023844602409B1A21
:101C9000DBB29C4461464A1E13708023FB18F96630
:101CA000196021E5100010300CF03AFF786600282A
:101CB00000D122E50F221023844602409B1ADBB29A
:101CC0009C4461464A1E79661370B96615E5C046A4
:101CD000A438032030B587B00D4B02AD00951A68CB
:101CE000694602929A880400AA809B796A46AB7181
:101CF000072301930023D3732CF08EFB0098A84296
:101D000003D0029901310CF05DFF200007B030BD17
:101D1000C8960410F0B5DE4657464E464546E0B537
:101D20000E000168C7688946416805698A4681686E
:101D30008DB08B464169806907930690506813689F
:101D4000926805910A90291C30680B9209930895B6
:101D50000CF081FD0599039070680CF07CFD0699EC
:101D6000051CB0680CF077FD802680463606079883
:101D70000CF00EFEB446039B0090019163441800E2
:101D800051460CF082FD5946061C281C0CF07DFDC6
:101D9000011C301C0CF05FFD391C061C40460497EA
:101DA0000CF073FD011C301C0CF055FD0CF0F0FD27
:101DB0000022684B0BF029FD009A019B0BF025FDDA
:101DC000060048460F000CF0E3FD02000B00300057
:101DD0003900169C0BF0F2FC0BF01CFE494620600B
:101DE00003980CF052FD5946061C40460CF04DFD80
:101DF000011C301C0CF032FD0499061C281C0CF050
:101E000044FD011C301C0CF026FD0CF0C1FD00222D
:101E1000504B0BF0FAFC009A019B0BF0F6FC06000D
:101E200050460F000CF0B4FD02000B0030003900EA
:101E30000BF0C4FC0BF0EEFD49466060281C0CF072
:101E400024FD5146061C40460CF01FFD011C301CB1
:101E50000CF001FD0499061C03980CF016FD011C02
:101E6000301C0CF0FBFC0CF093FD0022394B0BF006
:101E7000CCFC009A019B0BF0C8FC060058460F00F2
:101E80000CF086FD02000B00300039000BF096FCD0
:101E90000BF0C0FD4946A06040460CF0F6FC5146F0
:101EA000061C281C0CF0F1FC011C301C0CF0D6FCAC
:101EB0005946051C03980CF0E8FC011C281C0CF08A
:101EC000CAFC0CF065FD0022224B0BF09EFC009A30
:101ED000019B0BF09AFC060004980F000CF058FDD3
:101EE00002000B00300039000BF068FC0BF092FD93
:101EF000089B0999E060181C98460CF0C6FC079DE9
:101F0000291C0CF0C2FC011C40460CF0A4FC059FEF
:101F10000A992061381C0CF0B8FC291C0CF0B5FCA7
:101F2000011C381C0CF097FC069E0B996061301C5C
:101F30000CF0ABFC291C0CF0A8FC011C301C0CF0B4
:101F40008AFCA06100200DB0F0BCBB46B246A94699
:101F5000A046F0BD0000E03FF0B5DE4657464E46D5
:101F600045468A464168E0B58846C768816891B0B1
:101F7000066889464046391C141C04930CF085FC05
:101F80004946051C301C0CF080FC0A90011C281CE2
:101F900009950CF060FC0CF0FBFC02000B000BF050
:101FA0000DFC06900791201C02940CF0F1FC0B0034
:101FB000020004000D00069807990BF026FC0BF0B8
:101FC00029FD5246391C106048460CF05EFC8346E1
:101FD0004146301C0CF059FC5A460E90011C5846E4
:101FE0000B920CF03BFC0CF0D3FC02000B000BF04E
:101FF000E5FB02000B00200029000C920D930BF072
:1020000004FC0BF007FD5446311C6060301C0CF0E2
:102010003CFC4146041C40460CF037FC051C011CEE
:10202000201C0CF018FC4946089048460CF02DFC8A
:10203000391C8346381C0CF028FC5946019008983E
:102040000CF009FC01990CF009FC02990F900CF0BE
:102050001CFC53464946986040460CF016FC391C5F
:102060008046301C0CF011FC81461A980CF090FC54
:1020700006001B980F000CF08BFC02900391291CAA
:10208000201C0CF0EBFB59460CF0E5FB01990CF021
:10209000E2FB04990CF0F9FB0CF07AFC04000D0053
:1020A000404649460CF0DAFB0CF072FC02000B00D3
:1020B0000BF084FB32003B000BF0A7FB02000B008F
:1020C000200029000BF07AFB029A039B04000D000C
:1020D000069807990BF099FB02000B0020002900DD
:1020E0000BF06CFB0BF096FC5346D86004980CF098
:1020F0004FFC04000D00404649460CF0ACFB0CF0D0
:1021000047FC02000B000BF059FB22002B0004944B
:1021100005950BF07AFB04000D00089859460CF069
:102120009DFB01990CF097FB1A990CF0AEFB0CF09B
:102130002FFC02000B00200029000BF03FFB029A4D
:10214000039B04000D000C980D990BF05EFB020040
:102150000B00200029000BF031FB0BF05BFC534619
:102160000A99186109980CF079FB0CF011FC020037
:102170000B000BF023FB049A059B0BF046FB0400BD
:102180000D000B980E990CF066FB0CF001FC0200A0
:102190000B000BF013FB32003B000BF036FB020090
:1021A0000B00200029000BF009FB04000D000F9824
:1021B0001B990CF06AFB0CF0EBFB02000B002000FB
:1021C00029000BF0FBFA0BF025FC53465861002068
:1021D00011B0F0BCBB46B246A946A046F0BDC04611
:1021E000F0B50400DE4657464E4645460800E0B5C9
:1021F00045680968AA46856895B0AB46C5684669D2
:10220000876910910E950169556810689268049667
:1022100090461A68069711925A689B681292139317
:10222000FE239B05236099460CF015FB0CF0B0FBD8
:10223000009001911E980CF0ABFB06000F00009877
:1022400001990022924B0BF0E0FA32003B000BF0B8
:10225000DCFA0BF0DFFB04990390E061281C0CF022
:10226000FAFA0CF095FB0022894B049005910BF0D3
:10227000CCFA32003B000BF0C8FA0BF0CBFB06990E
:10228000051CA06340460CF0E6FA0CF081FB00222E
:102290007F4B069007910BF0B8FA32003B000BF031
:1022A000B4FA0BF0B7FB0A90606550460CF070FB77
:1022B0000022784B089009910BF0A7FA32003B00FE
:1022C0000BF0A3FA0BF0A6FB0B90206758460CF01E
:1022D0005FFB00226F4B0C900D910BF096FA3200D1
:1022E0003B000BF092FA0BF095FB8C238246E050FA
:1022F0000E980CF04DFB0022664B0E900F910BF0E8
:1023000084FA32003B000BF080FA0BF083FBA82329
:102310008346E0500022009801995E4B0BF075FA5D
:1023200032003B000BF071FA0BF074FB4946009051
:1023300060602162002206980799564B0BF065FAFF
:1023400032003B000BF061FA0BF064FBA5658046A0
:10235000E06310980CF01CFB00224D4B0BF055FA7B
:1023600032003B000BF051FA0BF054FB594690231E
:10237000051C60670022E1500C980D99444B0BF04E
:1023800044FA32003B000BF040FA0BF043FBAC2365
:102390000022E050049805993E4B0BF036FA3200CB
:1023A0003B000BF032FA0BF035FB49460A9A8346A4
:1023B0006262009AA0602164E2650E980F99002283
:1023C000334B0BF022FA32003B000BF01EFA0BF0FD
:1023D00021FB94230B99A067E5501C33E150414643
:1023E000E1605946A162494621665146039BE16777
:1023F0006364089809990022254B0BF006FA320015
:102400003B000BF002FA0BF005FB9823E0501C3365
:10241000E55000251E9911982561E562A564656661
:102420000CF033FA011C48460CF015FA8023E050FA
:102430001C33E5501C33E550343B1E9912986561FE
:102440002563E564A566E5500CF01FFA011C4846BB
:102450000CF001FAA023E0501C33E550343BA56199
:1024600065632565E566E5501C33E5501E991398B4
:102470000CF00BFA011C48460CF0EDF9C023E050BB
:10248000002015B0F0BCBB46B246A946A046F0BD40
:102490000000E0BF0000E03FF0B5DE4657464E4684
:1024A0004546E0B59A460B68141C8A689B464B6803
:1024B000C9688BB00500101C8846009301920CF08F
:1024C00067FA02900391201C0CF062FAC023060008
:1024D0000F000298039900221B060BF096F93200B8
:1024E0003B000BF092F90BF095FA089028604046FB
:1024F0000CF04EFA02000B000BF060F932003B00CA
:102500000BF083F90BF086FA041CA86158460CF016
:102510003FFAC02300221B06049005910BF075F9C9
:1025200032003B000BF071F90BF074FA286300984D
:102530000CF02EFA02000B00069007910BF03EF90A
:1025400032003B000BF061F90BF064FA002190239C
:102550008946A8642966A967E950686004980599C6
:1025600002000B000BF02AF932003B000BF04DF992
:102570000BF050FA6C630490E86102980399020032
:102580000B000BF01BF932003B000BF03EF90BF097
:1025900041FA49469423E8646966E967E950C02333
:1025A00006980799049A1B06AA6000220BF02DF9E1
:1025B00032003B000BF029F90BF02CFA089B49463E
:1025C000AB63802328622C65A966E9501833E95073
:1025D000404614990CF059F9019F1599061C381CB6
:1025E0000CF053F95146041C58460CF04EF9311CBE
:1025F0000CF034F9211C06940CF02DF9011C0CF0A0
:102600002DF951460990E86000980CF03EF91499B4
:10261000041C381C0CF039F9011C201C0CF01EF9AC
:102620001599041C40460CF030F9011C201C0CF0DC
:1026300015F9011C0CF012F91499029068620098C7
:102640000CF023F91599089058460CF01EF9019AE0
:102650008024944624066444071C514620000CF054
:1026600014F908990CF0FAF8391C0CF0F4F8011C74
:102670000CF0F4F81499E86358460CF006F9159933
:10268000049000980CF001F9802212064244041CC8
:10269000514610000CF0F9F804990CF0DFF8211CF9
:1026A0000CF0DCF8011C0CF0D9F84A468423EA66E9
:1026B0006865EA501833EA505146286101980CF0D9
:1026C000E4F808990CF0C7F8391C0CF0C7F8011CA5
:1026D0000CF0C4F8071CA8628020029B00062B6443
:1026E000514658440CF0D1F8311C0CF0B4F806995E
:1026F0000CF0B4F8011C0CF0B1F88823A86548462A
:102700002867E8501833E850514640466F610CF096
:10271000BCF804990CF09FF8211C0CF09CF8011CEB
:102720000CF09CF8099AE8626A64029B4A46EB65E1
:102730004B466B678C230020EA501833EA500BB0ED
:10274000F0BCBB46B246A946A046F0BD0123F0B599
:10275000E3214746CE469C46294B804605009946D4
:10276000284E80B58900076846444144FA0F6F68D7
:10277000D2077B005B08346813435A086240644602
:102780001C4201D04B465A4004C50436A942EDD143
:10279000E32342469B00C626D458194B01259C468C
:1027A000F6004644E20F4C68D20763005B080768F6
:1027B00013435A087A401D4201D063465A40043000
:1027C00004C1B042EED14246C62140460E4BC9007C
:1027D000D3581268DB0F52005208DB0741581343ED
:1027E0005A084A40DB0701D5054B5A404146064B83
:1027F000CA5000220433CA50C0BCB946B046F0BD2E
:10280000DFB0089934060000BC090000F0B5454669
:10281000DE4657464E46E0B53C4CD723A54434AA85
:10282000944663441B091B018A6805930B68019257
:1028300037921A6804902D929A6933912E921A6BEE
:1028400038AC2F929A6C30921A6E06929A6F089258
:1028500090229A5807925A680A92DA690B925A6B38
:102860000C92DA6C0D925A6E0E92DA6F0F929422DD
:102870009A5810929A6811921A6A12929A6B13924D
:102880001A6D14929A6E159280229A581692982276
:102890009A581792DA6818925A6A1992DA6B1A9251
:1028A0005A6D1B92DA6E1C9284229A581D929C22B9
:1028B0009A581E921A691F929A6A20921A6C219253
:1028C0009A6D22921A6F239288229A582492A022FB
:1028D0009A5825925A692692DA6A27925A6C289257
:1028E000DA6D29925A6F2A928C229A582B92A4223E
:1028F0009B582C934B68984638AB3293C42343447F
:1029000009934346A0461C0002E0C0469CFDFFFF21
:10291000E168A26889462169236848460391309995
:10292000029201930BF0B1FF0399824606980BF0D7
:10293000ACFF011C50460BF091FF67698246391CC1
:1029400008980BF0A2FFA6698346311C07980BF08C
:102950009CFF011C58460BF081FF011C50460BF0F8
:102960007DFF656882462E99281C0BF08EFF2F99FB
:10297000834602980BF089FF011C58460BF06EFF4E
:102980002D99834601980BF080FF011C58460BF0EF
:1029900065FF011C50460BF061FF43464946186035
:1029A0000D980BF072FF039982460E980BF06DFFA5
:1029B000011C50460BF052FF391C82460F980BF059
:1029C00064FF311C834610980BF05FFF011C5846D2
:1029D0000BF044FF011C50460BF040FF291C8246BF
:1029E0000B980BF052FF029983460C980BF04DFFA9
:1029F000011C58460BF032FF019983460A980BF0F0
:102A000044FF011C58460BF029FF011C50460BF0F7
:102A100025FF43464946586014980BF036FF03994A
:102A2000824615980BF031FF011C50460BF016FF43
:102A3000391C824616980BF028FF311C83461798E4
:102A40000BF023FF011C58460BF008FF011C5046F9
:102A50000BF004FF291C824612980BF016FF029916
:102A6000834613980BF011FF011C58460BF0F6FE3D
:102A70000199834611980BF008FF011C58460BF092
:102A8000EDFE011C50460BF0E9FE434649469860B6
:102A90001B980BF0FAFE039982461C980BF0F5FE8A
:102AA000011C50460BF0DAFE391C82461D980BF0D3
:102AB000ECFE311C83461E980BF0E7FE011C5846C5
:102AC0000BF0CCFE011C50460BF0C8FE291C8246C0
:102AD00019980BF0DAFE029983461A980BF0D5FE8E
:102AE000011C58460BF0BAFE0199834618980BF06A
:102AF000CCFE011C58460BF0B1FE011C50460BF0F9
:102B0000ADFE43464946D86022980BF0BEFE0399BD
:102B1000824623980BF0B9FE011C50460BF09EFE36
:102B2000391C824624980BF0B0FE311C8346259850
:102B30000BF0ABFE011C58460BF090FE011C5046FA
:102B40000BF08CFE291C824620980BF09EFE029909
:102B5000834621980BF099FE011C58460BF07EFE2F
:102B6000019983461F980BF090FE011C58460BF00C
:102B700075FE011C50460BF071FE43464946186134
:102B800029980BF082FE039981462A980BF07DFE6E
:102B9000011C48460BF062FE391C81462B980BF055
:102BA00074FE311C071C2C980BF06FFE011C381CA6
:102BB0000BF054FE011C48460BF050FE291C061C6D
:102BC00027980BF062FE0299051C28980BF05DFE19
:102BD000011C281C0BF042FE0199051C26980BF0E5
:102BE00054FE011C281C0BF039FE011C301C0BF09C
:102BF00035FE4346586118239C46099B1C34E0442B
:102C0000A34200D084E6379B1A68629308929A69BF
:102C100009921A6B0A929A6C0B921A6E0C929A6F26
:102C20000D9290229A580E925A680F92DA69109279
:102C30005A6B1192DA6C12925A6E1392DA6F1492E6
:102C400094229A5815929A6816921A6A17929A6B59
:102C500018921A6D19929A6E1A9280229A581B92A3
:102C600098229A581C92DA681D925A6A1E92DA6B60
:102C70001F925A6D2092DA6E219284229A582292E3
:102C80009C229A5823921A6924929A6A25921A6C65
:102C900026929A6D059C27921A6F203428928822DA
:102CA0009A58A1462992A0229A582A925A692B92A0
:102CB000DA6A2C925A6C2D92DA6D2E925A6F2F92FC
:102CC0008C229A583092A4229B5831935CAB069385
:102CD0003EAB0793329B98464346424641464046A8
:102CE0001B6895690193069B146B096E926C40CB2F
:102CF000876F0291101C0B99039206930BF0C5FD90
:102D00000C99824602980BF0C0FD011C50460BF056
:102D1000A5FD0D998246381C0BF0B7FD0E99834630
:102D2000301C0BF0B2FD011C58460BF097FD011C46
:102D300050460BF093FD09998246281C0BF0A5FD27
:102D40000A998346201C0BF0A0FD011C58460BF08D
:102D500085FD0899834601980BF097FD011C5846A4
:102D60000BF07CFD011C50460BF078FD4B46129990
:102D7000186003980BF089FD1399824602980BF0B6
:102D800084FD011C50460BF069FD14998246381CE5
:102D90000BF07BFD15998346301C0BF076FD011C72
:102DA00058460BF05BFD011C50460BF057FD109987
:102DB0008246281C0BF069FD11998346201C0BF0FC
:102DC00064FD011C58460BF049FD0F99834601989C
:102DD0000BF05BFD011C58460BF040FD011C5046FA
:102DE0000BF03CFD4B461999586003980BF04DFDD4
:102DF0001A99824602980BF048FD011C50460BF0D0
:102E00002DFD1B998246381C0BF03FFD1C99834613
:102E1000301C0BF03AFD011C58460BF01FFD011C45
:102E200050460BF01BFD17998246281C0BF02DFD18
:102E300018998346201C0BF028FD011C58460BF006
:102E40000DFD1699834601980BF01FFD011C584695
:102E50000BF004FD011C50460BF000FD4B46209981
:102E6000986003980BF011FD2199824602980BF0AF
:102E70000CFD011C50460BF0F1FC22998246381CD7
:102E80000BF003FD23998346301C0BF0FEFC011C64
:102E900058460BF0E3FC011C50460BF0DFFC1E997A
:102EA0008246281C0BF0F1FC1F998346201C0BF076
:102EB000ECFC011C58460BF0D1FC1D99834601988F
:102EC0000BF0E3FC011C58460BF0C8FC011C5046FB
:102ED0000BF0C4FC4B462799D86003980BF0D5FC47
:102EE0002899824602980BF0D0FC011C50460BF04A
:102EF000B5FC29998246381C0BF0C7FC2A998346F9
:102F0000301C0BF0C2FC011C58460BF0A7FC011C46
:102F100050460BF0A3FC25998246281C0BF0B5FC0B
:102F200026998346201C0BF0B0FC011C58460BF080
:102F300095FC2499834601980BF0A7FC011C584688
:102F40000BF08CFC011C50460BF088FC4B462E9974
:102F5000186103980BF099FC2F99824602980BF0A8
:102F600094FC011C50460BF079FC30998246381CC9
:102F70000BF08BFC3199071C301C0BF086FC011CFC
:102F8000381C0BF06BFC011C50460BF067FC2C99B5
:102F9000061C281C0BF079FC2D99051C201C0BF03D
:102FA00074FC011C281C0BF059FC2B99041C019883
:102FB0000BF06BFC011C201C0BF050FC011C301CA6
:102FC0000BF04CFC4B46586104239C461433E04400
:102FD0009C46079BE144434500D07DE6339B059D1D
:102FE000DC68296A20680BF039FC049EA96B30600C
:102FF00060680BF033FC7060A068296D0BF02EFC4C
:10300000B060E068A96E0BF029FC8023F0602069B5
:10301000E95898460BF022FC98233061E958606922
:103020000BF01CFC7061A069696A0BF017FCB061C1
:10303000E069E96B0BF012FCF061206A696D0BF03E
:103040000DFC3062E96E606A0BF008FC8427706248
:10305000A06AE9590BF002FC9C23B062E958E06ACF
:103060000BF0FCFBF062206BA96A0BF0F7FB3063FE
:10307000606B296C0BF0F2FB7063A06BA96D0BF019
:10308000EDFBB063E06B296F0BF0E8FBF063882683
:10309000206CA9590BF0E2FB049B1864A023606C20
:1030A000E9580BF0DBFB049BE96A5864A06C0BF059
:1030B000D5FB049B696C9864E06C0BF0CFFB049B20
:1030C000E96DD864206D0BF0C9FB049B696F18652E
:1030D000606D0BF0C3FB8C25049A059B5065A06DB9
:1030E00059590BF0BBFBA423049A9065059AE06D37
:1030F000D1580BF0B3FB049B059AD865116B206E79
:103100000BF0ACFB049B059A1866916C606E0BF09B
:10311000A5FB049B059A5866A06E116E0BF09EFBF2
:10312000049B059A9866E06E916F0BF097FB049BE9
:10313000059AD8669023206FD1580BF08FFB049B23
:10314000059A1867A823606FD1580BF087FB049B82
:10315000059A5867A16F506B0BF080FB049B059A92
:103160009867E16FD06C0BF079FB4146049B059AA0
:10317000D8676158506E0BF071FB4146049B059A6D
:103180005850E159D06F0BF069FB049BD851942340
:10319000059FA159F8580BF061FB049B9851AC2393
:1031A0006159F8580BF05AFB049B585199239B0026
:1031B0009D44F0BCBB46B246A946A046F0BDC04601
:1031C000F0B5DE4657464E4645460400E0B5436836
:1031D00087B05800A3684008590049080BF03EFB2F
:1031E0002368590049080BF039FB2369051C580076
:1031F00063694008590049080BF030FBE368590047
:1032000049080BF02BFB011C281C0BF027FBE36982
:10321000051C5800236A4008590049080BF01EFBA2
:10322000A369590049080BF019FBA36A061C580052
:10323000E36A4008590049080BF010FB636A590023
:1032400049080BF00BFB011C301C0BF007FB636BF8
:10325000071C5800A36B4008590049080BF0FEFA00
:10326000236B590049080BF0F9FA236C061C58002F
:10327000636C4008590049080BF0F0FAE36B590001
:1032800049080BF0EBFA011C301C0BF0E7FA061CA6
:10329000011C381C0BF030FB002800D13E1C311CF7
:1032A000281C0BF029FB002800D12E1CE36C5800D1
:1032B000236D4008590049080BF0D0FAA36C59005F
:1032C00049080BF0CBFAA36D051C5800E36D4008CC
:1032D000590049080BF0C2FA636D590049080BF018
:1032E000BDFA011C281C0BF0B9FA636E071C5800CC
:1032F000A36E4008590049080BF0B0FA236E59003C
:1033000049080BF0ABFA236F051C5800636F4008A7
:10331000590049080BF0A2FAE36E590049080BF076
:103320009DFA011C281C0BF099FAE36F80465800A7
:103330008023E1584008490049080BF08FFAA36F39
:10334000590049080BF08AFA8823051CE058043319
:10335000E15840004900490840080BF07FFA8423F7
:10336000E158490049080BF079FA011C281C0BF0C0
:1033700075FA051C011C40460BF0BEFA002800D16E
:103380004546291C381C0BF0B7FA002800D13D1C1B
:10339000291C301C0BF0B0FA002800D1351CC023CA
:1033A0002100E55001AABA3B02A8A8310493029477
:1033B000FDF7F4F90121C422019B98260B405B42E2
:1033C0008B430133A354343A9246002250469C2743
:1033D00022509432A1509346923AA2510132E251C6
:1033E0009D32944660469C3A2250A03291469F3AC4
:1033F00090464A4640462300A05048461832A258FC
:10340000903392009A181568255040461060604627
:10341000B8222058A2588046604692009A18156833
:10342000255040461060B422E059A25884469200CC
:103430009A1810685D46E05160461060B022A258AC
:10344000A75992009A181068A0511760AC225846EC
:10345000A258265892009A18106860511660A82247
:10346000A258554692009B1852461868A2586051BF
:103470001A60C523E15407B0F0BCBB46B246A9466A
:10348000A046F0BDC023002210B5C2500022043374
:10349000C2520B68040003604B6843608B68836012
:1034A000CB68C3600B6903614B6943618B698361BE
:1034B000CB69C3610B6A03624B6A43628B6A8362A6
:1034C000CB6AC3620B6B03634B6B43638B6B83638E
:1034D000CB6BC3630B6C03644B6C43648B6C836476
:1034E000CB6CC3640B6D03654B6D43658B6D83655E
:1034F000CB6DC3650B6E03664B6E43668B6E836646
:10350000CB6EC3660B6F03674B6F43678B6F83672D
:10351000CB6FC3678023CA58C2500433CA58C25005
:103520000433CA58C2500433CA58C250FFF748FE89
:10353000200010BDF0B5DE464E4645465746E0B584
:10354000214C9146A5443AAA94460A0031931F4B58
:103550003B9063441B091B013A919846D3AB13CAB5
:1035600013C313CA13C31268D3A91A60184B194A9C
:103570001B6847A80493184B47AC1B680193174B73
:103580001B6805930093049BFEF786FF47ABD3931C
:103590004B46D49347ABD5933AAA832394468620CF
:1035A0001B0163441B68C0004044A2AAD3A9D69360
:1035B0000990FFF72BF96BAB089343460A934B46F0
:1035C0003094A1461C000BE014F7FFFF47030000F6
:1035D000742003200AE81C416C2003207020032083
:1035E0004B464E461B68B76F0793089B494640CB36
:1035F00048464A460893A823896C006E9569126B69
:1036000005910690E158301C04920BF03EF98C2392
:103610008246E158381C0BF038F9011C50460BF07B
:103620001DF9216F824606980BF02FF9616D8346D4
:1036300005980BF02AF9011C58460BF00FF9011CF4
:1036400050460BF00BF9A16B824604980BF01DF964
:10365000E1698346281C0BF018F9011C58460BF051
:10366000FDF82168834607980BF00FF9011C5846B6
:103670000BF0F4F8011C50460BF0F0F843461860CC
:10368000AC23301CE1580BF000F990238246E1583E
:10369000381C0BF0FAF8011C50460BF0DFF8616F94
:1036A000824606980BF0F1F8A16D834605980BF061
:1036B000ECF8011C58460BF0D1F8011C50460BF0F9
:1036C000CDF8E16B824604980BF0DFF8216A83465F
:1036D000281C0BF0DAF8011C58460BF0BFF86168A3
:1036E000834607980BF0D1F8011C58460BF0B6F84A
:1036F000011C50460BF0B2F843465860B023301C12
:10370000E1580BF0C2F894238246E158381C0BF0C4
:10371000BCF8011C50460BF0A1F8A16F8246069838
:103720000BF0B3F8E16D834605980BF0AEF8011C81
:1037300058460BF093F8011C50460BF08FF8216CA3
:10374000824604980BF0A1F8616A8346281C0BF0AE
:103750009CF8011C58460BF081F8A1688346079835
:103760000BF093F8011C58460BF078F8011C5046FA
:103770000BF074F843469860B423301CE1580BF00A
:1037800084F898238246E158381C0BF07EF8011C1F
:1037900050460BF063F8E16F824606980BF075F81F
:1037A000216E834605980BF070F8011C58460BF00B
:1037B00055F8011C50460BF051F8616C8246049894
:1037C0000BF063F8A16A8346281C0BF05EF8011C1D
:1037D00058460BF043F8E168834607980BF055F81C
:1037E000011C58460BF03AF8011C50460BF036F815
:1037F0004346D860B823301CE1580BF046F89C23B0
:103800008246E158381C0BF040F8011C50460BF082
:1038100025F880238246E15806980BF036F8616E51
:10382000834605980BF031F8011C58460BF016F84A
:10383000011C50460BF012F8A16C824604980BF064
:1038400024F8E16A8346281C0BF01FF8011C584637
:103850000BF004F82169834607980BF016F8011C59
:1038600058460AF0FBFF011C50460AF0F7FF43469A
:103870001861BC23301CE1580BF007F8A0238246E6
:10388000E158381C0BF001F8011C50460AF0E6FF25
:1038900084238246E15806980AF0F7FFA16E83461A
:1038A00005980AF0F2FF011C58460AF0D7FF011CE8
:1038B00050460AF0D3FFE16C824604980AF0E5FF17
:1038C000216B8346281C0AF0E0FF011C58460AF0D1
:1038D000C5FF6169834607980AF0D7FF011C584667
:1038E0000AF0BCFF011C50460AF0B8FF4346E16EE7
:1038F000586105980AF0C9FF88238246E158069866
:103900000AF0C3FF011C50460AF0A8FFA423824618
:10391000E158381C0AF0B9FFC023071CE158301CDD
:103920000AF0B3FF011C381C0AF098FF011C504636
:103930000AF094FF616B061C281C0AF0A6FF216D9B
:10394000051C04980AF0A1FF011C281C0AF086FF40
:10395000A169051C07980AF098FF011C281C0AF0B1
:103960007DFF011C301C0AF079FF43469861042357
:103970009C461833E1449C464DABE044994500D049
:103980002EE60A9BA146D8249846A427A4004444C6
:10399000BF00474420000999FFF774FD21009022E1
:1039A0003800C8240BF0F8F8FC21A4004444890036
:1039B0004144182220000BF0EFF8CE208121800036
:1039C000C9004144182240440BF0E6F88422D42375
:1039D000D200424412689B0043441A60D523874AB0
:1039E0004546424412889B004344FE211A8000232E
:1039F0002268B0359200AA1889051160936113639B
:103A0000936413669367C922920042441268444645
:103A10009200AA181360916113639364136693670D
:103A2000CA2292004244126806269200AA18136025
:103A300093611163936413669367CB2292004244AF
:103A4000126806209200AA181360936113639164B0
:103A500013669367CC229200424412689200AA181F
:103A6000136093611363936411669367CD22920090
:103A7000424412689200AA1813609361136393641E
:103A80001366A8235B009B46916742465946E4189B
:103A900020334344A660E6602661535080229200A2
:103AA00042444B396260924604933A0006230294E2
:103AB000FF3901960095FDF7DFFA42465946049B0F
:103AC000A660E6602661535053464B3963603A0066
:103AD00006230294062001960095FF39FDF7D0FDDC
:103AE00043461B688C2206934346DB69D3AC07939D
:103AF00043469B6B089343465B6D099343461B6F9C
:103B00000A9343469B5804320B9343465B680C93DD
:103B100043461B6A0D934346DB6B0E9343469B6DF6
:103B20000F9343465B6F109343469B5804321193A7
:103B300043469B68129343465B6A139343461B6C50
:103B400014934346DB6D159343469B6F1693434690
:103B50009B58043217934346DB68189343469B6A8D
:103B6000199343465B6C1A9343461B6E1B93434663
:103B7000DB6F1C9343469B58183A1D9343461B69C1
:103B80001E934346DB6A1F9343469B6C2093434638
:103B90005B6E219343469B581C32229343469B58AD
:103BA000183A239343465B69249343461B6B259342
:103BB0004346DB6C269343469B6E279343469B58B4
:103BC0001C32289343469B58183A299343469B69D5
:103BD0002A9343465B6B2B9343461B6D2C934346C2
:103BE000DB6E2D9343469B581C322E9343469B58C5
:103BF000A8462F934B46329302E0C04624040000AF
:103C000043461F685B6842469946434641469B6867
:103C1000D2680E694D6907984946049305920AF0E7
:103C200034FE0499824608980AF02FFE011C504683
:103C30000AF014FE391C824606980AF026FE011C82
:103C400050460AF00BFE311C82460A980AF01DFE0F
:103C5000291C83460B980AF018FE011C58460AF0EE
:103C6000FDFD0599834609980AF00FFE011C584690
:103C70000AF0F4FD011C50460AF0F0FD49462060B0
:103C80000D980AF002FE049982460E980AF0FDFD96
:103C9000011C50460AF0E2FD391C82460C980AF0DD
:103CA000F4FD011C50460AF0D9FD311C82461098E3
:103CB0000AF0EBFD291C834611980AF0E6FD011C71
:103CC00058460AF0CBFD059983460F980AF0DDFDB2
:103CD000011C58460AF0C2FD011C50460AF0BEFD08
:103CE0004946606013980AF0D0FD04998246149802
:103CF0000AF0CBFD011C50460AF0B0FD391C82468B
:103D000012980AF0C2FD011C50460AF0A7FD311CB2
:103D1000824616980AF0B9FD291C834617980AF0C6
:103D2000B4FD011C58460AF099FD05998346159883
:103D30000AF0ABFD011C58460AF090FD011C5046EC
:103D40000AF08CFD4946A06019980AF09EFD04997E
:103D500082461A980AF099FD011C50460AF07EFD31
:103D6000391C824618980AF090FD011C50460AF052
:103D700075FD311C82461C980AF087FD291C83467C
:103D80001D980AF082FD011C58460AF067FD05994E
:103D900083461B980AF079FD011C58460AF05EFD27
:103DA000011C50460AF05AFD4946E0601F980AF08F
:103DB0006CFD0499824620980AF067FD011C50466C
:103DC0000AF04CFD391C82461E980AF05EFD011C6B
:103DD00050460AF043FD311C824622980AF055FDF8
:103DE000291C834623980AF050FD011C58460AF00E
:103DF00035FD0599834621980AF047FD011C584678
:103E00000AF02CFD011C50460AF028FD49462061AD
:103E100025980AF03AFD0499824626980AF035FD65
:103E2000011C50460AF01AFD391C824624980AF0FB
:103E30002CFD011C50460AF011FD311C82462898C9
:103E40000AF023FD291C834629980AF01EFD011C57
:103E500058460AF003FD0599834627980AF015FD98
:103E6000011C58460AF0FAFC011C50460AF0F6FC08
:103E7000494660612B980AF008FD049981462C9808
:103E80000AF003FD011C48460AF0E8FC391C814693
:103E90002A980AF0FAFC011C48460AF0DFFC311CA3
:103EA000071C2E980AF0F1FC291C061C2F980AF01A
:103EB000ECFC011C301C0AF0D1FC0599051C2D9866
:103EC0000AF0E3FC011C281C0AF0C8FC011C381C89
:103ED0000AF0C4FC18239C46A061FDAB1C34E044EE
:103EE000A34200D08CE6329BD49A9946D39BD599B5
:103EF000D69CD79DD89ED99F06930792DA9BDB9AD2
:103F000008910994DC99DD9C0A950B96DE9DDF9E55
:103F10000C970D93E09FE19B0E92E29A0F91109403
:103F200011951296139714931592E399E49CE59DCD
:103F3000E69EE79FE89BE99A16911794EA99EB9C15
:103F400018951996EC9DED9E1A971B93EE9FEF9B8B
:103F50001C921D91F09AF1991E94F29C2096219743
:103F600022932392249125941F95F39DF49EF59F0F
:103F7000F79AF69BF899F99C26952796FA9DFB9E51
:103F80002897FC9F2A923A9A29932B912C942D954D
:103F90002E962F97D3AB32CA32C332CA32C31168BE
:103FA000D3AC1960FD49FE4B09681B680191FD49BE
:103FB000FD4A09682000009141A9FDF7CDFF319F1E
:103FC000419938680AF047FC4299834678680AF0BC
:103FD00042FC43998246B8680AF03DFC4499041CAF
:103FE000F8680AF038FC4599051C38690AF033FC7A
:103FF0004699061C78690AF02EFC071C011C2A98B9
:104000000AF043FC311C804623980AF03EFC011C58
:1040100040460AF023FC291C80461C980AF035FC17
:10402000011C40460AF01AFC211C804615980AF033
:104030002CFC514604900E980AF027FC011C0498B1
:104040000AF00CFC5946049007980AF01EFC011C6B
:1040500004980AF003FC011C40460AF0FFFB3A9A60
:1040600051680AF0FBFB391C04902B980AF00DFCF8
:10407000311C804624980AF008FC011C40460AF0D6
:10408000EDFB291C80461D980AF0FFFB011C4046F1
:104090000AF0E4FB211C804616980AF0F6FB514614
:1040A00005900F980AF0F1FB011C05980AF0D6FB69
:1040B0005946059008980AF0E8FB011C05980AF09B
:1040C000CDFB011C40460AF0C9FB3A9A91680AF000
:1040D000C5FB391C05902C980AF0D7FB311C804693
:1040E00025980AF0D2FB011C40460AF0B7FB291CB8
:1040F00080461E980AF0C9FB011C40460AF0AEFB40
:10410000211C804617980AF0C0FB51463190109848
:104110000AF0BBFB011C31980AF0A0FB5946319014
:1041200009980AF0B2FB011C31980AF097FB011CB8
:1041300040460AF093FB3A9AD1680AF08FFB391C8B
:1041400031902D980AF0A1FB311C804626980AF088
:104150009CFB011C40460AF081FB291C80461F98ED
:104160000AF093FB011C40460AF078FB211C8046B4
:1041700018980AF08AFB5146329011980AF085FB94
:10418000011C32980AF06AFB594632900A980AF0EC
:104190007CFB011C32980AF061FB011C40460AF0CE
:1041A0005DFB3A9A11690AF059FB391C32902E983E
:1041B0000AF06BFB311C804627980AF066FB011C55
:1041C00040460AF04BFB291C804620980AF05DFB14
:1041D000011C40460AF042FB211C804619980AF057
:1041E00054FB5146339012980AF04FFB011C339850
:1041F0000AF034FB594633900B980AF046FB011C39
:1042000033980AF02BFB011C40460AF027FB3A9A30
:1042100051690AF023FB5146339013980AF035FB9D
:10422000211C80461A980AF030FB011C40460AF017
:1042300015FB594680460C980AF027FB011C4046A6
:104240000AF00CFB311C804628980AF01EFB391C32
:1042500034902F980AF019FB011C34980AF0FEFAEA
:10426000291C349021980AF010FB011C34980AF0A4
:10427000F5FA011C40460AF0F1FA3A9A91690AF0FF
:10428000EDFA391C804629980AF0FFFA311C071C08
:1042900022980AF0FAFA011C381C0AF0DFFA291CED
:1042A000061C1B980AF0F1FA011C301C0AF0D6FA21
:1042B000211C051C14980AF0E8FA5146041C0D98BC
:1042C0000AF0E3FA011C201C0AF0C8FA5946041C43
:1042D00006980AF0DAFA011C201C0AF0BFFA011C49
:1042E000281C0AF0BBFA3A9AD3AC11680AF0B6FA65
:1042F0003B9B049A18605A60059A9A60319ADA607A
:10430000329A1A61339A5A6142469A614B461B6847
:104310004A46A2934B465B68A3934B469B68A49383
:104320004B46DB68A5934B461B69A6934B465B69DE
:10433000A7934B469B69A8934B46DB69A9934B46D1
:104340001B6AAA934B465B6AAB934B469B6AAC9342
:104350004B46DB6AAD934B461B6BAE934B465B6B98
:10436000AF934B469B6BB0934B46DB6BB1934B4685
:104370001B6CB2934B465B6CB3934B469B6CB493F4
:104380004B46DB6CB5934B461B6DB6934B465B6D52
:10439000B7934B469B6DB8934B4607E06C200320C8
:1043A00074200320702003200AE81C41DB6DB993C0
:1043B0004B461B6EBA934B465B6EBB934B469B6E54
:1043C000BC934B46DB6EBD934B461B6FBE934B4677
:1043D0005B6FBF934B469B6FC0934B46DB6FC193A4
:1043E0008023D358C2938423D358C3938823D358AC
:1043F000C4938C23D358C5939023D358C693942346
:10440000D358C7939823D358C8939C23D358C993A0
:10441000A023D358CA93A423D358CB93A823D3580B
:10442000CC93AC23D358CD93B023D358CE93B4239D
:10443000D358CF93B823D358D093BC23D358D19318
:10444000C023D358D293309B3092984643461F687E
:104450005B6842469946434641469B68D2680E696E
:104460004D690D984946049305920AF00EFA049995
:10447000824614980AF009FA011C50460AF0EEF937
:10448000391C824606980AF000FA011C50460AF0D0
:10449000E5F9311C824622980AF0F7F9291C834677
:1044A00029980AF0F2F9011C58460AF0D7F9059943
:1044B00083461B980AF0E9F9011C58460AF0CEF928
:1044C000011C50460AF0CAF9494620600E980AF0CD
:1044D000DCF90499824615980AF0D7F9011C504678
:1044E0000AF0BCF9391C824607980AF0CEF9011C83
:1044F00050460AF0B3F9311C824623980AF0C5F9F8
:10450000291C83462A980AF0C0F9011C58460AF073
:10451000A5F9059983461C980AF0B7F9011C58467D
:104520000AF09CF9011C50460AF098F9494660606F
:104530000F980AF0AAF90499824616980AF0A5F98C
:10454000011C50460AF08AF9391C824608980AF084
:104550009CF9011C50460AF081F9311C82462498CE
:104560000AF093F9291C83462B980AF08EF9011C56
:1045700058460AF073F9059983461D980AF085F9A3
:10458000011C58460AF06AF9011C50460AF066F907
:104590004946A06010980AF078F904998246179865
:1045A0000AF073F9011C50460AF058F9391C82468A
:1045B00009980AF06AF9011C50460AF04FF9311CBB
:1045C000824625980AF061F9291C83462C980AF046
:1045D0005CF9011C58460AF041F9059983461E987A
:1045E0000AF053F9011C58460AF038F9011C5046EC
:1045F0000AF034F94946E06011980AF046F9049946
:10460000824618980AF041F9011C50460AF026F932
:10461000391C82460A980AF038F9011C50460AF003
:104620001DF9311C824626980AF02FF9291C834671
:104630002D980AF02AF9011C58460AF00FF905993D
:1046400083461F980AF021F9011C58460AF006F922
:10465000011C50460AF002F94946206112980AF0FE
:1046600014F90499824619980AF00FF9011C504672
:104670000AF0F4F8391C82460B980AF006F9011C7E
:1046800050460AF0EBF8311C824627980AF0FDF8F4
:10469000291C83462E980AF0F8F8011C58460AF0A7
:1046A000DDF80599834620980AF0EFF8011C58467A
:1046B0000AF0D4F8011C50460AF0D0F8494660616F
:1046C00013980AF0E2F8049981461A980AF0DDF886
:1046D000011C48460AF0C2F8391C81460C980AF0C1
:1046E000D4F8011C48460AF0B9F8311C071C289878
:1046F0000AF0CBF8291C061C2F980AF0C6F8011CFA
:10470000301C0AF0ABF80599051C21980AF0BDF899
:10471000011C281C0AF0A2F8011C381C0AF09EF8A3
:1047200018239C46FFABA06114331C34E044A34221
:1047300000D08BE6309BA2AD99463C93C4234C46F7
:10474000C8464B44089307944246D26843464146C4
:10475000914642469E694C68096892685F691B6988
:104760000491301CFD99069305920AF08EF8F69993
:104770008246381C0AF089F8011C50460AF06EF88F
:10478000EF99824606980AF080F8E89983464846F1
:104790000AF07BF8011C58460AF060F8011C5046EC
:1047A0000AF05CF8E199824605980AF06EF8DA9909
:1047B0008346201C0AF069F8011C58460AF04EF89E
:1047C000D399834604980AF060F8011C58460AF011
:1047D00045F8011C50460AF041F8011C28680AF00F
:1047E0003AF82860FE99301C0AF04FF8F799824693
:1047F000381C0AF04AF8011C50460AF02FF8F099CC
:10480000824606980AF041F8E999834648460AF03C
:104810003CF8011C58460AF021F8011C50460AF0E9
:104820001DF8E299824605980AF02FF8DB99834635
:10483000201C0AF02AF8011C58460AF00FF8D499F7
:10484000834604980AF021F8011C58460AF006F83D
:10485000011C50460AF002F8011C686809F0FBFFD1
:10486000FF996860301C0AF010F8F8998246381CED
:104870000AF00BF8011C504609F0F0FFF19982464E
:1048800006980AF002F8EA998346484609F0FDFFC7
:10489000011C584609F0E2FF011C504609F0DEFFFA
:1048A000E3998246059809F0F0FFDC998346201CC5
:1048B00009F0EBFF011C584609F0D0FFD59983465B
:1048C000049809F0E2FF011C584609F0C7FF011CDB
:1048D000504609F0C3FF011CA86809F0BCFFFFABFC
:1048E0005968A860301C043309F0CFFFF99982465B
:1048F000381C09F0CAFF011C504609F0AFFFF299BD
:104900008246069809F0C1FFEB998346484609F0B4
:10491000BCFF011C584609F0A1FF011C504609F0DC
:104920009DFFE4998246059809F0AFFFDD99834623
:10493000201C09F0AAFF011C584609F08FFFD699E8
:104940008346049809F0A1FF011C584609F086FF30
:10495000011C504609F082FF011CE86809F07BFF4A
:10496000FFAB9968E860301C083309F08EFFFA99B4
:104970008246381C09F089FF011C504609F06EFF81
:10498000F3998246069809F080FFEC9983464846E1
:1049900009F07BFF011C584609F060FF011C5046DE
:1049A00009F05CFFE5998246059809F06EFFDE99F3
:1049B0008346201C09F069FF011C584609F04EFF90
:1049C000D7998346049809F060FF011C584609F006
:1049D00045FF011C504609F041FF011C286909F000
:1049E0003AFFFFABD9682861301C0C3309F04DFF4A
:1049F000FB998246381C09F048FF011C504609F01B
:104A00002DFFF4998246069809F03FFFED99834601
:104A1000484609F03AFF011C584609F01FFF011CE7
:104A2000504609F01BFFE6998246059809F02DFFD4
:104A3000DF998346201C09F028FF011C584609F025
:104A40000DFFD8998346049809F01FFF011C5846B2
:104A500009F004FF011C504609F000FF011C6869C1
:104A600009F0F9FEEE996861484609F00EFFF599E4
:104A70008146069809F009FF011C484609F0EEFE40
:104A8000FC998146381C09F000FFFFAB1969071C2F
:104A9000301C103309F0F9FE011C381C09F0DEFE51
:104AA000011C484609F0DAFEE099061C201C09F0BA
:104AB000ECFEE799041C059809F0E7FE011C201C98
:104AC00009F0CCFED999041C049809F0DEFE011C03
:104AD000201C09F0C3FE011C301C09F0BFFE011CA4
:104AE000A86909F0B8FE1C239C46089BE044A86115
:104AF0001C35984500D027E6079BA29A99461A6074
:104B0000A39A5A60A49A9A60A59ADA60A69A1A6142
:104B1000A79A5A61A89A9A61A99ADA61AA9A1A621E
:104B2000AB9A5A62AC9A9A62AD9ADA62AE9A1A63FA
:104B3000AF9A5A63B09A9A63B19ADA63B29A1A64D6
:104B4000B39A5A64B49A9A64B59ADA64B69A1A65B2
:104B5000B79A5A65B89A9A65B99ADA65BA9A1A668E
:104B6000BB9A5A66BC9A9A66BD9ADA66BE9A1A676A
:104B7000BF9A5A67C09A9A67C19ADA674A468023F1
:104B8000C299D150C3990433D150C4990433D15040
:104B9000C5990433D150C6990433D150C799043311
:104BA000D150C8990433D150C9990433D150CA990E
:104BB0000433D150CB990433D150CC990433D15024
:104BC000CD990433D150CE990433D150CF990433C9
:104BD000D150D0990433D150D1990433D150D299C6
:104BE0000433D1503AAA9446504BA2AA63441B689E
:104BF00013CB13C24E4BD3AC63441B6807CB07C423
:104C00003A9B3B9D00934B4B28006344A2A91B6831
:104C1000D3AAFDF77FF82B00D3AA23CB23C213CB53
:104C200013C23AA91B688C4613603EAA11003F4B81
:104C300063441B6831CB31C13D4BA2A963441B685F
:104C400031CB31C13B4BD3A963441B6871A800939E
:104C5000A2ABFDF7C5FAD3AB1C000793719BA0462E
:104C60000993789B10937F9B1793869B1E938D9B34
:104C70002593949B2C939B9B3393729B0A93799BD4
:104C80001193809B1893879B1F938E9B2693959BD4
:104C90002D939C9B3493739B0B937A9B1293819BD4
:104CA0001993889B20938F9B2793969B2E939D9B74
:104CB0003593749B0C937B9B1393829B1A93899BD4
:104CC0002193909B2893979B2F939E9B3693759B44
:104CD0000D937C9B1493839B1B938A9B2293919BA4
:104CE0002993989B30939F9B3793769B0E937D9B44
:104CF0001593849B1C938B9B2393929B2A93999B44
:104D00003193A09B3893779B0F937E9B1693859B43
:104D10001D938C9B2493939B2B939A9B3293A19BE3
:104D200039934B463D933C9B994605E0280800008B
:104D3000380800003C080000484649464A464B46B1
:104D4000866909691B6855689468D2684769069145
:104D50003398311C0592049309F097FD391C824663
:104D60002C9809F092FD011C504609F077FD069938
:104D70008246259809F089FD059983461E9809F019
:104D800084FD011C584609F069FD011C504609F0DC
:104D900065FD211C8246179809F077FD291C834682
:104DA000109809F072FD011C584609F057FD04994E
:104DB0008346099809F069FD011C584609F04EFD2B
:104DC000011C504609F04AFD4346311C18603498D6
:104DD00009F05BFD391C82462D9809F056FD011C37
:104DE000504609F03BFD06998246269809F04DFD94
:104DF000059983461F9809F048FD011C584609F0A3
:104E00002DFD011C504609F029FD211C82461898F1
:104E100009F03BFD291C8346119809F036FD011C61
:104E2000584609F01BFD049983460A9809F02DFDA8
:104E3000011C584609F012FD011C504609F00EFDF8
:104E40004346311C5860359809F01FFD391C8246D5
:104E50002E9809F01AFD011C504609F0FFFC069936
:104E60008246279809F011FD05998346209809F09C
:104E70000CFD011C584609F0F1FC011C504609F0DC
:104E8000EDFC211C8246199809F0FFFC291C834681
:104E9000129809F0FAFC011C584609F0DFFC04994D
:104EA00083460B9809F0F1FC011C584609F0D6FC2A
:104EB000011C504609F0D2FC4346311C98603698DC
:104EC00009F0E3FC391C82462F9809F0DEFC011C36
:104ED000504609F0C3FC06998246289809F0D5FC93
:104EE00005998346219809F0D0FC011C584609F029
:104EF000B5FC011C504609F0B1FC211C82461A98F1
:104F000009F0C3FC291C8346139809F0BEFC011C60
:104F1000584609F0A3FC049983460C9809F0B5FCA7
:104F2000011C584609F09AFC011C504609F096FCF9
:104F30004346311CD860379809F0A7FC391C8246DB
:104F4000309809F0A2FC011C504609F087FC069934
:104F50008246299809F099FC05998346229809F020
:104F600094FC011C584609F079FC011C504609F0DC
:104F700075FC211C82461B9809F087FC291C83467E
:104F8000149809F082FC011C584609F067FC04994A
:104F900083460D9809F079FC011C584609F05EFC27
:104FA000011C504609F05AFC4346311C18613898E0
:104FB00009F06BFC391C8246319809F066FC011C33
:104FC000504609F04BFC069982462A9809F05DFC90
:104FD00005998346239809F058FC011C584609F0AE
:104FE0003DFC011C504609F039FC211C82461C98EE
:104FF00009F04BFC291C8346159809F046FC011C5E
:10500000584609F02BFC049983460E9809F03DFCA4
:10501000011C584609F022FC011C504609F01EFCF8
:10502000434605995861249809F02FFC0699824659
:105030002B9809F02AFC011C504609F00FFC391C82
:105040008246329809F021FC311C071C399809F07E
:105050001CFC011C381C09F001FC011C504609F025
:10506000FDFB291C061C169809F00FFC211C051CD1
:105070001D9809F00AFC011C281C09F0EFFB04999B
:10508000041C0F9809F001FC011C201C09F0E6FB30
:10509000011C301C09F0E2FB434698611C239C462E
:1050A000089BE144E044994500D045E6A2ACA04607
:1050B000F6AB0693DAAB3C940893079B33981A68D7
:1050C000596D0492069A8946D669196FDD69059172
:1050D000311C9C6B176809F0D8FB391C82462C9850
:1050E00009F0D3FB011C504609F0B8FB0599824634
:1050F000259809F0CAFB494683461E9809F0C5FB6E
:10510000011C584609F0AAFB011C504609F0A6FBF9
:10511000211C8246179809F0B8FB291C8346109879
:1051200009F0B3FB011C584609F098FB049983462B
:10513000099809F0AAFB011C584609F08FFB011CD5
:10514000504609F08BFB41460860311C349809F049
:105150009CFB391C82462D9809F097FB011C504698
:1051600009F07CFB05998246269809F08EFB49469A
:1051700083461F9809F089FB011C584609F06EFB15
:10518000011C504609F06AFB211C8246189809F060
:105190007CFB291C8346119809F077FB011C5846BB
:1051A00009F05CFB049983460A9809F06EFB011C28
:1051B000584609F053FB011C504609F04FFB41468D
:1051C0004860311C359809F060FB391C82462E98E6
:1051D00009F05BFB011C504609F040FB0599824633
:1051E000279809F052FB49468346209809F04DFB69
:1051F000011C584609F032FB011C504609F02EFBF9
:10520000211C8246199809F040FB291C83461298FC
:1052100009F03BFB011C584609F020FB049983462A
:105220000B9809F032FB011C584609F017FB011CD2
:10523000504609F013FB41468860311C369809F04E
:1052400024FB391C82462F9809F01FFB011C504695
:1052500009F004FB05998246289809F016FB494697
:105260008346219809F011FB011C584609F0F6FA13
:10527000011C504609F0F2FA211C82461A9809F0E6
:1052800004FB291C8346139809F0FFFA011C5846B9
:1052900009F0E4FA049983460C9809F0F6FA011C27
:1052A000584609F0DBFA011C504609F0D7FA41468E
:1052B000C860311C379809F0E8FA391C82463098EA
:1052C00009F0E3FA011C504609F0C8FA0599824634
:1052D000299809F0DAFA49468346229809F0D5FA66
:1052E000011C584609F0BAFA011C504609F0B6FAFA
:1052F000211C82461B9809F0C8FA291C8346149881
:1053000009F0C3FA011C584609F0A8FA049983462B
:105310000D9809F0BAFA011C584609F09FFA011CD1
:10532000504609F09BFA41460861311C389809F053
:10533000ACFA391C8246319809F0A7FA011C504694
:1053400009F08CFA059982462A9809F09EFA494696
:105350008346239809F099FA011C584609F07EFA11
:10536000011C504609F07AFA211C82461C9809F06B
:105370008CFA291C8346159809F087FA011C5846B7
:1053800009F06CFA049983460E9809F07EFA011C24
:10539000584609F063FA011C504609F05FFA43468B
:1053A00049465861249809F070FA059981462B986E
:1053B00009F06BFA011C484609F050FA391C814685
:1053C000329809F062FA311C071C399809F05DFA2D
:1053D000011C381C09F042FA011C484609F03EFA4B
:1053E000291C061C169809F050FA211C051C1D9852
:1053F00009F04BFA011C281C09F030FA0499041C2E
:105400000F9809F042FA011C201C09F027FA011C30
:10541000301C09F023FA414688611C218C46069A0B
:10542000079B04320692089A04330793E0449A4299
:1054300000D042E63AAA94463D9B764A9946754B7F
:10544000624463441B6812681B68D3AC0793714BBA
:1054500063441B68DB6908936E4B63441B689B6B5A
:1054600009936C4B63441B685B6D0A93694B6344FF
:105470001B681B6F0B938C23D358664A0C93654BA8
:10548000624463441B685B680D93624B63441B6812
:105490001B6A0E935F4B63441B68DB6B0F935D4B82
:1054A00063441B689B6D10935A4B63441B685B6F8E
:1054B000126811939023D358564A1293554B624465
:1054C00063441B6812689B681393524B63441B68C8
:1054D0005B6A14934F4B63441B681B6C15934D4BD5
:1054E00063441B68DB6D16934A4B63441B689B6FD8
:1054F00017939423D358474A1893464B6244634406
:105500001B68DB681993434B63441B689B6A1A93BF
:10551000404B63441B685B6C1B933E4B63441B68AE
:1055200012681B6E1C933B4B63441B68DB6F1D931F
:105530009823D358374A1E93364B624463441B6802
:1055400012681B691F93334B63441B68DB6A20930B
:10555000304B63441B689B6C21932E4B63441B6848
:105560005B6E22938023D3582A4A23939C23624460
:105570001268D358274A2493264B624463441B681D
:105580005B692593234B63441B681B6B2693214B5C
:10559000126863441B68DB6C27931E4B63441B68D3
:1055A0009B6E28938423D3581A4A2993A0236244DC
:1055B0001268D358174A2A93164B624463441B68F7
:1055C00012689B692B93134B63441B685B6B2C9392
:1055D000104B63441B681B6D2D930E4B63441B687B
:1055E000DB6E2E938823D3580A4A2F93A423624458
:1055F0001268D35822003093074B63441B689846C7
:10560000D3AB06939023434431934B464446904694
:10561000329303E0340800002C0800006368E2685D
:105620009946A368089948460493059209F02DF914
:1056300009998246049809F028F9011C504609F09E
:105640000DF9276882460799381C09F01EF9011CDC
:10565000504609F003F9266982460B99301C09F07F
:1056600014F9656983460C99281C09F00EF9011C90
:10567000584609F0F3F80A998346059809F005F9A8
:10568000011C584609F0EAF8011C504609F0E6F8FA
:10569000414608600E99484609F0F7F80F9982468E
:1056A000049809F0F2F8011C504609F0D7F80D995A
:1056B0008246381C09F0E9F8011C504609F0CEF882
:1056C00011998246301C09F0E0F812998346281C93
:1056D00009F0DBF8011C584609F0C0F81099834620
:1056E000059809F0D2F8011C584609F0B7F8011CDA
:1056F000504609F0B3F8414648601499484609F00D
:10570000C4F815998246049809F0BFF8011C504668
:1057100009F0A4F813998246381C09F0B6F8011C68
:10572000504609F09BF817998246301C09F0ADF8F5
:1057300018998346281C09F0A8F8011C584609F05E
:105740008DF816998346059809F09FF8011C584674
:1057500009F084F8011C504609F080F84146886041
:105760001A99484609F091F81B998246049809F065
:105770008CF8011C504609F071F819998246381CC2
:1057800009F083F8011C504609F068F81D9982461B
:10579000301C09F07AF81E998346281C09F075F828
:1057A000011C584609F05AF81C998346059809F0DF
:1057B0006CF8011C584609F051F8011C504609F0DC
:1057C0004DF84146C8602099484609F05EF8219995
:1057D0008246049809F059F8011C504609F03EF839
:1057E0001F998246381C09F050F8011C504609F0F8
:1057F00035F823998246301C09F047F824998346EE
:10580000281C09F042F8011C584609F027F8229993
:105810008346059809F039F8011C584609F01EF82E
:10582000011C504609F01AF841460861269948467D
:1058300009F02BF827998246049809F026F8011CF4
:10584000504609F00BF825998246381C09F01DF8DE
:10585000011C504609F002F829998246301C09F0D3
:1058600014F82A998346281C09F00FF8011C5846A1
:1058700008F0F4FF28998346059809F006F8011C02
:10588000584608F0EBFF011C504608F0E7FF43467E
:105890002C995861484608F0F8FF2D9981460498E4
:1058A00008F0F3FF011C484608F0D8FF2B99814609
:1058B000381C08F0EAFF011C484608F0CFFF2F997A
:1058C000071C301C08F0E1FF3099061C281C08F06A
:1058D000DCFF011C301C08F0C1FF2E99051C059847
:1058E00008F0D3FF011C281C08F0B8FF011C381C6D
:1058F00008F0B4FF434698611C239C46319B183442
:10590000E044A34200D089E6F6AB05933C9CDAABB9
:105910003193069B0899DA691F6891469A6B48464D
:1059200090465A6D1E6F0492059A20CA059208F09F
:10593000ACFF09998246404608F0A7FF011C50467B
:1059400008F08CFF07998246381C08F09EFF011C66
:10595000504608F083FF0B998246301C08F095FFF3
:105960000C998346281C08F090FF011C584608F04B
:1059700075FF0A998346049808F087FF011C584672
:1059800008F06CFF011C504608F068FF011C2068FD
:1059900008F064FF0E992060484608F076FF0F99E2
:1059A0008246404608F071FF011C504608F056FF41
:1059B0000D998246381C08F068FF011C504608F01B
:1059C0004DFF11998246301C08F05FFF1299834603
:1059D000281C08F05AFF011C584608F03FFF109998
:1059E0008346049808F051FF011C584608F036FF22
:1059F000011C504608F032FF011C606808F02EFFC1
:105A000018996060281C08F040FF17998246301CE6
:105A100008F03BFF011C504608F020FF1699824613
:105A2000049808F032FF011C504608F017FF149943
:105A30008246484608F029FF15998346404608F0FB
:105A400024FF011C584608F009FF13998346381CAF
:105A500008F01BFF011C584608F000FF011C5046CF
:105A600008F0FCFE011CA06808F0F8FE1E99A0607A
:105A7000281C08F00AFF1D998246301C08F005FF1B
:105A8000011C504608F0EAFE1C998246049808F072
:105A9000FCFE011C504608F0E1FE1B998246404680
:105AA00008F0F3FE1A998346484608F0EEFE011C02
:105AB000584608F0D3FE19998346381C08F0E5FED5
:105AC000011C584608F0CAFE011C504608F0C6FEEC
:105AD000011CE06808F0C2FE2099E060484608F02A
