:020000041000EA
:1000000000B5324B212058609868022188439860DF
:10001000D860186158612E4B002199600221596106
:100020000121F02299502B49196001219960352056
:1000300000F044F80222904214D00621196600F024
:1000400034F8196E01211966002018661A6600F04E
:100050002CF8196E196E196E052000F02FF8012189
:100060000842F9D1002199601B49196000215960AB
:100070001A491B48016001219960EB211966A021F2
:10008000196600F012F800219960164914480160C1
:100090000121996001BC002800D000471248134993
:1000A000086003C880F30888084703B5996A0420EC
:1000B0000142FBD001200142F8D103BD02B5186610
:1000C0001866FFF7F2FF186E186E02BD00000240BE
:1000D000000000180000070000035F00212200005C
:1000E000F4000018222000A00001001008ED00E03C
:1000F00000000000000000000000000074B24E7A12
:1001000000200420F7010010C3010010C5010010F9
:10011000C1010010C1010010C1010010C101001097
:10012000C1010010C1010010C1010010C701001081
:10013000C1010010C1010010C9010010CB01001065
:10014000CD010010CD010010CD010010CD01001037
:10015000CD010010CD010010CD010010CD01001027
:10016000CD010010CD010010CD010010CD01001017
:10017000CD010010CD010010CD010010CD01001007
:10018000CD010010CD010010CD010010CD010010F7
:10019000CD010010CD010010CD010010CD010010E7
:1001A000CD010010CD010010CD010010CD010010D7
:1001B000CD010010CD010010CD010010CD010010C7
:1001C00000BE00BE00BE00BE00BE00BEEFF3058054
:1001D000103800BEF2EB88718C3F0510AC3F051063
:1001E0003402001090A31AE700201F49086006C8D7
:1001F00081F3088810471D48006800282FD10DA4FE
:100200000ECC002902D000F012F8F9E71849194A7B
:10021000002000E001C19142FCD1174988471749ED
:1002200088471749884700BEFDE701C901C29A42C5
:10023000FBD37047AC3F0510C0000020902C00207D
:100240007C6B051000000420000004207C6B05106E
:10025000001004200010042000000000704709482E
:100260000DF048F80047000008ED00E0000000D065
:10027000902C0020A0580320E9BA0010550300106C
:100280001DBC00105756000006005250ABB360531F
:10029000609B041006005250861C0302709B0410E1
:1002A000060052505422A29D7C9B0410050052501F
:1002B000DE65F4687C6B0510F8B5C0460448054B54
:1002C00010B5834203D0044B002B00D0984710BDDB
:1002D000902C0020902C00200000000006480749C8
:1002E000091A8B10C90FC91810B5491003D0044B57
:1002F000002B00D0984710BD902C0020902C00209F
:100300000000000010B5074C2378002B09D1FFF73F
:10031000D5FF054B002B02D0044800E000BF0123AD
:10032000237010BDD830002000000000909604100B
:10033000054B10B5002B03D00449054800E000BF71
:10034000FFF7CCFF10BDC04600000000DC300020ED
:100350009096041070B5192009F092FED0238022E7
:100360001B0692045A620EF035FF00F047F806F0C3
:1003700013FD08F081F806F0B5FF09F00DFA002230
:100380000524144B1A7006F0B5F9134D013C2100F9
:1003900028000EF013FFFA2080000AF081FC002CE8
:1003A000F4D10A200EF06AFD012200210B480AF068
:1003B0003FF90B4811F0BEF801220A4B0A4C1A70A3
:1003C0002378012BFCD108F013FA2378012BFAD003
:1003D000F6E7C0468458032090960410B8570320CF
:1003E000358A0010835803208858032010B502482E
:1003F00011F0C8FB10BDC04690380320092370B52A
:1004000086B0059304330493023B0393013B0293AC
:10041000023B324D324C0193324B22003249334879
:1004200000932B0005F024FE142005F01DFEFA2099
:1004300080000AF035FC2E4E21003200280006F024
:100440002FF83378682B08D02A4C20000EF062FD7C
:10045000FA2080000AF024FCF7E773783D2BF3D1F3
:1004600001222100280006F03FF8234E320021002F
:10047000280006F073F83378002BF7D10122210011
:10048000280005F0EFFE0121200005F0CDFE03213C
:10049000200005F05FFE0321280005F089FF1321ED
:1004A000200006F0C9F81221200006F003F900210F
:1004B000200006F0E1F80321200006F06BF802218D
:1004C000200006F083F85521200005F061FE182178
:1004D000280005F007FF06B070BDC0467820032055
:1004E0005C32002040420F009C200020942000201D
:1004F00048580320A49604109C580320F0B5C64623
:10050000334C344D344E22002900300000B505F044
:10051000D9FF6378DB439B0720D023781B0702D4E5
:1005200080BCB846F0BD2D4C0622002120000EF004
:1005300073FB2100300005F095FF0023E05E05F01D
:10054000FFFD274D28600223E05E05F0F9FD68609D
:100550000423E05E05F0F4FDA860E1E7214B0622EC
:100560009846180000210EF057FB1F4F062200216D
:1005700038000EF051FB4146280005F055FF3900C8
:10058000280005F033FF43460020185E05F0C4FD47
:100590004346164D28600220185E05F0BDFD434617
:1005A00068600420185E05F0B7FDA8600023F85EBF
:1005B00005F0BCFD0E4D28600223F85E05F0B6FD87
:1005C00068600423F85E05F0B1FDA860A5E7C046A9
:1005D000CC4D03205C32002078200320783E03209D
:1005E00018430320683E0320703E03200C3D032087
:1005F000283D0320F0B55746DE464E464546E0B559
:100600008BB008919246190005900993DA170323DD
:100610008C46134063449B109B009846002B00DCE3
:1006200090E05246159B00249B000193149B9B1A5B
:10063000159A9B1A089A9B00029353681268190135
:1006400094460491069251469A00039252468D00B8
:100650000021013A92000792002289465900DE00EB
:10066000CB189B009B461300424665440092019ABA
:1006700094469C44039B1A199F195346002B1EDD78
:10068000069B059819196346804600989B004344D1
:1006900080460094086818600098081A845804314D
:1006A0005C6084599C60C059D86010338D42F1D190
:1006B00043460799009363468C4604339C440421C7
:1006C000029B5A4463448C461400049A3E00E14461
:1006D0009446009A5E4465444A45C8DC1A00009B73
:1006E0009846099B434526DD1499159C089B0D1BD4
:1006F000514609CB6D1A00291DDD41469E004B4332
:100700009B00C01853469C00059B47469C46099B8E
:10071000AB469846159B994600234A449100614494
:10072000C558CD5004339C42FAD1524401375A4443
:100730008019B845F0D10BB0F0BCBB46B246A94613
:10074000A046F0BD0022CCE7F0B54746CE4680B5C6
:100750001F00002B1DDD002A1BDD9300C0180B6855
:10076000002498464B689100D200494252428C4680
:1007700091469B00614645182900A2004244166834
:10078000D21840C18142FAD14A460134A81AA74280
:10079000F0D1C0BCB946B046F0BDC046F0B5DE46AB
:1007A00057464E4645460023E0B51360836887B040
:1007B0009A46059200230268052693460093013B62
:1007C000039002910493052355469B1B98465D4375
:1007D0005B46002B00D18DE14544AD005D442B68A4
:1007E0005C006B6864085F007F08391C381C0EF0E1
:1007F000DCF8002800D0DFE0211C381C0EF0D0F817
:10080000002800D0DFE00027731C9A46022B53D942
:10081000AB685B005B08191C181C99460EF0C5F804
:10082000002800D046E14846211C0EF0B9F8002807
:1008300001D04C4602275346032B3DD0EB685B00AA
:100840005B08191C181C99460EF0AFF8002800D060
:1008500038E14846211C0EF0A3F8002801D04C4690
:1008600003275346042B27D02B695B005B08191C18
:10087000181C99460EF099F8002800D02AE1494644
:10088000201C0EF07FF8002801D04C460427534668
:10089000052B11D06D696D006D08291C281C0EF008
:1008A00084F8002800D01DE1291C201C0EF06AF8F5
:1008B000002801D005272C1C029B009A47440021E8
:1008C0009F50201C0EF056F8002800D17EE0049BBB
:1008D000013300D1E3E006239B1B45460193039BB4
:1008E0009B689A465D4306239F1B53469B0099468F
:1008F000019B52461C005443009A7F199446A50060
:1009000065449C460023BF005F44B8461F00644412
:10091000A4005D445C444346286819680DF0FBFF61
:10092000011C20680DF0DDFF2060012E2DD943460B
:10093000286859680DF0EFFF011C60680DF0D1FFC9
:100940006060022E21D04346296898680DF0E3FFCD
:10095000011CA0680DF0C5FFA060032E15D0434612
:100960002968D8680DF0D7FF011CE0680DF0B9FFC9
:10097000E060052E09D14346296818690DF0CBFFC8
:10098000011C20690DF0ADFF206101374D444C443E
:10099000BE42C0D1009B013E04330093019B052B56
:1009A00000D010E71A00029B5A6107B0F0BCBB46AA
:1009B000B246A946A046F0BD211C201C0DF0F5FF53
:1009C000002800D018E73C1C01271DE7474530D020
:1009D00059465C460098BB005B4409581D68039A61
:1009E00092682550196001009200594489189B189B
:1009F00008681C680C60186089189B1808681C68D7
:100A00000C60186089189B1808681C680C601860D6
:100A100089189B1808681C680C60186089189B1856
:100A200018680A6808601A60059A13680193013310
:100A300013604546039B5A469B685D439A460623CE
:100A40009B1B0193EC1843465B199B009F58A40025
:100A50005C442068391C0DF04AFF2060012E00D84C
:100A600041E76068391C0DF042FF6060022E00D142
:100A700039E7A068391C0DF03AFFA060032E00D1C1
:100A800031E7E068391C0DF032FFE060042E00D140
:100A900029E72069391C0DF02AFF206123E706238E
:100AA00045469B1B0193039B9B689A465D434346C7
:100AB000049318E7211C201C0DF077FF002800D1BB
:100AC000B7E6B0E6211C201C0DF06FFF002800D116
:100AD000C5E6BEE6211C201C0DF067FF002800D1F2
:100AE000D3E6CCE6211C201C0DF05FFF002800D1CE
:100AF000E0E6D9E61B68FFDEF0B55746DE464E4617
:100B00004546E0B599B01493249B8246259C2698CF
:100B10005D1C00D1229B651C00D1229C239DEE17F9
:100B200003253540239EB4466544AD10AF0007252C
:100B3000229E0E97AE4335000096149E002E00DCD8
:100B400088E29B001693230110930301D318179397
:100B50006B1EDB0801330391D9015B010F93A300E6
:100B60007C43201880001193131815930023D3465B
:100B7000139108930E9B002B00DCC2E10F9A039B9C
:100B8000944663441293179BD84601930023029323
:100B90000298434601000CCB089C5943A44661448B
:100BA000890051180991411C594361448900511829
:100BB0000A91811C59436144890051180B91C11C51
:100BC0004B4363449B00D318019E0C93009B34005D
:100BD000002B00DC45E2039B0025994600234C4690
:100BE000AA46AB46A946069504952F1C0595079580
:100BF0000D9325683168281C0DF08DFE59460DF0C7
:100C000073FE71688346281C0DF085FE51460DF079
:100C10006BFEB1688246281C0DF07DFE07990DF031
:100C200063FEF1680790281C0DF075FE05990DF024
:100C30005BFE059065683169281C0DF06CFE391C5F
:100C40000DF052FE7169071C281C0DF064FE04991A
:100C50000DF04AFEB1690490281C0DF05CFE069967
:100C60000DF042FEF1690690281C0DF054FE494635
:100C70000DF03AFE8146A568316A281C0DF04BFE46
:100C800059460DF031FE716A8346281C0DF043FE73
:100C900051460DF029FEB16A8246281C0DF03BFE3C
:100CA00007990DF021FEF16A0790281C0DF033FE24
:100CB00005990DF019FE0590E568316B281C0DF0C3
:100CC0002AFE391C0DF010FE716B071C281C0DF05C
:100CD00022FE04990DF008FEB16B0490281C0DF063
:100CE0001AFE06990DF000FEF16B0690281C0DF01F
:100CF00012FE49460DF0F8FD81462569316C281C2D
:100D00000DF009FE59460DF0EFFD716C8346281C6D
:100D10000DF001FE51460DF0E7FDB16C8246281C36
:100D20000DF0F9FD07990DF0DFFDF16C0790281C1F
:100D30000DF0F1FD05990DF0D7FD05906569316D58
:100D4000281C0DF0E8FD391C0DF0CEFD716D071C5F
:100D5000281C0DF0E0FD04990DF0C6FDB16D049066
:100D6000281C0DF0D8FD06990DF0BEFDF16D069022
:100D7000281C0DF0D0FD49460DF0B6FD8146A56951
:100D8000316E281C0DF0C7FD59460DF0ADFD716E9A
:100D90008346281C0DF0BFFD51460DF0A5FDB16E38
:100DA0008246281C0DF0B7FD07990DF09DFDF16EF0
:100DB0000790281C0DF0AFFD05990DF095FD0590ED
:100DC000E569316F281C0DF0A6FD391C0DF08CFD76
:100DD000716F071C281C0DF09EFD04990DF084FD19
:100DE000B16F0490281C0DF096FD06990DF07CFD66
:100DF000F16F0690281C0DF08EFD49460DF074FD34
:100E00008146803620340D9B009A08330D939A4218
:100E100000DDEEE6139B019C9C46051C5946381CE0
:100E200064440DF061FD5146071C04980DF05CFD13
:100E30000799061C06980DF057FD05998146281C58
:100E40000DF052FD129B051C9A46229A009B9A4275
:100E500030DDAB460493534620CB2168281C9A46CC
:100E60000DF059FD011C381C0DF03EFD6168071C9A
:100E7000281C0DF050FD011C301C0DF035FDA16843
:100E8000061C281C0DF047FD011C48460DF02CFDEA
:100E9000E1688146281C0DF03EFD011C58460DF00E
:100EA00023FD8346049B229A0133103404939A4213
:100EB000D1D1051C311C0A9E30680DF012FD391C81
:100EC000099F041C38680DF00CFD291C0C9D38602E
:100ED000346028680DF005FD0B9E4946041C3068FF
:100EE0000DF0FFFC1099019A8C46029B624401921E
:100EF0000E9A0433306002932C609A4200DD47E67C
:100F0000C3460F9A039B944663440E9A0293239B15
:100F10009246159D934200DC90E05B465C68534628
:100F20005C43089B2F009C465B461B6864449C46C0
:100F3000009BA4006444002B00DC99E00023039F85
:100F400099463B00A04600262F001C003968206807
:100F50000DF0E1FC311C0DF0C7FC061C79686068DF
:100F60000DF0D9FC311C0DF0BFFC061CB968A0685F
:100F70000DF0D1FC311C0DF0B7FC061CF968E068DF
:100F80000DF0C9FC311C0DF0AFFC061C396920695D
:100F90000DF0C1FC311C0DF0A7FC061C79696069DD
:100FA0000DF0B9FC311C0DF09FFC061CB969A0695D
:100FB0000DF0B1FC311C0DF097FC061CF969E069DD
:100FC0000DF0A9FC311C0DF08FFC061C20372034DD
:100FD00008239C46009BE1444B45B7DC44460F9BED
:100FE000EF18029B0193229A009B9A4217DD9946C3
:100FF0000023984643464246F958019B98580DF005
:101000008AFC011C301C0DF06FFC061C01239C4661
:101010000333E1449C46229BE0444B45EAD12068DF
:10102000311C0DF05EFC01239C46119BE2449C4662
:10103000239B20606544534500D06EE71699039AC0
:101040008C46089B62440392149A013308939A4297
:1010500000D08FE519B0F0BCBB46B246A946A04609
:10106000F0BD0025039BA9469A462E1C2F1CECE6DA
:10107000039B00260193B6E7F0B557464E46DE4681
:1010800045468024E0B5B5B006AF3C1920609420F9
:101090007B63E823AE4E38180160BA63FB181C6806
:1010A0003378BFF35B8FDB0700D477E2A94D902242
:1010B0002369BA1813608422A368BA1813608022C7
:1010C000BA1812686D68934202DD8423FB181A6017
:1010D00094218423902279180E688C21FB18BA1869
:1010E00012681B6856435343226879180A60002A25
:1010F00000D180E29B003B660023BB6763687B678F
:10110000002B00D163E2B300FB6500233B6798220C
:101110000423BA1813609033FB181B68002B19DDE9
:101120008023E422FB18BA181B6812681900934246
:1011300000DA4AE2280009010CF036F90323C2174D
:10114000134098221B189B109B00BA181360042BA5
:1011500000DA35E28023FB181968002900DCA9E1D8
:1011600090207B6B38181A000068796484464243EB
:10117000091A3A616244B9647A609821E4227918C4
:10118000BA18126809684A43BA619A007A6104324F
:10119000FA61A02201339B00BA181360E423FB1804
:1011A0001B689B009B460023FB63FB643B64BB66A0
:1011B0009C227B6CBA1813609022BA181268934272
:1011C00002DD9C23FB181A609423FB181B68002B7C
:1011D00000DC47E19C23FB181A68002A00DC41E18F
:1011E0009423E021FB181B687918BB6598230968D4
:1011F000FB188C461B68B86E53439B00BB607B6F2B
:101200001100FB6783006344FB6000238C46FB6690
:10121000FB620B00B021791839630321013B043ACA
:101220008B436044D31A38603B629822BA18BB6D76
:1012300012689A46934200DD9246FA68FB6E944625
:101240009B0063447B66FB6B88227B65FB6CBA1852
:101250003B659C23FB181B6813609C23FB181A68D2
:101260008823FB181B68D21ABA62A422BA1813602A
:10127000042B03DDA4220423BA1813608823FB186F
:101280003A681B68D21A7A62002B65DDA423BA6B18
:10129000FB189146A8221B68BA18013B98467B6D43
:1012A0009B0099447B6E1360AC220023BA18136034
:1012B000AC23AC22FB181B68BA18013313604346F9
:1012C000002B2CDDA8230025FB181C684B46266844
:1012D0005968301C0DF01FFB011C60680DF001FB0C
:1012E00043466060012B16D04B46301C99680DF0C8
:1012F00012FB011CA0680DF0F4FA4346A060022B1B
:1013000009D04B46301CD9680DF005FB011CE06884
:101310000DF0E7FAE06001355C445545D6D1012374
:101320005B429C46A133FB181B68E0449C46A82303
:10133000A822FB181B68BA1804331360AC23A4223C
:10134000FB18BA181B681268E1449342B0DB03E053
:10135000E0220320A43803208823A422FB18BA1813
:101360001B681268396B9D1A7B6EBE6A0B60E423A2
:10137000FB181B6891464B609C230196FB181B6869
:1013800088460093F86F5346FFF734F9002D37DD98
:1013900041467C6A386D4C440319B86B4A46844612
:1013A000786B9B004860A420381802608C203818A5
:1013B000006863440B602B0081463963FFF7C4F972
:1013C000E022FB6EBA181B1914689B00A0463C6B08
:1013D00043442360E423FB1819689C236160FB18D5
:1013E00004961B6849460393A423FB181A685346C6
:1013F0000292019300922B002000FA6FFFF77CFB12
:10140000882388227969FB188C461B68BA18043B2C
:10141000F96913603A6D62448C463A657A6E10320F
:101420007A667A6D62447A653A6A9A4200D014E725
:101430009822BA181268B96D9446FB6A8A1AB9697B
:1014400063448C46BA65B968FA6EFB6262448C46A6
:10145000FA66FA6F6244FA679422BA1812689A42DE
:1014600000DDE2E69022BA181268BB6E9446802234
:10147000BA1812686344BB6693421BDA8423FB18D4
:101480001B68002B38DC90233969FB188C467A6C7A
:101490001B68D21A7A643A6C62443A64BA6CD31A02
:1014A000BB647A68FB6C63449446FB64FB6B6344E7
:1014B000FB637DE68023FA6D9B029A4207D93A6F5F
:1014C000002A04D0531E1878101A0DF08DFB8023CB
:1014D0003A6E9B029A4207D9BA6F002A04D0531E73
:1014E0001878101A0DF080FBBD462FB0F0BCBB463B
:1014F000B246A946A046F0BDBA6B3B6C92469B0033
:101500009A44B023FE18B13B9946BD6CBC6E84234F
:10151000FB181B68A8469D4200DD9846AC22A3003C
:10152000BA1813607A6B8C2072609C225344BA18EC
:10153000381831001268006833604346FFF704F939
:10154000E022AC23BA181268FB1894461B688C2161
:1015500063443360E423FB181B687918736000232D
:1015600004934B46039302939423FB181B683000AB
:1015700001939C23FB181B6800937A6F434609680C
:10158000FFF7BAFA8423FB181B689C46ED1A8023E8
:10159000FB181B686444A342B9DC74E730000FF009
:1015A000EFFF364D002800D181E58023DB012B6061
:1015B00080231B0330006B60AB600FF0FDFF76E50E
:1015C00098220423BA181360C4E51100B2E5802301
:1015D000B200FA659B029A423AD813006A46163363
:1015E000DB08DB00D31A9D4627200F23684498436D
:1015F000386778678BE59A0080233A669B029A42A7
:101600000FD813006A461633DB08DB00D31A9D4659
:1016100027200F23684498437D33FB18B867186070
:101620006CE5100010300DF0C1FAB867002800D149
:1016300064E50F221023844602409B1ADBB29C44CF
:1016400061464A1E13708C23FB18B967196055E573
:10165000100010300DF0AAFA3867002800D156E5C6
:101660000F221023844602409B1ADBB29C44614641
:101670004A1E39671370796749E5C046A4380320CC
:10168000F0B557464E46DE464546E0B5B7B006AF24
:10169000824684207B65F023CB4E38180160BA6304
:1016A000FB181C683378BFF35B8FDB0700D49DE227
:1016B000C64D23696D683B67A368BB67534501DD71
:1016C0005346BB67842179180E6880213A6FBB6F3F
:1016D00056435343226879180A60002A00D1B4E2C5
:1016E0009B003B650023FB666368BB66002B00D153
:1016F00097E2B300FB6400237B6688220423BA18B8
:1017000013608033FB181B68002B16DDEC23FB18DD
:101710001B6851469A4500DA7FE2280009010BF068
:1017200043FE0323C217134088221B189B109B0003
:10173000BA181360042B00DA6AE25346002B00DC6F
:1017400032E27A6D386F1100434259430B00B9629F
:1017500051460C1A110062431B1A9B00BA647B604D
:101760000A000B0051464B43B96B53448C46E821A9
:101770009B006344FB637918830009685B423B600C
:1017800053468C469B006344EC21BB658823791843
:10179000FB1809681B687C674B4390213B619300F1
:1017A0005B4279180B60043BBB609B00FB60D3433A
:1017B00094229B00BA181360EC23A822FB181B6824
:1017C000BA189B001360544603008C22BA181360A9
:1017D000A34200DD14608423FB181B68002B00DC8F
:1017E00076E18C23FB181A68002A00DC70E1842360
:1017F000FB181B68B96D7B648823FB181B68534377
:101800009B00FB61BB6EFB659300CB1A3B62002320
:10181000B8213B667B63A31A7918FB621300396316
:101820000321013B043A8B43D31A7B61AC227B6CCE
:10183000BA1813608822BA181268934202DDAC23EA
:10184000FB181A603A6A3B6E94469B009C446246C1
:101850007A62BA6D944698226344BA181360FB6B9F
:101860003B648C23FB181B68FB679C22FB6FBA1838
:101870001360042B03DD9C220423BA181360FA6F53
:10188000FB6A94466344BB61002A00DCA0E09C2311
:10189000396CA0208A46FB181B6838185A1E9346DC
:1018A000BA685B42524402607A6D9B1A9B009A446C
:1018B0000423A4225B4299460023BA181360A02394
:1018C000FE20FB181B68800519680DF010F8B42382
:1018D000FB181860A423FB181B685A46DB439B1AAD
:1018E0009822BA18126800269446B0229C009B00E9
:1018F0005B42BA1864441360B023FB181B684A4665
:101900009846A04443469958B423FB1818680DF034
:1019100002F843464A4698505B46051C002B22DDE0
:10192000534619680CF0F7FF011C20680CF0D9FF32
:101930005B462060012B16D05346281C59680CF0DA
:10194000EAFF011C60680CF0CCFF5B466060022B74
:1019500009D05346281C99680CF0DDFF011CA068D3
:101960000CF0BFFFA060A823FB181B6801369C4643
:10197000AC23FB181B6864449E42BDD1A423A4225F
:10198000FB181B68BA1801331360012294215242DC
:10199000944679180968E3448C46A021A132BA180C
:1019A0001268791862440A600422524294469432C2
:1019B000BA181268E14494469C22BA181268E244AC
:1019C000934200DA7BE703E0E0220320A4380320FF
:1019D000E8219C2279180968BA188C46FB6F1268B6
:1019E000396B9C1ABB699D1A3B6E5B199B00634463
:1019F0000B60EC23FB181B684B608C230194FB18D5
:101A00001B680093AC23FB181B68F86DFEF7F2FD12
:101A1000002C30DD7A6DF96A13008C466B433D6B08
:101A2000B96B80206A609C2263448C463818066833
:101A30009B00BA181268634429002B603000230011
:101A40009046FEF781FEEC2228008C237D6ABA18AE
:101A500005601568FB18456004941D68AC22434678
:101A600003950293BA181268009301922300310083
:101A7000FA6DFFF741F898229821BA181268791880
:101A8000103A0A60F9683A6C8C46FB6F62443A641B
:101A90007A69043BFB679A4200D0E6E68822BA18CE
:101AA0001268796C94467B6B8A1AF96963448C4698
:101AB0007A643969FA6D7B6362448C46FA653A6EE2
:101AC00062443A668422BA1812689A4200DDADE692
:101AD0007B6F1C1E68DDBB6F002B00DCFEE7BA6B62
:101AE000BB6C93469B009B4400239946B833FE1879
:101AF000B93B9A4623004C4699467D6FBB6FA8467A
:101B00009D4200DD9846B422A300BA1813607A6D96
:101B1000802072608C225B44BA1838183100126839
:101B2000006833604346FEF70FFEE822B423BA187C
:101B30001268FB1894461B68802163443360EC23D1
:101B4000FB181B68791873600023049353460393B2
:101B500002938423FB181B68300001938C23FB182D
:101B60001B680093BA6E43460968FEF7C5FFBB6F5A
:101B70009C46ED1A7B6F6444A342BFDCBA6ABB6C1F
:101B800094467A6863449446BB643A68FB6B4C465F
:101B900063449446FB63BB6D3A6F6344BB657B6FE4
:101BA0009B1A7B67130010E68023FA6C9B029A4213
:101BB00007D97A6E002A04D0531E1878101A0DF037
:101BC00013F880233A6D9B029A4207D9FA6E002AD5
:101BD00004D0531E1878101A0DF006F8BD4631B027
:101BE000F0BCBB46B246A946A046F0BD30000FF09F
:101BF000C7FC374D002800D15BE58023DB012B605B
:101C000080231B0330006B60AB600FF0D5FC50E508
:101C100088220423BA1813608FE5EC23FB18196897
:101C20007BE58023B200FA649B029A423AD8130003
:101C30006A461633DB08DB00D31A9D4627200F23A4
:101C4000684498437866B86657E59A0080233A65F9
:101C50009B029A420FD813006A461633DB08DB005A
:101C6000D31A9D4627200F23684498437133FB18ED
:101C7000F866186038E5100010300CF097FFF86631
:101C8000002800D130E50F221023844602409B1A21
:101C9000DBB29C4461464A1E13708023FB18F96630
:101CA000196021E5100010300CF080FF78660028E4
:101CB00000D122E50F221023844602409B1ADBB29A
:101CC0009C4461464A1E79661370B96615E5C046A4
:101CD000A438032030B587B00D4B02AD00951A68CB
:101CE000694602929A880400AA809B796A46AB7181
:101CF000072301930023D3732CF0D4FB0098A84250
:101D000003D0029901310CF0A3FF200007B030BDD1
:101D1000B8960410F0B5DE4657464E464546E0B547
:101D20000E000168C7688946416805698A4681686E
:101D30008DB08B464169806907930690506813689F
:101D4000926805910A90291C30680B9209930895B6
:101D50000CF0C7FD0599039070680CF0C2FD069960
:101D6000051CB0680CF0BDFD80268046360607983D
:101D70000CF054FEB446039B00900191634418009C
:101D800051460CF0C8FD5946061C281C0CF0C3FD3A
:101D9000011C301C0CF0A5FD391C061C40460497A4
:101DA0000CF0B9FD011C301C0CF09BFD0CF036FE54
:101DB0000022684B0BF06FFD009A019B0BF06BFD4E
:101DC000060048460F000CF029FE02000B00300010
:101DD0003900169C0BF038FD0BF062FE494620607E
:101DE00003980CF098FD5946061C40460CF093FDF4
:101DF000011C301C0CF078FD0499061C281C0CF00A
:101E00008AFD011C301C0CF06CFD0CF007FE00225A
:101E1000504B0BF040FD009A019B0BF03CFD06007F
:101E200050460F000CF0FAFD02000B0030003900A4
:101E30000BF00AFD0BF034FE49466060281C0CF0E4
:101E40006AFD5146061C40460CF065FD011C301C25
:101E50000CF047FD0499061C03980CF05CFD011C76
:101E6000301C0CF041FD0CF0D9FD0022394B0BF079
:101E700012FD009A019B0BF00EFD060058460F0064
:101E80000CF0CCFD02000B00300039000BF0DCFC44
:101E90000BF006FE4946A06040460CF03CFD514662
:101EA000061C281C0CF037FD011C301C0CF01CFD1E
:101EB0005946051C03980CF02EFD011C281C0CF043
:101EC00010FD0CF0ABFD0022224B0BF0E4FC009A5D
:101ED000019B0BF0E0FC060004980F000CF09EFD47
:101EE00002000B00300039000BF0AEFC0BF0D8FD07
:101EF000089B0999E060181C98460CF00CFD079DA2
:101F0000291C0CF008FD011C40460CF0EAFC059F62
:101F10000A992061381C0CF0FEFC291C0CF0FBFC1B
:101F2000011C381C0CF0DDFC069E0B996061301C16
:101F30000CF0F1FC291C0CF0EEFC011C301C0CF028
:101F4000D0FCA06100200DB0F0BCBB46B246A94653
:101F5000A046F0BD0000E03FF0B5DE4657464E46D5
:101F600045468A464168E0B58846C768816891B0B1
:101F7000066889464046391C141C04930CF0CBFCBF
:101F80004946051C301C0CF0C6FC0A90011C281C9C
:101F900009950CF0A6FC0CF041FD02000B000BF0C3
:101FA00053FC06900791201C02940CF037FD0B00A7
:101FB000020004000D00069807990BF06CFC0BF072
:101FC0006FFD5246391C106048460CF0A4FC834655
:101FD0004146301C0CF09FFC5A460E90011C58469E
:101FE0000B920CF081FC0CF019FD02000B000BF0C1
:101FF0002BFC02000B00200029000C920D930BF02B
:102000004AFC0BF04DFD5446311C6060301C0CF056
:1020100082FC4146041C40460CF07DFC051C011C62
:10202000201C0CF05EFC4946089048460CF073FCFE
:10203000391C8346381C0CF06EFC594601900898F8
:102040000CF04FFC01990CF04FFC02990F900CF032
:1020500062FC53464946986040460CF05CFC391CD3
:102060008046301C0CF057FC81461A980CF0D6FCC8
:1020700006001B980F000CF0D1FC02900391291C64
:10208000201C0CF031FC59460CF02BFC01990CF093
:1020900028FC04990CF03FFC0CF0C0FC04000D007F
:1020A000404649460CF020FC0CF0B8FC02000B0046
:1020B0000BF0CAFB32003B000BF0EDFB02000B0003
:1020C000200029000BF0C0FB029A039B04000D00C6
:1020D000069807990BF0DFFB02000B002000290097
:1020E0000BF0B2FB0BF0DCFC5346D86004980CF00C
:1020F00095FC04000D00404649460CF0F2FB0CF044
:102100008DFC02000B000BF09FFB22002B000494BF
:1021100005950BF0C0FB04000D00089859460CF023
:10212000E3FB01990CF0DDFB1A990CF0F4FB0CF0C9
:1021300075FC02000B00200029000BF085FB029AC1
:10214000039B04000D000C980D990BF0A4FB0200FA
:102150000B00200029000BF077FB0BF0A1FC53468D
:102160000A99186109980CF0BFFB0CF057FC0200AB
:102170000B000BF069FB049A059B0BF08CFB040031
:102180000D000B980E990CF0ACFB0CF047FC020014
:102190000B000BF059FB32003B000BF07CFB020004
:1021A0000B00200029000BF04FFB04000D000F98DE
:1021B0001B990CF0B0FB0CF031FC02000B0020006E
:1021C00029000BF041FB0BF06BFC534658610020DB
:1021D00011B0F0BCBB46B246A946A046F0BDC04611
:1021E000F0B50400DE4657464E4645460800E0B5C9
:1021F00045680968AA46856895B0AB46C5684669D2
:10220000876910910E950169556810689268049667
:1022100090461A68069711925A689B681292139317
:10222000FE239B05236099460CF05BFB0CF0F6FB4C
:10223000009001911E980CF0F1FB06000F00009831
:1022400001990022924B0BF026FB32003B000BF071
:1022500022FB0BF025FC04990390E061281C0CF094
:1022600040FB0CF0DBFB0022894B049005910BF046
:1022700012FB32003B000BF00EFB0BF011FC069939
:10228000051CA06340460CF02CFB0CF0C7FB0022A1
:102290007F4B069007910BF0FEFA32003B000BF0EB
:1022A000FAFA0BF0FDFB0A90606550460CF0B6FBA5
:1022B0000022784B089009910BF0EDFA32003B00B8
:1022C0000BF0E9FA0BF0ECFB0B90206758460CF092
:1022D000A5FB00226F4B0C900D910BF0DCFA320045
:1022E0003B000BF0D8FA0BF0DBFB8C238246E0506E
:1022F0000E980CF093FB0022664B0E900F910BF0A2
:10230000CAFA32003B000BF0C6FA0BF0C9FBA82357
:102310008346E0500022009801995E4B0BF0BBFA17
:1023200032003B000BF0B7FA0BF0BAFB49460090C5
:1023300060602162002206980799564B0BF0ABFAB9
:1023400032003B000BF0A7FA0BF0AAFBA565804614
:10235000E06310980CF062FB00224D4B0BF09BFAEF
:1023600032003B000BF097FA0BF09AFB5946902392
:10237000051C60670022E1500C980D99444B0BF04E
:102380008AFA32003B000BF086FA0BF089FBAC2393
:102390000022E050049805993E4B0BF07CFA320085
:1023A0003B000BF078FA0BF07BFB49460A9A834618
:1023B0006262009AA0602164E2650E980F99002283
:1023C000334B0BF068FA32003B000BF064FA0BF071
:1023D00067FB94230B99A067E5501C33E1504146FD
:1023E000E1605946A162494621665146039BE16777
:1023F0006364089809990022254B0BF04CFA3200CF
:102400003B000BF048FA0BF04BFB9823E0501C33D9
:10241000E55000251E9911982561E562A564656661
:102420000CF079FA011C48460CF05BFA8023E0506E
:102430001C33E5501C33E550343B1E9912986561FE
:102440002563E564A566E5500CF065FA011C484675
:102450000CF047FAA023E0501C33E550343BA56153
:1024600065632565E566E5501C33E5501E991398B4
:102470000CF051FA011C48460CF033FAC023E0502E
:10248000002015B0F0BCBB46B246A946A046F0BD40
:102490000000E0BF0000E03FF0B5DE4657464E4684
:1024A0004546E0B59A460B68141C8A689B464B6803
:1024B000C9688BB00500101C8846009301920CF08F
:1024C000ADFA02900391201C0CF0A8FAC02306007C
:1024D0000F000298039900221B060BF0DCF9320072
:1024E0003B000BF0D8F90BF0DBFA0890286040466F
:1024F0000CF094FA02000B000BF0A6F932003B003E
:102500000BF0C9F90BF0CCFA041CA86158460CF08A
:1025100085FAC02300221B06049005910BF0BBF93D
:1025200032003B000BF0B7F90BF0BAFA28630098C1
:102530000CF074FA02000B00069007910BF084F97E
:1025400032003B000BF0A7F90BF0AAFA0021902310
:102550008946A8642966A967E950686004980599C6
:1025600002000B000BF070F932003B000BF093F906
:102570000BF096FA6C630490E861029803990200EC
:102580000B000BF061F932003B000BF084F90BF00B
:1025900087FA49469423E8646966E967E950C023ED
:1025A00006980799049A1B06AA6000220BF073F99B
:1025B00032003B000BF06FF90BF072FA089B4946B2
:1025C000AB63802328622C65A966E9501833E95073
:1025D000404614990CF09FF9019F1599061C381C70
:1025E0000CF099F95146041C58460CF094F9311C32
:1025F0000CF07AF9211C06940CF073F9011C0CF014
:1026000073F951460990E86000980CF084F9149928
:10261000041C381C0CF07FF9011C201C0CF064F920
:102620001599041C40460CF076F9011C201C0CF096
:102630005BF9011C0CF058F914990290686200983B
:102640000CF069F91599089058460CF064F9019A54
:102650008024944624066444071C514620000CF054
:102660005AF908990CF040F9391C0CF03AF9011CA0
:102670000CF03AF91499E86358460CF04CF91599A6
:10268000049000980CF047F9802212064244041C82
:10269000514610000CF03FF904990CF025F9211C6B
:1026A0000CF022F9011C0CF01FF94A468423EA665B
:1026B0006865EA501833EA505146286101980CF0D9
:1026C0002AF908990CF00DF9391C0CF00DF9011CD0
:1026D0000CF00AF9071CA8628020029B00062B64FC
:1026E000514658440CF017F9311C0CF0FAF80699D1
:1026F0000CF0FAF8011C0CF0F7F88823A86548469E
:102700002867E8501833E850514640466F610CF096
:1027100002F904990CF0E5F8211C0CF0E2F8011C18
:102720000CF0E2F8099AE8626A64029B4A46EB659B
:102730004B466B678C230020EA501833EA500BB0ED
:10274000F0BCBB46B246A946A046F0BD0123F0B599
:10275000E3214746CE469C46294B804605009946D4
:10276000284E80B58900076846444144FA0F6F68D7
:10277000D2077B005B08346813435A086240644602
:102780001C4201D04B465A4004C50436A942EDD143
:10279000E32342469B00C626D458194B01259C468C
:1027A000F6004644E20F4C68D20763005B080768F6
:1027B00013435A087A401D4201D063465A40043000
:1027C00004C1B042EED14246C62140460E4BC9007C
:1027D000D3581268DB0F52005208DB0741581343ED
:1027E0005A084A40DB0701D5054B5A404146064B83
:1027F000CA5000220433CA50C0BCB946B046F0BD2E
:10280000DFB0089934060000BC090000F0B5454669
:10281000DE4657464E46E0B53C4CD723A54434AA85
:10282000944663441B091B018A6805930B68019257
:1028300037921A6804902D929A6933912E921A6BEE
:1028400038AC2F929A6C30921A6E06929A6F089258
:1028500090229A5807925A680A92DA690B925A6B38
:102860000C92DA6C0D925A6E0E92DA6F0F929422DD
:102870009A5810929A6811921A6A12929A6B13924D
:102880001A6D14929A6E159280229A581692982276
:102890009A581792DA6818925A6A1992DA6B1A9251
:1028A0005A6D1B92DA6E1C9284229A581D929C22B9
:1028B0009A581E921A691F929A6A20921A6C219253
:1028C0009A6D22921A6F239288229A582492A022FB
:1028D0009A5825925A692692DA6A27925A6C289257
:1028E000DA6D29925A6F2A928C229A582B92A4223E
:1028F0009B582C934B68984638AB3293C42343447F
:1029000009934346A0461C0002E0C0469CFDFFFF21
:10291000E168A26889462169236848460391309995
:10292000029201930BF0F7FF0399824606980BF091
:10293000F2FF011C50460BF0D7FF67698246391C35
:1029400008980BF0E8FFA6698346311C07980BF046
:10295000E2FF011C58460BF0C7FF011C50460BF06C
:10296000C3FF656882462E99281C0BF0D4FF2F996F
:10297000834602980BF0CFFF011C58460BF0B4FFC2
:102980002D99834601980BF0C6FF011C58460BF0A9
:10299000ABFF011C50460BF0A7FF434649461860A9
:1029A0000D980BF0B8FF039982460E980BF0B3FF19
:1029B000011C50460BF098FF391C82460F980BF013
:1029C000AAFF311C834610980BF0A5FF011C584646
:1029D0000BF08AFF011C50460BF086FF291C824633
:1029E0000B980BF098FF029983460C980BF093FF1D
:1029F000011C58460BF078FF019983460A980BF0AA
:102A00008AFF011C58460BF06FFF011C50460BF06B
:102A10006BFF43464946586014980BF07CFF0399BE
:102A2000824615980BF077FF011C50460BF05CFFB7
:102A3000391C824616980BF06EFF311C834617989E
:102A40000BF069FF011C58460BF04EFF011C50466D
:102A50000BF04AFF291C824612980BF05CFF02998A
:102A6000834613980BF057FF011C58460BF03CFFB0
:102A70000199834611980BF04EFF011C58460BF04C
:102A800033FF011C50460BF02FFF43464946986028
:102A90001B980BF040FF039982461C980BF03BFFFC
:102AA000011C50460BF020FF391C82461D980BF08C
:102AB00032FF311C83461E980BF02DFF011C584637
:102AC0000BF012FF011C50460BF00EFF291C824632
:102AD00019980BF020FF029983461A980BF01BFF00
:102AE000011C58460BF000FF0199834618980BF023
:102AF00012FF011C58460BF0F7FE011C50460BF06C
:102B0000F3FE43464946D86022980BF004FF039930
:102B1000824623980BF0FFFE011C50460BF0E4FEAA
:102B2000391C824624980BF0F6FE311C834625980A
:102B30000BF0F1FE011C58460BF0D6FE011C50466E
:102B40000BF0D2FE291C824620980BF0E4FE02997D
:102B5000834621980BF0DFFE011C58460BF0C4FEA3
:102B6000019983461F980BF0D6FE011C58460BF0C6
:102B7000BBFE011C50460BF0B7FE434649461861A8
:102B800029980BF0C8FE039981462A980BF0C3FEE2
:102B9000011C48460BF0A8FE391C81462B980BF00F
:102BA000BAFE311C071C2C980BF0B5FE011C381C1A
:102BB0000BF09AFE011C48460BF096FE291C061CE1
:102BC00027980BF0A8FE0299051C28980BF0A3FE8D
:102BD000011C281C0BF088FE0199051C26980BF09F
:102BE0009AFE011C281C0BF07FFE011C301C0BF010
:102BF0007BFE4346586118239C46099B1C34E044E5
:102C0000A34200D084E6379B1A68629308929A69BF
:102C100009921A6B0A929A6C0B921A6E0C929A6F26
:102C20000D9290229A580E925A680F92DA69109279
:102C30005A6B1192DA6C12925A6E1392DA6F1492E6
:102C400094229A5815929A6816921A6A17929A6B59
:102C500018921A6D19929A6E1A9280229A581B92A3
:102C600098229A581C92DA681D925A6A1E92DA6B60
:102C70001F925A6D2092DA6E219284229A582292E3
:102C80009C229A5823921A6924929A6A25921A6C65
:102C900026929A6D059C27921A6F203428928822DA
:102CA0009A58A1462992A0229A582A925A692B92A0
:102CB000DA6A2C925A6C2D92DA6D2E925A6F2F92FC
:102CC0008C229A583092A4229B5831935CAB069385
:102CD0003EAB0793329B98464346424641464046A8
:102CE0001B6895690193069B146B096E926C40CB2F
:102CF000876F0291101C0B99039206930BF00BFE49
:102D00000C99824602980BF006FE011C50460BF00F
:102D1000EBFD0D998246381C0BF0FDFD0E998346A4
:102D2000301C0BF0F8FD011C58460BF0DDFD011CBA
:102D300050460BF0D9FD09998246281C0BF0EBFD9B
:102D40000A998346201C0BF0E6FD011C58460BF047
:102D5000CBFD0899834601980BF0DDFD011C584618
:102D60000BF0C2FD011C50460BF0BEFD4B46129904
:102D7000186003980BF0CFFD1399824602980BF070
:102D8000CAFD011C50460BF0AFFD14998246381C59
:102D90000BF0C1FD15998346301C0BF0BCFD011CE6
:102DA00058460BF0A1FD011C50460BF09DFD1099FB
:102DB0008246281C0BF0AFFD11998346201C0BF0B6
:102DC000AAFD011C58460BF08FFD0F998346019810
:102DD0000BF0A1FD011C58460BF086FD011C50466E
:102DE0000BF082FD4B461999586003980BF093FD48
:102DF0001A99824602980BF08EFD011C50460BF08A
:102E000073FD1B998246381C0BF085FD1C99834687
:102E1000301C0BF080FD011C58460BF065FD011CB9
:102E200050460BF061FD17998246281C0BF073FD8C
:102E300018998346201C0BF06EFD011C58460BF0C0
:102E400053FD1699834601980BF065FD011C584609
:102E50000BF04AFD011C50460BF046FD4B462099F5
:102E6000986003980BF057FD2199824602980BF069
:102E700052FD011C50460BF037FD22998246381C4A
:102E80000BF049FD23998346301C0BF044FD011CD7
:102E900058460BF029FD011C50460BF025FD1E99EC
:102EA0008246281C0BF037FD1F998346201C0BF02F
:102EB00032FD011C58460BF017FD1D998346019801
:102EC0000BF029FD011C58460BF00EFD011C50466D
:102ED0000BF00AFD4B462799D86003980BF01BFDB9
:102EE0002899824602980BF016FD011C50460BF003
:102EF000FBFC29998246381C0BF00DFD2A9983466C
:102F0000301C0BF008FD011C58460BF0EDFC011CB9
:102F100050460BF0E9FC25998246281C0BF0FBFC7F
:102F200026998346201C0BF0F6FC011C58460BF03A
:102F3000DBFC2499834601980BF0EDFC011C5846FC
:102F40000BF0D2FC011C50460BF0CEFC4B462E99E8
:102F5000186103980BF0DFFC2F99824602980BF062
:102F6000DAFC011C50460BF0BFFC30998246381C3D
:102F70000BF0D1FC3199071C301C0BF0CCFC011C70
:102F8000381C0BF0B1FC011C50460BF0ADFC2C9929
:102F9000061C281C0BF0BFFC2D99051C201C0BF0F7
:102FA000BAFC011C281C0BF09FFC2B99041C0198F7
:102FB0000BF0B1FC011C201C0BF096FC011C301C1A
:102FC0000BF092FC4B46586104239C461433E044BA
:102FD0009C46079BE144434500D07DE6339B059D1D
:102FE000DC68296A20680BF07FFC049EA96B3060C6
:102FF00060680BF079FC7060A068296D0BF074FCC0
:10300000B060E068A96E0BF06FFC8023F06020696F
:10301000E95898460BF068FC98233061E9586069DC
:103020000BF062FC7061A069696A0BF05DFCB06135
:10303000E069E96B0BF058FCF061206A696D0BF0F8
:1030400053FC3062E96E606A0BF04EFC84277062BC
:10305000A06AE9590BF048FC9C23B062E958E06A89
:103060000BF042FCF062206BA96A0BF03DFC306370
:10307000606B296C0BF038FC7063A06BA96D0BF0D2
:1030800033FCB063E06B296F0BF02EFCF0638826F5
:10309000206CA9590BF028FC049B1864A023606CD9
:1030A000E9580BF021FC049BE96A5864A06C0BF012
:1030B0001BFC049B696C9864E06C0BF015FC049B92
:1030C000E96DD864206D0BF00FFC049B696F1865E7
:1030D000606D0BF009FC8C25049A059B5065A06D72
:1030E00059590BF001FCA423049A9065059AE06DF0
:1030F000D1580BF0F9FB049B059AD865116B206E33
:103100000BF0F2FB049B059A1866916C606E0BF055
:10311000EBFB049B059A5866A06E116E0BF0E4FB66
:10312000049B059A9866E06E916F0BF0DDFB049BA3
:10313000059AD8669023206FD1580BF0D5FB049BDD
:10314000059A1867A823606FD1580BF0CDFB049B3C
:10315000059A5867A16F506B0BF0C6FB049B059A4C
:103160009867E16FD06C0BF0BFFB4146049B059A5A
:10317000D8676158506E0BF0B7FB4146049B059A27
:103180005850E159D06F0BF0AFFB049BD8519423FA
:10319000059FA159F8580BF0A7FB049B9851AC234D
:1031A0006159F8580BF0A0FB049B585199239B00E0
:1031B0009D44F0BCBB46B246A946A046F0BDC04601
:1031C000F0B5DE4657464E4645460400E0B5436836
:1031D00087B05800A3684008590049080BF084FBE9
:1031E0002368590049080BF07FFB2369051C580030
:1031F00063694008590049080BF076FBE368590001
:1032000049080BF071FB011C281C0BF06DFBE369F6
:10321000051C5800236A4008590049080BF064FB5C
:10322000A369590049080BF05FFBA36A061C58000C
:10323000E36A4008590049080BF056FB636A5900DD
:1032400049080BF051FB011C301C0BF04DFB636B6C
:10325000071C5800A36B4008590049080BF044FBB9
:10326000236B590049080BF03FFB236C061C5800E8
:10327000636C4008590049080BF036FBE36B5900BA
:1032800049080BF031FB011C301C0BF02DFB061C18
:10329000011C381C0BF076FB002800D13E1C311CB1
:1032A000281C0BF06FFB002800D12E1CE36C58008B
:1032B000236D4008590049080BF016FBA36C590018
:1032C00049080BF011FBA36D051C5800E36D400885
:1032D000590049080BF008FB636D590049080BF0D1
:1032E00003FB011C281C0BF0FFFA636E071C58003F
:1032F000A36E4008590049080BF0F6FA236E5900F6
:1033000049080BF0F1FA236F051C5800636F400861
:10331000590049080BF0E8FAE36E590049080BF030
:10332000E3FA011C281C0BF0DFFAE36F804658001B
:103330008023E1584008490049080BF0D5FAA36FF3
:10334000590049080BF0D0FA8823051CE0580433D3
:10335000E15840004900490840080BF0C5FA8423B1
:10336000E158490049080BF0BFFA011C281C0BF07A
:10337000BBFA051C011C40460BF004FB002800D1E1
:103380004546291C381C0BF0FDFA002800D13D1CD5
:10339000291C301C0BF0F6FA002800D1351CC02384
:1033A0002100E55001AABA3B02A8A8310493029477
:1033B000FDF7F4F90121C422019B98260B405B42E2
:1033C0008B430133A354343A9246002250469C2743
:1033D00022509432A1509346923AA2510132E251C6
:1033E0009D32944660469C3A2250A03291469F3AC4
:1033F00090464A4640462300A05048461832A258FC
:10340000903392009A181568255040461060604627
:10341000B8222058A2588046604692009A18156833
:10342000255040461060B422E059A25884469200CC
:103430009A1810685D46E05160461060B022A258AC
:10344000A75992009A181068A0511760AC225846EC
:10345000A258265892009A18106860511660A82247
:10346000A258554692009B1852461868A2586051BF
:103470001A60C523E15407B0F0BCBB46B246A9466A
:10348000A046F0BDC023002210B5C2500022043374
:10349000C2520B68040003604B6843608B68836012
:1034A000CB68C3600B6903614B6943618B698361BE
:1034B000CB69C3610B6A03624B6A43628B6A8362A6
:1034C000CB6AC3620B6B03634B6B43638B6B83638E
:1034D000CB6BC3630B6C03644B6C43648B6C836476
:1034E000CB6CC3640B6D03654B6D43658B6D83655E
:1034F000CB6DC3650B6E03664B6E43668B6E836646
:10350000CB6EC3660B6F03674B6F43678B6F83672D
:10351000CB6FC3678023CA58C2500433CA58C25005
:103520000433CA58C2500433CA58C250FFF748FE89
:10353000200010BDF0B5DE464E4645465746E0B584
:10354000214C9146A5443AAA94460A0031931F4B58
:103550003B9063441B091B013A919846D3AB13CAB5
:1035600013C313CA13C31268D3A91A60184B194A9C
:103570001B6847A80493184B47AC1B680193174B73
:103580001B6805930093049BFEF786FF47ABD3931C
:103590004B46D49347ABD5933AAA832394468620CF
:1035A0001B0163441B68C0004044A2AAD3A9D69360
:1035B0000990FFF72BF96BAB089343460A934B46F0
:1035C0003094A1461C000BE014F7FFFF47030000F6
:1035D000742003200AE81C416C2003207020032083
:1035E0004B464E461B68B76F0793089B494640CB36
:1035F00048464A460893A823896C006E9569126B69
:1036000005910690E158301C04920BF084F98C234C
:103610008246E158381C0BF07EF9011C50460BF035
:1036200063F9216F824606980BF075F9616D834648
:1036300005980BF070F9011C58460BF055F9011C68
:1036400050460BF051F9A16B824604980BF063F9D8
:10365000E1698346281C0BF05EF9011C58460BF00B
:1036600043F92168834607980BF055F9011C584629
:103670000BF03AF9011C50460BF036F9434618603E
:10368000AC23301CE1580BF046F990238246E158F8
:10369000381C0BF040F9011C50460BF025F9616F06
:1036A000824606980BF037F9A16D834605980BF01A
:1036B00032F9011C58460BF017F9011C50460BF06B
:1036C00013F9E16B824604980BF025F9216A8346D1
:1036D000281C0BF020F9011C58460BF005F9616815
:1036E000834607980BF017F9011C58460BF0FCF8BD
:1036F000011C50460BF0F8F843465860B023301CCC
:10370000E1580BF008F994238246E158381C0BF07D
:1037100002F9011C50460BF0E7F8A16F82460698AB
:103720000BF0F9F8E16D834605980BF0F4F8011CF5
:1037300058460BF0D9F8011C50460BF0D5F8216C17
:10374000824604980BF0E7F8616A8346281C0BF068
:10375000E2F8011C58460BF0C7F8A16883460798A9
:103760000BF0D9F8011C58460BF0BEF8011C50466E
:103770000BF0BAF843469860B423301CE1580BF0C4
:10378000CAF898238246E158381C0BF0C4F8011C93
:1037900050460BF0A9F8E16F824606980BF0BBF893
:1037A000216E834605980BF0B6F8011C58460BF0C5
:1037B0009BF8011C50460BF097F8616C8246049808
:1037C0000BF0A9F8A16A8346281C0BF0A4F8011C91
:1037D00058460BF089F8E168834607980BF09BF890
:1037E000011C58460BF080F8011C50460BF07CF889
:1037F0004346D860B823301CE1580BF08CF89C236A
:103800008246E158381C0BF086F8011C50460BF03C
:103810006BF880238246E15806980BF07CF8616EC5
:10382000834605980BF077F8011C58460BF05CF8BE
:10383000011C50460BF058F8A16C824604980BF01E
:103840006AF8E16A8346281C0BF065F8011C5846AB
:103850000BF04AF82169834607980BF05CF8011CCD
:1038600058460BF041F8011C50460BF03DF843461A
:103870001861BC23301CE1580BF04DF8A0238246A0
:10388000E158381C0BF047F8011C50460BF02CF89F
:1038900084238246E15806980BF03DF8A16E8346DA
:1038A00005980BF038F8011C58460BF01DF8011C68
:1038B00050460BF019F8E16C824604980BF02BF897
:1038C000216B8346281C0BF026F8011C58460BF090
:1038D0000BF86169834607980BF01DF8011C5846E8
:1038E0000BF002F8011C50460AF0FEFF4346E16E61
:1038F000586105980BF00FF888238246E158069826
:103900000BF009F8011C50460AF0EEFFA423824692
:10391000E158381C0AF0FFFFC023071CE158301C97
:103920000AF0F9FF011C381C0AF0DEFF011C5046AA
:103930000AF0DAFF616B061C281C0AF0ECFF216D0F
:10394000051C04980AF0E7FF011C281C0AF0CCFFB4
:10395000A169051C07980AF0DEFF011C281C0AF06B
:10396000C3FF011C301C0AF0BFFF434698610423CB
:103970009C461833E1449C464DABE044994500D049
:103980002EE60A9BA146D8249846A427A4004444C6
:10399000BF00474420000999FFF774FD21009022E1
:1039A0003800C8240BF03EF9FC21A40044448900EF
:1039B0004144182220000BF035F9CE2081218000EF
:1039C000C9004144182240440BF02CF98422D4232E
:1039D000D200424412689B0043441A60D523874AB0
:1039E0004546424412889B004344FE211A8000232E
:1039F0002268B0359200AA1889051160936113639B
:103A0000936413669367C922920042441268444645
:103A10009200AA181360916113639364136693670D
:103A2000CA2292004244126806269200AA18136025
:103A300093611163936413669367CB2292004244AF
:103A4000126806209200AA181360936113639164B0
:103A500013669367CC229200424412689200AA181F
:103A6000136093611363936411669367CD22920090
:103A7000424412689200AA1813609361136393641E
:103A80001366A8235B009B46916742465946E4189B
:103A900020334344A660E6602661535080229200A2
:103AA00042444B396260924604933A0006230294E2
:103AB000FF3901960095FDF7DFFA42465946049B0F
:103AC000A660E6602661535053464B3963603A0066
:103AD00006230294062001960095FF39FDF7D0FDDC
:103AE00043461B688C2206934346DB69D3AC07939D
:103AF00043469B6B089343465B6D099343461B6F9C
:103B00000A9343469B5804320B9343465B680C93DD
:103B100043461B6A0D934346DB6B0E9343469B6DF6
:103B20000F9343465B6F109343469B5804321193A7
:103B300043469B68129343465B6A139343461B6C50
:103B400014934346DB6D159343469B6F1693434690
:103B50009B58043217934346DB68189343469B6A8D
:103B6000199343465B6C1A9343461B6E1B93434663
:103B7000DB6F1C9343469B58183A1D9343461B69C1
:103B80001E934346DB6A1F9343469B6C2093434638
:103B90005B6E219343469B581C32229343469B58AD
:103BA000183A239343465B69249343461B6B259342
:103BB0004346DB6C269343469B6E279343469B58B4
:103BC0001C32289343469B58183A299343469B69D5
:103BD0002A9343465B6B2B9343461B6D2C934346C2
:103BE000DB6E2D9343469B581C322E9343469B58C5
:103BF000A8462F934B46329302E0C04624040000AF
:103C000043461F685B6842469946434641469B6867
:103C1000D2680E694D6907984946049305920AF0E7
:103C20007AFE0499824608980AF075FE011C5046F7
:103C30000AF05AFE391C824606980AF06CFE011CF6
:103C400050460AF051FE311C82460A980AF063FE83
:103C5000291C83460B980AF05EFE011C58460AF0A8
:103C600043FE0599834609980AF055FE011C584603
:103C70000AF03AFE011C50460AF036FE4946206022
:103C80000D980AF048FE049982460E980AF043FE09
:103C9000011C50460AF028FE391C82460C980AF096
:103CA0003AFE011C50460AF01FFE311C8246109855
:103CB0000AF031FE291C834611980AF02CFE011CE3
:103CC00058460AF011FE059983460F980AF023FE24
:103CD000011C58460AF008FE011C50460AF004FE7A
:103CE0004946606013980AF016FE049982461498BB
:103CF0000AF011FE011C50460AF0F6FD391C8246FE
:103D000012980AF008FE011C50460AF0EDFD311C25
:103D1000824616980AF0FFFD291C834617980AF080
:103D2000FAFD011C58460AF0DFFD059983461598F7
:103D30000AF0F1FD011C58460AF0D6FD011C504660
:103D40000AF0D2FD4946A06019980AF0E4FD0499F2
:103D500082461A980AF0DFFD011C50460AF0C4FDA5
:103D6000391C824618980AF0D6FD011C50460AF00C
:103D7000BBFD311C82461C980AF0CDFD291C8346F0
:103D80001D980AF0C8FD011C58460AF0ADFD0599C2
:103D900083461B980AF0BFFD011C58460AF0A4FD9B
:103DA000011C50460AF0A0FD4946E0601F980AF049
:103DB000B2FD0499824620980AF0ADFD011C5046E0
:103DC0000AF092FD391C82461E980AF0A4FD011CDF
:103DD00050460AF089FD311C824622980AF09BFD6C
:103DE000291C834623980AF096FD011C58460AF0C8
:103DF0007BFD0599834621980AF08DFD011C5846EC
:103E00000AF072FD011C50460AF06EFD4946206121
:103E100025980AF080FD0499824626980AF07BFDD9
:103E2000011C50460AF060FD391C824624980AF0B5
:103E300072FD011C50460AF057FD311C824628983D
:103E40000AF069FD291C834629980AF064FD011CCB
:103E500058460AF049FD0599834627980AF05BFD0C
:103E6000011C58460AF040FD011C50460AF03CFD7A
:103E7000494660612B980AF04EFD049981462C98C2
:103E80000AF049FD011C48460AF02EFD391C814606
:103E90002A980AF040FD011C48460AF025FD311C15
:103EA000071C2E980AF037FD291C061C2F980AF0D3
:103EB00032FD011C301C0AF017FD0599051C2D98D8
:103EC0000AF029FD011C281C0AF00EFD011C381CFB
:103ED0000AF00AFD18239C46A061FDAB1C34E044A7
:103EE000A34200D08CE6329BD49A9946D39BD599B5
:103EF000D69CD79DD89ED99F06930792DA9BDB9AD2
:103F000008910994DC99DD9C0A950B96DE9DDF9E55
:103F10000C970D93E09FE19B0E92E29A0F91109403
:103F200011951296139714931592E399E49CE59DCD
:103F3000E69EE79FE89BE99A16911794EA99EB9C15
:103F400018951996EC9DED9E1A971B93EE9FEF9B8B
:103F50001C921D91F09AF1991E94F29C2096219743
:103F600022932392249125941F95F39DF49EF59F0F
:103F7000F79AF69BF899F99C26952796FA9DFB9E51
:103F80002897FC9F2A923A9A29932B912C942D954D
:103F90002E962F97D3AB32CA32C332CA32C31168BE
:103FA000D3AC1960FD49FE4B09681B680191FD49BE
:103FB000FD4A09682000009141A9FDF7CDFF319F1E
:103FC000419938680AF08DFC4299834678680AF076
:103FD00088FC43998246B8680AF083FC4499041C23
:103FE000F8680AF07EFC4599051C38690AF079FCEE
:103FF0004699061C78690AF074FC071C011C2A9873
:104000000AF089FC311C804623980AF084FC011CCC
:1040100040460AF069FC291C80461C980AF07BFC8B
:10402000011C40460AF060FC211C804615980AF0ED
:1040300072FC514604900E980AF06DFC011C049825
:104040000AF052FC5946049007980AF064FC011CDF
:1040500004980AF049FC011C40460AF045FC3A9AD3
:1040600051680AF041FC391C04902B980AF053FC6B
:10407000311C804624980AF04EFC011C40460AF090
:1040800033FC291C80461D980AF045FC011C404663
:104090000AF02AFC211C804616980AF03CFC514686
:1040A00005900F980AF037FC011C05980AF01CFCDB
:1040B0005946059008980AF02EFC011C05980AF054
:1040C00013FC011C40460AF00FFC3A9A91680AF072
:1040D0000BFC391C05902C980AF01DFC311C804605
:1040E00025980AF018FC011C40460AF0FDFB291C2B
:1040F00080461E980AF00FFC011C40460AF0F4FBB3
:10410000211C804617980AF006FC51463190109801
:104110000AF001FC011C31980AF0E6FB5946319087
:1041200009980AF0F8FB011C31980AF0DDFB011C2C
:1041300040460AF0D9FB3A9AD1680AF0D5FB391CFF
:1041400031902D980AF0E7FB311C804626980AF042
:10415000E2FB011C40460AF0C7FB291C80461F9861
:104160000AF0D9FB011C40460AF0BEFB211C804628
:1041700018980AF0D0FB5146329011980AF0CBFB08
:10418000011C32980AF0B0FB594632900A980AF0A6
:10419000C2FB011C32980AF0A7FB011C40460AF042
:1041A000A3FB3A9A11690AF09FFB391C32902E98B2
:1041B0000AF0B1FB311C804627980AF0ACFB011CC9
:1041C00040460AF091FB291C804620980AF0A3FB88
:1041D000011C40460AF088FB211C804619980AF011
:1041E0009AFB5146339012980AF095FB011C3398C4
:1041F0000AF07AFB594633900B980AF08CFB011CAD
:1042000033980AF071FB011C40460AF06DFB3A9AA4
:1042100051690AF069FB5146339013980AF07BFB11
:10422000211C80461A980AF076FB011C40460AF0D1
:104230005BFB594680460C980AF06DFB011C40461A
:104240000AF052FB311C804628980AF064FB391CA6
:1042500034902F980AF05FFB011C34980AF044FB5D
:10426000291C349021980AF056FB011C34980AF05E
:104270003BFB011C40460AF037FB3A9A91690AF071
:1042800033FB391C804629980AF045FB311C071C7A
:1042900022980AF040FB011C381C0AF025FB291C5F
:1042A000061C1B980AF037FB011C301C0AF01CFB93
:1042B000211C051C14980AF02EFB5146041C0D9875
:1042C0000AF029FB011C201C0AF00EFB5946041CB5
:1042D00006980AF020FB011C201C0AF005FB011CBB
:1042E000281C0AF001FB3A9AD3AC11680AF0FCFAD8
:1042F0003B9B049A18605A60059A9A60319ADA607A
:10430000329A1A61339A5A6142469A614B461B6847
:104310004A46A2934B465B68A3934B469B68A49383
:104320004B46DB68A5934B461B69A6934B465B69DE
:10433000A7934B469B69A8934B46DB69A9934B46D1
:104340001B6AAA934B465B6AAB934B469B6AAC9342
:104350004B46DB6AAD934B461B6BAE934B465B6B98
:10436000AF934B469B6BB0934B46DB6BB1934B4685
:104370001B6CB2934B465B6CB3934B469B6CB493F4
:104380004B46DB6CB5934B461B6DB6934B465B6D52
:10439000B7934B469B6DB8934B4607E06C200320C8
:1043A00074200320702003200AE81C41DB6DB993C0
:1043B0004B461B6EBA934B465B6EBB934B469B6E54
:1043C000BC934B46DB6EBD934B461B6FBE934B4677
:1043D0005B6FBF934B469B6FC0934B46DB6FC193A4
:1043E0008023D358C2938423D358C3938823D358AC
:1043F000C4938C23D358C5939023D358C693942346
:10440000D358C7939823D358C8939C23D358C993A0
:10441000A023D358CA93A423D358CB93A823D3580B
:10442000CC93AC23D358CD93B023D358CE93B4239D
:10443000D358CF93B823D358D093BC23D358D19318
:10444000C023D358D293309B3092984643461F687E
:104450005B6842469946434641469B68D2680E696E
:104460004D690D984946049305920AF054FA04994F
:10447000824614980AF04FFA011C50460AF034FAAA
:10448000391C824606980AF046FA011C50460AF08A
:104490002BFA311C824622980AF03DFA291C8346E9
:1044A00029980AF038FA011C58460AF01DFA0599B5
:1044B00083461B980AF02FFA011C58460AF014FA9A
:1044C000011C50460AF010FA494620600E980AF086
:1044D00022FA0499824615980AF01DFA011C5046EA
:1044E0000AF002FA391C824607980AF014FA011CF5
:1044F00050460AF0F9F9311C824623980AF00BFA6B
:10450000291C83462A980AF006FA011C58460AF02C
:10451000EBF9059983461C980AF0FDF9011C5846F1
:104520000AF0E2F9011C50460AF0DEF949466060E3
:104530000F980AF0F0F90499824616980AF0EBF900
:10454000011C50460AF0D0F9391C824608980AF03E
:10455000E2F9011C50460AF0C7F9311C8246249842
:104560000AF0D9F9291C83462B980AF0D4F9011CCA
:1045700058460AF0B9F9059983461D980AF0CBF917
:10458000011C58460AF0B0F9011C50460AF0ACF97B
:104590004946A06010980AF0BEF90499824617981F
:1045A0000AF0B9F9011C50460AF09EF9391C8246FE
:1045B00009980AF0B0F9011C50460AF095F9311C2F
:1045C000824625980AF0A7F9291C83462C980AF000
:1045D000A2F9011C58460AF087F9059983461E98EE
:1045E0000AF099F9011C58460AF07EF9011C504660
:1045F0000AF07AF94946E06011980AF08CF90499BA
:10460000824618980AF087F9011C50460AF06CF9A6
:10461000391C82460A980AF07EF9011C50460AF0BD
:1046200063F9311C824626980AF075F9291C8346E5
:104630002D980AF070F9011C58460AF055F90599B1
:1046400083461F980AF067F9011C58460AF04CF996
:10465000011C50460AF048F94946206112980AF0B8
:104660005AF90499824619980AF055F9011C5046E6
:104670000AF03AF9391C82460B980AF04CF9011CF1
:1046800050460AF031F9311C824627980AF043F966
:10469000291C83462E980AF03EF9011C58460AF060
:1046A00023F90599834620980AF035F9011C5846EC
:1046B0000AF01AF9011C50460AF016F949466061E1
:1046C00013980AF028F9049981461A980AF023F9F8
:1046D000011C48460AF008F9391C81460C980AF07A
:1046E0001AF9011C48460AF0FFF8311C071C2898EB
:1046F0000AF011F9291C061C2F980AF00CF9011C6C
:10470000301C0AF0F1F80599051C21980AF003F90C
:10471000011C281C0AF0E8F8011C381C0AF0E4F817
:1047200018239C46FFABA06114331C34E044A34221
:1047300000D08BE6309BA2AD99463C93C4234C46F7
:10474000C8464B44089307944246D26843464146C4
:10475000914642469E694C68096892685F691B6988
:104760000491301CFD99069305920AF0D4F8F6994D
:104770008246381C0AF0CFF8011C50460AF0B4F803
:10478000EF99824606980AF0C6F8E89983464846AB
:104790000AF0C1F8011C58460AF0A6F8011C504660
:1047A0000AF0A2F8E199824605980AF0B4F8DA997D
:1047B0008346201C0AF0AFF8011C58460AF094F812
:1047C000D399834604980AF0A6F8011C58460AF0CB
:1047D0008BF8011C50460AF087F8011C28680AF083
:1047E00080F82860FE99301C0AF095F8F799824607
:1047F000381C0AF090F8011C50460AF075F8F09940
:10480000824606980AF087F8E999834648460AF0F6
:1048100082F8011C58460AF067F8011C50460AF05D
:1048200063F8E299824605980AF075F8DB998346A9
:10483000201C0AF070F8011C58460AF055F8D4996B
:10484000834604980AF067F8011C58460AF04CF8B1
:10485000011C50460AF048F8011C68680AF041F84B
:10486000FF996860301C0AF056F8F8998246381CA7
:104870000AF051F8011C50460AF036F8F1998246C8
:1048800006980AF048F8EA99834648460AF043F841
:10489000011C58460AF028F8011C50460AF024F87A
:1048A000E399824605980AF036F8DC998346201C85
:1048B0000AF031F8011C58460AF016F8D5998346DB
:1048C00004980AF028F8011C58460AF00DF8011C5B
:1048D00050460AF009F8011CA8680AF002F8FFAB7C
:1048E0005968A860301C04330AF015F8F99982461B
:1048F000381C0AF010F8011C504609F0F5FFF29937
:10490000824606980AF007F8EB99834648460AF073
:1049100002F8011C584609F0E7FF011C504609F057
:10492000E3FFE4998246059809F0F5FFDD99834697
:10493000201C09F0F0FF011C584609F0D5FFD6995C
:104940008346049809F0E7FF011C584609F0CCFFA4
:10495000011C504609F0C8FF011CE86809F0C1FFBE
:10496000FFAB9968E860301C083309F0D4FFFA996E
:104970008246381C09F0CFFF011C504609F0B4FFF5
:10498000F3998246069809F0C6FFEC99834648469B
:1049900009F0C1FF011C584609F0A6FF011C504652
:1049A00009F0A2FFE5998246059809F0B4FFDE9967
:1049B0008346201C09F0AFFF011C584609F094FF04
:1049C000D7998346049809F0A6FF011C584609F0C0
:1049D0008BFF011C504609F087FF011C286909F074
:1049E00080FFFFABD9682861301C0C3309F093FFBE
:1049F000FB998246381C09F08EFF011C504609F0D5
:104A000073FFF4998246069809F085FFED99834675
:104A1000484609F080FF011C584609F065FF011C5B
:104A2000504609F061FFE6998246059809F073FF48
:104A3000DF998346201C09F06EFF011C584609F0DF
:104A400053FFD8998346049809F065FF011C584626
:104A500009F04AFF011C504609F046FF011C686935
:104A600009F03FFFEE996861484609F054FFF59957
:104A70008146069809F04FFF011C484609F034FFB3
:104A8000FC998146381C09F046FFFFAB1969071CE9
:104A9000301C103309F03FFF011C381C09F024FFC3
:104AA000011C484609F020FFE099061C201C09F073
:104AB00032FFE799041C059809F02DFF011C201C0A
:104AC00009F012FFD999041C049809F024FF011C75
:104AD000201C09F009FF011C301C09F005FF011C16
:104AE000A86909F0FEFE1C239C46089BE044A861CF
:104AF0001C35984500D027E6079BA29A99461A6074
:104B0000A39A5A60A49A9A60A59ADA60A69A1A6142
:104B1000A79A5A61A89A9A61A99ADA61AA9A1A621E
:104B2000AB9A5A62AC9A9A62AD9ADA62AE9A1A63FA
:104B3000AF9A5A63B09A9A63B19ADA63B29A1A64D6
:104B4000B39A5A64B49A9A64B59ADA64B69A1A65B2
:104B5000B79A5A65B89A9A65B99ADA65BA9A1A668E
:104B6000BB9A5A66BC9A9A66BD9ADA66BE9A1A676A
:104B7000BF9A5A67C09A9A67C19ADA674A468023F1
:104B8000C299D150C3990433D150C4990433D15040
:104B9000C5990433D150C6990433D150C799043311
:104BA000D150C8990433D150C9990433D150CA990E
:104BB0000433D150CB990433D150CC990433D15024
:104BC000CD990433D150CE990433D150CF990433C9
:104BD000D150D0990433D150D1990433D150D299C6
:104BE0000433D1503AAA9446504BA2AA63441B689E
:104BF00013CB13C24E4BD3AC63441B6807CB07C423
:104C00003A9B3B9D00934B4B28006344A2A91B6831
:104C1000D3AAFDF77FF82B00D3AA23CB23C213CB53
:104C200013C23AA91B688C4613603EAA11003F4B81
:104C300063441B6831CB31C13D4BA2A963441B685F
:104C400031CB31C13B4BD3A963441B6871A800939E
:104C5000A2ABFDF7C5FAD3AB1C000793719BA0462E
:104C60000993789B10937F9B1793869B1E938D9B34
:104C70002593949B2C939B9B3393729B0A93799BD4
:104C80001193809B1893879B1F938E9B2693959BD4
:104C90002D939C9B3493739B0B937A9B1293819BD4
:104CA0001993889B20938F9B2793969B2E939D9B74
:104CB0003593749B0C937B9B1393829B1A93899BD4
:104CC0002193909B2893979B2F939E9B3693759B44
:104CD0000D937C9B1493839B1B938A9B2293919BA4
:104CE0002993989B30939F9B3793769B0E937D9B44
:104CF0001593849B1C938B9B2393929B2A93999B44
:104D00003193A09B3893779B0F937E9B1693859B43
:104D10001D938C9B2493939B2B939A9B3293A19BE3
:104D200039934B463D933C9B994605E0280800008B
:104D3000380800003C080000484649464A464B46B1
:104D4000866909691B6855689468D2684769069145
:104D50003398311C0592049309F0DDFD391C82461D
:104D60002C9809F0D8FD011C504609F0BDFD0699AC
:104D70008246259809F0CFFD059983461E9809F0D3
:104D8000CAFD011C584609F0AFFD011C504609F050
:104D9000ABFD211C8246179809F0BDFD291C8346F6
:104DA000109809F0B8FD011C584609F09DFD0499C2
:104DB0008346099809F0AFFD011C584609F094FD9F
:104DC000011C504609F090FD4346311C1860349890
:104DD00009F0A1FD391C82462D9809F09CFD011CAB
:104DE000504609F081FD06998246269809F093FD08
:104DF000059983461F9809F08EFD011C584609F05D
:104E000073FD011C504609F06FFD211C8246189865
:104E100009F081FD291C8346119809F07CFD011CD5
:104E2000584609F061FD049983460A9809F073FD1C
:104E3000011C584609F058FD011C504609F054FD6C
:104E40004346311C5860359809F065FD391C82468F
:104E50002E9809F060FD011C504609F045FD0699A9
:104E60008246279809F057FD05998346209809F056
:104E700052FD011C584609F037FD011C504609F04F
:104E800033FD211C8246199809F045FD291C8346F3
:104E9000129809F040FD011C584609F025FD0499BF
:104EA00083460B9809F037FD011C584609F01CFD9C
:104EB000011C504609F018FD4346311C9860369895
:104EC00009F029FD391C82462F9809F024FD011CA8
:104ED000504609F009FD06998246289809F01BFD05
:104EE00005998346219809F016FD011C584609F0E2
:104EF000FBFC011C504609F0F7FC211C82461A9865
:104F000009F009FD291C8346139809F004FD011CD2
:104F1000584609F0E9FC049983460C9809F0FBFC1B
:104F2000011C584609F0E0FC011C504609F0DCFC6D
:104F30004346311CD860379809F0EDFC391C824695
:104F4000309809F0E8FC011C504609F0CDFC0699A8
:104F50008246299809F0DFFC05998346229809F0DA
:104F6000DAFC011C584609F0BFFC011C504609F050
:104F7000BBFC211C82461B9809F0CDFC291C8346F2
:104F8000149809F0C8FC011C584609F0ADFC0499BE
:104F900083460D9809F0BFFC011C584609F0A4FC9B
:104FA000011C504609F0A0FC4346311C186138989A
:104FB00009F0B1FC391C8246319809F0ACFC011CA7
:104FC000504609F091FC069982462A9809F0A3FC04
:104FD00005998346239809F09EFC011C584609F068
:104FE00083FC011C504609F07FFC211C82461C9862
:104FF00009F091FC291C8346159809F08CFC011CD2
:10500000584609F071FC049983460E9809F083FC18
:10501000011C584609F068FC011C504609F064FC6C
:10502000434605995861249809F075FC0699824613
:105030002B9809F070FC011C504609F055FC391CF6
:105040008246329809F067FC311C071C399809F038
:1050500062FC011C381C09F047FC011C504609F099
:1050600043FC291C061C169809F055FC211C051C44
:105070001D9809F050FC011C281C09F035FC04990E
:10508000041C0F9809F047FC011C201C09F02CFCA3
:10509000011C301C09F028FC434698611C239C46E7
:1050A000089BE144E044994500D045E6A2ACA04607
:1050B000F6AB0693DAAB3C940893079B33981A68D7
:1050C000596D0492069A8946D669196FDD69059172
:1050D000311C9C6B176809F01EFC391C82462C9809
:1050E00009F019FC011C504609F0FEFB05998246A7
:1050F000259809F010FC494683461E9809F00BFCE0
:10510000011C584609F0F0FB011C504609F0ECFB6D
:10511000211C8246179809F0FEFB291C8346109833
:1051200009F0F9FB011C584609F0DEFB049983469F
:10513000099809F0F0FB011C584609F0D5FB011C49
:10514000504609F0D1FB41460860311C349809F003
:10515000E2FB391C82462D9809F0DDFB011C50460C
:1051600009F0C2FB05998246269809F0D4FB49460E
:1051700083461F9809F0CFFB011C584609F0B4FB89
:10518000011C504609F0B0FB211C8246189809F01A
:10519000C2FB291C8346119809F0BDFB011C58462F
:1051A00009F0A2FB049983460A9809F0B4FB011C9C
:1051B000584609F099FB011C504609F095FB414601
:1051C0004860311C359809F0A6FB391C82462E98A0
:1051D00009F0A1FB011C504609F086FB05998246A7
:1051E000279809F098FB49468346209809F093FBDD
:1051F000011C584609F078FB011C504609F074FB6D
:10520000211C8246199809F086FB291C83461298B6
:1052100009F081FB011C584609F066FB049983469E
:105220000B9809F078FB011C584609F05DFB011C46
:10523000504609F059FB41468860311C369809F008
:105240006AFB391C82462F9809F065FB011C504609
:1052500009F04AFB05998246289809F05CFB49460B
:105260008346219809F057FB011C584609F03CFB86
:10527000011C504609F038FB211C82461A9809F09F
:105280004AFB291C8346139809F045FB011C58462C
:1052900009F02AFB049983460C9809F03CFB011C99
:1052A000584609F021FB011C504609F01DFB414600
:1052B000C860311C379809F02EFB391C82463098A3
:1052C00009F029FB011C504609F00EFB05998246A6
:1052D000299809F020FB49468346229809F01BFBD8
:1052E000011C584609F000FB011C504609F0FCFA6D
:1052F000211C82461B9809F00EFB291C834614983A
:1053000009F009FB011C584609F0EEFA049983469E
:105310000D9809F000FB011C584609F0E5FA011C44
:10532000504609F0E1FA41460861311C389809F00D
:10533000F2FA391C8246319809F0EDFA011C504608
:1053400009F0D2FA059982462A9809F0E4FA49460A
:105350008346239809F0DFFA011C584609F0C4FA85
:10536000011C504609F0C0FA211C82461C9809F025
:10537000D2FA291C8346159809F0CDFA011C58462B
:1053800009F0B2FA049983460E9809F0C4FA011C98
:10539000584609F0A9FA011C504609F0A5FA4346FF
:1053A00049465861249809F0B6FA059981462B9828
:1053B00009F0B1FA011C484609F096FA391C8146F9
:1053C000329809F0A8FA311C071C399809F0A3FAA1
:1053D000011C381C09F088FA011C484609F084FABF
:1053E000291C061C169809F096FA211C051C1D980C
:1053F00009F091FA011C281C09F076FA0499041CA2
:105400000F9809F088FA011C201C09F06DFA011CA4
:10541000301C09F069FA414688611C218C46069AC5
:10542000079B04320692089A04330793E0449A4299
:1054300000D042E63AAA94463D9B764A9946754B7F
:10544000624463441B6812681B68D3AC0793714BBA
:1054500063441B68DB6908936E4B63441B689B6B5A
:1054600009936C4B63441B685B6D0A93694B6344FF
:105470001B681B6F0B938C23D358664A0C93654BA8
:10548000624463441B685B680D93624B63441B6812
:105490001B6A0E935F4B63441B68DB6B0F935D4B82
:1054A00063441B689B6D10935A4B63441B685B6F8E
:1054B000126811939023D358564A1293554B624465
:1054C00063441B6812689B681393524B63441B68C8
:1054D0005B6A14934F4B63441B681B6C15934D4BD5
:1054E00063441B68DB6D16934A4B63441B689B6FD8
:1054F00017939423D358474A1893464B6244634406
:105500001B68DB681993434B63441B689B6A1A93BF
:10551000404B63441B685B6C1B933E4B63441B68AE
:1055200012681B6E1C933B4B63441B68DB6F1D931F
:105530009823D358374A1E93364B624463441B6802
:1055400012681B691F93334B63441B68DB6A20930B
:10555000304B63441B689B6C21932E4B63441B6848
:105560005B6E22938023D3582A4A23939C23624460
:105570001268D358274A2493264B624463441B681D
:105580005B692593234B63441B681B6B2693214B5C
:10559000126863441B68DB6C27931E4B63441B68D3
:1055A0009B6E28938423D3581A4A2993A0236244DC
:1055B0001268D358174A2A93164B624463441B68F7
:1055C00012689B692B93134B63441B685B6B2C9392
:1055D000104B63441B681B6D2D930E4B63441B687B
:1055E000DB6E2E938823D3580A4A2F93A423624458
:1055F0001268D35822003093074B63441B689846C7
:10560000D3AB06939023434431934B464446904694
:10561000329303E0340800002C0800006368E2685D
:105620009946A368089948460493059209F073F9CE
:1056300009998246049809F06EF9011C504609F058
:1056400053F9276882460799381C09F064F9011C50
:10565000504609F049F9266982460B99301C09F039
:105660005AF9656983460C99281C09F054F9011C04
:10567000584609F039F90A998346059809F04BF91B
:10568000011C584609F030F9011C504609F02CF96C
:10569000414608600E99484609F03DF90F99824647
:1056A000049809F038F9011C504609F01DF90D99CC
:1056B0008246381C09F02FF9011C504609F014F9F4
:1056C00011998246301C09F026F912998346281C4C
:1056D00009F021F9011C584609F006F91099834692
:1056E000059809F018F9011C584609F0FDF8011C4D
:1056F000504609F0F9F8414648601499484609F0C7
:105700000AF915998246049809F005F9011C5046DA
:1057100009F0EAF813998246381C09F0FCF8011CDC
:10572000504609F0E1F817998246301C09F0F3F869
:1057300018998346281C09F0EEF8011C584609F018
:10574000D3F816998346059809F0E5F8011C5846E8
:1057500009F0CAF8011C504609F0C6F841468860B5
:105760001A99484609F0D7F81B998246049809F01F
:10577000D2F8011C504609F0B7F819998246381C36
:1057800009F0C9F8011C504609F0AEF81D9982468F
:10579000301C09F0C0F81E998346281C09F0BBF89C
:1057A000011C584609F0A0F81C998346059809F099
:1057B000B2F8011C584609F097F8011C504609F050
:1057C00093F84146C8602099484609F0A4F8219909
:1057D0008246049809F09FF8011C504609F084F8AD
:1057E0001F998246381C09F096F8011C504609F0B2
:1057F0007BF823998246301C09F08DF82499834662
:10580000281C09F088F8011C584609F06DF8229907
:105810008346059809F07FF8011C584609F064F8A2
:10582000011C504609F060F8414608612699484637
:1058300009F071F827998246049809F06CF8011C68
:10584000504609F051F825998246381C09F063F852
:10585000011C504609F048F829998246301C09F08D
:105860005AF82A998346281C09F055F8011C584615
:1058700009F03AF828998346059809F04CF8011C7C
:10588000584609F031F8011C504609F02DF84346FE
:105890002C995861484609F03EF82D9981460498A4
:1058A00009F039F8011C484609F01EF82B99814689
:1058B000381C09F030F8011C484609F015F82F99FA
:1058C000071C301C09F027F83099061C281C09F029
:1058D00022F8011C301C09F007F82E99051C0598C8
:1058E00009F019F8011C281C08F0FEFF011C381CE7
:1058F00008F0FAFF434698611C239C46319B1834FC
:10590000E044A34200D089E6F6AB05933C9CDAABB9
:105910003193069B0899DA691F6891469A6B48464D
:1059200090465A6D1E6F0492059A20CA059208F09F
:10593000F2FF09998246404608F0EDFF011C5046EF
:1059400008F0D2FF07998246381C08F0E4FF011CDA
:10595000504608F0C9FF0B998246301C08F0DBFF67
:105960000C998346281C08F0D6FF011C584608F005
:10597000BBFF0A998346049808F0CDFF011C5846E6
:1059800008F0B2FF011C504608F0AEFF011C206871
:1059900008F0AAFF0E992060484608F0BCFF0F9956
:1059A0008246404608F0B7FF011C504608F09CFFB5
:1059B0000D998246381C08F0AEFF011C504608F0D5
:1059C00093FF11998246301C08F0A5FF1299834677
:1059D000281C08F0A0FF011C584608F085FF10990C
:1059E0008346049808F097FF011C584608F07CFF96
:1059F000011C504608F078FF011C606808F074FF35
:105A000018996060281C08F086FF17998246301CA0
:105A100008F081FF011C504608F066FF1699824687
:105A2000049808F078FF011C504608F05DFF1499B7
:105A30008246484608F06FFF15998346404608F0B5
:105A40006AFF011C584608F04FFF13998346381C23
:105A500008F061FF011C584608F046FF011C504643
:105A600008F042FF011CA06808F03EFF1E99A060EC
:105A7000281C08F050FF1D998246301C08F04BFF8F
:105A8000011C504608F030FF1C998246049808F02B
:105A900042FF011C504608F027FF1B9982464046F2
:105AA00008F039FF1A998346484608F034FF011C74
:105AB000584608F019FF19998346381C08F02BFF47
:105AC000011C584608F010FF011C504608F00CFF5E
:105AD000011CE06808F008FF2099E060484608F0E3
