:020000041000EA
:1000000000B5324B212058609868022188439860DF
:10001000D860186158612E4B002199600221596106
:100020000121F02299502B49196001219960352056
:1000300000F044F80222904214D00621196600F024
:1000400034F8196E01211966002018661A6600F04E
:100050002CF8196E196E196E052000F02FF8012189
:100060000842F9D1002199601B49196000215960AB
:100070001A491B48016001219960EB211966A021F2
:10008000196600F012F800219960164914480160C1
:100090000121996001BC002800D000471248134993
:1000A000086003C880F30888084703B5996A0420EC
:1000B0000142FBD001200142F8D103BD02B5186610
:1000C0001866FFF7F2FF186E186E02BD00000240BE
:1000D000000000180000070000035F00212200005C
:1000E000F4000018222000A00001001008ED00E03C
:1000F00000000000000000000000000074B24E7A12
:1001000000200420F7010010C3010010C5010010F9
:10011000C1010010C1010010C1010010C101001097
:10012000C1010010C1010010C1010010C701001081
:10013000C1010010C1010010C9010010CB01001065
:10014000CD010010CD010010CD010010CD01001037
:10015000CD010010CD010010CD010010CD01001027
:10016000CD010010CD010010CD010010CD01001017
:10017000CD010010CD010010CD010010CD01001007
:10018000CD010010CD010010CD010010CD010010F7
:10019000CD010010CD010010CD010010CD010010E7
:1001A000CD010010CD010010CD010010CD010010D7
:1001B000CD010010CD010010CD010010CD010010C7
:1001C00000BE00BE00BE00BE00BE00BEEFF3058054
:1001D000103800BEF2EB88716C4105108C4105109F
:1001E0003402001090A31AE700201F49086006C8D7
:1001F00081F3088810471D48006800282FD10DA4FE
:100200000ECC002902D000F012F8F9E71849194A7B
:10021000002000E001C19142FCD1174988471749ED
:1002200088471749884700BEFDE701C901C29A42C5
:10023000FBD370478C410510C0000020902C00209B
:100240005C6D051000000420000004205C6D0510AA
:10025000001004200010042000000000704709482E
:100260000DF0E2F80047000008ED00E0000000D0CB
:10027000902C0020B85803201DBC0010550300101E
:1002800051BD00105756000006005250ABB36053EA
:10029000409D041006005250861C0302509D04101D
:1002A000060052505422A29D5C9D0410050052503D
:1002B000DE65F4685C6D0510F8B5C0460448054B72
:1002C00010B5834203D0044B002B00D0984710BDDB
:1002D000902C0020902C00200000000006480749C8
:1002E000091A8B10C90FC91810B5491003D0044B57
:1002F000002B00D0984710BD902C0020902C00209F
:100300000000000010B5074C2378002B09D1FFF73F
:10031000D5FF054B002B02D0044800E000BF0123AD
:10032000237010BDD8300020000000006098041039
:10033000054B10B5002B03D00449054800E000BF71
:10034000FFF7CCFF10BDC04600000000DC300020ED
:100350006098041070B5192009F02CFFD02380227A
:100360001B0692045A620EF0CFFF00F047F806F029
:1003700013FD08F01BF906F0D5FF09F0A7FA0022DB
:100380000524144B1A7006F0B5F9134D013C2100F9
:1003900028000EF0ADFFFA2080000AF01BFD002CB3
:1003A000F4D10A200EF004FE012200210B480AF0CD
:1003B000D9F90B4811F058F901220A4B0A4C1A706E
:1003C0002378012BFCD108F0ADFA2378012BFAD069
:1003D000F6E7C0469C58032060980410D0570320CD
:1003E000698B00109B580320A058032010B50248C9
:1003F00011F062FC10BDC04690380320092370B58F
:1004000086B0059304330493023B0393013B0293AC
:10041000023B324D324C0193324B22003249334879
:1004200000932B0005F024FE142005F01DFEFA2099
:1004300080000AF0CFFC2E4E21003200280006F08A
:100440002FF83378682B08D02A4C20000EF0FCFDE2
:10045000FA2080000AF0BEFCF7E773783D2BF3D159
:1004600001222100280006F03FF8234E320021002F
:10047000280006F073F83378002BF7D10122210011
:10048000280005F0EFFE0121200005F0CDFE03213C
:10049000200005F05FFE0321280005F089FF1321ED
:1004A000200006F0C9F81221200006F003F900210F
:1004B000200006F0E1F80321200006F06BF802218D
:1004C000200006F083F85521200005F061FE182178
:1004D000280005F007FF06B070BDC0467820032055
:1004E0005C32002040420F009C200020942000201D
:1004F0006058032074980410B5580320F0B5C64620
:10050000334C344D344E22002900300000B505F044
:10051000D9FF6378DB439B0720D023781B0702D4E5
:1005200080BCB846F0BD2D4C0622002120000EF004
:100530000DFC2100300005F095FF0023E05E05F082
:10054000FFFD274D28600223E05E05F0F9FD68609D
:100550000423E05E05F0F4FDA860E1E7214B0622EC
:100560009846180000210EF0F1FB1F4F06220021D3
:1005700038000EF0EBFB4146280005F055FF39002E
:10058000280005F033FF43460020185E05F0C4FD47
:100590004346164D28600220185E05F0BDFD434617
:1005A00068600420185E05F0B7FDA8600023F85EBF
:1005B00005F0BCFD0E4D28600223F85E05F0B6FD87
:1005C00068600423F85E05F0B1FDA860A5E7C046A9
:1005D000E44D03205C320020782003208C3E032071
:1005E0002C4303207C3E0320843E03200C3D03204B
:1005F000283D0320F0B55746DE464E464546E0B559
:100600008BB008919246190005900993DA170323DD
:100610008C46134063449B109B009846002B00DCE3
:1006200090E05246159B00249B000193149B9B1A5B
:10063000159A9B1A089A9B00029353681268190135
:1006400094460491069251469A00039252468D00B8
:100650000021013A92000792002289465900DE00EB
:10066000CB189B009B461300424665440092019ABA
:1006700094469C44039B1A199F195346002B1EDD78
:10068000069B059819196346804600989B004344D1
:1006900080460094086818600098081A845804314D
:1006A0005C6084599C60C059D86010338D42F1D190
:1006B00043460799009363468C4604339C440421C7
:1006C000029B5A4463448C461400049A3E00E14461
:1006D0009446009A5E4465444A45C8DC1A00009B73
:1006E0009846099B434526DD1499159C089B0D1BD4
:1006F000514609CB6D1A00291DDD41469E004B4332
:100700009B00C01853469C00059B47469C46099B8E
:10071000AB469846159B994600234A449100614494
:10072000C558CD5004339C42FAD1524401375A4443
:100730008019B845F0D10BB0F0BCBB46B246A94613
:10074000A046F0BD0022CCE7F0B54746CE4680B5C6
:100750001F00002B1DDD002A1BDD9300C0180B6855
:10076000002498464B689100D200494252428C4680
:1007700091469B00614645182900A2004244166834
:10078000D21840C18142FAD14A460134A81AA74280
:10079000F0D1C0BCB946B046F0BDC046F0B5DE46AB
:1007A00057464E4645460023E0B51360836887B040
:1007B0009A46059200230268052693460093013B62
:1007C000039002910493052355469B1B98465D4375
:1007D0005B46002B00D18DE14544AD005D442B68A4
:1007E0005C006B6864085F007F08391C381C0EF0E1
:1007F00076F9002800D0DFE0211C381C0EF06AF9E1
:10080000002800D0DFE00027731C9A46022B53D942
:10081000AB685B005B08191C181C99460EF05FF969
:10082000002800D046E14846211C0EF053F900286C
:1008300001D04C4602275346032B3DD0EB685B00AA
:100840005B08191C181C99460EF049F9002800D0C5
:1008500038E14846211C0EF03DF9002801D04C46F5
:1008600003275346042B27D02B695B005B08191C18
:10087000181C99460EF033F9002800D02AE14946A9
:10088000201C0EF019F9002801D04C4604275346CD
:10089000052B11D06D696D006D08291C281C0EF008
:1008A0001EF9002800D01DE1291C201C0EF004F9BF
:1008B000002801D005272C1C029B009A47440021E8
:1008C0009F50201C0EF0F0F8002800D17EE0049B21
:1008D000013300D1E3E006239B1B45460193039BB4
:1008E0009B689A465D4306239F1B53469B0099468F
:1008F000019B52461C005443009A7F199446A50060
:1009000065449C460023BF005F44B8461F00644412
:10091000A4005D445C444346286819680EF095F8CD
:10092000011C20680EF077F82060012E2DD9434677
:10093000286859680EF089F8011C60680EF06BF8A1
:100940006060022E21D04346296898680EF07DF839
:10095000011CA0680EF05FF8A060032E15D043467E
:100960002968D8680EF071F8011CE0680EF053F8A1
:10097000E060052E09D14346296818690EF065F834
:10098000011C20690EF047F8206101374D444C44AA
:10099000BE42C0D1009B013E04330093019B052B56
:1009A00000D010E71A00029B5A6107B0F0BCBB46AA
:1009B000B246A946A046F0BD211C201C0EF08FF8BF
:1009C000002800D018E73C1C01271DE7474530D020
:1009D00059465C460098BB005B4409581D68039A61
:1009E00092682550196001009200594489189B189B
:1009F00008681C680C60186089189B1808681C68D7
:100A00000C60186089189B1808681C680C601860D6
:100A100089189B1808681C680C60186089189B1856
:100A200018680A6808601A60059A13680193013310
:100A300013604546039B5A469B685D439A460623CE
:100A40009B1B0193EC1843465B199B009F58A40025
:100A50005C442068391C0DF0E4FF2060012E00D8B2
:100A600041E76068391C0DF0DCFF6060022E00D1A8
:100A700039E7A068391C0DF0D4FFA060032E00D127
:100A800031E7E068391C0DF0CCFFE060042E00D1A6
:100A900029E72069391C0DF0C4FF206123E70623F4
:100AA00045469B1B0193039B9B689A465D434346C7
:100AB000049318E7211C201C0EF011F8002800D127
:100AC000B7E6B0E6211C201C0EF009F8002800D182
:100AD000C5E6BEE6211C201C0EF001F8002800D15E
:100AE000D3E6CCE6211C201C0DF0F9FF002800D134
:100AF000E0E6D9E61B68FFDEF0B55746DE464E4617
:100B00004546E0B599B01493249B8246259C2698CF
:100B10005D1C00D1229B651C00D1229C239DEE17F9
:100B200003253540239EB4466544AD10AF0007252C
:100B3000229E0E97AE4335000096149E002E00DCD8
:100B400088E29B001693230110930301D318179397
:100B50006B1EDB0801330391D9015B010F93A300E6
:100B60007C43201880001193131815930023D3465B
:100B7000139108930E9B002B00DCC2E10F9A039B9C
:100B8000944663441293179BD84601930023029323
:100B90000298434601000CCB089C5943A44661448B
:100BA000890051180991411C594361448900511829
:100BB0000A91811C59436144890051180B91C11C51
:100BC0004B4363449B00D318019E0C93009B34005D
:100BD000002B00DC45E2039B0025994600234C4690
:100BE000AA46AB46A946069504952F1C0595079580
:100BF0000D9325683168281C0DF027FF59460DF02C
:100C00000DFF71688346281C0DF01FFF51460DF043
:100C100005FFB1688246281C0DF017FF07990DF0FB
:100C2000FDFEF1680790281C0DF00FFF05990DF0EF
:100C3000F5FE059065683169281C0DF006FF391C2A
:100C40000DF0ECFE7169071C281C0DF0FEFE0499E6
:100C50000DF0E4FEB1690490281C0DF0F6FE069933
:100C60000DF0DCFEF1690690281C0DF0EEFE494601
:100C70000DF0D4FE8146A568316A281C0DF0E5FE12
:100C800059460DF0CBFE716A8346281C0DF0DDFE3F
:100C900051460DF0C3FEB16A8246281C0DF0D5FE08
:100CA00007990DF0BBFEF16A0790281C0DF0CDFEF0
:100CB00005990DF0B3FE0590E568316B281C0DF029
:100CC000C4FE391C0DF0AAFE716B071C281C0DF028
:100CD000BCFE04990DF0A2FEB16B0490281C0DF02F
:100CE000B4FE06990DF09AFEF16B0690281C0DF0EB
:100CF000ACFE49460DF092FE81462569316C281CF8
:100D00000DF0A3FE59460DF089FE716C8346281C38
:100D10000DF09BFE51460DF081FEB16C8246281C01
:100D20000DF093FE07990DF079FEF16C0790281CE9
:100D30000DF08BFE05990DF071FE05906569316D22
:100D4000281C0DF082FE391C0DF068FE716D071C29
:100D5000281C0DF07AFE04990DF060FEB16D049030
:100D6000281C0DF072FE06990DF058FEF16D0690EC
:100D7000281C0DF06AFE49460DF050FE8146A5691B
:100D8000316E281C0DF061FE59460DF047FE716E64
:100D90008346281C0DF059FE51460DF03FFEB16E02
:100DA0008246281C0DF051FE07990DF037FEF16EBA
:100DB0000790281C0DF049FE05990DF02FFE0590B7
:100DC000E569316F281C0DF040FE391C0DF026FE40
:100DD000716F071C281C0DF038FE04990DF01EFEE3
:100DE000B16F0490281C0DF030FE06990DF016FE30
:100DF000F16F0690281C0DF028FE49460DF00EFEFE
:100E00008146803620340D9B009A08330D939A4218
:100E100000DDEEE6139B019C9C46051C5946381CE0
:100E200064440DF0FBFD5146071C04980DF0F6FDDF
:100E30000799061C06980DF0F1FD05998146281CBE
:100E40000DF0ECFD129B051C9A46229A009B9A42DB
:100E500030DDAB460493534620CB2168281C9A46CC
:100E60000DF0F3FD011C381C0DF0D8FD6168071C66
:100E7000281C0DF0EAFD011C301C0DF0CFFDA1680F
:100E8000061C281C0DF0E1FD011C48460DF0C6FDB6
:100E9000E1688146281C0DF0D8FD011C58460DF074
:100EA000BDFD8346049B229A0133103404939A4279
:100EB000D1D1051C311C0A9E30680DF0ACFD391CE7
:100EC000099F041C38680DF0A6FD291C0C9D386094
:100ED000346028680DF09FFD0B9E4946041C306865
:100EE0000DF099FD1099019A8C46029B6244019283
:100EF0000E9A0433306002932C609A4200DD47E67C
:100F0000C3460F9A039B944663440E9A0293239B15
:100F10009246159D934200DC90E05B465C68534628
:100F20005C43089B2F009C465B461B6864449C46C0
:100F3000009BA4006444002B00DC99E00023039F85
:100F400099463B00A04600262F001C003968206807
:100F50000DF07BFD311C0DF061FD061C79686068A9
:100F60000DF073FD311C0DF059FD061CB968A06829
:100F70000DF06BFD311C0DF051FD061CF968E068A9
:100F80000DF063FD311C0DF049FD061C3969206927
:100F90000DF05BFD311C0DF041FD061C79696069A7
:100FA0000DF053FD311C0DF039FD061CB969A06927
:100FB0000DF04BFD311C0DF031FD061CF969E069A7
:100FC0000DF043FD311C0DF029FD061C20372034A7
:100FD00008239C46009BE1444B45B7DC44460F9BED
:100FE000EF18029B0193229A009B9A4217DD9946C3
:100FF0000023984643464246F958019B98580DF005
:1010000024FD011C301C0DF009FD061C01239C462B
:101010000333E1449C46229BE0444B45EAD12068DF
:10102000311C0DF0F8FC01239C46119BE2449C46C8
:10103000239B20606544534500D06EE71699039AC0
:101040008C46089B62440392149A013308939A4297
:1010500000D08FE519B0F0BCBB46B246A946A04609
:10106000F0BD0025039BA9469A462E1C2F1CECE6DA
:10107000039B00260193B6E7F0B557464E46DE4681
:1010800045468024E0B5B5B006AF3C1920609420F9
:101090007B63E823AE4E38180160BA63FB181C6806
:1010A0003378BFF35B8FDB0700D477E2A94D902242
:1010B0002369BA1813608422A368BA1813608022C7
:1010C000BA1812686D68934202DD8423FB181A6017
:1010D00094218423902279180E688C21FB18BA1869
:1010E00012681B6856435343226879180A60002A25
:1010F00000D180E29B003B660023BB6763687B678F
:10110000002B00D163E2B300FB6500233B6798220C
:101110000423BA1813609033FB181B68002B19DDE9
:101120008023E422FB18BA181B6812681900934246
:1011300000DA4AE2280009010CF0D0F90323C217B3
:10114000134098221B189B109B00BA181360042BA5
:1011500000DA35E28023FB181968002900DCA9E1D8
:1011600090207B6B38181A000068796484464243EB
:10117000091A3A616244B9647A609821E4227918C4
:10118000BA18126809684A43BA619A007A6104324F
:10119000FA61A02201339B00BA181360E423FB1804
:1011A0001B689B009B460023FB63FB643B64BB66A0
:1011B0009C227B6CBA1813609022BA181268934272
:1011C00002DD9C23FB181A609423FB181B68002B7C
:1011D00000DC47E19C23FB181A68002A00DC41E18F
:1011E0009423E021FB181B687918BB6598230968D4
:1011F000FB188C461B68B86E53439B00BB607B6F2B
:101200001100FB6783006344FB6000238C46FB6690
:10121000FB620B00B021791839630321013B043ACA
:101220008B436044D31A38603B629822BA18BB6D76
:1012300012689A46934200DD9246FA68FB6E944625
:101240009B0063447B66FB6B88227B65FB6CBA1852
:101250003B659C23FB181B6813609C23FB181A68D2
:101260008823FB181B68D21ABA62A422BA1813602A
:10127000042B03DDA4220423BA1813608823FB186F
:101280003A681B68D21A7A62002B65DDA423BA6B18
:10129000FB189146A8221B68BA18013B98467B6D43
:1012A0009B0099447B6E1360AC220023BA18136034
:1012B000AC23AC22FB181B68BA18013313604346F9
:1012C000002B2CDDA8230025FB181C684B46266844
:1012D0005968301C0DF0B9FB011C60680DF09BFBD8
:1012E00043466060012B16D04B46301C99680DF0C8
:1012F000ACFB011CA0680DF08EFB4346A060022BE6
:1013000009D04B46301CD9680DF09FFB011CE068EA
:101310000DF081FBE06001355C445545D6D10123D9
:101320005B429C46A133FB181B68E0449C46A82303
:10133000A822FB181B68BA1804331360AC23A4223C
:10134000FB18BA181B681268E1449342B0DB03E053
:10135000E0220320A43803208823A422FB18BA1813
:101360001B681268396B9D1A7B6EBE6A0B60E423A2
:10137000FB181B6891464B609C230196FB181B6869
:1013800088460093F86F5346FFF734F9002D37DD98
:1013900041467C6A386D4C440319B86B4A46844612
:1013A000786B9B004860A420381802608C203818A5
:1013B000006863440B602B0081463963FFF7C4F972
:1013C000E022FB6EBA181B1914689B00A0463C6B08
:1013D00043442360E423FB1819689C236160FB18D5
:1013E00004961B6849460393A423FB181A685346C6
:1013F0000292019300922B002000FA6FFFF77CFB12
:10140000882388227969FB188C461B68BA18043B2C
:10141000F96913603A6D62448C463A657A6E10320F
:101420007A667A6D62447A653A6A9A4200D014E725
:101430009822BA181268B96D9446FB6A8A1AB9697B
:1014400063448C46BA65B968FA6EFB6262448C46A6
:10145000FA66FA6F6244FA679422BA1812689A42DE
:1014600000DDE2E69022BA181268BB6E9446802234
:10147000BA1812686344BB6693421BDA8423FB18D4
:101480001B68002B38DC90233969FB188C467A6C7A
:101490001B68D21A7A643A6C62443A64BA6CD31A02
:1014A000BB647A68FB6C63449446FB64FB6B6344E7
:1014B000FB637DE68023FA6D9B029A4207D93A6F5F
:1014C000002A04D0531E1878101A0DF027FC802330
:1014D0003A6E9B029A4207D9BA6F002A04D0531E73
:1014E0001878101A0DF01AFCBD462FB0F0BCBB46A0
:1014F000B246A946A046F0BDBA6B3B6C92469B0033
:101500009A44B023FE18B13B9946BD6CBC6E84234F
:10151000FB181B68A8469D4200DD9846AC22A3003C
:10152000BA1813607A6B8C2072609C225344BA18EC
:10153000381831001268006833604346FFF704F939
:10154000E022AC23BA181268FB1894461B688C2161
:1015500063443360E423FB181B687918736000232D
:1015600004934B46039302939423FB181B683000AB
:1015700001939C23FB181B6800937A6F434609680C
:10158000FFF7BAFA8423FB181B689C46ED1A8023E8
:10159000FB181B686444A342B9DC74E7300010F008
:1015A00089F8364D002800D181E58023DB012B60CE
:1015B00080231B0330006B60AB6010F097F876E57A
:1015C00098220423BA181360C4E51100B2E5802301
:1015D000B200FA659B029A423AD813006A46163363
:1015E000DB08DB00D31A9D4627200F23684498436D
:1015F000386778678BE59A0080233A669B029A42A7
:101600000FD813006A461633DB08DB00D31A9D4659
:1016100027200F23684498437D33FB18B867186070
:101620006CE5100010300DF05BFBB867002800D1AE
:1016300064E50F221023844602409B1ADBB29C44CF
:1016400061464A1E13708C23FB18B967196055E573
:10165000100010300DF044FB3867002800D156E52B
:101660000F221023844602409B1ADBB29C44614641
:101670004A1E39671370796749E5C046A4380320CC
:10168000F0B557464E46DE464546E0B5B7B006AF24
:10169000824684207B65F023CB4E38180160BA6304
:1016A000FB181C683378BFF35B8FDB0700D49DE227
:1016B000C64D23696D683B67A368BB67534501DD71
:1016C0005346BB67842179180E6880213A6FBB6F3F
:1016D00056435343226879180A60002A00D1B4E2C5
:1016E0009B003B650023FB666368BB66002B00D153
:1016F00097E2B300FB6400237B6688220423BA18B8
:1017000013608033FB181B68002B16DDEC23FB18DD
:101710001B6851469A4500DA7FE2280009010BF068
:10172000DDFE0323C217134088221B189B109B0069
:10173000BA181360042B00DA6AE25346002B00DC6F
:1017400032E27A6D386F1100434259430B00B9629F
:1017500051460C1A110062431B1A9B00BA647B604D
:101760000A000B0051464B43B96B53448C46E821A9
:101770009B006344FB637918830009685B423B600C
:1017800053468C469B006344EC21BB658823791843
:10179000FB1809681B687C674B4390213B619300F1
:1017A0005B4279180B60043BBB609B00FB60D3433A
:1017B00094229B00BA181360EC23A822FB181B6824
:1017C000BA189B001360544603008C22BA181360A9
:1017D000A34200DD14608423FB181B68002B00DC8F
:1017E00076E18C23FB181A68002A00DC70E1842360
:1017F000FB181B68B96D7B648823FB181B68534377
:101800009B00FB61BB6EFB659300CB1A3B62002320
:10181000B8213B667B63A31A7918FB621300396316
:101820000321013B043A8B43D31A7B61AC227B6CCE
:10183000BA1813608822BA181268934202DDAC23EA
:10184000FB181A603A6A3B6E94469B009C446246C1
:101850007A62BA6D944698226344BA181360FB6B9F
:101860003B648C23FB181B68FB679C22FB6FBA1838
:101870001360042B03DD9C220423BA181360FA6F53
:10188000FB6A94466344BB61002A00DCA0E09C2311
:10189000396CA0208A46FB181B6838185A1E9346DC
:1018A000BA685B42524402607A6D9B1A9B009A446C
:1018B0000423A4225B4299460023BA181360A02394
:1018C000FE20FB181B68800519680DF0AAF8B423E8
:1018D000FB181860A423FB181B685A46DB439B1AAD
:1018E0009822BA18126800269446B0229C009B00E9
:1018F0005B42BA1864441360B023FB181B684A4665
:101900009846A04443469958B423FB1818680DF034
:101910009CF843464A4698505B46051C002B22DD46
:10192000534619680DF091F8011C20680DF073F80A
:101930005B462060012B16D05346281C59680DF0D9
:1019400084F8011C60680DF066F85B466060022B4D
:1019500009D05346281C99680DF077F8011CA0683F
:101960000DF059F8A060A823FB181B6801369C46AF
:10197000AC23FB181B6864449E42BDD1A423A4225F
:10198000FB181B68BA1801331360012294215242DC
:10199000944679180968E3448C46A021A132BA180C
:1019A0001268791862440A600422524294469432C2
:1019B000BA181268E14494469C22BA181268E244AC
:1019C000934200DA7BE703E0E0220320A4380320FF
:1019D000E8219C2279180968BA188C46FB6F1268B6
:1019E000396B9C1ABB699D1A3B6E5B199B00634463
:1019F0000B60EC23FB181B684B608C230194FB18D5
:101A00001B680093AC23FB181B68F86DFEF7F2FD12
:101A1000002C30DD7A6DF96A13008C466B433D6B08
:101A2000B96B80206A609C2263448C463818066833
:101A30009B00BA181268634429002B603000230011
:101A40009046FEF781FEEC2228008C237D6ABA18AE
:101A500005601568FB18456004941D68AC22434678
:101A600003950293BA181268009301922300310083
:101A7000FA6DFFF741F898229821BA181268791880
:101A8000103A0A60F9683A6C8C46FB6F62443A641B
:101A90007A69043BFB679A4200D0E6E68822BA18CE
:101AA0001268796C94467B6B8A1AF96963448C4698
:101AB0007A643969FA6D7B6362448C46FA653A6EE2
:101AC00062443A668422BA1812689A4200DDADE692
:101AD0007B6F1C1E68DDBB6F002B00DCFEE7BA6B62
:101AE000BB6C93469B009B4400239946B833FE1879
:101AF000B93B9A4623004C4699467D6FBB6FA8467A
:101B00009D4200DD9846B422A300BA1813607A6D96
:101B1000802072608C225B44BA1838183100126839
:101B2000006833604346FEF70FFEE822B423BA187C
:101B30001268FB1894461B68802163443360EC23D1
:101B4000FB181B68791873600023049353460393B2
:101B500002938423FB181B68300001938C23FB182D
:101B60001B680093BA6E43460968FEF7C5FFBB6F5A
:101B70009C46ED1A7B6F6444A342BFDCBA6ABB6C1F
:101B800094467A6863449446BB643A68FB6B4C465F
:101B900063449446FB63BB6D3A6F6344BB657B6FE4
:101BA0009B1A7B67130010E68023FA6C9B029A4213
:101BB00007D97A6E002A04D0531E1878101A0DF037
:101BC000ADF880233A6D9B029A4207D9FA6E002A3B
:101BD00004D0531E1878101A0DF0A0F8BD4631B08D
:101BE000F0BCBB46B246A946A046F0BD30000FF09F
:101BF00061FD374D002800D15BE58023DB012B60C0
:101C000080231B0330006B60AB600FF06FFD50E56D
:101C100088220423BA1813608FE5EC23FB18196897
:101C20007BE58023B200FA649B029A423AD8130003
:101C30006A461633DB08DB00D31A9D4627200F23A4
:101C4000684498437866B86657E59A0080233A65F9
:101C50009B029A420FD813006A461633DB08DB005A
:101C6000D31A9D4627200F23684498437133FB18ED
:101C7000F866186038E5100010300DF031F8F8669D
:101C8000002800D130E50F221023844602409B1A21
:101C9000DBB29C4461464A1E13708023FB18F96630
:101CA000196021E5100010300DF01AF87866002850
:101CB00000D122E50F221023844602409B1ADBB29A
:101CC0009C4461464A1E79661370B96615E5C046A4
:101CD000A438032030B587B00D4B02AD00951A68CB
:101CE000694602929A880400AA809B796A46AB7181
:101CF000072301930023D3732CF06EFC0098A842B5
:101D000003D0029901310DF03DF8200007B030BD3D
:101D100088980410F0B5DE4657464E464546E0B575
:101D20000E000168C7688946416805698A4681686E
:101D30008DB08B464169806907930690506813689F
:101D4000926805910A90291C30680B9209930895B6
:101D50000CF061FE0599039070680CF05CFE06992A
:101D6000051CB0680CF057FE8026804636060798A2
:101D70000CF0EEFEB446039B009001916344180002
:101D800051460CF062FE5946061C281C0CF05DFE04
:101D9000011C301C0CF03FFE391C061C4046049709
:101DA0000CF053FE011C301C0CF035FE0CF0D0FE84
:101DB0000022684B0BF009FE009A019B0BF005FE18
:101DC000060048460F000CF0C3FE02000B00300076
:101DD0003900169C0BF0D2FD0BF0FCFE494620604A
:101DE00003980CF032FE5946061C40460CF02DFEBE
:101DF000011C301C0CF012FE0499061C281C0CF06F
:101E000024FE011C301C0CF006FE0CF0A1FE00228A
:101E1000504B0BF0DAFD009A019B0BF0D6FD06004B
:101E200050460F000CF094FE02000B003000390009
:101E30000BF0A4FD0BF0CEFE49466060281C0CF0B0
:101E400004FE5146061C40460CF0FFFD011C301CF0
:101E50000CF0E1FD0499061C03980CF0F6FD011C42
:101E6000301C0CF0DBFD0CF073FE0022394B0BF044
:101E7000ACFD009A019B0BF0A8FD060058460F0030
:101E80000CF066FE02000B00300039000BF076FD0E
:101E90000BF0A0FE4946A06040460CF0D6FD51462E
:101EA000061C281C0CF0D1FD011C301C0CF0B6FDEA
:101EB0005946051C03980CF0C8FD011C281C0CF0A9
:101EC000AAFD0CF045FE0022224B0BF07EFD009A8D
:101ED000019B0BF07AFD060004980F000CF038FE11
:101EE00002000B00300039000BF048FD0BF072FED1
:101EF000089B0999E060181C98460CF0A6FD079D08
:101F0000291C0CF0A2FD011C40460CF084FD059F2D
:101F10000A992061381C0CF098FD291C0CF095FDE5
:101F2000011C381C0CF077FD069E0B996061301C7B
:101F30000CF08BFD291C0CF088FD011C301C0CF0F2
:101F40006AFDA06100200DB0F0BCBB46B246A946B8
:101F5000A046F0BD0000E03FF0B5DE4657464E46D5
:101F600045468A464168E0B58846C768816891B0B1
:101F7000066889464046391C141C04930CF065FD24
:101F80004946051C301C0CF060FD0A90011C281C01
:101F900009950CF040FD0CF0DBFD02000B000BF08E
:101FA000EDFC06900791201C02940CF0D1FD0B0073
:101FB000020004000D00069807990BF006FD0BF0D7
:101FC00009FE5246391C106048460CF03EFD83461F
:101FD0004146301C0CF039FD5A460E90011C584603
:101FE0000B920CF01BFD0CF0B3FD02000B000BF08C
:101FF000C5FC02000B00200029000C920D930BF091
:10200000E4FC0BF0E7FD5446311C6060301C0CF022
:102010001CFD4146041C40460CF017FD051C011C2C
:10202000201C0CF0F8FC4946089048460CF00DFDC9
:10203000391C8346381C0CF008FD5946019008985D
:102040000CF0E9FC01990CF0E9FC02990F900CF0FE
:10205000FCFC53464946986040460CF0F6FC391C9F
:102060008046301C0CF0F1FC81461A980CF070FD93
:1020700006001B980F000CF06BFD02900391291CC9
:10208000201C0CF0CBFC59460CF0C5FC01990CF05F
:10209000C2FC04990CF0D9FC0CF05AFD04000D00B0
:1020A000404649460CF0BAFC0CF052FD02000B0011
:1020B0000BF064FC32003B000BF087FC02000B00CD
:1020C000200029000BF05AFC029A039B04000D002B
:1020D000069807990BF079FC02000B0020002900FC
:1020E0000BF04CFC0BF076FD5346D86004980CF0D6
:1020F0002FFD04000D00404649460CF08CFC0CF00E
:1021000027FD02000B000BF039FC22002B00049489
:1021100005950BF05AFC04000D00089859460CF088
:102120007DFC01990CF077FC1A990CF08EFC0CF0F8
:102130000FFD02000B00200029000BF01FFC029A8B
:10214000039B04000D000C980D990BF03EFC02005F
:102150000B00200029000BF011FC0BF03BFD534657
:102160000A99186109980CF059FC0CF0F1FC020076
:102170000B000BF003FC049A059B0BF026FC0400FB
:102180000D000B980E990CF046FC0CF0E1FC0200DF
:102190000B000BF0F3FB32003B000BF016FC0200CF
:1021A0000B00200029000BF0E9FB04000D000F9844
:1021B0001B990CF04AFC0CF0CBFC02000B00200039
:1021C00029000BF0DBFB0BF005FD534658610020A6
:1021D00011B0F0BCBB46B246A946A046F0BDC04611
:1021E000F0B50400DE4657464E4645460800E0B5C9
:1021F00045680968AA46856895B0AB46C5684669D2
:10220000876910910E950169556810689268049667
:1022100090461A68069711925A689B681292139317
:10222000FE239B05236099460CF0F5FB0CF090FC17
:10223000009001911E980CF08BFC06000F00009896
:1022400001990022924B0BF0C0FB32003B000BF0D7
:10225000BCFB0BF0BFFC04990390E061281C0CF060
:10226000DAFB0CF075FC0022894B049005910BF011
:10227000ACFB32003B000BF0A8FB0BF0ABFC06996B
:10228000051CA06340460CF0C6FB0CF061FC00226C
:102290007F4B069007910BF098FB32003B000BF050
:1022A00094FB0BF097FC0A90606550460CF050FCD4
:1022B0000022784B089009910BF087FB32003B001D
:1022C0000BF083FB0BF086FC0B90206758460CF05C
:1022D0003FFC00226F4B0C900D910BF076FB32000F
:1022E0003B000BF072FB0BF075FC8C238246E05038
:1022F0000E980CF02DFC0022664B0E900F910BF007
:1023000064FB32003B000BF060FB0BF063FCA82386
:102310008346E0500022009801995E4B0BF055FB7C
:1023200032003B000BF051FB0BF054FC494600908F
:1023300060602162002206980799564B0BF045FB1E
:1023400032003B000BF041FB0BF044FCA5658046DE
:10235000E06310980CF0FCFB00224D4B0BF035FBBA
:1023600032003B000BF031FB0BF034FC594690235C
:10237000051C60670022E1500C980D99444B0BF04E
:1023800024FB32003B000BF020FB0BF023FCAC23C2
:102390000022E050049805993E4B0BF016FB3200EA
:1023A0003B000BF012FB0BF015FC49460A9A8346E2
:1023B0006262009AA0602164E2650E980F99002283
:1023C000334B0BF002FB32003B000BF0FEFA0BF03C
:1023D00001FC94230B99A067E5501C33E150414662
:1023E000E1605946A162494621665146039BE16777
:1023F0006364089809990022254B0BF0E6FA320035
:102400003B000BF0E2FA0BF0E5FB9823E0501C33A5
:10241000E55000251E9911982561E562A564656661
:102420000CF013FB011C48460CF0F5FA8023E05039
:102430001C33E5501C33E550343B1E9912986561FE
:102440002563E564A566E5500CF0FFFA011C4846DB
:102450000CF0E1FAA023E0501C33E550343BA561B9
:1024600065632565E566E5501C33E5501E991398B4
:102470000CF0EBFA011C48460CF0CDFAC023E050FA
:10248000002015B0F0BCBB46B246A946A046F0BD40
:102490000000E0BF0000E03FF0B5DE4657464E4684
:1024A0004546E0B59A460B68141C8A689B464B6803
:1024B000C9688BB00500101C8846009301920CF08F
:1024C00047FB02900391201C0CF042FBC023060046
:1024D0000F000298039900221B060BF076FA3200D7
:1024E0003B000BF072FA0BF075FB08902860404639
:1024F0000CF02EFB02000B000BF040FA32003B0008
:102500000BF063FA0BF066FB041CA86158460CF054
:102510001FFBC02300221B06049005910BF055FA07
:1025200032003B000BF051FA0BF054FB286300988B
:102530000CF00EFB02000B00069007910BF01EFA48
:1025400032003B000BF041FA0BF044FB00219023DA
:102550008946A8642966A967E950686004980599C6
:1025600002000B000BF00AFA32003B000BF02DFAD0
:102570000BF030FB6C630490E86102980399020051
:102580000B000BF0FBF932003B000BF01EFA0BF0D6
:1025900021FB49469423E8646966E967E950C02352
:1025A00006980799049A1B06AA6000220BF00DFA00
:1025B00032003B000BF009FA0BF00CFB089B49467C
:1025C000AB63802328622C65A966E9501833E95073
:1025D000404614990CF039FA019F1599061C381CD5
:1025E0000CF033FA5146041C58460CF02EFA311CFC
:1025F0000CF014FA211C06940CF00DFA011C0CF0DE
:102600000DFA51460990E86000980CF01EFA1499F2
:10261000041C381C0CF019FA011C201C0CF0FEF9EB
:102620001599041C40460CF010FA011C201C0CF0FB
:10263000F5F9011C0CF0F2F9149902906862009807
:102640000CF003FA1599089058460CF0FEF9019A1F
:102650008024944624066444071C514620000CF054
:10266000F4F908990CF0DAF9391C0CF0D4F9011CD2
:102670000CF0D4F91499E86358460CF0E6F9159972
:10268000049000980CF0E1F9802212064244041CE8
:10269000514610000CF0D9F904990CF0BFF9211C37
:1026A0000CF0BCF9011C0CF0B9F94A468423EA6627
:1026B0006865EA501833EA505146286101980CF0D9
:1026C000C4F908990CF0A7F9391C0CF0A7F9011C02
:1026D0000CF0A4F9071CA8628020029B00062B6462
:1026E000514658440CF0B1F9311C0CF094F906999C
:1026F0000CF094F9011C0CF091F98823A865484668
:102700002867E8501833E850514640466F610CF096
:102710009CF904990CF07FF9211C0CF07CF9011C48
:102720000CF07CF9099AE8626A64029B4A46EB6500
:102730004B466B678C230020EA501833EA500BB0ED
:10274000F0BCBB46B246A946A046F0BD0123F0B599
:10275000E3214746CE469C46294B804605009946D4
:10276000284E80B58900076846444144FA0F6F68D7
:10277000D2077B005B08346813435A086240644602
:102780001C4201D04B465A4004C50436A942EDD143
:10279000E32342469B00C626D458194B01259C468C
:1027A000F6004644E20F4C68D20763005B080768F6
:1027B00013435A087A401D4201D063465A40043000
:1027C00004C1B042EED14246C62140460E4BC9007C
:1027D000D3581268DB0F52005208DB0741581343ED
:1027E0005A084A40DB0701D5054B5A404146064B83
:1027F000CA5000220433CA50C0BCB946B046F0BD2E
:10280000DFB0089934060000BC090000F0B5454669
:10281000DE4657464E46E0B53C4CD723A54434AA85
:10282000944663441B091B018A6805930B68019257
:1028300037921A6804902D929A6933912E921A6BEE
:1028400038AC2F929A6C30921A6E06929A6F089258
:1028500090229A5807925A680A92DA690B925A6B38
:102860000C92DA6C0D925A6E0E92DA6F0F929422DD
:102870009A5810929A6811921A6A12929A6B13924D
:102880001A6D14929A6E159280229A581692982276
:102890009A581792DA6818925A6A1992DA6B1A9251
:1028A0005A6D1B92DA6E1C9284229A581D929C22B9
:1028B0009A581E921A691F929A6A20921A6C219253
:1028C0009A6D22921A6F239288229A582492A022FB
:1028D0009A5825925A692692DA6A27925A6C289257
:1028E000DA6D29925A6F2A928C229A582B92A4223E
:1028F0009B582C934B68984638AB3293C42343447F
:1029000009934346A0461C0002E0C0469CFDFFFF21
:10291000E168A26889462169236848460391309995
:10292000029201930CF091F80399824606980CF0FC
:102930008CF8011C50460CF071F867698246391C0E
:1029400008980CF082F8A6698346311C07980CF0B1
:102950007CF8011C58460CF061F8011C50460CF044
:102960005DF8656882462E99281C0CF06EF82F9948
:10297000834602980CF069F8011C58460CF04EF89A
:102980002D99834601980CF060F8011C58460CF014
:1029900045F8011C50460CF041F843464946186082
:1029A0000D980CF052F8039982460E980CF04DF8F1
:1029B000011C50460CF032F8391C82460F980CF07E
:1029C00044F8311C834610980CF03FF8011C58461F
:1029D0000CF024F8011C50460CF020F8291C82460B
:1029E0000B980CF032F8029983460C980CF02DF8F5
:1029F000011C58460CF012F8019983460A980CF015
:102A000024F8011C58460CF009F8011C50460CF043
:102A100005F843464946586014980CF016F8039997
:102A2000824615980CF011F8011C50460BF0F6FF89
:102A3000391C824616980CF008F8311C834617980A
:102A40000CF003F8011C58460BF0E8FF011C50463F
:102A50000BF0E4FF291C824612980BF0F6FF029956
:102A6000834613980BF0F1FF011C58460BF0D6FF7C
:102A70000199834611980BF0E8FF011C58460BF0B2
:102A8000CDFF011C50460BF0C9FF434649469860F4
:102A90001B980BF0DAFF039982461C980BF0D5FFC8
:102AA000011C50460BF0BAFF391C82461D980BF0F2
:102AB000CCFF311C83461E980BF0C7FF011C584603
:102AC0000BF0ACFF011C50460BF0A8FF291C8246FE
:102AD00019980BF0BAFF029983461A980BF0B5FFCC
:102AE000011C58460BF09AFF0199834618980BF089
:102AF000ACFF011C58460BF091FF011C50460BF037
:102B00008DFF43464946D86022980BF09EFF0399FB
:102B1000824623980BF099FF011C50460BF07EFF74
:102B2000391C824624980BF090FF311C834625986F
:102B30000BF08BFF011C58460BF070FF011C504638
:102B40000BF06CFF291C824620980BF07EFF029947
:102B5000834621980BF079FF011C58460BF05EFF6D
:102B6000019983461F980BF070FF011C58460BF02B
:102B700055FF011C50460BF051FF43464946186172
:102B800029980BF062FF039981462A980BF05DFFAC
:102B9000011C48460BF042FF391C81462B980BF074
:102BA00054FF311C071C2C980BF04FFF011C381CE4
:102BB0000BF034FF011C48460BF030FF291C061CAB
:102BC00027980BF042FF0299051C28980BF03DFF57
:102BD000011C281C0BF022FF0199051C26980BF004
:102BE00034FF011C281C0BF019FF011C301C0BF0DA
:102BF00015FF4346586118239C46099B1C34E0444A
:102C0000A34200D084E6379B1A68629308929A69BF
:102C100009921A6B0A929A6C0B921A6E0C929A6F26
:102C20000D9290229A580E925A680F92DA69109279
:102C30005A6B1192DA6C12925A6E1392DA6F1492E6
:102C400094229A5815929A6816921A6A17929A6B59
:102C500018921A6D19929A6E1A9280229A581B92A3
:102C600098229A581C92DA681D925A6A1E92DA6B60
:102C70001F925A6D2092DA6E219284229A582292E3
:102C80009C229A5823921A6924929A6A25921A6C65
:102C900026929A6D059C27921A6F203428928822DA
:102CA0009A58A1462992A0229A582A925A692B92A0
:102CB000DA6A2C925A6C2D92DA6D2E925A6F2F92FC
:102CC0008C229A583092A4229B5831935CAB069385
:102CD0003EAB0793329B98464346424641464046A8
:102CE0001B6895690193069B146B096E926C40CB2F
:102CF000876F0291101C0B99039206930BF0A5FEAF
:102D00000C99824602980BF0A0FE011C50460BF075
:102D100085FE0D998246381C0BF097FE0E9983466E
:102D2000301C0BF092FE011C58460BF077FE011C84
:102D300050460BF073FE09998246281C0BF085FE65
:102D40000A998346201C0BF080FE011C58460BF0AC
:102D500065FE0899834601980BF077FE011C5846E2
:102D60000BF05CFE011C50460BF058FE4B461299CE
:102D7000186003980BF069FE1399824602980BF0D5
:102D800064FE011C50460BF049FE14998246381C23
:102D90000BF05BFE15998346301C0BF056FE011CB0
:102DA00058460BF03BFE011C50460BF037FE1099C5
:102DB0008246281C0BF049FE11998346201C0BF01B
:102DC00044FE011C58460BF029FE0F9983460198DA
:102DD0000BF03BFE011C58460BF020FE011C504638
:102DE0000BF01CFE4B461999586003980BF02DFE12
:102DF0001A99824602980BF028FE011C50460BF0EF
:102E00000DFE1B998246381C0BF01FFE1C99834651
:102E1000301C0BF01AFE011C58460BF0FFFD011C84
:102E200050460BF0FBFD17998246281C0BF00DFE57
:102E300018998346201C0BF008FE011C58460BF025
:102E4000EDFD1699834601980BF0FFFD011C5846D5
:102E50000BF0E4FD011C50460BF0E0FD4B462099C1
:102E6000986003980BF0F1FD2199824602980BF0CF
:102E7000ECFD011C50460BF0D1FD22998246381C16
:102E80000BF0E3FD23998346301C0BF0DEFD011CA3
:102E900058460BF0C3FD011C50460BF0BFFD1E99B8
:102EA0008246281C0BF0D1FD1F998346201C0BF095
:102EB000CCFD011C58460BF0B1FD1D9983460198CD
:102EC0000BF0C3FD011C58460BF0A8FD011C504639
:102ED0000BF0A4FD4B462799D86003980BF0B5FD85
:102EE0002899824602980BF0B0FD011C50460BF069
:102EF00095FD29998246381C0BF0A7FD2A99834637
:102F0000301C0BF0A2FD011C58460BF087FD011C84
:102F100050460BF083FD25998246281C0BF095FD49
:102F200026998346201C0BF090FD011C58460BF09F
:102F300075FD2499834601980BF087FD011C5846C6
:102F40000BF06CFD011C50460BF068FD4B462E99B2
:102F5000186103980BF079FD2F99824602980BF0C7
:102F600074FD011C50460BF059FD30998246381C07
:102F70000BF06BFD3199071C301C0BF066FD011C3A
:102F8000381C0BF04BFD011C50460BF047FD2C99F3
:102F9000061C281C0BF059FD2D99051C201C0BF05C
:102FA00054FD011C281C0BF039FD2B99041C0198C1
:102FB0000BF04BFD011C201C0BF030FD011C301CE4
:102FC0000BF02CFD4B46586104239C461433E0441F
:102FD0009C46079BE144434500D07DE6339B059D1D
:102FE000DC68296A20680BF019FD049EA96B30602B
:102FF00060680BF013FD7060A068296D0BF00EFD8A
:10300000B060E068A96E0BF009FD8023F0602069D4
:10301000E95898460BF002FD98233061E958606941
:103020000BF0FCFC7061A069696A0BF0F7FCB06101
:10303000E069E96B0BF0F2FCF061206A696D0BF05E
:10304000EDFC3062E96E606A0BF0E8FC8427706288
:10305000A06AE9590BF0E2FC9C23B062E958E06AEF
:103060000BF0DCFCF062206BA96A0BF0D7FC30633C
:10307000606B296C0BF0D2FC7063A06BA96D0BF038
:10308000CDFCB063E06B296F0BF0C8FCF0638826C1
:10309000206CA9590BF0C2FC049B1864A023606C3F
:1030A000E9580BF0BBFC049BE96A5864A06C0BF078
:1030B000B5FC049B696C9864E06C0BF0AFFC049B5E
:1030C000E96DD864206D0BF0A9FC049B696F18654D
:1030D000606D0BF0A3FC8C25049A059B5065A06DD8
:1030E00059590BF09BFCA423049A9065059AE06D56
:1030F000D1580BF093FC049B059AD865116B206E98
:103100000BF08CFC049B059A1866916C606E0BF0BA
:1031100085FC049B059A5866A06E116E0BF07EFC30
:10312000049B059A9866E06E916F0BF077FC049B08
:10313000059AD8669023206FD1580BF06FFC049B42
:10314000059A1867A823606FD1580BF067FC049BA1
:10315000059A5867A16F506B0BF060FC049B059AB1
:103160009867E16FD06C0BF059FC4146049B059ABF
:10317000D8676158506E0BF051FC4146049B059A8C
:103180005850E159D06F0BF049FC049BD85194235F
:10319000059FA159F8580BF041FC049B9851AC23B2
:1031A0006159F8580BF03AFC049B585199239B0045
:1031B0009D44F0BCBB46B246A946A046F0BDC04601
:1031C000F0B5DE4657464E4645460400E0B5436836
:1031D00087B05800A3684008590049080BF01EFC4E
:1031E0002368590049080BF019FC2369051C580095
:1031F00063694008590049080BF010FCE368590066
:1032000049080BF00BFC011C281C0BF007FCE369C0
:10321000051C5800236A4008590049080BF0FEFBC2
:10322000A369590049080BF0F9FBA36A061C580072
:10323000E36A4008590049080BF0F0FB636A590043
:1032400049080BF0EBFB011C301C0BF0E7FB636B38
:10325000071C5800A36B4008590049080BF0DEFB1F
:10326000236B590049080BF0D9FB236C061C58004E
:10327000636C4008590049080BF0D0FBE36B590020
:1032800049080BF0CBFB011C301C0BF0C7FB061CE4
:10329000011C381C0BF010FC002800D13E1C311C16
:1032A000281C0BF009FC002800D12E1CE36C5800F0
:1032B000236D4008590049080BF0B0FBA36C59007E
:1032C00049080BF0ABFBA36D051C5800E36D4008EB
:1032D000590049080BF0A2FB636D590049080BF037
:1032E0009DFB011C281C0BF099FB636E071C58000A
:1032F000A36E4008590049080BF090FB236E59005B
:1033000049080BF08BFB236F051C5800636F4008C6
:10331000590049080BF082FBE36E590049080BF095
:103320007DFB011C281C0BF079FBE36F80465800E5
:103330008023E1584008490049080BF06FFBA36F58
:10334000590049080BF06AFB8823051CE058043338
:10335000E15840004900490840080BF05FFB842316
:10336000E158490049080BF059FB011C281C0BF0DF
:1033700055FB051C011C40460BF09EFB002800D1AC
:103380004546291C381C0BF097FB002800D13D1C3A
:10339000291C301C0BF090FB002800D1351CC023E9
:1033A0002100E55001AABA3B02A8A8310493029477
:1033B000FDF7F4F90121C422019B98260B405B42E2
:1033C0008B430133A354343A9246002250469C2743
:1033D00022509432A1509346923AA2510132E251C6
:1033E0009D32944660469C3A2250A03291469F3AC4
:1033F00090464A4640462300A05048461832A258FC
:10340000903392009A181568255040461060604627
:10341000B8222058A2588046604692009A18156833
:10342000255040461060B422E059A25884469200CC
:103430009A1810685D46E05160461060B022A258AC
:10344000A75992009A181068A0511760AC225846EC
:10345000A258265892009A18106860511660A82247
:10346000A258554692009B1852461868A2586051BF
:103470001A60C523E15407B0F0BCBB46B246A9466A
:10348000A046F0BDC023002210B5C2500022043374
:10349000C2520B68040003604B6843608B68836012
:1034A000CB68C3600B6903614B6943618B698361BE
:1034B000CB69C3610B6A03624B6A43628B6A8362A6
:1034C000CB6AC3620B6B03634B6B43638B6B83638E
:1034D000CB6BC3630B6C03644B6C43648B6C836476
:1034E000CB6CC3640B6D03654B6D43658B6D83655E
:1034F000CB6DC3650B6E03664B6E43668B6E836646
:10350000CB6EC3660B6F03674B6F43678B6F83672D
:10351000CB6FC3678023CA58C2500433CA58C25005
:103520000433CA58C2500433CA58C250FFF748FE89
:10353000200010BDF0B5DE464E4645465746E0B584
:10354000214C9146A5443AAA94460A0031931F4B58
:103550003B9063441B091B013A919846D3AB13CAB5
:1035600013C313CA13C31268D3A91A60184B194A9C
:103570001B6847A80493184B47AC1B680193174B73
:103580001B6805930093049BFEF786FF47ABD3931C
:103590004B46D49347ABD5933AAA832394468620CF
:1035A0001B0163441B68C0004044A2AAD3A9D69360
:1035B0000990FFF72BF96BAB089343460A934B46F0
:1035C0003094A1461C000BE014F7FFFF47030000F6
:1035D000742003200AE81C416C2003207020032083
:1035E0004B464E461B68B76F0793089B494640CB36
:1035F00048464A460893A823896C006E9569126B69
:1036000005910690E158301C04920BF01EFA8C23B1
:103610008246E158381C0BF018FA011C50460BF09A
:10362000FDF9216F824606980BF00FFA616D834613
:1036300005980BF00AFA011C58460BF0EFF9011C33
:1036400050460BF0EBF9A16B824604980BF0FDF9A4
:10365000E1698346281C0BF0F8F9011C58460BF071
:10366000DDF92168834607980BF0EFF9011C5846F5
:103670000BF0D4F9011C50460BF0D0F9434618600A
:10368000AC23301CE1580BF0E0F990238246E1585E
:10369000381C0BF0DAF9011C50460BF0BFF9616FD2
:1036A000824606980BF0D1F9A16D834605980BF080
:1036B000CCF9011C58460BF0B1F9011C50460BF037
:1036C000ADF9E16B824604980BF0BFF9216A83469D
:1036D000281C0BF0BAF9011C58460BF09FF96168E1
:1036E000834607980BF0B1F9011C58460BF096F988
:1036F000011C50460BF092F943465860B023301C31
:10370000E1580BF0A2F994238246E158381C0BF0E3
:103710009CF9011C50460BF081F9A16F8246069876
:103720000BF093F9E16D834605980BF08EF9011CBF
:1037300058460BF073F9011C50460BF06FF9216CE1
:10374000824604980BF081F9616A8346281C0BF0CD
:103750007CF9011C58460BF061F9A1688346079873
:103760000BF073F9011C58460BF058F9011C504638
:103770000BF054F943469860B423301CE1580BF029
:1037800064F998238246E158381C0BF05EF9011C5D
:1037900050460BF043F9E16F824606980BF055F95D
:1037A000216E834605980BF050F9011C58460BF02A
:1037B00035F9011C50460BF031F9616C82460498D2
:1037C0000BF043F9A16A8346281C0BF03EF9011C5B
:1037D00058460BF023F9E168834607980BF035F95A
:1037E000011C58460BF01AF9011C50460BF016F953
:1037F0004346D860B823301CE1580BF026F99C23CF
:103800008246E158381C0BF020F9011C50460BF0A1
:1038100005F980238246E15806980BF016F9616E8F
:10382000834605980BF011F9011C58460BF0F6F889
:10383000011C50460BF0F2F8A16C824604980BF084
:1038400004F9E16A8346281C0BF0FFF8011C584676
:103850000BF0E4F82169834607980BF0F6F8011C99
:1038600058460BF0DBF8011C50460BF0D7F84346E6
:103870001861BC23301CE1580BF0E7F8A023824606
:10388000E158381C0BF0E1F8011C50460BF0C6F86B
:1038900084238246E15806980BF0D7F8A16E834640
:1038A00005980BF0D2F8011C58460BF0B7F8011C34
:1038B00050460BF0B3F8E16C824604980BF0C5F863
:1038C000216B8346281C0BF0C0F8011C58460BF0F6
:1038D000A5F86169834607980BF0B7F8011C5846B4
:1038E0000BF09CF8011C50460BF098F84346E16E33
:1038F000586105980BF0A9F888238246E15806988C
:103900000BF0A3F8011C50460BF088F8A423824664
:10391000E158381C0BF099F8C023071CE158301C03
:103920000BF093F8011C381C0BF078F8011C504682
:103930000BF074F8616B061C281C0BF086F8216DE7
:10394000051C04980BF081F8011C281C0BF066F88C
:10395000A169051C07980BF078F8011C281C0BF0D6
:103960005DF8011C301C0BF059F8434698610423A4
:103970009C461833E1449C464DABE044994500D049
:103980002EE60A9BA146D8249846A427A4004444C6
:10399000BF00474420000999FFF774FD21009022E1
:1039A0003800C8240BF0D8F9FC21A4004444890055
:1039B0004144182220000BF0CFF9CE208121800055
:1039C000C9004144182240440BF0C6F98422D42394
:1039D000D200424412689B0043441A60D523874AB0
:1039E0004546424412889B004344FE211A8000232E
:1039F0002268B0359200AA1889051160936113639B
:103A0000936413669367C922920042441268444645
:103A10009200AA181360916113639364136693670D
:103A2000CA2292004244126806269200AA18136025
:103A300093611163936413669367CB2292004244AF
:103A4000126806209200AA181360936113639164B0
:103A500013669367CC229200424412689200AA181F
:103A6000136093611363936411669367CD22920090
:103A7000424412689200AA1813609361136393641E
:103A80001366A8235B009B46916742465946E4189B
:103A900020334344A660E6602661535080229200A2
:103AA00042444B396260924604933A0006230294E2
:103AB000FF3901960095FDF7DFFA42465946049B0F
:103AC000A660E6602661535053464B3963603A0066
:103AD00006230294062001960095FF39FDF7D0FDDC
:103AE00043461B688C2206934346DB69D3AC07939D
:103AF00043469B6B089343465B6D099343461B6F9C
:103B00000A9343469B5804320B9343465B680C93DD
:103B100043461B6A0D934346DB6B0E9343469B6DF6
:103B20000F9343465B6F109343469B5804321193A7
:103B300043469B68129343465B6A139343461B6C50
:103B400014934346DB6D159343469B6F1693434690
:103B50009B58043217934346DB68189343469B6A8D
:103B6000199343465B6C1A9343461B6E1B93434663
:103B7000DB6F1C9343469B58183A1D9343461B69C1
:103B80001E934346DB6A1F9343469B6C2093434638
:103B90005B6E219343469B581C32229343469B58AD
:103BA000183A239343465B69249343461B6B259342
:103BB0004346DB6C269343469B6E279343469B58B4
:103BC0001C32289343469B58183A299343469B69D5
:103BD0002A9343465B6B2B9343461B6D2C934346C2
:103BE000DB6E2D9343469B581C322E9343469B58C5
:103BF000A8462F934B46329302E0C04624040000AF
:103C000043461F685B6842469946434641469B6867
:103C1000D2680E694D6907984946049305920AF0E7
:103C200014FF0499824608980AF00FFF011C5046C1
:103C30000AF0F4FE391C824606980AF006FF011CC1
:103C400050460AF0EBFE311C82460A980AF0FDFE4F
:103C5000291C83460B980AF0F8FE011C58460AF00E
:103C6000DDFE0599834609980AF0EFFE011C5846CF
:103C70000AF0D4FE011C50460AF0D0FE49462060EE
:103C80000D980AF0E2FE049982460E980AF0DDFED5
:103C9000011C50460AF0C2FE391C82460C980AF0FC
:103CA000D4FE011C50460AF0B9FE311C8246109821
:103CB0000AF0CBFE291C834611980AF0C6FE011CAF
:103CC00058460AF0ABFE059983460F980AF0BDFEF0
:103CD000011C58460AF0A2FE011C50460AF09EFE46
:103CE0004946606013980AF0B0FE04998246149821
:103CF0000AF0ABFE011C50460AF090FE391C8246C9
:103D000012980AF0A2FE011C50460AF087FE311CF0
:103D1000824616980AF099FE291C834617980AF0E5
:103D200094FE011C58460AF079FE059983461598C1
:103D30000AF08BFE011C58460AF070FE011C50462A
:103D40000AF06CFE4946A06019980AF07EFE0499BC
:103D500082461A980AF079FE011C50460AF05EFE6F
:103D6000391C824618980AF070FE011C50460AF071
:103D700055FE311C82461C980AF067FE291C8346BA
:103D80001D980AF062FE011C58460AF047FE05998C
:103D900083461B980AF059FE011C58460AF03EFE65
:103DA000011C50460AF03AFE4946E0601F980AF0AE
:103DB0004CFE0499824620980AF047FE011C5046AA
:103DC0000AF02CFE391C82461E980AF03EFE011CA9
:103DD00050460AF023FE311C824622980AF035FE36
:103DE000291C834623980AF030FE011C58460AF02D
:103DF00015FE0599834621980AF027FE011C5846B6
:103E00000AF00CFE011C50460AF008FE49462061EB
:103E100025980AF01AFE0499824626980AF015FEA3
:103E2000011C50460AF0FAFD391C824624980AF01B
:103E30000CFE011C50460AF0F1FD311C8246289808
:103E40000AF003FE291C834629980AF0FEFD011C96
:103E500058460AF0E3FD0599834627980AF0F5FDD8
:103E6000011C58460AF0DAFD011C50460AF0D6FD46
:103E7000494660612B980AF0E8FD049981462C9828
:103E80000AF0E3FD011C48460AF0C8FD391C8146D2
:103E90002A980AF0DAFD011C48460AF0BFFD311CE1
:103EA000071C2E980AF0D1FD291C061C2F980AF039
:103EB000CCFD011C301C0AF0B1FD0599051C2D98A4
:103EC0000AF0C3FD011C281C0AF0A8FD011C381CC7
:103ED0000AF0A4FD18239C46A061FDAB1C34E0440D
:103EE000A34200D08CE6329BD49A9946D39BD599B5
:103EF000D69CD79DD89ED99F06930792DA9BDB9AD2
:103F000008910994DC99DD9C0A950B96DE9DDF9E55
:103F10000C970D93E09FE19B0E92E29A0F91109403
:103F200011951296139714931592E399E49CE59DCD
:103F3000E69EE79FE89BE99A16911794EA99EB9C15
:103F400018951996EC9DED9E1A971B93EE9FEF9B8B
:103F50001C921D91F09AF1991E94F29C2096219743
:103F600022932392249125941F95F39DF49EF59F0F
:103F7000F79AF69BF899F99C26952796FA9DFB9E51
:103F80002897FC9F2A923A9A29932B912C942D954D
:103F90002E962F97D3AB32CA32C332CA32C31168BE
:103FA000D3AC1960FD49FE4B09681B680191FD49BE
:103FB000FD4A09682000009141A9FDF7CDFF319F1E
:103FC000419938680AF027FD4299834678680AF0DB
:103FD00022FD43998246B8680AF01DFD4499041CED
:103FE000F8680AF018FD4599051C38690AF013FDB8
:103FF0004699061C78690AF00EFD071C011C2A98D8
:104000000AF023FD311C804623980AF01EFD011C96
:1040100040460AF003FD291C80461C980AF015FD55
:10402000011C40460AF0FAFC211C804615980AF053
:104030000CFD514604900E980AF007FD011C0498EF
:104040000AF0ECFC5946049007980AF0FEFC011CAB
:1040500004980AF0E3FC011C40460AF0DFFC3A9A9F
:1040600051680AF0DBFC391C04902B980AF0EDFC37
:10407000311C804624980AF0E8FC011C40460AF0F6
:10408000CDFC291C80461D980AF0DFFC011C40462F
:104090000AF0C4FC211C804616980AF0D6FC514652
:1040A00005900F980AF0D1FC011C05980AF0B6FCA7
:1040B0005946059008980AF0C8FC011C05980AF0BA
:1040C000ADFC011C40460AF0A9FC3A9A91680AF03E
:1040D000A5FC391C05902C980AF0B7FC311C8046D1
:1040E00025980AF0B2FC011C40460AF097FC291CF6
:1040F00080461E980AF0A9FC011C40460AF08EFC7E
:10410000211C804617980AF0A0FC51463190109867
:104110000AF09BFC011C31980AF080FC5946319052
:1041200009980AF092FC011C31980AF077FC011CF6
:1041300040460AF073FC3A9AD1680AF06FFC391CC9
:1041400031902D980AF081FC311C804626980AF0A7
:104150007CFC011C40460AF061FC291C80461F982B
:104160000AF073FC011C40460AF058FC211C8046F2
:1041700018980AF06AFC5146329011980AF065FCD2
:10418000011C32980AF04AFC594632900A980AF00B
:104190005CFC011C32980AF041FC011C40460AF00C
:1041A0003DFC3A9A11690AF039FC391C32902E987C
:1041B0000AF04BFC311C804627980AF046FC011C93
:1041C00040460AF02BFC291C804620980AF03DFC52
:1041D000011C40460AF022FC211C804619980AF076
:1041E00034FC5146339012980AF02FFC011C33988E
:1041F0000AF014FC594633900B980AF026FC011C77
:1042000033980AF00BFC011C40460AF007FC3A9A6E
:1042100051690AF003FC5146339013980AF015FCDB
:10422000211C80461A980AF010FC011C40460AF036
:10423000F5FB594680460C980AF007FC011C4046E5
:104240000AF0ECFB311C804628980AF0FEFB391C72
:1042500034902F980AF0F9FB011C34980AF0DEFB29
:10426000291C349021980AF0F0FB011C34980AF0C4
:10427000D5FB011C40460AF0D1FB3A9A91690AF03D
:10428000CDFB391C804629980AF0DFFB311C071C46
:1042900022980AF0DAFB011C381C0AF0BFFB291C2B
:1042A000061C1B980AF0D1FB011C301C0AF0B6FB5F
:1042B000211C051C14980AF0C8FB5146041C0D98DB
:1042C0000AF0C3FB011C201C0AF0A8FB5946041C81
:1042D00006980AF0BAFB011C201C0AF09FFB011C87
:1042E000281C0AF09BFB3A9AD3AC11680AF096FBA3
:1042F0003B9B049A18605A60059A9A60319ADA607A
:10430000329A1A61339A5A6142469A614B461B6847
:104310004A46A2934B465B68A3934B469B68A49383
:104320004B46DB68A5934B461B69A6934B465B69DE
:10433000A7934B469B69A8934B46DB69A9934B46D1
:104340001B6AAA934B465B6AAB934B469B6AAC9342
:104350004B46DB6AAD934B461B6BAE934B465B6B98
:10436000AF934B469B6BB0934B46DB6BB1934B4685
:104370001B6CB2934B465B6CB3934B469B6CB493F4
:104380004B46DB6CB5934B461B6DB6934B465B6D52
:10439000B7934B469B6DB8934B4607E06C200320C8
:1043A00074200320702003200AE81C41DB6DB993C0
:1043B0004B461B6EBA934B465B6EBB934B469B6E54
:1043C000BC934B46DB6EBD934B461B6FBE934B4677
:1043D0005B6FBF934B469B6FC0934B46DB6FC193A4
:1043E0008023D358C2938423D358C3938823D358AC
:1043F000C4938C23D358C5939023D358C693942346
:10440000D358C7939823D358C8939C23D358C993A0
:10441000A023D358CA93A423D358CB93A823D3580B
:10442000CC93AC23D358CD93B023D358CE93B4239D
:10443000D358CF93B823D358D093BC23D358D19318
:10444000C023D358D293309B3092984643461F687E
:104450005B6842469946434641469B68D2680E696E
:104460004D690D984946049305920AF0EEFA0499B5
:10447000824614980AF0E9FA011C50460AF0CEFA76
:10448000391C824606980AF0E0FA011C50460AF0F0
:10449000C5FA311C824622980AF0D7FA291C8346B5
:1044A00029980AF0D2FA011C58460AF0B7FA059981
:1044B00083461B980AF0C9FA011C58460AF0AEFA66
:1044C000011C50460AF0AAFA494620600E980AF0EC
:1044D000BCFA0499824615980AF0B7FA011C5046B6
:1044E0000AF09CFA391C824607980AF0AEFA011CC1
:1044F00050460AF093FA311C824623980AF0A5FA36
:10450000291C83462A980AF0A0FA011C58460AF092
:1045100085FA059983461C980AF097FA011C5846BB
:104520000AF07CFA011C50460AF078FA49466060AD
:104530000F980AF08AFA0499824616980AF085FACA
:10454000011C50460AF06AFA391C824608980AF0A3
:104550007CFA011C50460AF061FA311C824624980C
:104560000AF073FA291C83462B980AF06EFA011C94
:1045700058460AF053FA059983461D980AF065FAE1
:10458000011C58460AF04AFA011C50460AF046FA45
:104590004946A06010980AF058FA04998246179884
:1045A0000AF053FA011C50460AF038FA391C8246C8
:1045B00009980AF04AFA011C50460AF02FFA311CF9
:1045C000824625980AF041FA291C83462C980AF065
:1045D0003CFA011C58460AF021FA059983461E98B8
:1045E0000AF033FA011C58460AF018FA011C50462A
:1045F0000AF014FA4946E06011980AF026FA049984
:10460000824618980AF021FA011C50460AF006FA70
:10461000391C82460A980AF018FA011C50460AF022
:10462000FDF9311C824626980AF00FFA291C8346B0
:104630002D980AF00AFA011C58460AF0EFF905997C
:1046400083461F980AF001FA011C58460AF0E6F961
:10465000011C50460AF0E2F94946206112980AF01E
:10466000F4F90499824619980AF0EFF9011C5046B2
:104670000AF0D4F9391C82460B980AF0E6F9011CBD
:1046800050460AF0CBF9311C824627980AF0DDF932
:10469000291C83462E980AF0D8F9011C58460AF0C6
:1046A000BDF90599834620980AF0CFF9011C5846B8
:1046B0000AF0B4F9011C50460AF0B0F949466061AD
:1046C00013980AF0C2F9049981461A980AF0BDF9C4
:1046D000011C48460AF0A2F9391C81460C980AF0E0
:1046E000B4F9011C48460AF099F9311C071C2898B6
:1046F0000AF0ABF9291C061C2F980AF0A6F9011C38
:10470000301C0AF08BF90599051C21980AF09DF9D7
:10471000011C281C0AF082F9011C381C0AF07EF9E1
:1047200018239C46FFABA06114331C34E044A34221
:1047300000D08BE6309BA2AD99463C93C4234C46F7
:10474000C8464B44089307944246D26843464146C4
:10475000914642469E694C68096892685F691B6988
:104760000491301CFD99069305920AF06EF9F699B2
:104770008246381C0AF069F9011C50460AF04EF9CD
:10478000EF99824606980AF060F9E8998346484610
:104790000AF05BF9011C58460AF040F9011C50462A
:1047A0000AF03CF9E199824605980AF04EF9DA9947
:1047B0008346201C0AF049F9011C58460AF02EF9DC
:1047C000D399834604980AF040F9011C58460AF030
:1047D00025F9011C50460AF021F9011C28680AF04D
:1047E0001AF92860FE99301C0AF02FF9F7998246D1
:1047F000381C0AF02AF9011C50460AF00FF9F0990A
:10480000824606980AF021F9E999834648460AF05B
:104810001CF9011C58460AF001F9011C50460AF027
:10482000FDF8E299824605980AF00FF9DB99834674
:10483000201C0AF00AF9011C58460AF0EFF8D49936
:10484000834604980AF001F9011C58460AF0E6F87C
:10485000011C50460AF0E2F8011C68680AF0DBF817
:10486000FF996860301C0AF0F0F8F8998246381C0D
:104870000AF0EBF8011C50460AF0D0F8F199824694
:1048800006980AF0E2F8EA99834648460AF0DDF80D
:10489000011C58460AF0C2F8011C50460AF0BEF846
:1048A000E399824605980AF0D0F8DC998346201CEB
:1048B0000AF0CBF8011C58460AF0B0F8D5998346A7
:1048C00004980AF0C2F8011C58460AF0A7F8011C27
:1048D00050460AF0A3F8011CA8680AF09CF8FFAB48
:1048E0005968A860301C04330AF0AFF8F999824681
:1048F000381C0AF0AAF8011C50460AF08FF8F29909
:10490000824606980AF0A1F8EB99834648460AF0D9
:104910009CF8011C58460AF081F8011C50460AF028
:104920007DF8E499824605980AF08FF8DD99834670
:10493000201C0AF08AF8011C58460AF06FF8D69934
:10494000834604980AF081F8011C58460AF066F87C
:10495000011C50460AF062F8011CE8680AF05BF896
:10496000FFAB9968E860301C08330AF06EF8FA99DA
:104970008246381C0AF069F8011C50460AF04EF8CD
:10498000F399824606980AF060F8EC998346484607
:104990000AF05BF8011C58460AF040F8011C50462A
:1049A0000AF03CF8E599824605980AF04EF8DE993F
:1049B0008346201C0AF049F8011C58460AF02EF8DC
:1049C000D799834604980AF040F8011C58460AF02B
:1049D00025F8011C50460AF021F8011C28690AF04C
:1049E0001AF8FFABD9682861301C0C330AF02DF897
:1049F000FB998246381C0AF028F8011C50460AF040
:104A00000DF8F499824606980AF01FF8ED9983464E
:104A100048460AF01AF8011C584609F0FFFF011C2D
:104A2000504609F0FBFFE699824605980AF00DF81A
:104A3000DF998346201C0AF008F8011C584609F04B
:104A4000EDFFD8998346049809F0FFFF011C5846F2
:104A500009F0E4FF011C504609F0E0FF011C686901
:104A600009F0D9FFEE996861484609F0EEFFF59923
:104A70008146069809F0E9FF011C484609F0CEFF7F
:104A8000FC998146381C09F0E0FFFFAB1969071C4F
:104A9000301C103309F0D9FF011C381C09F0BEFF8F
:104AA000011C484609F0BAFFE099061C201C09F0D9
:104AB000CCFFE799041C059809F0C7FF011C201CD6
:104AC00009F0ACFFD999041C049809F0BEFF011C41
:104AD000201C09F0A3FF011C301C09F09FFF011CE2
:104AE000A86909F098FF1C239C46089BE044A86134
:104AF0001C35984500D027E6079BA29A99461A6074
:104B0000A39A5A60A49A9A60A59ADA60A69A1A6142
:104B1000A79A5A61A89A9A61A99ADA61AA9A1A621E
:104B2000AB9A5A62AC9A9A62AD9ADA62AE9A1A63FA
:104B3000AF9A5A63B09A9A63B19ADA63B29A1A64D6
:104B4000B39A5A64B49A9A64B59ADA64B69A1A65B2
:104B5000B79A5A65B89A9A65B99ADA65BA9A1A668E
:104B6000BB9A5A66BC9A9A66BD9ADA66BE9A1A676A
:104B7000BF9A5A67C09A9A67C19ADA674A468023F1
:104B8000C299D150C3990433D150C4990433D15040
:104B9000C5990433D150C6990433D150C799043311
:104BA000D150C8990433D150C9990433D150CA990E
:104BB0000433D150CB990433D150CC990433D15024
:104BC000CD990433D150CE990433D150CF990433C9
:104BD000D150D0990433D150D1990433D150D299C6
:104BE0000433D1503AAA9446504BA2AA63441B689E
:104BF00013CB13C24E4BD3AC63441B6807CB07C423
:104C00003A9B3B9D00934B4B28006344A2A91B6831
:104C1000D3AAFDF77FF82B00D3AA23CB23C213CB53
:104C200013C23AA91B688C4613603EAA11003F4B81
:104C300063441B6831CB31C13D4BA2A963441B685F
:104C400031CB31C13B4BD3A963441B6871A800939E
:104C5000A2ABFDF7C5FAD3AB1C000793719BA0462E
:104C60000993789B10937F9B1793869B1E938D9B34
:104C70002593949B2C939B9B3393729B0A93799BD4
:104C80001193809B1893879B1F938E9B2693959BD4
:104C90002D939C9B3493739B0B937A9B1293819BD4
:104CA0001993889B20938F9B2793969B2E939D9B74
:104CB0003593749B0C937B9B1393829B1A93899BD4
:104CC0002193909B2893979B2F939E9B3693759B44
:104CD0000D937C9B1493839B1B938A9B2293919BA4
:104CE0002993989B30939F9B3793769B0E937D9B44
:104CF0001593849B1C938B9B2393929B2A93999B44
:104D00003193A09B3893779B0F937E9B1693859B43
:104D10001D938C9B2493939B2B939A9B3293A19BE3
:104D200039934B463D933C9B994605E0280800008B
:104D3000380800003C080000484649464A464B46B1
:104D4000866909691B6855689468D2684769069145
:104D50003398311C0592049309F077FE391C824682
:104D60002C9809F072FE011C504609F057FE069976
:104D70008246259809F069FE059983461E9809F038
:104D800064FE011C584609F049FE011C504609F01A
:104D900045FE211C8246179809F057FE291C8346C0
:104DA000109809F052FE011C584609F037FE04998C
:104DB0008346099809F049FE011C584609F02EFE69
:104DC000011C504609F02AFE4346311C18603498F5
:104DD00009F03BFE391C82462D9809F036FE011C75
:104DE000504609F01BFE06998246269809F02DFED2
:104DF000059983461F9809F028FE011C584609F0C2
:104E00000DFE011C504609F009FE211C824618982F
:104E100009F01BFE291C8346119809F016FE011C9F
:104E2000584609F0FBFD049983460A9809F00DFEE7
:104E3000011C584609F0F2FD011C504609F0EEFD38
:104E40004346311C5860359809F0FFFD391C8246F5
:104E50002E9809F0FAFD011C504609F0DFFD069975
:104E60008246279809F0F1FD05998346209809F0BC
:104E7000ECFD011C584609F0D1FD011C504609F01B
:104E8000CDFD211C8246199809F0DFFD291C8346BF
:104E9000129809F0DAFD011C584609F0BFFD04998B
:104EA00083460B9809F0D1FD011C584609F0B6FD68
:104EB000011C504609F0B2FD4346311C98603698FB
:104EC00009F0C3FD391C82462F9809F0BEFD011C74
:104ED000504609F0A3FD06998246289809F0B5FDD1
:104EE00005998346219809F0B0FD011C584609F048
:104EF00095FD011C504609F091FD211C82461A982F
:104F000009F0A3FD291C8346139809F09EFD011C9E
:104F1000584609F083FD049983460C9809F095FDE5
:104F2000011C584609F07AFD011C504609F076FD37
:104F30004346311CD860379809F087FD391C8246FA
:104F4000309809F082FD011C504609F067FD069972
:104F50008246299809F079FD05998346229809F03F
:104F600074FD011C584609F059FD011C504609F01A
:104F700055FD211C82461B9809F067FD291C8346BC
:104F8000149809F062FD011C584609F047FD049988
:104F900083460D9809F059FD011C584609F03EFD65
:104FA000011C504609F03AFD4346311C18613898FF
:104FB00009F04BFD391C8246319809F046FD011C71
:104FC000504609F02BFD069982462A9809F03DFDCE
:104FD00005998346239809F038FD011C584609F0CD
:104FE0001DFD011C504609F019FD211C82461C982C
:104FF00009F02BFD291C8346159809F026FD011C9C
:10500000584609F00BFD049983460E9809F01DFDE2
:10501000011C584609F002FD011C504609F0FEFC37
:10502000434605995861249809F00FFD0699824678
:105030002B9809F00AFD011C504609F0EFFC391CC1
:105040008246329809F001FD311C071C399809F09D
:10505000FCFC011C381C09F0E1FC011C504609F065
:10506000DDFC291C061C169809F0EFFC211C051C10
:105070001D9809F0EAFC011C281C09F0CFFC0499DA
:10508000041C0F9809F0E1FC011C201C09F0C6FC6F
:10509000011C301C09F0C2FC434698611C239C464D
:1050A000089BE144E044994500D045E6A2ACA04607
:1050B000F6AB0693DAAB3C940893079B33981A68D7
:1050C000596D0492069A8946D669196FDD69059172
:1050D000311C9C6B176809F0B8FC391C82462C986F
:1050E00009F0B3FC011C504609F098FC0599824672
:1050F000259809F0AAFC494683461E9809F0A5FCAC
:10510000011C584609F08AFC011C504609F086FC37
:10511000211C8246179809F098FC291C8346109898
:1051200009F093FC011C584609F078FC0499834669
:10513000099809F08AFC011C584609F06FFC011C13
:10514000504609F06BFC41460860311C349809F068
:105150007CFC391C82462D9809F077FC011C5046D6
:1051600009F05CFC05998246269809F06EFC4946D8
:1051700083461F9809F069FC011C584609F04EFC53
:10518000011C504609F04AFC211C8246189809F07F
:105190005CFC291C8346119809F057FC011C5846F9
:1051A00009F03CFC049983460A9809F04EFC011C66
:1051B000584609F033FC011C504609F02FFC4146CB
:1051C0004860311C359809F040FC391C82462E9805
:1051D00009F03BFC011C504609F020FC0599824671
:1051E000279809F032FC49468346209809F02DFCA7
:1051F000011C584609F012FC011C504609F00EFC37
:10520000211C8246199809F020FC291C834612981B
:1052100009F01BFC011C584609F000FC0499834668
:105220000B9809F012FC011C584609F0F7FB011C11
:10523000504609F0F3FB41468860311C369809F06E
:1052400004FC391C82462F9809F0FFFB011C5046D4
:1052500009F0E4FB05998246289809F0F6FB4946D7
:105260008346219809F0F1FB011C584609F0D6FB52
:10527000011C504609F0D2FB211C82461A9809F005
:10528000E4FB291C8346139809F0DFFB011C5846F8
:1052900009F0C4FB049983460C9809F0D6FB011C65
:1052A000584609F0BBFB011C504609F0B7FB4146CC
:1052B000C860311C379809F0C8FB391C8246309809
:1052C00009F0C3FB011C504609F0A8FB0599824672
:1052D000299809F0BAFB49468346229809F0B5FBA4
:1052E000011C584609F09AFB011C504609F096FB38
:1052F000211C82461B9809F0A8FB291C83461498A0
:1053000009F0A3FB011C584609F088FB0499834669
:105310000D9809F09AFB011C584609F07FFB011C0F
:10532000504609F07BFB41460861311C389809F072
:105330008CFB391C8246319809F087FB011C5046D2
:1053400009F06CFB059982462A9809F07EFB4946D4
:105350008346239809F079FB011C584609F05EFB4F
:10536000011C504609F05AFB211C82461C9809F08A
:105370006CFB291C8346159809F067FB011C5846F5
:1053800009F04CFB049983460E9809F05EFB011C62
:10539000584609F043FB011C504609F03FFB4346C9
:1053A00049465861249809F050FB059981462B988D
:1053B00009F04BFB011C484609F030FB391C8146C3
:1053C000329809F042FB311C071C399809F03DFB6B
:1053D000011C381C09F022FB011C484609F01EFB89
:1053E000291C061C169809F030FB211C051C1D9871
:1053F00009F02BFB011C281C09F010FB0499041C6C
:105400000F9809F022FB011C201C09F007FB011C6E
:10541000301C09F003FB414688611C218C46069A2A
:10542000079B04320692089A04330793E0449A4299
:1054300000D042E63AAA94463D9B764A9946754B7F
:10544000624463441B6812681B68D3AC0793714BBA
:1054500063441B68DB6908936E4B63441B689B6B5A
:1054600009936C4B63441B685B6D0A93694B6344FF
:105470001B681B6F0B938C23D358664A0C93654BA8
:10548000624463441B685B680D93624B63441B6812
:105490001B6A0E935F4B63441B68DB6B0F935D4B82
:1054A00063441B689B6D10935A4B63441B685B6F8E
:1054B000126811939023D358564A1293554B624465
:1054C00063441B6812689B681393524B63441B68C8
:1054D0005B6A14934F4B63441B681B6C15934D4BD5
:1054E00063441B68DB6D16934A4B63441B689B6FD8
:1054F00017939423D358474A1893464B6244634406
:105500001B68DB681993434B63441B689B6A1A93BF
:10551000404B63441B685B6C1B933E4B63441B68AE
:1055200012681B6E1C933B4B63441B68DB6F1D931F
:105530009823D358374A1E93364B624463441B6802
:1055400012681B691F93334B63441B68DB6A20930B
:10555000304B63441B689B6C21932E4B63441B6848
:105560005B6E22938023D3582A4A23939C23624460
:105570001268D358274A2493264B624463441B681D
:105580005B692593234B63441B681B6B2693214B5C
:10559000126863441B68DB6C27931E4B63441B68D3
:1055A0009B6E28938423D3581A4A2993A0236244DC
:1055B0001268D358174A2A93164B624463441B68F7
:1055C00012689B692B93134B63441B685B6B2C9392
:1055D000104B63441B681B6D2D930E4B63441B687B
:1055E000DB6E2E938823D3580A4A2F93A423624458
:1055F0001268D35822003093074B63441B689846C7
:10560000D3AB06939023434431934B464446904694
:10561000329303E0340800002C0800006368E2685D
:105620009946A368089948460493059209F00DFA33
:1056300009998246049809F008FA011C504609F0BD
:10564000EDF9276882460799381C09F0FEF9011C1C
:10565000504609F0E3F9266982460B99301C09F09F
:10566000F4F9656983460C99281C09F0EEF9011CD0
:10567000584609F0D3F90A998346059809F0E5F9E7
:10568000011C584609F0CAF9011C504609F0C6F938
:10569000414608600E99484609F0D7F90F998246AD
:1056A000049809F0D2F9011C504609F0B7F90D9998
:1056B0008246381C09F0C9F9011C504609F0AEF9C0
:1056C00011998246301C09F0C0F912998346281CB2
:1056D00009F0BBF9011C584609F0A0F9109983465E
:1056E000059809F0B2F9011C584609F097F9011C18
:1056F000504609F093F9414648601499484609F02C
:10570000A4F915998246049809F09FF9011C5046A6
:1057100009F084F913998246381C09F096F9011CA6
:10572000504609F07BF917998246301C09F08DF933
:1057300018998346281C09F088F9011C584609F07D
:105740006DF916998346059809F07FF9011C5846B2
:1057500009F064F9011C504609F060F9414688607F
:105760001A99484609F071F91B998246049809F084
:105770006CF9011C504609F051F919998246381C00
:1057800009F063F9011C504609F048F91D99824659
:10579000301C09F05AF91E998346281C09F055F966
:1057A000011C584609F03AF91C998346059809F0FE
:1057B0004CF9011C584609F031F9011C504609F01A
:1057C0002DF94146C8602099484609F03EF92199D3
:1057D0008246049809F039F9011C504609F01EF977
:1057E0001F998246381C09F030F9011C504609F017
:1057F00015F923998246301C09F027F9249983462C
:10580000281C09F022F9011C584609F007F92299D1
:105810008346059809F019F9011C584609F0FEF86D
:10582000011C504609F0FAF841460861269948469D
:1058300009F00BF927998246049809F006F9011C32
:10584000504609F0EBF825998246381C09F0FDF81E
:10585000011C504609F0E2F829998246301C09F0F3
:10586000F4F82A998346281C09F0EFF8011C5846E1
:1058700009F0D4F828998346059809F0E6F8011C48
:10588000584609F0CBF8011C504609F0C7F84346CA
:105890002C995861484609F0D8F82D99814604980A
:1058A00009F0D3F8011C484609F0B8F82B99814655
:1058B000381C09F0CAF8011C484609F0AFF82F99C6
:1058C000071C301C09F0C1F83099061C281C09F08F
:1058D000BCF8011C301C09F0A1F82E99051C059894
:1058E00009F0B3F8011C281C09F098F8011C381CB9
:1058F00009F094F8434698611C239C46319B183468
:10590000E044A34200D089E6F6AB05933C9CDAABB9
:105910003193069B0899DA691F6891469A6B48464D
:1059200090465A6D1E6F0492059A20CA059209F09E
:105930008CF809998246404609F087F8011C5046C8
:1059400009F06CF807998246381C09F07EF8011CB2
:10595000504609F063F80B998246301C09F075F83F
:105960000C998346281C09F070F8011C584609F070
:1059700055F80A998346049809F067F8011C5846BF
:1059800009F04CF8011C504609F048F8011C206849
:1059900009F044F80E992060484609F056F80F992E
:1059A0008246404609F051F8011C504609F036F88D
:1059B0000D998246381C09F048F8011C504609F040
:1059C0002DF811998246301C09F03FF81299834650
:1059D000281C09F03AF8011C584609F01FF81099E4
:1059E0008346049809F031F8011C584609F016F86E
:1059F000011C504609F012F8011C606809F00EF80D
:105A000018996060281C09F020F817998246301C0C
:105A100009F01BF8011C504609F000F8169982465F
:105A2000049809F012F8011C504608F0F7FF149989
:105A30008246484609F009F815998346404609F020
:105A400004F8011C584608F0E9FF13998346381CF6
:105A500008F0FBFF011C584608F0E0FF011C50460F
:105A600008F0DCFF011CA06808F0D8FF1E99A060B8
:105A7000281C08F0EAFF1D998246301C08F0E5FF5B
:105A8000011C504608F0CAFF1C998246049808F091
:105A9000DCFF011C504608F0C1FF1B9982464046BE
:105AA00008F0D3FF1A998346484608F0CEFF011C40
:105AB000584608F0B3FF19998346381C08F0C5FF13
:105AC000011C584608F0AAFF011C504608F0A6FF2A
:105AD000011CE06808F0A2FF2099E060484608F049
