:020000041000EA
:1000000000B5324B212058609868022188439860DF
:10001000D860186158612E4B002199600221596106
:100020000121F02299502B49196001219960352056
:1000300000F044F80222904214D00621196600F024
:1000400034F8196E01211966002018661A6600F04E
:100050002CF8196E196E196E052000F02FF8012189
:100060000842F9D1002199601B49196000215960AB
:100070001A491B48016001219960EB211966A021F2
:10008000196600F012F800219960164914480160C1
:100090000121996001BC002800D000471248134993
:1000A000086003C880F30888084703B5996A0420EC
:1000B0000142FBD001200142F8D103BD02B5186610
:1000C0001866FFF7F2FF186E186E02BD00000240BE
:1000D000000000180000070000035F00212200005C
:1000E000F4000018222000A00001001008ED00E03C
:1000F00000000000000000000000000074B24E7A12
:1001000000200420F7010010C3010010C5010010F9
:10011000C1010010C1010010C1010010C101001097
:10012000C1010010C1010010C1010010C701001081
:10013000C1010010C1010010C9010010CB01001065
:10014000CD010010CD010010CD010010CD01001037
:10015000CD010010CD010010CD010010CD01001027
:10016000CD010010CD010010CD010010CD01001017
:10017000CD010010CD010010CD010010CD01001007
:10018000CD010010CD010010CD010010CD010010F7
:10019000CD010010CD010010CD010010CD010010E7
:1001A000CD010010CD010010CD010010CD010010D7
:1001B000CD010010CD010010CD010010CD010010C7
:1001C00000BE00BE00BE00BE00BE00BEEFF3058054
:1001D000103800BEF2EB88717C4105109C4105107F
:1001E0003402001090A31AE700201F49086006C8D7
:1001F00081F3088810471D48006800282FD10DA4FE
:100200000ECC002902D000F012F8F9E71849194A7B
:10021000002000E001C19142FCD1174988471749ED
:1002200088471749884700BEFDE701C901C29A42C5
:10023000FBD370479C410510C0000020902C00208B
:100240006C6D051000000420000004206C6D05108A
:10025000001004200010042000000000704709482E
:100260000DF0ECF80047000008ED00E0000000D0C1
:10027000902C0020C058032031BC00105503001002
:1002800065BD00105756000006005250ABB36053D6
:10029000509D041006005250861C0302609D0410FD
:1002A000060052505422A29D6C9D0410050052502D
:1002B000DE65F4686C6D0510F8B5C0460448054B62
:1002C00010B5834203D0044B002B00D0984710BDDB
:1002D000902C0020902C00200000000006480749C8
:1002E000091A8B10C90FC91810B5491003D0044B57
:1002F000002B00D0984710BD902C0020902C00209F
:100300000000000010B5074C2378002B09D1FFF73F
:10031000D5FF054B002B02D0044800E000BF0123AD
:10032000237010BDD8300020000000007098041029
:10033000054B10B5002B03D00449054800E000BF71
:10034000FFF7CCFF10BDC04600000000DC300020ED
:100350007098041070B5192009F036FFD023802260
:100360001B0692045A620EF0D9FF00F047F806F01F
:1003700013FD08F025F906F0D5FF09F0B1FA0022C7
:100380000524144B1A7006F0B5F9134D013C2100F9
:1003900028000EF0B7FFFA2080000AF025FD002C9F
:1003A000F4D10A200EF00EFE012200210B480AF0C3
:1003B000E3F90B4811F062F901220A4B0A4C1A705A
:1003C0002378012BFCD108F0B7FA2378012BFAD05F
:1003D000F6E7C046A458032070980410D4570320B1
:1003E0007D8B0010A3580320A858032010B50248A5
:1003F00011F06CFC10BDC04690380320092370B585
:1004000086B0059304330493023B0393013B0293AC
:10041000023B324D324C0193324B22003249334879
:1004200000932B0005F024FE142005F01DFEFA2099
:1004300080000AF0D9FC2E4E21003200280006F080
:100440002FF83378682B08D02A4C20000EF006FED7
:10045000FA2080000AF0C8FCF7E773783D2BF3D14F
:1004600001222100280006F03FF8234E320021002F
:10047000280006F073F83378002BF7D10122210011
:10048000280005F0EFFE0121200005F0CDFE03213C
:10049000200005F05FFE0321280005F089FF1321ED
:1004A000200006F0C9F81221200006F003F900210F
:1004B000200006F0E1F80321200006F06BF802218D
:1004C000200006F083F85521200005F061FE182178
:1004D000280005F007FF06B070BDC0467820032055
:1004E0005C32002040420F009C200020942000201D
:1004F0006458032084980410BD580320F0B5C64604
:10050000334C344D344E22002900300000B505F044
:10051000D9FF6378DB439B0720D023781B0702D4E5
:1005200080BCB846F0BD2D4C0622002120000EF004
:1005300017FC2100300005F095FF0023E05E05F078
:10054000FFFD274D28600223E05E05F0F9FD68609D
:100550000423E05E05F0F4FDA860E1E7214B0622EC
:100560009846180000210EF0FBFB1F4F06220021C9
:1005700038000EF0F5FB4146280005F055FF390024
:10058000280005F033FF43460020185E05F0C4FD47
:100590004346164D28600220185E05F0BDFD434617
:1005A00068600420185E05F0B7FDA8600023F85EBF
:1005B00005F0BCFD0E4D28600223F85E05F0B6FD87
:1005C00068600423F85E05F0B1FDA860A5E7C046A9
:1005D000E84D03205C32002078200320903E032069
:1005E00030430320803E0320883E03200C3D03203F
:1005F0002C3D0320F0B55746DE464E464546E0B555
:100600008BB008919246190005900993DA170323DD
:100610008C46134063449B109B009846002B00DCE3
:1006200090E05246159B00249B000193149B9B1A5B
:10063000159A9B1A089A9B00029353681268190135
:1006400094460491069251469A00039252468D00B8
:100650000021013A92000792002289465900DE00EB
:10066000CB189B009B461300424665440092019ABA
:1006700094469C44039B1A199F195346002B1EDD78
:10068000069B059819196346804600989B004344D1
:1006900080460094086818600098081A845804314D
:1006A0005C6084599C60C059D86010338D42F1D190
:1006B00043460799009363468C4604339C440421C7
:1006C000029B5A4463448C461400049A3E00E14461
:1006D0009446009A5E4465444A45C8DC1A00009B73
:1006E0009846099B434526DD1499159C089B0D1BD4
:1006F000514609CB6D1A00291DDD41469E004B4332
:100700009B00C01853469C00059B47469C46099B8E
:10071000AB469846159B994600234A449100614494
:10072000C558CD5004339C42FAD1524401375A4443
:100730008019B845F0D10BB0F0BCBB46B246A94613
:10074000A046F0BD0022CCE7F0B54746CE4680B5C6
:100750001F00002B1DDD002A1BDD9300C0180B6855
:10076000002498464B689100D200494252428C4680
:1007700091469B00614645182900A2004244166834
:10078000D21840C18142FAD14A460134A81AA74280
:10079000F0D1C0BCB946B046F0BDC046F0B5DE46AB
:1007A00057464E4645460023E0B51360836887B040
:1007B0009A46059200230268052693460093013B62
:1007C000039002910493052355469B1B98465D4375
:1007D0005B46002B00D18DE14544AD005D442B68A4
:1007E0005C006B6864085F007F08391C381C0EF0E1
:1007F00080F9002800D0DFE0211C381C0EF074F9CD
:10080000002800D0DFE00027731C9A46022B53D942
:10081000AB685B005B08191C181C99460EF069F95F
:10082000002800D046E14846211C0EF05DF9002862
:1008300001D04C4602275346032B3DD0EB685B00AA
:100840005B08191C181C99460EF053F9002800D0BB
:1008500038E14846211C0EF047F9002801D04C46EB
:1008600003275346042B27D02B695B005B08191C18
:10087000181C99460EF03DF9002800D02AE149469F
:10088000201C0EF023F9002801D04C4604275346C3
:10089000052B11D06D696D006D08291C281C0EF008
:1008A00028F9002800D01DE1291C201C0EF00EF9AB
:1008B000002801D005272C1C029B009A47440021E8
:1008C0009F50201C0EF0FAF8002800D17EE0049B17
:1008D000013300D1E3E006239B1B45460193039BB4
:1008E0009B689A465D4306239F1B53469B0099468F
:1008F000019B52461C005443009A7F199446A50060
:1009000065449C460023BF005F44B8461F00644412
:10091000A4005D445C444346286819680EF09FF8C3
:10092000011C20680EF081F82060012E2DD943466D
:10093000286859680EF093F8011C60680EF075F88D
:100940006060022E21D04346296898680EF087F82F
:10095000011CA0680EF069F8A060032E15D0434674
:100960002968D8680EF07BF8011CE0680EF05DF88D
:10097000E060052E09D14346296818690EF06FF82A
:10098000011C20690EF051F8206101374D444C44A0
:10099000BE42C0D1009B013E04330093019B052B56
:1009A00000D010E71A00029B5A6107B0F0BCBB46AA
:1009B000B246A946A046F0BD211C201C0EF099F8B5
:1009C000002800D018E73C1C01271DE7474530D020
:1009D00059465C460098BB005B4409581D68039A61
:1009E00092682550196001009200594489189B189B
:1009F00008681C680C60186089189B1808681C68D7
:100A00000C60186089189B1808681C680C601860D6
:100A100089189B1808681C680C60186089189B1856
:100A200018680A6808601A60059A13680193013310
:100A300013604546039B5A469B685D439A460623CE
:100A40009B1B0193EC1843465B199B009F58A40025
:100A50005C442068391C0DF0EEFF2060012E00D8A8
:100A600041E76068391C0DF0E6FF6060022E00D19E
:100A700039E7A068391C0DF0DEFFA060032E00D11D
:100A800031E7E068391C0DF0D6FFE060042E00D19C
:100A900029E72069391C0DF0CEFF206123E70623EA
:100AA00045469B1B0193039B9B689A465D434346C7
:100AB000049318E7211C201C0EF01BF8002800D11D
:100AC000B7E6B0E6211C201C0EF013F8002800D178
:100AD000C5E6BEE6211C201C0EF00BF8002800D154
:100AE000D3E6CCE6211C201C0EF003F8002800D130
:100AF000E0E6D9E61B68FFDEF0B55746DE464E4617
:100B00004546E0B599B01493249B8246259C2698CF
:100B10005D1C00D1229B651C00D1229C239DEE17F9
:100B200003253540239EB4466544AD10AF0007252C
:100B3000229E0E97AE4335000096149E002E00DCD8
:100B400088E29B001693230110930301D318179397
:100B50006B1EDB0801330391D9015B010F93A300E6
:100B60007C43201880001193131815930023D3465B
:100B7000139108930E9B002B00DCC2E10F9A039B9C
:100B8000944663441293179BD84601930023029323
:100B90000298434601000CCB089C5943A44661448B
:100BA000890051180991411C594361448900511829
:100BB0000A91811C59436144890051180B91C11C51
:100BC0004B4363449B00D318019E0C93009B34005D
:100BD000002B00DC45E2039B0025994600234C4690
:100BE000AA46AB46A946069504952F1C0595079580
:100BF0000D9325683168281C0DF031FF59460DF022
:100C000017FF71688346281C0DF029FF51460DF02F
:100C10000FFFB1688246281C0DF021FF07990DF0E7
:100C200007FFF1680790281C0DF019FF05990DF0DA
:100C3000FFFE059065683169281C0DF010FF391C16
:100C40000DF0F6FE7169071C281C0DF008FF0499D1
:100C50000DF0EEFEB1690490281C0DF000FF06991E
:100C60000DF0E6FEF1690690281C0DF0F8FE4946ED
:100C70000DF0DEFE8146A568316A281C0DF0EFFEFE
:100C800059460DF0D5FE716A8346281C0DF0E7FE2B
:100C900051460DF0CDFEB16A8246281C0DF0DFFEF4
:100CA00007990DF0C5FEF16A0790281C0DF0D7FEDC
:100CB00005990DF0BDFE0590E568316B281C0DF01F
:100CC000CEFE391C0DF0B4FE716B071C281C0DF014
:100CD000C6FE04990DF0ACFEB16B0490281C0DF01B
:100CE000BEFE06990DF0A4FEF16B0690281C0DF0D7
:100CF000B6FE49460DF09CFE81462569316C281CE4
:100D00000DF0ADFE59460DF093FE716C8346281C24
:100D10000DF0A5FE51460DF08BFEB16C8246281CED
:100D20000DF09DFE07990DF083FEF16C0790281CD5
:100D30000DF095FE05990DF07BFE05906569316D0E
:100D4000281C0DF08CFE391C0DF072FE716D071C15
:100D5000281C0DF084FE04990DF06AFEB16D04901C
:100D6000281C0DF07CFE06990DF062FEF16D0690D8
:100D7000281C0DF074FE49460DF05AFE8146A56907
:100D8000316E281C0DF06BFE59460DF051FE716E50
:100D90008346281C0DF063FE51460DF049FEB16EEE
:100DA0008246281C0DF05BFE07990DF041FEF16EA6
:100DB0000790281C0DF053FE05990DF039FE0590A3
:100DC000E569316F281C0DF04AFE391C0DF030FE2C
:100DD000716F071C281C0DF042FE04990DF028FECF
:100DE000B16F0490281C0DF03AFE06990DF020FE1C
:100DF000F16F0690281C0DF032FE49460DF018FEEA
:100E00008146803620340D9B009A08330D939A4218
:100E100000DDEEE6139B019C9C46051C5946381CE0
:100E200064440DF005FE5146071C04980DF000FEC9
:100E30000799061C06980DF0FBFD05998146281CB4
:100E40000DF0F6FD129B051C9A46229A009B9A42D1
:100E500030DDAB460493534620CB2168281C9A46CC
:100E60000DF0FDFD011C381C0DF0E2FD6168071C52
:100E7000281C0DF0F4FD011C301C0DF0D9FDA168FB
:100E8000061C281C0DF0EBFD011C48460DF0D0FDA2
:100E9000E1688146281C0DF0E2FD011C58460DF06A
:100EA000C7FD8346049B229A0133103404939A426F
:100EB000D1D1051C311C0A9E30680DF0B6FD391CDD
:100EC000099F041C38680DF0B0FD291C0C9D38608A
:100ED000346028680DF0A9FD0B9E4946041C30685B
:100EE0000DF0A3FD1099019A8C46029B6244019279
:100EF0000E9A0433306002932C609A4200DD47E67C
:100F0000C3460F9A039B944663440E9A0293239B15
:100F10009246159D934200DC90E05B465C68534628
:100F20005C43089B2F009C465B461B6864449C46C0
:100F3000009BA4006444002B00DC99E00023039F85
:100F400099463B00A04600262F001C003968206807
:100F50000DF085FD311C0DF06BFD061C7968606895
:100F60000DF07DFD311C0DF063FD061CB968A06815
:100F70000DF075FD311C0DF05BFD061CF968E06895
:100F80000DF06DFD311C0DF053FD061C3969206913
:100F90000DF065FD311C0DF04BFD061C7969606993
:100FA0000DF05DFD311C0DF043FD061CB969A06913
:100FB0000DF055FD311C0DF03BFD061CF969E06993
:100FC0000DF04DFD311C0DF033FD061C2037203493
:100FD00008239C46009BE1444B45B7DC44460F9BED
:100FE000EF18029B0193229A009B9A4217DD9946C3
:100FF0000023984643464246F958019B98580DF005
:101000002EFD011C301C0DF013FD061C01239C4617
:101010000333E1449C46229BE0444B45EAD12068DF
:10102000311C0DF002FD01239C46119BE2449C46BD
:10103000239B20606544534500D06EE71699039AC0
:101040008C46089B62440392149A013308939A4297
:1010500000D08FE519B0F0BCBB46B246A946A04609
:10106000F0BD0025039BA9469A462E1C2F1CECE6DA
:10107000039B00260193B6E7F0B557464E46DE4681
:1010800045468024E0B5B5B006AF3C1920609420F9
:101090007B63E823AE4E38180160BA63FB181C6806
:1010A0003378BFF35B8FDB0700D477E2A94D902242
:1010B0002369BA1813608422A368BA1813608022C7
:1010C000BA1812686D68934202DD8423FB181A6017
:1010D00094218423902279180E688C21FB18BA1869
:1010E00012681B6856435343226879180A60002A25
:1010F00000D180E29B003B660023BB6763687B678F
:10110000002B00D163E2B300FB6500233B6798220C
:101110000423BA1813609033FB181B68002B19DDE9
:101120008023E422FB18BA181B6812681900934246
:1011300000DA4AE2280009010CF0DAF90323C217A9
:10114000134098221B189B109B00BA181360042BA5
:1011500000DA35E28023FB181968002900DCA9E1D8
:1011600090207B6B38181A000068796484464243EB
:10117000091A3A616244B9647A609821E4227918C4
:10118000BA18126809684A43BA619A007A6104324F
:10119000FA61A02201339B00BA181360E423FB1804
:1011A0001B689B009B460023FB63FB643B64BB66A0
:1011B0009C227B6CBA1813609022BA181268934272
:1011C00002DD9C23FB181A609423FB181B68002B7C
:1011D00000DC47E19C23FB181A68002A00DC41E18F
:1011E0009423E021FB181B687918BB6598230968D4
:1011F000FB188C461B68B86E53439B00BB607B6F2B
:101200001100FB6783006344FB6000238C46FB6690
:10121000FB620B00B021791839630321013B043ACA
:101220008B436044D31A38603B629822BA18BB6D76
:1012300012689A46934200DD9246FA68FB6E944625
:101240009B0063447B66FB6B88227B65FB6CBA1852
:101250003B659C23FB181B6813609C23FB181A68D2
:101260008823FB181B68D21ABA62A422BA1813602A
:10127000042B03DDA4220423BA1813608823FB186F
:101280003A681B68D21A7A62002B65DDA423BA6B18
:10129000FB189146A8221B68BA18013B98467B6D43
:1012A0009B0099447B6E1360AC220023BA18136034
:1012B000AC23AC22FB181B68BA18013313604346F9
:1012C000002B2CDDA8230025FB181C684B46266844
:1012D0005968301C0DF0C3FB011C60680DF0A5FBC4
:1012E00043466060012B16D04B46301C99680DF0C8
:1012F000B6FB011CA0680DF098FB4346A060022BD2
:1013000009D04B46301CD9680DF0A9FB011CE068E0
:101310000DF08BFBE06001355C445545D6D10123CF
:101320005B429C46A133FB181B68E0449C46A82303
:10133000A822FB181B68BA1804331360AC23A4223C
:10134000FB18BA181B681268E1449342B0DB03E053
:10135000E0220320A43803208823A422FB18BA1813
:101360001B681268396B9D1A7B6EBE6A0B60E423A2
:10137000FB181B6891464B609C230196FB181B6869
:1013800088460093F86F5346FFF734F9002D37DD98
:1013900041467C6A386D4C440319B86B4A46844612
:1013A000786B9B004860A420381802608C203818A5
:1013B000006863440B602B0081463963FFF7C4F972
:1013C000E022FB6EBA181B1914689B00A0463C6B08
:1013D00043442360E423FB1819689C236160FB18D5
:1013E00004961B6849460393A423FB181A685346C6
:1013F0000292019300922B002000FA6FFFF77CFB12
:10140000882388227969FB188C461B68BA18043B2C
:10141000F96913603A6D62448C463A657A6E10320F
:101420007A667A6D62447A653A6A9A4200D014E725
:101430009822BA181268B96D9446FB6A8A1AB9697B
:1014400063448C46BA65B968FA6EFB6262448C46A6
:10145000FA66FA6F6244FA679422BA1812689A42DE
:1014600000DDE2E69022BA181268BB6E9446802234
:10147000BA1812686344BB6693421BDA8423FB18D4
:101480001B68002B38DC90233969FB188C467A6C7A
:101490001B68D21A7A643A6C62443A64BA6CD31A02
:1014A000BB647A68FB6C63449446FB64FB6B6344E7
:1014B000FB637DE68023FA6D9B029A4207D93A6F5F
:1014C000002A04D0531E1878101A0DF031FC802326
:1014D0003A6E9B029A4207D9BA6F002A04D0531E73
:1014E0001878101A0DF024FCBD462FB0F0BCBB4696
:1014F000B246A946A046F0BDBA6B3B6C92469B0033
:101500009A44B023FE18B13B9946BD6CBC6E84234F
:10151000FB181B68A8469D4200DD9846AC22A3003C
:10152000BA1813607A6B8C2072609C225344BA18EC
:10153000381831001268006833604346FFF704F939
:10154000E022AC23BA181268FB1894461B688C2161
:1015500063443360E423FB181B687918736000232D
:1015600004934B46039302939423FB181B683000AB
:1015700001939C23FB181B6800937A6F434609680C
:10158000FFF7BAFA8423FB181B689C46ED1A8023E8
:10159000FB181B686444A342B9DC74E7300010F008
:1015A00093F8364D002800D181E58023DB012B60C4
:1015B00080231B0330006B60AB6010F0A1F876E570
:1015C00098220423BA181360C4E51100B2E5802301
:1015D000B200FA659B029A423AD813006A46163363
:1015E000DB08DB00D31A9D4627200F23684498436D
:1015F000386778678BE59A0080233A669B029A42A7
:101600000FD813006A461633DB08DB00D31A9D4659
:1016100027200F23684498437D33FB18B867186070
:101620006CE5100010300DF065FBB867002800D1A4
:1016300064E50F221023844602409B1ADBB29C44CF
:1016400061464A1E13708C23FB18B967196055E573
:10165000100010300DF04EFB3867002800D156E521
:101660000F221023844602409B1ADBB29C44614641
:101670004A1E39671370796749E5C046A4380320CC
:10168000F0B557464E46DE464546E0B5B7B006AF24
:10169000824684207B65F023CB4E38180160BA6304
:1016A000FB181C683378BFF35B8FDB0700D49DE227
:1016B000C64D23696D683B67A368BB67534501DD71
:1016C0005346BB67842179180E6880213A6FBB6F3F
:1016D00056435343226879180A60002A00D1B4E2C5
:1016E0009B003B650023FB666368BB66002B00D153
:1016F00097E2B300FB6400237B6688220423BA18B8
:1017000013608033FB181B68002B16DDEC23FB18DD
:101710001B6851469A4500DA7FE2280009010BF068
:10172000E7FE0323C217134088221B189B109B005F
:10173000BA181360042B00DA6AE25346002B00DC6F
:1017400032E27A6D386F1100434259430B00B9629F
:1017500051460C1A110062431B1A9B00BA647B604D
:101760000A000B0051464B43B96B53448C46E821A9
:101770009B006344FB637918830009685B423B600C
:1017800053468C469B006344EC21BB658823791843
:10179000FB1809681B687C674B4390213B619300F1
:1017A0005B4279180B60043BBB609B00FB60D3433A
:1017B00094229B00BA181360EC23A822FB181B6824
:1017C000BA189B001360544603008C22BA181360A9
:1017D000A34200DD14608423FB181B68002B00DC8F
:1017E00076E18C23FB181A68002A00DC70E1842360
:1017F000FB181B68B96D7B648823FB181B68534377
:101800009B00FB61BB6EFB659300CB1A3B62002320
:10181000B8213B667B63A31A7918FB621300396316
:101820000321013B043A8B43D31A7B61AC227B6CCE
:10183000BA1813608822BA181268934202DDAC23EA
:10184000FB181A603A6A3B6E94469B009C446246C1
:101850007A62BA6D944698226344BA181360FB6B9F
:101860003B648C23FB181B68FB679C22FB6FBA1838
:101870001360042B03DD9C220423BA181360FA6F53
:10188000FB6A94466344BB61002A00DCA0E09C2311
:10189000396CA0208A46FB181B6838185A1E9346DC
:1018A000BA685B42524402607A6D9B1A9B009A446C
:1018B0000423A4225B4299460023BA181360A02394
:1018C000FE20FB181B68800519680DF0B4F8B423DE
:1018D000FB181860A423FB181B685A46DB439B1AAD
:1018E0009822BA18126800269446B0229C009B00E9
:1018F0005B42BA1864441360B023FB181B684A4665
:101900009846A04443469958B423FB1818680DF034
:10191000A6F843464A4698505B46051C002B22DD3C
:10192000534619680DF09BF8011C20680DF07DF8F6
:101930005B462060012B16D05346281C59680DF0D9
:101940008EF8011C60680DF070F85B466060022B39
:1019500009D05346281C99680DF081F8011CA06835
:101960000DF063F8A060A823FB181B6801369C46A5
:10197000AC23FB181B6864449E42BDD1A423A4225F
:10198000FB181B68BA1801331360012294215242DC
:10199000944679180968E3448C46A021A132BA180C
:1019A0001268791862440A600422524294469432C2
:1019B000BA181268E14494469C22BA181268E244AC
:1019C000934200DA7BE703E0E0220320A4380320FF
:1019D000E8219C2279180968BA188C46FB6F1268B6
:1019E000396B9C1ABB699D1A3B6E5B199B00634463
:1019F0000B60EC23FB181B684B608C230194FB18D5
:101A00001B680093AC23FB181B68F86DFEF7F2FD12
:101A1000002C30DD7A6DF96A13008C466B433D6B08
:101A2000B96B80206A609C2263448C463818066833
:101A30009B00BA181268634429002B603000230011
:101A40009046FEF781FEEC2228008C237D6ABA18AE
:101A500005601568FB18456004941D68AC22434678
:101A600003950293BA181268009301922300310083
:101A7000FA6DFFF741F898229821BA181268791880
:101A8000103A0A60F9683A6C8C46FB6F62443A641B
:101A90007A69043BFB679A4200D0E6E68822BA18CE
:101AA0001268796C94467B6B8A1AF96963448C4698
:101AB0007A643969FA6D7B6362448C46FA653A6EE2
:101AC00062443A668422BA1812689A4200DDADE692
:101AD0007B6F1C1E68DDBB6F002B00DCFEE7BA6B62
:101AE000BB6C93469B009B4400239946B833FE1879
:101AF000B93B9A4623004C4699467D6FBB6FA8467A
:101B00009D4200DD9846B422A300BA1813607A6D96
:101B1000802072608C225B44BA1838183100126839
:101B2000006833604346FEF70FFEE822B423BA187C
:101B30001268FB1894461B68802163443360EC23D1
:101B4000FB181B68791873600023049353460393B2
:101B500002938423FB181B68300001938C23FB182D
:101B60001B680093BA6E43460968FEF7C5FFBB6F5A
:101B70009C46ED1A7B6F6444A342BFDCBA6ABB6C1F
:101B800094467A6863449446BB643A68FB6B4C465F
:101B900063449446FB63BB6D3A6F6344BB657B6FE4
:101BA0009B1A7B67130010E68023FA6C9B029A4213
:101BB00007D97A6E002A04D0531E1878101A0DF037
:101BC000B7F880233A6D9B029A4207D9FA6E002A31
:101BD00004D0531E1878101A0DF0AAF8BD4631B083
:101BE000F0BCBB46B246A946A046F0BD30000FF09F
:101BF0006BFD374D002800D15BE58023DB012B60B6
:101C000080231B0330006B60AB600FF079FD50E563
:101C100088220423BA1813608FE5EC23FB18196897
:101C20007BE58023B200FA649B029A423AD8130003
:101C30006A461633DB08DB00D31A9D4627200F23A4
:101C4000684498437866B86657E59A0080233A65F9
:101C50009B029A420FD813006A461633DB08DB005A
:101C6000D31A9D4627200F23684498437133FB18ED
:101C7000F866186038E5100010300DF03BF8F86693
:101C8000002800D130E50F221023844602409B1A21
:101C9000DBB29C4461464A1E13708023FB18F96630
:101CA000196021E5100010300DF024F87866002846
:101CB00000D122E50F221023844602409B1ADBB29A
:101CC0009C4461464A1E79661370B96615E5C046A4
:101CD000A438032030B587B00D4B02AD00951A68CB
:101CE000694602929A880400AA809B796A46AB7181
:101CF000072301930023D3732CF078FC0098A842AB
:101D000003D0029901310DF047F8200007B030BD33
:101D100098980410F0B5DE4657464E464546E0B565
:101D20000E000168C7688946416805698A4681686E
:101D30008DB08B464169806907930690506813689F
:101D4000926805910A90291C30680B9209930895B6
:101D50000CF06BFE0599039070680CF066FE069916
:101D6000051CB0680CF061FE802680463606079898
:101D70000CF0F8FEB446039B0090019163441800F8
:101D800051460CF06CFE5946061C281C0CF067FEF0
:101D9000011C301C0CF049FE391C061C40460497FF
:101DA0000CF05DFE011C301C0CF03FFE0CF0DAFE66
:101DB0000022684B0BF013FE009A019B0BF00FFE04
:101DC000060048460F000CF0CDFE02000B0030006C
:101DD0003900169C0BF0DCFD0BF006FF4946206035
:101DE00003980CF03CFE5946061C40460CF037FEAA
:101DF000011C301C0CF01CFE0499061C281C0CF065
:101E00002EFE011C301C0CF010FE0CF0ABFE00226C
:101E1000504B0BF0E4FD009A019B0BF0E0FD060037
:101E200050460F000CF09EFE02000B0030003900FF
:101E30000BF0AEFD0BF0D8FE49466060281C0CF09C
:101E40000EFE5146061C40460CF009FE011C301CDB
:101E50000CF0EBFD0499061C03980CF000FE011C2D
:101E6000301C0CF0E5FD0CF07DFE0022394B0BF030
:101E7000B6FD009A019B0BF0B2FD060058460F001C
:101E80000CF070FE02000B00300039000BF080FDFA
:101E90000BF0AAFE4946A06040460CF0E0FD51461A
:101EA000061C281C0CF0DBFD011C301C0CF0C0FDD6
:101EB0005946051C03980CF0D2FD011C281C0CF09F
:101EC000B4FD0CF04FFE0022224B0BF088FD009A6F
:101ED000019B0BF084FD060004980F000CF042FEFD
:101EE00002000B00300039000BF052FD0BF07CFEBD
:101EF000089B0999E060181C98460CF0B0FD079DFE
:101F0000291C0CF0ACFD011C40460CF08EFD059F19
:101F10000A992061381C0CF0A2FD291C0CF09FFDD1
:101F2000011C381C0CF081FD069E0B996061301C71
:101F30000CF095FD291C0CF092FD011C301C0CF0DE
:101F400074FDA06100200DB0F0BCBB46B246A946AE
:101F5000A046F0BD0000E03FF0B5DE4657464E46D5
:101F600045468A464168E0B58846C768816891B0B1
:101F7000066889464046391C141C04930CF06FFD1A
:101F80004946051C301C0CF06AFD0A90011C281CF7
:101F900009950CF04AFD0CF0E5FD02000B000BF07A
:101FA000F7FC06900791201C02940CF0DBFD0B005F
:101FB000020004000D00069807990BF010FD0BF0CD
:101FC00013FE5246391C106048460CF048FD83460B
:101FD0004146301C0CF043FD5A460E90011C5846F9
:101FE0000B920CF025FD0CF0BDFD02000B000BF078
:101FF000CFFC02000B00200029000C920D930BF087
:10200000EEFC0BF0F1FD5446311C6060301C0CF00E
:1020100026FD4146041C40460CF021FD051C011C18
:10202000201C0CF002FD4946089048460CF017FDB4
:10203000391C8346381C0CF012FD59460190089853
:102040000CF0F3FC01990CF0F3FC02990F900CF0EA
:1020500006FD53464946986040460CF000FD391C89
:102060008046301C0CF0FBFC81461A980CF07AFD7F
:1020700006001B980F000CF075FD02900391291CBF
:10208000201C0CF0D5FC59460CF0CFFC01990CF04B
:10209000CCFC04990CF0E3FC0CF064FD04000D0092
:1020A000404649460CF0C4FC0CF05CFD02000B00FD
:1020B0000BF06EFC32003B000BF091FC02000B00B9
:1020C000200029000BF064FC029A039B04000D0021
:1020D000069807990BF083FC02000B0020002900F2
:1020E0000BF056FC0BF080FD5346D86004980CF0C2
:1020F00039FD04000D00404649460CF096FC0CF0FA
:1021000031FD02000B000BF043FC22002B00049475
:1021100005950BF064FC04000D00089859460CF07E
:1021200087FC01990CF081FC1A990CF098FC0CF0DA
:1021300019FD02000B00200029000BF029FC029A77
:10214000039B04000D000C980D990BF048FC020055
:102150000B00200029000BF01BFC0BF045FD534643
:102160000A99186109980CF063FC0CF0FBFC020062
:102170000B000BF00DFC049A059B0BF030FC0400E7
:102180000D000B980E990CF050FC0CF0EBFC0200CB
:102190000B000BF0FDFB32003B000BF020FC0200BB
:1021A0000B00200029000BF0F3FB04000D000F983A
:1021B0001B990CF054FC0CF0D5FC02000B00200025
:1021C00029000BF0E5FB0BF00FFD53465861002092
:1021D00011B0F0BCBB46B246A946A046F0BDC04611
:1021E000F0B50400DE4657464E4645460800E0B5C9
:1021F00045680968AA46856895B0AB46C5684669D2
:10220000876910910E950169556810689268049667
:1022100090461A68069711925A689B681292139317
:10222000FE239B05236099460CF0FFFB0CF09AFC03
:10223000009001911E980CF095FC06000F0000988C
:1022400001990022924B0BF0CAFB32003B000BF0CD
:10225000C6FB0BF0C9FC04990390E061281C0CF04C
:10226000E4FB0CF07FFC0022894B049005910BF0FD
:10227000B6FB32003B000BF0B2FB0BF0B5FC06994D
:10228000051CA06340460CF0D0FB0CF06BFC002258
:102290007F4B069007910BF0A2FB32003B000BF046
:1022A0009EFB0BF0A1FC0A90606550460CF05AFCB6
:1022B0000022784B089009910BF091FB32003B0013
:1022C0000BF08DFB0BF090FC0B90206758460CF048
:1022D00049FC00226F4B0C900D910BF080FB3200FB
:1022E0003B000BF07CFB0BF07FFC8C238246E05024
:1022F0000E980CF037FC0022664B0E900F910BF0FD
:102300006EFB32003B000BF06AFB0BF06DFCA82368
:102310008346E0500022009801995E4B0BF05FFB72
:1023200032003B000BF05BFB0BF05EFC494600907B
:1023300060602162002206980799564B0BF04FFB14
:1023400032003B000BF04BFB0BF04EFCA5658046CA
:10235000E06310980CF006FC00224D4B0BF03FFBA5
:1023600032003B000BF03BFB0BF03EFC5946902348
:10237000051C60670022E1500C980D99444B0BF04E
:102380002EFB32003B000BF02AFB0BF02DFCAC23A4
:102390000022E050049805993E4B0BF020FB3200E0
:1023A0003B000BF01CFB0BF01FFC49460A9A8346CE
:1023B0006262009AA0602164E2650E980F99002283
:1023C000334B0BF00CFB32003B000BF008FB0BF027
:1023D0000BFC94230B99A067E5501C33E150414658
:1023E000E1605946A162494621665146039BE16777
:1023F0006364089809990022254B0BF0F0FA32002B
:102400003B000BF0ECFA0BF0EFFB9823E0501C3391
:10241000E55000251E9911982561E562A564656661
:102420000CF01DFB011C48460CF0FFFA8023E05025
:102430001C33E5501C33E550343B1E9912986561FE
:102440002563E564A566E5500CF009FB011C4846D0
:102450000CF0EBFAA023E0501C33E550343BA561AF
:1024600065632565E566E5501C33E5501E991398B4
:102470000CF0F5FA011C48460CF0D7FAC023E050E6
:10248000002015B0F0BCBB46B246A946A046F0BD40
:102490000000E0BF0000E03FF0B5DE4657464E4684
:1024A0004546E0B59A460B68141C8A689B464B6803
:1024B000C9688BB00500101C8846009301920CF08F
:1024C00051FB02900391201C0CF04CFBC023060032
:1024D0000F000298039900221B060BF080FA3200CD
:1024E0003B000BF07CFA0BF07FFB08902860404625
:1024F0000CF038FB02000B000BF04AFA32003B00F4
:102500000BF06DFA0BF070FB041CA86158460CF040
:1025100029FBC02300221B06049005910BF05FFAF3
:1025200032003B000BF05BFA0BF05EFB2863009877
:102530000CF018FB02000B00069007910BF028FA34
:1025400032003B000BF04BFA0BF04EFB00219023C6
:102550008946A8642966A967E950686004980599C6
:1025600002000B000BF014FA32003B000BF037FABC
:102570000BF03AFB6C630490E86102980399020047
:102580000B000BF005FA32003B000BF028FA0BF0C1
:102590002BFB49469423E8646966E967E950C02348
:1025A00006980799049A1B06AA6000220BF017FAF6
:1025B00032003B000BF013FA0BF016FB089B494668
:1025C000AB63802328622C65A966E9501833E95073
:1025D000404614990CF043FA019F1599061C381CCB
:1025E0000CF03DFA5146041C58460CF038FA311CE8
:1025F0000CF01EFA211C06940CF017FA011C0CF0CA
:1026000017FA51460990E86000980CF028FA1499DE
:10261000041C381C0CF023FA011C201C0CF008FAD6
:102620001599041C40460CF01AFA011C201C0CF0F1
:10263000FFF9011C0CF0FCF91499029068620098F3
:102640000CF00DFA1599089058460CF008FA019A0A
:102650008024944624066444071C514620000CF054
:10266000FEF908990CF0E4F9391C0CF0DEF9011CB4
:102670000CF0DEF91499E86358460CF0F0F915995E
:10268000049000980CF0EBF9802212064244041CDE
:10269000514610000CF0E3F904990CF0C9F9211C23
:1026A0000CF0C6F9011C0CF0C3F94A468423EA6613
:1026B0006865EA501833EA505146286101980CF0D9
:1026C000CEF908990CF0B1F9391C0CF0B1F9011CE4
:1026D0000CF0AEF9071CA8628020029B00062B6458
:1026E000514658440CF0BBF9311C0CF09EF9069988
:1026F0000CF09EF9011C0CF09BF98823A865484654
:102700002867E8501833E850514640466F610CF096
:10271000A6F904990CF089F9211C0CF086F9011C2A
:102720000CF086F9099AE8626A64029B4A46EB65F6
:102730004B466B678C230020EA501833EA500BB0ED
:10274000F0BCBB46B246A946A046F0BD0123F0B599
:10275000E3214746CE469C46294B804605009946D4
:10276000284E80B58900076846444144FA0F6F68D7
:10277000D2077B005B08346813435A086240644602
:102780001C4201D04B465A4004C50436A942EDD143
:10279000E32342469B00C626D458194B01259C468C
:1027A000F6004644E20F4C68D20763005B080768F6
:1027B00013435A087A401D4201D063465A40043000
:1027C00004C1B042EED14246C62140460E4BC9007C
:1027D000D3581268DB0F52005208DB0741581343ED
:1027E0005A084A40DB0701D5054B5A404146064B83
:1027F000CA5000220433CA50C0BCB946B046F0BD2E
:10280000DFB0089934060000BC090000F0B5454669
:10281000DE4657464E46E0B53C4CD723A54434AA85
:10282000944663441B091B018A6805930B68019257
:1028300037921A6804902D929A6933912E921A6BEE
:1028400038AC2F929A6C30921A6E06929A6F089258
:1028500090229A5807925A680A92DA690B925A6B38
:102860000C92DA6C0D925A6E0E92DA6F0F929422DD
:102870009A5810929A6811921A6A12929A6B13924D
:102880001A6D14929A6E159280229A581692982276
:102890009A581792DA6818925A6A1992DA6B1A9251
:1028A0005A6D1B92DA6E1C9284229A581D929C22B9
:1028B0009A581E921A691F929A6A20921A6C219253
:1028C0009A6D22921A6F239288229A582492A022FB
:1028D0009A5825925A692692DA6A27925A6C289257
:1028E000DA6D29925A6F2A928C229A582B92A4223E
:1028F0009B582C934B68984638AB3293C42343447F
:1029000009934346A0461C0002E0C0469CFDFFFF21
:10291000E168A26889462169236848460391309995
:10292000029201930CF09BF80399824606980CF0F2
:1029300096F8011C50460CF07BF867698246391CFA
:1029400008980CF08CF8A6698346311C07980CF0A7
:1029500086F8011C58460CF06BF8011C50460CF030
:1029600067F8656882462E99281C0CF078F82F9934
:10297000834602980CF073F8011C58460CF058F886
:102980002D99834601980CF06AF8011C58460CF00A
:102990004FF8011C50460CF04BF84346494618606E
:1029A0000D980CF05CF8039982460E980CF057F8DD
:1029B000011C50460CF03CF8391C82460F980CF074
:1029C0004EF8311C834610980CF049F8011C58460B
:1029D0000CF02EF8011C50460CF02AF8291C8246F7
:1029E0000B980CF03CF8029983460C980CF037F8E1
:1029F000011C58460CF01CF8019983460A980CF00B
:102A00002EF8011C58460CF013F8011C50460CF02F
:102A10000FF843464946586014980CF020F8039983
:102A2000824615980CF01BF8011C50460CF000F87B
:102A3000391C824616980CF012F8311C8346179800
:102A40000CF00DF8011C58460BF0F2FF011C50462B
:102A50000BF0EEFF291C824612980CF000F8029948
:102A6000834613980BF0FBFF011C58460BF0E0FF68
:102A70000199834611980BF0F2FF011C58460BF0A8
:102A8000D7FF011C50460BF0D3FF434649469860E0
:102A90001B980BF0E4FF039982461C980BF0DFFFB4
:102AA000011C50460BF0C4FF391C82461D980BF0E8
:102AB000D6FF311C83461E980BF0D1FF011C5846EF
:102AC0000BF0B6FF011C50460BF0B2FF291C8246EA
:102AD00019980BF0C4FF029983461A980BF0BFFFB8
:102AE000011C58460BF0A4FF0199834618980BF07F
:102AF000B6FF011C58460BF09BFF011C50460BF023
:102B000097FF43464946D86022980BF0A8FF0399E7
:102B1000824623980BF0A3FF011C50460BF088FF60
:102B2000391C824624980BF09AFF311C8346259865
:102B30000BF095FF011C58460BF07AFF011C504624
:102B40000BF076FF291C824620980BF088FF029933
:102B5000834621980BF083FF011C58460BF068FF59
:102B6000019983461F980BF07AFF011C58460BF021
:102B70005FFF011C50460BF05BFF4346494618615E
:102B800029980BF06CFF039981462A980BF067FF98
:102B9000011C48460BF04CFF391C81462B980BF06A
:102BA0005EFF311C071C2C980BF059FF011C381CD0
:102BB0000BF03EFF011C48460BF03AFF291C061C97
:102BC00027980BF04CFF0299051C28980BF047FF43
:102BD000011C281C0BF02CFF0199051C26980BF0FA
:102BE0003EFF011C281C0BF023FF011C301C0BF0C6
:102BF0001FFF4346586118239C46099B1C34E04440
:102C0000A34200D084E6379B1A68629308929A69BF
:102C100009921A6B0A929A6C0B921A6E0C929A6F26
:102C20000D9290229A580E925A680F92DA69109279
:102C30005A6B1192DA6C12925A6E1392DA6F1492E6
:102C400094229A5815929A6816921A6A17929A6B59
:102C500018921A6D19929A6E1A9280229A581B92A3
:102C600098229A581C92DA681D925A6A1E92DA6B60
:102C70001F925A6D2092DA6E219284229A582292E3
:102C80009C229A5823921A6924929A6A25921A6C65
:102C900026929A6D059C27921A6F203428928822DA
:102CA0009A58A1462992A0229A582A925A692B92A0
:102CB000DA6A2C925A6C2D92DA6D2E925A6F2F92FC
:102CC0008C229A583092A4229B5831935CAB069385
:102CD0003EAB0793329B98464346424641464046A8
:102CE0001B6895690193069B146B096E926C40CB2F
:102CF000876F0291101C0B99039206930BF0AFFEA5
:102D00000C99824602980BF0AAFE011C50460BF06B
:102D10008FFE0D998246381C0BF0A1FE0E9983465A
:102D2000301C0BF09CFE011C58460BF081FE011C70
:102D300050460BF07DFE09998246281C0BF08FFE51
:102D40000A998346201C0BF08AFE011C58460BF0A2
:102D50006FFE0899834601980BF081FE011C5846CE
:102D60000BF066FE011C50460BF062FE4B461299BA
:102D7000186003980BF073FE1399824602980BF0CB
:102D80006EFE011C50460BF053FE14998246381C0F
:102D90000BF065FE15998346301C0BF060FE011C9C
:102DA00058460BF045FE011C50460BF041FE1099B1
:102DB0008246281C0BF053FE11998346201C0BF011
:102DC0004EFE011C58460BF033FE0F9983460198C6
:102DD0000BF045FE011C58460BF02AFE011C504624
:102DE0000BF026FE4B461999586003980BF037FEFE
:102DF0001A99824602980BF032FE011C50460BF0E5
:102E000017FE1B998246381C0BF029FE1C9983463D
:102E1000301C0BF024FE011C58460BF009FE011C6F
:102E200050460BF005FE17998246281C0BF017FE42
:102E300018998346201C0BF012FE011C58460BF01B
:102E4000F7FD1699834601980BF009FE011C5846C0
:102E50000BF0EEFD011C50460BF0EAFD4B462099AD
:102E6000986003980BF0FBFD2199824602980BF0C5
:102E7000F6FD011C50460BF0DBFD22998246381C02
:102E80000BF0EDFD23998346301C0BF0E8FD011C8F
:102E900058460BF0CDFD011C50460BF0C9FD1E99A4
:102EA0008246281C0BF0DBFD1F998346201C0BF08B
:102EB000D6FD011C58460BF0BBFD1D9983460198B9
:102EC0000BF0CDFD011C58460BF0B2FD011C504625
:102ED0000BF0AEFD4B462799D86003980BF0BFFD71
:102EE0002899824602980BF0BAFD011C50460BF05F
:102EF0009FFD29998246381C0BF0B1FD2A99834623
:102F0000301C0BF0ACFD011C58460BF091FD011C70
:102F100050460BF08DFD25998246281C0BF09FFD35
:102F200026998346201C0BF09AFD011C58460BF095
:102F30007FFD2499834601980BF091FD011C5846B2
:102F40000BF076FD011C50460BF072FD4B462E999E
:102F5000186103980BF083FD2F99824602980BF0BD
:102F60007EFD011C50460BF063FD30998246381CF3
:102F70000BF075FD3199071C301C0BF070FD011C26
:102F8000381C0BF055FD011C50460BF051FD2C99DF
:102F9000061C281C0BF063FD2D99051C201C0BF052
:102FA0005EFD011C281C0BF043FD2B99041C0198AD
:102FB0000BF055FD011C201C0BF03AFD011C301CD0
:102FC0000BF036FD4B46586104239C461433E04415
:102FD0009C46079BE144434500D07DE6339B059D1D
:102FE000DC68296A20680BF023FD049EA96B306021
:102FF00060680BF01DFD7060A068296D0BF018FD76
:10300000B060E068A96E0BF013FD8023F0602069CA
:10301000E95898460BF00CFD98233061E958606937
:103020000BF006FD7061A069696A0BF001FDB061EB
:10303000E069E96B0BF0FCFCF061206A696D0BF054
:10304000F7FC3062E96E606A0BF0F2FC8427706274
:10305000A06AE9590BF0ECFC9C23B062E958E06AE5
:103060000BF0E6FCF062206BA96A0BF0E1FC306328
:10307000606B296C0BF0DCFC7063A06BA96D0BF02E
:10308000D7FCB063E06B296F0BF0D2FCF0638826AD
:10309000206CA9590BF0CCFC049B1864A023606C35
:1030A000E9580BF0C5FC049BE96A5864A06C0BF06E
:1030B000BFFC049B696C9864E06C0BF0B9FC049B4A
:1030C000E96DD864206D0BF0B3FC049B696F186543
:1030D000606D0BF0ADFC8C25049A059B5065A06DCE
:1030E00059590BF0A5FCA423049A9065059AE06D4C
:1030F000D1580BF09DFC049B059AD865116B206E8E
:103100000BF096FC049B059A1866916C606E0BF0B0
:103110008FFC049B059A5866A06E116E0BF088FC1C
:10312000049B059A9866E06E916F0BF081FC049BFE
:10313000059AD8669023206FD1580BF079FC049B38
:10314000059A1867A823606FD1580BF071FC049B97
:10315000059A5867A16F506B0BF06AFC049B059AA7
:103160009867E16FD06C0BF063FC4146049B059AB5
:10317000D8676158506E0BF05BFC4146049B059A82
:103180005850E159D06F0BF053FC049BD851942355
:10319000059FA159F8580BF04BFC049B9851AC23A8
:1031A0006159F8580BF044FC049B585199239B003B
:1031B0009D44F0BCBB46B246A946A046F0BDC04601
:1031C000F0B5DE4657464E4645460400E0B5436836
:1031D00087B05800A3684008590049080BF028FC44
:1031E0002368590049080BF023FC2369051C58008B
:1031F00063694008590049080BF01AFCE36859005C
:1032000049080BF015FC011C281C0BF011FCE369AC
:10321000051C5800236A4008590049080BF008FCB7
:10322000A369590049080BF003FCA36A061C580067
:10323000E36A4008590049080BF0FAFB636A590039
:1032400049080BF0F5FB011C301C0BF0F1FB636B24
:10325000071C5800A36B4008590049080BF0E8FB15
:10326000236B590049080BF0E3FB236C061C580044
:10327000636C4008590049080BF0DAFBE36B590016
:1032800049080BF0D5FB011C301C0BF0D1FB061CD0
:10329000011C381C0BF01AFC002800D13E1C311C0C
:1032A000281C0BF013FC002800D12E1CE36C5800E6
:1032B000236D4008590049080BF0BAFBA36C590074
:1032C00049080BF0B5FBA36D051C5800E36D4008E1
:1032D000590049080BF0ACFB636D590049080BF02D
:1032E000A7FB011C281C0BF0A3FB636E071C5800F6
:1032F000A36E4008590049080BF09AFB236E590051
:1033000049080BF095FB236F051C5800636F4008BC
:10331000590049080BF08CFBE36E590049080BF08B
:1033200087FB011C281C0BF083FBE36F80465800D1
:103330008023E1584008490049080BF079FBA36F4E
:10334000590049080BF074FB8823051CE05804332E
:10335000E15840004900490840080BF069FB84230C
:10336000E158490049080BF063FB011C281C0BF0D5
:103370005FFB051C011C40460BF0A8FB002800D198
:103380004546291C381C0BF0A1FB002800D13D1C30
:10339000291C301C0BF09AFB002800D1351CC023DF
:1033A0002100E55001AABA3B02A8A8310493029477
:1033B000FDF7F4F90121C422019B98260B405B42E2
:1033C0008B430133A354343A9246002250469C2743
:1033D00022509432A1509346923AA2510132E251C6
:1033E0009D32944660469C3A2250A03291469F3AC4
:1033F00090464A4640462300A05048461832A258FC
:10340000903392009A181568255040461060604627
:10341000B8222058A2588046604692009A18156833
:10342000255040461060B422E059A25884469200CC
:103430009A1810685D46E05160461060B022A258AC
:10344000A75992009A181068A0511760AC225846EC
:10345000A258265892009A18106860511660A82247
:10346000A258554692009B1852461868A2586051BF
:103470001A60C523E15407B0F0BCBB46B246A9466A
:10348000A046F0BDC023002210B5C2500022043374
:10349000C2520B68040003604B6843608B68836012
:1034A000CB68C3600B6903614B6943618B698361BE
:1034B000CB69C3610B6A03624B6A43628B6A8362A6
:1034C000CB6AC3620B6B03634B6B43638B6B83638E
:1034D000CB6BC3630B6C03644B6C43648B6C836476
:1034E000CB6CC3640B6D03654B6D43658B6D83655E
:1034F000CB6DC3650B6E03664B6E43668B6E836646
:10350000CB6EC3660B6F03674B6F43678B6F83672D
:10351000CB6FC3678023CA58C2500433CA58C25005
:103520000433CA58C2500433CA58C250FFF748FE89
:10353000200010BDF0B5DE464E4645465746E0B584
:10354000214C9146A5443AAA94460A0031931F4B58
:103550003B9063441B091B013A919846D3AB13CAB5
:1035600013C313CA13C31268D3A91A60184B194A9C
:103570001B6847A80493184B47AC1B680193174B73
:103580001B6805930093049BFEF786FF47ABD3931C
:103590004B46D49347ABD5933AAA832394468620CF
:1035A0001B0163441B68C0004044A2AAD3A9D69360
:1035B0000990FFF72BF96BAB089343460A934B46F0
:1035C0003094A1461C000BE014F7FFFF47030000F6
:1035D000742003200AE81C416C2003207020032083
:1035E0004B464E461B68B76F0793089B494640CB36
:1035F00048464A460893A823896C006E9569126B69
:1036000005910690E158301C04920BF028FA8C23A7
:103610008246E158381C0BF022FA011C50460BF090
:1036200007FA216F824606980BF019FA616D8346FE
:1036300005980BF014FA011C58460BF0F9F9011C1F
:1036400050460BF0F5F9A16B824604980BF007FA8F
:10365000E1698346281C0BF002FA011C58460BF066
:10366000E7F92168834607980BF0F9F9011C5846E1
:103670000BF0DEF9011C50460BF0DAF943461860F6
:10368000AC23301CE1580BF0EAF990238246E15854
:10369000381C0BF0E4F9011C50460BF0C9F9616FBE
:1036A000824606980BF0DBF9A16D834605980BF076
:1036B000D6F9011C58460BF0BBF9011C50460BF023
:1036C000B7F9E16B824604980BF0C9F9216A834689
:1036D000281C0BF0C4F9011C58460BF0A9F96168CD
:1036E000834607980BF0BBF9011C58460BF0A0F974
:1036F000011C50460BF09CF943465860B023301C27
:10370000E1580BF0ACF994238246E158381C0BF0D9
:10371000A6F9011C50460BF08BF9A16F8246069862
:103720000BF09DF9E16D834605980BF098F9011CAB
:1037300058460BF07DF9011C50460BF079F9216CCD
:10374000824604980BF08BF9616A8346281C0BF0C3
:1037500086F9011C58460BF06BF9A168834607985F
:103760000BF07DF9011C58460BF062F9011C504624
:103770000BF05EF943469860B423301CE1580BF01F
:103780006EF998238246E158381C0BF068F9011C49
:1037900050460BF04DF9E16F824606980BF05FF949
:1037A000216E834605980BF05AF9011C58460BF020
:1037B0003FF9011C50460BF03BF9616C82460498BE
:1037C0000BF04DF9A16A8346281C0BF048F9011C47
:1037D00058460BF02DF9E168834607980BF03FF946
:1037E000011C58460BF024F9011C50460BF020F93F
:1037F0004346D860B823301CE1580BF030F99C23C5
:103800008246E158381C0BF02AF9011C50460BF097
:103810000FF980238246E15806980BF020F9616E7B
:10382000834605980BF01BF9011C58460BF000F974
:10383000011C50460BF0FCF8A16C824604980BF07A
:103840000EF9E16A8346281C0BF009F9011C584661
:103850000BF0EEF82169834607980BF000F9011C84
:1038600058460BF0E5F8011C50460BF0E1F84346D2
:103870001861BC23301CE1580BF0F1F8A0238246FC
:10388000E158381C0BF0EBF8011C50460BF0D0F857
:1038900084238246E15806980BF0E1F8A16E834636
:1038A00005980BF0DCF8011C58460BF0C1F8011C20
:1038B00050460BF0BDF8E16C824604980BF0CFF84F
:1038C000216B8346281C0BF0CAF8011C58460BF0EC
:1038D000AFF86169834607980BF0C1F8011C5846A0
:1038E0000BF0A6F8011C50460BF0A2F84346E16E1F
:1038F000586105980BF0B3F888238246E158069882
:103900000BF0ADF8011C50460BF092F8A423824650
:10391000E158381C0BF0A3F8C023071CE158301CF9
:103920000BF09DF8011C381C0BF082F8011C50466E
:103930000BF07EF8616B061C281C0BF090F8216DD3
:10394000051C04980BF08BF8011C281C0BF070F878
:10395000A169051C07980BF082F8011C281C0BF0CC
:1039600067F8011C301C0BF063F843469861042390
:103970009C461833E1449C464DABE044994500D049
:103980002EE60A9BA146D8249846A427A4004444C6
:10399000BF00474420000999FFF774FD21009022E1
:1039A0003800C8240BF0E2F9FC21A400444489004B
:1039B0004144182220000BF0D9F9CE20812180004B
:1039C000C9004144182240440BF0D0F98422D4238A
:1039D000D200424412689B0043441A60D523874AB0
:1039E0004546424412889B004344FE211A8000232E
:1039F0002268B0359200AA1889051160936113639B
:103A0000936413669367C922920042441268444645
:103A10009200AA181360916113639364136693670D
:103A2000CA2292004244126806269200AA18136025
:103A300093611163936413669367CB2292004244AF
:103A4000126806209200AA181360936113639164B0
:103A500013669367CC229200424412689200AA181F
:103A6000136093611363936411669367CD22920090
:103A7000424412689200AA1813609361136393641E
:103A80001366A8235B009B46916742465946E4189B
:103A900020334344A660E6602661535080229200A2
:103AA00042444B396260924604933A0006230294E2
:103AB000FF3901960095FDF7DFFA42465946049B0F
:103AC000A660E6602661535053464B3963603A0066
:103AD00006230294062001960095FF39FDF7D0FDDC
:103AE00043461B688C2206934346DB69D3AC07939D
:103AF00043469B6B089343465B6D099343461B6F9C
:103B00000A9343469B5804320B9343465B680C93DD
:103B100043461B6A0D934346DB6B0E9343469B6DF6
:103B20000F9343465B6F109343469B5804321193A7
:103B300043469B68129343465B6A139343461B6C50
:103B400014934346DB6D159343469B6F1693434690
:103B50009B58043217934346DB68189343469B6A8D
:103B6000199343465B6C1A9343461B6E1B93434663
:103B7000DB6F1C9343469B58183A1D9343461B69C1
:103B80001E934346DB6A1F9343469B6C2093434638
:103B90005B6E219343469B581C32229343469B58AD
:103BA000183A239343465B69249343461B6B259342
:103BB0004346DB6C269343469B6E279343469B58B4
:103BC0001C32289343469B58183A299343469B69D5
:103BD0002A9343465B6B2B9343461B6D2C934346C2
:103BE000DB6E2D9343469B581C322E9343469B58C5
:103BF000A8462F934B46329302E0C04624040000AF
:103C000043461F685B6842469946434641469B6867
:103C1000D2680E694D6907984946049305920AF0E7
:103C20001EFF0499824608980AF019FF011C5046AD
:103C30000AF0FEFE391C824606980AF010FF011CAD
:103C400050460AF0F5FE311C82460A980AF007FF3A
:103C5000291C83460B980AF002FF011C58460AF003
:103C6000E7FE0599834609980AF0F9FE011C5846BB
:103C70000AF0DEFE011C50460AF0DAFE49462060DA
:103C80000D980AF0ECFE049982460E980AF0E7FEC1
:103C9000011C50460AF0CCFE391C82460C980AF0F2
:103CA000DEFE011C50460AF0C3FE311C824610980D
:103CB0000AF0D5FE291C834611980AF0D0FE011C9B
:103CC00058460AF0B5FE059983460F980AF0C7FEDC
:103CD000011C58460AF0ACFE011C50460AF0A8FE32
:103CE0004946606013980AF0BAFE04998246149817
:103CF0000AF0B5FE011C50460AF09AFE391C8246B5
:103D000012980AF0ACFE011C50460AF091FE311CDC
:103D1000824616980AF0A3FE291C834617980AF0DB
:103D20009EFE011C58460AF083FE059983461598AD
:103D30000AF095FE011C58460AF07AFE011C504616
:103D40000AF076FE4946A06019980AF088FE0499A8
:103D500082461A980AF083FE011C50460AF068FE5B
:103D6000391C824618980AF07AFE011C50460AF067
:103D70005FFE311C82461C980AF071FE291C8346A6
:103D80001D980AF06CFE011C58460AF051FE059978
:103D900083461B980AF063FE011C58460AF048FE51
:103DA000011C50460AF044FE4946E0601F980AF0A4
:103DB00056FE0499824620980AF051FE011C504696
:103DC0000AF036FE391C82461E980AF048FE011C95
:103DD00050460AF02DFE311C824622980AF03FFE22
:103DE000291C834623980AF03AFE011C58460AF023
:103DF0001FFE0599834621980AF031FE011C5846A2
:103E00000AF016FE011C50460AF012FE49462061D7
:103E100025980AF024FE0499824626980AF01FFE8F
:103E2000011C50460AF004FE391C824624980AF010
:103E300016FE011C50460AF0FBFD311C82462898F4
:103E40000AF00DFE291C834629980AF008FE011C81
:103E500058460AF0EDFD0599834627980AF0FFFDC4
:103E6000011C58460AF0E4FD011C50460AF0E0FD32
:103E7000494660612B980AF0F2FD049981462C981E
:103E80000AF0EDFD011C48460AF0D2FD391C8146BE
:103E90002A980AF0E4FD011C48460AF0C9FD311CCD
:103EA000071C2E980AF0DBFD291C061C2F980AF02F
:103EB000D6FD011C301C0AF0BBFD0599051C2D9890
:103EC0000AF0CDFD011C281C0AF0B2FD011C381CB3
:103ED0000AF0AEFD18239C46A061FDAB1C34E04403
:103EE000A34200D08CE6329BD49A9946D39BD599B5
:103EF000D69CD79DD89ED99F06930792DA9BDB9AD2
:103F000008910994DC99DD9C0A950B96DE9DDF9E55
:103F10000C970D93E09FE19B0E92E29A0F91109403
:103F200011951296139714931592E399E49CE59DCD
:103F3000E69EE79FE89BE99A16911794EA99EB9C15
:103F400018951996EC9DED9E1A971B93EE9FEF9B8B
:103F50001C921D91F09AF1991E94F29C2096219743
:103F600022932392249125941F95F39DF49EF59F0F
:103F7000F79AF69BF899F99C26952796FA9DFB9E51
:103F80002897FC9F2A923A9A29932B912C942D954D
:103F90002E962F97D3AB32CA32C332CA32C31168BE
:103FA000D3AC1960FD49FE4B09681B680191FD49BE
:103FB000FD4A09682000009141A9FDF7CDFF319F1E
:103FC000419938680AF031FD4299834678680AF0D1
:103FD0002CFD43998246B8680AF027FD4499041CD9
:103FE000F8680AF022FD4599051C38690AF01DFDA4
:103FF0004699061C78690AF018FD071C011C2A98CE
:104000000AF02DFD311C804623980AF028FD011C82
:1040100040460AF00DFD291C80461C980AF01FFD41
:10402000011C40460AF004FD211C804615980AF048
:1040300016FD514604900E980AF011FD011C0498DB
:104040000AF0F6FC5946049007980AF008FD011C96
:1040500004980AF0EDFC011C40460AF0E9FC3A9A8B
:1040600051680AF0E5FC391C04902B980AF0F7FC23
:10407000311C804624980AF0F2FC011C40460AF0EC
:10408000D7FC291C80461D980AF0E9FC011C40461B
:104090000AF0CEFC211C804616980AF0E0FC51463E
:1040A00005900F980AF0DBFC011C05980AF0C0FC93
:1040B0005946059008980AF0D2FC011C05980AF0B0
:1040C000B7FC011C40460AF0B3FC3A9A91680AF02A
:1040D000AFFC391C05902C980AF0C1FC311C8046BD
:1040E00025980AF0BCFC011C40460AF0A1FC291CE2
:1040F00080461E980AF0B3FC011C40460AF098FC6A
:10410000211C804617980AF0AAFC5146319010985D
:104110000AF0A5FC011C31980AF08AFC594631903E
:1041200009980AF09CFC011C31980AF081FC011CE2
:1041300040460AF07DFC3A9AD1680AF079FC391CB5
:1041400031902D980AF08BFC311C804626980AF09D
:1041500086FC011C40460AF06BFC291C80461F9817
:104160000AF07DFC011C40460AF062FC211C8046DE
:1041700018980AF074FC5146329011980AF06FFCBE
:10418000011C32980AF054FC594632900A980AF001
:1041900066FC011C32980AF04BFC011C40460AF0F8
:1041A00047FC3A9A11690AF043FC391C32902E9868
:1041B0000AF055FC311C804627980AF050FC011C7F
:1041C00040460AF035FC291C804620980AF047FC3E
:1041D000011C40460AF02CFC211C804619980AF06C
:1041E0003EFC5146339012980AF039FC011C33987A
:1041F0000AF01EFC594633900B980AF030FC011C63
:1042000033980AF015FC011C40460AF011FC3A9A5A
:1042100051690AF00DFC5146339013980AF01FFCC7
:10422000211C80461A980AF01AFC011C40460AF02C
:10423000FFFB594680460C980AF011FC011C4046D1
:104240000AF0F6FB311C804628980AF008FC391C5D
:1042500034902F980AF003FC011C34980AF0E8FB14
:10426000291C349021980AF0FAFB011C34980AF0BA
:10427000DFFB011C40460AF0DBFB3A9A91690AF029
:10428000D7FB391C804629980AF0E9FB311C071C32
:1042900022980AF0E4FB011C381C0AF0C9FB291C17
:1042A000061C1B980AF0DBFB011C301C0AF0C0FB4B
:1042B000211C051C14980AF0D2FB5146041C0D98D1
:1042C0000AF0CDFB011C201C0AF0B2FB5946041C6D
:1042D00006980AF0C4FB011C201C0AF0A9FB011C73
:1042E000281C0AF0A5FB3A9AD3AC11680AF0A0FB8F
:1042F0003B9B049A18605A60059A9A60319ADA607A
:10430000329A1A61339A5A6142469A614B461B6847
:104310004A46A2934B465B68A3934B469B68A49383
:104320004B46DB68A5934B461B69A6934B465B69DE
:10433000A7934B469B69A8934B46DB69A9934B46D1
:104340001B6AAA934B465B6AAB934B469B6AAC9342
:104350004B46DB6AAD934B461B6BAE934B465B6B98
:10436000AF934B469B6BB0934B46DB6BB1934B4685
:104370001B6CB2934B465B6CB3934B469B6CB493F4
:104380004B46DB6CB5934B461B6DB6934B465B6D52
:10439000B7934B469B6DB8934B4607E06C200320C8
:1043A00074200320702003200AE81C41DB6DB993C0
:1043B0004B461B6EBA934B465B6EBB934B469B6E54
:1043C000BC934B46DB6EBD934B461B6FBE934B4677
:1043D0005B6FBF934B469B6FC0934B46DB6FC193A4
:1043E0008023D358C2938423D358C3938823D358AC
:1043F000C4938C23D358C5939023D358C693942346
:10440000D358C7939823D358C8939C23D358C993A0
:10441000A023D358CA93A423D358CB93A823D3580B
:10442000CC93AC23D358CD93B023D358CE93B4239D
:10443000D358CF93B823D358D093BC23D358D19318
:10444000C023D358D293309B3092984643461F687E
:104450005B6842469946434641469B68D2680E696E
:104460004D690D984946049305920AF0F8FA0499AB
:10447000824614980AF0F3FA011C50460AF0D8FA62
:10448000391C824606980AF0EAFA011C50460AF0E6
:10449000CFFA311C824622980AF0E1FA291C8346A1
:1044A00029980AF0DCFA011C58460AF0C1FA05996D
:1044B00083461B980AF0D3FA011C58460AF0B8FA52
:1044C000011C50460AF0B4FA494620600E980AF0E2
:1044D000C6FA0499824615980AF0C1FA011C5046A2
:1044E0000AF0A6FA391C824607980AF0B8FA011CAD
:1044F00050460AF09DFA311C824623980AF0AFFA22
:10450000291C83462A980AF0AAFA011C58460AF088
:104510008FFA059983461C980AF0A1FA011C5846A7
:104520000AF086FA011C50460AF082FA4946606099
:104530000F980AF094FA0499824616980AF08FFAB6
:10454000011C50460AF074FA391C824608980AF099
:1045500086FA011C50460AF06BFA311C82462498F8
:104560000AF07DFA291C83462B980AF078FA011C80
:1045700058460AF05DFA059983461D980AF06FFACD
:10458000011C58460AF054FA011C50460AF050FA31
:104590004946A06010980AF062FA0499824617987A
:1045A0000AF05DFA011C50460AF042FA391C8246B4
:1045B00009980AF054FA011C50460AF039FA311CE5
:1045C000824625980AF04BFA291C83462C980AF05B
:1045D00046FA011C58460AF02BFA059983461E98A4
:1045E0000AF03DFA011C58460AF022FA011C504616
:1045F0000AF01EFA4946E06011980AF030FA049970
:10460000824618980AF02BFA011C50460AF010FA5C
:10461000391C82460A980AF022FA011C50460AF018
:1046200007FA311C824626980AF019FA291C83469B
:104630002D980AF014FA011C58460AF0F9F9059968
:1046400083461F980AF00BFA011C58460AF0F0F94D
:10465000011C50460AF0ECF94946206112980AF014
:10466000FEF90499824619980AF0F9F9011C50469E
:104670000AF0DEF9391C82460B980AF0F0F9011CA9
:1046800050460AF0D5F9311C824627980AF0E7F91E
:10469000291C83462E980AF0E2F9011C58460AF0BC
:1046A000C7F90599834620980AF0D9F9011C5846A4
:1046B0000AF0BEF9011C50460AF0BAF94946606199
:1046C00013980AF0CCF9049981461A980AF0C7F9B0
:1046D000011C48460AF0ACF9391C81460C980AF0D6
:1046E000BEF9011C48460AF0A3F9311C071C2898A2
:1046F0000AF0B5F9291C061C2F980AF0B0F9011C24
:10470000301C0AF095F90599051C21980AF0A7F9C3
:10471000011C281C0AF08CF9011C381C0AF088F9CD
:1047200018239C46FFABA06114331C34E044A34221
:1047300000D08BE6309BA2AD99463C93C4234C46F7
:10474000C8464B44089307944246D26843464146C4
:10475000914642469E694C68096892685F691B6988
:104760000491301CFD99069305920AF078F9F699A8
:104770008246381C0AF073F9011C50460AF058F9B9
:10478000EF99824606980AF06AF9E8998346484606
:104790000AF065F9011C58460AF04AF9011C504616
:1047A0000AF046F9E199824605980AF058F9DA9933
:1047B0008346201C0AF053F9011C58460AF038F9C8
:1047C000D399834604980AF04AF9011C58460AF026
:1047D0002FF9011C50460AF02BF9011C28680AF039
:1047E00024F92860FE99301C0AF039F9F7998246BD
:1047F000381C0AF034F9011C50460AF019F9F099F6
:10480000824606980AF02BF9E999834648460AF051
:1048100026F9011C58460AF00BF9011C50460AF013
:1048200007F9E299824605980AF019F9DB9983465F
:10483000201C0AF014F9011C58460AF0F9F8D49922
:10484000834604980AF00BF9011C58460AF0F0F868
:10485000011C50460AF0ECF8011C68680AF0E5F803
:10486000FF996860301C0AF0FAF8F8998246381C03
:104870000AF0F5F8011C50460AF0DAF8F199824680
:1048800006980AF0ECF8EA99834648460AF0E7F8F9
:10489000011C58460AF0CCF8011C50460AF0C8F832
:1048A000E399824605980AF0DAF8DC998346201CE1
:1048B0000AF0D5F8011C58460AF0BAF8D599834693
:1048C00004980AF0CCF8011C58460AF0B1F8011C13
:1048D00050460AF0ADF8011CA8680AF0A6F8FFAB34
:1048E0005968A860301C04330AF0B9F8F999824677
:1048F000381C0AF0B4F8011C50460AF099F8F299F5
:10490000824606980AF0ABF8EB99834648460AF0CF
:10491000A6F8011C58460AF08BF8011C50460AF014
:1049200087F8E499824605980AF099F8DD9983465C
:10493000201C0AF094F8011C58460AF079F8D69920
:10494000834604980AF08BF8011C58460AF070F868
:10495000011C50460AF06CF8011CE8680AF065F882
:10496000FFAB9968E860301C08330AF078F8FA99D0
:104970008246381C0AF073F8011C50460AF058F8B9
:10498000F399824606980AF06AF8EC9983464846FD
:104990000AF065F8011C58460AF04AF8011C504616
:1049A0000AF046F8E599824605980AF058F8DE992B
:1049B0008346201C0AF053F8011C58460AF038F8C8
:1049C000D799834604980AF04AF8011C58460AF021
:1049D0002FF8011C50460AF02BF8011C28690AF038
:1049E00024F8FFABD9682861301C0C330AF037F883
:1049F000FB998246381C0AF032F8011C50460AF036
:104A000017F8F499824606980AF029F8ED9983463A
:104A100048460AF024F8011C58460AF009F8011C1F
:104A200050460AF005F8E699824605980AF017F80C
:104A3000DF998346201C0AF012F8011C584609F041
:104A4000F7FFD899834604980AF009F8011C5846E4
:104A500009F0EEFF011C504609F0EAFF011C6869ED
:104A600009F0E3FFEE996861484609F0F8FFF5990F
:104A70008146069809F0F3FF011C484609F0D8FF6B
:104A8000FC998146381C09F0EAFFFFAB1969071C45
:104A9000301C103309F0E3FF011C381C09F0C8FF7B
:104AA000011C484609F0C4FFE099061C201C09F0CF
:104AB000D6FFE799041C059809F0D1FF011C201CC2
:104AC00009F0B6FFD999041C049809F0C8FF011C2D
:104AD000201C09F0ADFF011C301C09F0A9FF011CCE
:104AE000A86909F0A2FF1C239C46089BE044A8612A
:104AF0001C35984500D027E6079BA29A99461A6074
:104B0000A39A5A60A49A9A60A59ADA60A69A1A6142
:104B1000A79A5A61A89A9A61A99ADA61AA9A1A621E
:104B2000AB9A5A62AC9A9A62AD9ADA62AE9A1A63FA
:104B3000AF9A5A63B09A9A63B19ADA63B29A1A64D6
:104B4000B39A5A64B49A9A64B59ADA64B69A1A65B2
:104B5000B79A5A65B89A9A65B99ADA65BA9A1A668E
:104B6000BB9A5A66BC9A9A66BD9ADA66BE9A1A676A
:104B7000BF9A5A67C09A9A67C19ADA674A468023F1
:104B8000C299D150C3990433D150C4990433D15040
:104B9000C5990433D150C6990433D150C799043311
:104BA000D150C8990433D150C9990433D150CA990E
:104BB0000433D150CB990433D150CC990433D15024
:104BC000CD990433D150CE990433D150CF990433C9
:104BD000D150D0990433D150D1990433D150D299C6
:104BE0000433D1503AAA9446504BA2AA63441B689E
:104BF00013CB13C24E4BD3AC63441B6807CB07C423
:104C00003A9B3B9D00934B4B28006344A2A91B6831
:104C1000D3AAFDF77FF82B00D3AA23CB23C213CB53
:104C200013C23AA91B688C4613603EAA11003F4B81
:104C300063441B6831CB31C13D4BA2A963441B685F
:104C400031CB31C13B4BD3A963441B6871A800939E
:104C5000A2ABFDF7C5FAD3AB1C000793719BA0462E
:104C60000993789B10937F9B1793869B1E938D9B34
:104C70002593949B2C939B9B3393729B0A93799BD4
:104C80001193809B1893879B1F938E9B2693959BD4
:104C90002D939C9B3493739B0B937A9B1293819BD4
:104CA0001993889B20938F9B2793969B2E939D9B74
:104CB0003593749B0C937B9B1393829B1A93899BD4
:104CC0002193909B2893979B2F939E9B3693759B44
:104CD0000D937C9B1493839B1B938A9B2293919BA4
:104CE0002993989B30939F9B3793769B0E937D9B44
:104CF0001593849B1C938B9B2393929B2A93999B44
:104D00003193A09B3893779B0F937E9B1693859B43
:104D10001D938C9B2493939B2B939A9B3293A19BE3
:104D200039934B463D933C9B994605E0280800008B
:104D3000380800003C080000484649464A464B46B1
:104D4000866909691B6855689468D2684769069145
:104D50003398311C0592049309F081FE391C824678
:104D60002C9809F07CFE011C504609F061FE069962
:104D70008246259809F073FE059983461E9809F02E
:104D80006EFE011C584609F053FE011C504609F006
:104D90004FFE211C8246179809F061FE291C8346AC
:104DA000109809F05CFE011C584609F041FE049978
:104DB0008346099809F053FE011C584609F038FE55
:104DC000011C504609F034FE4346311C18603498EB
:104DD00009F045FE391C82462D9809F040FE011C61
:104DE000504609F025FE06998246269809F037FEBE
:104DF000059983461F9809F032FE011C584609F0B8
:104E000017FE011C504609F013FE211C824618981B
:104E100009F025FE291C8346119809F020FE011C8B
:104E2000584609F005FE049983460A9809F017FED2
:104E3000011C584609F0FCFD011C504609F0F8FD24
:104E40004346311C5860359809F009FE391C8246EA
:104E50002E9809F004FE011C504609F0E9FD069960
:104E60008246279809F0FBFD05998346209809F0B2
:104E7000F6FD011C584609F0DBFD011C504609F007
:104E8000D7FD211C8246199809F0E9FD291C8346AB
:104E9000129809F0E4FD011C584609F0C9FD049977
:104EA00083460B9809F0DBFD011C584609F0C0FD54
:104EB000011C504609F0BCFD4346311C98603698F1
:104EC00009F0CDFD391C82462F9809F0C8FD011C60
:104ED000504609F0ADFD06998246289809F0BFFDBD
:104EE00005998346219809F0BAFD011C584609F03E
:104EF0009FFD011C504609F09BFD211C82461A981B
:104F000009F0ADFD291C8346139809F0A8FD011C8A
:104F1000584609F08DFD049983460C9809F09FFDD1
:104F2000011C584609F084FD011C504609F080FD23
:104F30004346311CD860379809F091FD391C8246F0
:104F4000309809F08CFD011C504609F071FD06995E
:104F50008246299809F083FD05998346229809F035
:104F60007EFD011C584609F063FD011C504609F006
:104F70005FFD211C82461B9809F071FD291C8346A8
:104F8000149809F06CFD011C584609F051FD049974
:104F900083460D9809F063FD011C584609F048FD51
:104FA000011C504609F044FD4346311C18613898F5
:104FB00009F055FD391C8246319809F050FD011C5D
:104FC000504609F035FD069982462A9809F047FDBA
:104FD00005998346239809F042FD011C584609F0C3
:104FE00027FD011C504609F023FD211C82461C9818
:104FF00009F035FD291C8346159809F030FD011C88
:10500000584609F015FD049983460E9809F027FDCE
:10501000011C584609F00CFD011C504609F008FD22
:10502000434605995861249809F019FD069982466E
:105030002B9809F014FD011C504609F0F9FC391CAD
:105040008246329809F00BFD311C071C399809F093
:1050500006FD011C381C09F0EBFC011C504609F050
:10506000E7FC291C061C169809F0F9FC211C051CFC
:105070001D9809F0F4FC011C281C09F0D9FC0499C6
:10508000041C0F9809F0EBFC011C201C09F0D0FC5B
:10509000011C301C09F0CCFC434698611C239C4643
:1050A000089BE144E044994500D045E6A2ACA04607
:1050B000F6AB0693DAAB3C940893079B33981A68D7
:1050C000596D0492069A8946D669196FDD69059172
:1050D000311C9C6B176809F0C2FC391C82462C9865
:1050E00009F0BDFC011C504609F0A2FC059982465E
:1050F000259809F0B4FC494683461E9809F0AFFC98
:10510000011C584609F094FC011C504609F090FC23
:10511000211C8246179809F0A2FC291C834610988E
:1051200009F09DFC011C584609F082FC0499834655
:10513000099809F094FC011C584609F079FC011CFF
:10514000504609F075FC41460860311C349809F05E
:1051500086FC391C82462D9809F081FC011C5046C2
:1051600009F066FC05998246269809F078FC4946C4
:1051700083461F9809F073FC011C584609F058FC3F
:10518000011C504609F054FC211C8246189809F075
:1051900066FC291C8346119809F061FC011C5846E5
:1051A00009F046FC049983460A9809F058FC011C52
:1051B000584609F03DFC011C504609F039FC4146B7
:1051C0004860311C359809F04AFC391C82462E98FB
:1051D00009F045FC011C504609F02AFC059982465D
:1051E000279809F03CFC49468346209809F037FC93
:1051F000011C584609F01CFC011C504609F018FC23
:10520000211C8246199809F02AFC291C8346129811
:1052100009F025FC011C584609F00AFC0499834654
:105220000B9809F01CFC011C584609F001FC011CFC
:10523000504609F0FDFB41468860311C369809F064
:105240000EFC391C82462F9809F009FC011C5046BF
:1052500009F0EEFB05998246289809F000FC4946C2
:105260008346219809F0FBFB011C584609F0E0FB3E
:10527000011C504609F0DCFB211C82461A9809F0FB
:10528000EEFB291C8346139809F0E9FB011C5846E4
:1052900009F0CEFB049983460C9809F0E0FB011C51
:1052A000584609F0C5FB011C504609F0C1FB4146B8
:1052B000C860311C379809F0D2FB391C82463098FF
:1052C00009F0CDFB011C504609F0B2FB059982465E
:1052D000299809F0C4FB49468346229809F0BFFB90
:1052E000011C584609F0A4FB011C504609F0A0FB24
:1052F000211C82461B9809F0B2FB291C8346149896
:1053000009F0ADFB011C584609F092FB0499834655
:105310000D9809F0A4FB011C584609F089FB011CFB
:10532000504609F085FB41460861311C389809F068
:1053300096FB391C8246319809F091FB011C5046BE
:1053400009F076FB059982462A9809F088FB4946C0
:105350008346239809F083FB011C584609F068FB3B
:10536000011C504609F064FB211C82461C9809F080
:1053700076FB291C8346159809F071FB011C5846E1
:1053800009F056FB049983460E9809F068FB011C4E
:10539000584609F04DFB011C504609F049FB4346B5
:1053A00049465861249809F05AFB059981462B9883
:1053B00009F055FB011C484609F03AFB391C8146AF
:1053C000329809F04CFB311C071C399809F047FB57
:1053D000011C381C09F02CFB011C484609F028FB75
:1053E000291C061C169809F03AFB211C051C1D9867
:1053F00009F035FB011C281C09F01AFB0499041C58
:105400000F9809F02CFB011C201C09F011FB011C5A
:10541000301C09F00DFB414688611C218C46069A20
:10542000079B04320692089A04330793E0449A4299
:1054300000D042E63AAA94463D9B764A9946754B7F
:10544000624463441B6812681B68D3AC0793714BBA
:1054500063441B68DB6908936E4B63441B689B6B5A
:1054600009936C4B63441B685B6D0A93694B6344FF
:105470001B681B6F0B938C23D358664A0C93654BA8
:10548000624463441B685B680D93624B63441B6812
:105490001B6A0E935F4B63441B68DB6B0F935D4B82
:1054A00063441B689B6D10935A4B63441B685B6F8E
:1054B000126811939023D358564A1293554B624465
:1054C00063441B6812689B681393524B63441B68C8
:1054D0005B6A14934F4B63441B681B6C15934D4BD5
:1054E00063441B68DB6D16934A4B63441B689B6FD8
:1054F00017939423D358474A1893464B6244634406
:105500001B68DB681993434B63441B689B6A1A93BF
:10551000404B63441B685B6C1B933E4B63441B68AE
:1055200012681B6E1C933B4B63441B68DB6F1D931F
:105530009823D358374A1E93364B624463441B6802
:1055400012681B691F93334B63441B68DB6A20930B
:10555000304B63441B689B6C21932E4B63441B6848
:105560005B6E22938023D3582A4A23939C23624460
:105570001268D358274A2493264B624463441B681D
:105580005B692593234B63441B681B6B2693214B5C
:10559000126863441B68DB6C27931E4B63441B68D3
:1055A0009B6E28938423D3581A4A2993A0236244DC
:1055B0001268D358174A2A93164B624463441B68F7
:1055C00012689B692B93134B63441B685B6B2C9392
:1055D000104B63441B681B6D2D930E4B63441B687B
:1055E000DB6E2E938823D3580A4A2F93A423624458
:1055F0001268D35822003093074B63441B689846C7
:10560000D3AB06939023434431934B464446904694
:10561000329303E0340800002C0800006368E2685D
:105620009946A368089948460493059209F017FA29
:1056300009998246049809F012FA011C504609F0B3
:10564000F7F9276882460799381C09F008FA011C07
:10565000504609F0EDF9266982460B99301C09F095
:10566000FEF9656983460C99281C09F0F8F9011CBC
:10567000584609F0DDF90A998346059809F0EFF9D3
:10568000011C584609F0D4F9011C504609F0D0F924
:10569000414608600E99484609F0E1F90F998246A3
:1056A000049809F0DCF9011C504609F0C1F90D9984
:1056B0008246381C09F0D3F9011C504609F0B8F9AC
:1056C00011998246301C09F0CAF912998346281CA8
:1056D00009F0C5F9011C584609F0AAF9109983464A
:1056E000059809F0BCF9011C584609F0A1F9011C04
:1056F000504609F09DF9414648601499484609F022
:10570000AEF915998246049809F0A9F9011C504692
:1057100009F08EF913998246381C09F0A0F9011C92
:10572000504609F085F917998246301C09F097F91F
:1057300018998346281C09F092F9011C584609F073
:1057400077F916998346059809F089F9011C58469E
:1057500009F06EF9011C504609F06AF9414688606B
:105760001A99484609F07BF91B998246049809F07A
:1057700076F9011C504609F05BF919998246381CEC
:1057800009F06DF9011C504609F052F91D99824645
:10579000301C09F064F91E998346281C09F05FF952
:1057A000011C584609F044F91C998346059809F0F4
:1057B00056F9011C584609F03BF9011C504609F006
:1057C00037F94146C8602099484609F048F92199BF
:1057D0008246049809F043F9011C504609F028F963
:1057E0001F998246381C09F03AF9011C504609F00D
:1057F0001FF923998246301C09F031F92499834618
:10580000281C09F02CF9011C584609F011F92299BD
:105810008346059809F023F9011C584609F008F958
:10582000011C504609F004F9414608612699484692
:1058300009F015F927998246049809F010F9011C1E
:10584000504609F0F5F825998246381C09F007F909
:10585000011C504609F0ECF829998246301C09F0E9
:10586000FEF82A998346281C09F0F9F8011C5846CD
:1058700009F0DEF828998346059809F0F0F8011C34
:10588000584609F0D5F8011C504609F0D1F84346B6
:105890002C995861484609F0E2F82D998146049800
:1058A00009F0DDF8011C484609F0C2F82B99814641
:1058B000381C09F0D4F8011C484609F0B9F82F99B2
:1058C000071C301C09F0CBF83099061C281C09F085
:1058D000C6F8011C301C09F0ABF82E99051C059880
:1058E00009F0BDF8011C281C09F0A2F8011C381CA5
:1058F00009F09EF8434698611C239C46319B18345E
:10590000E044A34200D089E6F6AB05933C9CDAABB9
:105910003193069B0899DA691F6891469A6B48464D
:1059200090465A6D1E6F0492059A20CA059209F09E
:1059300096F809998246404609F091F8011C5046B4
:1059400009F076F807998246381C09F088F8011C9E
:10595000504609F06DF80B998246301C09F07FF82B
:105960000C998346281C09F07AF8011C584609F066
:105970005FF80A998346049809F071F8011C5846AB
:1059800009F056F8011C504609F052F8011C206835
:1059900009F04EF80E992060484609F060F80F991A
:1059A0008246404609F05BF8011C504609F040F879
:1059B0000D998246381C09F052F8011C504609F036
:1059C00037F811998246301C09F049F8129983463C
:1059D000281C09F044F8011C584609F029F81099D0
:1059E0008346049809F03BF8011C584609F020F85A
:1059F000011C504609F01CF8011C606809F018F8F9
:105A000018996060281C09F02AF817998246301C02
:105A100009F025F8011C504609F00AF8169982464B
:105A2000049809F01CF8011C504609F001F814997B
:105A30008246484609F013F815998346404609F016
:105A40000EF8011C584608F0F3FF13998346381CE2
:105A500009F005F8011C584608F0EAFF011C504601
:105A600008F0E6FF011CA06808F0E2FF1E99A060A4
:105A7000281C08F0F4FF1D998246301C08F0EFFF47
:105A8000011C504608F0D4FF1C998246049808F087
:105A9000E6FF011C504608F0CBFF1B9982464046AA
:105AA00008F0DDFF1A998346484608F0D8FF011C2C
:105AB000584608F0BDFF19998346381C08F0CFFFFF
:105AC000011C584608F0B4FF011C504608F0B0FF16
:105AD000011CE06808F0ACFF2099E060484608F03F
