:020000041000EA
:1000000000B5324B212058609868022188439860DF
:10001000D860186158612E4B002199600221596106
:100020000121F02299502B49196001219960352056
:1000300000F044F80222904214D00621196600F024
:1000400034F8196E01211966002018661A6600F04E
:100050002CF8196E196E196E052000F02FF8012189
:100060000842F9D1002199601B49196000215960AB
:100070001A491B48016001219960EB211966A021F2
:10008000196600F012F800219960164914480160C1
:100090000121996001BC002800D000471248134993
:1000A000086003C880F30888084703B5996A0420EC
:1000B0000142FBD001200142F8D103BD02B5186610
:1000C0001866FFF7F2FF186E186E02BD00000240BE
:1000D000000000180000070000035F00212200005C
:1000E000F4000018222000A00001001008ED00E03C
:1000F00000000000000000000000000074B24E7A12
:1001000000200420F7010010C3010010C5010010F9
:10011000C1010010C1010010C1010010C101001097
:10012000C1010010C1010010C1010010C701001081
:10013000C1010010C1010010C9010010CB01001065
:10014000CD010010CD010010CD010010CD01001037
:10015000CD010010CD010010CD010010CD01001027
:10016000CD010010CD010010CD010010CD01001017
:10017000CD010010CD010010CD010010CD01001007
:10018000CD010010CD010010CD010010CD010010F7
:10019000CD010010CD010010CD010010CD010010E7
:1001A000CD010010CD010010CD010010CD010010D7
:1001B000CD010010CD010010CD010010CD010010C7
:1001C00000BE00BE00BE00BE00BE00BEEFF3058054
:1001D000103800BEF2EB8871C46A0510E46A05109D
:1001E0003402001090A31AE700201F49086006C8D7
:1001F00081F3088810471D48006800282FD10DA4FE
:100200000ECC002902D000F012F8F9E71849194A7B
:10021000002000E001C19142FCD1174988471749ED
:1002200088471749884700BEFDE701C901C29A42C5
:10023000FBD37047E46A0510C0000020202D002089
:100240004497051000000420000004204497051086
:10025000001004200010042000000000704709482E
:100260000FF0F4FB0047000008ED00E0000000D0B4
:10027000202D0020185D032041E2001055030010DE
:1002800075E300105756000006005250ABB36053A0
:1002900098C6041006005250861C0302A8C604101B
:1002A000060052505422A29DB4C6041005005250BC
:1002B000DE65F46844970510F8B5C0460448054B60
:1002C00010B5834203D0044B002B00D0984710BDDB
:1002D000202D0020202D00200000000006480749A6
:1002E000091A8B10C90FC91810B5491003D0044B57
:1002F000002B00D0984710BD202D0020202D00207D
:100300000000000010B5074C2378002B09D1FFF73F
:10031000D5FF054B002B02D0044800E000BF0123AD
:10032000237010BD283200200000000020C10410FE
:10033000054B10B5002B03D00449054800E000BF71
:10034000FFF7CCFF10BDC046000000002C3200209B
:1003500020C1041070B519200BF0A6FFD023802215
:100360001B0692045A6211F02FFC00F04BF807F0C4
:10037000C9FE09F055FC07F087FF02F031FC00F0E0
:100380003DF90AF079FF00220524144B1A7007F09A
:10039000B7FA134D013C2100280011F009FCFA20A6
:1003A00080000CF091FD002CF4D10A2011F060FACD
:1003B000012200210B480CF04FFA0B4813F0B4FD5A
:1003C00001220A4B0A4C1A702378012BFCD109F048
:1003D000E3FD2378012BFAD0F6E7C046FA5C032050
:1003E00020C10410FC5B0320D1A10010F95C0320A4
:1003F000FE5C032010B5024814F0BEF810BDC046E4
:10040000503B0320092370B586B005930433049351
:10041000023B0393013B0293023B324D324C01936A
:10042000324B22003249334800932B0006F026FF5E
:10043000142006F01FFFFA2080000CF045FD2E4E20
:1004400021003200280007F031F93378682B08D0FA
:100450002A4C200011F058FAFA2080000CF034FDEC
:10046000F7E773783D2BF3D101222100280007F034
:1004700041F9234E32002100280007F075F9337846
:10048000002BF7D101222100280006F0F1FF012105
:10049000200006F0CFFF0321200006F061FF0321BA
:1004A000280007F08BF81321200007F0CBF9122168
:1004B000200007F005FA0021200007F0E3F90321EE
:1004C000200007F06DF90221200007F085F9552181
:1004D000200006F063FF1821280007F009F806B095
:1004E00070BDC04608220320A833002040420F0000
:1004F0009C20002094200020B05C032034C1041014
:10050000135D0320F0B5C646334C344D344E220003
:100510002900300000B507F0DBF86378DB439B0768
:1005200020D023781B0702D480BCB846F0BD2D4CE8
:1005300006220021200011F069F82100300007F0A8
:1005400097F80023E05E06F001FF274D28600223A4
:10055000E05E06F0FBFE68600423E05E06F0F6FE57
:10056000A860E1E7214B062298461800002111F00F
:100570004DF81F4F06220021380011F047F8414680
:10058000280007F057F83900280007F035F84346EF
:100590000020185E06F0C6FE4346164D2860022075
:1005A000185E06F0BFFE434668600420185E06F041
:1005B000B9FEA8600023F85E06F0BEFE0E4D28606E
:1005C0000223F85E06F0B8FE68600423F85E06F0C9
:1005D000B3FEA860A5E7C046F0510320A833002071
:1005E0000822032060410320C44603205041032019
:1005F00058410320CC3F0320EC3F0320F0B5C64612
:1006000000B511F0E1FA244924480DF051FD032111
:100610001A200BF019FE03211B200BF015FE0022FF
:1006200001211A200BF028FE002201211B200BF0D3
:1006300023FE1B480CF048FC1A4C1B4E23781B4D24
:10064000DB070ED41A4B01279846210030880BF0A7
:1006500003FB4346287018680CF036FC23781F42D1
:10066000F3D030880BF0D6F80221287030880BF0D8
:1006700027FA1421287030880BF05AF914212870B9
:1006800030880BF0C3FA287030880BF027F92870F7
:1006900080BCB846F0BDC046801A0600B4210020D8
:1006A000B80B0000145D0320A4200020015D03208E
:1006B000A8200020F0B55746DE464E464546E0B538
:1006C0008BB008919246190005900993DA1703231D
:1006D0008C46134063449B109B009846002B00DC23
:1006E00090E05246159B00249B000193149B9B1A9B
:1006F000159A9B1A089A9B00029353681268190175
:1007000094460491069251469A00039252468D00F7
:100710000021013A92000792002289465900DE002A
:10072000CB189B009B461300424665440092019AF9
:1007300094469C44039B1A199F195346002B1EDDB7
:10074000069B059819196346804600989B00434410
:1007500080460094086818600098081A845804318C
:100760005C6084599C60C059D86010338D42F1D1CF
:1007700043460799009363468C4604339C44042106
:10078000029B5A4463448C461400049A3E00E144A0
:100790009446009A5E4465444A45C8DC1A00009BB2
:1007A0009846099B434526DD1499159C089B0D1B13
:1007B000514609CB6D1A00291DDD41469E004B4371
:1007C0009B00C01853469C00059B47469C46099BCE
:1007D000AB469846159B994600234A4491006144D4
:1007E000C558CD5004339C42FAD1524401375A4483
:1007F0008019B845F0D10BB0F0BCBB46B246A94653
:10080000A046F0BD0022CCE7F0B54746CE4680B505
:100810001F00002B1DDD002A1BDD9300C0180B6894
:10082000002498464B689100D200494252428C46BF
:1008300091469B00614645182900A2004244166873
:10084000D21840C18142FAD14A460134A81AA742BF
:10085000F0D1C0BCB946B046F0BDC046F0B5DE46EA
:100860004E46574645460023E0B5136083688BB07B
:10087000049305239B4600235E4609920268029377
:10088000013B07900691039208930523049C9B1B50
:100890005C439846029BA4009C46039B64449C4690
:1008A000644423685D0063686D085F007F08291C4D
:1008B000381C10F029FC002800D1CCE03D1C012799
:1008C000731C9A46022B37D9A368291C5B005B086E
:1008D000181C994610F018FC002801D04D4602273C
:1008E0005346032B28D0E368291C5B005B08181CC7
:1008F000994610F009FC002801D04D4603275346C5
:10090000042B19D02369281C5B005B08191C99462D
:1009100010F0E4FB002801D04D4604275346062B77
:100920000AD16469281C64006408211C10F0D6FBFD
:10093000002801D00527251C069B029A4744002168
:100940009F50281C10F0C2FB002800D185E0089BB6
:10095000013300D1FEE0062347469B1B9C46079AC5
:1009600005939268574367440492BF000599049B1E
:100970000C009A005C43029B00929C46039BA500DE
:100980001A0065448C4691469B46924690463B1D14
:100990006444A400994404335D445C449A44BB44D9
:1009A00004331037944698443B0000276344019376
:1009B0005B462968186810F05AFB011C206810F08B
:1009C0003CFB2060012E2DD94B462868196810F099
:1009D0004EFB011C606810F030FB6060022E21D0DD
:1009E00053462868196810F042FB011CA06810F0FB
:1009F00024FBA060032E15D043462868196810F028
:100A000036FB011CE06810F018FBE060052E09D1F0
:100A1000019B2968186810F02AFB011C206910F05E
:100A20000CFB2061009B01379C4665446444BE4238
:100A3000BED1029B013E04330293059B052B00D0DF
:100A400023E71A00069B5A610BB0F0BCBB46B246C6
:100A5000A946A046F0BD002732E7474530D00399AC
:100A600002988C46BF0067448446079A3C689268A7
:100A70000B5892000C5061443B608918BB18086801
:100A80001C680C60186089189B1808681C680C604A
:100A9000186089189B1808681C680C601860891811
:100AA0009B1808681C680C60186089189B181868E7
:100AB0000A6808601A60099A13680093013313608A
:100AC0004746079B039A9B685F4304930623991B41
:100AD00043468C46FB189B0067449C58BF00D519C1
:100AE00028680591211C10F0AEFA2860012E00D86C
:100AF0003CE7039B3D1D9C4665442868211C10F083
:100B0000A2FA2860022E00D130E7039B3D009C46EC
:100B1000083565442868211C10F095FA2860032EDA
:100B200000D123E7039B3D009C460C3565442868B3
:100B3000211C10F088FA2860042E00D116E7039AD1
:100B40003D009446103565442868211C10F07BFA5E
:100B500028600BE7062347469B1B9C4605934346AC
:100B6000079A08939268574367440492BF00FDE6D2
:100B7000F0B55746DE464E464546E0B599B014936B
:100B8000249B8246259C26985D1C00D1229B651CD7
:100B900000D1229C239DEE1703253540239EB446A9
:100BA0006544AD10AF000725229E0E97AE43350079
:100BB0000096149E002E00DC88E29B001693230111
:100BC00010930301D31817936B1EDB0801330391B5
:100BD000D9015B010F93A3007C432018800011937F
:100BE000131815930023D346139108930E9B002BE3
:100BF00000DCC2E10F9A039B944663441293179B57
:100C0000D8460193002302930298434601000CCB7F
:100C1000089C5943A4466144890051180991411C1C
:100C200059436144890051180A91811C5943614418
:100C3000890051180B91C11C4B4363449B00D3188E
:100C4000019E0C93009B3400002B00DC45E2039BCB
:100C50000025994600234C46AA46AB46A946069570
:100C600004952F1C059507950D9325683168281C60
:100C700010F0FDF9594610F0E3F971688346281C1D
:100C800010F0F5F9514610F0DBF9B1688246281CE6
:100C900010F0EDF9079910F0D3F9F1680790281CCE
:100CA00010F0E5F9059910F0CBF905906568316908
:100CB000281C10F0DCF9391C10F0C2F97169071C0E
:100CC000281C10F0D4F9049910F0BAF9B169049015
:100CD000281C10F0CCF9069910F0B2F9F1690690D1
:100CE000281C10F0C4F9494610F0AAF98146A568FD
:100CF000316A281C10F0BBF9594610F0A1F9716A4D
:100D00008346281C10F0B3F9514610F099F9B16AE6
:100D10008246281C10F0ABF9079910F091F9F16A9E
:100D20000790281C10F0A3F9059910F089F9059097
:100D3000E568316B281C10F09AF9391C10F080F925
:100D4000716B071C281C10F092F9049910F078F9C7
:100D5000B16B0490281C10F08AF9069910F070F914
:100D6000F16B0690281C10F082F9494610F068F9E2
:100D700081462569316C281C10F079F9594610F02C
:100D80005FF9716C8346281C10F071F9514610F020
:100D900057F9B16C8246281C10F069F9079910F0D8
:100DA0004FF9F16C0790281C10F061F9059910F0CB
:100DB00047F905906569316D281C10F058F9391C08
:100DC00010F03EF9716D071C281C10F050F90499C1
:100DD00010F036F9B16D0490281C10F048F906990E
:100DE00010F02EF9F16D0690281C10F040F94946DC
:100DF00010F026F98146A569316E281C10F037F9EC
:100E0000594610F01DF9716E8346281C10F02FF919
:100E1000514610F015F9B16E8246281C10F027F9E2
:100E2000079910F00DF9F16E0790281C10F01FF9CA
:100E3000059910F005F90590E569316F281C10F04F
:100E400016F9391C10F0FCF8716F071C281C10F003
:100E50000EF9049910F0F4F8B16F0490281C10F00A
:100E600006F9069910F0ECF8F16F0690281C10F0C6
:100E7000FEF8494610F0E4F88146803620340D9B98
:100E8000009A08330D939A4200DDEEE6139B019C15
:100E90009C46051C5946381C644410F0D1F8514654
:100EA000071C049810F0CCF80799061C069810F05F
:100EB000C7F805998146281C10F0C2F8129B051C42
:100EC0009A46229A009B9A4230DDAB4604935346E1
:100ED00020CB2168281C9A4610F0C9F8011C381C48
:100EE00010F0AEF86168071C281C10F0C0F8011C57
:100EF000301C10F0A5F8A168061C281C10F0B7F8EB
:100F0000011C484610F09CF8E1688146281C10F04E
:100F1000AEF8011C584610F093F88346049B229AC1
:100F20000133103404939A42D1D1051C311C0A9E1E
:100F3000306810F082F8391C099F041C386810F0E2
:100F40007CF8291C0C9D38603460286810F075F816
:100F50000B9E4946041C306810F06FF81099019AF6
:100F60008C46029B624401920E9A043330600293D5
:100F70002C609A4200DD47E6C3460F9A039B9446D5
:100F800063440E9A0293239B9246159D934200DC84
:100F900090E05B465C6853465C43089B2F009C4690
:100FA0005B461B6864449C46009BA4006444002B81
:100FB00000DC99E00023039F99463B00A0460026F1
:100FC0002F001C003968206810F051F8311C10F017
:100FD00037F8061C7968606810F049F8311C10F089
:100FE0002FF8061CB968A06810F041F8311C10F009
:100FF00027F8061CF968E06810F039F8311C10F089
:101000001FF8061C3969206910F031F8311C10F006
:1010100017F8061C7969606910F029F8311C10F086
:101020000FF8061CB969A06910F021F8311C10F006
:1010300007F8061CF969E06910F019F8311C0FF087
:10104000FFFF061C2037203408239C46009BE14408
:101050004B45B7DC44460F9BEF18029B0193229A45
:10106000009B9A4217DD9946002398464346424624
:10107000F958019B98580FF0FAFF011C301C0FF033
:10108000DFFF061C01239C460333E1449C46229B60
:10109000E0444B45EAD12068311C0FF0CEFF01231C
:1010A0009C46119BE2449C46239B2060654453452B
:1010B00000D06EE71699039A8C46089B624403920F
:1010C000149A013308939A4200D08FE519B0F0BC0E
:1010D000BB46B246A946A046F0BD0025039BA946E3
:1010E0009A462E1C2F1CECE6039B00260193B6E7C4
:1010F000F0B55746DE464E4645469C24E0B5BDB0A9
:1011000006AF3C19FB63842320609824BA669422BE
:101110005B003C19FB1821601C68BA182369FB6747
:10112000A3681360834202DD9423FB1818609423A4
:101130009821FB187918FA6F1B680D6853435543C3
:101140002268002A00D1DBE29B007B668C23FB181F
:101150001A6090220023BA1813606368AA003A66E6
:10116000002B00D1ECE28822BB670023BA18136081
:10117000C84D2B78BFF35B8FDB0700D4FDE2C64C74
:10118000A4220423BA1813609433FB181B68606808
:10119000002B18DD9C237A1DFB18FF321B68126898
:1011A0001900934200DAFFE209010EF0A9FC0323C3
:1011B000C2171340A4221B189B109B00BA1813607F
:1011C000042B00DAEBE29C23FB181C68002C00DCEB
:1011D00072E2FB6BFD6F18006A425043F861180021
:1011E0008021661B7043F866180001335A43920051
:1011F0007918BA61621E0E60110059438900884651
:10120000B96E1B018C46E04441467964A90049420D
:101210003961A1007C1CFF3424685B42A446A424ED
:1012200061443964791DFF313C1909682468FB6009
:101230006143B962B02183005B4279180B600300FF
:10124000921B5043DB43AC229B00BA181360C422AC
:101250007B1DFF331B68BA189B0078611360A022C6
:10126000FB6FBA1813609C22BA181268934202DD11
:10127000A023FB181A609823FB181B68002B00DCC6
:101280009FE1A023FB181A68002A00DC99E198234B
:10129000FB181B68396C3B65A423FB181B68534380
:1012A0009B00FB62BB6FFB649300CB1A79697B6286
:1012B0008C46FB6EB82163447B63002379180B6076
:1012C000D021BB643B679C33FB181B6879189B1AC1
:1012D000BB60130079600321013B043A8B43D31AAE
:1012E0003B63A422BA183B6D1268FB65934200DD94
:1012F000FA65B822BA181268FB6D9446C822634496
:10130000BA1813609C237A6AFB1894461B688422DF
:101310007B673B6FBA189B0063443B627B6B7B65CA
:101320007B6CBB65A023FB181B6813608423B4226D
:10133000FB181B68BA181360042B03DDB4220423C6
:10134000BA1813608423FB181B68002B00DCA5E08F
:10135000B422C820B824BA187B6F116838183C1919
:10136000006824685A1ABA63A04200DC9CE09446E4
:101370004E1EB96E9B008A46043B9B467B6D791CD2
:1013800063449B00FF3109689A44BB6C63448C46FC
:10139000A8219B00634479180B609300C0225B4234
:1013A000BA181360BC22BB6DBA181360BC23FE20B0
:1013B000FB181B68800519680FF045FECC23FB184D
:1013C0001860A823FB181C68B823FB181B68B146DB
:1013D0001E00C023FB181B685A469846A04443468B
:1013E0009958CC23FB1818680FF041FE43465A4623
:1013F00098504B46051C002B22DD534619680FF010
:1014000036FE011C20680FF018FE4B462060012BB1
:1014100016D05346281C59680FF029FE011C60683D
:101420000FF00BFE4B466060022B09D05346281C80
:1014300099680FF01CFE011CA0680FF0FEFDA06073
:10144000C423FB181B6801369C46C823FB181B6885
:1014500064449E42BDD1AC22BC23BA181268FB186A
:101460009446BC221B68BA18634413600423B0225C
:101470005B429C46BA181268E3449446B4224E4636
:10148000BA181268731EE244961BB2420CDD1E00AD
:101490008CE7C046A0250320643B0320B422BA1881
:1014A0007B6F12689B1ABB638423B422BD6BBA188E
:1014B000AC46FB1810681B687A1CFF3212681C1AB5
:1014C0003B6F7968634494469B0063440B607B1DCB
:1014D000FF331B6880464B60A0230194FB181E68F5
:1014E00002000096FB6DF86C9B4689468246FFF72A
:1014F000E1F8002C2ADD2B00BA6849469446FD6BC2
:10150000BA6E6B438C20634494464D604D469B00FD
:101510003818006863440B60424623008146FFF799
:1015200073F929007B1DFF333D6A1B680D604B601A
:101530000D005B46039646460193524623004946FA
:101540002800049402960096FFF712FB842384225D
:10155000F968FB188C46B0211B68BA18043B13606D
:101560007A6F7918043A09687A67BA6D62448C46D2
:10157000BA657A6D62447A653A6B934200D0D5E6DB
:10158000A422B823BA181268B8219446FB181B6825
:10159000791863440B60396D8A1AF96A3A658C468A
:1015A000FA6CB96A62448C46FA643A6F62443A67EC
:1015B000BA6C6244BA649822BA1812689A4200DD82
:1015C0008FE680239C22FB181B68BA181360002B3F
:1015D00072DD9423FB181B68002B00DCFEE78023E0
:1015E000BA6EFB1892461D68FB6E00249B009A445D
:1015F000D023FE1800239B46013B99469423FB18F9
:101600001B68A8469D4200DD9846CC22A300BA186C
:101610001360FA6B8C207260A0225344BA183818F9
:1016200031001268006833604346FFF7EDF87A1C1A
:10163000CC23FF321268FB1894461B688C2163444C
:1016400033607B1DFF331B68791873605B4604931E
:101650004B46039302939823FB181B6830000193B9
:10166000A023FB181B680093BA6F43460968FFF775
:101670007FFA9423FB181B689C46ED1A8023FB1805
:101680001B686444A342B9DCFA69FB6E9446BA69EC
:1016900063449446FB663A697B6C634494467B647E
:1016A0003B6CFA6F63443B648023FB181B689B1AF6
:1016B0008022BA181360D2E580233A6E9B029A42C8
:1016C00008D98823FB181B68002B03D0043B18683B
:1016D0000FF084FF80237A6E9B029A4208D99023F0
:1016E000FB181B68002B03D0043B18680FF076FF33
:1016F000BD4637B0F0BCBB46B246A946A046F0BDD9
:101700009A0080237A669B029A424FD813006A4659
:101710001633DB08DB00D31A9D4627200F236844CD
:1017200098438133FB18186090238C22FB181B68A8
:10173000BA1813606368AA003A66002B00D012E55D
:1017400080239B029A424FD813006A461633DB0867
:10175000DB00D31A9D4627200F2368449843793332
:10176000FB1818608823FB181B682D4DBB672B786E
:10177000BFF35B8FDB0700D501E5280012F0FAFB11
:10178000284C002800D1FBE48023DB012360802368
:101790001B0328006360A36012F008FCF0E4A4229D
:1017A0000423BA1813600EE51100FDE41000103098
:1017B0000FF0F6FE9023FB18021E1860B4D00F2322
:1017C000010099430B0010218C468C209C446146FB
:1017D000DA6023683818016058425841902340422B
:1017E0000140FB181960B8E4100010300FF0D8FE6B
:1017F0008823FB1818600028B4D00F2301009943F8
:101800000B0010218C46D86060689C4443425841CC
:10181000614688234042B967FB1801401960A7E47C
:10182000A0250320643B0320F0B55746DE464E4614
:101830004546E0B5B3B006AF8C24BB62E023FA6244
:1018400088223C19FB1821601C68BA182369786546
:1018500013608422A368BA181360834202DD8423D4
:10186000FB181860842388228C21FB18BA18791879
:1018700012681B680D68534355432268002A00D143
:1018800050E29B00FA6780223B650023BA18136080
:101890006368AA00FA64002B00D161E2FB660023B2
:1018A000BB67E74D2B78BFF35B8FDB0700D470E29B
:1018B000E44C90220423BA1813608833FB181B6889
:1018C0006068002B16DDDC22BA187B6D12681900E7
:1018D000934200DA74E209010EF012F90323C217F1
:1018E000134090221B189B109B00BA181360042B06
:1018F00000DA60E27B6D002B00DCF1E18822B96A3E
:10190000BA1808001268BB6350439B1AB86098204D
:101910007B634B1C99001B01FB61DC234A43381895
:1019200001607A609020DC22FB181B68BA189B00CB
:101930009B46FB6A38183B63002312680068BB654E
:1019400042437A610A1F3A627B679422BB6BBA18E2
:1019500013608822BA181268934202DD9423FB18A0
:101960001A608C23FB181B68002B00DC45E19423D4
:10197000FB181A68002A00DC3FE18C239021FB1839
:101980001B687918BB6413000968DA464B43D821F9
:10199000791809689B008C463B61FB6E9C21FB65B6
:1019A0007B6F79189B006344FB6000230B60A821C8
:1019B0003B667918130039600321013B043A8B43DD
:1019C000D31ABB619022BA18BB6C1268BB669342F3
:1019D00000DDBA669C22BA181268BB6E9446FA689B
:1019E000634494469B463B6E9B006344FB633B6BA6
:1019F0003B647B6F7B66BB6D7B649423FB181B6829
:101A00003B679423FB181A683B6FD21A7A62A022B4
:101A1000BA181360042B03DDA0220423BA18136044
:101A20003B6F002B58DD9C23FB181B689B4553DD47
:101A3000A023A422FB181B68BA18013B9946FB6B34
:101A400013603B6C98464B46002B2EDDA423FB18FD
:101A50001C689C23FB181E68434625685968281C8F
:101A60000FF005FB011C60680FF0E7FA4B46606061
:101A7000012B16D04346281C99680FF0F8FA011C78
:101A8000A0680FF0DAFA4B46A060022B09D043465B
:101A9000281CD9680FF0EBFA011CE0680FF0CDFAB2
:101AA000E060013654445E45D6D14B465A1E982319
:101AB000FB181B68A4219C46A423FB181B687918FB
:101AC00004330B60A023FB1819684B46E044CB1A83
:101AD000994201DD9146B6E7A022BA181468D822CF
:101AE0003B6F796E3E6E8C461D1B3300BA18106832
:101AF0006344844639689B0063440B60DC23FB1815
:101B00001B6822004B607B6A884601939423FB1874
:101B100018680090BB6EF86DFEF7CCFD002D36DD29
:101B20007B6E41469C46786C220064440319F86A37
:101B30009B008446B86A63444860A020381802605D
:101B4000F86F0B602B00C1468046FEF75DFED82281
:101B5000BA18331914689B00A4464C4663442360AA
:101B6000DC23FB1819687B6A616004939423FB18DB
:101B70001E68A0230396FB181A6841460292BB6EAA
:101B80000092019348462B00FA6DFEF7F1FF396A87
:101B90007A6C8C46F96962448C467A647A6E3B6F43
:101BA00004327A663A6C043B62443A64FA6B3B67EF
:101BB0001032FA63BA69934200D022E790229C2344
:101BC000BA1812689C219446FB181B687918634464
:101BD0000B60B96C8A1A7969BA648C463A6E3969B5
:101BE00062448C463A66FA6D6244FA658C22BA18F1
:101BF00012689A4200DDE5E6D3468822BA181268D8
:101C00007B6F94467A6D63447B67934268DA8423E2
:101C1000FB181B68002B17DC8823B968FB188C465F
:101C2000BA6B1B68D21ABA63BA6D6244BA657A6B32
:101C3000D31A7A687B6394463B6B63443B6384E6C8
:101C4000A0250320643B0320FA6ABB6D92469B00EB
:101C50009A44A823FE18A93B99467D6B7C6F842388
:101C6000FB181B68A8469D4200DD9846A422A300ED
:101C7000BA181360BA6A534472609422BA183100D9
:101C80001268F86F33604346FEF7BEFDD822A423E6
:101C9000BA181268FB1894461B683000634433601E
:101CA000DC23FB181B687360002304934B460393EB
:101CB00002938C23FB181B6801939423FB181B6869
:101CC0000093FA6E4346F96FFEF752FF8423FB1828
:101CD0001B689C46ED1A7B6D6444A342BFDC9BE706
:101CE0008023FA6C9B029A4206D9BB6F002B03D06B
:101CF000043B18680FF072FC80233A6D9B029A42F5
:101D000008D98023FB181B68002B03D0043B1868FC
:101D10000FF064FCBD462DB0F0BCBB46B246A946F0
:101D2000A046F0BD9A0080233A659B029A4249D8AA
:101D300013006A461633DB08DB00D31A9D462720C2
:101D40000F23684498437133FB1818608023FB18F5
:101D50001B68AA00FB676368FA64002B00D09DE54E
:101D600080239B029A4249D813006A461633DB0847
:101D7000DB00D31A9D4627200F2368449843B86799
:101D8000BB6F2A4DFB662B78BFF35B8FDB0700D55B
:101D90008EE5280012F0EEF8254C002800D188E5E9
:101DA0008023DB01236080231B0328006360A36082
:101DB00012F0FCF87DE590220423BA18136099E52F
:101DC000110088E5100010300FF0EAFB8023FB18AB
:101DD00018600028BAD00F23010099430B0010218E
:101DE0008C46D8609C442368614658425841802301
:101DF0004042F967FB180140196049E510001030B6
:101E00000FF0CEFBB8670028BAD00F23010099432A
:101E10000B0010218C46D86060689C4443425841B6
:101E200061464042F9660140B9673AE5A0250320C2
:101E3000643B032030B587B00D4B02AD00951A68A6
:101E4000694602929A880400AA809B796A46AB711F
:101E5000072301930023D3732FF01EF80098A842A4
:101E600003D0029901310FF0EDFB200007B030BD27
:101E700048C10410F0B5DE4657464E464546E0B52B
:101E80001F1CFE4B8FB01D68FD4B079018680A9110
:101E9000011C00920FF0D4F8FA4B19680FF0E7F824
:101EA000291C0FF0E4F8F84B19680FF0CCF8011C6E
:101EB000FE2080050FF0C1F8F44B81461860F44B0A
:101EC0001E68301C0FF0C0F9F24B041C1B68301C5C
:101ED00098460FF0CBF9F04B8346211C40461E6814
:101EE0000FF0C5F859468246301C0FF0C0F8011CAF
:101EF00050460FF0A5F8291C0FF0B9F8E74B8246C1
:101F0000186080231B0643441800391C0FF0AFF8FB
:101F100000998046301C0FF0AAF8011C40460FF0D3
:101F20008FF8DF4B80461968201C0FF0A0F8189935
:101F30000FF09DF8011C40460FF082F8291C0FF0AD
:101F400096F8D84B1899186080231B068046F01825
:101F50000FF08DF8291C0FF08AF8D34B0090186011
:101F6000391C281C0FF083F8211C0FF06CF8CF4CA3
:101F7000CF4B2668CF4C18602768CF4B8346196833
:101F8000381C0FF074F8CD4C311C2568041C4846F1
:101F90000FF06DF8011C201C0FF052F8C84B041C08
:101FA0001968281C0FF063F8011C201C0FF048F87A
:101FB00041460FF045F8C34B0C901860C24B381CDB
:101FC0001C68C24B19680FF052F8211C8046301C67
:101FD0000FF04DF8011C40460FF032F8291C8046E6
:101FE00050460FF044F8011C40460FF029F80099C4
:101FF0000FF026F8B64B08901860B64B301C1968E5
:102000000FF035F8B44B061C1968381C0FF02FF888
:10201000011C301C0FF014F8B04B061C1968281C6A
:102020000FF025F8011C301C0FF00AF859460FF08C
:1020300007F8AB4EAB4B35681860494609904846E7
:102040000FF015F8291C0FF012F8A74B19680EF0C5
:10205000F7FFA64BA64A186012680D90211C48464F
:1020600090460FF004F8291C0FF001F8A14F061C50
:102070003F684846391C00970EF0F9FF011C301CE0
:102080000EF0DEFF5146061C48460EF0F0FF4146BA
:102090000EF0EDFF011C301C0EF0D2FF964B4146B6
:1020A0000190186048460EF0E2FF944B02901860D1
:1020B000291C201C0EF0DBFF914D924E29680EF07A
:1020C000BFFF3768051C391C50460EF0D0FF011CBD
:1020D000281C0EF0B5FF061C011C48460EF0C7FF79
:1020E000894B8A4A18608A4B12681B6803900593D3
:1020F0000492884D50462D68291C06950EF0B7FFB6
:102100004146051C201C0EF0B2FF834B19680EF0EF
:1021100097FF291C0EF094FF311C8346201C0EF003
:10212000A6FF0099061C201C0EF0A1FF011C301C0C
:102130000EF086FF05990EF083FF049B061C191C08
:10214000504698460EF093FF011C301C0EF078FFAD
:102150005946061C50460EF08AFF011C301C0EF03A
:102160006FFF6E4B5E4619680EF06AFF6C4B009075
:1021700018606C4B391C1E6048460EF078FF6A4BA5
:1021800004901860391C201C0EF071FF41460EF0BF
:1021900057FF291C0EF054FF644B041C1860644B5D
:1021A000196806980EF04CFF624B0899071C1860DE
:1021B00007980EF042FF604B0999069018600A9844
:1021C0000EF03BFF5D4B079018605D4B059819685A
:1021D0000EF036FF5B4B061C186058465A4B0597AD
:1021E00018605A4B381C1C60594B19680EF028FFB8
:1021F000584B071C1860011C301C0EF038FF211CC6
:10220000051C58460EF033FF011C281C0EF015FF6C
:10221000051C011C381C0EF016FF4F4B071C1860E4
:1022200080231B065B44291C18000EF00CFF4B4B4F
:102230008146186080231B06E018291C0EF003FF5E
:10224000474B82461860291C301C0EF0FCFE454BA3
:1022500080461860391C01980A970EF008FF029E0C
:102260005146051C301C0EF002FF011C281C0EF00C
:10227000E7FE3D4B071C1860494677E0D020002060
:10228000AC20002080230320D82000200842032017
:1022900014210020182100201C21002018420320B6
:1022A000CC200020585C03205C5C0320AC2303207E
:1022B000605C0320B02303200C420320B4230320DE
:1022C00010420320B823032014420320C42000201E
:1022D000BC2303201C42032020420320C8200020EE
:1022E000DC200020C0230320F4200020E020002078
:1022F000E8500320E0500320E4500320EC5003207A
:10230000F050032000510320F45003200851032013
:10231000E4200020EC200020F8500320F8200020CA
:10232000E8200020FC500320045103200C5103201E
:10233000FC200020F0200020F4410320FC41032079
:1023400000210020C05B0320C45B0320C85B032086
:1023500004210020CC5B0320D05B0320D45B03204E
:10236000D85B0320DC5B0320BC33002001980EF017
:102370007EFE4146051C301C0EF079FE011C281C17
:102380000EF05EFE914B061C0A99186000980EF044
:102390006EFE5146051C58460EF069FE011C281CB5
:1023A0000EF04EFE8A4B494618600B9000980EF0D6
:1023B0005EFE4146051C58460EF059FE011C281CC5
:1023C0000EF03EFE834B051C0A991860201C0EF08F
:1023D0004EFE51460A9005980EF049FE011C0A98DF
:1023E0000EF02EFE7C4B824618604946201C0EF0F3
:1023F0003EFE4146814605980EF039FE011C4846D6
:102400000EF01EFE754B81461860391C06980EF0C2
:102410002EFE0C990EF014FE311C804607980EF02B
:1024200026FE011C40460EF00BFE6D4B0B9918600A
:1024300006980EF01CFE08990EF002FE291C80463C
:1024400007980EF014FE011C40460EF0F9FD654B96
:102450005146186006980EF00AFE09990EF0F0FD3C
:102460004946804607980EF002FE011C40460EF0D9
:10247000E7FD5D4B391C186003980EF0F8FD011C58
:102480000D980EF0DAFD311C804604980EF0EFFD39
:10249000011C40460EF0D1FD544B391C18600098C9
:1024A0000EF0E5FD011C01980EF0C7FD311C8046C1
:1024B000201C0EF0DCFD011C40460EF0BEFD4C4B16
:1024C000391C186058460EF0D2FD011C02980EF01F
:1024D000B4FD059B071C311C181C98460EF0C7FD67
:1024E000011C381C0EF0A9FD424B0B991860FE2010
:1024F00080050EF0A2FD061C011C03980EF0B7FD2E
:10250000291C071C04980EF0B2FD011C381C0EF0AB
:1025100094FD394B311C186000980EF0A8FD291C61
:10252000071C201C0EF0A3FD011C381C0EF085FDBD
:10253000324B311C186058460EF099FD291C061CC0
:1025400040460EF094FD011C301C0EF076FD2C4B25
:1025500049461860FE2080050EF06FFD051C011C29
:1025600004980EF084FD5146061C03980EF07FFD82
:10257000011C301C0EF061FD224B291C1860201C30
:102580000EF075FD5146041C00980EF070FD011C04
:10259000201C0EF052FD1C4B291C186040460EF00A
:1025A00066FD5146041C58460EF061FD011C201CBE
:1025B0000EF043FD154B1860FE2080050FB0F0BCF7
:1025C000BB46B246A946A046F0BDC046C033002077
:1025D000C4330020C8330020CC330020D033002087
:1025E000AC230320B0230320B4230320DC200020ED
:1025F000E0500320E8500320F0500320E4200020A6
:10260000F85003200051032008510320EC20002043
:10261000F0B5DE4657464E464546E24BE0B51860FB
:10262000E14B0D1C1B68E14C98464146E04BE468C9
:102630001960DD4989B04968069059608946DB4BCD
:10264000DA491F684E68DB4B89681F605E609960DD
:10265000DC60D94B05949A6858681C680292049112
:102660000190DB68211C404603930EF000FD0299A7
:10267000824648460EF0FBFC011C50460EF0E0FC82
:10268000CE4B82461968281C9B460EF0F0FC011CBC
:1026900050460EF0D5FCCA4B019918600790404691
:1026A0009A460EF0E4FC0399804648460EF0DFFCA3
:1026B000011C40460EF0C4FC5B4680465968281C4D
:1026C0000EF0D5FC011C40460EF0BAFC5546834680
:1026D0006860211C381C0EF0CAFC029A051C111CF3
:1026E000301C90460EF0C3FC011C281C0EF0A8FC08
:1026F00001998146381C0EF0BAFC039F051C391C59
:10270000301C0EF0B4FC011C281C0EF099FC211C9E
:10271000824604980EF0ABFC4146051C05980EF06D
:10272000A6FC011C281C0EF08BFC46460199804635
:1027300004980EF09CFC391C051C05980EF097FCC3
:10274000011C281C0EF07CFC4946071C201C0EF0C6
:102750008EFC4146051C301C0EF089FC011C281C17
:102760000EF06EFC974E31680EF06AFC964D5146A5
:1027700004902860201C0EF07AFC391C041C02987E
:102780000EF075FC011C201C0EF05AFC71680EF056
:1027900057FC49460290686001980EF068FC039A65
:1027A0004146041C101C91460EF061FC011C201CCB
:1027B0000EF046FCB1680EF043FC5146041CA860C4
:1027C00001980EF054FC391C804648460EF04FFC30
:1027D000011C40460EF034FCF1680EF031FCE8605C
:1027E0007A4D071C2E680498311C0EF040FC6D6871
:1027F0008046291C381C01970EF039FC291C8246A2
:1028000002980EF034FC41460EF01AFC311C0EF01A
:102810002EFC311C071C201C0EF029FC51460EF02A
:102820000FFC291C0EF023FC011C381C0EF008FCC8
:10283000674B19680EF004FC664B071C1860291CD6
:10284000201C0EF014FC41460EF0FAFB391C0EF071
:10285000FAFB61498046894608600298311C0EF0F7
:1028600006FC51460EF0ECFB391C0EF0ECFB494621
:10287000079B071C4860181C311C9A460EF0F7FB9A
:10288000291C814658460EF0F2FB011C48460EF00A
:10289000D7FB011C06980EF0D0FB414681460EF096
:1028A000E6FB51460EF0CCFB3F4A391C106048460F
:1028B0000EF0DDFB59460EF0C3FB3B4A81465060EB
:1028C000464A311C934640460EF0D1FB5A46011C45
:1028D00010680EF0B2FB311C8246381C0EF0C7FBAC
:1028E0005A46011C50680EF0A8FB291C061C4046E5
:1028F0000EF0BDFB5A46011C90680EF09EFB291C91
:102900008046381C0EF0B3FB5A46011CD0680EF00E
:1029100094FB5146051C04980EF0A9FB029B41460E
:10292000071C181C9B460EF0A2FB011C381C0EF065
:1029300087FB1E4A311C106004980EF098FB291C7E
:10294000071C58460EF093FB011C381C0EF078FB58
:10295000164B51465860201C0EF089FB019B4146E6
:10296000071C181C98460EF082FB011C381C0EF048
:1029700067FB0E4B311C9860201C0EF078FB291C65
:10298000041C40460EF073FB011C201C0EF058FB8B
:10299000064BD860484609B0F0BCBB46B246A946D3
:1029A000A046F0BDE05C032094500320602E002080
:1029B00068460320A02E0020C02E002040410320A6
:1029C000A4500320B02D0020802E0020B8500320FA
:1029D0004C23032058460320B4330020E02E00206F
:1029E000F0B5DE4657464E464546E0B5674B83B0E8
:1029F00059689A460EF021FB654B051C1860654B23
:102A00001B689B46644B59461C680EF019FB211C41
:102A10000EF02DFB614B061C1868011C0EF010FB1C
:102A2000011C301C0EF00FFB5D4E31680EF008FBF0
:102A30005C4B009030601868011C0EF001FB5A4B93
:102A4000061C1A68111C91460EF011FB8046011CF1
:102A5000201C0EF0F5FA211C071C40460EF0EDFA82
:102A6000524A116890460EF002FB391C0EF0EBFA48
:102A70004946019048460EF0E3FA59468146281C23
:102A80000EF0DBFA011C48460EF0F1FA391C0EF08C
:102A9000DAFA011C01980EF0D3FA42460099106050
:102AA000071C281C0EF0CCFA391C0EF0C9FA404B5A
:102AB00019680EF0DCFA3F4B18603F4B1860534624
:102AC00019680EF0BAFA3D4B051C18603C4B1B68A8
:102AD000191C9A460EF0B4FA211C0EF0C8FA394BB4
:102AE00080461868011C0EF0ABFA011C40460EF03F
:102AF000AAFA354B994619680EF0A2FA4B461860AF
:102B0000324B80461B68301C191C99460EF0AFFAF8
:102B10008346011C201C0EF093FA4946061C4846C9
:102B20000EF08EFA51468146281C0EF086FA011CE2
:102B300048460EF09CFA311C0EF085FA211C8146A5
:102B400058460EF07AFA391C0EF091FA311C0EF04C
:102B50007AFA011C48460EF073FA1D4B4146186084
:102B6000041C281C0EF06CFA211C0EF069FA194B9B
:102B700019680EF07CFA184B1860184B186003B0F7
:102B8000F0BCBB46B246A946A046F0BD9450032017
:102B90000042032060460320D4200020B020002003
:102BA00050460320C0200020E4330020DC410320F5
:102BB000B8200020645C0320545C032004420320FE
:102BC00064460320B420002054460320E83300204C
:102BD000E0410320BC200020685C03206C5C0320E3
:102BE000F8B5FE250024194BAD051D60DD609C6025
:102BF0005C60174B174F1D60DD609C605C60164B7E
:102C00001E68164B301C19680EF01DFA144B386004
:102C10001D605C60DD609C60124B7C601D605E60CE
:102C2000DD609C60104B1C605D60104B1868011CDF
:102C30000EF01DFA0E4B0F4A186012680E4B1A6008
:102C40000E4A9C6012685C60DA60F8BD602E00205D
:102C5000802E002040410320D4200020D8200020D6
:102C6000E02E0020C02E0020B850032010210020AC
:102C70004C23032034230320B02D002030230320D5
:102C8000F0B5DE4657464E464546E0B50E000168B3
:102C9000C7688946416805698A4681688DB08B4658
:102CA000416980690793069050681368926805919E
:102CB0000A90291C30680B92099308950EF0BDF913
:102CC0000599039070680EF0B8F90699051CB06874
:102CD0000EF0B3F980268046360607980EF09AFA71
:102CE000B446039B009001916344180051460EF0D6
:102CF000BEF95946061C281C0EF0B9F9011C301CFF
:102D00000EF09BF9391C061C404604970EF0AFF9F3
:102D1000011C301C0EF091F90EF07CFA0022684B79
:102D20000DF065F9009A019B0DF061F90600484627
:102D30000F000EF06FFA02000B0030003900169CF5
:102D40000DF02EF90DF058FA4946206003980EF068
:102D50008EF95946061C40460EF089F9011C301CBC
:102D60000EF06EF90499061C281C0EF080F9011C67
:102D7000301C0EF062F90EF04DFA0022504B0DF0AF
:102D800036F9009A019B0DF032F9060050460F000B
:102D90000EF040FA02000B00300039000DF000F98F
:102DA0000DF02AFA49466060281C0EF060F9514681
:102DB000061C40460EF05BF9011C301C0EF03DF97C
:102DC0000499061C03980EF052F9011C301C0EF0F9
:102DD00037F90EF01FFA0022394B0DF008F9009A6E
:102DE000019B0DF004F9060058460F000EF012FA90
:102DF00002000B00300039000DF0D2F80DF0FCF9A4
:102E00004946A06040460EF032F95146061C281C87
:102E10000EF02DF9011C301C0EF012F95946051C5C
:102E200003980EF024F9011C281C0EF006F90EF090
:102E3000F1F90022224B0DF0DAF8009A019B0DF017
:102E4000D6F8060004980F000EF0E4F902000B001B
:102E5000300039000DF0A4F80DF0CEF9089B099967
:102E6000E060181C98460EF002F9079D291C0EF030
:102E7000FEF8011C40460EF0E0F8059F0A9920611B
:102E8000381C0EF0F4F8291C0EF0F1F8011C381C67
:102E90000EF0D3F8069E0B996061301C0EF0E7F837
:102EA000291C0EF0E4F8011C301C0EF0C6F8A061DD
:102EB00000200DB0F0BCBB46B246A946A046F0BD0E
:102EC0000000E03FF0B5DE4657464E4645468A468E
:102ED0004168E0B58846C768816891B00668894650
:102EE0004046391C141C04930EF0C1F84946051CD9
:102EF000301C0EF0BCF80A90011C281C09950EF03D
:102F00009CF80EF087F902000B000DF049F80690CE
:102F10000791201C02940EF07DF90B0002000400C2
:102F20000D00069807990DF062F80DF065F952460C
:102F3000391C106048460EF09AF883464146301C12
:102F40000EF095F85A460E90011C58460B920EF062
:102F500077F80EF05FF902000B000DF021F8020087
:102F60000B00200029000C920D930DF040F80DF09D
:102F700043F95446311C6060301C0EF078F841462D
:102F8000041C40460EF073F8051C011C201C0EF0BA
:102F900054F84946089048460EF069F8391C8346B3
:102FA000381C0EF064F85946019008980EF045F868
:102FB00001990EF045F802990F900EF058F853461B
:102FC0004946986040460EF052F8391C8046301C45
:102FD0000EF04DF881461A980EF01CF906001B9869
:102FE0000F000EF017F902900391291C201C0EF01F
:102FF00027F859460EF021F801990EF01EF80499B1
:103000000EF035F80EF006F904000D004046494672
:103010000EF016F80EF0FEF802000B000CF0C0FFE8
:1030200032003B000CF0E3FF02000B0020002900FF
:103030000CF0B6FF029A039B04000D000698079956
:103040000CF0D5FF02000B00200029000CF0A8FFB7
:103050000DF0D2F85346D86004980EF0DBF8040067
:103060000D00404649460DF0E8FF0EF0D3F802008F
:103070000B000CF095FF22002B00049405950CF03A
:10308000B6FF04000D00089859460DF0D9FF0199CC
:103090000DF0D3FF1A990DF0EAFF0EF0BBF8020015
:1030A0000B00200029000CF07BFF029A039B040018
:1030B0000D000C980D990CF09AFF02000B002000F7
:1030C00029000CF06DFF0DF097F853460A9918612E
:1030D00009980DF0B5FF0EF09DF802000B000CF002
:1030E0005FFF049A059B0CF082FF04000D000B9813
:1030F0000E990DF0A2FF0EF08DF802000B000CF0FF
:103100004FFF32003B000CF072FF02000B0020006A
:1031100029000CF045FF04000D000F981B990DF0DD
:10312000A6FF0EF077F802000B00200029000CF03B
:1031300037FF0DF061F853465861002011B0F0BC24
:10314000BB46B246A946A046F0BDC046F0B5040055
:10315000DE4657464E4645460800E0B545680968D4
:10316000AA46856895B0AB46C568466987691091DF
:103170000E950169556810689268049690461A6821
:10318000069711925A689B6812921393FE239B052F
:10319000236099460DF051FF0EF03CF8009001912C
:1031A0001E980EF037F806000F00009801990022D3
:1031B000924B0CF01CFF32003B000CF018FF0DF09E
:1031C0001BF804990390E061281C0DF036FF0EF007
:1031D00021F80022894B049005910CF008FF320081
:1031E0003B000CF004FF0DF007F80699051CA063E6
:1031F00040460DF022FF0EF00DF800227F4B0690A6
:1032000007910CF0F4FE32003B000CF0F0FE0CF0E5
:10321000F3FF0A90606550460DF0FCFF0022784BEA
:10322000089009910CF0E3FE32003B000CF0DFFE49
:103230000CF0E2FF0B90206758460DF0EBFF0022E8
:103240006F4B0C900D910CF0D2FE32003B000CF055
:10325000CEFE0CF0D1FF8C238246E0500E980DF08C
:10326000D9FF0022664B0E900F910CF0C0FE320089
:103270003B000CF0BCFE0CF0BFFFA8238346E050DF
:103280000022009801995E4B0CF0B1FE32003B0029
:103290000CF0ADFE0CF0B0FF49460090606021627A
:1032A000002206980799564B0CF0A1FE32003B0015
:1032B0000CF09DFE0CF0A0FFA5658046E063109821
:1032C0000DF0A8FF00224D4B0CF091FE32003B00A8
:1032D0000CF08DFE0CF090FF59469023051C6067A2
:1032E0000022E1500C980D99444B0CF080FE320006
:1032F0003B000CF07CFE0CF07FFFAC230022E05082
:10330000049805993E4B0CF072FE32003B000CF025
:103310006EFE0CF071FF49460A9A83466262009A7B
:10332000A0602164E2650E980F990022334B0CF0E7
:103330005EFE32003B000CF05AFE0CF05DFF942361
:103340000B99A067E5501C33E1504146E1605946B6
:10335000A162494621665146039BE1676364089870
:1033600009990022254B0CF042FE32003B000CF084
:103370003EFE0CF041FF9823E0501C33E550002541
:103380001E9911982561E562A56465660DF06FFED2
:10339000011C48460DF051FE8023E0501C33E550DF
:1033A0001C33E550343B1E99129865612563E56432
:1033B000A566E5500DF05BFE011C48460DF03DFE94
:1033C000A023E0501C33E550343BA56165632565BF
:1033D000E566E5501C33E5501E9913980DF047FE45
:1033E000011C48460DF029FEC023E050002015B016
:1033F000F0BCBB46B246A946A046F0BD0000E0BF07
:103400000000E03FF0B5DE4657464E464546E0B583
:103410009A460B68141C8A689B464B68C9688BB037
:103420000500101C8846009301920DF0F3FE0290F7
:103430000391201C0DF0EEFEC02306000F00029841
:10344000039900221B060CF0D2FD32003B000CF069
:10345000CEFD0CF0D1FE0890286040460DF0DAFE5B
:1034600002000B000CF09CFD32003B000CF0BFFD95
:103470000CF0C2FE041CA86158460DF0CBFEC02320
:1034800000221B06049005910CF0B1FD32003B00B8
:103490000CF0ADFD0CF0B0FE286300980DF0BAFE04
:1034A00002000B00069007910CF07AFD32003B0001
:1034B0000CF09DFD0CF0A0FE002190238946A8642D
:1034C0002966A967E95068600498059902000B0015
:1034D0000CF066FD32003B000CF089FD0CF08CFE18
:1034E0006C630490E8610298039902000B000CF0F1
:1034F00057FD32003B000CF07AFD0CF07DFE494692
:103500009423E8646966E967E950C023069807993F
:10351000049A1B06AA6000220CF069FD32003B00F1
:103520000CF065FD0CF068FE089B4946AB638023F8
:1035300028622C65A966E9501833E9504046149971
:103540000DF095FD019F1599061C381C0DF08FFD9F
:103550005146041C58460DF08AFD311C0DF070FDDB
:10356000211C06940DF069FD011C0DF069FD51460A
:103570000990E86000980DF07AFD1499041C381C3D
:103580000DF075FD011C201C0DF05AFD1599041C51
:1035900040460DF06CFD011C201C0DF051FD011C7E
:1035A0000DF04EFD14990290686200980DF05FFDD9
:1035B0001599089058460DF05AFD019A80249446BA
:1035C00024066444071C514620000DF050FD089964
:1035D0000DF036FD391C0DF030FD011C0DF030FDF5
:1035E0001499E86358460DF042FD1599049000982F
:1035F0000DF03DFD802212064244041C514610008D
:103600000DF035FD04990DF01BFD211C0DF018FD8A
:10361000011C0DF015FD4A468423EA666865EA50F0
:103620001833EA505146286101980DF020FD0899A1
:103630000DF003FD391C0DF003FD011C0DF000FD24
:10364000071CA8628020029B00062B645146584448
:103650000DF00DFD311C0DF0F0FC06990DF0F0FCA5
:10366000011C0DF0EDFC8823A86548462867E8504A
:103670001833E850514640466F610DF0F8FC04994C
:103680000DF0DBFC211C0DF0D8FC011C0DF0D8FC6A
:10369000099AE8626A64029B4A46EB654B466B678F
:1036A0008C230020EA501833EA500BB0F0BCBB4624
:1036B000B246A946A046F0BD0123F0B5E321474636
:1036C000CE469C46294B804605009946284E80B53B
:1036D0008900076846444144FA0F6F68D2077B00AF
:1036E0005B08346813435A08624064461C4201D0A8
:1036F0004B465A4004C50436A942EDD1E323424665
:103700009B00C626D458194B01259C46F60046441A
:10371000E20F4C68D20763005B08076813435A083E
:103720007A401D4201D063465A40043004C1B04281
:10373000EED14246C62140460E4BC900D35812680E
:10374000DB0F52005208DB07415813435A084A4026
:10375000DB0701D5054B5A404146064BCA500022B3
:103760000433CA50C0BCB946B046F0BDDFB00899BA
:1037700034060000BC090000F0B54546DE46574659
:103780004E46E0B53B4CD723A54434AA9446634447
:103790001B091B018A6805930B68019237921A680E
:1037A000049006929A69339107921A6B38AC08928A
:1037B0009A6C09921A6E0B929A6F0C9290229A58F8
:1037C0000D925A680E92DA690F925A6B1092DA6C67
:1037D00011925A6E1292DA6F139294229A5814929E
:1037E0009A6815921A6A16929A6B17921A6D189225
:1037F0009A6E199280229A581A9298229A581B927D
:10380000DA681C925A6A1D92DA6B1E925A6D1F92E8
:10381000DA6E209284229A5821929C229A582292FF
:103820001A6923929A6A24921A6C25929A6D2692AA
:103830001A6F279288229A582892A0229A58299281
:103840005A692A92DA6A2B925A6C2C92DA6D2D926E
:103850005A6F2E928C229A582F92A4229B58309302
:103860004B68984638AB3293C423454643440A9389
:1038700002E0C0469CFDFFFFEA68A96991462A69FB
:10388000AB6890466A690998039149460193029290
:103890000DF0EDFB414682460B980DF0E8FB011C54
:1038A00050460DF0CDFB029982460C980DF0DFFBDF
:1038B000039983460D980DF0DAFB011C58460DF074
:1038C000BFFB011C50460DF0BBFB6F688246391CE4
:1038D00007980DF0CCFB0199834608980DF0C7FBC3
:1038E000011C58460DF0ACFB2E688346311C06982F
:1038F0000DF0BDFB011C58460DF0A2FB011C50460B
:103900000DF09EFB4946206011980DF0B0FB41463A
:10391000824612980DF0ABFB011C50460DF090FB57
:103920000299824613980DF0A2FB039983461498DE
:103930000DF09DFB011C58460DF082FB011C50460A
:103940000DF07EFB391C82460F980DF090FB01991B
:10395000834610980DF08BFB011C58460DF070FB50
:10396000311C83460E980DF082FB011C58460DF069
:1039700067FB011C50460DF063FB494660601898D8
:103980000DF075FB4146824619980DF070FB011C45
:1039900050460DF055FB029982461A980DF067FBD0
:1039A000039983461B980DF062FB011C58460DF0ED
:1039B00047FB011C50460DF043FB391C824616980C
:1039C0000DF055FB0199834617980DF050FB011C33
:1039D00058460DF035FB311C834615980DF047FB1A
:1039E000011C58460DF02CFB011C50460DF028FB25
:1039F0004946A0601F980DF03AFB41468246209848
:103A00000DF035FB011C50460DF01AFB0299824661
:103A100021980DF02CFB0399834622980DF027FB8B
:103A2000011C58460DF00CFB011C50460DF008FB24
:103A3000391C82461D980DF01AFB019983461E9889
:103A40000DF015FB011C58460DF0FAFA311C8346A7
:103A50001C980DF00CFB011C58460DF0F1FA011CEE
:103A600050460DF0EDFA4946E06026980DF0FFFA59
:103A70004146824627980DF0FAFA011C50460DF097
:103A8000DFFA0299824628980DF0F1FA03998346ED
:103A900029980DF0ECFA011C58460DF0D1FA011CE2
:103AA00050460DF0CDFA391C824624980DF0DFFA0D
:103AB0000199834625980DF0DAFA011C58460DF05D
:103AC000BFFA311C834623980DF0D1FA011C5846E9
:103AD0000DF0B6FA011C50460DF0B2FA2D99206196
:103AE00048460DF0C4FA2E99814640460DF0BFFAC3
:103AF000011C48460DF0A4FA2F99804602980DF05B
:103B0000B6FA3099814603980DF0B1FA011C484687
:103B10000DF096FA011C40460DF092FA391C8046D1
:103B20002B980DF0A4FA2C99071C01980DF09FFA20
:103B3000011C381C0DF084FA311C071C2A980DF06A
:103B400096FA011C381C0DF07BFA011C40460DF062
:103B500077FA0A9B1C3560611834AB4200D08BE6C3
:103B6000379B1A68629308929A6909921A6B0A92B3
:103B70009A6C0B921A6E0C929A6F0D9290229A5830
:103B80000E925A680F92DA6910925A6B1192DA6C9F
:103B900012925A6E1392DA6F149294229A581592D6
:103BA0009A6816921A6A17929A6B18921A6D19925D
:103BB0009A6E1A9280229A581B9298229A581C92B6
:103BC000DA681D925A6A1E92DA6B1F925A6D209221
:103BD000DA6E219284229A5822929C229A58239239
:103BE0001A6924929A6A25921A6C26929A6D059CFB
:103BF00027921A6F2034289288229A58A146299237
:103C0000A0229A582A925A692B92DA6A2C925A6CFC
:103C10002D92DA6D2E925A6F2F928C229A583092F2
:103C2000A4229B5831935CAB06933EAB0793329B27
:103C3000984643464246414640461B689569019373
:103C4000069B146B096E926C40CB876F0291101C1F
:103C50000B99039206930DF00AFA0C99824602988A
:103C60000DF005FA011C50460DF0EAF90D99824657
:103C7000381C0DF0FCF90E998346301C0DF0F7F955
:103C8000011C58460DF0DCF9011C50460DF0D8F926
:103C900009998246281C0DF0EAF90A998346201CEE
:103CA0000DF0E5F9011C58460DF0CAF90899834654
:103CB00001980DF0DCF9011C58460DF0C1F9011C0A
:103CC00050460DF0BDF94B461299186003980DF05F
:103CD000CEF91399824602980DF0C9F9011C50469D
:103CE0000DF0AEF914998246381C0DF0C0F9159903
:103CF0008346301C0DF0BBF9011C58460DF0A0F9AD
:103D0000011C50460DF09CF910998246281C0DF0BC
:103D1000AEF911998346201C0DF0A9F9011C5846F3
:103D20000DF08EF90F99834601980DF0A0F9011C52
:103D300058460DF085F9011C50460DF081F94B46AF
:103D40001999586003980DF092F91A9982460298D1
:103D50000DF08DF9011C50460DF072F91B99824649
:103D6000381C0DF084F91C998346301C0DF07FF946
:103D7000011C58460DF064F9011C50460DF060F925
:103D800017998246281C0DF072F918998346201C59
:103D90000DF06DF9011C58460DF052F91699834645
:103DA00001980DF064F9011C58460DF049F9011C09
:103DB00050460DF045F94B462099986003980DF058
:103DC00056F92199824602980DF051F9011C50468E
:103DD0000DF036F922998246381C0DF048F92399E6
:103DE0008346301C0DF043F9011C58460DF028F9AC
:103DF000011C50460DF024F91E998246281C0DF036
:103E000036F91F998346201C0DF031F9011C5846E4
:103E10000DF016F91D99834601980DF028F9011C43
:103E200058460DF00DF9011C50460DF009F94B46AE
:103E30002799D86003980DF01AF9289982460298BC
:103E40000DF015F9011C50460DF0FAF8299982463B
:103E5000381C0DF00CF92A998346301C0DF007F937
:103E6000011C58460DF0ECF8011C50460DF0E8F826
:103E700025998246281C0DF0FAF826998346201CC5
:103E80000DF0F5F8011C58460DF0DAF82499834638
:103E900001980DF0ECF8011C58460DF0D1F8011C0A
:103EA00050460DF0CDF84B462E99186103980DF051
:103EB000DEF82F99824602980DF0D9F8011C504681
:103EC0000DF0BEF830998246381C0DF0D0F83199CB
:103ED000071C301C0DF0CBF8011C381C0DF0B0F89D
:103EE000011C50460DF0ACF82C99061C281C0DF056
:103EF000BEF82D99051C201C0DF0B9F8011C281CDA
:103F00000DF09EF82B99041C01980DF0B0F8011CDF
:103F1000201C0DF095F8011C301C0DF091F84B465B
:103F2000586104239C461433E0449C46079BE144BB
:103F3000984500D07DE6339B059DDC68296A2068A2
:103F40000DF07EF8049EA96B306060680DF078F883
:103F50007060A068296D0DF073F8B060E068A96E1C
:103F60000DF06EF88023F0602069E95898460DF056
:103F700067F898233061E95860690DF061F8706165
:103F8000A069696A0DF05CF8B061E069E96B0DF059
:103F900057F8F061206A696D0DF052F83062E96EF1
:103FA000606A0DF04DF884277062A06AE9590DF03F
:103FB00047F89C23B062E958E06A0DF041F8F062DE
:103FC000206BA96A0DF03CF83063606B296C0DF032
:103FD00037F87063A06BA96D0DF032F8B063E06B39
:103FE000296F0DF02DF8F0638826206CA9590DF08B
:103FF00027F8049B1864A023606CE9580DF020F8A2
:10400000049BE96A5864A06C0DF01AF8049B696C73
:104010009864E06C0DF014F8049BE96DD864206D91
:104020000DF00EF8049B696F1865606D0DF008F8CF
:104030008C25049A059B5065A06D59590DF000F828
:10404000A423049A9065059AE06DD1580CF0F8FF0E
:10405000049B059AD865116B206E0CF0F1FF049B50
:10406000059A1866916C606E0CF0EAFF049B059A45
:104070005866A06E116E0CF0E3FF049B059A9866DB
:10408000E06E916F0CF0DCFF049B059AD8669023DC
:10409000206FD1580CF0D4FF049B059A1867A82311
:1040A000606FD1580CF0CCFF049B059A5867A16F44
:1040B000506B0CF0C5FF049B059A9867E16FD06CBC
:1040C0000CF0BEFF4146049B059AD8676158506EBC
:1040D0000CF0B6FF4146049B059A5850E159D06F49
:1040E0000CF0AEFF049BD8519423059FA159F858BA
:1040F0000CF0A6FF049B9851AC236159F8580CF0C2
:104100009FFF049B585199239B009D44F0BCBB46E4
:10411000B246A946A046F0BDF0B5DE4657464E462B
:1041200045460400E0B5036987B05800636940085C
:10413000590049080CF084FFE368590049080CF065
:104140007FFF6368051C5800A368400859004908B0
:104150000CF076FF2368590049080CF071FF011C30
:10416000281C0CF06DFFA36A051C5800E36A400888
:10417000590049080CF064FF636A590049080CF0C3
:104180005FFFE369061C5800236A4008590049088C
:104190000CF056FFA369590049080CF051FF011CAF
:1041A000301C0CF04DFF236C071C5800636C40085A
:1041B000590049080CF044FFE36B590049080CF022
:1041C0003FFF636B061C5800A36B40085900490869
:1041D0000CF036FF236B590049080CF031FF011C2D
:1041E000301C0CF02DFF061C011C381C0CF076FF57
:1041F000002800D13E1C311C281C0CF06FFF002849
:1042000000D12E1CA36D5800E36D400859004908E9
:104210000CF016FF636D590049080CF011FFE36CB8
:10422000051C5800236D4008590049080CF008FF90
:10423000A36C590049080CF003FF011C281C0CF06A
:10424000FFFE236F071C5800636F400859004908A0
:104250000CF0F6FEE36E590049080CF0F1FE636EB7
:10426000051C5800A36E4008590049080CF0E8FEF0
:10427000236E590049080CF0E3FE011C281C0CF0C9
:10428000DFFE88238046E0580433E15840004900AF
:10429000490840080CF0D4FE8423E158490049083D
:1042A0000CF0CEFEE36F051C58008023E158400857
:1042B000490049080CF0C4FEA36F590049080CF0EE
:1042C000BFFE011C281C0CF0BBFE051C011C404657
:1042D0000CF004FF002800D14546291C381C0CF0C6
:1042E000FDFE002800D13D1C291C301C0CF0F6FE00
:1042F000002800D1351CC0232100E55001AABA3B9B
:1043000002A8A83104930294FCF7A8FA0121C42260
:10431000019B98260B405B428B430133A354343AF4
:104320009246002250469C2722509432A150934638
:10433000923AA2510132E2519D32944660469C3A33
:104340002250A03291469F3A90464A46404623006A
:10435000A05048461832A258903392009A18156817
:104360002550404610606046B8222058A25880462A
:10437000604692009A181568255040461060B42295
:10438000E059A258844692009A1810685D46E051A0
:1043900060461060B022A258A75992009A1810687F
:1043A000A0511760AC225846A258265892009A187D
:1043B000106860511660A822A258554692009B18BA
:1043C00052461868A25860511A60C523E15407B0DC
:1043D000F0BCBB46B246A946A046F0BDC0230022B1
:1043E00010B5C25000220433C2520B6804000360AF
:1043F0004B6843608B688360CB68C3600B69036163
:104400004B6943618B698361CB69C3610B6A03624A
:104410004B6A43628B6A8362CB6AC3620B6B036332
:104420004B6B43638B6B8363CB6BC3630B6C03641A
:104430004B6C43648B6C8364CB6CC3640B6D036502
:104440004B6D43658B6D8365CB6DC3650B6E0366EA
:104450004B6E43668B6E8366CB6EC3660B6F0367D2
:104460004B6F43678B6F8367CB6FC3678023CA58DB
:10447000C2500433CA58C2500433CA58C25004331D
:10448000CA58C250FFF748FE200010BDF0B5DE4606
:104490004E4645465746E0B5214C9146A5443AAABA
:1044A00094460A0031931F4B3B9063441B091B0148
:1044B0003A919846D3AB13CA13C313CA13C31268F5
:1044C000D3A91A60184B194A1B6847A80493184BC4
:1044D00047AC1B680193174B1B6805930093049B23
:1044E000FEF790FF47ABD3934B46D49347ABD5939E
:1044F0003AAA8323944686201B0163441B68C000AC
:104500004044A2AAD3A9D6930990FFF735F96BAB23
:10451000089343460A934B463094A1461C000BE097
:1045200014F7FFFF47030000042203200AE81C41A0
:10453000FC210320002203204B464E461B68B76F28
:104540000493089B494640CB48464A460893A82313
:10455000896C006E9569126B06910790E158301CCA
:1045600005920CF084FD8C238246E158381C0CF037
:104570007EFD011C50460CF063FD216F82460798BA
:104580000CF075FD616D834606980CF070FD011C02
:1045900058460CF055FD011C50460CF051FDA16B26
:1045A000824605980CF063FDE1698346281C0CF0F7
:1045B0005EFD011C58460CF043FD216883460498BB
:1045C0000CF055FD011C58460CF03AFD011C5046FC
:1045D0000CF036FD43461860AC23301CE1580CF05B
:1045E00046FD90238246E158381C0CF040FD011C2A
:1045F00050460CF025FD616F824607980CF037FDA0
:10460000A16D834606980CF032FD011C58460CF053
:1046100017FD011C50460CF013FDE16B8246059816
:104620000CF025FD216A8346281C0CF020FD011C9E
:1046300058460CF005FD6168834604980CF017FDA0
:10464000011C58460CF0FCFC011C50460CF0F8FC18
:1046500043465860B023301CE1580CF008FD942309
:104660008246E158381C0CF002FD011C50460CF04B
:10467000E7FCA16F824607980CF0F9FCE16D8346D8
:1046800006980CF0F4FC011C58460CF0D9FC011CF7
:1046900050460CF0D5FC216C824605980CF0E7FCE6
:1046A000616A8346281C0CF0E2FC011C58460CF0A1
:1046B000C7FCA168834604980CF0D9FC011C58463D
:1046C0000CF0BEFC011C50460CF0BAFC434698604E
:1046D000B423301CE1580CF0CAFC98238246E15800
:1046E000381C0CF0C4FC011C50460CF0A9FCE16F16
:1046F000824607980CF0BBFC216E834606980CF0AE
:10470000B6FC011C58460CF09BFC011C50460CF0FA
:1047100097FC616C824605980CF0A9FCA16A83465F
:10472000281C0CF0A4FC011C58460CF089FCE16824
:10473000834604980CF09BFC011C58460CF080FC4E
:10474000011C50460CF07CFC4346D860B823301C5A
:10475000E1580CF08CFC9C238246E158381C0CF08C
:1047600086FC011C50460CF06BFC80238246E1580D
:1047700007980CF07CFC616E834606980CF077FC81
:10478000011C58460CF05CFC011C50460CF058FC17
:10479000A16C824605980CF06AFCE16A8346281CED
:1047A0000CF065FC011C58460CF04AFC216983465C
:1047B00004980CF05CFC011C58460CF041FC011CF8
:1047C00050460CF03DFC43461861BC23301CE158B8
:1047D0000CF04DFCA0238246E158381C0CF047FC3D
:1047E000011C50460CF02CFC84238246E1580798AB
:1047F0000CF03DFCA16E834606980CF038FC011CC1
:1048000058460CF01DFC011C50460CF019FCE16CE4
:10481000824605980CF02BFC216B8346281C0CF07B
:1048200026FC011C58460CF00BFC61698346049879
:104830000CF01DFC011C58460CF002FC011C5046FB
:104840000CF0FEFB4346E16E586106980CF00FFC3D
:1048500088238246E15807980CF009FC011C504659
:104860000CF0EEFBA4238246E158381C0CF0FFFB51
:10487000C023071CE158301C0CF0F9FB011C381C4C
:104880000CF0DEFB011C50460CF0DAFB616B061CE1
:10489000281C0CF0ECFB216D051C05980CF0E7FBC7
:1048A000011C281C0CF0CCFBA169051C04980CF021
:1048B000DEFB011C281C0CF0C3FB011C301C0CF09F
:1048C000BFFB4346986104239C461833E1449C4651
:1048D0004DABE0444B4500D02EE60A9BA146D824C0
:1048E0009846A427A4004444BF00474420000999E7
:1048F000FFF774FD210090223800C8240CF08CFED4
:10490000FC21A400444489004144182220000CF0FA
:1049100083FECE2081218000C900414418224044FA
:104920000CF07AFE8422D423D200424412689B0009
:1049300043441A60D523874A4546424412889B0067
:104940004344FE211A8000232268B0359200AA1841
:104950008905116093611363936413669367C92299
:1049600092004244126844469200AA181360916172
:104970001363936413669367CA22920042441268D9
:1049800006269200AA18136093611163936413665C
:104990009367CB2292004244126806209200AA1824
:1049A000136093611363916413669367CC22920042
:1049B000424412689200AA181360936113639364CF
:1049C00011669367CD229200424412689200AA18A1
:1049D00013609361136393641366A8235B009B4683
:1049E000916742465946E41820334344A660E66086
:1049F000266153508022920042444B3962609246B5
:104A000004933A0006230294FF3901960095FCF7BF
:104A10000BFF42465946049BA660E6602661535050
:104A200053464B3963603A000623029406200196F0
:104A30000095FF39FCF75CFB43461B688C2207930B
:104A40004346DB69D3AC089343469B6B09934346CB
:104A50005B6D0A9343461B6F0B9343469B5804328E
:104A60000C9343465B68179343461B6A189343466F
:104A7000DB6B0D9343469B6D0E9343465B6F0F9329
:104A800043469B580432109343469B681193434618
:104A90005B6A129343461B6C13934346DB6D14937E
:104AA00043469B6F159343469B58043216934346E7
:104AB000DB68199343469B6A069343465B6C1A93E3
:104AC00043461B6E1B934346DB6F1C9343469B5828
:104AD000183A1D9343461B691E934346DB6A1F9396
:104AE00043469B6C209343465B6E219343469B5801
:104AF0001C32229343469B58183A239343465B69E2
:104B0000249343461B6B25934346DB6C2693434615
:104B10009B6E279343469B581C32289343469B58D1
:104B2000183A299343469B692A9343465B6B2B9320
:104B300043461B6D2C934346DB6E2D9343469B5897
:104B40001C322E9343469B58A8462F934B463293D4
:104B500002E0C0462404000043461F685B684246EA
:104B60009946434641469B68D2680E694D6908984C
:104B70004946049305920CF07AFA04998246099802
:104B80000CF075FA011C50460CF05AFA391C82469A
:104B900007980CF06CFA011C50460CF051FA311CCD
:104BA00082460B980CF063FA291C83460C980CF093
:104BB0005EFA011C58460CF043FA059983460A98A0
:104BC0000CF055FA011C58460CF03AFA011C5046FC
:104BD0000CF036FA4946206018980CF048FA04990F
:104BE00082460D980CF043FA011C50460CF028FA4E
:104BF000391C824617980CF03AFA011C50460CF00A
:104C00001FFA311C82460F980CF031FA291C83469A
:104C100010980CF02CFA011C58460CF011FA05996A
:104C200083460E980CF023FA011C58460CF008FA43
:104C3000011C50460CF004FA4946606012980CF0D2
:104C400016FA0499824613980CF011FA011C50468A
:104C50000CF0F6F9391C824611980CF008FA011C88
:104C600050460CF0EDF9311C824615980CF0FFF916
:104C7000291C834616980CF0FAF9011C58460CF0D2
:104C8000DFF90599834614980CF0F1F9011C584698
:104C90000CF0D6F9011C50460CF0D2F94946A06040
:104CA00006980CF0E4F9049982461A980CF0DFF9A2
:104CB000011C50460CF0C4F9391C824619980CF0BE
:104CC000D6F9011C50460CF0BBF9311C82461C98E9
:104CD0000CF0CDF9291C83461D980CF0C8F9011C75
:104CE00058460CF0ADF9059983461B980CF0BFF9B6
:104CF000011C58460CF0A4F9011C50460CF0A0F918
:104D00004946E0601F980CF0B2F904998246209859
:104D10000CF0ADF9011C50460CF092F9391C82469A
:104D20001E980CF0A4F9011C50460CF089F9311CB6
:104D3000824622980CF09BF9291C834623980CF09C
:104D400096F9011C58460CF07BF905998346219889
:104D50000CF08DF9011C58460CF072F9011C5046FC
:104D60000CF06EF94946206125980CF080F9049901
:104D7000824626980CF07BF9011C50460CF060F935
:104D8000391C824624980CF072F9011C50460CF034
:104D900057F9311C824628980CF069F9291C834682
:104DA00029980CF064F9011C58460CF049F9059952
:104DB000834627980CF05BF9011C58460CF040F92B
:104DC000011C50460CF03CF9494660612B980CF0F0
:104DD0004EF9049981462C980CF049F9011C48467B
:104DE0000CF02EF9391C81462A980CF040F9011C70
:104DF00048460CF025F9311C071C2E980CF037F9A9
:104E0000291C061C2F980CF032F9011C301C0CF0E8
:104E100017F90599051C2D980CF029F9011C281C7F
:104E20000CF00EF9011C381C0CF00AF918239C46F2
:104E3000A061FDAB1C34E044A34200D08CE6329B61
:104E4000D49A9946D39BD599D69CD79DD89ED99F65
:104E500006930792DA9BDB9A08910994DC99DD9C12
:104E60000A950B96DE9DDF9E0C970D93E09FE19BCC
:104E70000E92E29A0F911094119512961397149333
:104E80001592E399E49CE59DE69EE79FE89BE99AED
:104E900016911794EA99EB9C18951996EC9DED9E46
:104EA0001A971B93EE9FEF9B1C921D91F09AF1991C
:104EB0001E94F29C2096219722932392249125946C
:104EC0001F95F39DF49EF59FF79AF69BF899F99C30
:104ED00026952796FA9DFB9E2897FC9F2A923A9A40
:104EE00029932B912C942D952E962F97D3AB32CAC4
:104EF00032C332CA32C31168D3AC1960FD49FE4BCC
:104F000009681B680191FD49FD4A0968200000916C
:104F100041A9FDF7D7FF319F419938680CF08DF812
:104F20004299834678680CF088F843998246B868BD
:104F30000CF083F84499041CF8680CF07EF845994D
:104F4000051C38690CF079F84699061C78690CF054
:104F500074F8071C011C2A980CF089F8311C804653
:104F600023980CF084F8011C40460CF069F8291CC9
:104F700080461C980CF07BF8011C40460CF060F851
:104F8000211C804615980CF072F8514604900E983A
:104F90000CF06DF8011C04980CF052F8594604907E
:104FA00007980CF064F8011C04980CF049F8011CF7
:104FB00040460CF045F83A9A51680CF041F8391C1B
:104FC00004902B980CF053F8311C804624980CF078
:104FD0004EF8011C40460CF033F8291C80461D9801
:104FE0000CF045F8011C40460CF02AF8211C8046C4
:104FF00016980CF03CF8514605900F980CF037F8D5
:10500000011C05980CF01CF85946059008980CF006
:105010002EF8011C05980CF013F8011C40460CF00A
:105020000FF83A9A91680CF00BF8391C05902C98FF
:105030000CF01DF8311C804625980CF018F8011C66
:1050400040460BF0FDFF291C80461E980CF00FF81F
:10505000011C40460BF0F4FF211C804617980CF011
:1050600006F85146319010980CF001F8011C319867
:105070000BF0E6FF5946319009980BF0F8FF011C40
:1050800031980BF0DDFF011C40460BF0D9FF3A9A36
:10509000D1680BF0D5FF391C31902D980BF0E7FF4C
:1050A000311C804626980BF0E2FF011C40460BF0B5
:1050B000C7FF291C80461F980BF0D9FF011C4046F2
:1050C0000BF0BEFF211C804618980BF0D0FF514614
:1050D000329011980BF0CBFF011C32980BF0B0FF0F
:1050E000594632900A980BF0C2FF011C32980BF01F
:1050F000A7FF011C40460BF0A3FF3A9A11690BF081
:105100009FFF391C32902E980BF0B1FF311C804666
:1051100027980BF0ACFF011C40460BF091FF291CB7
:10512000804620980BF0A3FF011C40460BF088FF3F
:10513000211C804619980BF09AFF51463390129823
:105140000BF095FF011C33980BF07AFF5946339012
:105150000B980BF08CFF011C33980BF071FF011CB6
:1051600040460BF06DFF3A9A51690BF069FF5146CA
:10517000339013980BF07BFF211C80461A980BF09C
:1051800076FF011C40460BF05BFF594680460C98A9
:105190000BF06DFF011C40460BF052FF311C8046A6
:1051A00028980BF064FF391C34902F980BF05FFFA8
:1051B000011C34980BF044FF291C349021980BF00B
:1051C00056FF011C34980BF03BFF011C40460BF0CE
:1051D00037FF3A9A91690BF033FF391C80462998C2
:1051E0000BF045FF311C071C22980BF040FF011CFF
:1051F000381C0BF025FF291C061C1B980BF037FFF1
:10520000011C301C0BF01CFF211C051C14980BF01A
:105210002EFF5146041C0D980BF029FF011C201C89
:105220000BF00EFF5946041C06980BF020FF011CE2
:10523000201C0BF005FF011C281C0BF001FF3A9A03
:10524000D3AC11680BF0FCFE3B9B049A18605A60CB
:10525000059A9A60319ADA60329A1A61339A5A61E1
:1052600042469A614B461B684A46A2934B465B688E
:10527000A3934B469B68A4934B46DB68A5934B4690
:105280001B69A6934B465B69A7934B469B69A89302
:105290004B46DB69A9934B461B6AAA934B465B6A54
:1052A000AB934B469B6AAC934B46DB6AAD934B4644
:1052B0001B6BAE934B465B6BAF934B469B6BB093B4
:1052C0004B46DB6BB1934B461B6CB2934B465B6C0E
:1052D000B3934B469B6CB4934B46DB6CB5934B46F8
:1052E0001B6DB6934B465B6DB7934B469B6DB89366
:1052F0004B4607E0FC210320042203200022032068
:105300000AE81C41DB6DB9934B461B6EBA934B46C2
:105310005B6EBB934B469B6EBC934B46DB6EBD9363
:105320004B461B6FBE934B465B6FBF934B469B6FC9
:10533000C0934B46DB6FC1938023D358C293842321
:10534000D358C3938823D358C4938C23D358C5937D
:105350009023D358C6939423D358C7939823D358F4
:10536000C8939C23D358C993A023D358CA93A4238A
:10537000D358CB93A823D358CC93AC23D358CD93F5
:10538000B023D358CE93B423D358CF93B823D35854
:10539000D093BC23D358D193C023D358D293309BFE
:1053A0003092984643461F685B684246994643469A
:1053B00041469B68D2680E694D690D984946049331
:1053C00005920BF054FE0499824614980BF04FFEA0
:1053D000011C50460BF034FE391C824606980BF037
:1053E00046FE011C50460BF02BFE311C82462298D3
:1053F0000BF03DFE291C834629980BF038FE011C5A
:1054000058460BF01DFE059983461B980BF02FFEA6
:10541000011C58460BF014FE011C50460BF010FE08
:10542000494620600E980BF022FE0499824615989A
:105430000BF01DFE011C50460BF002FE391C82468B
:1054400007980BF014FE011C50460BF0F9FD311CBF
:10545000824623980BF00BFE291C83462A980BF0FA
:1054600006FE011C58460BF0EBFD059983461C987F
:105470000BF0FDFD011C58460BF0E2FD011C5046EF
:105480000BF0DEFD494660600F980BF0F0FD0499CB
:10549000824616980BF0EBFD011C50460BF0D0FD38
:1054A000391C824608980BF0E2FD011C50460BF0B7
:1054B000C7FD311C824624980BF0D9FD291C834678
:1054C0002B980BF0D4FD011C58460BF0B9FD059943
:1054D00083461D980BF0CBFD011C58460BF0B0FD28
:1054E000011C50460BF0ACFD4946A06010980BF033
:1054F000BEFD0499824617980BF0B9FD011C504679
:105500000BF09EFD391C824609980BF0B0FD011C82
:1055100050460BF095FD311C824625980BF0A7FDF7
:10552000291C83462C980BF0A2FD011C58460BF059
:1055300087FD059983461E980BF099FD011C58467E
:105540000BF07EFD011C50460BF07AFD4946E060F1
:1055500011980BF08CFD0499824618980BF087FD8A
:10556000011C50460BF06CFD391C82460A980BF06A
:105570007EFD011C50460BF063FD311C82462698CF
:105580000BF075FD291C83462D980BF070FD011C56
:1055900058460BF055FD059983461F980BF067FDA3
:1055A000011C58460BF04CFD011C50460BF048FD09
:1055B0004946206112980BF05AFD049982461998C9
:1055C0000BF055FD011C50460BF03AFD391C82468C
:1055D0000B980BF04CFD011C50460BF031FD311CBB
:1055E000824627980BF043FD291C83462E980BF02A
:1055F0003EFD011C58460BF023FD0599834620987B
:105600000BF035FD011C58460BF01AFD011C5046ED
:105610000BF016FD4946606113980BF028FD0499C4
:1056200081461A980BF023FD011C48460BF008FD3B
:10563000391C81460C980BF01AFD011C48460BF0F2
:10564000FFFC311C071C28980BF011FD291C061CBF
:105650002F980BF00CFD011C301C0BF0F1FC059990
:10566000051C21980BF003FD011C281C0BF0E8FC25
:10567000011C381C0BF0E4FC18239C46FFABA06116
:1056800014331C34E044A34200D08BE6309BA2AD1F
:1056900099463C93C4234C46C8464B440893079410
:1056A0004246D26843464146914642469E694C680E
:1056B000096892685F691B690491301CFD99069323
:1056C00005920BF0D4FCF6998246381C0BF0CFFC07
:1056D000011C50460BF0B4FCEF99824606980BF083
:1056E000C6FCE899834648460BF0C1FC011C5846AD
:1056F0000BF0A6FC011C50460BF0A2FCE19982467F
:1057000005980BF0B4FCDA998346201C0BF0AFFC33
:10571000011C58460BF094FCD399834604980BF077
:10572000A6FC011C58460BF08BFC011C50460BF0EC
:1057300087FC011C28680BF080FC2860FE99301C57
:105740000BF095FCF7998246381C0BF090FC011C7D
:1057500050460BF075FCF099824606980BF087FCDA
:10576000E999834648460BF082FC011C58460BF031
:1057700067FC011C50460BF063FCE29982460598D9
:105780000BF075FCDB998346201C0BF070FC011CB0
:1057900058460BF055FCD499834604980BF067FCEF
:1057A000011C58460BF04CFC011C50460BF048FC09
:1057B000011C68680BF041FCFF996860301C0BF01D
:1057C00056FCF8998246381C0BF051FC011C5046DF
:1057D0000BF036FCF199824606980BF048FCEA99EA
:1057E000834648460BF043FC011C58460BF028FC4E
:1057F000011C50460BF024FCE399824605980BF0FF
:1058000036FCDC998346201C0BF031FC011C584609
:105810000BF016FCD599834604980BF028FC011C6C
:1058200058460BF00DFC011C50460BF009FC011C06
:10583000A8680BF002FCFFAB5968A860301C043369
:105840000BF015FCF9998246381C0BF010FC011C7A
:1058500050460BF0F5FBF299824606980BF007FCD8
:10586000EB99834648460BF002FC011C58460BF0AE
:10587000E7FB011C50460BF0E3FBE49982460598D8
:105880000BF0F5FBDD998346201C0BF0F0FB011CAF
:1058900058460BF0D5FBD699834604980BF0E7FBEE
:1058A000011C58460BF0CCFB011C50460BF0C8FB0A
:1058B000011CE8680BF0C1FBFFAB9968E860301C85
:1058C00008330BF0D4FBFA998246381C0BF0CFFB5F
:1058D000011C50460BF0B4FBF399824606980BF07E
:1058E000C6FBEC99834648460BF0C1FB011C5846A9
:1058F0000BF0A6FB011C50460BF0A2FBE59982467B
:1059000005980BF0B4FBDE998346201C0BF0AFFB2F
:10591000011C58460BF094FBD799834604980BF072
:10592000A6FB011C58460BF08BFB011C50460BF0EC
:1059300087FB011C28690BF080FBFFABD96828614D
:10594000301C0C330BF093FBFB998246381C0BF098
:105950008EFB011C50460BF073FBF49982460698AF
:105960000BF085FBED99834648460BF080FB011C4C
:1059700058460BF065FB011C50460BF061FBE699A5
:10598000824605980BF073FBDF998346201C0BF0D1
:105990006EFB011C58460BF053FBD89983460498C4
:1059A0000BF065FB011C58460BF04AFB011C5046EE
:1059B0000BF046FB011C68690BF03FFBEE99686138
:1059C00048460BF054FBF599814606980BF04FFBC7
:1059D000011C48460BF034FBFC998146381C0BF047
:1059E00046FBFFAB1969071C301C10330BF03FFB63
:1059F000011C381C0BF024FB011C48460BF020FB5B
:105A0000E099061C201C0BF032FBE799041C05985A
:105A10000BF02DFB011C201C0BF012FBD999041C70
:105A200004980BF024FB011C201C0BF009FB011C4B
:105A3000301C0BF005FB011CA8690BF0FEFA1C23BF
:105A40009C46089BE044A8611C35984500D027E699
:105A5000079BA29A99461A60A39A5A60A49A9A60E0
:105A6000A59ADA60A69A1A61A79A5A61A89A9A61C9
:105A7000A99ADA61AA9A1A62AB9A5A62AC9A9A62A5
:105A8000AD9ADA62AE9A1A63AF9A5A63B09A9A6381
:105A9000B19ADA63B29A1A64B39A5A64B49A9A645D
:105AA000B59ADA64B69A1A65B79A5A65B89A9A6539
:105AB000B99ADA65BA9A1A66BB9A5A66BC9A9A6615
:105AC000BD9ADA66BE9A1A67BF9A5A67C09A9A67F1
:105AD000C19ADA674A468023C299D150C3990433E8
