:020000041000EA
:1000000000B5324B212058609868022188439860DF
:10001000D860186158612E4B002199600221596106
:100020000121F02299502B49196001219960352056
:1000300000F044F80222904214D00621196600F024
:1000400034F8196E01211966002018661A6600F04E
:100050002CF8196E196E196E052000F02FF8012189
:100060000842F9D1002199601B49196000215960AB
:100070001A491B48016001219960EB211966A021F2
:10008000196600F012F800219960164914480160C1
:100090000121996001BC002800D000471248134993
:1000A000086003C880F30888084703B5996A0420EC
:1000B0000142FBD001200142F8D103BD02B5186610
:1000C0001866FFF7F2FF186E186E02BD00000240BE
:1000D000000000180000070000035F00212200005C
:1000E000F4000018222000A00001001008ED00E03C
:1000F00000000000000000000000000074B24E7A12
:1001000000200420F7010010C3010010C5010010F9
:10011000C1010010C1010010C1010010C101001097
:10012000C1010010C1010010C1010010C701001081
:10013000C1010010C1010010C9010010CB01001065
:10014000CD010010CD010010CD010010CD01001037
:10015000CD010010CD010010CD010010CD01001027
:10016000CD010010CD010010CD010010CD01001017
:10017000CD010010CD010010CD010010CD01001007
:10018000CD010010CD010010CD010010CD010010F7
:10019000CD010010CD010010CD010010CD010010E7
:1001A000CD010010CD010010CD010010CD010010D7
:1001B000CD010010CD010010CD010010CD010010C7
:1001C00000BE00BE00BE00BE00BE00BEEFF3058054
:1001D000103800BEF2EB8871343F0510543F051013
:1001E0003402001090A31AE700201F49086006C8D7
:1001F00081F3088810471D48006800282FD10DA4FE
:100200000ECC002902D000F012F8F9E71849194A7B
:10021000002000E001C19142FCD1174988471749ED
:1002200088471749884700BEFDE701C901C29A42C5
:10023000FBD37047543F0510C0000020902C0020D5
:10024000246B05100000042000000420246B05101E
:10025000001004200010042000000000704709482E
:100260000DF02EF80047000008ED00E0000000D07F
:10027000902C0020A0580320B5BA001055030010A0
:10028000E9BB00105756000006005250ABB3605354
:10029000089B041006005250861C0302189B041091
:1002A000060052505422A29D249B04100500525077
:1002B000DE65F468246B0510F8B5C0460448054BAC
:1002C00010B5834203D0044B002B00D0984710BDDB
:1002D000902C0020902C00200000000006480749C8
:1002E000091A8B10C90FC91810B5491003D0044B57
:1002F000002B00D0984710BD902C0020902C00209F
:100300000000000010B5074C2378002B09D1FFF73F
:10031000D5FF054B002B02D0044800E000BF0123AD
:10032000237010BDD830002000000000609604103B
:10033000054B10B5002B03D00449054800E000BF71
:10034000FFF7CCFF10BDC04600000000DC300020ED
:100350006096041070B5192009F078FED023802231
:100360001B0692045A620EF01BFF00F047F806F0DD
:10037000A5FD08F043F806F0E7FF09F0D3F90022E5
:100380000524144B1A7006F0B5F9134D013C2100F9
:1003900028000EF0F9FEFA2080000AF067FC002C1D
:1003A000F4D10A200EF050FD012200210B480AF082
:1003B00025F90B4811F0A4F801220A4B0A4C1A70D7
:1003C0002378012BFCD108F0D5F92378012BFAD042
:1003D000F6E7C0468458032060960410B8570320FF
:1003E000B9890010835803208858032010B50248AB
:1003F00011F0AEFB10BDC04690380320092370B544
:1004000086B0059304330493023B0393013B0293AC
:10041000023B324D324C0193324B22003249334879
:1004200000932B0005F024FE142005F01DFEFA2099
:1004300080000AF01BFC2E4E21003200280006F03E
:100440002FF83378682B08D02A4C20000EF048FD96
:10045000FA2080000AF00AFCF7E773783D2BF3D10D
:1004600001222100280006F03FF8234E320021002F
:10047000280006F073F83378002BF7D10122210011
:10048000280005F0EFFE0121200005F0CDFE03213C
:10049000200005F05FFE0321280005F089FF1321ED
:1004A000200006F0C9F81221200006F003F900210F
:1004B000200006F0E1F80321200006F06BF802218D
:1004C000200006F083F85521200005F061FE182178
:1004D000280005F007FF06B070BDC0467820032055
:1004E0005C32002040420F009C200020942000201D
:1004F00048580320749604109A580320F0B5C64655
:10050000334C344D344E22002900300000B505F044
:10051000D9FF6378DB439B0720D023781B0702D4E5
:1005200080BCB846F0BD2D4C0622002120000EF004
:1005300059FB2100300005F095FF0023E05E05F037
:10054000FFFD274D28600223E05E05F0F9FD68609D
:100550000423E05E05F0F4FDA860E1E7214B0622EC
:100560009846180000210EF03DFB1F4F0622002187
:1005700038000EF037FB4146280005F055FF3900E2
:10058000280005F033FF43460020185E05F0C4FD47
:100590004346164D28600220185E05F0BDFD434617
:1005A00068600420185E05F0B7FDA8600023F85EBF
:1005B00005F0BCFD0E4D28600223F85E05F0B6FD87
:1005C00068600423F85E05F0B1FDA860A5E7C046A9
:1005D000CC4D03205C32002078200320783E03209D
:1005E00018430320683E0320703E03200C3D032087
:1005F000283D0320F0B55746DE464E464546E0B559
:100600008BB008919246190005900993DA170323DD
:100610008C46134063449B109B009846002B00DCE3
:1006200090E05246159B00249B000193149B9B1A5B
:10063000159A9B1A089A9B00029353681268190135
:1006400094460491069251469A00039252468D00B8
:100650000021013A92000792002289465900DE00EB
:10066000CB189B009B461300424665440092019ABA
:1006700094469C44039B1A199F195346002B1EDD78
:10068000069B059819196346804600989B004344D1
:1006900080460094086818600098081A845804314D
:1006A0005C6084599C60C059D86010338D42F1D190
:1006B00043460799009363468C4604339C440421C7
:1006C000029B5A4463448C461400049A3E00E14461
:1006D0009446009A5E4465444A45C8DC1A00009B73
:1006E0009846099B434526DD1499159C089B0D1BD4
:1006F000514609CB6D1A00291DDD41469E004B4332
:100700009B00C01853469C00059B47469C46099B8E
:10071000AB469846159B994600234A449100614494
:10072000C558CD5004339C42FAD1524401375A4443
:100730008019B845F0D10BB0F0BCBB46B246A94613
:10074000A046F0BD0022CCE7F0B54746CE4680B5C6
:100750001F00002B1DDD002A1BDD9300C0180B6855
:10076000002498464B689100D200494252428C4680
:1007700091469B00614645182900A2004244166834
:10078000D21840C18142FAD14A460134A81AA74280
:10079000F0D1C0BCB946B046F0BDC046F0B5DE46AB
:1007A00057464E4645460023E0B51360836887B040
:1007B0009A46059200230268052693460093013B62
:1007C000039002910493052355469B1B98465D4375
:1007D0005B46002B00D18DE14544AD005D442B68A4
:1007E0005C006B6864085F007F08391C381C0EF0E1
:1007F000C2F8002800D0DFE0211C381C0EF0B6F84B
:10080000002800D0DFE00027731C9A46022B53D942
:10081000AB685B005B08191C181C99460EF0ABF81E
:10082000002800D046E14846211C0EF09FF8002821
:1008300001D04C4602275346032B3DD0EB685B00AA
:100840005B08191C181C99460EF095F8002800D07A
:1008500038E14846211C0EF089F8002801D04C46AA
:1008600003275346042B27D02B695B005B08191C18
:10087000181C99460EF07FF8002800D02AE149465E
:10088000201C0EF065F8002801D04C460427534682
:10089000052B11D06D696D006D08291C281C0EF008
:1008A0006AF8002800D01DE1291C201C0EF050F829
:1008B000002801D005272C1C029B009A47440021E8
:1008C0009F50201C0EF03CF8002800D17EE0049BD5
:1008D000013300D1E3E006239B1B45460193039BB4
:1008E0009B689A465D4306239F1B53469B0099468F
:1008F000019B52461C005443009A7F199446A50060
:1009000065449C460023BF005F44B8461F00644412
:10091000A4005D445C444346286819680DF0E1FF7B
:10092000011C20680DF0C3FF2060012E2DD9434625
:10093000286859680DF0D5FF011C60680DF0B7FFFD
:100940006060022E21D04346296898680DF0C9FFE7
:10095000011CA0680DF0ABFFA060032E15D043462C
:100960002968D8680DF0BDFF011CE0680DF09FFFFD
:10097000E060052E09D14346296818690DF0B1FFE2
:10098000011C20690DF093FF206101374D444C4458
:10099000BE42C0D1009B013E04330093019B052B56
:1009A00000D010E71A00029B5A6107B0F0BCBB46AA
:1009B000B246A946A046F0BD211C201C0DF0DBFF6D
:1009C000002800D018E73C1C01271DE7474530D020
:1009D00059465C460098BB005B4409581D68039A61
:1009E00092682550196001009200594489189B189B
:1009F00008681C680C60186089189B1808681C68D7
:100A00000C60186089189B1808681C680C601860D6
:100A100089189B1808681C680C60186089189B1856
:100A200018680A6808601A60059A13680193013310
:100A300013604546039B5A469B685D439A460623CE
:100A40009B1B0193EC1843465B199B009F58A40025
:100A50005C442068391C0DF030FF2060012E00D866
:100A600041E76068391C0DF028FF6060022E00D15C
:100A700039E7A068391C0DF020FFA060032E00D1DB
:100A800031E7E068391C0DF018FFE060042E00D15A
:100A900029E72069391C0DF010FF206123E70623A8
:100AA00045469B1B0193039B9B689A465D434346C7
:100AB000049318E7211C201C0DF05DFF002800D1D5
:100AC000B7E6B0E6211C201C0DF055FF002800D130
:100AD000C5E6BEE6211C201C0DF04DFF002800D10C
:100AE000D3E6CCE6211C201C0DF045FF002800D1E8
:100AF000E0E6D9E61B68FFDEF0B55746DE464E4617
:100B00004546E0B599B01493249B8246259C2698CF
:100B10005D1C00D1229B651C00D1229C239DEE17F9
:100B200003253540239EB4466544AD10AF0007252C
:100B3000229E0E97AE4335000096149E002E00DCD8
:100B400088E29B001693230110930301D318179397
:100B50006B1EDB0801330391D9015B010F93A300E6
:100B60007C43201880001193131815930023D3465B
:100B7000139108930E9B002B00DCC2E10F9A039B9C
:100B8000944663441293179BD84601930023029323
:100B90000298434601000CCB089C5943A44661448B
:100BA000890051180991411C594361448900511829
:100BB0000A91811C59436144890051180B91C11C51
:100BC0004B4363449B00D318019E0C93009B34005D
:100BD000002B00DC45E2039B0025994600234C4690
:100BE000AA46AB46A946069504952F1C0595079580
:100BF0000D9325683168281C0DF073FE59460DF0E1
:100C000059FE71688346281C0DF06BFE51460DF0AD
:100C100051FEB1688246281C0DF063FE07990DF065
:100C200049FEF1680790281C0DF05BFE05990DF058
:100C300041FE059065683169281C0DF052FE391C93
:100C40000DF038FE7169071C281C0DF04AFE04994E
:100C50000DF030FEB1690490281C0DF042FE06999B
:100C60000DF028FEF1690690281C0DF03AFE494669
:100C70000DF020FE8146A568316A281C0DF031FE7A
:100C800059460DF017FE716A8346281C0DF029FEA7
:100C900051460DF00FFEB16A8246281C0DF021FE70
:100CA00007990DF007FEF16A0790281C0DF019FE58
:100CB00005990DF0FFFD0590E568316B281C0DF0DE
:100CC00010FE391C0DF0F6FD716B071C281C0DF091
:100CD00008FE04990DF0EEFDB16B0490281C0DF098
:100CE00000FE06990DF0E6FDF16B0690281C0DF054
:100CF000F8FD49460DF0DEFD81462569316C281C62
:100D00000DF0EFFD59460DF0D5FD716C8346281CA2
:100D10000DF0E7FD51460DF0CDFDB16C8246281C6B
:100D20000DF0DFFD07990DF0C5FDF16C0790281C53
:100D30000DF0D7FD05990DF0BDFD05906569316D8C
:100D4000281C0DF0CEFD391C0DF0B4FD716D071C93
:100D5000281C0DF0C6FD04990DF0ACFDB16D04909A
:100D6000281C0DF0BEFD06990DF0A4FDF16D069056
:100D7000281C0DF0B6FD49460DF09CFD8146A56985
:100D8000316E281C0DF0ADFD59460DF093FD716ECE
:100D90008346281C0DF0A5FD51460DF08BFDB16E6C
:100DA0008246281C0DF09DFD07990DF083FDF16E24
:100DB0000790281C0DF095FD05990DF07BFD059021
:100DC000E569316F281C0DF08CFD391C0DF072FDAA
:100DD000716F071C281C0DF084FD04990DF06AFD4D
:100DE000B16F0490281C0DF07CFD06990DF062FD9A
:100DF000F16F0690281C0DF074FD49460DF05AFD68
:100E00008146803620340D9B009A08330D939A4218
:100E100000DDEEE6139B019C9C46051C5946381CE0
:100E200064440DF047FD5146071C04980DF042FD47
:100E30000799061C06980DF03DFD05998146281C72
:100E40000DF038FD129B051C9A46229A009B9A428F
:100E500030DDAB460493534620CB2168281C9A46CC
:100E60000DF03FFD011C381C0DF024FD6168071CCE
:100E7000281C0DF036FD011C301C0DF01BFDA16877
:100E8000061C281C0DF02DFD011C48460DF012FD1E
:100E9000E1688146281C0DF024FD011C58460DF028
:100EA00009FD8346049B229A0133103404939A422D
:100EB000D1D1051C311C0A9E30680DF0F8FC391C9C
:100EC000099F041C38680DF0F2FC291C0C9D386049
:100ED000346028680DF0EBFC0B9E4946041C30681A
:100EE0000DF0E5FC1099019A8C46029B6244019238
:100EF0000E9A0433306002932C609A4200DD47E67C
:100F0000C3460F9A039B944663440E9A0293239B15
:100F10009246159D934200DC90E05B465C68534628
:100F20005C43089B2F009C465B461B6864449C46C0
:100F3000009BA4006444002B00DC99E00023039F85
:100F400099463B00A04600262F001C003968206807
:100F50000DF0C7FC311C0DF0ADFC061C7968606813
:100F60000DF0BFFC311C0DF0A5FC061CB968A06893
:100F70000DF0B7FC311C0DF09DFC061CF968E06813
:100F80000DF0AFFC311C0DF095FC061C3969206991
:100F90000DF0A7FC311C0DF08DFC061C7969606911
:100FA0000DF09FFC311C0DF085FC061CB969A06991
:100FB0000DF097FC311C0DF07DFC061CF969E06911
:100FC0000DF08FFC311C0DF075FC061C2037203411
:100FD00008239C46009BE1444B45B7DC44460F9BED
:100FE000EF18029B0193229A009B9A4217DD9946C3
:100FF0000023984643464246F958019B98580DF005
:1010000070FC011C301C0DF055FC061C01239C4695
:101010000333E1449C46229BE0444B45EAD12068DF
:10102000311C0DF044FC01239C46119BE2449C467C
:10103000239B20606544534500D06EE71699039AC0
:101040008C46089B62440392149A013308939A4297
:1010500000D08FE519B0F0BCBB46B246A946A04609
:10106000F0BD0025039BA9469A462E1C2F1CECE6DA
:10107000039B00260193B6E7F0B557464E46DE4681
:1010800045468024E0B5B5B006AF3C1920609420F9
:101090007B63E823AE4E38180160BA63FB181C6806
:1010A0003378BFF35B8FDB0700D477E2A94D902242
:1010B0002369BA1813608422A368BA1813608022C7
:1010C000BA1812686D68934202DD8423FB181A6017
:1010D00094218423902279180E688C21FB18BA1869
:1010E00012681B6856435343226879180A60002A25
:1010F00000D180E29B003B660023BB6763687B678F
:10110000002B00D163E2B300FB6500233B6798220C
:101110000423BA1813609033FB181B68002B19DDE9
:101120008023E422FB18BA181B6812681900934246
:1011300000DA4AE2280009010CF01CF90323C21767
:10114000134098221B189B109B00BA181360042BA5
:1011500000DA35E28023FB181968002900DCA9E1D8
:1011600090207B6B38181A000068796484464243EB
:10117000091A3A616244B9647A609821E4227918C4
:10118000BA18126809684A43BA619A007A6104324F
:10119000FA61A02201339B00BA181360E423FB1804
:1011A0001B689B009B460023FB63FB643B64BB66A0
:1011B0009C227B6CBA1813609022BA181268934272
:1011C00002DD9C23FB181A609423FB181B68002B7C
:1011D00000DC47E19C23FB181A68002A00DC41E18F
:1011E0009423E021FB181B687918BB6598230968D4
:1011F000FB188C461B68B86E53439B00BB607B6F2B
:101200001100FB6783006344FB6000238C46FB6690
:10121000FB620B00B021791839630321013B043ACA
:101220008B436044D31A38603B629822BA18BB6D76
:1012300012689A46934200DD9246FA68FB6E944625
:101240009B0063447B66FB6B88227B65FB6CBA1852
:101250003B659C23FB181B6813609C23FB181A68D2
:101260008823FB181B68D21ABA62A422BA1813602A
:10127000042B03DDA4220423BA1813608823FB186F
:101280003A681B68D21A7A62002B65DDA423BA6B18
:10129000FB189146A8221B68BA18013B98467B6D43
:1012A0009B0099447B6E1360AC220023BA18136034
:1012B000AC23AC22FB181B68BA18013313604346F9
:1012C000002B2CDDA8230025FB181C684B46266844
:1012D0005968301C0DF005FB011C60680DF0E7FA41
:1012E00043466060012B16D04B46301C99680DF0C8
:1012F000F8FA011CA0680DF0DAFA4346A060022B50
:1013000009D04B46301CD9680DF0EBFA011CE0689F
:101310000DF0CDFAE06001355C445545D6D101238E
:101320005B429C46A133FB181B68E0449C46A82303
:10133000A822FB181B68BA1804331360AC23A4223C
:10134000FB18BA181B681268E1449342B0DB03E053
:10135000E0220320A43803208823A422FB18BA1813
:101360001B681268396B9D1A7B6EBE6A0B60E423A2
:10137000FB181B6891464B609C230196FB181B6869
:1013800088460093F86F5346FFF734F9002D37DD98
:1013900041467C6A386D4C440319B86B4A46844612
:1013A000786B9B004860A420381802608C203818A5
:1013B000006863440B602B0081463963FFF7C4F972
:1013C000E022FB6EBA181B1914689B00A0463C6B08
:1013D00043442360E423FB1819689C236160FB18D5
:1013E00004961B6849460393A423FB181A685346C6
:1013F0000292019300922B002000FA6FFFF77CFB12
:10140000882388227969FB188C461B68BA18043B2C
:10141000F96913603A6D62448C463A657A6E10320F
:101420007A667A6D62447A653A6A9A4200D014E725
:101430009822BA181268B96D9446FB6A8A1AB9697B
:1014400063448C46BA65B968FA6EFB6262448C46A6
:10145000FA66FA6F6244FA679422BA1812689A42DE
:1014600000DDE2E69022BA181268BB6E9446802234
:10147000BA1812686344BB6693421BDA8423FB18D4
:101480001B68002B38DC90233969FB188C467A6C7A
:101490001B68D21A7A643A6C62443A64BA6CD31A02
:1014A000BB647A68FB6C63449446FB64FB6B6344E7
:1014B000FB637DE68023FA6D9B029A4207D93A6F5F
:1014C000002A04D0531E1878101A0DF073FB8023E5
:1014D0003A6E9B029A4207D9BA6F002A04D0531E73
:1014E0001878101A0DF066FBBD462FB0F0BCBB4655
:1014F000B246A946A046F0BDBA6B3B6C92469B0033
:101500009A44B023FE18B13B9946BD6CBC6E84234F
:10151000FB181B68A8469D4200DD9846AC22A3003C
:10152000BA1813607A6B8C2072609C225344BA18EC
:10153000381831001268006833604346FFF704F939
:10154000E022AC23BA181268FB1894461B688C2161
:1015500063443360E423FB181B687918736000232D
:1015600004934B46039302939423FB181B683000AB
:1015700001939C23FB181B6800937A6F434609680C
:10158000FFF7BAFA8423FB181B689C46ED1A8023E8
:10159000FB181B686444A342B9DC74E730000FF009
:1015A000D5FF364D002800D181E58023DB012B607B
:1015B00080231B0330006B60AB600FF0E3FF76E528
:1015C00098220423BA181360C4E51100B2E5802301
:1015D000B200FA659B029A423AD813006A46163363
:1015E000DB08DB00D31A9D4627200F23684498436D
:1015F000386778678BE59A0080233A669B029A42A7
:101600000FD813006A461633DB08DB00D31A9D4659
:1016100027200F23684498437D33FB18B867186070
:101620006CE5100010300DF0A7FAB867002800D163
:1016300064E50F221023844602409B1ADBB29C44CF
:1016400061464A1E13708C23FB18B967196055E573
:10165000100010300DF090FA3867002800D156E5E0
:101660000F221023844602409B1ADBB29C44614641
:101670004A1E39671370796749E5C046A4380320CC
:10168000F0B557464E46DE464546E0B5B7B006AF24
:10169000824684207B65F023CB4E38180160BA6304
:1016A000FB181C683378BFF35B8FDB0700D49DE227
:1016B000C64D23696D683B67A368BB67534501DD71
:1016C0005346BB67842179180E6880213A6FBB6F3F
:1016D00056435343226879180A60002A00D1B4E2C5
:1016E0009B003B650023FB666368BB66002B00D153
:1016F00097E2B300FB6400237B6688220423BA18B8
:1017000013608033FB181B68002B16DDEC23FB18DD
:101710001B6851469A4500DA7FE2280009010BF068
:1017200029FE0323C217134088221B189B109B001D
:10173000BA181360042B00DA6AE25346002B00DC6F
:1017400032E27A6D386F1100434259430B00B9629F
:1017500051460C1A110062431B1A9B00BA647B604D
:101760000A000B0051464B43B96B53448C46E821A9
:101770009B006344FB637918830009685B423B600C
:1017800053468C469B006344EC21BB658823791843
:10179000FB1809681B687C674B4390213B619300F1
:1017A0005B4279180B60043BBB609B00FB60D3433A
:1017B00094229B00BA181360EC23A822FB181B6824
:1017C000BA189B001360544603008C22BA181360A9
:1017D000A34200DD14608423FB181B68002B00DC8F
:1017E00076E18C23FB181A68002A00DC70E1842360
:1017F000FB181B68B96D7B648823FB181B68534377
:101800009B00FB61BB6EFB659300CB1A3B62002320
:10181000B8213B667B63A31A7918FB621300396316
:101820000321013B043A8B43D31A7B61AC227B6CCE
:10183000BA1813608822BA181268934202DDAC23EA
:10184000FB181A603A6A3B6E94469B009C446246C1
:101850007A62BA6D944698226344BA181360FB6B9F
:101860003B648C23FB181B68FB679C22FB6FBA1838
:101870001360042B03DD9C220423BA181360FA6F53
:10188000FB6A94466344BB61002A00DCA0E09C2311
:10189000396CA0208A46FB181B6838185A1E9346DC
:1018A000BA685B42524402607A6D9B1A9B009A446C
:1018B0000423A4225B4299460023BA181360A02394
:1018C000FE20FB181B68800519680CF0F6FFB42396
:1018D000FB181860A423FB181B685A46DB439B1AAD
:1018E0009822BA18126800269446B0229C009B00E9
:1018F0005B42BA1864441360B023FB181B684A4665
:101900009846A04443469958B423FB1818680CF035
:10191000E8FF43464A4698505B46051C002B22DDF3
:10192000534619680CF0DDFF011C20680CF0BFFF66
:101930005B462060012B16D05346281C59680CF0DA
:10194000D0FF011C60680CF0B2FF5B466060022BA8
:1019500009D05346281C99680CF0C3FF011CA068ED
:101960000CF0A5FFA060A823FB181B6801369C465D
:10197000AC23FB181B6864449E42BDD1A423A4225F
:10198000FB181B68BA1801331360012294215242DC
:10199000944679180968E3448C46A021A132BA180C
:1019A0001268791862440A600422524294469432C2
:1019B000BA181268E14494469C22BA181268E244AC
:1019C000934200DA7BE703E0E0220320A4380320FF
:1019D000E8219C2279180968BA188C46FB6F1268B6
:1019E000396B9C1ABB699D1A3B6E5B199B00634463
:1019F0000B60EC23FB181B684B608C230194FB18D5
:101A00001B680093AC23FB181B68F86DFEF7F2FD12
:101A1000002C30DD7A6DF96A13008C466B433D6B08
:101A2000B96B80206A609C2263448C463818066833
:101A30009B00BA181268634429002B603000230011
:101A40009046FEF781FEEC2228008C237D6ABA18AE
:101A500005601568FB18456004941D68AC22434678
:101A600003950293BA181268009301922300310083
:101A7000FA6DFFF741F898229821BA181268791880
:101A8000103A0A60F9683A6C8C46FB6F62443A641B
:101A90007A69043BFB679A4200D0E6E68822BA18CE
:101AA0001268796C94467B6B8A1AF96963448C4698
:101AB0007A643969FA6D7B6362448C46FA653A6EE2
:101AC00062443A668422BA1812689A4200DDADE692
:101AD0007B6F1C1E68DDBB6F002B00DCFEE7BA6B62
:101AE000BB6C93469B009B4400239946B833FE1879
:101AF000B93B9A4623004C4699467D6FBB6FA8467A
:101B00009D4200DD9846B422A300BA1813607A6D96
:101B1000802072608C225B44BA1838183100126839
:101B2000006833604346FEF70FFEE822B423BA187C
:101B30001268FB1894461B68802163443360EC23D1
:101B4000FB181B68791873600023049353460393B2
:101B500002938423FB181B68300001938C23FB182D
:101B60001B680093BA6E43460968FEF7C5FFBB6F5A
:101B70009C46ED1A7B6F6444A342BFDCBA6ABB6C1F
:101B800094467A6863449446BB643A68FB6B4C465F
:101B900063449446FB63BB6D3A6F6344BB657B6FE4
:101BA0009B1A7B67130010E68023FA6C9B029A4213
:101BB00007D97A6E002A04D0531E1878101A0CF038
:101BC000F9FF80233A6D9B029A4207D9FA6E002AE8
:101BD00004D0531E1878101A0CF0ECFFBD4631B03B
:101BE000F0BCBB46B246A946A046F0BD30000FF09F
:101BF000ADFC374D002800D15BE58023DB012B6075
:101C000080231B0330006B60AB600FF0BBFC50E522
:101C100088220423BA1813608FE5EC23FB18196897
:101C20007BE58023B200FA649B029A423AD8130003
:101C30006A461633DB08DB00D31A9D4627200F23A4
:101C4000684498437866B86657E59A0080233A65F9
:101C50009B029A420FD813006A461633DB08DB005A
:101C6000D31A9D4627200F23684498437133FB18ED
:101C7000F866186038E5100010300CF07DFFF8664B
:101C8000002800D130E50F221023844602409B1A21
:101C9000DBB29C4461464A1E13708023FB18F96630
:101CA000196021E5100010300CF066FF78660028FE
:101CB00000D122E50F221023844602409B1ADBB29A
:101CC0009C4461464A1E79661370B96615E5C046A4
:101CD000A438032030B587B00D4B02AD00951A68CB
:101CE000694602929A880400AA809B796A46AB7181
:101CF000072301930023D3732CF0BAFB0098A8426A
:101D000003D0029901310CF089FF200007B030BDEB
:101D100088960410F0B5DE4657464E464546E0B577
:101D20000E000168C7688946416805698A4681686E
:101D30008DB08B464169806907930690506813689F
:101D4000926805910A90291C30680B9209930895B6
:101D50000CF0ADFD0599039070680CF0A8FD069994
:101D6000051CB0680CF0A3FD802680463606079857
:101D70000CF03AFEB446039B0090019163441800B6
:101D800051460CF0AEFD5946061C281C0CF0A9FD6E
:101D9000011C301C0CF08BFD391C061C40460497BE
:101DA0000CF09FFD011C301C0CF081FD0CF01CFEA2
:101DB0000022684B0BF055FD009A019B0BF051FD82
:101DC000060048460F000CF00FFE02000B0030002A
:101DD0003900169C0BF01EFD0BF048FE49462060B2
:101DE00003980CF07EFD5946061C40460CF079FD28
:101DF000011C301C0CF05EFD0499061C281C0CF024
:101E000070FD011C301C0CF052FD0CF0EDFD0022A9
:101E1000504B0BF026FD009A019B0BF022FD0600B3
:101E200050460F000CF0E0FD02000B0030003900BE
:101E30000BF0F0FC0BF01AFE49466060281C0CF019
:101E400050FD5146061C40460CF04BFD011C301C59
:101E50000CF02DFD0499061C03980CF042FD011CAA
:101E6000301C0CF027FD0CF0BFFD0022394B0BF0AD
:101E7000F8FC009A019B0BF0F4FC060058460F009A
:101E80000CF0B2FD02000B00300039000BF0C2FC78
:101E90000BF0ECFD4946A06040460CF022FD514697
:101EA000061C281C0CF01DFD011C301C0CF002FD52
:101EB0005946051C03980CF014FD011C281C0CF05D
:101EC000F6FC0CF091FD0022224B0BF0CAFC009AAC
:101ED000019B0BF0C6FC060004980F000CF084FD7B
:101EE00002000B00300039000BF094FC0BF0BEFD3B
:101EF000089B0999E060181C98460CF0F2FC079DBD
:101F0000291C0CF0EEFC011C40460CF0D0FC059F97
:101F10000A992061381C0CF0E4FC291C0CF0E1FC4F
:101F2000011C381C0CF0C3FC069E0B996061301C30
:101F30000CF0D7FC291C0CF0D4FC011C301C0CF05C
:101F4000B6FCA06100200DB0F0BCBB46B246A9466D
:101F5000A046F0BD0000E03FF0B5DE4657464E46D5
:101F600045468A464168E0B58846C768816891B0B1
:101F7000066889464046391C141C04930CF0B1FCD9
:101F80004946051C301C0CF0ACFC0A90011C281CB6
:101F900009950CF08CFC0CF027FD02000B000BF0F7
:101FA00039FC06900791201C02940CF01DFD0B00DB
:101FB000020004000D00069807990BF052FC0BF08C
:101FC00055FD5246391C106048460CF08AFC834689
:101FD0004146301C0CF085FC5A460E90011C5846B8
:101FE0000B920CF067FC0CF0FFFC02000B000BF0F6
:101FF00011FC02000B00200029000C920D930BF045
:1020000030FC0BF033FD5446311C6060301C0CF08A
:1020100068FC4146041C40460CF063FC051C011C96
:10202000201C0CF044FC4946089048460CF059FC32
:10203000391C8346381C0CF054FC59460190089812
:102040000CF035FC01990CF035FC02990F900CF066
:1020500048FC53464946986040460CF042FC391C07
:102060008046301C0CF03DFC81461A980CF0BCFCFC
:1020700006001B980F000CF0B7FC02900391291C7E
:10208000201C0CF017FC59460CF011FC01990CF0C7
:102090000EFC04990CF025FC0CF0A6FC04000D00CD
:1020A000404649460CF006FC0CF09EFC02000B007A
:1020B0000BF0B0FB32003B000BF0D3FB02000B0037
:1020C000200029000BF0A6FB029A039B04000D00E0
:1020D000069807990BF0C5FB02000B0020002900B1
:1020E0000BF098FB0BF0C2FC5346D86004980CF040
:1020F0007BFC04000D00404649460CF0D8FB0CF078
:1021000073FC02000B000BF085FB22002B000494F3
:1021100005950BF0A6FB04000D00089859460CF03D
:10212000C9FB01990CF0C3FB1A990CF0DAFB0CF017
:102130005BFC02000B00200029000BF06BFB029AF5
:10214000039B04000D000C980D990BF08AFB020014
:102150000B00200029000BF05DFB0BF087FC5346C1
:102160000A99186109980CF0A5FB0CF03DFC0200DF
:102170000B000BF04FFB049A059B0BF072FB040065
:102180000D000B980E990CF092FB0CF02DFC020048
:102190000B000BF03FFB32003B000BF062FB020038
:1021A0000B00200029000BF035FB04000D000F98F8
:1021B0001B990CF096FB0CF017FC02000B002000A2
:1021C00029000BF027FB0BF051FC5346586100200F
:1021D00011B0F0BCBB46B246A946A046F0BDC04611
:1021E000F0B50400DE4657464E4645460800E0B5C9
:1021F00045680968AA46856895B0AB46C5684669D2
:10220000876910910E950169556810689268049667
:1022100090461A68069711925A689B681292139317
:10222000FE239B05236099460CF041FB0CF0DCFB80
:10223000009001911E980CF0D7FB06000F0000984B
:1022400001990022924B0BF00CFB32003B000BF08B
:1022500008FB0BF00BFC04990390E061281C0CF0C8
:1022600026FB0CF0C1FB0022894B049005910BF07A
:10227000F8FA32003B000BF0F4FA0BF0F7FB06998A
:10228000051CA06340460CF012FB0CF0ADFB0022D5
:102290007F4B069007910BF0E4FA32003B000BF005
:1022A000E0FA0BF0E3FB0A90606550460CF09CFBF3
:1022B0000022784B089009910BF0D3FA32003B00D2
:1022C0000BF0CFFA0BF0D2FB0B90206758460CF0C6
:1022D0008BFB00226F4B0C900D910BF0C2FA320079
:1022E0003B000BF0BEFA0BF0C1FB8C238246E050A2
:1022F0000E980CF079FB0022664B0E900F910BF0BC
:10230000B0FA32003B000BF0ACFA0BF0AFFBA823A5
:102310008346E0500022009801995E4B0BF0A1FA31
:1023200032003B000BF09DFA0BF0A0FB49460090F9
:1023300060602162002206980799564B0BF091FAD3
:1023400032003B000BF08DFA0BF090FBA565804648
:10235000E06310980CF048FB00224D4B0BF081FA23
:1023600032003B000BF07DFA0BF080FB59469023C6
:10237000051C60670022E1500C980D99444B0BF04E
:1023800070FA32003B000BF06CFA0BF06FFBAC23E1
:102390000022E050049805993E4B0BF062FA32009F
:1023A0003B000BF05EFA0BF061FB49460A9A83464C
:1023B0006262009AA0602164E2650E980F99002283
:1023C000334B0BF04EFA32003B000BF04AFA0BF0A5
:1023D0004DFB94230B99A067E5501C33E150414617
:1023E000E1605946A162494621665146039BE16777
:1023F0006364089809990022254B0BF032FA3200E9
:102400003B000BF02EFA0BF031FB9823E0501C330D
:10241000E55000251E9911982561E562A564656661
:102420000CF05FFA011C48460CF041FA8023E050A2
:102430001C33E5501C33E550343B1E9912986561FE
:102440002563E564A566E5500CF04BFA011C48468F
:102450000CF02DFAA023E0501C33E550343BA5616D
:1024600065632565E566E5501C33E5501E991398B4
:102470000CF037FA011C48460CF019FAC023E05062
:10248000002015B0F0BCBB46B246A946A046F0BD40
:102490000000E0BF0000E03FF0B5DE4657464E4684
:1024A0004546E0B59A460B68141C8A689B464B6803
:1024B000C9688BB00500101C8846009301920CF08F
:1024C00093FA02900391201C0CF08EFAC0230600B0
:1024D0000F000298039900221B060BF0C2F932008C
:1024E0003B000BF0BEF90BF0C1FA089028604046A3
:1024F0000CF07AFA02000B000BF08CF932003B0072
:102500000BF0AFF90BF0B2FA041CA86158460CF0BE
:102510006BFAC02300221B06049005910BF0A1F971
:1025200032003B000BF09DF90BF0A0FA28630098F5
:102530000CF05AFA02000B00069007910BF06AF9B2
:1025400032003B000BF08DF90BF090FA0021902344
:102550008946A8642966A967E950686004980599C6
:1025600002000B000BF056F932003B000BF079F93A
:102570000BF07CFA6C630490E86102980399020006
:102580000B000BF047F932003B000BF06AF90BF03F
:102590006DFA49469423E8646966E967E950C02307
:1025A00006980799049A1B06AA6000220BF059F9B5
:1025B00032003B000BF055F90BF058FA089B4946E6
:1025C000AB63802328622C65A966E9501833E95073
:1025D000404614990CF085F9019F1599061C381C8A
:1025E0000CF07FF95146041C58460CF07AF9311C66
:1025F0000CF060F9211C06940CF059F9011C0CF048
:1026000059F951460990E86000980CF06AF914995C
:10261000041C381C0CF065F9011C201C0CF04AF954
:102620001599041C40460CF05CF9011C201C0CF0B0
:1026300041F9011C0CF03EF914990290686200986F
:102640000CF04FF91599089058460CF04AF9019A88
:102650008024944624066444071C514620000CF054
:1026600040F908990CF026F9391C0CF020F9011CEE
:102670000CF020F91499E86358460CF032F91599DA
:10268000049000980CF02DF9802212064244041C9C
:10269000514610000CF025F904990CF00BF9211C9F
:1026A0000CF008F9011C0CF005F94A468423EA668F
:1026B0006865EA501833EA505146286101980CF0D9
:1026C00010F908990CF0F3F8391C0CF0F3F8011C20
:1026D0000CF0F0F8071CA8628020029B00062B6417
:1026E000514658440CF0FDF8311C0CF0E0F8069906
:1026F0000CF0E0F8011C0CF0DDF88823A8654846D2
:102700002867E8501833E850514640466F610CF096
:10271000E8F804990CF0CBF8211C0CF0C8F8011C67
:102720000CF0C8F8099AE8626A64029B4A46EB65B5
:102730004B466B678C230020EA501833EA500BB0ED
:10274000F0BCBB46B246A946A046F0BD0123F0B599
:10275000E3214746CE469C46294B804605009946D4
:10276000284E80B58900076846444144FA0F6F68D7
:10277000D2077B005B08346813435A086240644602
:102780001C4201D04B465A4004C50436A942EDD143
:10279000E32342469B00C626D458194B01259C468C
:1027A000F6004644E20F4C68D20763005B080768F6
:1027B00013435A087A401D4201D063465A40043000
:1027C00004C1B042EED14246C62140460E4BC9007C
:1027D000D3581268DB0F52005208DB0741581343ED
:1027E0005A084A40DB0701D5054B5A404146064B83
:1027F000CA5000220433CA50C0BCB946B046F0BD2E
:10280000DFB0089934060000BC090000F0B5454669
:10281000DE4657464E46E0B53C4CD723A54434AA85
:10282000944663441B091B018A6805930B68019257
:1028300037921A6804902D929A6933912E921A6BEE
:1028400038AC2F929A6C30921A6E06929A6F089258
:1028500090229A5807925A680A92DA690B925A6B38
:102860000C92DA6C0D925A6E0E92DA6F0F929422DD
:102870009A5810929A6811921A6A12929A6B13924D
:102880001A6D14929A6E159280229A581692982276
:102890009A581792DA6818925A6A1992DA6B1A9251
:1028A0005A6D1B92DA6E1C9284229A581D929C22B9
:1028B0009A581E921A691F929A6A20921A6C219253
:1028C0009A6D22921A6F239288229A582492A022FB
:1028D0009A5825925A692692DA6A27925A6C289257
:1028E000DA6D29925A6F2A928C229A582B92A4223E
:1028F0009B582C934B68984638AB3293C42343447F
:1029000009934346A0461C0002E0C0469CFDFFFF21
:10291000E168A26889462169236848460391309995
:10292000029201930BF0DDFF0399824606980BF0AB
:10293000D8FF011C50460BF0BDFF67698246391C69
:1029400008980BF0CEFFA6698346311C07980BF060
:10295000C8FF011C58460BF0ADFF011C50460BF0A0
:10296000A9FF656882462E99281C0BF0BAFF2F99A3
:10297000834602980BF0B5FF011C58460BF09AFFF6
:102980002D99834601980BF0ACFF011C58460BF0C3
:1029900091FF011C50460BF08DFF434649461860DD
:1029A0000D980BF09EFF039982460E980BF099FF4D
:1029B000011C50460BF07EFF391C82460F980BF02D
:1029C00090FF311C834610980BF08BFF011C58467A
:1029D0000BF070FF011C50460BF06CFF291C824667
:1029E0000B980BF07EFF029983460C980BF079FF51
:1029F000011C58460BF05EFF019983460A980BF0C4
:102A000070FF011C58460BF055FF011C50460BF09F
:102A100051FF43464946586014980BF062FF0399F2
:102A2000824615980BF05DFF011C50460BF042FFEB
:102A3000391C824616980BF054FF311C83461798B8
:102A40000BF04FFF011C58460BF034FF011C5046A1
:102A50000BF030FF291C824612980BF042FF0299BE
:102A6000834613980BF03DFF011C58460BF022FFE4
:102A70000199834611980BF034FF011C58460BF066
:102A800019FF011C50460BF015FF4346494698605C
:102A90001B980BF026FF039982461C980BF021FF30
:102AA000011C50460BF006FF391C82461D980BF0A6
:102AB00018FF311C83461E980BF013FF011C58466B
:102AC0000BF0F8FE011C50460BF0F4FE291C824668
:102AD00019980BF006FF029983461A980BF001FF34
:102AE000011C58460BF0E6FE0199834618980BF03E
:102AF000F8FE011C58460BF0DDFE011C50460BF0A1
:102B0000D9FE43464946D86022980BF0EAFE039965
:102B1000824623980BF0E5FE011C50460BF0CAFEDE
:102B2000391C824624980BF0DCFE311C8346259824
:102B30000BF0D7FE011C58460BF0BCFE011C5046A2
:102B40000BF0B8FE291C824620980BF0CAFE0299B1
:102B5000834621980BF0C5FE011C58460BF0AAFED7
:102B6000019983461F980BF0BCFE011C58460BF0E0
:102B7000A1FE011C50460BF09DFE434649461861DC
:102B800029980BF0AEFE039981462A980BF0A9FE16
:102B9000011C48460BF08EFE391C81462B980BF029
:102BA000A0FE311C071C2C980BF09BFE011C381C4E
:102BB0000BF080FE011C48460BF07CFE291C061C15
:102BC00027980BF08EFE0299051C28980BF089FEC1
:102BD000011C281C0BF06EFE0199051C26980BF0B9
:102BE00080FE011C281C0BF065FE011C301C0BF044
:102BF00061FE4346586118239C46099B1C34E044FF
:102C0000A34200D084E6379B1A68629308929A69BF
:102C100009921A6B0A929A6C0B921A6E0C929A6F26
:102C20000D9290229A580E925A680F92DA69109279
:102C30005A6B1192DA6C12925A6E1392DA6F1492E6
:102C400094229A5815929A6816921A6A17929A6B59
:102C500018921A6D19929A6E1A9280229A581B92A3
:102C600098229A581C92DA681D925A6A1E92DA6B60
:102C70001F925A6D2092DA6E219284229A582292E3
:102C80009C229A5823921A6924929A6A25921A6C65
:102C900026929A6D059C27921A6F203428928822DA
:102CA0009A58A1462992A0229A582A925A692B92A0
:102CB000DA6A2C925A6C2D92DA6D2E925A6F2F92FC
:102CC0008C229A583092A4229B5831935CAB069385
:102CD0003EAB0793329B98464346424641464046A8
:102CE0001B6895690193069B146B096E926C40CB2F
:102CF000876F0291101C0B99039206930BF0F1FD64
:102D00000C99824602980BF0ECFD011C50460BF02A
:102D1000D1FD0D998246381C0BF0E3FD0E998346D8
:102D2000301C0BF0DEFD011C58460BF0C3FD011CEE
:102D300050460BF0BFFD09998246281C0BF0D1FDCF
:102D40000A998346201C0BF0CCFD011C58460BF061
:102D5000B1FD0899834601980BF0C3FD011C58464C
:102D60000BF0A8FD011C50460BF0A4FD4B46129938
:102D7000186003980BF0B5FD1399824602980BF08A
:102D8000B0FD011C50460BF095FD14998246381C8D
:102D90000BF0A7FD15998346301C0BF0A2FD011C1A
:102DA00058460BF087FD011C50460BF083FD10992F
:102DB0008246281C0BF095FD11998346201C0BF0D0
:102DC00090FD011C58460BF075FD0F998346019844
:102DD0000BF087FD011C58460BF06CFD011C5046A2
:102DE0000BF068FD4B461999586003980BF079FD7C
:102DF0001A99824602980BF074FD011C50460BF0A4
:102E000059FD1B998246381C0BF06BFD1C998346BB
:102E1000301C0BF066FD011C58460BF04BFD011CED
:102E200050460BF047FD17998246281C0BF059FDC0
:102E300018998346201C0BF054FD011C58460BF0DA
:102E400039FD1699834601980BF04BFD011C58463D
:102E50000BF030FD011C50460BF02CFD4B46209929
:102E6000986003980BF03DFD2199824602980BF083
:102E700038FD011C50460BF01DFD22998246381C7E
:102E80000BF02FFD23998346301C0BF02AFD011C0B
:102E900058460BF00FFD011C50460BF00BFD1E9920
:102EA0008246281C0BF01DFD1F998346201C0BF049
:102EB00018FD011C58460BF0FDFC1D998346019836
:102EC0000BF00FFD011C58460BF0F4FC011C5046A2
:102ED0000BF0F0FC4B462799D86003980BF001FDEE
:102EE0002899824602980BF0FCFC011C50460BF01E
:102EF000E1FC29998246381C0BF0F3FC2A998346A1
:102F0000301C0BF0EEFC011C58460BF0D3FC011CEE
:102F100050460BF0CFFC25998246281C0BF0E1FCB3
:102F200026998346201C0BF0DCFC011C58460BF054
:102F3000C1FC2499834601980BF0D3FC011C584630
:102F40000BF0B8FC011C50460BF0B4FC4B462E991C
:102F5000186103980BF0C5FC2F99824602980BF07C
:102F6000C0FC011C50460BF0A5FC30998246381C71
:102F70000BF0B7FC3199071C301C0BF0B2FC011CA4
:102F8000381C0BF097FC011C50460BF093FC2C995D
:102F9000061C281C0BF0A5FC2D99051C201C0BF011
:102FA000A0FC011C281C0BF085FC2B99041C01982B
:102FB0000BF097FC011C201C0BF07CFC011C301C4E
:102FC0000BF078FC4B46586104239C461433E044D4
:102FD0009C46079BE144434500D07DE6339B059D1D
:102FE000DC68296A20680BF065FC049EA96B3060E0
:102FF00060680BF05FFC7060A068296D0BF05AFCF4
:10300000B060E068A96E0BF055FC8023F060206989
:10301000E95898460BF04EFC98233061E9586069F6
:103020000BF048FC7061A069696A0BF043FCB06169
:10303000E069E96B0BF03EFCF061206A696D0BF012
:1030400039FC3062E96E606A0BF034FC84277062F0
:10305000A06AE9590BF02EFC9C23B062E958E06AA3
:103060000BF028FCF062206BA96A0BF023FC3063A4
:10307000606B296C0BF01EFC7063A06BA96D0BF0EC
:1030800019FCB063E06B296F0BF014FCF063882629
:10309000206CA9590BF00EFC049B1864A023606CF3
:1030A000E9580BF007FC049BE96A5864A06C0BF02C
:1030B00001FC049B696C9864E06C0BF0FBFB049BC7
:1030C000E96DD864206D0BF0F5FB049B696F186502
:1030D000606D0BF0EFFB8C25049A059B5065A06D8D
:1030E00059590BF0E7FBA423049A9065059AE06D0B
:1030F000D1580BF0DFFB049B059AD865116B206E4D
:103100000BF0D8FB049B059A1866916C606E0BF06F
:10311000D1FB049B059A5866A06E116E0BF0CAFB9A
:10312000049B059A9866E06E916F0BF0C3FB049BBD
:10313000059AD8669023206FD1580BF0BBFB049BF7
:10314000059A1867A823606FD1580BF0B3FB049B56
:10315000059A5867A16F506B0BF0ACFB049B059A66
:103160009867E16FD06C0BF0A5FB4146049B059A74
:10317000D8676158506E0BF09DFB4146049B059A41
:103180005850E159D06F0BF095FB049BD851942314
:10319000059FA159F8580BF08DFB049B9851AC2367
:1031A0006159F8580BF086FB049B585199239B00FA
:1031B0009D44F0BCBB46B246A946A046F0BDC04601
:1031C000F0B5DE4657464E4645460400E0B5436836
:1031D00087B05800A3684008590049080BF06AFB03
:1031E0002368590049080BF065FB2369051C58004A
:1031F00063694008590049080BF05CFBE36859001B
:1032000049080BF057FB011C281C0BF053FBE3692A
:10321000051C5800236A4008590049080BF04AFB76
:10322000A369590049080BF045FBA36A061C580026
:10323000E36A4008590049080BF03CFB636A5900F7
:1032400049080BF037FB011C301C0BF033FB636BA0
:10325000071C5800A36B4008590049080BF02AFBD3
:10326000236B590049080BF025FB236C061C580002
:10327000636C4008590049080BF01CFBE36B5900D4
:1032800049080BF017FB011C301C0BF013FB061C4C
:10329000011C381C0BF05CFB002800D13E1C311CCB
:1032A000281C0BF055FB002800D12E1CE36C5800A5
:1032B000236D4008590049080BF0FCFAA36C590033
:1032C00049080BF0F7FAA36D051C5800E36D4008A0
:1032D000590049080BF0EEFA636D590049080BF0EC
:1032E000E9FA011C281C0BF0E5FA636E071C580074
:1032F000A36E4008590049080BF0DCFA236E590010
:1033000049080BF0D7FA236F051C5800636F40087B
:10331000590049080BF0CEFAE36E590049080BF04A
:10332000C9FA011C281C0BF0C5FAE36F804658004F
:103330008023E1584008490049080BF0BBFAA36F0D
:10334000590049080BF0B6FA8823051CE0580433ED
:10335000E15840004900490840080BF0ABFA8423CB
:10336000E158490049080BF0A5FA011C281C0BF094
:10337000A1FA051C011C40460BF0EAFA002800D116
:103380004546291C381C0BF0E3FA002800D13D1CEF
:10339000291C301C0BF0DCFA002800D1351CC0239E
:1033A0002100E55001AABA3B02A8A8310493029477
:1033B000FDF7F4F90121C422019B98260B405B42E2
:1033C0008B430133A354343A9246002250469C2743
:1033D00022509432A1509346923AA2510132E251C6
:1033E0009D32944660469C3A2250A03291469F3AC4
:1033F00090464A4640462300A05048461832A258FC
:10340000903392009A181568255040461060604627
:10341000B8222058A2588046604692009A18156833
:10342000255040461060B422E059A25884469200CC
:103430009A1810685D46E05160461060B022A258AC
:10344000A75992009A181068A0511760AC225846EC
:10345000A258265892009A18106860511660A82247
:10346000A258554692009B1852461868A2586051BF
:103470001A60C523E15407B0F0BCBB46B246A9466A
:10348000A046F0BDC023002210B5C2500022043374
:10349000C2520B68040003604B6843608B68836012
:1034A000CB68C3600B6903614B6943618B698361BE
:1034B000CB69C3610B6A03624B6A43628B6A8362A6
:1034C000CB6AC3620B6B03634B6B43638B6B83638E
:1034D000CB6BC3630B6C03644B6C43648B6C836476
:1034E000CB6CC3640B6D03654B6D43658B6D83655E
:1034F000CB6DC3650B6E03664B6E43668B6E836646
:10350000CB6EC3660B6F03674B6F43678B6F83672D
:10351000CB6FC3678023CA58C2500433CA58C25005
:103520000433CA58C2500433CA58C250FFF748FE89
:10353000200010BDF0B5DE464E4645465746E0B584
:10354000214C9146A5443AAA94460A0031931F4B58
:103550003B9063441B091B013A919846D3AB13CAB5
:1035600013C313CA13C31268D3A91A60184B194A9C
:103570001B6847A80493184B47AC1B680193174B73
:103580001B6805930093049BFEF786FF47ABD3931C
:103590004B46D49347ABD5933AAA832394468620CF
:1035A0001B0163441B68C0004044A2AAD3A9D69360
:1035B0000990FFF72BF96BAB089343460A934B46F0
:1035C0003094A1461C000BE014F7FFFF47030000F6
:1035D000742003200AE81C416C2003207020032083
:1035E0004B464E461B68B76F0793089B494640CB36
:1035F00048464A460893A823896C006E9569126B69
:1036000005910690E158301C04920BF06AF98C2366
:103610008246E158381C0BF064F9011C50460BF04F
:1036200049F9216F824606980BF05BF9616D83467C
:1036300005980BF056F9011C58460BF03BF9011C9C
:1036400050460BF037F9A16B824604980BF049F90C
:10365000E1698346281C0BF044F9011C58460BF025
:1036600029F92168834607980BF03BF9011C58465D
:103670000BF020F9011C50460BF01CF94346186072
:10368000AC23301CE1580BF02CF990238246E15812
:10369000381C0BF026F9011C50460BF00BF9616F3A
:1036A000824606980BF01DF9A16D834605980BF034
:1036B00018F9011C58460BF0FDF8011C50460BF0A0
:1036C000F9F8E16B824604980BF00BF9216A834606
:1036D000281C0BF006F9011C58460BF0EBF861684A
:1036E000834607980BF0FDF8011C58460BF0E2F8F2
:1036F000011C50460BF0DEF843465860B023301CE6
:10370000E1580BF0EEF894238246E158381C0BF098
:10371000E8F8011C50460BF0CDF8A16F82460698E0
:103720000BF0DFF8E16D834605980BF0DAF8011C29
:1037300058460BF0BFF8011C50460BF0BBF8216C4B
:10374000824604980BF0CDF8616A8346281C0BF082
:10375000C8F8011C58460BF0ADF8A16883460798DD
:103760000BF0BFF8011C58460BF0A4F8011C5046A2
:103770000BF0A0F843469860B423301CE1580BF0DE
:10378000B0F898238246E158381C0BF0AAF8011CC7
:1037900050460BF08FF8E16F824606980BF0A1F8C7
:1037A000216E834605980BF09CF8011C58460BF0DF
:1037B00081F8011C50460BF07DF8616C824604983C
:1037C0000BF08FF8A16A8346281C0BF08AF8011CC5
:1037D00058460BF06FF8E168834607980BF081F8C4
:1037E000011C58460BF066F8011C50460BF062F8BD
:1037F0004346D860B823301CE1580BF072F89C2384
:103800008246E158381C0BF06CF8011C50460BF056
:1038100051F880238246E15806980BF062F8616EF9
:10382000834605980BF05DF8011C58460BF042F8F2
:10383000011C50460BF03EF8A16C824604980BF038
:1038400050F8E16A8346281C0BF04BF8011C5846DF
:103850000BF030F82169834607980BF042F8011C01
:1038600058460BF027F8011C50460BF023F843464E
:103870001861BC23301CE1580BF033F8A0238246BA
:10388000E158381C0BF02DF8011C50460BF012F8D3
:1038900084238246E15806980BF023F8A16E8346F4
:1038A00005980BF01EF8011C58460BF003F8011C9C
:1038B00050460AF0FFFFE16C824604980BF011F8C5
:1038C000216B8346281C0BF00CF8011C58460AF0AB
:1038D000F1FF6169834607980BF003F8011C584615
:1038E0000AF0E8FF011C50460AF0E4FF4346E16E8F
:1038F000586105980AF0F5FF88238246E15806983A
:103900000AF0EFFF011C50460AF0D4FFA4238246C0
:10391000E158381C0AF0E5FFC023071CE158301CB1
:103920000AF0DFFF011C381C0AF0C4FF011C5046DE
:103930000AF0C0FF616B061C281C0AF0D2FF216D43
:10394000051C04980AF0CDFF011C281C0AF0B2FFE8
:10395000A169051C07980AF0C4FF011C281C0AF085
:10396000A9FF011C301C0AF0A5FF434698610423FF
:103970009C461833E1449C464DABE044994500D049
:103980002EE60A9BA146D8249846A427A4004444C6
:10399000BF00474420000999FFF774FD21009022E1
:1039A0003800C8240BF024F9FC21A4004444890009
:1039B0004144182220000BF01BF9CE208121800009
:1039C000C9004144182240440BF012F98422D42348
:1039D000D200424412689B0043441A60D523874AB0
:1039E0004546424412889B004344FE211A8000232E
:1039F0002268B0359200AA1889051160936113639B
:103A0000936413669367C922920042441268444645
:103A10009200AA181360916113639364136693670D
:103A2000CA2292004244126806269200AA18136025
:103A300093611163936413669367CB2292004244AF
:103A4000126806209200AA181360936113639164B0
:103A500013669367CC229200424412689200AA181F
:103A6000136093611363936411669367CD22920090
:103A7000424412689200AA1813609361136393641E
:103A80001366A8235B009B46916742465946E4189B
:103A900020334344A660E6602661535080229200A2
:103AA00042444B396260924604933A0006230294E2
:103AB000FF3901960095FDF7DFFA42465946049B0F
:103AC000A660E6602661535053464B3963603A0066
:103AD00006230294062001960095FF39FDF7D0FDDC
:103AE00043461B688C2206934346DB69D3AC07939D
:103AF00043469B6B089343465B6D099343461B6F9C
:103B00000A9343469B5804320B9343465B680C93DD
:103B100043461B6A0D934346DB6B0E9343469B6DF6
:103B20000F9343465B6F109343469B5804321193A7
:103B300043469B68129343465B6A139343461B6C50
:103B400014934346DB6D159343469B6F1693434690
:103B50009B58043217934346DB68189343469B6A8D
:103B6000199343465B6C1A9343461B6E1B93434663
:103B7000DB6F1C9343469B58183A1D9343461B69C1
:103B80001E934346DB6A1F9343469B6C2093434638
:103B90005B6E219343469B581C32229343469B58AD
:103BA000183A239343465B69249343461B6B259342
:103BB0004346DB6C269343469B6E279343469B58B4
:103BC0001C32289343469B58183A299343469B69D5
:103BD0002A9343465B6B2B9343461B6D2C934346C2
:103BE000DB6E2D9343469B581C322E9343469B58C5
:103BF000A8462F934B46329302E0C04624040000AF
:103C000043461F685B6842469946434641469B6867
:103C1000D2680E694D6907984946049305920AF0E7
:103C200060FE0499824608980AF05BFE011C50462B
:103C30000AF040FE391C824606980AF052FE011C2A
:103C400050460AF037FE311C82460A980AF049FEB7
:103C5000291C83460B980AF044FE011C58460AF0C2
:103C600029FE0599834609980AF03BFE011C584637
:103C70000AF020FE011C50460AF01CFE4946206056
:103C80000D980AF02EFE049982460E980AF029FE3D
:103C9000011C50460AF00EFE391C82460C980AF0B0
:103CA00020FE011C50460AF005FE311C8246109889
:103CB0000AF017FE291C834611980AF012FE011C17
:103CC00058460AF0F7FD059983460F980AF009FE59
:103CD000011C58460AF0EEFD011C50460AF0EAFDB0
:103CE0004946606013980AF0FCFD049982461498D6
:103CF0000AF0F7FD011C50460AF0DCFD391C824633
:103D000012980AF0EEFD011C50460AF0D3FD311C5A
:103D1000824616980AF0E5FD291C834617980AF09A
:103D2000E0FD011C58460AF0C5FD0599834615982B
:103D30000AF0D7FD011C58460AF0BCFD011C504694
:103D40000AF0B8FD4946A06019980AF0CAFD049926
:103D500082461A980AF0C5FD011C50460AF0AAFDD9
:103D6000391C824618980AF0BCFD011C50460AF026
:103D7000A1FD311C82461C980AF0B3FD291C834624
:103D80001D980AF0AEFD011C58460AF093FD0599F6
:103D900083461B980AF0A5FD011C58460AF08AFDCF
:103DA000011C50460AF086FD4946E0601F980AF063
:103DB00098FD0499824620980AF093FD011C504614
:103DC0000AF078FD391C82461E980AF08AFD011C13
:103DD00050460AF06FFD311C824622980AF081FDA0
:103DE000291C834623980AF07CFD011C58460AF0E2
:103DF00061FD0599834621980AF073FD011C584620
:103E00000AF058FD011C50460AF054FD4946206155
:103E100025980AF066FD0499824626980AF061FD0D
:103E2000011C50460AF046FD391C824624980AF0CF
:103E300058FD011C50460AF03DFD311C8246289871
:103E40000AF04FFD291C834629980AF04AFD011CFF
:103E500058460AF02FFD0599834627980AF041FD40
:103E6000011C58460AF026FD011C50460AF022FDAE
:103E7000494660612B980AF034FD049981462C98DC
:103E80000AF02FFD011C48460AF014FD391C81463A
:103E90002A980AF026FD011C48460AF00BFD311C49
:103EA000071C2E980AF01DFD291C061C2F980AF0ED
:103EB00018FD011C301C0AF0FDFC0599051C2D980D
:103EC0000AF00FFD011C281C0AF0F4FC011C381C30
:103ED0000AF0F0FC18239C46A061FDAB1C34E044C2
:103EE000A34200D08CE6329BD49A9946D39BD599B5
:103EF000D69CD79DD89ED99F06930792DA9BDB9AD2
:103F000008910994DC99DD9C0A950B96DE9DDF9E55
:103F10000C970D93E09FE19B0E92E29A0F91109403
:103F200011951296139714931592E399E49CE59DCD
:103F3000E69EE79FE89BE99A16911794EA99EB9C15
:103F400018951996EC9DED9E1A971B93EE9FEF9B8B
:103F50001C921D91F09AF1991E94F29C2096219743
:103F600022932392249125941F95F39DF49EF59F0F
:103F7000F79AF69BF899F99C26952796FA9DFB9E51
:103F80002897FC9F2A923A9A29932B912C942D954D
:103F90002E962F97D3AB32CA32C332CA32C31168BE
:103FA000D3AC1960FD49FE4B09681B680191FD49BE
:103FB000FD4A09682000009141A9FDF7CDFF319F1E
:103FC000419938680AF073FC4299834678680AF090
:103FD0006EFC43998246B8680AF069FC4499041C57
:103FE000F8680AF064FC4599051C38690AF05FFC22
:103FF0004699061C78690AF05AFC071C011C2A988D
:104000000AF06FFC311C804623980AF06AFC011C00
:1040100040460AF04FFC291C80461C980AF061FCBF
:10402000011C40460AF046FC211C804615980AF007
:1040300058FC514604900E980AF053FC011C049859
:104040000AF038FC5946049007980AF04AFC011C13
:1040500004980AF02FFC011C40460AF02BFC3A9A07
:1040600051680AF027FC391C04902B980AF039FC9F
:10407000311C804624980AF034FC011C40460AF0AA
:1040800019FC291C80461D980AF02BFC011C404697
:104090000AF010FC211C804616980AF022FC5146BA
:1040A00005900F980AF01DFC011C05980AF002FC0F
:1040B0005946059008980AF014FC011C05980AF06E
:1040C000F9FB011C40460AF0F5FB3A9A91680AF0A8
:1040D000F1FB391C05902C980AF003FC311C80463A
:1040E00025980AF0FEFB011C40460AF0E3FB291C60
:1040F00080461E980AF0F5FB011C40460AF0DAFBE8
:10410000211C804617980AF0ECFB5146319010981C
:104110000AF0E7FB011C31980AF0CCFB59463190BC
:1041200009980AF0DEFB011C31980AF0C3FB011C60
:1041300040460AF0BFFB3A9AD1680AF0BBFB391C33
:1041400031902D980AF0CDFB311C804626980AF05C
:10415000C8FB011C40460AF0ADFB291C80461F9895
:104160000AF0BFFB011C40460AF0A4FB211C80465C
:1041700018980AF0B6FB5146329011980AF0B1FB3C
:10418000011C32980AF096FB594632900A980AF0C0
:10419000A8FB011C32980AF08DFB011C40460AF076
:1041A00089FB3A9A11690AF085FB391C32902E98E6
:1041B0000AF097FB311C804627980AF092FB011CFD
:1041C00040460AF077FB291C804620980AF089FBBC
:1041D000011C40460AF06EFB211C804619980AF02B
:1041E00080FB5146339012980AF07BFB011C3398F8
:1041F0000AF060FB594633900B980AF072FB011CE1
:1042000033980AF057FB011C40460AF053FB3A9AD8
:1042100051690AF04FFB5146339013980AF061FB45
:10422000211C80461A980AF05CFB011C40460AF0EB
:1042300041FB594680460C980AF053FB011C40464E
:104240000AF038FB311C804628980AF04AFB391CDA
:1042500034902F980AF045FB011C34980AF02AFB91
:10426000291C349021980AF03CFB011C34980AF078
:1042700021FB011C40460AF01DFB3A9A91690AF0A5
:1042800019FB391C804629980AF02BFB311C071CAE
:1042900022980AF026FB011C381C0AF00BFB291C93
:1042A000061C1B980AF01DFB011C301C0AF002FBC7
:1042B000211C051C14980AF014FB5146041C0D988F
:1042C0000AF00FFB011C201C0AF0F4FA5946041CEA
:1042D00006980AF006FB011C201C0AF0EBFA011CF0
:1042E000281C0AF0E7FA3A9AD3AC11680AF0E2FA0D
:1042F0003B9B049A18605A60059A9A60319ADA607A
:10430000329A1A61339A5A6142469A614B461B6847
:104310004A46A2934B465B68A3934B469B68A49383
:104320004B46DB68A5934B461B69A6934B465B69DE
:10433000A7934B469B69A8934B46DB69A9934B46D1
:104340001B6AAA934B465B6AAB934B469B6AAC9342
:104350004B46DB6AAD934B461B6BAE934B465B6B98
:10436000AF934B469B6BB0934B46DB6BB1934B4685
:104370001B6CB2934B465B6CB3934B469B6CB493F4
:104380004B46DB6CB5934B461B6DB6934B465B6D52
:10439000B7934B469B6DB8934B4607E06C200320C8
:1043A00074200320702003200AE81C41DB6DB993C0
:1043B0004B461B6EBA934B465B6EBB934B469B6E54
:1043C000BC934B46DB6EBD934B461B6FBE934B4677
:1043D0005B6FBF934B469B6FC0934B46DB6FC193A4
:1043E0008023D358C2938423D358C3938823D358AC
:1043F000C4938C23D358C5939023D358C693942346
:10440000D358C7939823D358C8939C23D358C993A0
:10441000A023D358CA93A423D358CB93A823D3580B
:10442000CC93AC23D358CD93B023D358CE93B4239D
:10443000D358CF93B823D358D093BC23D358D19318
:10444000C023D358D293309B3092984643461F687E
:104450005B6842469946434641469B68D2680E696E
:104460004D690D984946049305920AF03AFA049969
:10447000824614980AF035FA011C50460AF01AFADE
:10448000391C824606980AF02CFA011C50460AF0A4
:1044900011FA311C824622980AF023FA291C83461D
:1044A00029980AF01EFA011C58460AF003FA0599E9
:1044B00083461B980AF015FA011C58460AF0FAF9CF
:1044C000011C50460AF0F6F9494620600E980AF0A1
:1044D00008FA0499824615980AF003FA011C50461E
:1044E0000AF0E8F9391C824607980AF0FAF9011C2B
:1044F00050460AF0DFF9311C824623980AF0F1F9A0
:10450000291C83462A980AF0ECF9011C58460AF047
:10451000D1F9059983461C980AF0E3F9011C584625
:104520000AF0C8F9011C50460AF0C4F94946606017
:104530000F980AF0D6F90499824616980AF0D1F934
:10454000011C50460AF0B6F9391C824608980AF058
:10455000C8F9011C50460AF0ADF9311C8246249876
:104560000AF0BFF9291C83462B980AF0BAF9011CFE
:1045700058460AF09FF9059983461D980AF0B1F94B
:10458000011C58460AF096F9011C50460AF092F9AF
:104590004946A06010980AF0A4F904998246179839
:1045A0000AF09FF9011C50460AF084F9391C824632
:1045B00009980AF096F9011C50460AF07BF9311C63
:1045C000824625980AF08DF9291C83462C980AF01A
:1045D00088F9011C58460AF06DF9059983461E9822
:1045E0000AF07FF9011C58460AF064F9011C504694
:1045F0000AF060F94946E06011980AF072F90499EE
:10460000824618980AF06DF9011C50460AF052F9DA
:10461000391C82460A980AF064F9011C50460AF0D7
:1046200049F9311C824626980AF05BF9291C834619
:104630002D980AF056F9011C58460AF03BF90599E5
:1046400083461F980AF04DF9011C58460AF032F9CA
:10465000011C50460AF02EF94946206112980AF0D2
:1046600040F90499824619980AF03BF9011C50461A
:104670000AF020F9391C82460B980AF032F9011C25
:1046800050460AF017F9311C824627980AF029F99A
:10469000291C83462E980AF024F9011C58460AF07A
:1046A00009F90599834620980AF01BF9011C584620
:1046B0000AF000F9011C50460AF0FCF84946606116
:1046C00013980AF00EF9049981461A980AF009F92C
:1046D000011C48460AF0EEF8391C81460C980AF095
:1046E00000F9011C48460AF0E5F8311C071C28981F
:1046F0000AF0F7F8291C061C2F980AF0F2F8011CA2
:10470000301C0AF0D7F80599051C21980AF0E9F841
:10471000011C281C0AF0CEF8011C381C0AF0CAF84B
:1047200018239C46FFABA06114331C34E044A34221
:1047300000D08BE6309BA2AD99463C93C4234C46F7
:10474000C8464B44089307944246D26843464146C4
:10475000914642469E694C68096892685F691B6988
:104760000491301CFD99069305920AF0BAF8F69967
:104770008246381C0AF0B5F8011C50460AF09AF837
:10478000EF99824606980AF0ACF8E89983464846C5
:104790000AF0A7F8011C58460AF08CF8011C504694
:1047A0000AF088F8E199824605980AF09AF8DA99B1
:1047B0008346201C0AF095F8011C58460AF07AF846
:1047C000D399834604980AF08CF8011C58460AF0E5
:1047D00071F8011C50460AF06DF8011C28680AF0B7
:1047E00066F82860FE99301C0AF07BF8F79982463B
:1047F000381C0AF076F8011C50460AF05BF8F09974
:10480000824606980AF06DF8E999834648460AF010
:1048100068F8011C58460AF04DF8011C50460AF091
:1048200049F8E299824605980AF05BF8DB998346DD
:10483000201C0AF056F8011C58460AF03BF8D4999F
:10484000834604980AF04DF8011C58460AF032F8E5
:10485000011C50460AF02EF8011C68680AF027F87F
:10486000FF996860301C0AF03CF8F8998246381CC1
:104870000AF037F8011C50460AF01CF8F1998246FC
:1048800006980AF02EF8EA99834648460AF029F875
:10489000011C58460AF00EF8011C50460AF00AF8AE
:1048A000E399824605980AF01CF8DC998346201C9F
:1048B0000AF017F8011C584609F0FCFFD599834609
:1048C00004980AF00EF8011C584609F0F3FF011C89
:1048D000504609F0EFFF011CA86809F0E8FFFFABA4
:1048E0005968A860301C043309F0FBFFF99982462F
:1048F000381C09F0F6FF011C504609F0DBFFF29965
:104900008246069809F0EDFFEB998346484609F088
:10491000E8FF011C584609F0CDFF011C504609F084
:10492000C9FFE4998246059809F0DBFFDD998346CB
:10493000201C09F0D6FF011C584609F0BBFFD69990
:104940008346049809F0CDFF011C584609F0B2FFD8
:10495000011C504609F0AEFF011CE86809F0A7FFF2
:10496000FFAB9968E860301C083309F0BAFFFA9988
:104970008246381C09F0B5FF011C504609F09AFF29
:10498000F3998246069809F0ACFFEC9983464846B5
:1049900009F0A7FF011C584609F08CFF011C504686
:1049A00009F088FFE5998246059809F09AFFDE999B
:1049B0008346201C09F095FF011C584609F07AFF38
:1049C000D7998346049809F08CFF011C584609F0DA
:1049D00071FF011C504609F06DFF011C286909F0A8
:1049E00066FFFFABD9682861301C0C3309F079FFF2
:1049F000FB998246381C09F074FF011C504609F0EF
:104A000059FFF4998246069809F06BFFED998346A9
:104A1000484609F066FF011C584609F04BFF011C8F
:104A2000504609F047FFE6998246059809F059FF7C
:104A3000DF998346201C09F054FF011C584609F0F9
:104A400039FFD8998346049809F04BFF011C58465A
:104A500009F030FF011C504609F02CFF011C686969
:104A600009F025FFEE996861484609F03AFFF5998B
:104A70008146069809F035FF011C484609F01AFFE7
:104A8000FC998146381C09F02CFFFFAB1969071C03
:104A9000301C103309F025FF011C381C09F00AFFF7
:104AA000011C484609F006FFE099061C201C09F08D
:104AB00018FFE799041C059809F013FF011C201C3E
:104AC00009F0F8FED999041C049809F00AFF011CAA
:104AD000201C09F0EFFE011C301C09F0EBFE011C4C
:104AE000A86909F0E4FE1C239C46089BE044A861E9
:104AF0001C35984500D027E6079BA29A99461A6074
:104B0000A39A5A60A49A9A60A59ADA60A69A1A6142
:104B1000A79A5A61A89A9A61A99ADA61AA9A1A621E
:104B2000AB9A5A62AC9A9A62AD9ADA62AE9A1A63FA
:104B3000AF9A5A63B09A9A63B19ADA63B29A1A64D6
:104B4000B39A5A64B49A9A64B59ADA64B69A1A65B2
:104B5000B79A5A65B89A9A65B99ADA65BA9A1A668E
:104B6000BB9A5A66BC9A9A66BD9ADA66BE9A1A676A
:104B7000BF9A5A67C09A9A67C19ADA674A468023F1
:104B8000C299D150C3990433D150C4990433D15040
:104B9000C5990433D150C6990433D150C799043311
:104BA000D150C8990433D150C9990433D150CA990E
:104BB0000433D150CB990433D150CC990433D15024
:104BC000CD990433D150CE990433D150CF990433C9
:104BD000D150D0990433D150D1990433D150D299C6
:104BE0000433D1503AAA9446504BA2AA63441B689E
:104BF00013CB13C24E4BD3AC63441B6807CB07C423
:104C00003A9B3B9D00934B4B28006344A2A91B6831
:104C1000D3AAFDF77FF82B00D3AA23CB23C213CB53
:104C200013C23AA91B688C4613603EAA11003F4B81
:104C300063441B6831CB31C13D4BA2A963441B685F
:104C400031CB31C13B4BD3A963441B6871A800939E
:104C5000A2ABFDF7C5FAD3AB1C000793719BA0462E
:104C60000993789B10937F9B1793869B1E938D9B34
:104C70002593949B2C939B9B3393729B0A93799BD4
:104C80001193809B1893879B1F938E9B2693959BD4
:104C90002D939C9B3493739B0B937A9B1293819BD4
:104CA0001993889B20938F9B2793969B2E939D9B74
:104CB0003593749B0C937B9B1393829B1A93899BD4
:104CC0002193909B2893979B2F939E9B3693759B44
:104CD0000D937C9B1493839B1B938A9B2293919BA4
:104CE0002993989B30939F9B3793769B0E937D9B44
:104CF0001593849B1C938B9B2393929B2A93999B44
:104D00003193A09B3893779B0F937E9B1693859B43
:104D10001D938C9B2493939B2B939A9B3293A19BE3
:104D200039934B463D933C9B994605E0280800008B
:104D3000380800003C080000484649464A464B46B1
:104D4000866909691B6855689468D2684769069145
:104D50003398311C0592049309F0C3FD391C824637
:104D60002C9809F0BEFD011C504609F0A3FD0699E0
:104D70008246259809F0B5FD059983461E9809F0ED
:104D8000B0FD011C584609F095FD011C504609F084
:104D900091FD211C8246179809F0A3FD291C83462A
:104DA000109809F09EFD011C584609F083FD0499F6
:104DB0008346099809F095FD011C584609F07AFDD3
:104DC000011C504609F076FD4346311C18603498AA
:104DD00009F087FD391C82462D9809F082FD011CDF
:104DE000504609F067FD06998246269809F079FD3C
:104DF000059983461F9809F074FD011C584609F077
:104E000059FD011C504609F055FD211C8246189899
:104E100009F067FD291C8346119809F062FD011C09
:104E2000584609F047FD049983460A9809F059FD50
:104E3000011C584609F03EFD011C504609F03AFDA0
:104E40004346311C5860359809F04BFD391C8246A9
:104E50002E9809F046FD011C504609F02BFD0699DD
:104E60008246279809F03DFD05998346209809F070
:104E700038FD011C584609F01DFD011C504609F083
:104E800019FD211C8246199809F02BFD291C834627
:104E9000129809F026FD011C584609F00BFD0499F3
:104EA00083460B9809F01DFD011C584609F002FDD0
:104EB000011C504609F0FEFC4346311C98603698B0
:104EC00009F00FFD391C82462F9809F00AFD011CDC
:104ED000504609F0EFFC06998246289809F001FD3A
:104EE00005998346219809F0FCFC011C584609F0FD
:104EF000E1FC011C504609F0DDFC211C82461A9899
:104F000009F0EFFC291C8346139809F0EAFC011C08
:104F1000584609F0CFFC049983460C9809F0E1FC4F
:104F2000011C584609F0C6FC011C504609F0C2FCA1
:104F30004346311CD860379809F0D3FC391C8246AF
:104F4000309809F0CEFC011C504609F0B3FC0699DC
:104F50008246299809F0C5FC05998346229809F0F4
:104F6000C0FC011C584609F0A5FC011C504609F084
:104F7000A1FC211C82461B9809F0B3FC291C834626
:104F8000149809F0AEFC011C584609F093FC0499F2
:104F900083460D9809F0A5FC011C584609F08AFCCF
:104FA000011C504609F086FC4346311C18613898B4
:104FB00009F097FC391C8246319809F092FC011CDB
:104FC000504609F077FC069982462A9809F089FC38
:104FD00005998346239809F084FC011C584609F082
:104FE00069FC011C504609F065FC211C82461C9896
:104FF00009F077FC291C8346159809F072FC011C06
:10500000584609F057FC049983460E9809F069FC4C
:10501000011C584609F04EFC011C504609F04AFCA0
:10502000434605995861249809F05BFC069982462D
:105030002B9809F056FC011C504609F03BFC391C2A
:105040008246329809F04DFC311C071C399809F052
:1050500048FC011C381C09F02DFC011C504609F0CD
:1050600029FC291C061C169809F03BFC211C051C78
:105070001D9809F036FC011C281C09F01BFC049942
:10508000041C0F9809F02DFC011C201C09F012FCD7
:10509000011C301C09F00EFC434698611C239C4601
:1050A000089BE144E044994500D045E6A2ACA04607
:1050B000F6AB0693DAAB3C940893079B33981A68D7
:1050C000596D0492069A8946D669196FDD69059172
:1050D000311C9C6B176809F004FC391C82462C9823
:1050E00009F0FFFB011C504609F0E4FB05998246DC
:1050F000259809F0F6FB494683461E9809F0F1FB16
:10510000011C584609F0D6FB011C504609F0D2FBA1
:10511000211C8246179809F0E4FB291C834610984D
:1051200009F0DFFB011C584609F0C4FB04998346D3
:10513000099809F0D6FB011C584609F0BBFB011C7D
:10514000504609F0B7FB41460860311C349809F01D
:10515000C8FB391C82462D9809F0C3FB011C504640
:1051600009F0A8FB05998246269809F0BAFB494642
:1051700083461F9809F0B5FB011C584609F09AFBBD
:10518000011C504609F096FB211C8246189809F034
:10519000A8FB291C8346119809F0A3FB011C584663
:1051A00009F088FB049983460A9809F09AFB011CD0
:1051B000584609F07FFB011C504609F07BFB414635
:1051C0004860311C359809F08CFB391C82462E98BA
:1051D00009F087FB011C504609F06CFB05998246DB
:1051E000279809F07EFB49468346209809F079FB11
:1051F000011C584609F05EFB011C504609F05AFBA1
:10520000211C8246199809F06CFB291C83461298D0
:1052100009F067FB011C584609F04CFB04998346D2
:105220000B9809F05EFB011C584609F043FB011C7A
:10523000504609F03FFB41468860311C369809F022
:1052400050FB391C82462F9809F04BFB011C50463D
:1052500009F030FB05998246289809F042FB49463F
:105260008346219809F03DFB011C584609F022FBBA
:10527000011C504609F01EFB211C82461A9809F0B9
:1052800030FB291C8346139809F02BFB011C584660
:1052900009F010FB049983460C9809F022FB011CCD
:1052A000584609F007FB011C504609F003FB414634
:1052B000C860311C379809F014FB391C82463098BD
:1052C00009F00FFB011C504609F0F4FA05998246DB
:1052D000299809F006FB49468346229809F001FB0C
:1052E000011C584609F0E6FA011C504609F0E2FAA2
:1052F000211C82461B9809F0F4FA291C8346149855
:1053000009F0EFFA011C584609F0D4FA04998346D3
:105310000D9809F0E6FA011C584609F0CBFA011C79
:10532000504609F0C7FA41460861311C389809F027
:10533000D8FA391C8246319809F0D3FA011C50463C
:1053400009F0B8FA059982462A9809F0CAFA49463E
:105350008346239809F0C5FA011C584609F0AAFAB9
:10536000011C504609F0A6FA211C82461C9809F03F
:10537000B8FA291C8346159809F0B3FA011C58465F
:1053800009F098FA049983460E9809F0AAFA011CCC
:10539000584609F08FFA011C504609F08BFA434633
:1053A00049465861249809F09CFA059981462B9842
:1053B00009F097FA011C484609F07CFA391C81462D
:1053C000329809F08EFA311C071C399809F089FAD5
:1053D000011C381C09F06EFA011C484609F06AFAF3
:1053E000291C061C169809F07CFA211C051C1D9826
:1053F00009F077FA011C281C09F05CFA0499041CD6
:105400000F9809F06EFA011C201C09F053FA011CD8
:10541000301C09F04FFA414688611C218C46069ADF
:10542000079B04320692089A04330793E0449A4299
:1054300000D042E63AAA94463D9B764A9946754B7F
:10544000624463441B6812681B68D3AC0793714BBA
:1054500063441B68DB6908936E4B63441B689B6B5A
:1054600009936C4B63441B685B6D0A93694B6344FF
:105470001B681B6F0B938C23D358664A0C93654BA8
:10548000624463441B685B680D93624B63441B6812
:105490001B6A0E935F4B63441B68DB6B0F935D4B82
:1054A00063441B689B6D10935A4B63441B685B6F8E
:1054B000126811939023D358564A1293554B624465
:1054C00063441B6812689B681393524B63441B68C8
:1054D0005B6A14934F4B63441B681B6C15934D4BD5
:1054E00063441B68DB6D16934A4B63441B689B6FD8
:1054F00017939423D358474A1893464B6244634406
:105500001B68DB681993434B63441B689B6A1A93BF
:10551000404B63441B685B6C1B933E4B63441B68AE
:1055200012681B6E1C933B4B63441B68DB6F1D931F
:105530009823D358374A1E93364B624463441B6802
:1055400012681B691F93334B63441B68DB6A20930B
:10555000304B63441B689B6C21932E4B63441B6848
:105560005B6E22938023D3582A4A23939C23624460
:105570001268D358274A2493264B624463441B681D
:105580005B692593234B63441B681B6B2693214B5C
:10559000126863441B68DB6C27931E4B63441B68D3
:1055A0009B6E28938423D3581A4A2993A0236244DC
:1055B0001268D358174A2A93164B624463441B68F7
:1055C00012689B692B93134B63441B685B6B2C9392
:1055D000104B63441B681B6D2D930E4B63441B687B
:1055E000DB6E2E938823D3580A4A2F93A423624458
:1055F0001268D35822003093074B63441B689846C7
:10560000D3AB06939023434431934B464446904694
:10561000329303E0340800002C0800006368E2685D
:105620009946A368089948460493059209F059F9E8
:1056300009998246049809F054F9011C504609F072
:1056400039F9276882460799381C09F04AF9011C84
:10565000504609F02FF9266982460B99301C09F053
:1056600040F9656983460C99281C09F03AF9011C38
:10567000584609F01FF90A998346059809F031F94F
:10568000011C584609F016F9011C504609F012F9A0
:10569000414608600E99484609F023F90F99824661
:1056A000049809F01EF9011C504609F003F90D9900
:1056B0008246381C09F015F9011C504609F0FAF829
:1056C00011998246301C09F00CF912998346281C66
:1056D00009F007F9011C584609F0ECF810998346C7
:1056E000059809F0FEF8011C584609F0E3F8011C82
:1056F000504609F0DFF8414648601499484609F0E1
:10570000F0F815998246049809F0EBF8011C504610
:1057100009F0D0F813998246381C09F0E2F8011C10
:10572000504609F0C7F817998246301C09F0D9F89D
:1057300018998346281C09F0D4F8011C584609F032
:10574000B9F816998346059809F0CBF8011C58461C
:1057500009F0B0F8011C504609F0ACF841468860E9
:105760001A99484609F0BDF81B998246049809F039
:10577000B8F8011C504609F09DF819998246381C6A
:1057800009F0AFF8011C504609F094F81D998246C3
:10579000301C09F0A6F81E998346281C09F0A1F8D0
:1057A000011C584609F086F81C998346059809F0B3
:1057B00098F8011C584609F07DF8011C504609F084
:1057C00079F84146C8602099484609F08AF821993D
:1057D0008246049809F085F8011C504609F06AF8E1
:1057E0001F998246381C09F07CF8011C504609F0CC
:1057F00061F823998246301C09F073F82499834696
:10580000281C09F06EF8011C584609F053F822993B
:105810008346059809F065F8011C584609F04AF8D6
:10582000011C504609F046F8414608612699484651
:1058300009F057F827998246049809F052F8011C9C
:10584000504609F037F825998246381C09F049F886
:10585000011C504609F02EF829998246301C09F0A7
:1058600040F82A998346281C09F03BF8011C584649
:1058700009F020F828998346059809F032F8011CB0
:10588000584609F017F8011C504609F013F8434632
:105890002C995861484609F024F82D9981460498BE
:1058A00009F01FF8011C484609F004F82B998146BD
:1058B000381C09F016F8011C484608F0FBFF2F9928
:1058C000071C301C09F00DF83099061C281C09F043
:1058D00008F8011C301C08F0EDFF2E99051C0598F6
:1058E00008F0FFFF011C281C08F0E4FF011C381C15
:1058F00008F0E0FF434698611C239C46319B183416
:10590000E044A34200D089E6F6AB05933C9CDAABB9
:105910003193069B0899DA691F6891469A6B48464D
:1059200090465A6D1E6F0492059A20CA059208F09F
:10593000D8FF09998246404608F0D3FF011C504623
:1059400008F0B8FF07998246381C08F0CAFF011C0E
:10595000504608F0AFFF0B998246301C08F0C1FF9B
:105960000C998346281C08F0BCFF011C584608F01F
:10597000A1FF0A998346049808F0B3FF011C58461A
:1059800008F098FF011C504608F094FF011C2068A5
:1059900008F090FF0E992060484608F0A2FF0F998A
:1059A0008246404608F09DFF011C504608F082FFE9
:1059B0000D998246381C08F094FF011C504608F0EF
:1059C00079FF11998246301C08F08BFF12998346AB
:1059D000281C08F086FF011C584608F06BFF109940
:1059E0008346049808F07DFF011C584608F062FFCA
:1059F000011C504608F05EFF011C606808F05AFF69
:105A000018996060281C08F06CFF17998246301CBA
:105A100008F067FF011C504608F04CFF16998246BB
:105A2000049808F05EFF011C504608F043FF1499EB
:105A30008246484608F055FF15998346404608F0CF
:105A400050FF011C584608F035FF13998346381C57
:105A500008F047FF011C584608F02CFF011C504677
:105A600008F028FF011CA06808F024FF1E99A06020
:105A7000281C08F036FF1D998246301C08F031FFC3
:105A8000011C504608F016FF1C998246049808F045
:105A900028FF011C504608F00DFF1B998246404626
:105AA00008F01FFF1A998346484608F01AFF011CA8
:105AB000584608F0FFFE19998346381C08F011FF7C
:105AC000011C584608F0F6FE011C504608F0F2FE94
:105AD000011CE06808F0EEFE2099E060484608F0FE
