:020000041000EA
:1000000000B5324B212058609868022188439860DF
:10001000D860186158612E4B002199600221596106
:100020000121F02299502B49196001219960352056
:1000300000F044F80222904214D00621196600F024
:1000400034F8196E01211966002018661A6600F04E
:100050002CF8196E196E196E052000F02FF8012189
:100060000842F9D1002199601B49196000215960AB
:100070001A491B48016001219960EB211966A021F2
:10008000196600F012F800219960164914480160C1
:100090000121996001BC002800D000471248134993
:1000A000086003C880F30888084703B5996A0420EC
:1000B0000142FBD001200142F8D103BD02B5186610
:1000C0001866FFF7F2FF186E186E02BD00000240BE
:1000D000000000180000070000035F00212200005C
:1000E000F4000018222000A00001001008ED00E03C
:1000F00000000000000000000000000074B24E7A12
:1001000000200420F7010010C3010010C5010010F9
:10011000C1010010C1010010C1010010C101001097
:10012000C1010010C1010010C1010010C701001081
:10013000C1010010C1010010C9010010CB01001065
:10014000CD010010CD010010CD010010CD01001037
:10015000CD010010CD010010CD010010CD01001027
:10016000CD010010CD010010CD010010CD01001017
:10017000CD010010CD010010CD010010CD01001007
:10018000CD010010CD010010CD010010CD010010F7
:10019000CD010010CD010010CD010010CD010010E7
:1001A000CD010010CD010010CD010010CD010010D7
:1001B000CD010010CD010010CD010010CD010010C7
:1001C00000BE00BE00BE00BE00BE00BEEFF3058054
:1001D000103800BEF2EB8871B4420510D44205100D
:1001E0003402001090A31AE700201F49086006C8D7
:1001F00081F3088810471D48006800282FD10DA4FE
:100200000ECC002902D000F012F8F9E71849194A7B
:10021000002000E001C19142FCD1174988471749ED
:1002200088471749884700BEFDE701C901C29A42C5
:10023000FBD37047D4420510C0000020902C002052
:10024000A46E05100000042000000420A46E051018
:10025000001004200010042000000000704709482E
:100260000DF0DAF90047000008ED00E0000000D0D2
:10027000902C0020A05803200DBE00105503001044
:1002800041BF00105756000006005250ABB36053F8
:10029000889E041006005250861C0302989E04108B
:1002A000060052505422A29DA49E041005005250F4
:1002B000DE65F468A46E0510F8B5C0460448054B29
:1002C00010B5834203D0044B002B00D0984710BDDB
:1002D000902C0020902C00200000000006480749C8
:1002E000091A8B10C90FC91810B5491003D0044B57
:1002F000002B00D0984710BD902C0020902C00209F
:100300000000000010B5074C2378002B09D1FFF73F
:10031000D5FF054B002B02D0044800E000BF0123AD
:10032000237010BDD830002000000000B8990410E0
:10033000054B10B5002B03D00449054800E000BF71
:10034000FFF7CCFF10BDC04600000000DC300020ED
:10035000B899041070B519200AF024F8D02380222F
:100360001B0692045A620FF0C7F800F047F806F037
:1003700013FD08F017F806F0B5FF09F061FB002245
:100380000524144B1A7006F0B5F9134D013C2100F9
:1003900028000FF0A5F8FA2080000AF013FE002CC8
:1003A000F4D10A200EF0FCFE012200210B480AF0D5
:1003B000D1FA0B4811F050FA01220A4B0A4C1A707C
:1003C0002378012BFCD108F0A9F92378012BFAD06E
:1003D000F6E7C04684580320B8990410B8570320A4
:1003E00061890010835803208858032010B5024803
:1003F00011F05AFD10BDC04690380320092370B596
:1004000086B0059304330493023B0393013B0293AC
:10041000023B324D324C0193324B22003249334879
:1004200000932B0005F024FE142005F01DFEFA2099
:1004300080000AF0C7FD2E4E21003200280006F091
:100440002FF83378682B08D02A4C20000EF0F4FEE9
:10045000FA2080000AF0B6FDF7E773783D2BF3D160
:1004600001222100280006F03FF8234E320021002F
:10047000280006F073F83378002BF7D10122210011
:10048000280005F0EFFE0121200005F0CDFE03213C
:10049000200005F05FFE0321280005F089FF1321ED
:1004A000200006F0C9F81221200006F003F900210F
:1004B000200006F0E1F80321200006F06BF802218D
:1004C000200006F083F85521200005F061FE182178
:1004D000280005F007FF06B070BDC0467820032055
:1004E0005C32002040420F009C200020942000201D
:1004F00048580320CC9904109C580320F0B5C646F8
:10050000334C344D344E22002900300000B505F044
:10051000D9FF6378DB439B0720D023781B0702D4E5
:1005200080BCB846F0BD2D4C0622002120000EF004
:1005300005FD2100300005F095FF0023E05E05F089
:10054000FFFD274D28600223E05E05F0F9FD68609D
:100550000423E05E05F0F4FDA860E1E7214B0622EC
:100560009846180000210EF0E9FC1F4F06220021DA
:1005700038000EF0E3FC4146280005F055FF390035
:10058000280005F033FF43460020185E05F0C4FD47
:100590004346164D28600220185E05F0BDFD434617
:1005A00068600420185E05F0B7FDA8600023F85EBF
:1005B00005F0BCFD0E4D28600223F85E05F0B6FD87
:1005C00068600423F85E05F0B1FDA860A5E7C046A9
:1005D000CC4D03205C32002078200320783E03209D
:1005E00018430320683E0320703E03200C3D032087
:1005F000283D0320F0B55746DE464E464546E0B559
:100600008BB008919246190005900993DA170323DD
:100610008C46134063449B109B009846002B00DCE3
:1006200090E05246159B00249B000193149B9B1A5B
:10063000159A9B1A089A9B00029353681268190135
:1006400094460491069251469A00039252468D00B8
:100650000021013A92000792002289465900DE00EB
:10066000CB189B009B461300424665440092019ABA
:1006700094469C44039B1A199F195346002B1EDD78
:10068000069B059819196346804600989B004344D1
:1006900080460094086818600098081A845804314D
:1006A0005C6084599C60C059D86010338D42F1D190
:1006B00043460799009363468C4604339C440421C7
:1006C000029B5A4463448C461400049A3E00E14461
:1006D0009446009A5E4465444A45C8DC1A00009B73
:1006E0009846099B434526DD1499159C089B0D1BD4
:1006F000514609CB6D1A00291DDD41469E004B4332
:100700009B00C01853469C00059B47469C46099B8E
:10071000AB469846159B994600234A449100614494
:10072000C558CD5004339C42FAD1524401375A4443
:100730008019B845F0D10BB0F0BCBB46B246A94613
:10074000A046F0BD0022CCE7F0B54746CE4680B5C6
:100750001F00002B1DDD002A1BDD9300C0180B6855
:10076000002498464B689100D200494252428C4680
:1007700091469B00614645182900A2004244166834
:10078000D21840C18142FAD14A460134A81AA74280
:10079000F0D1C0BCB946B046F0BDC046F0B5DE46AB
:1007A00057464E4645460023E0B51360836887B040
:1007B0009A46059200230268052693460093013B62
:1007C000039002910493052355469B1B98465D4375
:1007D0005B46002B00D18DE14544AD005D442B68A4
:1007E0005C006B6864085F007F08391C381C0EF0E1
:1007F0006EFA002800D0DFE0211C381C0EF062FAEF
:10080000002800D0DFE00027731C9A46022B53D942
:10081000AB685B005B08191C181C99460EF057FA70
:10082000002800D046E14846211C0EF04BFA002873
:1008300001D04C4602275346032B3DD0EB685B00AA
:100840005B08191C181C99460EF041FA002800D0CC
:1008500038E14846211C0EF035FA002801D04C46FC
:1008600003275346042B27D02B695B005B08191C18
:10087000181C99460EF02BFA002800D02AE14946B0
:10088000201C0EF011FA002801D04C4604275346D4
:10089000052B11D06D696D006D08291C281C0EF008
:1008A00016FA002800D01DE1291C201C0EF0FCF9CE
:1008B000002801D005272C1C029B009A47440021E8
:1008C0009F50201C0EF0E8F9002800D17EE0049B28
:1008D000013300D1E3E006239B1B45460193039BB4
:1008E0009B689A465D4306239F1B53469B0099468F
:1008F000019B52461C005443009A7F199446A50060
:1009000065449C460023BF005F44B8461F00644412
:10091000A4005D445C444346286819680EF08DF9D4
:10092000011C20680EF06FF92060012E2DD943467E
:10093000286859680EF081F9011C60680EF063F9AF
:100940006060022E21D04346296898680EF075F940
:10095000011CA0680EF057F9A060032E15D0434685
:100960002968D8680EF069F9011CE0680EF04BF9AF
:10097000E060052E09D14346296818690EF05DF93B
:10098000011C20690EF03FF9206101374D444C44B1
:10099000BE42C0D1009B013E04330093019B052B56
:1009A00000D010E71A00029B5A6107B0F0BCBB46AA
:1009B000B246A946A046F0BD211C201C0EF087F9C6
:1009C000002800D018E73C1C01271DE7474530D020
:1009D00059465C460098BB005B4409581D68039A61
:1009E00092682550196001009200594489189B189B
:1009F00008681C680C60186089189B1808681C68D7
:100A00000C60186089189B1808681C680C601860D6
:100A100089189B1808681C680C60186089189B1856
:100A200018680A6808601A60059A13680193013310
:100A300013604546039B5A469B685D439A460623CE
:100A40009B1B0193EC1843465B199B009F58A40025
:100A50005C442068391C0EF0DCF82060012E00D8C0
:100A600041E76068391C0EF0D4F86060022E00D1B6
:100A700039E7A068391C0EF0CCF8A060032E00D135
:100A800031E7E068391C0EF0C4F8E060042E00D1B4
:100A900029E72069391C0EF0BCF8206123E7062302
:100AA00045469B1B0193039B9B689A465D434346C7
:100AB000049318E7211C201C0EF009F9002800D12E
:100AC000B7E6B0E6211C201C0EF001F9002800D189
:100AD000C5E6BEE6211C201C0EF0F9F8002800D166
:100AE000D3E6CCE6211C201C0EF0F1F8002800D142
:100AF000E0E6D9E61B68FFDEF0B55746DE464E4617
:100B00004546E0B599B01493249B8246259C2698CF
:100B10005D1C00D1229B651C00D1229C239DEE17F9
:100B200003253540239EB4466544AD10AF0007252C
:100B3000229E0E97AE4335000096149E002E00DCD8
:100B400088E29B001693230110930301D318179397
:100B50006B1EDB0801330391D9015B010F93A300E6
:100B60007C43201880001193131815930023D3465B
:100B7000139108930E9B002B00DCC2E10F9A039B9C
:100B8000944663441293179BD84601930023029323
:100B90000298434601000CCB089C5943A44661448B
:100BA000890051180991411C594361448900511829
:100BB0000A91811C59436144890051180B91C11C51
:100BC0004B4363449B00D318019E0C93009B34005D
:100BD000002B00DC45E2039B0025994600234C4690
:100BE000AA46AB46A946069504952F1C0595079580
:100BF0000D9325683168281C0EF01FF859460EF039
:100C000005F871688346281C0EF017F851460DF060
:100C1000FDFFB1688246281C0EF00FF807990DF011
:100C2000F5FFF1680790281C0EF007F805990DF004
:100C3000EDFF059065683169281C0DF0FEFF391C39
:100C40000DF0E4FF7169071C281C0DF0F6FF0499F4
:100C50000DF0DCFFB1690490281C0DF0EEFF069941
:100C60000DF0D4FFF1690690281C0DF0E6FF49460F
:100C70000DF0CCFF8146A568316A281C0DF0DDFF20
:100C800059460DF0C3FF716A8346281C0DF0D5FF4D
:100C900051460DF0BBFFB16A8246281C0DF0CDFF16
:100CA00007990DF0B3FFF16A0790281C0DF0C5FFFE
:100CB00005990DF0ABFF0590E568316B281C0DF030
:100CC000BCFF391C0DF0A2FF716B071C281C0DF036
:100CD000B4FF04990DF09AFFB16B0490281C0DF03D
:100CE000ACFF06990DF092FFF16B0690281C0DF0F9
:100CF000A4FF49460DF08AFF81462569316C281C06
:100D00000DF09BFF59460DF081FF716C8346281C46
:100D10000DF093FF51460DF079FFB16C8246281C0F
:100D20000DF08BFF07990DF071FFF16C0790281CF7
:100D30000DF083FF05990DF069FF05906569316D30
:100D4000281C0DF07AFF391C0DF060FF716D071C37
:100D5000281C0DF072FF04990DF058FFB16D04903E
:100D6000281C0DF06AFF06990DF050FFF16D0690FA
:100D7000281C0DF062FF49460DF048FF8146A56929
:100D8000316E281C0DF059FF59460DF03FFF716E72
:100D90008346281C0DF051FF51460DF037FFB16E10
:100DA0008246281C0DF049FF07990DF02FFFF16EC8
:100DB0000790281C0DF041FF05990DF027FF0590C5
:100DC000E569316F281C0DF038FF391C0DF01EFF4E
:100DD000716F071C281C0DF030FF04990DF016FFF1
:100DE000B16F0490281C0DF028FF06990DF00EFF3E
:100DF000F16F0690281C0DF020FF49460DF006FF0C
:100E00008146803620340D9B009A08330D939A4218
:100E100000DDEEE6139B019C9C46051C5946381CE0
:100E200064440DF0F3FE5146071C04980DF0EEFEED
:100E30000799061C06980DF0E9FE05998146281CC5
:100E40000DF0E4FE129B051C9A46229A009B9A42E2
:100E500030DDAB460493534620CB2168281C9A46CC
:100E60000DF0EBFE011C381C0DF0D0FE6168071C74
:100E7000281C0DF0E2FE011C301C0DF0C7FEA1681D
:100E8000061C281C0DF0D9FE011C48460DF0BEFEC4
:100E9000E1688146281C0DF0D0FE011C58460DF07B
:100EA000B5FE8346049B229A0133103404939A4280
:100EB000D1D1051C311C0A9E30680DF0A4FE391CEE
:100EC000099F041C38680DF09EFE291C0C9D38609B
:100ED000346028680DF097FE0B9E4946041C30686C
:100EE0000DF091FE1099019A8C46029B624401928A
:100EF0000E9A0433306002932C609A4200DD47E67C
:100F0000C3460F9A039B944663440E9A0293239B15
:100F10009246159D934200DC90E05B465C68534628
:100F20005C43089B2F009C465B461B6864449C46C0
:100F3000009BA4006444002B00DC99E00023039F85
:100F400099463B00A04600262F001C003968206807
:100F50000DF073FE311C0DF059FE061C79686068B7
:100F60000DF06BFE311C0DF051FE061CB968A06837
:100F70000DF063FE311C0DF049FE061CF968E068B7
:100F80000DF05BFE311C0DF041FE061C3969206935
:100F90000DF053FE311C0DF039FE061C79696069B5
:100FA0000DF04BFE311C0DF031FE061CB969A06935
:100FB0000DF043FE311C0DF029FE061CF969E069B5
:100FC0000DF03BFE311C0DF021FE061C20372034B5
:100FD00008239C46009BE1444B45B7DC44460F9BED
:100FE000EF18029B0193229A009B9A4217DD9946C3
:100FF0000023984643464246F958019B98580DF005
:101000001CFE011C301C0DF001FE061C01239C4639
:101010000333E1449C46229BE0444B45EAD12068DF
:10102000311C0DF0F0FD01239C46119BE2449C46CF
:10103000239B20606544534500D06EE71699039AC0
:101040008C46089B62440392149A013308939A4297
:1010500000D08FE519B0F0BCBB46B246A946A04609
:10106000F0BD0025039BA9469A462E1C2F1CECE6DA
:10107000039B00260193B6E7F0B557464E46DE4681
:1010800045468024E0B5B5B006AF3C1920609420F9
:101090007B63E823AE4E38180160BA63FB181C6806
:1010A0003378BFF35B8FDB0700D477E2A94D902242
:1010B0002369BA1813608422A368BA1813608022C7
:1010C000BA1812686D68934202DD8423FB181A6017
:1010D00094218423902279180E688C21FB18BA1869
:1010E00012681B6856435343226879180A60002A25
:1010F00000D180E29B003B660023BB6763687B678F
:10110000002B00D163E2B300FB6500233B6798220C
:101110000423BA1813609033FB181B68002B19DDE9
:101120008023E422FB18BA181B6812681900934246
:1011300000DA4AE2280009010CF0C8FA0323C217BA
:10114000134098221B189B109B00BA181360042BA5
:1011500000DA35E28023FB181968002900DCA9E1D8
:1011600090207B6B38181A000068796484464243EB
:10117000091A3A616244B9647A609821E4227918C4
:10118000BA18126809684A43BA619A007A6104324F
:10119000FA61A02201339B00BA181360E423FB1804
:1011A0001B689B009B460023FB63FB643B64BB66A0
:1011B0009C227B6CBA1813609022BA181268934272
:1011C00002DD9C23FB181A609423FB181B68002B7C
:1011D00000DC47E19C23FB181A68002A00DC41E18F
:1011E0009423E021FB181B687918BB6598230968D4
:1011F000FB188C461B68B86E53439B00BB607B6F2B
:101200001100FB6783006344FB6000238C46FB6690
:10121000FB620B00B021791839630321013B043ACA
:101220008B436044D31A38603B629822BA18BB6D76
:1012300012689A46934200DD9246FA68FB6E944625
:101240009B0063447B66FB6B88227B65FB6CBA1852
:101250003B659C23FB181B6813609C23FB181A68D2
:101260008823FB181B68D21ABA62A422BA1813602A
:10127000042B03DDA4220423BA1813608823FB186F
:101280003A681B68D21A7A62002B65DDA423BA6B18
:10129000FB189146A8221B68BA18013B98467B6D43
:1012A0009B0099447B6E1360AC220023BA18136034
:1012B000AC23AC22FB181B68BA18013313604346F9
:1012C000002B2CDDA8230025FB181C684B46266844
:1012D0005968301C0DF0B1FC011C60680DF093FCE6
:1012E00043466060012B16D04B46301C99680DF0C8
:1012F000A4FC011CA0680DF086FC4346A060022BF4
:1013000009D04B46301CD9680DF097FC011CE068F1
:101310000DF079FCE06001355C445545D6D10123E0
:101320005B429C46A133FB181B68E0449C46A82303
:10133000A822FB181B68BA1804331360AC23A4223C
:10134000FB18BA181B681268E1449342B0DB03E053
:10135000E0220320A43803208823A422FB18BA1813
:101360001B681268396B9D1A7B6EBE6A0B60E423A2
:10137000FB181B6891464B609C230196FB181B6869
:1013800088460093F86F5346FFF734F9002D37DD98
:1013900041467C6A386D4C440319B86B4A46844612
:1013A000786B9B004860A420381802608C203818A5
:1013B000006863440B602B0081463963FFF7C4F972
:1013C000E022FB6EBA181B1914689B00A0463C6B08
:1013D00043442360E423FB1819689C236160FB18D5
:1013E00004961B6849460393A423FB181A685346C6
:1013F0000292019300922B002000FA6FFFF77CFB12
:10140000882388227969FB188C461B68BA18043B2C
:10141000F96913603A6D62448C463A657A6E10320F
:101420007A667A6D62447A653A6A9A4200D014E725
:101430009822BA181268B96D9446FB6A8A1AB9697B
:1014400063448C46BA65B968FA6EFB6262448C46A6
:10145000FA66FA6F6244FA679422BA1812689A42DE
:1014600000DDE2E69022BA181268BB6E9446802234
:10147000BA1812686344BB6693421BDA8423FB18D4
:101480001B68002B38DC90233969FB188C467A6C7A
:101490001B68D21A7A643A6C62443A64BA6CD31A02
:1014A000BB647A68FB6C63449446FB64FB6B6344E7
:1014B000FB637DE68023FA6D9B029A4207D93A6F5F
:1014C000002A04D0531E1878101A0DF01FFD802337
:1014D0003A6E9B029A4207D9BA6F002A04D0531E73
:1014E0001878101A0DF012FDBD462FB0F0BCBB46A7
:1014F000B246A946A046F0BDBA6B3B6C92469B0033
:101500009A44B023FE18B13B9946BD6CBC6E84234F
:10151000FB181B68A8469D4200DD9846AC22A3003C
:10152000BA1813607A6B8C2072609C225344BA18EC
:10153000381831001268006833604346FFF704F939
:10154000E022AC23BA181268FB1894461B688C2161
:1015500063443360E423FB181B687918736000232D
:1015600004934B46039302939423FB181B683000AB
:1015700001939C23FB181B6800937A6F434609680C
:10158000FFF7BAFA8423FB181B689C46ED1A8023E8
:10159000FB181B686444A342B9DC74E7300010F008
:1015A00081F9364D002800D181E58023DB012B60D5
:1015B00080231B0330006B60AB6010F08FF976E581
:1015C00098220423BA181360C4E51100B2E5802301
:1015D000B200FA659B029A423AD813006A46163363
:1015E000DB08DB00D31A9D4627200F23684498436D
:1015F000386778678BE59A0080233A669B029A42A7
:101600000FD813006A461633DB08DB00D31A9D4659
:1016100027200F23684498437D33FB18B867186070
:101620006CE5100010300DF053FCB867002800D1B5
:1016300064E50F221023844602409B1ADBB29C44CF
:1016400061464A1E13708C23FB18B967196055E573
:10165000100010300DF03CFC3867002800D156E532
:101660000F221023844602409B1ADBB29C44614641
:101670004A1E39671370796749E5C046A4380320CC
:10168000F0B557464E46DE464546E0B5B7B006AF24
:10169000824684207B65F023CB4E38180160BA6304
:1016A000FB181C683378BFF35B8FDB0700D49DE227
:1016B000C64D23696D683B67A368BB67534501DD71
:1016C0005346BB67842179180E6880213A6FBB6F3F
:1016D00056435343226879180A60002A00D1B4E2C5
:1016E0009B003B650023FB666368BB66002B00D153
:1016F00097E2B300FB6400237B6688220423BA18B8
:1017000013608033FB181B68002B16DDEC23FB18DD
:101710001B6851469A4500DA7FE2280009010BF068
:10172000D5FF0323C217134088221B189B109B0070
:10173000BA181360042B00DA6AE25346002B00DC6F
:1017400032E27A6D386F1100434259430B00B9629F
:1017500051460C1A110062431B1A9B00BA647B604D
:101760000A000B0051464B43B96B53448C46E821A9
:101770009B006344FB637918830009685B423B600C
:1017800053468C469B006344EC21BB658823791843
:10179000FB1809681B687C674B4390213B619300F1
:1017A0005B4279180B60043BBB609B00FB60D3433A
:1017B00094229B00BA181360EC23A822FB181B6824
:1017C000BA189B001360544603008C22BA181360A9
:1017D000A34200DD14608423FB181B68002B00DC8F
:1017E00076E18C23FB181A68002A00DC70E1842360
:1017F000FB181B68B96D7B648823FB181B68534377
:101800009B00FB61BB6EFB659300CB1A3B62002320
:10181000B8213B667B63A31A7918FB621300396316
:101820000321013B043A8B43D31A7B61AC227B6CCE
:10183000BA1813608822BA181268934202DDAC23EA
:10184000FB181A603A6A3B6E94469B009C446246C1
:101850007A62BA6D944698226344BA181360FB6B9F
:101860003B648C23FB181B68FB679C22FB6FBA1838
:101870001360042B03DD9C220423BA181360FA6F53
:10188000FB6A94466344BB61002A00DCA0E09C2311
:10189000396CA0208A46FB181B6838185A1E9346DC
:1018A000BA685B42524402607A6D9B1A9B009A446C
:1018B0000423A4225B4299460023BA181360A02394
:1018C000FE20FB181B68800519680DF0A2F9B423EF
:1018D000FB181860A423FB181B685A46DB439B1AAD
:1018E0009822BA18126800269446B0229C009B00E9
:1018F0005B42BA1864441360B023FB181B684A4665
:101900009846A04443469958B423FB1818680DF034
:1019100094F943464A4698505B46051C002B22DD4D
:10192000534619680DF089F9011C20680DF06BF918
:101930005B462060012B16D05346281C59680DF0D9
:101940007CF9011C60680DF05EF95B466060022B5B
:1019500009D05346281C99680DF06FF9011CA06846
:101960000DF051F9A060A823FB181B6801369C46B6
:10197000AC23FB181B6864449E42BDD1A423A4225F
:10198000FB181B68BA1801331360012294215242DC
:10199000944679180968E3448C46A021A132BA180C
:1019A0001268791862440A600422524294469432C2
:1019B000BA181268E14494469C22BA181268E244AC
:1019C000934200DA7BE703E0E0220320A4380320FF
:1019D000E8219C2279180968BA188C46FB6F1268B6
:1019E000396B9C1ABB699D1A3B6E5B199B00634463
:1019F0000B60EC23FB181B684B608C230194FB18D5
:101A00001B680093AC23FB181B68F86DFEF7F2FD12
:101A1000002C30DD7A6DF96A13008C466B433D6B08
:101A2000B96B80206A609C2263448C463818066833
:101A30009B00BA181268634429002B603000230011
:101A40009046FEF781FEEC2228008C237D6ABA18AE
:101A500005601568FB18456004941D68AC22434678
:101A600003950293BA181268009301922300310083
:101A7000FA6DFFF741F898229821BA181268791880
:101A8000103A0A60F9683A6C8C46FB6F62443A641B
:101A90007A69043BFB679A4200D0E6E68822BA18CE
:101AA0001268796C94467B6B8A1AF96963448C4698
:101AB0007A643969FA6D7B6362448C46FA653A6EE2
:101AC00062443A668422BA1812689A4200DDADE692
:101AD0007B6F1C1E68DDBB6F002B00DCFEE7BA6B62
:101AE000BB6C93469B009B4400239946B833FE1879
:101AF000B93B9A4623004C4699467D6FBB6FA8467A
:101B00009D4200DD9846B422A300BA1813607A6D96
:101B1000802072608C225B44BA1838183100126839
:101B2000006833604346FEF70FFEE822B423BA187C
:101B30001268FB1894461B68802163443360EC23D1
:101B4000FB181B68791873600023049353460393B2
:101B500002938423FB181B68300001938C23FB182D
:101B60001B680093BA6E43460968FEF7C5FFBB6F5A
:101B70009C46ED1A7B6F6444A342BFDCBA6ABB6C1F
:101B800094467A6863449446BB643A68FB6B4C465F
:101B900063449446FB63BB6D3A6F6344BB657B6FE4
:101BA0009B1A7B67130010E68023FA6C9B029A4213
:101BB00007D97A6E002A04D0531E1878101A0DF037
:101BC000A5F980233A6D9B029A4207D9FA6E002A42
:101BD00004D0531E1878101A0DF098F9BD4631B094
:101BE000F0BCBB46B246A946A046F0BD30000FF09F
:101BF00059FE374D002800D15BE58023DB012B60C7
:101C000080231B0330006B60AB600FF067FE50E574
:101C100088220423BA1813608FE5EC23FB18196897
:101C20007BE58023B200FA649B029A423AD8130003
:101C30006A461633DB08DB00D31A9D4627200F23A4
:101C4000684498437866B86657E59A0080233A65F9
:101C50009B029A420FD813006A461633DB08DB005A
:101C6000D31A9D4627200F23684498437133FB18ED
:101C7000F866186038E5100010300DF029F9F866A4
:101C8000002800D130E50F221023844602409B1A21
:101C9000DBB29C4461464A1E13708023FB18F96630
:101CA000196021E5100010300DF012F97866002857
:101CB00000D122E50F221023844602409B1ADBB29A
:101CC0009C4461464A1E79661370B96615E5C046A4
:101CD000A438032030B587B00D4B02AD00951A68CB
:101CE000694602929A880400AA809B796A46AB7181
:101CF000072301930023D3732CF066FD0098A842BC
:101D000003D0029901310DF035F9200007B030BD44
:101D1000E0990410F0B5DE4657464E464546E0B51C
:101D20000E000168C7688946416805698A4681686E
:101D30008DB08B464169806907930690506813689F
:101D4000926805910A90291C30680B9209930895B6
:101D50000CF059FF0599039070680CF054FF069938
:101D6000051CB0680CF04FFF8026804636060798A9
:101D70000CF0E6FFB446039B009001916344180009
:101D800051460CF05AFF5946061C281C0CF055FF12
:101D9000011C301C0CF037FF391C061C4046049710
:101DA0000CF04BFF011C301C0CF02DFF0CF0C8FF99
:101DB0000022684B0BF001FF009A019B0BF0FDFE27
:101DC000060048460F000CF0BBFF02000B0030007D
:101DD0003900169C0BF0CAFE0BF0F4FF4946206058
:101DE00003980CF02AFF5946061C40460CF025FFCC
:101DF000011C301C0CF00AFF0499061C281C0CF076
:101E00001CFF011C301C0CF0FEFE0CF099FF0022A0
:101E1000504B0BF0D2FE009A019B0BF0CEFE060059
:101E200050460F000CF08CFF02000B003000390010
:101E30000BF09CFE0BF0C6FF49466060281C0CF0BE
:101E4000FCFE5146061C40460CF0F7FE011C301CFF
:101E50000CF0D9FE0499061C03980CF0EEFE011C50
:101E6000301C0CF0D3FE0CF06BFF0022394B0BF052
:101E7000A4FE009A019B0BF0A0FE060058460F003E
:101E80000CF05EFF02000B00300039000BF06EFE1C
:101E90000BF098FF4946A06040460CF0CEFE51463C
:101EA000061C281C0CF0C9FE011C301C0CF0AEFEF8
:101EB0005946051C03980CF0C0FE011C281C0CF0B0
:101EC000A2FE0CF03DFF0022224B0BF076FE009AA2
:101ED000019B0BF072FE060004980F000CF030FF1F
:101EE00002000B00300039000BF040FE0BF06AFFDF
:101EF000089B0999E060181C98460CF09EFE079D0F
:101F0000291C0CF09AFE011C40460CF07CFE059F3B
:101F10000A992061381C0CF090FE291C0CF08DFEF3
:101F2000011C381C0CF06FFE069E0B996061301C82
:101F30000CF083FE291C0CF080FE011C301C0CF000
:101F400062FEA06100200DB0F0BCBB46B246A946BF
:101F5000A046F0BD0000E03FF0B5DE4657464E46D5
:101F600045468A464168E0B58846C768816891B0B1
:101F7000066889464046391C141C04930CF05DFE2B
:101F80004946051C301C0CF058FE0A90011C281C08
:101F900009950CF038FE0CF0D3FE02000B000BF09C
:101FA000E5FD06900791201C02940CF0C9FE0B0081
:101FB000020004000D00069807990BF0FEFD0BF0DF
:101FC00001FF5246391C106048460CF036FE83462D
:101FD0004146301C0CF031FE5A460E90011C58460A
:101FE0000B920CF013FE0CF0ABFE02000B000BF09A
:101FF000BDFD02000B00200029000C920D930BF098
:10200000DCFD0BF0DFFE5446311C6060301C0CF030
:1020100014FE4146041C40460CF00FFE051C011C3A
:10202000201C0CF0F0FD4946089048460CF005FED7
:10203000391C8346381C0CF000FE59460190089864
:102040000CF0E1FD01990CF0E1FD02990F900CF00C
:10205000F4FD53464946986040460CF0EEFD391CAD
:102060008046301C0CF0E9FD81461A980CF068FEA1
:1020700006001B980F000CF063FE02900391291CD0
:10208000201C0CF0C3FD59460CF0BDFD01990CF06D
:10209000BAFD04990CF0D1FD0CF052FE04000D00C5
:1020A000404649460CF0B2FD0CF04AFE02000B001F
:1020B0000BF05CFD32003B000BF07FFD02000B00DB
:1020C000200029000BF052FD029A039B04000D0032
:1020D000069807990BF071FD02000B002000290003
:1020E0000BF044FD0BF06EFE5346D86004980CF0E4
:1020F00027FE04000D00404649460CF084FD0CF01C
:102100001FFE02000B000BF031FD22002B00049497
:1021100005950BF052FD04000D00089859460CF08F
:1021200075FD01990CF06FFD1A990CF086FD0CF00D
:1021300007FE02000B00200029000BF017FD029A99
:10214000039B04000D000C980D990BF036FD020066
:102150000B00200029000BF009FD0BF033FE534665
:102160000A99186109980CF051FD0CF0E9FD020084
:102170000B000BF0FBFC049A059B0BF01EFD04000A
:102180000D000B980E990CF03EFD0CF0D9FD0200ED
:102190000B000BF0EBFC32003B000BF00EFD0200DD
:1021A0000B00200029000BF0E1FC04000D000F984B
:1021B0001B990CF042FD0CF0C3FD02000B00200047
:1021C00029000BF0D3FC0BF0FDFD534658610020B5
:1021D00011B0F0BCBB46B246A946A046F0BDC04611
:1021E000F0B50400DE4657464E4645460800E0B5C9
:1021F00045680968AA46856895B0AB46C5684669D2
:10220000876910910E950169556810689268049667
:1022100090461A68069711925A689B681292139317
:10222000FE239B05236099460CF0EDFC0CF088FD25
:10223000009001911E980CF083FD06000F0000989D
:1022400001990022924B0BF0B8FC32003B000BF0DE
:10225000B4FC0BF0B7FD04990390E061281C0CF06E
:10226000D2FC0CF06DFD0022894B049005910BF01F
:10227000A4FC32003B000BF0A0FC0BF0A3FD069980
:10228000051CA06340460CF0BEFC0CF059FD00227A
:102290007F4B069007910BF090FC32003B000BF057
:1022A0008CFC0BF08FFD0A90606550460CF048FDE9
:1022B0000022784B089009910BF07FFC32003B0024
:1022C0000BF07BFC0BF07EFD0B90206758460CF06A
:1022D00037FD00226F4B0C900D910BF06EFC32001D
:1022E0003B000BF06AFC0BF06DFD8C238246E05046
:1022F0000E980CF025FD0022664B0E900F910BF00E
:102300005CFC32003B000BF058FC0BF05BFDA8239B
:102310008346E0500022009801995E4B0BF04DFC83
:1023200032003B000BF049FC0BF04CFD494600909D
:1023300060602162002206980799564B0BF03DFC25
:1023400032003B000BF039FC0BF03CFDA5658046EC
:10235000E06310980CF0F4FC00224D4B0BF02DFCC8
:1023600032003B000BF029FC0BF02CFD594690236A
:10237000051C60670022E1500C980D99444B0BF04E
:102380001CFC32003B000BF018FC0BF01BFDAC23D7
:102390000022E050049805993E4B0BF00EFC3200F1
:1023A0003B000BF00AFC0BF00DFD49460A9A8346F0
:1023B0006262009AA0602164E2650E980F99002283
:1023C000334B0BF0FAFB32003B000BF0F6FB0BF04B
:1023D000F9FC94230B99A067E5501C33E15041466A
:1023E000E1605946A162494621665146039BE16777
:1023F0006364089809990022254B0BF0DEFB32003C
:102400003B000BF0DAFB0BF0DDFC9823E0501C33B3
:10241000E55000251E9911982561E562A564656661
:102420000CF00BFC011C48460CF0EDFB8023E05047
:102430001C33E5501C33E550343B1E9912986561FE
:102440002563E564A566E5500CF0F7FB011C4846E2
:102450000CF0D9FBA023E0501C33E550343BA561C0
:1024600065632565E566E5501C33E5501E991398B4
:102470000CF0E3FB011C48460CF0C5FBC023E05008
:10248000002015B0F0BCBB46B246A946A046F0BD40
:102490000000E0BF0000E03FF0B5DE4657464E4684
:1024A0004546E0B59A460B68141C8A689B464B6803
:1024B000C9688BB00500101C8846009301920CF08F
:1024C0003FFC02900391201C0CF03AFCC023060054
:1024D0000F000298039900221B060BF06EFB3200DE
:1024E0003B000BF06AFB0BF06DFC08902860404647
:1024F0000CF026FC02000B000BF038FB32003B0016
:102500000BF05BFB0BF05EFC041CA86158460CF062
:1025100017FCC02300221B06049005910BF04DFB15
:1025200032003B000BF049FB0BF04CFC2863009899
:102530000CF006FC02000B00069007910BF016FB56
:1025400032003B000BF039FB0BF03CFC00219023E8
:102550008946A8642966A967E950686004980599C6
:1025600002000B000BF002FB32003B000BF025FBDE
:102570000BF028FC6C630490E86102980399020058
:102580000B000BF0F3FA32003B000BF016FB0BF0E4
:1025900019FC49469423E8646966E967E950C02359
:1025A00006980799049A1B06AA6000220BF005FB07
:1025B00032003B000BF001FB0BF004FC089B49468A
:1025C000AB63802328622C65A966E9501833E95073
:1025D000404614990CF031FB019F1599061C381CDC
:1025E0000CF02BFB5146041C58460CF026FB311C0A
:1025F0000CF00CFB211C06940CF005FB011C0CF0EC
:1026000005FB51460990E86000980CF016FB149900
:10261000041C381C0CF011FB011C201C0CF0F6FAF9
:102620001599041C40460CF008FB011C201C0CF002
:10263000EDFA011C0CF0EAFA149902906862009815
:102640000CF0FBFA1599089058460CF0F6FA019A2E
:102650008024944624066444071C514620000CF054
:10266000ECFA08990CF0D2FA391C0CF0CCFA011CE7
:102670000CF0CCFA1499E86358460CF0DEFA159980
:10268000049000980CF0D9FA802212064244041CEF
:10269000514610000CF0D1FA04990CF0B7FA211C45
:1026A0000CF0B4FA011C0CF0B1FA4A468423EA6635
:1026B0006865EA501833EA505146286101980CF0D9
:1026C000BCFA08990CF09FFA391C0CF09FFA011C17
:1026D0000CF09CFA071CA8628020029B00062B6469
:1026E000514658440CF0A9FA311C0CF08CFA0699AA
:1026F0000CF08CFA011C0CF089FA8823A865484676
:102700002867E8501833E850514640466F610CF096
:1027100094FA04990CF077FA211C0CF074FA011C5D
:102720000CF074FA099AE8626A64029B4A46EB6507
:102730004B466B678C230020EA501833EA500BB0ED
:10274000F0BCBB46B246A946A046F0BD0123F0B599
:10275000E3214746CE469C46294B804605009946D4
:10276000284E80B58900076846444144FA0F6F68D7
:10277000D2077B005B08346813435A086240644602
:102780001C4201D04B465A4004C50436A942EDD143
:10279000E32342469B00C626D458194B01259C468C
:1027A000F6004644E20F4C68D20763005B080768F6
:1027B00013435A087A401D4201D063465A40043000
:1027C00004C1B042EED14246C62140460E4BC9007C
:1027D000D3581268DB0F52005208DB0741581343ED
:1027E0005A084A40DB0701D5054B5A404146064B83
:1027F000CA5000220433CA50C0BCB946B046F0BD2E
:10280000DFB0089934060000BC090000F0B5454669
:10281000DE4657464E46E0B53C4CD723A54434AA85
:10282000944663441B091B018A6805930B68019257
:1028300037921A6804902D929A6933912E921A6BEE
:1028400038AC2F929A6C30921A6E06929A6F089258
:1028500090229A5807925A680A92DA690B925A6B38
:102860000C92DA6C0D925A6E0E92DA6F0F929422DD
:102870009A5810929A6811921A6A12929A6B13924D
:102880001A6D14929A6E159280229A581692982276
:102890009A581792DA6818925A6A1992DA6B1A9251
:1028A0005A6D1B92DA6E1C9284229A581D929C22B9
:1028B0009A581E921A691F929A6A20921A6C219253
:1028C0009A6D22921A6F239288229A582492A022FB
:1028D0009A5825925A692692DA6A27925A6C289257
:1028E000DA6D29925A6F2A928C229A582B92A4223E
:1028F0009B582C934B68984638AB3293C42343447F
:1029000009934346A0461C0002E0C0469CFDFFFF21
:10291000E168A26889462169236848460391309995
:10292000029201930CF089F90399824606980CF003
:1029300084F9011C50460CF069F967698246391C1C
:1029400008980CF07AF9A6698346311C07980CF0B8
:1029500074F9011C58460CF059F9011C50460CF052
:1029600055F9656882462E99281C0CF066F92F9956
:10297000834602980CF061F9011C58460CF046F9A8
:102980002D99834601980CF058F9011C58460CF01B
:102990003DF9011C50460CF039F943464946186090
:1029A0000D980CF04AF9039982460E980CF045F9FF
:1029B000011C50460CF02AF9391C82460F980CF085
:1029C0003CF9311C834610980CF037F9011C58462D
:1029D0000CF01CF9011C50460CF018F9291C824619
:1029E0000B980CF02AF9029983460C980CF025F903
:1029F000011C58460CF00AF9019983460A980CF01C
:102A00001CF9011C58460CF001F9011C50460CF051
:102A1000FDF843464946586014980CF00EF90399A6
:102A2000824615980CF009F9011C50460CF0EEF89E
:102A3000391C824616980CF000F9311C8346179811
:102A40000CF0FBF8011C58460CF0E0F8011C504655
:102A50000CF0DCF8291C824612980CF0EEF8029972
:102A6000834613980CF0E9F8011C58460CF0CEF898
:102A70000199834611980CF0E0F8011C58460CF0BF
:102A8000C5F8011C50460CF0C1F843464946986011
:102A90001B980CF0D2F8039982461C980CF0CDF8E4
:102AA000011C50460CF0B2F8391C82461D980CF0FF
:102AB000C4F8311C83461E980CF0BFF8011C584620
:102AC0000CF0A4F8011C50460CF0A0F8291C82461A
:102AD00019980CF0B2F8029983461A980CF0ADF8E8
:102AE000011C58460CF092F80199834618980CF096
:102AF000A4F8011C58460CF089F8011C50460CF053
:102B000085F843464946D86022980CF096F8039918
:102B1000824623980CF091F8011C50460CF076F890
:102B2000391C824624980CF088F8311C834625987D
:102B30000CF083F8011C58460CF068F8011C504654
:102B40000CF064F8291C824620980CF076F8029963
:102B5000834621980CF071F8011C58460CF056F889
:102B6000019983461F980CF068F8011C58460CF038
:102B70004DF8011C50460CF049F84346494618618F
:102B800029980CF05AF8039981462A980CF055F8C8
:102B9000011C48460CF03AF8391C81462B980CF081
:102BA0004CF8311C071C2C980CF047F8011C381C01
:102BB0000CF02CF8011C48460CF028F8291C061CC7
:102BC00027980CF03AF80299051C28980CF035F873
:102BD000011C281C0CF01AF80199051C26980CF011
:102BE0002CF8011C281C0CF011F8011C301C0CF0F6
:102BF0000DF84346586118239C46099B1C34E04459
:102C0000A34200D084E6379B1A68629308929A69BF
:102C100009921A6B0A929A6C0B921A6E0C929A6F26
:102C20000D9290229A580E925A680F92DA69109279
:102C30005A6B1192DA6C12925A6E1392DA6F1492E6
:102C400094229A5815929A6816921A6A17929A6B59
:102C500018921A6D19929A6E1A9280229A581B92A3
:102C600098229A581C92DA681D925A6A1E92DA6B60
:102C70001F925A6D2092DA6E219284229A582292E3
:102C80009C229A5823921A6924929A6A25921A6C65
:102C900026929A6D059C27921A6F203428928822DA
:102CA0009A58A1462992A0229A582A925A692B92A0
:102CB000DA6A2C925A6C2D92DA6D2E925A6F2F92FC
:102CC0008C229A583092A4229B5831935CAB069385
:102CD0003EAB0793329B98464346424641464046A8
:102CE0001B6895690193069B146B096E926C40CB2F
:102CF000876F0291101C0B99039206930BF09DFFB6
:102D00000C99824602980BF098FF011C50460BF07C
:102D10007DFF0D998246381C0BF08FFF0E9983467C
:102D2000301C0BF08AFF011C58460BF06FFF011C92
:102D300050460BF06BFF09998246281C0BF07DFF73
:102D40000A998346201C0BF078FF011C58460BF0B3
:102D50005DFF0899834601980BF06FFF011C5846F0
:102D60000BF054FF011C50460BF050FF4B461299DC
:102D7000186003980BF061FF1399824602980BF0DC
:102D80005CFF011C50460BF041FF14998246381C31
:102D90000BF053FF15998346301C0BF04EFF011CBE
:102DA00058460BF033FF011C50460BF02FFF1099D3
:102DB0008246281C0BF041FF11998346201C0BF022
:102DC0003CFF011C58460BF021FF0F9983460198E8
:102DD0000BF033FF011C58460BF018FF011C504646
:102DE0000BF014FF4B461999586003980BF025FF20
:102DF0001A99824602980BF020FF011C50460BF0F6
:102E000005FF1B998246381C0BF017FF1C9983465F
:102E1000301C0BF012FF011C58460BF0F7FE011C92
:102E200050460BF0F3FE17998246281C0BF005FF65
:102E300018998346201C0BF000FF011C58460BF02C
:102E4000E5FE1699834601980BF0F7FE011C5846E3
:102E50000BF0DCFE011C50460BF0D8FE4B462099CF
:102E6000986003980BF0E9FE2199824602980BF0D6
:102E7000E4FE011C50460BF0C9FE22998246381C24
:102E80000BF0DBFE23998346301C0BF0D6FE011CB1
:102E900058460BF0BBFE011C50460BF0B7FE1E99C6
:102EA0008246281C0BF0C9FE1F998346201C0BF09C
:102EB000C4FE011C58460BF0A9FE1D9983460198DB
:102EC0000BF0BBFE011C58460BF0A0FE011C504647
:102ED0000BF09CFE4B462799D86003980BF0ADFE93
:102EE0002899824602980BF0A8FE011C50460BF070
:102EF0008DFE29998246381C0BF09FFE2A99834645
:102F0000301C0BF09AFE011C58460BF07FFE011C92
:102F100050460BF07BFE25998246281C0BF08DFE57
:102F200026998346201C0BF088FE011C58460BF0A6
:102F30006DFE2499834601980BF07FFE011C5846D4
:102F40000BF064FE011C50460BF060FE4B462E99C0
:102F5000186103980BF071FE2F99824602980BF0CE
:102F60006CFE011C50460BF051FE30998246381C15
:102F70000BF063FE3199071C301C0BF05EFE011C48
:102F8000381C0BF043FE011C50460BF03FFE2C9901
:102F9000061C281C0BF051FE2D99051C201C0BF063
:102FA0004CFE011C281C0BF031FE2B99041C0198CF
:102FB0000BF043FE011C201C0BF028FE011C301CF2
:102FC0000BF024FE4B46586104239C461433E04426
:102FD0009C46079BE144434500D07DE6339B059D1D
:102FE000DC68296A20680BF011FE049EA96B306032
:102FF00060680BF00BFE7060A068296D0BF006FE98
:10300000B060E068A96E0BF001FE8023F0602069DB
:10301000E95898460BF0FAFD98233061E958606949
:103020000BF0F4FD7061A069696A0BF0EFFDB0610F
:10303000E069E96B0BF0EAFDF061206A696D0BF065
:10304000E5FD3062E96E606A0BF0E0FD8427706296
:10305000A06AE9590BF0DAFD9C23B062E958E06AF6
:103060000BF0D4FDF062206BA96A0BF0CFFD30634A
:10307000606B296C0BF0CAFD7063A06BA96D0BF03F
:10308000C5FDB063E06B296F0BF0C0FDF0638826CF
:10309000206CA9590BF0BAFD049B1864A023606C46
:1030A000E9580BF0B3FD049BE96A5864A06C0BF07F
:1030B000ADFD049B696C9864E06C0BF0A7FD049B6C
:1030C000E96DD864206D0BF0A1FD049B696F186554
:1030D000606D0BF09BFD8C25049A059B5065A06DDF
:1030E00059590BF093FDA423049A9065059AE06D5D
:1030F000D1580BF08BFD049B059AD865116B206E9F
:103100000BF084FD049B059A1866916C606E0BF0C1
:103110007DFD049B059A5866A06E116E0BF076FD3E
:10312000049B059A9866E06E916F0BF06FFD049B0F
:10313000059AD8669023206FD1580BF067FD049B49
:10314000059A1867A823606FD1580BF05FFD049BA8
:10315000059A5867A16F506B0BF058FD049B059AB8
:103160009867E16FD06C0BF051FD4146049B059AC6
:10317000D8676158506E0BF049FD4146049B059A93
:103180005850E159D06F0BF041FD049BD851942366
:10319000059FA159F8580BF039FD049B9851AC23B9
:1031A0006159F8580BF032FD049B585199239B004C
:1031B0009D44F0BCBB46B246A946A046F0BDC04601
:1031C000F0B5DE4657464E4645460400E0B5436836
:1031D00087B05800A3684008590049080BF016FD55
:1031E0002368590049080BF011FD2369051C58009C
:1031F00063694008590049080BF008FDE36859006D
:1032000049080BF003FD011C281C0BF0FFFCE369CF
:10321000051C5800236A4008590049080BF0F6FCC9
:10322000A369590049080BF0F1FCA36A061C580079
:10323000E36A4008590049080BF0E8FC636A59004A
:1032400049080BF0E3FC011C301C0BF0DFFC636B46
:10325000071C5800A36B4008590049080BF0D6FC26
:10326000236B590049080BF0D1FC236C061C580055
:10327000636C4008590049080BF0C8FCE36B590027
:1032800049080BF0C3FC011C301C0BF0BFFC061CF2
:10329000011C381C0BF008FD002800D13E1C311C1D
:1032A000281C0BF001FD002800D12E1CE36C5800F7
:1032B000236D4008590049080BF0A8FCA36C590085
:1032C00049080BF0A3FCA36D051C5800E36D4008F2
:1032D000590049080BF09AFC636D590049080BF03E
:1032E00095FC011C281C0BF091FC636E071C580018
:1032F000A36E4008590049080BF088FC236E590062
:1033000049080BF083FC236F051C5800636F4008CD
:10331000590049080BF07AFCE36E590049080BF09C
:1033200075FC011C281C0BF071FCE36F80465800F3
:103330008023E1584008490049080BF067FCA36F5F
:10334000590049080BF062FC8823051CE05804333F
:10335000E15840004900490840080BF057FC84231D
:10336000E158490049080BF051FC011C281C0BF0E6
:103370004DFC051C011C40460BF096FC002800D1BA
:103380004546291C381C0BF08FFC002800D13D1C41
:10339000291C301C0BF088FC002800D1351CC023F0
:1033A0002100E55001AABA3B02A8A8310493029477
:1033B000FDF7F4F90121C422019B98260B405B42E2
:1033C0008B430133A354343A9246002250469C2743
:1033D00022509432A1509346923AA2510132E251C6
:1033E0009D32944660469C3A2250A03291469F3AC4
:1033F00090464A4640462300A05048461832A258FC
:10340000903392009A181568255040461060604627
:10341000B8222058A2588046604692009A18156833
:10342000255040461060B422E059A25884469200CC
:103430009A1810685D46E05160461060B022A258AC
:10344000A75992009A181068A0511760AC225846EC
:10345000A258265892009A18106860511660A82247
:10346000A258554692009B1852461868A2586051BF
:103470001A60C523E15407B0F0BCBB46B246A9466A
:10348000A046F0BDC023002210B5C2500022043374
:10349000C2520B68040003604B6843608B68836012
:1034A000CB68C3600B6903614B6943618B698361BE
:1034B000CB69C3610B6A03624B6A43628B6A8362A6
:1034C000CB6AC3620B6B03634B6B43638B6B83638E
:1034D000CB6BC3630B6C03644B6C43648B6C836476
:1034E000CB6CC3640B6D03654B6D43658B6D83655E
:1034F000CB6DC3650B6E03664B6E43668B6E836646
:10350000CB6EC3660B6F03674B6F43678B6F83672D
:10351000CB6FC3678023CA58C2500433CA58C25005
:103520000433CA58C2500433CA58C250FFF748FE89
:10353000200010BDF0B5DE464E4645465746E0B584
:10354000214C9146A5443AAA94460A0031931F4B58
:103550003B9063441B091B013A919846D3AB13CAB5
:1035600013C313CA13C31268D3A91A60184B194A9C
:103570001B6847A80493184B47AC1B680193174B73
:103580001B6805930093049BFEF786FF47ABD3931C
:103590004B46D49347ABD5933AAA832394468620CF
:1035A0001B0163441B68C0004044A2AAD3A9D69360
:1035B0000990FFF72BF96BAB089343460A934B46F0
:1035C0003094A1461C000BE014F7FFFF47030000F6
:1035D000742003200AE81C416C2003207020032083
:1035E0004B464E461B68B76F0793089B494640CB36
:1035F00048464A460893A823896C006E9569126B69
:1036000005910690E158301C04920BF016FB8C23B8
:103610008246E158381C0BF010FB011C50460BF0A1
:10362000F5FA216F824606980BF007FB616D834621
:1036300005980BF002FB011C58460BF0E7FA011C41
:1036400050460BF0E3FAA16B824604980BF0F5FAB2
:10365000E1698346281C0BF0F0FA011C58460BF078
:10366000D5FA2168834607980BF0E7FA011C584603
:103670000BF0CCFA011C50460BF0C8FA4346186018
:10368000AC23301CE1580BF0D8FA90238246E15865
:10369000381C0BF0D2FA011C50460BF0B7FA616FE0
:1036A000824606980BF0C9FAA16D834605980BF087
:1036B000C4FA011C58460BF0A9FA011C50460BF045
:1036C000A5FAE16B824604980BF0B7FA216A8346AB
:1036D000281C0BF0B2FA011C58460BF097FA6168EF
:1036E000834607980BF0A9FA011C58460BF08EFA96
:1036F000011C50460BF08AFA43465860B023301C38
:10370000E1580BF09AFA94238246E158381C0BF0EA
:1037100094FA011C50460BF079FAA16F8246069884
:103720000BF08BFAE16D834605980BF086FA011CCD
:1037300058460BF06BFA011C50460BF067FA216CEF
:10374000824604980BF079FA616A8346281C0BF0D4
:1037500074FA011C58460BF059FAA1688346079881
:103760000BF06BFA011C58460BF050FA011C504646
:103770000BF04CFA43469860B423301CE1580BF030
:103780005CFA98238246E158381C0BF056FA011C6B
:1037900050460BF03BFAE16F824606980BF04DFA6B
:1037A000216E834605980BF048FA011C58460BF031
:1037B0002DFA011C50460BF029FA616C82460498E0
:1037C0000BF03BFAA16A8346281C0BF036FA011C69
:1037D00058460BF01BFAE168834607980BF02DFA68
:1037E000011C58460BF012FA011C50460BF00EFA61
:1037F0004346D860B823301CE1580BF01EFA9C23D6
:103800008246E158381C0BF018FA011C50460BF0A8
:10381000FDF980238246E15806980BF00EFA616E9E
:10382000834605980BF009FA011C58460BF0EEF997
:10383000011C50460BF0EAF9A16C824604980BF08B
:10384000FCF9E16A8346281C0BF0F7F9011C584685
:103850000BF0DCF92169834607980BF0EEF9011CA7
:1038600058460BF0D3F9011C50460BF0CFF94346F4
:103870001861BC23301CE1580BF0DFF9A02382460D
:10388000E158381C0BF0D9F9011C50460BF0BEF979
:1038900084238246E15806980BF0CFF9A16E834647
:1038A00005980BF0CAF9011C58460BF0AFF9011C42
:1038B00050460BF0ABF9E16C824604980BF0BDF971
:1038C000216B8346281C0BF0B8F9011C58460BF0FD
:1038D0009DF96169834607980BF0AFF9011C5846C2
:1038E0000BF094F9011C50460BF090F94346E16E41
:1038F000586105980BF0A1F988238246E158069893
:103900000BF09BF9011C50460BF080F9A423824672
:10391000E158381C0BF091F9C023071CE158301C0A
:103920000BF08BF9011C381C0BF070F9011C504690
:103930000BF06CF9616B061C281C0BF07EF9216DF5
:10394000051C04980BF079F9011C281C0BF05EF99A
:10395000A169051C07980BF070F9011C281C0BF0DD
:1039600055F9011C301C0BF051F9434698610423B2
:103970009C461833E1449C464DABE044994500D049
:103980002EE60A9BA146D8249846A427A4004444C6
:10399000BF00474420000999FFF774FD21009022E1
:1039A0003800C8240BF0D0FAFC21A400444489005C
:1039B0004144182220000BF0C7FACE20812180005C
:1039C000C9004144182240440BF0BEFA8422D4239B
:1039D000D200424412689B0043441A60D523874AB0
:1039E0004546424412889B004344FE211A8000232E
:1039F0002268B0359200AA1889051160936113639B
:103A0000936413669367C922920042441268444645
:103A10009200AA181360916113639364136693670D
:103A2000CA2292004244126806269200AA18136025
:103A300093611163936413669367CB2292004244AF
:103A4000126806209200AA181360936113639164B0
:103A500013669367CC229200424412689200AA181F
:103A6000136093611363936411669367CD22920090
:103A7000424412689200AA1813609361136393641E
:103A80001366A8235B009B46916742465946E4189B
:103A900020334344A660E6602661535080229200A2
:103AA00042444B396260924604933A0006230294E2
:103AB000FF3901960095FDF7DFFA42465946049B0F
:103AC000A660E6602661535053464B3963603A0066
:103AD00006230294062001960095FF39FDF7D0FDDC
:103AE00043461B688C2206934346DB69D3AC07939D
:103AF00043469B6B089343465B6D099343461B6F9C
:103B00000A9343469B5804320B9343465B680C93DD
:103B100043461B6A0D934346DB6B0E9343469B6DF6
:103B20000F9343465B6F109343469B5804321193A7
:103B300043469B68129343465B6A139343461B6C50
:103B400014934346DB6D159343469B6F1693434690
:103B50009B58043217934346DB68189343469B6A8D
:103B6000199343465B6C1A9343461B6E1B93434663
:103B7000DB6F1C9343469B58183A1D9343461B69C1
:103B80001E934346DB6A1F9343469B6C2093434638
:103B90005B6E219343469B581C32229343469B58AD
:103BA000183A239343465B69249343461B6B259342
:103BB0004346DB6C269343469B6E279343469B58B4
:103BC0001C32289343469B58183A299343469B69D5
:103BD0002A9343465B6B2B9343461B6D2C934346C2
:103BE000DB6E2D9343469B581C322E9343469B58C5
:103BF000A8462F934B46329302E0C04624040000AF
:103C000043461F685B6842469946434641469B6867
:103C1000D2680E694D6907984946049305920BF0E6
:103C20000CF80499824608980BF007F8011C5046DE
:103C30000AF0ECFF391C824606980AF0FEFF011CD0
:103C400050460AF0E3FF311C82460A980AF0F5FF5D
:103C5000291C83460B980AF0F0FF011C58460AF015
:103C6000D5FF0599834609980AF0E7FF011C5846DD
:103C70000AF0CCFF011C50460AF0C8FF49462060FC
:103C80000D980AF0DAFF049982460E980AF0D5FFE3
:103C9000011C50460AF0BAFF391C82460C980AF003
:103CA000CCFF011C50460AF0B1FF311C824610982F
:103CB0000AF0C3FF291C834611980AF0BEFF011CBD
:103CC00058460AF0A3FF059983460F980AF0B5FFFE
:103CD000011C58460AF09AFF011C50460AF096FF54
:103CE0004946606013980AF0A8FF04998246149828
:103CF0000AF0A3FF011C50460AF088FF391C8246D7
:103D000012980AF09AFF011C50460AF07FFF311CFE
:103D1000824616980AF091FF291C834617980AF0EC
:103D20008CFF011C58460AF071FF059983461598CF
:103D30000AF083FF011C58460AF068FF011C504638
:103D40000AF064FF4946A06019980AF076FF0499CA
:103D500082461A980AF071FF011C50460AF056FF7D
:103D6000391C824618980AF068FF011C50460AF078
:103D70004DFF311C82461C980AF05FFF291C8346C8
:103D80001D980AF05AFF011C58460AF03FFF05999A
:103D900083461B980AF051FF011C58460AF036FF73
:103DA000011C50460AF032FF4946E0601F980AF0B5
:103DB00044FF0499824620980AF03FFF011C5046B8
:103DC0000AF024FF391C82461E980AF036FF011CB7
:103DD00050460AF01BFF311C824622980AF02DFF44
:103DE000291C834623980AF028FF011C58460AF034
:103DF0000DFF0599834621980AF01FFF011C5846C4
:103E00000AF004FF011C50460AF000FF49462061F9
:103E100025980AF012FF0499824626980AF00DFFB1
:103E2000011C50460AF0F2FE391C824624980AF022
:103E300004FF011C50460AF0E9FE311C8246289816
:103E40000AF0FBFE291C834629980AF0F6FE011CA5
:103E500058460AF0DBFE0599834627980AF0EDFEE6
:103E6000011C58460AF0D2FE011C50460AF0CEFE54
:103E7000494660612B980AF0E0FE049981462C982F
:103E80000AF0DBFE011C48460AF0C0FE391C8146E0
:103E90002A980AF0D2FE011C48460AF0B7FE311CEF
:103EA000071C2E980AF0C9FE291C061C2F980AF040
:103EB000C4FE011C301C0AF0A9FE0599051C2D98B2
:103EC0000AF0BBFE011C281C0AF0A0FE011C381CD5
:103ED0000AF09CFE18239C46A061FDAB1C34E04414
:103EE000A34200D08CE6329BD49A9946D39BD599B5
:103EF000D69CD79DD89ED99F06930792DA9BDB9AD2
:103F000008910994DC99DD9C0A950B96DE9DDF9E55
:103F10000C970D93E09FE19B0E92E29A0F91109403
:103F200011951296139714931592E399E49CE59DCD
:103F3000E69EE79FE89BE99A16911794EA99EB9C15
:103F400018951996EC9DED9E1A971B93EE9FEF9B8B
:103F50001C921D91F09AF1991E94F29C2096219743
:103F600022932392249125941F95F39DF49EF59F0F
:103F7000F79AF69BF899F99C26952796FA9DFB9E51
:103F80002897FC9F2A923A9A29932B912C942D954D
:103F90002E962F97D3AB32CA32C332CA32C31168BE
:103FA000D3AC1960FD49FE4B09681B680191FD49BE
:103FB000FD4A09682000009141A9FDF7CDFF319F1E
:103FC000419938680AF01FFE4299834678680AF0E2
:103FD0001AFE43998246B8680AF015FE4499041CFB
:103FE000F8680AF010FE4599051C38690AF00BFEC6
:103FF0004699061C78690AF006FE071C011C2A98DF
:104000000AF01BFE311C804623980AF016FE011CA4
:1040100040460AF0FBFD291C80461C980AF00DFE64
:10402000011C40460AF0F2FD211C804615980AF05A
:1040300004FE514604900E980AF0FFFD011C0498FE
:104040000AF0E4FD5946049007980AF0F6FD011CB9
:1040500004980AF0DBFD011C40460AF0D7FD3A9AAD
:1040600051680AF0D3FD391C04902B980AF0E5FD45
:10407000311C804624980AF0E0FD011C40460AF0FD
:10408000C5FD291C80461D980AF0D7FD011C40463D
:104090000AF0BCFD211C804616980AF0CEFD514660
:1040A00005900F980AF0C9FD011C05980AF0AEFDB5
:1040B0005946059008980AF0C0FD011C05980AF0C1
:1040C000A5FD011C40460AF0A1FD3A9A91680AF04C
:1040D0009DFD391C05902C980AF0AFFD311C8046DF
:1040E00025980AF0AAFD011C40460AF08FFD291C04
:1040F00080461E980AF0A1FD011C40460AF086FD8C
:10410000211C804617980AF098FD5146319010986E
:104110000AF093FD011C31980AF078FD5946319060
:1041200009980AF08AFD011C31980AF06FFD011C04
:1041300040460AF06BFD3A9AD1680AF067FD391CD7
:1041400031902D980AF079FD311C804626980AF0AE
:1041500074FD011C40460AF059FD291C80461F9839
:104160000AF06BFD011C40460AF050FD211C804600
:1041700018980AF062FD5146329011980AF05DFDE0
:10418000011C32980AF042FD594632900A980AF012
:1041900054FD011C32980AF039FD011C40460AF01A
:1041A00035FD3A9A11690AF031FD391C32902E988A
:1041B0000AF043FD311C804627980AF03EFD011CA1
:1041C00040460AF023FD291C804620980AF035FD60
:1041D000011C40460AF01AFD211C804619980AF07D
:1041E0002CFD5146339012980AF027FD011C33989C
:1041F0000AF00CFD594633900B980AF01EFD011C85
:1042000033980AF003FD011C40460AF0FFFC3A9A7D
:1042100051690AF0FBFC5146339013980AF00DFDEA
:10422000211C80461A980AF008FD011C40460AF03D
:10423000EDFC594680460C980AF0FFFC011C4046F4
:104240000AF0E4FC311C804628980AF0F6FC391C80
:1042500034902F980AF0F1FC011C34980AF0D6FC37
:10426000291C349021980AF0E8FC011C34980AF0CB
:10427000CDFC011C40460AF0C9FC3A9A91690AF04B
:10428000C5FC391C804629980AF0D7FC311C071C54
:1042900022980AF0D2FC011C381C0AF0B7FC291C39
:1042A000061C1B980AF0C9FC011C301C0AF0AEFC6D
:1042B000211C051C14980AF0C0FC5146041C0D98E2
:1042C0000AF0BBFC011C201C0AF0A0FC5946041C8F
:1042D00006980AF0B2FC011C201C0AF097FC011C95
:1042E000281C0AF093FC3A9AD3AC11680AF08EFCB1
:1042F0003B9B049A18605A60059A9A60319ADA607A
:10430000329A1A61339A5A6142469A614B461B6847
:104310004A46A2934B465B68A3934B469B68A49383
:104320004B46DB68A5934B461B69A6934B465B69DE
:10433000A7934B469B69A8934B46DB69A9934B46D1
:104340001B6AAA934B465B6AAB934B469B6AAC9342
:104350004B46DB6AAD934B461B6BAE934B465B6B98
:10436000AF934B469B6BB0934B46DB6BB1934B4685
:104370001B6CB2934B465B6CB3934B469B6CB493F4
:104380004B46DB6CB5934B461B6DB6934B465B6D52
:10439000B7934B469B6DB8934B4607E06C200320C8
:1043A00074200320702003200AE81C41DB6DB993C0
:1043B0004B461B6EBA934B465B6EBB934B469B6E54
:1043C000BC934B46DB6EBD934B461B6FBE934B4677
:1043D0005B6FBF934B469B6FC0934B46DB6FC193A4
:1043E0008023D358C2938423D358C3938823D358AC
:1043F000C4938C23D358C5939023D358C693942346
:10440000D358C7939823D358C8939C23D358C993A0
:10441000A023D358CA93A423D358CB93A823D3580B
:10442000CC93AC23D358CD93B023D358CE93B4239D
:10443000D358CF93B823D358D093BC23D358D19318
:10444000C023D358D293309B3092984643461F687E
:104450005B6842469946434641469B68D2680E696E
:104460004D690D984946049305920AF0E6FB0499BC
:10447000824614980AF0E1FB011C50460AF0C6FB84
:10448000391C824606980AF0D8FB011C50460AF0F7
:10449000BDFB311C824622980AF0CFFB291C8346C3
:1044A00029980AF0CAFB011C58460AF0AFFB05998F
:1044B00083461B980AF0C1FB011C58460AF0A6FB74
:1044C000011C50460AF0A2FB494620600E980AF0F3
:1044D000B4FB0499824615980AF0AFFB011C5046C4
:1044E0000AF094FB391C824607980AF0A6FB011CCF
:1044F00050460AF08BFB311C824623980AF09DFB44
:10450000291C83462A980AF098FB011C58460AF099
:104510007DFB059983461C980AF08FFB011C5846C9
:104520000AF074FB011C50460AF070FB49466060BB
:104530000F980AF082FB0499824616980AF07DFBD8
:10454000011C50460AF062FB391C824608980AF0AA
:1045500074FB011C50460AF059FB311C824624981A
:104560000AF06BFB291C83462B980AF066FB011CA2
:1045700058460AF04BFB059983461D980AF05DFBEF
:10458000011C58460AF042FB011C50460AF03EFB53
:104590004946A06010980AF050FB0499824617988B
:1045A0000AF04BFB011C50460AF030FB391C8246D6
:1045B00009980AF042FB011C50460AF027FB311C07
:1045C000824625980AF039FB291C83462C980AF06C
:1045D00034FB011C58460AF019FB059983461E98C6
:1045E0000AF02BFB011C58460AF010FB011C504638
:1045F0000AF00CFB4946E06011980AF01EFB049992
:10460000824618980AF019FB011C50460AF0FEFA7F
:10461000391C82460A980AF010FB011C50460AF029
:10462000F5FA311C824626980AF007FB291C8346BE
:104630002D980AF002FB011C58460AF0E7FA05998A
:1046400083461F980AF0F9FA011C58460AF0DEFA70
:10465000011C50460AF0DAFA4946206112980AF025
:10466000ECFA0499824619980AF0E7FA011C5046C0
:104670000AF0CCFA391C82460B980AF0DEFA011CCB
:1046800050460AF0C3FA311C824627980AF0D5FA40
:10469000291C83462E980AF0D0FA011C58460AF0CD
:1046A000B5FA0599834620980AF0C7FA011C5846C6
:1046B0000AF0ACFA011C50460AF0A8FA49466061BB
:1046C00013980AF0BAFA049981461A980AF0B5FAD2
:1046D000011C48460AF09AFA391C81460C980AF0E7
:1046E000ACFA011C48460AF091FA311C071C2898C4
:1046F0000AF0A3FA291C061C2F980AF09EFA011C46
:10470000301C0AF083FA0599051C21980AF095FAE5
:10471000011C281C0AF07AFA011C381C0AF076FAEF
:1047200018239C46FFABA06114331C34E044A34221
:1047300000D08BE6309BA2AD99463C93C4234C46F7
:10474000C8464B44089307944246D26843464146C4
:10475000914642469E694C68096892685F691B6988
:104760000491301CFD99069305920AF066FAF699B9
:104770008246381C0AF061FA011C50460AF046FADB
:10478000EF99824606980AF058FAE8998346484617
:104790000AF053FA011C58460AF038FA011C504638
:1047A0000AF034FAE199824605980AF046FADA9955
:1047B0008346201C0AF041FA011C58460AF026FAEA
:1047C000D399834604980AF038FA011C58460AF037
:1047D0001DFA011C50460AF019FA011C28680AF05B
:1047E00012FA2860FE99301C0AF027FAF7998246DF
:1047F000381C0AF022FA011C50460AF007FAF09918
:10480000824606980AF019FAE999834648460AF062
:1048100014FA011C58460AF0F9F9011C50460AF036
:10482000F5F9E299824605980AF007FADB99834682
:10483000201C0AF002FA011C58460AF0E7F9D49944
:10484000834604980AF0F9F9011C58460AF0DEF98B
:10485000011C50460AF0DAF9011C68680AF0D3F925
:10486000FF996860301C0AF0E8F9F8998246381C14
:104870000AF0E3F9011C50460AF0C8F9F1998246A2
:1048800006980AF0DAF9EA99834648460AF0D5F91B
:10489000011C58460AF0BAF9011C50460AF0B6F954
:1048A000E399824605980AF0C8F9DC998346201CF2
:1048B0000AF0C3F9011C58460AF0A8F9D5998346B5
:1048C00004980AF0BAF9011C58460AF09FF9011C35
:1048D00050460AF09BF9011CA8680AF094F9FFAB56
:1048E0005968A860301C04330AF0A7F9F999824688
:1048F000381C0AF0A2F9011C50460AF087F9F29917
:10490000824606980AF099F9EB99834648460AF0E0
:1049100094F9011C58460AF079F9011C50460AF036
:1049200075F9E499824605980AF087F9DD9983467E
:10493000201C0AF082F9011C58460AF067F9D69942
:10494000834604980AF079F9011C58460AF05EF98A
:10495000011C50460AF05AF9011CE8680AF053F9A4
:10496000FFAB9968E860301C08330AF066F9FA99E1
:104970008246381C0AF061F9011C50460AF046F9DB
:10498000F399824606980AF058F9EC99834648460E
:104990000AF053F9011C58460AF038F9011C504638
:1049A0000AF034F9E599824605980AF046F9DE994D
:1049B0008346201C0AF041F9011C58460AF026F9EA
:1049C000D799834604980AF038F9011C58460AF032
:1049D0001DF9011C50460AF019F9011C28690AF05A
:1049E00012F9FFABD9682861301C0C330AF025F9A5
:1049F000FB998246381C0AF020F9011C50460AF047
:104A000005F9F499824606980AF017F9ED9983465C
:104A100048460AF012F9011C58460AF0F7F8011C42
:104A200050460AF0F3F8E699824605980AF005F92F
:104A3000DF998346201C0AF000F9011C58460AF051
:104A4000E5F8D899834604980AF0F7F8011C58460F
:104A50000AF0DCF8011C50460AF0D8F8011C68691D
:104A60000AF0D1F8EE99686148460AF0E6F8F5993F
:104A7000814606980AF0E1F8011C48460AF0C6F89B
:104A8000FC998146381C0AF0D8F8FFAB1969071C5D
:104A9000301C10330AF0D1F8011C381C0AF0B6F8AB
:104AA000011C48460AF0B2F8E099061C201C0AF0E6
:104AB000C4F8E799041C05980AF0BFF8011C201CF3
:104AC0000AF0A4F8D999041C04980AF0B6F8011C5D
:104AD000201C0AF09BF8011C301C0AF097F8011CFE
:104AE000A8690AF090F81C239C46089BE044A86142
:104AF0001C35984500D027E6079BA29A99461A6074
:104B0000A39A5A60A49A9A60A59ADA60A69A1A6142
:104B1000A79A5A61A89A9A61A99ADA61AA9A1A621E
:104B2000AB9A5A62AC9A9A62AD9ADA62AE9A1A63FA
:104B3000AF9A5A63B09A9A63B19ADA63B29A1A64D6
:104B4000B39A5A64B49A9A64B59ADA64B69A1A65B2
:104B5000B79A5A65B89A9A65B99ADA65BA9A1A668E
:104B6000BB9A5A66BC9A9A66BD9ADA66BE9A1A676A
:104B7000BF9A5A67C09A9A67C19ADA674A468023F1
:104B8000C299D150C3990433D150C4990433D15040
:104B9000C5990433D150C6990433D150C799043311
:104BA000D150C8990433D150C9990433D150CA990E
:104BB0000433D150CB990433D150CC990433D15024
:104BC000CD990433D150CE990433D150CF990433C9
:104BD000D150D0990433D150D1990433D150D299C6
:104BE0000433D1503AAA9446504BA2AA63441B689E
:104BF00013CB13C24E4BD3AC63441B6807CB07C423
:104C00003A9B3B9D00934B4B28006344A2A91B6831
:104C1000D3AAFDF77FF82B00D3AA23CB23C213CB53
:104C200013C23AA91B688C4613603EAA11003F4B81
:104C300063441B6831CB31C13D4BA2A963441B685F
:104C400031CB31C13B4BD3A963441B6871A800939E
:104C5000A2ABFDF7C5FAD3AB1C000793719BA0462E
:104C60000993789B10937F9B1793869B1E938D9B34
:104C70002593949B2C939B9B3393729B0A93799BD4
:104C80001193809B1893879B1F938E9B2693959BD4
:104C90002D939C9B3493739B0B937A9B1293819BD4
:104CA0001993889B20938F9B2793969B2E939D9B74
:104CB0003593749B0C937B9B1393829B1A93899BD4
:104CC0002193909B2893979B2F939E9B3693759B44
:104CD0000D937C9B1493839B1B938A9B2293919BA4
:104CE0002993989B30939F9B3793769B0E937D9B44
:104CF0001593849B1C938B9B2393929B2A93999B44
:104D00003193A09B3893779B0F937E9B1693859B43
:104D10001D938C9B2493939B2B939A9B3293A19BE3
:104D200039934B463D933C9B994605E0280800008B
:104D3000380800003C080000484649464A464B46B1
:104D4000866909691B6855689468D2684769069145
:104D50003398311C0592049309F06FFF391C824689
:104D60002C9809F06AFF011C504609F04FFF069984
:104D70008246259809F061FF059983461E9809F03F
:104D80005CFF011C584609F041FF011C504609F028
:104D90003DFF211C8246179809F04FFF291C8346CE
:104DA000109809F04AFF011C584609F02FFF04999A
:104DB0008346099809F041FF011C584609F026FF77
:104DC000011C504609F022FF4346311C18603498FC
:104DD00009F033FF391C82462D9809F02EFF011C83
:104DE000504609F013FF06998246269809F025FFE0
:104DF000059983461F9809F020FF011C584609F0C9
:104E000005FF011C504609F001FF211C824618983D
:104E100009F013FF291C8346119809F00EFF011CAD
:104E2000584609F0F3FE049983460A9809F005FFF5
:104E3000011C584609F0EAFE011C504609F0E6FE46
:104E40004346311C5860359809F0F7FE391C8246FC
:104E50002E9809F0F2FE011C504609F0D7FE069983
:104E60008246279809F0E9FE05998346209809F0C3
:104E7000E4FE011C584609F0C9FE011C504609F029
:104E8000C5FE211C8246199809F0D7FE291C8346CD
:104E9000129809F0D2FE011C584609F0B7FE049999
:104EA00083460B9809F0C9FE011C584609F0AEFE76
:104EB000011C504609F0AAFE4346311C9860369802
:104EC00009F0BBFE391C82462F9809F0B6FE011C82
:104ED000504609F09BFE06998246289809F0ADFEDF
:104EE00005998346219809F0A8FE011C584609F04F
:104EF0008DFE011C504609F089FE211C82461A983D
:104F000009F09BFE291C8346139809F096FE011CAC
:104F1000584609F07BFE049983460C9809F08DFEF3
:104F2000011C584609F072FE011C504609F06EFE45
:104F30004346311CD860379809F07FFE391C824601
:104F4000309809F07AFE011C504609F05FFE069980
:104F50008246299809F071FE05998346229809F046
:104F60006CFE011C584609F051FE011C504609F028
:104F70004DFE211C82461B9809F05FFE291C8346CA
:104F8000149809F05AFE011C584609F03FFE049996
:104F900083460D9809F051FE011C584609F036FE73
:104FA000011C504609F032FE4346311C1861389806
:104FB00009F043FE391C8246319809F03EFE011C7F
:104FC000504609F023FE069982462A9809F035FEDC
:104FD00005998346239809F030FE011C584609F0D4
:104FE00015FE011C504609F011FE211C82461C983A
:104FF00009F023FE291C8346159809F01EFE011CAA
:10500000584609F003FE049983460E9809F015FEF0
:10501000011C584609F0FAFD011C504609F0F6FD46
:10502000434605995861249809F007FE069982467F
:105030002B9809F002FE011C504609F0E7FD391CCF
:105040008246329809F0F9FD311C071C399809F0A5
:10505000F4FD011C381C09F0D9FD011C504609F073
:10506000D5FD291C061C169809F0E7FD211C051C1E
:105070001D9809F0E2FD011C281C09F0C7FD0499E8
:10508000041C0F9809F0D9FD011C201C09F0BEFD7D
:10509000011C301C09F0BAFD434698611C239C4654
:1050A000089BE144E044994500D045E6A2ACA04607
:1050B000F6AB0693DAAB3C940893079B33981A68D7
:1050C000596D0492069A8946D669196FDD69059172
:1050D000311C9C6B176809F0B0FD391C82462C9876
:1050E00009F0ABFD011C504609F090FD0599824680
:1050F000259809F0A2FD494683461E9809F09DFDBA
:10510000011C584609F082FD011C504609F07EFD45
:10511000211C8246179809F090FD291C834610989F
:1051200009F08BFD011C584609F070FD0499834677
:10513000099809F082FD011C584609F067FD011C21
:10514000504609F063FD41460860311C349809F06F
:1051500074FD391C82462D9809F06FFD011C5046E4
:1051600009F054FD05998246269809F066FD4946E6
:1051700083461F9809F061FD011C584609F046FD61
:10518000011C504609F042FD211C8246189809F086
:1051900054FD291C8346119809F04FFD011C584607
:1051A00009F034FD049983460A9809F046FD011C74
:1051B000584609F02BFD011C504609F027FD4146D9
:1051C0004860311C359809F038FD391C82462E980C
:1051D00009F033FD011C504609F018FD059982467F
:1051E000279809F02AFD49468346209809F025FDB5
:1051F000011C584609F00AFD011C504609F006FD45
:10520000211C8246199809F018FD291C8346129822
:1052100009F013FD011C584609F0F8FC0499834677
:105220000B9809F00AFD011C584609F0EFFC011C1F
:10523000504609F0EBFC41468860311C369809F075
:10524000FCFC391C82462F9809F0F7FC011C5046E3
:1052500009F0DCFC05998246289809F0EEFC4946E5
:105260008346219809F0E9FC011C584609F0CEFC60
:10527000011C504609F0CAFC211C82461A9809F00C
:10528000DCFC291C8346139809F0D7FC011C584606
:1052900009F0BCFC049983460C9809F0CEFC011C73
:1052A000584609F0B3FC011C504609F0AFFC4146DA
:1052B000C860311C379809F0C0FC391C8246309810
:1052C00009F0BBFC011C504609F0A0FC0599824680
:1052D000299809F0B2FC49468346229809F0ADFCB2
:1052E000011C584609F092FC011C504609F08EFC46
:1052F000211C82461B9809F0A0FC291C83461498A7
:1053000009F09BFC011C584609F080FC0499834677
:105310000D9809F092FC011C584609F077FC011C1D
:10532000504609F073FC41460861311C389809F079
:1053300084FC391C8246319809F07FFC011C5046E0
:1053400009F064FC059982462A9809F076FC4946E2
:105350008346239809F071FC011C584609F056FC5D
:10536000011C504609F052FC211C82461C9809F091
:1053700064FC291C8346159809F05FFC011C584603
:1053800009F044FC049983460E9809F056FC011C70
:10539000584609F03BFC011C504609F037FC4346D7
:1053A00049465861249809F048FC059981462B9894
:1053B00009F043FC011C484609F028FC391C8146D1
:1053C000329809F03AFC311C071C399809F035FC79
:1053D000011C381C09F01AFC011C484609F016FC97
:1053E000291C061C169809F028FC211C051C1D9878
:1053F00009F023FC011C281C09F008FC0499041C7A
:105400000F9809F01AFC011C201C09F0FFFB011C7D
:10541000301C09F0FBFB414688611C218C46069A32
:10542000079B04320692089A04330793E0449A4299
:1054300000D042E63AAA94463D9B764A9946754B7F
:10544000624463441B6812681B68D3AC0793714BBA
:1054500063441B68DB6908936E4B63441B689B6B5A
:1054600009936C4B63441B685B6D0A93694B6344FF
:105470001B681B6F0B938C23D358664A0C93654BA8
:10548000624463441B685B680D93624B63441B6812
:105490001B6A0E935F4B63441B68DB6B0F935D4B82
:1054A00063441B689B6D10935A4B63441B685B6F8E
:1054B000126811939023D358564A1293554B624465
:1054C00063441B6812689B681393524B63441B68C8
:1054D0005B6A14934F4B63441B681B6C15934D4BD5
:1054E00063441B68DB6D16934A4B63441B689B6FD8
:1054F00017939423D358474A1893464B6244634406
:105500001B68DB681993434B63441B689B6A1A93BF
:10551000404B63441B685B6C1B933E4B63441B68AE
:1055200012681B6E1C933B4B63441B68DB6F1D931F
:105530009823D358374A1E93364B624463441B6802
:1055400012681B691F93334B63441B68DB6A20930B
:10555000304B63441B689B6C21932E4B63441B6848
:105560005B6E22938023D3582A4A23939C23624460
:105570001268D358274A2493264B624463441B681D
:105580005B692593234B63441B681B6B2693214B5C
:10559000126863441B68DB6C27931E4B63441B68D3
:1055A0009B6E28938423D3581A4A2993A0236244DC
:1055B0001268D358174A2A93164B624463441B68F7
:1055C00012689B692B93134B63441B685B6B2C9392
:1055D000104B63441B681B6D2D930E4B63441B687B
:1055E000DB6E2E938823D3580A4A2F93A423624458
:1055F0001268D35822003093074B63441B689846C7
:10560000D3AB06939023434431934B464446904694
:10561000329303E0340800002C0800006368E2685D
:105620009946A368089948460493059209F005FB3A
:1056300009998246049809F000FB011C504609F0C4
:10564000E5FA276882460799381C09F0F6FA011C2A
:10565000504609F0DBFA266982460B99301C09F0A6
:10566000ECFA656983460C99281C09F0E6FA011CDE
:10567000584609F0CBFA0A998346059809F0DDFAF5
:10568000011C584609F0C2FA011C504609F0BEFA46
:10569000414608600E99484609F0CFFA0F998246B4
:1056A000049809F0CAFA011C504609F0AFFA0D99A6
:1056B0008246381C09F0C1FA011C504609F0A6FACE
:1056C00011998246301C09F0B8FA12998346281CB9
:1056D00009F0B3FA011C584609F098FA109983466C
:1056E000059809F0AAFA011C584609F08FFA011C26
:1056F000504609F08BFA414648601499484609F033
:105700009CFA15998246049809F097FA011C5046B4
:1057100009F07CFA13998246381C09F08EFA011CB4
:10572000504609F073FA17998246301C09F085FA41
:1057300018998346281C09F080FA011C584609F084
:1057400065FA16998346059809F077FA011C5846C0
:1057500009F05CFA011C504609F058FA414688608D
:105760001A99484609F069FA1B998246049809F08B
:1057700064FA011C504609F049FA19998246381C0E
:1057800009F05BFA011C504609F040FA1D99824667
:10579000301C09F052FA1E998346281C09F04DFA74
:1057A000011C584609F032FA1C998346059809F005
:1057B00044FA011C584609F029FA011C504609F028
:1057C00025FA4146C8602099484609F036FA2199E1
:1057D0008246049809F031FA011C504609F016FA85
:1057E0001F998246381C09F028FA011C504609F01E
:1057F0000DFA23998246301C09F01FFA249983463A
:10580000281C09F01AFA011C584609F0FFF92299E0
:105810008346059809F011FA011C584609F0F6F97B
:10582000011C504609F0F2F94146086126994846A4
:1058300009F003FA27998246049809F0FEF9011C41
:10584000504609F0E3F925998246381C09F0F5F92C
:10585000011C504609F0DAF929998246301C09F0FA
:10586000ECF92A998346281C09F0E7F9011C5846EF
:1058700009F0CCF928998346059809F0DEF9011C56
:10588000584609F0C3F9011C504609F0BFF94346D8
:105890002C995861484609F0D0F92D998146049811
:1058A00009F0CBF9011C484609F0B0F92B99814663
:1058B000381C09F0C2F9011C484609F0A7F92F99D4
:1058C000071C301C09F0B9F93099061C281C09F096
:1058D000B4F9011C301C09F099F92E99051C0598A2
:1058E00009F0ABF9011C281C09F090F9011C381CC7
:1058F00009F08CF9434698611C239C46319B18346F
:10590000E044A34200D089E6F6AB05933C9CDAABB9
:105910003193069B0899DA691F6891469A6B48464D
:1059200090465A6D1E6F0492059A20CA059209F09E
:1059300084F909998246404609F07FF9011C5046D6
:1059400009F064F907998246381C09F076F9011CC0
:10595000504609F05BF90B998246301C09F06DF94D
:105960000C998346281C09F068F9011C584609F077
:105970004DF90A998346049809F05FF9011C5846CD
:1059800009F044F9011C504609F040F9011C206857
:1059900009F03CF90E992060484609F04EF90F993C
:1059A0008246404609F049F9011C504609F02EF99B
:1059B0000D998246381C09F040F9011C504609F047
:1059C00025F911998246301C09F037F9129983465E
:1059D000281C09F032F9011C584609F017F91099F2
:1059E0008346049809F029F9011C584609F00EF97C
:1059F000011C504609F00AF9011C606809F006F91B
:105A000018996060281C09F018F917998246301C13
:105A100009F013F9011C504609F0F8F8169982466E
:105A2000049809F00AF9011C504609F0EFF814999E
:105A30008246484609F001F915998346404609F027
:105A4000FCF8011C584609F0E1F813998346381C0C
:105A500009F0F3F8011C584609F0D8F8011C50462B
:105A600009F0D4F8011CA06809F0D0F81E99A060D4
:105A7000281C09F0E2F81D998246301C09F0DDF877
:105A8000011C504609F0C2F81C998246049809F09E
:105A9000D4F8011C504609F0B9F81B9982464046DB
:105AA00009F0CBF81A998346484609F0C6F8011C5C
:105AB000584609F0ABF819998346381C09F0BDF82F
:105AC000011C584609F0A2F8011C504609F09EF846
:105AD000011CE06809F09AF82099E060484609F056
